:100000000C945D1D0C949D1D0C949D1D0C949D1DC8
:100010000C949D1D0C949D1D0C949D1D0C949D1D78
:100020000C949D1D0C949D1D0C949D1D0C949D1D68
:100030000C949D1D0C949D1D0C949D1D0C949D1D58
:100040000C949D1D0C941B930C949D1D0C949D1D54
:100050000C949D1D0C94F1850C949D1D0C942A7597
:100060000C949D1D0C94DD350C94D3350C949D1D82
:100070000C949D1D0C949D1D0C949D1D0C949D1D18
:100080000C949D1D0C949D1D0C949D1D0C949D1D08
:100090000C949D1D0C949D1D0C949D1D0C949D1DF8
:1000A0000C949D1D0C949D1D0C949D1D0C949D1DE8
:1000B0000C949D1D0C949D1D0C949D1D0C949D1DD8
:1000C0000C949D1D0C949D1D0C949D1D0C946028FA
:1000D0000C942A280C949D1D0C949D1D0C949D1D20
:1000E0000C949D1D084AD73B3BCE016E84BCBFFDDE
:1000F000C12F3D6C74319ABD56833DDA3D00C77FF8
:1001000011BED9E4BB4C3E916BAAAABE0000008090
:100110003F05A84CCDB2D44EB93836A9020C50B91F
:10012000918688083CA6AAAA2ABE000000803F004B
:100130000C940A290C94C6DC0C9413270C940D4CD7
:100140000C945B270C9460690C94A2EB0C94C5C7CB
:100150000C949C4C0C940F740C9477C60C94D7722E
:100160000C945D270C9421690D944A180D94651820
:100170000C944E690C9473360C94F64B0C94FFDE81
:100180000C949AEB0C9487360C94AEEB0C94D5DC63
:100190000C94074D0C94666A0C94B7EB0C94F228FF
:1001A0000C949FEB0D9458180C94EB280C9465DD7F
:1001B0000C9448690C9468360C94CFDC0C94352769
:1001C0000C9429690C948ADC0C941BDD0C94446912
:1001D0000C94C3DC0C94064C0D9470150D94A81B64
:1001E0000C9456C70C945B690C9477360C947B3650
:1001F0000C9437270C94004C0C946F360C941C29EB
:100200000C947BC70C94BDEB0C949CC60C94DE4CF8
:100210000D9431150C94B34B0C94A1360C943A699F
:100220000C9411290D945A180C9425690C9469DDCD
:100230000C940CC70C94ABEB0C940A4C0C949E28B9
:100240000D9466170C94F94B0C94E54B0C94EF4B02
:100250000C94144D0D943D170D94B41B0C94A0C731
:100260000D947F270C9415270C94A84C0C947F7345
:100270000D94691B0D948D1B0D9426180C94EC4C59
:100280000D94A5160C9499360C9402290C9440698F
:100290000C9459360C94F5260C9420730C94804CD5
:1002A0000C94E14B0C9452690C944A360C94AE4B6E
:1002B0000C945C690C94CD280D9421160D9438187B
:1002C0000C94C9DC0D9412180C947D270C94414CAD
:1002D0000C9464730C94A5EB0C94D2DC0D94C31BAA
:1002E0000D94B1170C94684C0C9439270C94062982
:1002F0000C94FE280C948E360D947A170C942E4D87
:100300000C94724C0C94C0DE0C94DBDC0C948E4C80
:100310000C94D8DC0D949C1B0C94C1C60C94B4EBCB
:100320000C94E9260D9461270C94C0DC0C94F628FB
:100330000C94214D0C9431DF0C9435C60C947872DA
:100340000C94EB4B0C94FA280C9431C70C94F24BA0
:100350000C945F740C945B720C942D690C94366948
:100360000C94A8EB0C9459270D9454180D94411833
:100370000C94DC280C9424290C9481270D949D174F
:100380000C94B44C0C94E84B0C941B690D94CF1650
:100390000C94CCDC0D942F180C9456690C94306995
:1003A0000C94C24C0C94BDDC0C9483360D945D1BF4
:1003B0000D94D0170C94DE4B0C943C740C94EADE34
:1003C0000C94656A0C947F270D941D180C94D04CE6
:1003D0000C941B360C94BAEB0C94FA4C0C94B1EBC5
:1003E0000C94034C0C94E3690C94FD730C947F36CD
:1003F0000C94FC4B4E414E494E495459494E46CD02
:10040000CCCC3D0AD7233C17B7D13877CC2B3295CB
:1004100095E6241FB14F0A000020410000C84200A9
:10042000401C4620BCBE4CCA1B0E5AAEC59D740073
:10043000407A10F35A00A0724E18090010A5D4E8B3
:100440000000E87648170000E40B54020000CA9A46
:100450003B000000E1F50500008096980000004098
:10046000420F000000A086010000001027000000DD
:1004700000E803000000006400000000000A000023
:100480000000000100000000002C76D888DC674FD7
:100490000823DFC1DFAE59E1B1B796E5E3E453C607
:1004A0003AE651997696E8E6C28426EB898C9B62FF
:1004B000ED407C6FFCEFBC9C9F40F2BAA56FA5F4A9
:1004C00090055A2AF75C936B6CF9676DC11BFCE0D1
:1004D000E40D47FEF520E6B500D0ED902E03009424
:1004E0003577050080841E080000204E0A000000B9
:1004F000C80C333333330F986E12831141EF8D21C3
:1005000014893BE65516CFFEE6DB18D1844B381B29
:10051000F77C1D901DA4BBE424203284725E2281EE
:1005200000C9F124ECA1E53D275A5F53544F505FB9
:1005300050494E005A5F535445505F50494E005A3F
:100540005F4D494E5F50494E005A5F454E41424C07
:10055000455F50494E005A5F4449525F50494E0032
:10056000595F53544F505F50494E00595F535445A3
:10057000505F50494E00595F4D494E5F50494E0003
:10058000595F454E41424C455F50494E00595F44CA
:1005900049525F50494E00585F53544F505F504985
:1005A0004E00585F535445505F50494E00585F4DC0
:1005B000494E5F50494E00585F454E41424C455FA1
:1005C00050494E00585F4449525F50494E005355C0
:1005D00049434944455F50494E00534552564F33B5
:1005E0005F50494E00534552564F325F50494E00BE
:1005F000534552564F315F50494E00534552564F66
:10060000305F50494E00534453530053445F4445B8
:10061000544543545F50494E004D4F534645545F37
:10062000435F50494E004D4F534645545F425F5023
:10063000494E004D4F534645545F415F50494E006F
:1006400054454D505F305F43535F50494E004C4519
:10065000445F50494E004845415445525F4245442D
:100660005F50494E004845415445525F305F504904
:100670004E0046494C5F52554E4F55545F50494EBF
:100680000046414E5F50494E0045315F535445503E
:100690005F50494E0045315F454E41424C455F50E9
:1006A000494E0045315F4449525F50494E00453143
:1006B0005F43535F50494E0045305F535445505F90
:1006C00050494E0045305F454E41424C455F5049D0
:1006D0004E0045305F4449525F50494E0042454507
:1006E0005045525F50494E004156525F53535F5040
:1006F000494E004156525F53434B5F50494E0041B3
:1007000056525F4D4F53495F50494E004156525F1C
:100710004D49534F5F50494E0054454D505F42453F
:10072000445F50494E0054454D505F315F50494E33
:100730000054454D505F305F50494E0046494C577C
:10074000494454485F50494E00545844320052586E
:1007500044320054584430005258443000434F4D06
:100760004D554E49434154494F4E004452595255FC
:100770004E004552524F525300494E464F0045439A
:10078000484F004572726F722077726974696E67A4
:1007900020746F20454550524F4D210A00363726B0
:1007A000033C3D380E2E303E121A1C180A4309082D
:1007B00044000153544F505045442E20005072695C
:1007C0006E7465722073746F7070656420647565F3
:1007D00020746F206572726F72732E2046697820C4
:1007E000746865206572726F7220616E6420757323
:1007F00065204D39393920746F20726573746172C8
:10080000742E202854656D70657261747572652050
:1008100069732072657365742E2053657420697442
:100820002061667465722072657374617274696E9A
:1008300067290A004E6F20436865636B73756D20EE
:1008400077697468206C696E65206E756D6265727B
:100850002C204C617374204C696E653A20004E6FF9
:1008600020436865636B73756D2077697468206CCD
:10087000696E65206E756D6265722C204C617374B3
:10088000204C696E653A2000636865636B73756D13
:10089000206D69736D617463682C204C61737420E2
:1008A0004C696E653A20004C696E65204E756D622C
:1008B0006572206973206E6F74204C617374204CD4
:1008C000696E65204E756D6265722B312C204C610E
:1008D0007374204C696E653A20004D3131300053FD
:1008E000657269616C20737461747573206D6973CE
:1008F0006D617463680A00776169740A005344206B
:1009000072656164206572726F720A002121204B4A
:10091000494C4C2063617573656420627920746F63
:100920006F206D75636820696E61637469766520F8
:1009300074696D65202D2063757272656E74206315
:100940006F6D6D616E643A2000486F74656E64204F
:1009500049646C652054696D656F757400486F74E7
:10096000656E642049646C652054696D656F7574AB
:100970000A003D3D6F6E46696C616D656E7452751F
:100980006E6F75743D3D007061757365004D363056
:1009900030002066696C616D656E745F72756E6F94
:1009A0007574200066696C616D656E745F72756E3A
:1009B0006F757420540046696C616D656E74527574
:1009C0006E6F75742054004D3130303053006275B5
:1009D00073793A2070617573656420666F7220695F
:1009E0006E7075740A00627573793A207061757360
:1009F000656420666F7220757365720A0062757394
:100A0000793A2070726F63657373696E670A0025A7
:100A1000533A202553002A2A2A6B696C6C2A2A2A09
:100A200000706F7765726F6666004B494C4C4544A9
:100A30002E20005072696E7465722068616C746556
:100A4000642E206B696C6C28292063616C6C656472
:100A5000210A006563686F3A004572726F723A004E
:100A600042696C696E656172204C6576656C696E71
:100A70006720477269643A0A002F2F616374696FB7
:100A80006E3A006E6F74696669636174696F6E2097
:100A90000070726F6D70745F00656E6400486F74F3
:100AA000656E6420746F6F20636F6C640A00536519
:100AB0006E64204D31303820746F20726573756D0F
:100AC000650A00496E736572742066696C616D65B4
:100AD0006E7420616E642073656E64204D31303811
:100AE0000A0052656865617420446F6E6500526546
:100AF00068656174696E672E2E2E005265686561A7
:100B000074004865617465722054696D656F757411
:100B10000053656E64204D31303820746F20686555
:100B20006174206E6F7A7A6C650A004E6F7A7A6C07
:100B300065205061726B6564007061757365640057
:100B40005061757365004F46460A00466164652032
:100B50004865696768742000426564204C65766565
:100B60006C696E6720004661696C656420746F2053
:100B7000656E61626C6520426564204C6576656CCB
:100B8000696E670A00496E76616C6964206D6573F1
:100B9000682E0A0050726F62696E6720506F696E2E
:100BA000740025532025692F2569002E0A002F0087
:100BB00050726F62696E67206D65736820706F692F
:100BC0006E742000202844525952554E2900473255
:100BD00039204175746F20426564204C6576656CE0
:100BE000696E67003F20284C2C522C462C4229204D
:100BF0006F7574206F6620626F756E64732E0A00C5
:100C00003F2856296572626F7365206C6576656C46
:100C100020696D706C61757369626C652028302D78
:100C200034292E0A00426164205A2076616C756571
:100C30000A004E6F2062696C696E6561722067728E
:100C400069640A0020440020204D323030205300D7
:100C5000202844697361626C6564293A0046696CB6
:100C6000616D656E742073657474696E67730020BE
:100C7000204D3230312058004D617820416363654A
:100C80006C65726174696F6E2028756E6974732F5C
:100C90007332290020204D3230332058004D6178C6
:100CA000206665656472617465732028756E697469
:100CB000732F73290020520020204D3230342050F1
:100CC00000416363656C65726174696F6E2028759D
:100CD0006E6974732F7332292028503C7072696ECC
:100CE000742D616363656C3E20523C726574726161
:100CF00063742D616363656C3E20543C747261764D
:100D0000656C2D616363656C3E29005741524E4905
:100D10004E4721204C6F77205A204A65726B206D18
:100D20006179206C65616420746F20756E77616EE7
:100D3000746564207061757365732E0A0020540019
:100D400020530020204D323035204200416476612E
:100D50006E6365642028423C6D696E5F7365676DE4
:100D6000656E745F74696D655F75733E20533C6D8D
:100D7000696E5F66656564726174653E20543C6DA2
:100D8000696E5F74726176656C5F666565647261D9
:100D900074653E20583C6D61785F6A65726B3E20D9
:100DA000593C6D61785F6A65726B3E205A3C6D619B
:100DB000785F6A65726B3E20453C6D61785F6A655D
:100DC000726B3E290020440020490020204D333022
:100DD00031205000486F74656E64205049440020F3
:100DE000440020490020204D33303420500042651B
:100DF00064205049440050574D3A20202534640067
:100E000050574D3A20202534640050574D3A202049
:100E10002534640050574D3A202025346400505743
:100E20004D3A20202534640050574D3A2020253477
:100E3000640050574D3A20202534640050574D3AF5
:100E400020202534640050574D3A2020253464007A
:100E500050574D3A20202534640050574D3A2020F9
:100E60002534640050574D3A2020253464005057F3
:100E70004D3A20202534640050574D3A2020253427
:100E8000640050574D3A20202534640050574D3AA5
:100E90002020253464003A200020202020434F4D9C
:100EA000002020206E6F6E2D7374616E6461726419
:100EB0002050574D206D6F646500202020636F6DBA
:100EC0007061726520696E746572727570742065E8
:100ED0006E61626C6564002020206F766572666CBE
:100EE0006F7720696E7465727275707420656E61BB
:100EF000626C6564003A20002020202054494D5344
:100F00004B00423A2000202020205443435200410D
:100F10003A2000202020205443435200202020204B
:100F200043533A20002020202057474D3A200050BC
:100F3000574D3A20202534640050574D3A20202543
:100F400034640047004800000088008A008C00B329
:100F500000B400000098009A009C00A800AA00AC11
:100F60000028012A012C012020202054494D4552FF
:100F700000440045006E00800081006F00B000B1A9
:100F8000007000900091007100A000A1007200208C
:100F9000012101730020697320616C736F207469F3
:100FA000656420746F20746869732070696E0054E2
:100FB000494D45523143000A202E002020002020B8
:100FC000506F72743A200020202000202020416EB3
:100FD000616C6F6720696E203D2025356C64003C94
:100FE000756E757365642F756E6B6E6F776E3E00F0
:100FF0002028412532642920200025336420005018
:10100000494E3A20004F7574707574203D20004998
:101010006E70757420203D2000416E616C6F6720FA
:10102000696E203D2025356C640070726F746563B5
:101030007465642000202841253264292020002581
:101040003364200050494E3A2000580700015307EE
:1010500001014E071101490710013C073B00310710
:10106000430026074500190744000C073201FF061C
:101070003301F3063401E8063501DD062501D20609
:101080001C01C4061801B8061A01AE062C01A306FD
:10109000220195061E0189062401810609017206B6
:1010A000020165060A01560608014E060D014006BA
:1010B000420133060A0126060701190608010B063C
:1010C000310106063501FB050B01F0050601E505BA
:1010D0000501DA050401CE050C01C4053701B70589
:1010E0002601AD050301A2053601970503018D0513
:1010F0003D018005380176050E016B053C01600558
:101100000E015605300149053E013F051201340527
:101110002E0129051201446F6E652E0A0050756C70
:1011200073696E6720202000556E746F7563686563
:10113000642000534552564F206E6F7420736574BF
:101140002075702E0A004D34332057616974204396
:10115000616C6C6564004D343320576169742043C1
:10116000616C6C6564005761746368696E672070B8
:10117000696E730A0064697300656E0061626C6574
:10118000640A00656E6473746F70206D6F6E6974AD
:101190006F72200020580020204D61783A200020F6
:1011A0000020204D696E3A2000203B200020204D79
:1011B0003231312053003F43616E6E6F742077727D
:1011C00069746520746F20494E5055540A00496E69
:1011D00076616C69642050696E204D6F64650A0009
:1011E000203B0020550020204D363033204C004657
:1011F000696C616D656E74206C6F61642F756E6CC7
:101200006F6164004D323453256C6454256C640066
:101210004739322E3945257300473146256400474A
:10122000315A2573463630300047315825735925D9
:10123000734633303030004D3130365025695325F8
:1012400069004D313039532569004D323030442525
:1012500073004739322E395A2573004D34323053DA
:1012600025635A25730047323852305859004731A8
:101270005A257346363030004739322E395A257395
:10128000004739322E394530004D31303953256908
:10129000004D313930532569004D34323020533000
:1012A000205A30003D3D4F6E506F7765724C6F7322
:1012B00073526573756D653D3D00203B2000202015
:1012C0004D343133205300506F7765722D6C6F733E
:1012D00073207265636F76657279004F4646004FE2
:1012E0004E00203B20486F73742068616E646C6907
:1012F0006E672000203B204D6F646520006D6D00FF
:10130000203B2044697374616E6365200046696CFC
:10131000616D656E742072756E6F757420003B2070
:101320000020496E76616C6964206578747275641A
:101330006572200047322F4733206261642070615C
:1013400072616D65746572730A00536C6565702E09
:101350002E2E005A2050726F6265205061737420E7
:101360004265640A005A2050726F626520506173B2
:101370007420426564004732384C3000205A3A20CD
:101380000020593A200042656420583A20004D65FB
:10139000736820706F696E74206F7574206F66209B
:1013A00072616E67650A004D302053746F70004D96
:1013B000312053746F7000436C69636B20746F202D
:1013C000526573756D652E2E2E004E6F204D6F7613
:1013D000652E00456E642066696C65206C697374C7
:1013E0000A00426567696E2066696C65206C6973E6
:1013F000740A004E6F206D656469610A005265735E
:10140000756D696E6720534400286E6F2066696CA5
:1014100065290043757272656E742066696C653A61
:1014200020005072696E742074696D653A20000A5C
:1014300053746174733A2046696C616D656E7420F3
:10144000757365643A20002C204C6F6E6765737469
:10145000206A6F623A2000546F74616C2074696D69
:10146000653A200053746174733A20002C20466161
:10147000696C65643A20002C2046696E6973686562
:10148000643A20005072696E74733A20005374619C
:1014900074733A20006F6B006F6666007E077907F1
:1014A00072076B075D0744454255473A004D31319D
:1014B00033205300544D3344203130532050726F49
:1014C000204F46462E002F2F0046523A0020466CF1
:1014D0006F773A200050726F7465637465642050B2
:1014E000696E0A0064697300656E0043290A006131
:1014F000626C656420286D696E2074656D702000D3
:10150000436F6C64206578747275646573206172D2
:10151000652000504944204175746F74756E6500F4
:10152000504944204175746F74756E652066616919
:101530006C65642120426164206865617465722075
:1015400069640A004D34323120696E636F727265CE
:10155000637420706172616D65746572207573616A
:1015600067650A004D65736820706F696E74206F3F
:101570007574206F662072616E67650A004F66663B
:1015800073657473204170706C6965640045727294
:101590003A20546F6F206661722100546F6F20668D
:1015A00061722066726F6D207265666572656E632A
:1015B0006520706F696E740A00454550524F4D208A
:1015C0004F4B0A00496E76616C69642065787472CD
:1015D000756465720A000A20696E6974207A7072F7
:1015E0006F62655F7A6F6666736574203D20003DAB
:1015F0003D6F6E436F6E66696775726174696F6E79
:1016000053746F7265526561643D3D0045455052AB
:101610004F4D20496E697469616C697A65640A008E
:1016200048617264636F6465642044656661756CCB
:10163000742053657474696E6773204C6F616465C0
:10164000640020286D6D2900203B204C6576656C78
:10165000696E67200020204D3432302053004175E0
:10166000746F20426564204C6576656C696E670016
:1016700046696C616D656E742072756E6F7574204D
:1016800073656E736F7200204A0020204732392044
:101690005720490020204D3134392043203B20552C
:1016A0006E69747320696E2043656C736975730A83
:1016B0000054656D706572617475726520556E6950
:1016C0007473002020473231203B004C696E656105
:1016D0007220556E69747300454550524F4D206419
:1016E00061746173697A65206572726F722E0A0087
:1016F00053657474696E6720566F6C756D65204F05
:101700006E203A200053657474696E6720537461CB
:101710006E646279204F6E203A20005365747469BC
:101720006E6720566F6C756D65203A2000536574A6
:1017300074696E6720526F746174696F6E203A200D
:101740000053657474696E67205374616E646279C6
:101750002054696D65203A200053657474696E6782
:10176000205374616E646279203A2000536574746A
:10177000696E67204272696768746E657373203A98
:1017800020004C6F6164696E67204457494E204CBD
:1017900043442073657474696E672066726F6D20B0
:1017A000454550524F4D0A00446973636172646944
:1017B0006E67204457494E204C434420736574742F
:1017C000696E672066726F6D20454550524F4D20FF
:1017D0002D2073657474696E677320766572736902
:1017E0006F6E20696E636F72726563740A0044697C
:1017F0007363617264696E67204457494E204C439D
:10180000442073657474696E672066726F6D20453D
:101810004550524F4D202D2073697A6520696E63C3
:101820006F72726563740A0053746F72656420731B
:10183000657474696E677320726574726965766524
:101840006400290A002062797465733B2063726327
:1018500020002073746F7265642073657474696E00
:101860006773207265747269657665642028004527
:101870004550524F4D20435243204572726F7200C3
:10188000202863616C63756C6174656429210A00AA
:1018900020213D2000454550524F4D2043524320CA
:1018A0006D69736D61746368202D202873746F7285
:1018B00065642920002053697A653A2000496E64E6
:1018C00065783A20000000FA430000FA4300002047
:1018D0004100008C420000A0420000A0420000C86D
:1018E000430080CF43EE020000EE020000640000DF
:1018F000003C000000454550524F4D205665727324
:10190000696F6E204572726F7200204D61726C6952
:101910006E3D563837290A00454550524F4D2076C6
:10192000657273696F6E206D69736D617463682091
:1019300028454550524F4D3D0024F4D43050C38EBD
:1019400020C2A24017828B7011127A910D816CD93E
:101950000AA861E108C7586607615143061E4B5D3E
:1019600005C145A7041A411104093D980371393195
:10197000034036DB0265339102D4305402802E1DC1
:1019800002632CEE01752AC501B028A00110278141
:10199000018F2564012B244B01E0223401AC211F6F
:1019A000018D200D01801FFC00841EED00971DDFBE
:1019B00000B81CD200E61BC600201BBC00641AB293
:1019C00000B219A8000A19A0006A189900D117914D
:1019D0000040178B00B516840031167E00B31579D0
:1019E000003A157300C7146F0058146A00EE1366AE
:1019F000008813630025135E00C7125B006C12574A
:101A00000015125400C111510070114F0021114BEB
:101A100000D61049008D10470046104400021042C5
:101A200000C00F4000800F3E00420F3C00060F3BFD
:101A300000CB0E3800930E37005C0E3500270E34B5
:101A400000F30D3200C10D3100900D3000600D2EFD
:101A500000320D2D00050D2C00D90C2B00AE0C29E9
:101A600000850C29005C0C2700350C27000E0C2685
:101A700000E80B2400C40B2400A00B23007D0B23E3
:101A8000005A0B2100390B2100180B2000F80A1F07
:101A900000D90A1E00BB0A1E009D0A1D00800A1DF7
:101AA00000630A1C00470A1B002C0A1B00110A1ABB
:101AB00000F7091A00DD091900C4091900AB09195A
:101AC00000920917007B091800630917004C0916DA
:101AD0000036091600200916000A091500F5081538
:101AE00000E0081400CC081400B8081400A408147E
:101AF00000900813007D0812006B081300580812AC
:101B000000460812003408110023081100120811C1
:101B10000001081100F0071000E0071000D00710C6
:101B200000C0071000B0070F00A107100091070EBA
:101B30000083070F0074070F0065070E0057070E9C
:101B40000049070E003B070D002E070E0020070D71
:101B50000013070D0006070D00F9060C00ED060D39
:101B600000E0060C00D4060C00C8060C00BC060CF5
:101B700000B0060C00A4060B0099060C008D060BA5
:101B80000082060B0077060B006C060B0061060A4C
:101B90000057060B004C060A0042060A0038060AE7
:101BA000002E060A0024060A001A060A001006097A
:101BB0000007060A00FD050900F4050900EB050908
:101BC00000E2050900D9050900D0050900C705098B
:101BD00000BE050900B5050800AD050800A505090A
:101BE000009C050800940508008C05080084050881
:101BF000007C050800740508006C050700650508F1
:101C0000005D050700560508004E0507004705075B
:101C1000004005080038050700310507002A0507C0
:101C200000230507001C050600160507000F050721
:101C3000000805060002050700FB040600F504077E
:101C400000EE040600E8040600E2040700DB0406D8
:101C500000D5040600CF040600C9040600C304062C
:101C600000BD040600B7040600B1040500AC04067C
:101C700000A6040600A00405009B040600950405C8
:101C800000900406008A040500850405008004060F
:101C9000007A04050075040500700405006B040556
:101CA0000066040500610405005C04050057040596
:101CB00000520405004D04050048040500430405D6
:101CC000003E0404003A0405003504050030040415
:101CD000002C04050027040400230405001E04044E
:101CE000001A04040016040500110404000D040485
:101CF00000090405000404040000040400FC0304BB
:101D000000F8030400F4030400F0030400EC0304EF
:101D100000E8030400E4030400E0030400DC03041F
:101D200000D8030400D4030400D0030400CC03044F
:101D300000C8030300C503030024F404D9201BC416
:101D40000C5C0E9804C4095F0265077101F405F983
:101D500000FB04B30048048700C103690058035521
:101D60000003034500BE023A008402310053022AF8
:101D7000002902250004022000E4011C00C801190A
:101D800000AF0117009801140084011300710110C5
:101D9000006101100051010E0043010D0036010BDE
:101DA000002B010B0020010B00150109000C01099B
:101DB0000003010800FB000800F3000800EB000727
:101DC00000E4000600DE000600D8000600D200068F
:101DD00000CC000500C7000500C2000500BD0004DE
:101DE00000B9000400B5000400B1000400AD000417
:101DF00000A9000400A5000300A20003009F000446
:101E0000009B00030098000300950002009300036C
:101E100000900003008D0002008B00030088000288
:101E2000008600020084000300810002007F00029F
:101E3000007D0002007B00020079000200770001B3
:101E400000760002007400020072000100710002BE
:101E5000006F0002006D0001006C0002006A0001CA
:101E600000690002006700010066000100650001D2
:101E700000640002006200010061000100600001D6
:101E8000005F0002005D0001005C0001005B0001DA
:101E9000005A0001005900010058000100570001DC
:101EA00000560001005500010054000100530000DD
:101EB00000530001005200010051000100500001D8
:101EC000004F0001004E0000004E0001004D0001D7
:101ED000004C0001004B0000004B0001004A0001D3
:101EE00000490001004800000048000100470001CF
:101EF00000460000004600010045000000450001CA
:101F000000440001004300000043000100420000C3
:101F100000420001004100000041000100400001BA
:101F2000003F0000003F0001003E0000003E0001B5
:101F3000003D0000003D0001003C0000003C0000AE
:101F4000003C0001003B0000003B0001003A0000A3
:101F5000003A00010039000000390001003800009B
:101F60000038000000380001003700000037000191
:101F70000036000000360000003600010035000089
:101F8000003500000035000100340000003400007E
:101F90000034000100330000003300000033000172
:101FA0000032000000320000003200010031000069
:101FB000003100000031000100300000003000005E
:101FC00000300001002F0000002F0000002F000053
:101FD000002F0001002E0000002E0000002E000146
:101FE000002D0000002D0000002D0000002D00013C
:101FF000002C0000002C0000002C0000002C000130
:10200000002B0000002B0000002B0000002B000123
:10201000002A0000002A0000002A0000002A000117
:10202000002900000029000000290000002900000C
:1020300000290001002800000028000000280000FE
:1020400000280000002800010027000000270000F1
:1020500000270000002700000027000100260000E4
:1020600000260000002600000026000000260001D7
:1020700000250000002500000025000000250000CC
:1020800000250000002500010024000000240000BD
:1020900000240000002400000024000100230000B0
:1020A00000230000002300000023000000230000A4
:1020B0000023000000230001002200000022000095
:1020C0000022000000220000002200000022000187
:1020D000002100000021000000210000002100007C
:1020E000002100000021000000210001002000006C
:1020F0000020000000200000002000000020000060
:10210000002000000020000000200001001F00004F
:10211000001F0000001F0000001F0000001F000043
:10212000001F0000001F0001001E0000001E000034
:10213000001E0000001E00000039300000332500A2
:102140000087190000B00F0000DB080000BD04008C
:1021500000740200003F01000020436F756E742080
:10216000583A0023646566696E65204445464155CA
:102170004C545F0000626564004B6420004B692092
:10218000004B7020005049442074756E696E6720C2
:10219000646F6E6500504944204175746F74756EAC
:1021A000652066696E6973686564212050757420C6
:1021B000746865206C617374204B702C204B69200F
:1021C000616E64204B6420636F6E7374616E747310
:1021D0002066726F6D2062656C6F7720696E746F18
:1021E00020436F6E66696775726174696F6E2E68E1
:1021F0000A00504944204175746F74756E652066FD
:1022000061696C6564212074696D656F75740A007D
:102210004175746F74756E65206661696C656421C3
:102220002054696D656F75742E00504944204175C6
:10223000746F74756E65206661696C6564212054E5
:10224000656D706572617475726520746F6F20685A
:102250006967680A00504944204379636C657300DC
:1022600025532025692F256900204B643A20002042
:102270004B693A2000204B703A200020436C617378
:1022800073696320504944200A00204E6F206F7606
:10229000657273686F6F740A002054753A200020CD
:1022A0004B753A2000206D61783A2000206D696EF0
:1022B0003A200020643A200020626961733A2000CD
:1022C00048656174696E672E2E2E00504944204186
:1022D00075746F74756E652073746172740A004151
:1022E00075746F74756E65206661696C65642E2007
:1022F00054656D706572617475726520746F6F20BE
:10230000686967682E00504944204175746F747580
:102310006E65206661696C6564212054656D706529
:1023200072617475726520746F6F20686967680ADE
:1023300000426564004531004500626564002C2060
:1023400073797374656D2073746F70706564212088
:102350004865617465725F49443A2000486561745C
:10236000696E67204661696C6564004865617469DF
:102370006E67206661696C6564004D3131322053AF
:10238000687574646F776E004572723A204D4158DB
:1023900054454D50004D415854454D50207472697C
:1023A000676765726564004572723A204D494E5404
:1023B000454D50004D494E54454D5020747269674B
:1023C000676572656400544845524D414C20525532
:1023D0004E4157415900546865726D616C205275C9
:1023E0006E61776179000A0A0020205A5F4D494EDC
:1023F0003A002020595F4D494E3A002020585F4D49
:10240000494E3A00202F002042403A0020403A0036
:1024100020573A007C3C3E5E2B3D3F2F5B5D3B2CC2
:102420002A225C0043616E6E6F74206F70656E20AF
:1024300073756264697220004D6564696120496E3C
:102440006974204661696C005344206361726420A2
:102450006F6B0A006F70656E526F6F7420666169F2
:102460006C65640A00766F6C756D652E696E6974B3
:10247000206661696C65640A004E6F2053442063D6
:102480006172640A000A4D3234004D3233202573E4
:10249000002E0A006F70656E206661696C65642CA1
:1024A0002046696C653A200046696C652073656C4E
:1024B00065637465640A002053697A653A200046B2
:1024C000696C65206F70656E65643A2000454E4406
:1024D00020535542524F5554494E450A0022207010
:1024E0006F73002220706172656E743A220053553A
:1024F00042524F5554494E452043414C4C20746143
:10250000726765743A220053756263616C6C204F88
:10251000766572666C6F770045786365656465649F
:10252000206D617820535542524F5554494E4520F5
:1025300064657074683A002E0A0044656C657469BD
:102540006F6E206661696C65642C2046696C653A23
:10255000200046696C652064656C657465643A00AA
:102560005344207072696E74696E67206279746575
:1025700020004E6F74205344207072696E74696E2F
:10258000670A002F6175746F25632E6700577269A3
:1025900074696E6720746F2066696C653A20006606
:1025A0007265736800646F696E67002066696C65A8
:1025B0003A20004E6F7720002020506C616E6E65CF
:1025C0007242756666657242797465733A200020BE
:1025D00046726565204D656D6F72793A2000204323
:1025E0006F6D70696C65643A204D617920203120EF
:1025F000323032320A00204C6173742055706461AD
:102600007465643A20323032322D30342D3033202C
:102610007C20417574686F723A20426F6E647465F5
:102620006368202F20496E73616E697479417574F7
:102630006F6D6174696F6E0A004D61726C696E2016
:102640004457372E342E360A0020536F6674776154
:1026500072652052657365740A002057617463685F
:10266000646F672052657365740A002042726F7749
:102670006E206F75742052657365740A002045786A
:102680007465726E616C2052657365740A00506FD8
:1026900077657255700A0073746172740A00473965
:1026A000310A47315A350A4739300A4D38340A4D14
:1026B00031303453300A4D3134305330004D3130E5
:1026C0003031006572726F722077726974696E675B
:1026D00020746F2066696C650A00446F6E65207314
:1026E0006176696E672066696C652E0A004D323925
:1026F00000456E6473746F7073002553202563204A
:10270000256320256320256300205A3A0020593A8A
:102710000020583A00656E6473746F7073206869A6
:10272000743A200000002100240027002A002D0018
:102730003000330001010000040107010A0100001C
:102740002200250028002B002E0031003400020159
:102750000000050108010B010000200023002600F5
:1027600029002C002F0032000001000003010601A7
:102770000901050505050705080808080202020207
:102780000A0A08080404040401010101010101010D
:102790000303030303030303040707070C0C0C0CD8
:1027A0000C0C0C0C020202020606060606060606C1
:1027B0000B0B0B0B0B0B0B0B01021020200808104E
:1027C00020401020408002010201080402010102A1
:1027D000040810204080804020100804020180047A
:1027E00002018040201008040201080402010102D5
:1027F00004081020408001020408102040800000DE
:102800000A0B02090C0D0E0807030401000000006A
:1028100000000000000000000000000000000000B8
:102820000000000000000000000012111000000075
:102830000000000000000000000000000000000098
:1028400000000000FFFFFF50726F62696E67204654
:1028500061696C65640A0050726F62696E67204638
:1028600061696C656400205A3A200020593A2000C2
:1028700042656420583A2000726573756D65640086
:102880004469736D69737300526573756D696E6722
:102890000073686F7700627574746F6E00626567AD
:1028A000696E0044697361626C6552756E6F757410
:1028B0000050757267654D6F726500506175736584
:1028C0006400436F6E74696E7565004C6F616420BF
:1028D00046696C616D656E742054004C6F616420B4
:1028E00046696C616D656E7400496E736572742023
:1028F00066696C616D656E7420616E642073656ECF
:1029000064204D3130380A0020204D3230362058B6
:1029100000486F6D65206F66667365740043617073
:102920003A00434F4E4649475F4558504F52540076
:102930004D4541545041434B00434F4F4C45525F2E
:1029400054454D5045524154555245004348414D20
:102950004245525F54454D504552415455524500F1
:10296000424142595354455050494E470041524309
:1029700053004D4F54494F4E5F4D4F444553005403
:102980004845524D414C5F50524F54454354494F76
:102990004E00455854454E4445445F4D3230004347
:1029A0005553544F4D5F4649524D574152455F551F
:1029B000504C4F4144004C464E5F575249544500DD
:1029C0004C4F4E475F46494C454E414D45004155A1
:1029D000544F5245504F52545F53445F53544154E7
:1029E00055530053445F5752495445005245504592
:1029F0004154004D554C54495F564F4C554D450080
:102A00005344434152440050524F4D50545F53552C
:102A100050504F525400484F53545F414354494F14
:102A20004E5F434F4D4D414E445300454D45524737
:102A3000454E43595F50415253455200434153451F
:102A40005F4C494748545F4252494748544E4553AA
:102A50005300544F47474C455F4C49474854530037
:102A6000534F4654574152455F504F5745520042CD
:102A700055494C445F50455243454E54004C4556D1
:102A8000454C494E475F44415441005A5F50524FB4
:102A900042450052554E4F5554004155544F4C45F8
:102AA00056454C005052494E545F4A4F42005052D6
:102AB0004F4752455353004155544F5245504F5282
:102AC000545F54454D50004155544F5245504F525C
:102AD000545F504F5300564F4C554D455452494347
:102AE00000454550524F4D0042494E4152595F46B4
:102AF000494C455F5452414E53464552005345524E
:102B000049414C5F584F4E5F584F46460046495228
:102B10004D574152455F4E414D453A4D61726C698A
:102B20006E204457372E342E3620544D33442053D4
:102B3000454D44414220284D6179202031203230DA
:102B400032322031353A31303A34302920534F5522
:102B50005243455F434F44455F55524C3A68747445
:102B600070733A2F2F6769746875622E636F6D2FCB
:102B7000496E73616E6974794175746F6D617469C2
:102B80006F6E2F4D61726C696E2F747265652F4385
:102B90007265616C6974794477696E5F322E30209A
:102BA00050524F544F434F4C5F56455253494F4E2E
:102BB0003A312E30204D414348494E455F545950DB
:102BC000453A544D3344203130532050726F2045E4
:102BD000585452554445525F434F554E543A312054
:102BE000555549443A63656465326132662D343126
:102BF00061322D343734382D396231322D63353519
:102C00006336326633363766660A0050726F626525
:102C1000204F6666736574205A0050726F6265209B
:102C20004F6666736574205A00290A0020746F206D
:102C3000003F5A206F7574206F662072616E676561
:102C4000202800290A0020746F20003F59206F754A
:102C500074206F662072616E676520282D00290A36
:102C60000020746F20003F58206F7574206F66201D
:102C700072616E676520282D00203B0020204D38B2
:102C800035312058005A2D50726F6265204F6666AC
:102C9000736574004D383400446F6E65207072693E
:102CA0006E74696E672066696C650A004D3737007F
:102CB0004D33310043616E6E6F74206F70656E200E
:102CC00073756264697220002569730025696D203F
:102CD000256973002569682025696D2025697300C1
:102CE000256964202569682025696D2025697300A0
:102CF00025697920256964202569682025696D206A
:102D000025697300436F6F6C696E672E2E2E004528
:102D1000312025530020573A0042656420436F6FED
:102D20006C696E672E2E2E004265642048656174C2
:102D3000696E672E2E2E003D3D4477696E20496EE8
:102D4000697420436F6D706C6574653D3D00202D86
:102D5000206434200064333A2000202D2064322087
:102D60000064313A2000202D206C656E2000565002
:102D70002072656365697665643A200077616974DD
:102D8000776179203D3D0020202A2A2A2A2A2A2AF2
:102D90005254535F48616E646C65446174612A2AC1
:102DA0002A2A2A2A2A2A20002A2A2A4E6F7A7A6C6C
:102DB0006554656D705374617475735B325D203D4D
:102DC000003D3D48656174696E6720446F6E652003
:102DD0004368616E67652046696C616D656E743D20
:102DE0003D002020737461727470726F6772657336
:102DF0007320004D32320A4D3231003D3D7761691A
:102E00007477617920353D3D003D3D776169747788
:102E1000617920343D3D003D3D776169747761798A
:102E200020333D3D003D3D77616974776179203104
:102E30003D3D00436F6E6669726D20436F6E74692D
:102E40006E756500506175736553746174757300B8
:102E5000524553554D45204F5054494F4E533A001B
:102E600048656174696E672E2E2E000000436C6900
:102E7000636B20746F206865617400000052657395
:102E8000756D696E672E2E2E000000507572676991
:102E90006E672E2E2E000000496E736572742061DD
:102EA0006E6420436C69636B000000436C69636B64
:102EB00020746F20636F6E74696E75650000004545
:102EC0006A656374696E672E2E2E000000506C6573
:102ED00061736520776169742E2E2E0000005061A9
:102EE000726B696E672E2E2E0000002A2A2A496E08
:102EF0006974696E672063617264206973204F4B47
:102F00002A2A2A003D3D6F6E5072696E7454696DB5
:102F1000657253746F707065643D3D003D3D6F6E2A
:102F200055736572436F6E6669726D52657175692E
:102F30007265643D3D005061757365204D6F646539
:102F400020537461747573004C6F6164696E672EF1
:102F50002E2E0000003D3D6F6E466163746F7279E6
:102F600052657365743D3D00270A0A00002720273B
:102F7000002027002D0063616E63656C005072694C
:102F80006E742041626F727465640055492041621D
:102F90006F7274656400726573756D65004D3234CF
:102FA000002A2A2A43506C617920546F6E652A2AC0
:102FB0002A003D3D6F6E5072696E7454696D657282
:102FC0005061757365643D3D00486F6D696E6720A3
:102FD0004661696C65640050524553454E54004F3C
:102FE0005554006F70656E0054524947474552452D
:102FF00044003A20004D4F54494F4E203A20004F94
:1030000046460A003A200066696C616D656E740080
:103010007A5F6D696E00795F6D696E00785F6D69CA
:103020006E005265706F7274696E6720656E6473AE
:10303000746F70207374617475730A0020746F6FFD
:10304000206C6F6E6720657874727573696F6E207F
:1030500070726576656E7465640A0020636F6C64D7
:1030600020657874727573696F6E2070726576650D
:103070006E7465640A00486F6D652025732573259D
:1030800073204669727374005761726E696E673A95
:1030900020486F6D696E672042756D7020446976B7
:1030A00069736F72203C20310A00020204000000A4
:1030B00000000000000000000000809D4300009B15
:1030C000430000C843000000410000004100000030
:1030D000400000000100000001000080005555552F
:1030E000000000400033333300AAAA2A004992248A
:1030F0000000002000C7711C0099991900D14517E4
:1031000000555515003BB11300244912001111114F
:1031100000000010000F0F0F00E3380E0043790D80
:1031200000CCCC0C00C3300C00E8A20B0064210BD7
:1031300000AAAA0A00703D0A009DD80900427B0936
:103140000092240900DCD308008888080010420897
:103150000000000800F0C1070087870700755007CE
:1031600000711C07003EEB0600A1BC06006990063A
:103170000066660600703E06006118060017F4053A
:103180000074D105005BB00500B2900500627205C5
:10319000005555050078390500B81E0500050505E0
:1031A000004EEC040087D40400A1BD040090A704E5
:1031B0000049920400C17D0400EE690400C7560472
:1031C00000444404005C320400082104004110045F
:1031D00000000004003FF00300F8E0030026D203E3
:1031E00000C3C30300CCB503003AA803000A9B0345
:1031F00000388E0300C08103009F750300D069036F
:1032000000505E03001D53030034480300913D034A
:10321000003333030016290300381F0300971503FA
:1032200000300C0300030303000BFA020049F10213
:1032300000BAE802005CE002002DD802002DD002A6
:103240000059C80200B0C0020031B90200DAB10270
:1032500000AAAA0200A0A30200BC9C0200FA9502E8
:10326000005C8F0200DF88020082820200457C023F
:10327000002776020027700200436A02007C640285
:1032800000D05E02003F590200C8530200FFFDFC5F
:10329000FAF8F6F4F2F0EEECEAE9E7E5E3E1E0DE75
:1032A000DCDAD9D7D5D4D2D0CFCDCBCAC8C7C5C325
:1032B000C2C0BFBDBCBAB9B7B6B4B3B2B0AFADACA3
:1032C000AAA9A8A6A5A4A2A1A09E9D9C9A999897F8
:1032D00095949392908F8E8D8B8A8988878684832C
:1032E0008281807F7E7D7B7A797877767574737240
:1032F00071706F6E6D6C6B6A696867666564636236
:1033000061605F5E5D5C5B5A59585857565554531F
:10331000525150504F4E4D4C4B4A4A4948474646F1
:10332000454443424241403F3E3E3D3C3B3B3A39AF
:10333000383837363535343332323130302F2E2E5F
:103340002D2C2B2B2A292928272726252524232302
:1033500022212120201F1E1E1D1C1C1B1B1A191997
:103360001818171616151514131312121111100F21
:103370000F0E0E0D0D0C0C0B0A0A090908080707A1
:10338000060605050404030302020100003D3D6F2B
:103390006E5072696E7454696D65725374617274A3
:1033A00065643D3D0000809D4300009B430000C8D4
:1033B00043000000000000000000000000536176A0
:1033C000696E67204457494E204C4344207365740E
:1033D00074696E672066726F6D20454550524F4D7F
:1033E0000A003D3D6F6E53657474696E6773537464
:1033F0006F7265643D3D0053657474696E67732038
:1034000053746F72656400290A00206279746573D1
:103410003B20637263200053657474696E67732088
:1034200053746F7265642028001000C90210012CCB
:10343000014001220170011801B0010E01F00104E8
:10344000015002FA00B002F0003003E600D003DCC5
:10345000009004D2007005C800A006BE000008B4A9
:1034600000B009AA00D00BA000600E960060118C7D
:10347000000015820020197800C01D6E00A0226493
:1034800000B0275A00902C500000314600E0343C38
:103490000010383200903A2800603C1E00A03D1415
:1034A00000803E0A00203F0000220A00556E6B6E2D
:1034B0006F776E20636F6D6D616E643A202200201D
:1034C00042002050006F6B00204500205A00205918
:1034D0000020204D393220580053746570732070DD
:1034E000657220756E69740020746F6F206C6F6E4A
:1034F0006720657874727573696F6E207072657677
:10350000656E7465640A0020636F6C64206578746E
:10351000727573696F6E2070726576656E7465641E
:103520000A004D323520500A4D3234005265737511
:103530006D650055492050617573650043616E6E7D
:103540006F7420656E746572207375626469723A77
:1035500020004E6F204D61746368203A00436F6E07
:1035600073747261696E206D65736856616C2000BA
:103570006D65736856616C200079506E7420007818
:10358000506E7420006D657368506F696E74200012
:10359000446973706C61794272696768746E6573AF
:1035A00073205365743A2000446973706C617942EA
:1035B00072696768746E657373204C43443A2000E7
:1035C0004D32320A4D3231005265667265736800C1
:1035D00050675570005067446F776E0049732046FE
:1035E000696C6520004973204469722000476F555B
:1035F0007044697200486173204D656469610046DA
:10360000696C656E616D652053656C656374656496
:10361000004D3130303043004D31303030002046E5
:10362000696C616D656E7420526573706F6E736541
:10363000204E6F00526573756D6520596573206467
:103640007572696E67207072696E74000A204E6F21
:103650002046696C616D656E7400496E76616C69B7
:1036600064204F7074696F6E004D353030005374B4
:103670006F72652053657474696E6773004D3939D4
:10368000390A4D32383050305331363000424C54C4
:103690006F756368205265736574004D3530320A6A
:1036A0004D35303000496E697420454550524F4DBC
:1036B000004D3530300053746F726520536574745B
:1036C000696E677300496E4C616E6743686F69632A
:1036D00065000A202A2A2A7265636461742E646177
:1036E00074615B305D203D004732380A4731204627
:1036F00031303030205A313000556E737570706F34
:1037000072746564204F7074696F6E2053656C65C8
:1037100063746564004D32313153300A4739310AE0
:1037200047315A302E3032350A4739300A4D32315E
:10373000315331004D32313153300A4739310A4764
:10374000315A2D302E3032350A4739300A4D323158
:103750003153310047323953320047323953310047
:1037600047323652323535004D3139305335350A0E
:103770004732380A4732390A4D3430300A4D313039
:1037800034533231350A4732380A4D3130395332E9
:1037900031350A4D34323053310A473158313030E7
:1037A0005931303046353030300A47315A300A4DC1
:1037B0003530300A4D37370A4D3131372053657473
:1037C000205A204F666673657400473120463130B9
:1037D0003030205A302E30004732380A47312046E8
:1037E00031303030205A302E30005A204F66667308
:1037F0006574203A202573005A204F6666736574FD
:10380000203A202573004732385A0A47314631356D
:1038100030305A302E30004732380A473146313581
:1038200030305A302E3000426564204C6576656C2D
:10383000204F7074696F6E200052657475726E202F
:103840003A20004D383400473146313030305A305C
:103850002E30004732380A473146313030305A3046
:103860002E30004D616E75616C53657454656D70DA
:10387000005A204F6666736574203A202573005203
:103880006F756E64696E6720746F20737465700065
:10389000526571756573746564204F6666736574EF
:1038A000200053746F702054726967676572656495
:1038B0000053746F70204E6F0053746F70507269B4
:1038C0006E740048616E646C6520446174612041CF
:1038D000646A75737420322053657474696E67204E
:1038E00053637265656E200048616E646C652044A8
:1038F000617461205072696E7446696C6520332072
:1039000053657474696E672053637265656E200039
:1039100048616E646C652044617461205072696E08
:103920007446696C6520322053657474696E672033
:1039300053637265656E20004D38340048616E64D3
:103940006C652044617461205072696E7446696CC4
:103950006520506F73740048616E646C652044612B
:103960007461205072696E7446696C65205072658E
:1039700000426567696E537769746368003D3D2056
:10398000436865636B6B65793D3D00726563646197
:10399000742E61646472203D3D00726563646174DD
:1039A0002E646174615B305D203D3D0020453A002E
:1039B000205A3A0020593A00583A006F6B0A0052D8
:1039C0006573656E643A20006E6F74696669636141
:1039D00074696F6E2000544D3344203130532050B1
:1039E000726F2052656164792E005072696E74693D
:1039F0006E672E2E2E005072696E742050617573A2
:103A0000656400524553554D45204F5054494F4E23
:103A1000533A0048656174696E672E2E2E000000CF
:103A2000436C69636B20746F2068656174000000EB
:103A3000526573756D696E672E2E2E0000005075ED
:103A40007267696E672E2E2E0000004C6F616469EC
:103A50006E672E2E2E000000496E73657274206111
:103A60006E6420436C69636B000000436C69636B98
:103A700020746F20636F6E74696E75650000004579
:103A80006A656374696E672E2E2E000000506C65A7
:103A900061736520776169742E2E2E0000005061DD
:103AA000726B696E672E2E2E000000506175736573
:103AB0004D73673D00003001920111241FBECFEF0E
:103AC000D1E2DEBFCDBF00E00CBF84B780931319F5
:103AD00014BE0FB6F894A895809160008861809319
:103AE0006000109260000FBE16E0A0E0B2E0E4E9D2
:103AF000FFE602E00BBF02C007900D92A832B107AB
:103B0000D9F729E1A8E2B6E001C01D92A331B207BE
:103B1000E1F71DE1CCE5DDE100E006C021970109F8
:103B2000802FFE010F94F733CB35D10780E00807D3
:103B3000A9F70F9448200D94B8370C9400002091F9
:103B40002F07833021F425FD0CC024FD0CC030E08C
:103B5000A90102C0559547958A95E2F7CA0181707F
:103B6000089581E0089580E008958091E60984FD3C
:103B70000BC08091E80987FD07C09091E909937017
:103B800081E019F480E0089581E00895082E000C8A
:103B9000990BFC01EE58F84DE491EE2391F0F0E022
:103BA000EE0FFF1FE85AF84DA591B4912C9188545F
:103BB000984DFC018491282381E090E021F480E07D
:103BC000089580E090E00895082E000C990BFC0108
:103BD000EE58F84DE491F0E0EE0FFF1FEC5DF84D6C
:103BE000A591B4912C918854984DFC018491822325
:103BF00091E009F490E0892F0895EDE9F7E09491C0
:103C0000981739F0319697E0E33BF907C1F780E068
:103C1000089581E00895269A2E9A08950F931F9390
:103C2000CF93DF9300D01F92CDB7DEB79C0104E1A4
:103C300019E090E1E0E4FFE0D80101900D929A953F
:103C4000E1F7F9012081318142815381F8016085DA
:103C50007185828593850F940034F80160877187A0
:103C60008287938780E090E0A0EAB0E489839A831A
:103C7000AB83BC83CE0101960E9442B70F900F9098
:103C80000F900F90DF91CF911F910F910895CF93D7
:103C9000DF9300D01F92CDB7DEB780E090E0A0EABE
:103CA000B0E489839A83AB83BC8361E0CE01019643
:103CB0000E94ADB80F900F900F900F90DF91CF91B1
:103CC0000895BC01990F880B990B0C94EDE9809134
:103CD0001F0790912007009731F04AE050E070E014
:103CE00060E00D94532B60E070E0CB01089580916B
:103CF0001F0790912007009731F04AE050E070E0F4
:103D000060E00D94252A60E070E0CB0108950E94E8
:103D1000771E97FD0CC00E94771E6F3F71058105CD
:103D2000910509F034F40E94771E862F089580E0F3
:103D300008958FEF089580911F0790912007892B98
:103D400041F00E94871E91E0811101C090E0892F0F
:103D5000089591E0FCCFFC01659175918591949156
:103D6000089580915F08882319F080E00E9487BB46
:103D700080E008958F929F92AF92BF92CF92DF9290
:103D8000EF92FF92CF93DF93EC0180909C0A90908A
:103D90009D0AA0909E0AB0909F0A20E030E0A90101
:103DA000C501B4010F94382D882309F454C0C8808C
:103DB000D980EA80FB80A7019601C501B4010F9468
:103DC000382D18160CF04CC02091940A3091950AA9
:103DD0004091960A5091970AC701B6010F94382D69
:103DE000882331F1C092940AD092950AE092960A03
:103DF000F092970A2091980A3091990A40919A0A74
:103E000050919B0A688179818A819B810F949E2DB4
:103E10009B01AC0160E070E080E89FE30F94FF330A
:103E20006093020270930302809304029093050250
:103E30006091020270910302809104029091050248
:103E4000DF91CF91FF90EF90DF90CF90BF90AF9038
:103E50009F908F90089560E070E080E89FE3F0CF3E
:103E600060E070E0CB01ECCF682F70E090E080E084
:103E70000C94EDE90E94771ECB0108950F931F93D8
:103E8000CF9380911F07909120070097E9F0FC01E4
:103E90008F01C1912C2F2F7D81F0C53411F0C536D3
:103EA000B9F7F801108270E060E00F94C728F801BC
:103EB000C083CF911F910F91089570E060E0CF9182
:103EC0001F910F910D94C72860E070E0CB01F1CFF6
:103ED0002FEB280F2A3108F047C0E22FF0E0809145
:103EE000E6099091E709A091E809B091E90904C0B9
:103EF000B695A795979587952A95D2F780FD02C02C
:103F000081700895E853F64FE081EE2341F18091EE
:103F10008E0A90918F0AE80FF92FF11D808190EDA4
:103F2000980F9A3030F08E3251F4818180538A306C
:103F300098F4F0932007E0931F0781E008958D32F5
:103F400011F08B3249F4818190ED980F9A3088F30B
:103F50008E3211F48281EACFF0E0E0E0EACF1092F5
:103F6000200710921F07E9CF80E008950E94681F84
:103F7000882341F081E020911F0730912007232BF7
:103F800009F480E00895CF92DF92EF92FF926A01E8
:103F90007B010E94B61F882331F0FF90EF90DF90E5
:103FA000CF900C943E1FC701B601FF90EF90DF90B9
:103FB000CF900895CF93DF93EB010E94B61F882323
:103FC00021F0DF91CF910C943A1FCE01DF91CF9178
:103FD0000895CF93DF93EB010E94B61F882319F059
:103FE0000E94771EEB01CE01DF91CF910895CF9310
:103FF000C62F0E94B61F882319F0CF910C94871EFC
:104000008C2FCF910895CF93DF93C82FD62F0E9486
:10401000B61F882321F0DF91CF910C949B1E8C2F2B
:104020000E94681F811101C08D2FDF91CF910895EB
:10403000CF92DF92EF92FF92CF936B017C01C42F5E
:10404000809160088F5F09F4B5C08093600880910B
:10405000600880930F0920E030E040E752E460916F
:104060002F027091300280913102909132020F94B0
:104070009E2D0F9473357093720860937108C092EF
:104080007308D0927408E0927508F09276088091D7
:104090000E09C0FB80F980930E098CE0E1E1F8E0A5
:1040A000A7E7B8E001900D928A95E1F78CE0E4E390
:1040B000FAE0A3E8B8E001900D928A95E1F78091CB
:1040C0003E0790910E0980FB94F990930E09882386
:1040D00081F080913A0790913B07A0913C07B09105
:1040E0003D0780938F0890939008A0939108B09318
:1040F000920880913D1490913E149093940880937F
:104100009308809126149091271490939608809399
:1041100095088091B50A8093970880910E09909137
:104120006F0E90FB83F980930E0980919C0A909109
:104130009D0AA0919E0AB0919F0A8093980890933F
:104140009908A0939A08B0939B080E949EBD609323
:10415000090970930A0980930B0990930C098091C7
:104160002F0780930D099091100E80910E0993FBFB
:1041700081F99091410A90FB82F980930E0980E0C9
:104180000E943EA240E050E0BA018AE197E10E941D
:104190000D7A40EB50E060E678E08AE197E10E941A
:1041A000A17A8AE197E1CF91FF90EF90DF90CF90D5
:1041B0000C94CE7D81E049CF4F925F926F927F92B7
:1041C0008F929F92AF92BF92CF92DF92EF92FF9227
:1041D0001F93CF93DF9300D01F92CDB7DEB7198224
:1041E0001A821B821C82CE0101964C0184E1C82EEA
:1041F00089E0D82E90E4E92E9FE0F92E20E5A22E4A
:104200002FE0B22E10E088E5810F0E94B61FF40166
:1042100081934F01882309F4E7C00E943E1F2B01C0
:104220003C01812F0E949F1D882309F4D3C0F70110
:104230002081318142815381C301B2010F94003446
:10424000F60160837183828393831F5FF4E0CF0E56
:10425000D11C84E0E80EF11C94E0A90EB11C1330CF
:1042600091F685E40E94B61F8C83882309F4C7C0A9
:104270000E943E1F6B017C0183E00E949F1D8823EA
:1042800071F020914C0F30914D0F40914E0F509195
:104290004F0FC701B6010F9400346B017C01C0922F
:1042A0002009D0922109E0922209F09223098091FD
:1042B000250E882391F18091151782FF2EC087FD6E
:1042C0002CC08C81882349F18981811103C08A81A6
:1042D000882319F12DEC3CEC4CE45DE36091690816
:1042E00070916A0880916B0890916C080F9400346B
:1042F0009B01AC016091480F7091490F80914A0F6A
:1043000090914B0F0F94603618163CF440E060E03B
:1043100070E080E090E40E94182040E050E0BA0194
:1043200086E40E94C31F20E030E0A9010F946036AC
:10433000181684F40E943E1F20E030E040E752E46B
:104340000F94FA3460932F027093300280933102FD
:10435000909332028091100E83FD28C08091FD075A
:10436000882321F120914C0F30914D0F40914E0F39
:1043700050914F0F6091200970912109809122097D
:10438000909123090F94FF3320910A0830910B0874
:1043900040910C0850910D080F94003460930A0866
:1043A00070930B0880930C0890930D080F900F905A
:1043B0000F900F90DF91CF911F91FF90EF90DF90C2
:1043C000CF90BF90AF909F908F907F906F905F90B5
:1043D0004F900895F5012081318142815381C301BD
:1043E000B2010F94FF332CCFF70180819181A2811C
:1043F000B381F60180839183A283B38326CF80911A
:104400004C0F90914D0FA0914E0FB0914F0F809394
:10441000200990932109A0932209B093230947CF43
:10442000E0E6F8E080EBDF011D928A95E9F7089558
:104430008091250E811104C00E9410220C94CAA202
:104440008091151782FF09C087FD07C040E060E03A
:1044500070E080E090E40C9418200895809160084A
:10446000882361F090910F09891308C08091151776
:1044700084FF04C08CE998E00C947E8180E008956C
:10448000FC01238121110C94CE7D0895CF93DF93FD
:10449000C0913D14D0913E14209729F160913914B8
:1044A00070913A1480913B1490913C140F946C35A8
:1044B0006E5F7F4F24976C177D07ACF47093800775
:1044C00060937F070E942D72605A75418F4F9F4FF6
:1044D000609381077093820780938307909384078A
:1044E000DF91CF9108951092810710928207109268
:1044F000830710928407F4CFCF92DF92EF92FF925E
:104500001F93CF93DF93182F662351F010921D074E
:104510001092190710921A0710921B0710921C078D
:104520000E942D726B017C018091190790911A07EE
:10453000A0911B07B0911C07A7019601281B390BFE
:104540004A0B5B0BDA01C901B7FD3DC020911D0785
:1045500017FD13C0412F012E000C550B4C5F5F4F10
:10456000822F022E000C990B4817590764F184EF33
:1045700091E0A0E0B0E0211724F488EE93E0A0E001
:10458000B0E08C0D9D1DAE1DBF1D8093190790934B
:104590001A07A0931B07B0931C072170C22F30E0AD
:1045A000D32F84E28C9FB0018D9F700D7C1B112452
:1045B00060597C4F82E390E00E94C0C180911D074A
:1045C0008F5F80931D07DF91CF911F91FF90EF9038
:1045D000DF90CF900895CF93DF93C0912614D091B0
:1045E0002714209729F1609122147091231480914F
:1045F0002414909125140F946C356E5F7F4F24978F
:104600006C177D07ACF470937807609377070E946E
:104610002D72605E70448D4F9F4F60937907709349
:104620007A0780937B0790937C07DF91CF91089561
:104630001092790710927A0710927B0710927C07EC
:10464000F4CFCF93C1E020E030E0A9016091520A9D
:104650007091530A8091540A9091550A0F94382D05
:10466000811101C0C0E08C2FCF910895CF93C82F46
:10467000882321F00E9421238823D9F080916F0E96
:104680008C17B9F00E9485AE80916F0E882349F097
:1046900080E49FE00E94A8AE10926F0ECF910C9420
:1046A000B9B981E080936F0E80E49FE00E94B1ADC4
:1046B000F5CFCF9108954F925F926F927F928F9234
:1046C0009F92AF92BF92CF92DF92EF92FF920F93A1
:1046D0001F93CF93DF93EC0120914A0A30914B0A4C
:1046E00040914C0A50914D0A688179818A819B8161
:1046F0000F94FF336B017C0120914E0A30914F0AD9
:104700004091500A5091510A6C817D818E819F8128
:104710000F94FF334B015C01A701960160911107D3
:104720007091120780911307909114070F94382D00
:10473000882309F450C0C0921107D0921207E0926A
:104740001307F09214072091090730910A0740914E
:104750000B0750910C07C701B6010F949E2D2B013A
:104760003C010F94A2356B017C0120E030E0A901EF
:104770000F94382D87FD70C020E030E040E450E415
:10478000C701B6010F94603618162CF4C12CD12C39
:10479000C0E4EC2EFE2CA7019601C301B2010F94D8
:1047A000FF33609301077093020780930307909390
:1047B0000407C701B6010F946C356093FF06062EFF
:1047C000000C770B6F5F7F4F6430710514F064E06D
:1047D00070E06093FD06D091FB061091FF06A501E5
:1047E00094016091150770911607809117079091B9
:1047F00018070F94382D811133C0D11381C0209137
:10480000E3063091E4064091E5065091E60660919A
:1048100001077091020780910307909104070F949C
:104820009E2D2091E7063091E8064091E9065091CF
:10483000EA060F940034DF91CF911F910F91FF9002
:10484000EF90DF90CF90BF90AF909F908F907F9030
:104850006F905F904F900895C12CD12C76019BCF23
:104860008092150790921607A0921707B09218072A
:1048700020910D0730910E0740910F0750911007BE
:10488000C501B4010F949E2D4B015C010F94A2351C
:104890006B017C0120E030E0A9010F94382D87FDE9
:1048A000F3C020E030E040E450E4C701B6010F94CB
:1048B000603618162CF4C12CD12CB0E4EB2EFE2C53
:1048C000A7019601C501B4010F94FF33609305075A
:1048D000709306078093070790930807C701B601F6
:1048E0000F946C3560930007062E000C770B6F5FFA
:1048F0007F4F6430710514F064E070E06093FE0651
:10490000C0910007D11305C08091FC068C1709F4F3
:1049100070C08091FF06909100079093FC068093F1
:10492000FB060C2E000CDD0B25E01203C001112448
:10493000FC01EC0FFD1FEE0FFF1FEE0FFF1FEA54EF
:10494000F14F20813181428153812093F7063093CA
:10495000F8064093F9065093FA060091FE06002EE1
:10496000000C110BFC01E00FF11FEE0FFF1FEE0F0B
:10497000FF1FEA54F14F60817181828193810F940E
:10498000FF336093F3067093F4068093F5069093DB
:10499000F6062091FD0635E02303F0011124CE0F29
:1049A000DF1FCC0FDD1FCC0FDD1FCA54D14F288174
:1049B00039814A815B812093EF063093F006409362
:1049C000F1065093F206E00FF11FEE0FFF1FEE0FFE
:1049D000FF1FEA54F14F60817181828193810F94AE
:1049E000FF336093EB067093EC068093ED06909393
:1049F000EE068090050790900607A0900707B090FC
:104A000008072091F3063091F4064091F506509185
:104A1000F606C501B4010F949E2D2091F706309142
:104A2000F8064091F9065091FA060F9400346B0194
:104A30007C01C092E706D092E806E092E906F09287
:104A4000EA062091EB063091EC064091ED0650917C
:104A5000EE06C501B4010F949E2D2091EF06309112
:104A6000F0064091F1065091F2060F940034A70130
:104A700096010F94FF336093E3067093E4068093EE
:104A8000E5069093E606BBCEC12CD12C760118CF5B
:104A9000E1E1F7E080EF9FEFA9E7B4EC8483958331
:104AA000A683B78380839183A283B383EBEFF6E081
:104AB0008DE98183808308958F929F92AF92BF92F8
:104AC000CF92DF92EF92FF92FC0198E0A2E5BAE06C
:104AD00001900D929A95E1F788E0FB01AAE4BAE013
:104AE00001900D928A95E1F7C090520AD090530A36
:104AF000E090540AF090550A20E030E0A901C70187
:104B0000B6010F94382D8823E1F1A701960160E0EA
:104B100070E080E89FE30F94FA346B017C01809091
:104B2000560A9090570AA090580AB090590A20E06F
:104B300030E0A901C501B4010F94382D882329F173
:104B4000A501940160E070E080E89FE30F94FA34DF
:104B5000C0920907D0920A07E0920B07F0920C0767
:104B600060930D0770930E0780930F0790931007C3
:104B7000FF90EF90DF90CF90BF90AF909F908F907D
:104B80000895C12CD12C7601CACF60E070E0CB0132
:104B9000DFCF8F929F92AF92BF92EF92FF920F93CF
:104BA0001F93CF93DF9310924E0A10924F0A1092E8
:104BB000500A1092510A10924A0A10924B0A10920F
:104BC0004C0A10924D0A1092560A1092570A1092EF
:104BD000580A1092590A1092520A1092530A1092CF
:104BE000540A1092550A06EB1EE0C0E0812C912C6D
:104BF00080ECA82E8FE7B82E7801D0E0F7018192E3
:104C00009192A192B1927F016D2F8C2F0F946E0221
:104C1000DF5FD53099F7CF5F0C5E1F4FC53061F76E
:104C2000DF91CF911F910F91FF90EF90BF90AF90C8
:104C30009F908F900895EFE6F0E0808182608083FE
:104C400008958091601490916114892B79F480917A
:104C5000601490916114892B49F420916014309173
:104C6000611481E0232B19F480E0089581E0089518
:104C7000CF92DF92EF92FF926B017C0183E3C81623
:104C8000D104E104F10470F082E3C81AD108E1080C
:104C9000F10862E370E080E090E00E94FA710E9407
:104CA000E688ECCFC701B6010E94FA71FF90EF9041
:104CB000DF90CF900C94E6881092700E80914F0791
:104CC00090915007A0915107B091520780934B07E4
:104CD00090934C07A0934D07B0934E070895909181
:104CE0006314109263149230B9F09430C1F0913093
:104CF000E1F4882319F0813021F008959093720E29
:104D0000089582E08093720E8091700E882369F07E
:104D10001092710E0C945C261092730E08958DE91A
:104D20009FE29093B50E8093B40E08956C98749A98
:104D30000C945C269091151794FB882780F994FFBA
:104D400006C081E090917C18911101C080E0089527
:104D50000E949A26882339F08091151782FB8827B4
:104D600080F991E08927089580911309811106C087
:104D700080916214823011F00C94A82681E008958D
:104D80000C9497C081E00895CF93DF93EC01E62F58
:104D9000660FFF0BE250F84DE491E250E13108F06C
:104DA000B0C0F0E08827E852F94D8F4F0D94F733EB
:104DB000E92681278127812781271327F526372791
:104DC000352715275B275927392781277F277D27F7
:104DD0005D2782E1E1E6F2E0DE0101900D928A9525
:104DE000E1F7CE01DF91CF91089581E020EB30E033
:104DF0003983288321EB30E03B832A831D821C8288
:104E000023EB30E03F832E8324EB30E03987288783
:104E10001B861A861D861C8692E09E878F8781E0FE
:104E2000888B198ADECF80E0E1CF81E08F5F20E9B7
:104E300030E03983288321E930E03B832A8322E96B
:104E400030E03D832C8328E930E03F832E832AE93C
:104E500030E0398728872CE930E03B872A8726E92C
:104E600030E03D872C8793E0D8CF80E0DFCF80E033
:104E7000DECF81E08F5F20EA30E03983288321EAAA
:104E800030E03B832A8322EA30E03D832C8328EA0A
:104E900030E03F832E832AEA30E0398728872CEAE6
:104EA00030E03B872A8726EA30E03D872C8794E074
:104EB000B4CF80E0DFCF80E0DECF81E08F5F20E203
:104EC00031E03983288321E231E03B832A8322E2E7
:104ED00031E03D832C8328E231E03F832E832AE2B8
:104EE00031E0398728872CE231E03B872A8726E2A8
:104EF00031E03D872C8795E090CF80E0DFCF80E0E8
:104F0000DECF82E1FE0111928A95E9F76ACF8F9296
:104F10009F92AF92BF92CF92DF92EF92FF920F9348
:104F2000CF93DF931F92CDB7DEB75C017B014901C0
:104F30006B01C40ED51EF501808191810F9456330B
:104F40008983002311F0F7018083BE016F5F7F4FDB
:104F5000C4010E940FE9F50180819181019691833E
:104F60008083FFEFEF1AFF0AEC14FD0421F780E0C5
:104F70000F90DF91CF910F91FF90EF90DF90CF9046
:104F8000BF90AF909F908F9008959091D10095FD24
:104F90000CC09091D00095FF08C08093D6008091FE
:104FA000D00080648093D000089520913E062F5F4A
:104FB0002F770FB607FC27C090913F06921328C0A9
:104FC0009091D00095FF1EC090913F0640913E0603
:104FD000941306C09091D1009F7D9093D10012C090
:104FE000E92FF0E0E25CF94F32819F5F9F773093C9
:104FF000D60090933F063091D00030643093D000BB
:10500000491741F3D9CF90913F06921301C0FBCFCE
:10501000E0913E06F0E0E25CF94F828320933E0689
:105020008091D10080628093D10008958091ED0934
:105030009091EE092FEF3FEF981751F0E92FF0E034
:10504000E351F64F228130E09F5F9F739093EE090A
:10505000C90108951F920F920FB60F9211240BB63B
:105060000F922F938F939F93EF93FF9380913F061F
:1050700020913E06821306C08091D1008F7D8093DF
:10508000D10012C0E82FF0E0E25CF94F92818F5F0F
:105090008F779093D60080933F069091D0009064D4
:1050A0009093D000281741F3FF91EF919F918F913A
:1050B0002F910F900BBE0F900FBE0F901F90189561
:1050C0001F920F920FB60F9211240BB60F920F93EF
:1050D0001F932F933F934F935F936F937F938F9380
:1050E0009F93AF93BF93CF93DF93EF93FF93C091C1
:1050F000D6000091EE09D091ED0911E01D0F1F734C
:1051000090913D06913108F09FC0E92FF0E088278B
:10511000E357F74D8F4F0D94F7339E28CD28DC28A9
:10512000EB28F2282429F6282429FA28FE28242905
:10513000022906290A29112924291C29C03229F00B
:1051400028F5CA3011F0CD3031F5011731F0ED2FCF
:10515000F0E0E351F64FC283D12FD093ED09FF91D8
:10516000EF91DF91CF91BF91AF919F918F917F91FF
:105170006F915F914F913F912F911F910F910F90E0
:105180000BBE0F900FBE0F901F901895CD3481F07D
:1051900081E0CE3471F080E10CC0CA3338F4C03302
:1051A000A0F6C03291F2CD32B1F7CFCFCD3499F71E
:1051B00082E080933D06C9CFC13359F018F4C03264
:1051C00021F2E9CF88E0C433A1F38BE0C83389F33F
:1051D000E2CF83E0EECF84E0C03359F386E0C13301
:1051E00041F3D9CF85E0C833B1F6E3CF87E0C233CE
:1051F00091F6DFCF89E0C13371F6DBCF8AE0C033AF
:1052000051F6D7CF8CE0C73331F6D3CF8DE0C6331C
:1052100011F6CFCFC03209F498CF8EE0C33549F2F2
:10522000BACF80ED8C0F8A3008F08FCF9FE090933B
:105230003D0680933C0689CFCA3019F0CD3009F085
:1052400084CF10923D0681CFCA3019F0CD3009F0DD
:105250007CCF809109178823A1F3973089F038F427
:10526000953079F7109222021092730EEACF9A309D
:1052700059F09F3031F780913C060E946F26E1CFB4
:1052800081E080937E07DDCF81E080937D07D9CFD9
:105290009091C00095FFFCCF8093C6000895CF93F6
:1052A000C82FC15020F080E20E944829FACFCF9148
:1052B0000895CF93DF93EC01FE018491219688231A
:1052C00019F00E944829F8CFDF91CF910895CF932C
:1052D000DF93C82F8EEB9FE00E9459290C2E000C03
:1052E000DD0BFE01EE58F84D8491805C0E94482948
:1052F000FE01E854F84DE49180E3E13021F0E695B9
:105300008F5F8933D1F7DF91CF910C944829CF92E9
:10531000DF92EF92FF926A017B010E94592942E0DD
:10532000C701B601FF90EF90DF90CF900C942882D8
:105330000E9487298AE00C944829CF93DF936EEE70
:105340007DE00F943803CEE1D4E14B855C856D851B
:105350007E8585EE9DE00E9487292CEA35EC47E2A8
:105360005EE36F85788989899A890F94FA34AB0155
:10537000BC0182EE9DE00E9487292CEA35EC47E2D1
:105380005EE36B897C898D899E890F949E2DAB018C
:10539000BC018FED9DE0DF91CF910C949829CF93C4
:1053A000DF936CE47DE00F9438036091370E7091C9
:1053B000380E8091390E90913A0E0F943D2DAB012D
:1053C000BC0183E49DE00E9487294091670E5091C3
:1053D000680E6091690E70916A0E80E49DE00E94F3
:1053E000872940916B0E50916C0E60916D0E7091FB
:1053F0006E0E8DE39DE00E948729C5E1DEE04881C5
:1054000059816A817B8184E991E10E9487294C81DD
:105410005D816E817F818EEC94E30E9487294885AF
:1054200059856A857B858BEC94E30E9487294C859E
:105430005D856E857F8588EC94E3DF91CF910C9438
:105440009829CF93DF9361EC7CE00F943803C7E297
:10545000DEE04CA95DA96EA97FA988EB9CE00E94C3
:10546000872948AD59AD6AAD7BAD85EB9CE00E94C4
:1054700087294CAD5DAD6EAD7FAD8DE39DE0DF91D5
:10548000CF910C949829CF93DF936DE97CE00F9432
:105490003803C7E2DEE04CA15DA16EA17FA184E9E3
:1054A0009CE00E94872948A559A56AA57BA58EEC9A
:1054B00094E30E9487294CA55DA56EA57FA58BEC82
:1054C00094E30E94872948A959A96AA97BA988EC75
:1054D00094E3DF91CF910C949829CF93DF9368E701
:1054E0007CE00F943803C7E2DEE0688179818A812D
:1054F0009B810F943D2DAB01BC018FE69CE00E9487
:1055000087296C817D818E819F810F943D2DAB0118
:10551000BC018EEC94E30E948729688579858A8591
:105520009B850F943D2DAB01BC018BEC94E30E9455
:1055300087296C857D858E859F850F943D2DAB01D8
:10554000BC0188EC94E3DF91CF910C949829CF9320
:105550008091E609827161F48091E8098C7841F4C8
:105560008091E909837021F481E0CF910C94CF29D7
:1055700082E40E94B61F882351F00E94671E609348
:10558000370E7093380E8093390E90933A0E83E560
:105590000E94B61F882351F00E943E1F6093670E41
:1055A0007093680E8093690E90936A0E84E50E9452
:1055B000B61F882351F00E943E1F60936B0E7093BC
:1055C0006C0E80936D0E90936E0E88E50E94B61F50
:1055D000882351F00E943E1F6093150E7093160EA3
:1055E0008093170E9093180E89E50E94B61F8823AA
:1055F00051F00E943E1F6093190E70931A0E809313
:105600001B0E90931C0E8AE50E94B61FC82F88239C
:1056100051F00E943E1F60931D0E70931E0E8093EA
:105620001F0E9093200E85E40E94B61F882351F030
:105630000E943E1F6093210E7093220E8093230ED2
:105640009093240ECC23A9F02DEC3CEC4CEC5DE3C4
:1056500060911D0E70911E0E80911F0E9091200E74
:105660000F94382D18162CF08BE09DE0CF910C9400
:105670005929CF910895CF93C62F0E9459298C2F75
:10568000CF910C9422820F931F93CF938C01C62F3E
:1056900089E79AE00E945929C8010E945929CC2320
:1056A00031F08AE0CF911F910F910C944829CF914E
:1056B0001F910F9108950F931F93CF938C01C62FC5
:1056C00060E081E99AE00E94432BC8010E945929B9
:1056D000CC2331F08AE0CF911F910F910C9448298F
:1056E000CF911F910F91089561E089E99AE00C94A0
:1056F0005B2BEF92FF920F931F93CF937C018B0153
:10570000C42F60E081E99AE00E94432BC7010E9408
:10571000592980E20E944829C8010E945929CC23B6
:1057200019F08C2F0E9448298AE0CF911F910F9188
:10573000FF90EF900C944829DF92EF92FF920F9325
:105740001F93CF93DF93D82E7B018A01E9010E943A
:10575000742BD092631440E0B7018DE998E20E9467
:10576000792B0115110531F040E0B80186E998E286
:105770000E94792B209731F040E0BE0186E998E243
:105780000E94792B61E081E998E2DF91CF911F912E
:105790000F91FF90EF90DF900C945B2BAF92BF9234
:1057A000CF92DF92EF92FF920F931F93CF93DF93ED
:1057B000EC0180E69AE00E945929209711F4C6EB8B
:1057C000DEE010E086E00E944F29812F0E942282B5
:1057D0001F5F1530B9F78AE00E94482910E080E287
:1057E0000E944829812F0E9422825E0105E080E20A
:1057F0000E944829F501C080D180E280F380A70192
:105800009601C701B6010F94F236882361F180E258
:105810000E9448298DE30E9448298DE30E9448296F
:105820008DE30E9448298DE30E9448298DE30E9460
:1058300048290150F4E1AF0EB11C0111D8CF8AE024
:105840000E9448291F5F2496153049F68AE0DF91AF
:10585000CF911F910F91FF90EF90DF90CF90BF906D
:10586000AF900C94482920E030E0A901C701B601AF
:105870000F94603687FD03C08BE20E94482943E005
:10588000C701B6010E942882D4CF811107C08BEDD9
:1058900092E10E9459298AE00C9448298FED92E107
:1058A000F8CFCF9367EC72E10F943803C091250EC7
:1058B000C05D8EEB92E10E9459298C2F0E944829ED
:1058C0008AEB92E10E9459298091250ECF910C9488
:1058D000452C4F925F926F927F928F929F92AF92E0
:1058E000BF92CF92DF92EF92FF92CF93DF93CDB72B
:1058F000DEB72C970FB6F894DEBF0FBECDBF83E5A1
:105900000E94681F8823C9F00E949B1E8093350265
:105910002C960FB6F894DEBF0FBECDBFDF91CF91AE
:10592000FF90EF90DF90CF90BF90AF909F908F90BF
:105930007F906F905F904F90089580913502805DC9
:1059400089838DEA91E10E94592989810E94482921
:1059500089EA91E10E945929809135020E94452CE3
:105960004090500F5090510F6090520F7090530F15
:1059700020913702309138024091390250913A0219
:10598000C301B2010F94003469837A838B839C83B3
:105990008090540F9090550FA090560FB090570FD5
:1059A00020913B0230913C0240913D0250913E02D9
:1059B000C501B4010F9400346D837E838F83988773
:1059C000C090580FD090590FE0905A0FF0905B0F95
:1059D00020913F0230914002409141025091420299
:1059E000C701B6010F94003469877A878B879C873B
:1059F0002091430230914402409145025091460269
:105A0000C301B2010F9400342B013C0120914702E5
:105A1000309148024091490250914A02C501B401B7
:105A20000F9400344B015C0120914B0230914C02E9
:105A300040914D0250914E02C701B6010F940034BF
:105A40006B017C0181EA91E10E94592949815A81C7
:105A50006B817C8184E991E10E9487294D815E817F
:105A60006F8178858EEC94E30E94872949855A8559
:105A70006B857C858BEC94E30E9487298FE991E10B
:105A80000E94592987E991E10E945929B301A20195
:105A900084E991E10E948729B501A4018EEC94E389
:105AA0000E948729B701A6018BEC94E30E94872905
:105AB0008AE02C960FB6F894DEBF0FBECDBFDF9103
:105AC000CF91FF90EF90DF90CF90BF90AF909F90DD
:105AD0008F907F906F905F904F900C94482989E54C
