:100000000C94CA1F0C940A200C940A200C940A2009
:100010000C940A200C940A200C940A200C940A20B8
:100020000C940A200C940A200C940A200C940A20A8
:100030000C940A200C940A200C940A200C940A2098
:100040000C940A200C945E990C940A200C940A20BB
:100050000C940A200C94358C0C940A200C946E7B22
:100060000C940A200C949A3B0C94903B0C940A201C
:100070000C940A200C940A200C940A200C940A2058
:100080000C94A32C0C940A200C940A200C940A20A3
:100090000C940A200C940A200C940A200C940A2038
:1000A0000C940A200C940A200C94752C0C940A20B1
:1000B0000C940A200C940A200C940A200C940A2018
:1000C0000C940A200C940A200C940A200C946C2D99
:1000D0000C94362D0C940A200C940A200C940A20BF
:1000E0000C940A20084AD73B3BCE016E84BCBFFD6E
:1000F000C12F3D6C74319ABD56833DDA3D00C77FF8
:1001000011BED9E4BB4C3E916BAAAABE0000008090
:100110003F05A84CCDB2D44EB93836A9020C50B91F
:10012000918688083CA6AAAA2ABE000000803F004B
:100130000C94D7E30C94A03E0C94253C0C9465F4ED
:100140000C94C2E30C94CBE30C945C700C94B82A2E
:100150000C9459CE0C94162E0C94203E0C94C63E52
:100160000C945CF40C94022E0C94E63D0D94132137
:100170000C94BA2A0C94EC3E0D949F300C943A7077
:100180000C94313E0C9413CF0C945DCF0D945C20F5
:100190000C94D1E30C94B62A0C94423E0C947ECE7F
:1001A0000D9467240D94D1200C94C9CE0C94062E86
:1001B0000C94EECE0C94EB3D0C9482CF0C94417ACF
:1001C0000C944E2A0C9464790C9468F40C94073CBB
:1001D0000C94AA3E0D948E1F0C94222A0C94E82DA8
:1001E0000D9424210C9460700C9466710C944B3C1B
:1001F0000C941D3E0C94E3700C94383E0C940E2E1F
:100200000C940A2E0C943B3E0C94273E0C944070A8
:100210000C9421700C9459F40D94E5200D944C2409
:100220000C9448700C945FF40C945B700C94793EC1
:100230000C949F780C94453E0D9417210C94F72D47
:100240000C94AA2D0C94E0E30C94CEE30D94F720CB
:100250000C94083F0C943F3F0C942C3C0D94392097
:100260000C9462F40D94DC200C94243F0C943070B8
:100270000C9404E60C944AF40C94323F0C944C2AEF
:100280000C94702A0C94D83B0D942F1E0C944C3F68
:100290000C94163C0C94D4E30C942A3E0C94163F18
:1002A0000C9425700C94593F0C94C3790C9450F421
:1002B0000C94282E0C9429700C94722A0C94233ED2
:1002C0000C9436E60C94922A0C94193E0C94A8795E
:1002D0000C9456F40C94343E0D94641F0D94192123
:1002E0000C94302E0D94EE200C94DDE30C94537A94
:1002F0000D9470200D9400210C94122E0C94942ACD
:100300000C9456700C946E2A0C94962A0C94FA3E17
:100310000C948FE30D9482240C9436700C94C5E3F6
:100320000D9425200C94443C0C94383C0C94EFE53F
:100330000C945E3C0D94E01E0D9473240C946EE4BA
:100340000D94FC1F0C9438CF0C94F2CD0D94F01D3D
:100350000C943E3E0C94303C0D9428240C94447034
:100360000C94343C0C9434CE0C94563C0C941D2EBE
:100370000C9453F40C94D43E0C94163E0C942D70B3
:100380000C944E700C942E2A0C941B700C94FE2D21
:100390000C94B83E0C944DF40D94BD300C941B7924
:1003A0000C942E3E0C946AE40C94C8E30C94A37A4B
:1003B0000D948F200C94807A0C94403C0C94D92D91
:1003C0000C9452700C94E03E0C94C5E50D941C24E2
:1003D0000C94DAE30C9465710C943C3C0C94BC785E
:1003E0000C94663F0D9409210C9445F40C9420E480
:1003F0000D945B244E414E494E495459494E46CDC9
:10040000CCCC3D0AD7233C17B7D13877CC2B3295CB
:1004100095E6241FB14F0A000020410000C84200A9
:10042000401C4620BCBE4CCA1B0E5AAEC59D740073
:10043000407A10F35A00A0724E18090010A5D4E8B3
:100440000000E87648170000E40B54020000CA9A46
:100450003B000000E1F50500008096980000004098
:10046000420F000000A086010000001027000000DD
:1004700000E803000000006400000000000A000023
:100480000000000100000000002C76D888DC674FD7
:100490000823DFC1DFAE59E1B1B796E5E3E453C607
:1004A0003AE651997696E8E6C28426EB898C9B62FF
:1004B000ED407C6FFCEFBC9C9F40F2BAA56FA5F4A9
:1004C00090055A2AF75C936B6CF9676DC11BFCE0D1
:1004D000E40D47FEF520E6B500D0ED902E03009424
:1004E0003577050080841E080000204E0A000000B9
:1004F000C80C333333330F986E12831141EF8D21C3
:1005000014893BE65516CFFEE6DB18D1844B381B29
:10051000F77C1D901DA4BBE424203284725E2281EE
:1005200000C9F124ECA1E53D275A5F53544F505FB9
:1005300050494E005A5F535445505F50494E005A3F
:100540005F4D494E5F50494E005A5F454E41424C07
:10055000455F50494E005A5F4449525F50494E0032
:10056000595F53544F505F50494E00595F535445A3
:10057000505F50494E00595F4D494E5F50494E0003
:10058000595F454E41424C455F50494E00595F44CA
:1005900049525F50494E00585F53544F505F504985
:1005A0004E00585F535445505F50494E00585F4DC0
:1005B000494E5F50494E00585F454E41424C455FA1
:1005C00050494E00585F4449525F50494E005355C0
:1005D00049434944455F50494E00534552564F33B5
:1005E0005F50494E00534552564F325F50494E00BE
:1005F000534552564F315F50494E00534552564F66
:10060000305F50494E00534453530053445F4445B8
:10061000544543545F50494E004D4F534645545F37
:10062000435F50494E004D4F534645545F425F5023
:10063000494E004D4F534645545F415F50494E006F
:1006400054454D505F305F43535F50494E004C4519
:10065000445F50494E004845415445525F4245442D
:100660005F50494E004845415445525F305F504904
:100670004E0046494C5F52554E4F55545F50494EBF
:100680000046414E5F50494E0045315F535445503E
:100690005F50494E0045315F454E41424C455F50E9
:1006A000494E0045315F4449525F50494E00453143
:1006B0005F43535F50494E0045305F535445505F90
:1006C00050494E0045305F454E41424C455F5049D0
:1006D0004E0045305F4449525F50494E0042454507
:1006E0005045525F50494E004156525F53535F5040
:1006F000494E004156525F53434B5F50494E0041B3
:1007000056525F4D4F53495F50494E004156525F1C
:100710004D49534F5F50494E0054454D505F42453F
:10072000445F50494E0054454D505F315F50494E33
:100730000054454D505F305F50494E0046494C577C
:10074000494454485F50494E00545844320052586E
:1007500044320054584430005258443000434F4D06
:100760004D554E49434154494F4E004452595255FC
:100770004E004552524F525300494E464F0045439A
:10078000484F004572726F722077726974696E67A4
:1007900020746F20454550524F4D210A00363726B0
:1007A000033C3D380E2E303E121A1C180A4309082D
:1007B00044000153544F505045442E20005072695C
:1007C0006E7465722073746F7070656420647565F3
:1007D00020746F206572726F72732E2046697820C4
:1007E000746865206572726F7220616E6420757323
:1007F00065204D39393920746F20726573746172C8
:10080000742E202854656D70657261747572652050
:1008100069732072657365742E2053657420697442
:100820002061667465722072657374617274696E9A
:1008300067290A004E6F20436865636B73756D20EE
:1008400077697468206C696E65206E756D6265727B
:100850002C204C617374204C696E653A20004E6FF9
:1008600020436865636B73756D2077697468206CCD
:10087000696E65206E756D6265722C204C617374B3
:10088000204C696E653A2000636865636B73756D13
:10089000206D69736D617463682C204C61737420E2
:1008A0004C696E653A20004C696E65204E756D622C
:1008B0006572206973206E6F74204C617374204CD4
:1008C000696E65204E756D6265722B312C204C610E
:1008D0007374204C696E653A20004D3131300053FD
:1008E000657269616C20737461747573206D6973CE
:1008F0006D617463680A00776169740A005344206B
:1009000072656164206572726F720A002121204B4A
:10091000494C4C2063617573656420627920746F63
:100920006F206D75636820696E61637469766520F8
:1009300074696D65202D2063757272656E74206315
:100940006F6D6D616E643A2000486F74656E64204F
:1009500049646C652054696D656F757400486F74E7
:10096000656E642049646C652054696D656F7574AB
:100970000A003D3D6F6E46696C616D656E7452751F
:100980006E6F75743D3D007061757365004D363056
:1009900030002066696C616D656E745F72756E6F94
:1009A0007574200066696C616D656E745F72756E3A
:1009B0006F757420540046696C616D656E74527574
:1009C0006E6F75742054004D3130303053006275B5
:1009D00073793A2070617573656420666F7220695F
:1009E0006E7075740A00627573793A207061757360
:1009F000656420666F7220757365720A0062757394
:100A0000793A2070726F63657373696E670A0025A7
:100A1000533A202553002A2A2A6B696C6C2A2A2A09
:100A200000706F7765726F6666004B494C4C4544A9
:100A30002E20005072696E7465722068616C746556
:100A4000642E206B696C6C28292063616C6C656472
:100A5000210A0053544F505045442E2000507269D3
:100A60006E7465722073746F707065642064756550
:100A700020746F206572726F72732E204669782021
:100A8000746865206572726F7220616E6420757380
:100A900065204D39393920746F2072657374617225
:100AA000742E202854656D706572617475726520AE
:100AB00069732072657365742E20536574206974A0
:100AC0002061667465722072657374617274696EF8
:100AD00067290A006563686F3A004572726F723A5F
:100AE0000042696C696E656172204C6576656C695F
:100AF0006E6720477269643A0A0021212053544FDF
:100B0000502063616C6C6564206265636175736518
:100B1000206F6620424C546F756368206572726F57
:100B200072202D2072657374617274207769746805
:100B3000204D3939390A0021212053544F50206368
:100B4000616C6C65642062656361757365206F66B6
:100B500020424C546F756368206572726F72202D4D
:100B600020726573746172742077697468204D39DE
:100B700039390A002F2F616374696F6E3A006E6F06
:100B800074696669636174696F6E200070726F6D5D
:100B900070745F00656E6400486F74656E642074E5
:100BA0006F6F20636F6C640A0053656E64204D3173
:100BB000303820746F20726573756D650A00496E58
:100BC000736572742066696C616D656E7420616E08
:100BD000642073656E64204D3130380A00526568B8
:100BE00065617420446F6E65005265686561746963
:100BF0006E672E2E2E00526568656174004865612F
:100C00007465722054696D656F75740053656E6408
:100C1000204D31303820746F2068656174206E6F0C
:100C20007A7A6C650A004E6F7A7A6C652050617230
:100C30006B65640070617573656400506175736500
:100C4000004F46460A00466164652048656967684A
:100C5000742000426564204C6576656C696E67207F
:100C6000004661696C656420746F20656E61626C1A
:100C70006520426564204C6576656C696E670A0084
:100C8000496E76616C6964206D6573682E0A005048
:100C9000726F62696E6720506F696E740025532011
:100CA00025692F2569002E0A002F0050726F626996
:100CB0006E67206D65736820706F696E7420002008
:100CC0002844525952554E290047323920417574F3
:100CD0006F20426564204C6576656C696E67003FE5
:100CE00020284C2C522C462C4229206F7574206FE2
:100CF0006620626F756E64732E0A003F2856296560
:100D000072626F7365206C6576656C20696D706CBE
:100D100061757369626C652028302D34292E0A00B4
:100D2000426164205A2076616C75650A004E6F201E
:100D300062696C696E65617220677269640A00207D
:100D4000440020204D323030205300202844697365
:100D500061626C6564293A0046696C616D656E7408
:100D60002073657474696E67730020204D323031D2
:100D70002058004D617820416363656C6572617431
:100D8000696F6E2028756E6974732F733229002085
:100D9000204D3230332058004D61782066656564FF
:100DA00072617465732028756E6974732F732900DE
:100DB00020520020204D32303420500041636365C2
:100DC0006C65726174696F6E2028756E6974732F1B
:100DD0007332292028503C7072696E742D616363F0
:100DE000656C3E20523C726574726163742D616360
:100DF00063656C3E20543C74726176656C2D616352
:100E000063656C3E29005741524E494E4721204CA4
:100E10006F77205A204A65726B206D6179206C656E
:100E2000616420746F20756E77616E7465642070E4
:100E300061757365732E0A00205400205300202032
:100E40004D323035204200416476616E6365642026
:100E500028423C6D696E5F7365676D656E745F7483
:100E6000696D655F75733E20533C6D696E5F6665A5
:100E70006564726174653E20543C6D696E5F747286
:100E80006176656C5F66656564726174653E205865
:100E90003C6D61785F6A65726B3E20593C6D61788C
:100EA0005F6A65726B3E205A3C6D61785F6A65725D
:100EB0006B3E20453C6D61785F6A65726B3E290030
:100EC00020440020490020204D333031205000487C
:100ED0006F74656E6420504944002044002049002E
:100EE00020204D3330342050004265642050494466
:100EF0000050574D3A20202534640050574D3A2079
:100F0000202534640050574D3A2020253464005089
:100F1000574D3A20202534640050574D3A20202563
:100F200034640050574D3A20202534640050574D0A
:100F30003A20202534640050574D3A20202534644F
:100F40000050574D3A20202534640050574D3A2028
:100F5000202534640050574D3A2020253464005039
:100F6000574D3A20202534640050574D3A20202513
:100F700034640050574D3A20202534640050574DBA
:100F80003A20202534640050574D3A2020253464FF
:100F9000003A200020202020434F4D002020206ECA
:100FA0006F6E2D7374616E646172642050574D20B2
:100FB0006D6F646500202020636F6D706172652025
:100FC000696E7465727275707420656E61626C65AD
:100FD00064002020206F766572666C6F7720696EE2
:100FE0007465727275707420656E61626C65640000
:100FF0003A20002020202054494D534B00423A20F3
:1010000000202020205443435200413A2000202059
:10101000202054434352002020202043533A2000F4
:101020002020202057474D3A200050574D3A20208D
:101030002534640050574D3A202025346400470081
:101040004800000088008A008C00B300B400000053
:1010500098009A009C00A800AA00AC0028012A0170
:101060002C012020202054494D45520044004500C9
:101070006E00800081006F00B000B1007000900031
:1010800091007100A000A1007200200121017300F5
:1010900020697320616C736F207469656420746FBC
:1010A00020746869732070696E0054494D4552314F
:1010B00043000A202E002020002020506F72743A36
:1010C000200020202000202020416E616C6F6720CE
:1010D000696E203D2025356C64003C756E75736526
:1010E000642F756E6B6E6F776E3E0020284125323F
:1010F0006429202000253364200050494E3A200006
:101100004F7574707574203D2000496E70757420A1
:10111000203D2000416E616C6F6720696E203D208C
:1011200025356C640070726F7465637465642000AB
:1011300020284125326429202000253364200050D6
:10114000494E3A200058070001530701014E07118C
:1011500001490710013C073B0031074300260745C2
:1011600000190744000C073201FF063301F306346F
:1011700001E8063501DD062501D2061C01C406186A
:1011800001B8061A01AE062C01A306220195061E1F
:101190000189062401810609017206020165060A19
:1011A00001560608014E060D014006420133060AAB
:1011B0000126060701190608010B0631010606354E
:1011C00001FB050B01F0050601E5050501DA050443
:1011D00001CE050C01C4053701B7052601AD050395
:1011E00001A2053601970503018D053D01800538F3
:1011F0000176050E016B053C0160050E01560530B8
:101200000149053E013F05120134052E0129051251
:1012100001446F6E652E0A0050756C73696E67200D
:10122000202000556E746F756368656420006661E8
:101230006C7365004641494C3A204E6F20747269C8
:10124000676765722064657465637465640A004647
:1012500041494C3A204E6F6973652064657465633B
:10126000746564202D20706C656173652072652D36
:1012700072756E20746573740A002064657465630A
:101280007465642E0A003D20424C546F75636820DB
:101290007072652056332E3120286F7220636F6D77
:1012A00070617469626C6529003D205A2053657233
:1012B000766F2050726F6265003D20424C546F750E
:1012C00063682056332E310020282B2F2D20346DBB
:1012D00073293A20003A2033306D73206F72206DED
:1012E0006F72650A002E2050756C736520776964F3
:1012F0007468002A2A20506C6561736520747269D5
:10130000676765722070726F6265207769746869BB
:101310006E20333020736563202A2A0A0046414933
:101320004C3A20424C544F55434820656E61626CE4
:101330006564202D2053657420757020746869736E
:10134000206465766963652061732061205365724E
:10135000766F2050726F6265207769746820494EFD
:1013600056455254494E472073657420746F2027A8
:1013700074727565272E0A0020204445504C4F5941
:1013800045442073746174653A204C4F5720286C93
:101390006F6769632030290020204445504C4F5925
:1013A00045442073746174653A20484947482028B1
:1013B0006C6F676963203129003D204D656368616A
:1013C0006E6963616C205377697463682064657427
:1013D00065637465640A005741524E494E473A208E
:1013E000494E56455254494E472073657474696E90
:1013F000672070726F6261626C79206261636B77E3
:10140000617264732E0A002E204465706C6F79201F
:10141000262073746F7720342074696D65730A0019
:101420003D20424C546F75636820436C617373694F
:101430006320312E322C20312E332C20536D6172DB
:101440007420312E302C20322E302C20322E322C93
:1014500020332E302C20332E312064657465637464
:1014600065642E0A002E20436865636B20666F72E8
:1014700020424C544F5543480A002E205A5F4D4994
:101480004E5F454E4453544F505F494E564552545B
:10149000494E473A20002E2050726F6265205A5FF5
:1014A0004D494E5F50494E3A20002C2073746F779F
:1014B00020616E676C653A202020002C20646570E6
:1014C0006C6F7920616E676C653A200053657276A7
:1014D0006F2070726F626520746573740A2E2075B8
:1014E00073696E6720696E6465783A2020004D3418
:1014F0003320576169742043616C6C6564004D341E
:101500003320576169742043616C6C6564005761D6
:10151000746368696E672070696E730A006469732A
:1015200000656E0061626C65640A00656E647374C8
:101530006F70206D6F6E69746F72200020580020EC
:10154000204D61783A2000200020204D696E3A201D
:1015500000203B200020204D3231312053003F43FA
:10156000616E6E6F7420777269746520746F2049A4
:101570004E5055540A00496E76616C69642050697A
:101580006E204D6F64650A00203B0020550020202E
:101590004D363033204C0046696C616D656E7420A9
:1015A0006C6F61642F756E6C6F6164004D323453E3
:1015B000256C6454256C64004739322E39452573F7
:1015C0000047314625640047315A2573463630308E
:1015D0000047315825735925734633303030004D5C
:1015E000313036502569532569004D313039532546
:1015F00069004D323030442573004739322E395A54
:101600002573004D3432305325635A257300473219
:1016100038523058590047315A2573463630300019
:101620004739322E395A2573004739322E39453021
:10163000004D313039532569004D3139305325691A
:10164000004D343230205330205A30003D3D4F6E33
:10165000506F7765724C6F7373526573756D653D2E
:101660003D00203B200020204D34313320530050DA
:101670006F7765722D6C6F7373207265636F76651B
:101680007279004F4646004F4E00203B20486F7352
:10169000742068616E646C696E672000203B204D89
:1016A0006F646520006D6D00203B20446973746198
:1016B0006E6365200046696C616D656E742072759D
:1016C0006E6F757420003B200020496E76616C6956
:1016D00064206578747275646572200047322F4704
:1016E000332062616420706172616D65746572732C
:1016F0000A00536C6565702E2E2E005A2050726FB2
:1017000062652050617374204265640A005A20505B
:10171000726F6265205061737420426564004732C5
:10172000384C3000205A3A200020593A20004265B7
:101730006420583A20004D65736820706F696E749C
:10174000206F7574206F662072616E67650A004DA8
:10175000302053746F70004D312053746F7000430C
:101760006C69636B20746F20526573756D652E2EE6
:101770002E004E6F204D6F76652E00456E642066FC
:10178000696C65206C6973740A00426567696E2034
:1017900066696C65206C6973740A004E6F206D6514
:1017A0006469610A00526573756D696E6720534400
:1017B00000286E6F2066696C65290043757272653A
:1017C0006E742066696C653A20005072696E7420F0
:1017D00074696D653A20000A53746174733A204647
:1017E000696C616D656E7420757365643A20002CB8
:1017F000204C6F6E67657374206A6F623A200054E4
:101800006F74616C2074696D653A20005374617463
:10181000733A20002C204661696C65643A20002CE4
:101820002046696E69736865643A20005072696E7B
:1018300074733A200053746174733A20006F6B0024
:101840006F6666007E07790772076B075D07444580
:101850004255473A004D313133205300544D334403
:10186000203130532050726F204F46462E002F2FCC
:101870000046523A0020466C6F773A200050726F53
:101880007465637465642050696E0A003A20002014
:10189000536572766F2000206F7574206F6620721A
:1018A000616E67650A00536572766F200064697324
:1018B00000656E0043290A0061626C656420286D32
:1018C000696E2074656D702000436F6C64206578CC
:1018D00074727564657320617265200050494420FC
:1018E0004175746F74756E6500504944204175747C
:1018F0006F74756E65206661696C65642120426154
:1019000064206865617465722069640A00424C5401
:101910006F756368204853206D6F646520004D34F7
:10192000323120696E636F72726563742070617208
:10193000616D657465722075736167650A004D6538
:10194000736820706F696E74206F7574206F6620E5
:1019500072616E67650A00454550524F4D204F4BEE
:101960000A00496E76616C696420657874727564EA
:1019700065720A000A20696E6974207A70726F625B
:10198000655F7A6F6666736574203D20003D3D6F2C
:101990006E436F6E66696775726174696F6E5374BA
:1019A0006F7265526561643D3D00454550524F4D33
:1019B00020496E697469616C697A65640A004861DE
:1019C0007264636F6465642044656661756C74203D
:1019D00053657474696E6773204C6F61646564004D
:1019E00020286D6D2900203B204C6576656C696E62
:1019F00067200020204D3432302053004175746F31
:101A000020426564204C6576656C696E67004669A6
:101A10006C616D656E742072756E6F757420736580
:101A20006E736F7200204A00202047323920572001
:101A3000490020204D3134392043203B20556E6928
:101A4000747320696E2043656C736975730A005462
:101A5000656D706572617475726520556E69747319
:101A6000002020473231203B004C696E65617220B6
:101A7000556E69747300454550524F4D2064617432
:101A80006173697A65206572726F722E0A00536500
:101A90007474696E6720566F6C756D65204F6E208B
:101AA0003A200053657474696E67205374616E64E4
:101AB0006279204F6E203A200053657474696E6716
:101AC00020566F6C756D65203A20005365747469FB
:101AD0006E6720526F746174696F6E203A200053F4
:101AE000657474696E67205374616E646279205402
:101AF000696D65203A200053657474696E672053E0
:101B000074616E646279203A200053657474696E62
:101B100067204272696768746E657373203A2000AB
:101B20004C6F6164696E67204457494E204C4344B2
:101B30002073657474696E672066726F6D20454509
:101B400050524F4D0A0044697363617264696E6755
:101B5000204457494E204C43442073657474696E89
:101B6000672066726F6D20454550524F4D202D20E5
:101B700073657474696E67732076657273696F6ECE
:101B800020696E636F72726563740A0044697363DF
:101B9000617264696E67204457494E204C4344206B
:101BA00073657474696E672066726F6D2045455069
:101BB000524F4D202D2073697A6520696E636F72D4
:101BC000726563740A0053746F7265642073657480
:101BD00074696E67732072657472696576656400F6
:101BE000290A002062797465733B206372632000C8
:101BF0002073746F7265642073657474696E6773A3
:101C000020726574726965766564202800454550C8
:101C1000524F4D20435243204572726F720020286C
:101C200063616C63756C6174656429210A0020210D
:101C30003D2000454550524F4D20435243206D6991
:101C4000736D61746368202D202873746F726564EE
:101C50002920002053697A653A2000496E6465782E
:101C60003A20000000FA430000FA4300002041003F
:101C7000008C420000A0420000A0420000C84300C7
:101C800080CF43EE020000EE020000640000003C42
:101C9000000000454550524F4D2056657273696FE4
:101CA0006E204572726F7200204D61726C696E3DDC
:101CB000563837290A00454550524F4D20766572F7
:101CC00073696F6E206D69736D6174636820284558
:101CD0004550524F4D3D0024F4D43050C38E20C2A5
:101CE000A24017828B7011127A910D816CD90AA8CB
:101CF00061E108C7586607615143061E4B5D05C187
:101D000045A7041A411104093D9803713931034074
:101D100036DB0265339102D4305402802E1D0263FB
:101D20002CEE01752AC501B028A001102781018F72
:101D30002564012B244B01E0223401AC211F018DCD
:101D4000200D01801FFC00841EED00971DDF00B8F0
:101D50001CD200E61BC600201BBC00641AB200B2F5
:101D600019A8000A19A0006A189900D1179100401B
:101D7000178B00B516840031167E00B31579003A32
:101D8000157300C7146F0058146A00EE13660088BC
:101D900013630025135E00C7125B006C1257001519
:101DA000125400C111510070114F0021114B00D687
:101DB0001049008D1047004610440002104200C038
:101DC0000F4000800F3E00420F3C00060F3B00CB4F
:101DD0000E3800930E37005C0E3500270E3400F3EA
:101DE0000D3200C10D3100900D3000600D2E00321B
:101DF0000D2D00050D2C00D90C2B00AE0C290085F3
:101E00000C29005C0C2700350C27000E0C2600E87E
:101E10000B2400C40B2400A00B23007D0B23005ACD
:101E20000B2100390B2100180B2000F80A1F00D9E4
:101E30000A1E00BB0A1E009D0A1D00800A1D0063C9
:101E40000A1C00470A1B002C0A1B00110A1A00F783
:101E5000091A00DD091900C4091900AB091900921B
:101E60000917007B091800630917004C0916003692
:101E7000091600200916000A091500F5081500E0EA
:101E8000081400CC081400B8081400A4081400902A
:101E90000813007D0812006B081300580812004652
:101EA0000812003408110023081100120811000163
:101EB000081100F0071000E0071000D0071000C064
:101EC000071000B0070F00A107100091070E008354
:101ED000070F0074070F0065070E0057070E004933
:101EE000070E003B070D002E070E0020070D001304
:101EF000070D0006070D00F9060C00ED060D00E0C9
:101F0000060C00D4060C00C8060C00BC060C00B081
:101F1000060C00A4060B0099060C008D060B00822F
:101F2000060B0077060B006C060B0061060A0057D3
:101F3000060B004C060A0042060A0038060A002E6C
:101F4000060A0024060A001A060A001006090007FD
:101F5000060A00FD050900F4050900EB050900E289
:101F6000050900D9050900D0050900C7050900BE0B
:101F7000050900B5050800AD050800A50509009C88
:101F8000050800940508008C050800840508007CFD
:101F9000050800740508006C050700650508005D6C
:101FA000050700560508004E0507004705070040D5
:101FB00005080038050700310507002A050700233A
:101FC0000507001C050600160507000F0507000899
:101FD00005060002050700FB040600F5040700EEF5
:101FE000040600E8040600E2040700DB040600D54E
:101FF000040600CF040600C9040600C3040600BDA1
:10200000040600B7040600B1040500AC040600A6EF
:10201000040600A00405009B04060095040500903A
:102020000406008A04050085040500800406007A81
:1020300004050075040500700405006B04050066C6
:10204000040500610405005C040500570405005206
:102050000405004D04050048040500430405003E46
:102060000404003A04050035040500300404002C83
:1020700004050027040400230405001E0404001ABC
:1020800004040016040500110404000D04040009F2
:102090000405000404040000040400FC030400F828
:1020A000030400F4030400F0030400EC030400E85C
:1020B000030400E4030400E0030400DC030400D88C
:1020C000030400D4030400D0030400CC030400C8BC
:1020D000030300C503030024F404D9201BC40C5CD3
:1020E0000E9804C4095F0265077101F405F900FB4D
:1020F00004B30048048700C1036900580355000376
:10210000034500BE023A008402310053022A00292E
:1021100002250004022000E4011C00C8011900AFE0
:10212000011700980114008401130071011000616F
:1021300001100051010E0043010D0036010B002B70
:10214000010B0020010B00150109000C010900031F
:10215000010800FB000800F3000800EB000700E4A2
:10216000000600DE000600D8000600D2000600CC03
:10217000000500C7000500C2000500BD000400B94D
:10218000000400B5000400B1000400AD000400A983
:10219000000400A5000300A20003009F0004009BB0
:1021A00000030098000300950002009300030090D4
:1021B0000003008D0002008B0003008800020086EF
:1021C00000020084000300810002007F0002007D05
:1021D0000002007B00020079000200770001007617
:1021E0000002007400020072000100710002006F22
:1021F0000002006D0001006C0002006A000100692D
:102200000002006700010066000100650001006433
:102210000002006200010061000100600001005F37
:102220000002005D0001005C0001005B0001005A3B
:10223000000100590001005800010057000100563C
:10224000000100550001005400010053000000533C
:102250000001005200010051000100500001004F38
:102260000001004E0000004E0001004D0001004C36
:102270000001004B0000004B0001004A0001004932
:10228000000100480000004800010047000100462E
:102290000000004600010045000000450001004428
:1022A0000001004300000043000100420000004222
:1022B0000001004100000041000100400001003F1A
:1022C0000000003F0001003E0000003E0001003D14
:1022D0000000003D0001003C0000003C0000003C0C
:1022E0000001003B0000003B0001003A0000003A02
:1022F00000010039000000390001003800000038FA
:1023000000000038000100370000003700010036EF
:1023100000000036000000360001003500000035E6
:1023200000000035000100340000003400000034DB
:1023300000010033000000330000003300010032D0
:1023400000000032000000320001003100000031C6
:1023500000000031000100300000003000000030BB
:102360000001002F0000002F0000002F0000002FB0
:102370000001002E0000002E0000002E0001002DA4
:102380000000002D0000002D0000002D0001002C99
:102390000000002C0000002C0000002C0001002B8D
:1023A0000000002B0000002B0000002B0001002A81
:1023B0000000002A0000002A0000002A0001002975
:1023C0000000002900000029000000290000002969
:1023D000000100280000002800000028000000285C
:1023E000000000280001002700000027000000274F
:1023F0000000002700000027000100260000002642
:102400000000002600000026000000260001002534
:102410000000002500000025000000250000002528
:10242000000000250001002400000024000000241A
:10243000000000240000002400010023000000230D
:102440000000002300000023000000230000002300
:1024500000000023000100220000002200000022F2
:1024600000000022000000220000002200010021E4
:1024700000000021000000210000002100000021D8
:1024800000000021000000210001002000000020C9
:1024900000000020000000200000002000000020BC
:1024A00000000020000000200001001F0000001FAD
:1024B0000000001F0000001F0000001F0000001FA0
:1024C0000000001F0001001E0000001E0000001E92
:1024D0000000001E00000039300000332500008796
:1024E000190000B00F0000DB080000BD04000074FC
:1024F0000200003F01000020436F756E7420583ABF
:102500000023646566696E652044454641554C5418
:102510005F0000626564004B6420004B6920004B43
:102520007020005049442074756E696E6720646F96
:102530006E6500504944204175746F74756E652056
:1025400066696E69736865642120507574207468CB
:1025500065206C617374204B702C204B6920616E78
:1025600064204B6420636F6E7374616E74732066B5
:10257000726F6D2062656C6F7720696E746F204397
:102580006F6E66696775726174696F6E2E680A0096
:10259000504944204175746F74756E652066616999
:1025A0006C6564212074696D656F75740A004175EE
:1025B000746F74756E65206661696C656421205462
:1025C000696D656F75742E00504944204175746FB4
:1025D00074756E65206661696C6564212054656D53
:1025E000706572617475726520746F6F20686967B9
:1025F000680A00504944204379636C657300255391
:102600002025692F256900204B643A2000204B6962
:102610003A2000204B703A200020436C61737369AC
:102620006320504944200A00204E6F206F76657267
:1026300073686F6F740A002054753A2000204B7540
:102640003A2000206D61783A2000206D696E3A20B2
:102650000020643A200020626961733A20004865D6
:102660006174696E672E2E2E0050494420417574A6
:102670006F74756E652073746172740A00417574AD
:102680006F74756E65206661696C65642E20546593
:102690006D706572617475726520746F6F20686902
:1026A00067682E00504944204175746F74756E65DB
:1026B000206661696C6564212054656D7065726186
:1026C0007475726520746F6F20686967680A0042CC
:1026D0006564004531004500626564002C20737913
:1026E0007374656D2073746F707065642120486524
:1026F000617465725F49443A200048656174696E8F
:1027000067204661696C65640048656174696E673D
:10271000206661696C6564004D3131322053687503
:1027200074646F776E001000C90210012C01400123
:10273000220170011801B0010E01F00104015002E4
:10274000FA00B002F0003003E600D003DC00900491
:10275000D2007005C800A006BE000008B400B00991
:10276000AA00D00BA000600E960060118C0000152E
:10277000820020197800C01D6E00A0226400B027DE
:102780005A00902C500000314600E0343C001038D4
:102790003200903A2800603C1E00A03D1400803EAC
:1027A0000A00203F00004572723A204D41585445BE
:1027B0004D50004D415854454D5020747269676723
:1027C00065726564004572723A204D494E54454D1C
:1027D00050004D494E54454D5020747269676765ED
:1027E00072656400544845524D414C2052554E414B
:1027F00057415900546865726D616C2052756E6165
:10280000776179000A0A0020205A5F4D494E3A004C
:102810002020595F4D494E3A002020585F4D494EC7
:102820003A00202F002042403A0020403A00205732
:102830003A007C3C3E5E2B3D3F2F5B5D3B2C2A22C9
:102840005C0043616E6E6F74206F70656E207375EF
:102850006264697220004D6564696120496E697423
:10286000204661696C0053442063617264206F6B81
:102870000A006F70656E526F6F74206661696C65D7
:10288000640A00766F6C756D652E696E69742066DA
:1028900061696C65640A004E6F2053442063617265
:1028A000640A000A4D3234004D3233202573002E65
:1028B0000A006F70656E206661696C65642C204645
:1028C000696C653A200046696C652073656C6563C8
:1028D0007465640A002053697A653A200046696C81
:1028E00065206F70656E65643A2000454E44205344
:1028F0005542524F5554494E450A002220706F737D
:10290000002220706172656E743A22005355425263
:102910004F5554494E452043414C4C2074617267D9
:1029200065743A220053756263616C6C204F766562
:1029300072666C6F77004578636565646564206DC9
:10294000617820535542524F5554494E4520646595
:102950007074683A002E0A0044656C6574696F6E85
:10296000206661696C65642C2046696C653A2000BC
:1029700046696C652064656C657465643A0053440F
:10298000207072696E74696E6720627974652000C8
:102990004E6F74205344207072696E74696E670ABA
:1029A000002F6175746F25632E6700577269746913
:1029B0006E6720746F2066696C653A2000667265E8
:1029C000736800646F696E67002066696C653A2001
:1029D000004E6F7720002020506C616E6E65724251
:1029E000756666657242797465733A200020467296
:1029F0006565204D656D6F72793A200020436F6DDB
:102A000070696C65643A204D617920203120323044
:102A100032320A00204C6173742055706461746511
:102A2000643A20323032322D30342D3033207C2045
:102A3000417574686F723A20426F6E6474656368A2
:102A4000202F20496E73616E6974794175746F6DC2
:102A50006174696F6E0A004D61726C696E20445733
:102A6000372E342E360A0020536F667477617265F4
:102A70002052657365740A00205761746368646F3F
:102A8000672052657365740A002042726F776E206A
:102A90006F75742052657365740A002045787465FB
:102AA000726E616C2052657365740A00506F7765B1
:102AB0007255700A0073746172740A004739310AE2
:102AC00047315A350A4739300A4D38340A4D3130CA
:102AD0003453300A4D3134305330004D31303031C1
:102AE000006572726F722077726974696E67207404
:102AF0006F2066696C650A00446F6E6520736176AD
:102B0000696E672066696C652E0A004D3239004592
:102B10006E6473746F7073002553202563202563E2
:102B200020256320256300205A3A0020593A0020CE
:102B3000583A00656E6473746F7073206869743AF4
:102B4000200000002100240027002A002D00300072
:102B5000330001010000040107010A010000220006
:102B6000250028002B002E00310034000201000057
:102B7000050108010B0100002000230026002900A8
:102B80002C002F00320000010000030106010901A2
:102B900005050505070508080808020202020A0AD9
:102BA00008080404040401010101010101010303F7
:102BB000030303030303040707070C0C0C0C0C0CA2
:102BC0000C0C0202020206060606060606060B0B9F
:102BD0000B0B0B0B0B0B01021020200808102040E0
:102BE00010204080020102010804020101020408D1
:102BF000102040808040201008040201800402015F
:102C000080402010080402010804020101020408A7
:102C100010204080010204081020408000000A0BB0
:102C200002090C0D0E08070304010000000000005B
:102C30000000000000000000000000000000000094
:102C40000000000000000000121110000000000051
:102C50000000000000000000000000000000000074
:102C6000000050726F62696E67204661696C65642E
:102C70000A0050726F62696E67204661696C656414
:102C800000205A3A200020593A200042656420581A
:102C90003A2000726573756D6564004469736D69EF
:102CA000737300526573756D696E670073686F7733
:102CB00000627574746F6E00626567696E004469C6
:102CC0007361626C6552756E6F75740050757267D2
:102CD000654D6F72650050617573656400436F6E7A
:102CE00074696E7565004C6F61642046696C616D36
:102CF000656E742054004C6F61642046696C616D90
:102D0000656E7400496E736572742066696C616DDE
:102D1000656E7420616E642073656E64204D313081
:102D2000380A0020204D323036205800486F6D653B
:102D3000206F6666736574004F66667365747320F2
:102D40004170706C696564004572723A20546F6F0F
:102D5000206661722100546F6F2066617220667276
:102D60006F6D207265666572656E636520706F6950
:102D70006E740A004361703A00434F4E4649475F04
:102D80004558504F5254004D4541545041434B001B
:102D9000434F4F4C45525F54454D50455241545559
:102DA0005245004348414D4245525F54454D5045C0
:102DB0005241545552450042414259535445505096
:102DC000494E470041524353004D4F54494F4E5FC7
:102DD0004D4F44455300544845524D414C5F50526D
:102DE0004F54454354494F4E00455854454E444571
:102DF000445F4D323000435553544F4D5F46495266
:102E00004D574152455F55504C4F4144004C464E42
:102E10005F5752495445004C4F4E475F46494C4519
:102E20004E414D45004155544F5245504F52545F0D
:102E300053445F5354415455530053445F575249D0
:102E4000544500524550454154004D554C54495F3E
:102E5000564F4C554D450053444341524400505247
:102E60004F4D50545F535550504F525400484F539C
:102E7000545F414354494F4E5F434F4D4D414E4483
:102E80005300454D455247454E43595F50415253BB
:102E9000455200434153455F4C494748545F4252B5
:102EA000494748544E45535300544F47474C455F9C
:102EB0004C494748545300534F4654574152455F7D
:102EC000504F574552004255494C445F504552437C
:102ED000454E54004C4556454C494E475F4441547D
:102EE00041005A5F50524F42450052554E4F555483
:102EF000004155544F4C4556454C005052494E5494
:102F00005F4A4F420050524F47524553530041557C
:102F1000544F5245504F52545F54454D5000415507
:102F2000544F5245504F52545F504F5300564F4CE0
:102F3000554D455452494300454550524F4D00426E
:102F4000494E4152595F46494C455F5452414E5398
:102F50004645520053455249414C5F584F4E5F58C9
:102F60004F4646004649524D574152455F4E414DEE
:102F7000453A4D61726C696E204457372E342E36B7
:102F800020544D33442053534D44424220284D6138
:102F90007920203120323032322031353A30313A06
:102FA00030312920534F555243455F434F44455FCD
:102FB00055524C3A68747470733A2F2F676974686D
:102FC00075622E636F6D2F496E73616E69747941FE
:102FD00075746F6D6174696F6E2F4D61726C696E7F
:102FE0002F747265652F437265616C6974794477DB
:102FF000696E5F322E302050524F544F434F4C5F1A
:1030000056455253494F4E3A312E30204D41434898
:10301000494E455F545950453A544D334420313060
:10302000532050726F2045585452554445525F43C7
:103030004F554E543A3120555549443A63656465BD
:10304000326132662D343161322D343734382D39C6
:103050006231322D63353563363266333637666614
:103060000A0050726F6265204F6666736574205A5D
:103070000050726F6265204F6666736574205A0057
:10308000290A0020746F20003F5A206F7574206F4A
:10309000662072616E6765202800290A0020746F1F
:1030A00020003F59206F7574206F662072616E6733
:1030B0006520282D00290A0020746F20003F582029
:1030C0006F7574206F662072616E676520282D0011
:1030D000203B0020204D3835312058005A2D5072A9
:1030E0006F6265204F6666736574004D3834004426
:1030F0006F6E65207072696E74696E672066696CA8
:10310000650A004D3737004D33310043616E6E6FF5
:1031100074206F70656E207375626469722000257B
:1031200069730025696D202569730025696820256C
:10313000696D20256973002569642025696820254B
:10314000696D20256973002569792025696420252A
:1031500069682025696D2025697300436F6F6C696C
:103160006E672E2E2E0045312025530020573A0041
:1031700042656420436F6F6C696E672E2E2E00428D
:1031800065642048656174696E672E2E2E003D3D92
:103190004477696E20496E697420436F6D706C6569
:1031A00074653D3D00202D206434200064333A20B6
:1031B00000202D206432200064313A2000202D2090
:1031C0006C656E2000565020726563656976656493
:1031D0003A200077616974776179203D3D002020B5
:1031E0002A2A2A2A2A2A2A5254535F48616E646C7A
:1031F00065446174612A2A2A2A2A2A2A2A20002A56
:103200002A2A4E6F7A7A6C6554656D7053746174B6
:1032100075735B325D203D003D3D48656174696EAC
:103220006720446F6E65204368616E67652046695C
:103230006C616D656E743D3D002020737461727425
:1032400070726F677265737320004D32320A4D32AF
:1032500031003D3D7761697477617920353D3D00EE
:103260003D3D7761697477617920343D3D003D3D96
:103270007761697477617920333D3D003D3D776129
:10328000697477617920313D3D00436F6E666972E4
:103290006D20436F6E74696E75650050617573655E
:1032A00053746174757300524553554D45204F500A
:1032B00054494F4E533A0048656174696E672E2E2B
:1032C0002E000000436C69636B20746F2068656199
:1032D00074000000526573756D696E672E2E2E00A6
:1032E000000050757267696E672E2E2E000000492F
:1032F0006E7365727420616E6420436C69636B0049
:103300000000436C69636B20746F20636F6E746997
:103310006E7565000000456A656374696E672E2EE0
:103320002E000000506C6561736520776169742E12
:103330002E2E0000005061726B696E672E2E2E00DB
:1033400000002A2A2A496E6974696E6720636172D7
:1033500064206973204F4B2A2A2A003D3D6F6E502E
:1033600072696E7454696D657253746F70706564C0
:103370003D3D003D3D6F6E55736572436F6E6669EE
:10338000726D52657175697265643D3D005061757D
:103390007365204D6F646520537461747573004CC0
:1033A0006F6164696E672E2E2E0000003D3D6F6ECA
:1033B000466163746F727952657365743D3D002791
:1033C0000A0A0000272027002027002D0063616ED5
:1033D00063656C005072696E742041626F7274652F
:1033E000640055492041626F7274656400726573B0
:1033F000756D65004D3234002A2A2A43506C61797C
:1034000020546F6E652A2A2A003D3D6F6E50726906
:103410006E7454696D65725061757365643D3D00ED
:10342000486F6D696E67204661696C656400505233
:103430004553454E54004F5554006F70656E00540F
:103440005249474745524544003A20004D4F5449A0
:103450004F4E203A20004F46460A003A2000666947
:103460006C616D656E74007A5F6D696E00795F6D79
:10347000696E00785F6D696E005265706F72746975
:103480006E6720656E6473746F70207374617475F9
:10349000730A0020746F6F206C6F6E6720657874FC
:1034A000727573696F6E2070726576656E7465648F
:1034B0000A0020636F6C6420657874727573696F9D
:1034C0006E2070726576656E7465640A00486F6D73
:1034D0006520257325732573204669727374005720
:1034E00061726E696E673A20486F6D696E6720423F
:1034F000756D702044697669736F72203C20310AC3
:1035000000020204000000000000000000000000B3
:1035100000809D4300009B430000C8430000004121
:103520000000004100000040FFFFFF00000001001C
:103530000000010000800055555500000040003398
:10354000333300AAAA2A004992240000002000C7B1
:10355000711C0099991900D1451700555515003B6C
:10356000B113002449120011111100000010000FC6
:103570000F0F00E3380E0043790D00CCCC0C00C3D4
:10358000300C00E8A20B0064210B00AAAA0A00700C
:103590003D0A009DD80900427B090092240900DC05
:1035A000D30800888808001042080000000800F0D6
:1035B000C107008787070075500700711C07003E90
:1035C000EB0600A1BC060069900600666606007066
:1035D0003E06006118060017F4050074D105005B73
:1035E000B00500B2900500627205005555050078DF
:1035F000390500B81E0500050505004EEC040087DE
:10360000D40400A1BD040090A7040049920400C1A5
:103610007D0400EE690400C7560400444404005CC5
:103620003204000821040041100400000004003F9F
:10363000F00300F8E0030026D20300C3C30300CC6C
:10364000B503003AA803000A9B0300388E0300C0AC
:103650008103009F750300D0690300505E03001DC5
:1036600053030034480300913D0300333303001635
:10367000290300381F030097150300300C030003D3
:103680000303000BFA020049F10200BAE802005CF1
:10369000E002002DD802002DD0020059C80200B06F
:1036A000C0020031B90200DAB10200AAAA0200A0E9
:1036B000A30200BC9C0200FA9502005C8F0200DFAE
:1036C00088020082820200457C02002776020027E1
:1036D000700200436A02007C640200D05E02003F78
:1036E000590200C8530200FFFDFCFAF8F6F4F2F0AC
:1036F000EEECEAE9E7E5E3E1E0DEDCDAD9D7D5D4C0
:10370000D2D0CFCDCBCAC8C7C5C3C2C0BFBDBCBA5B
:10371000B9B7B6B4B3B2B0AFADACAAA9A8A6A5A4C8
:10372000A2A1A09E9D9C9A99989795949392908F10
:103730008E8D8B8A8988878684838281807F7E7D37
:103740007B7A797877767574737271706F6E6D6C41
:103750006B6A696867666564636261605F5E5D5C31
:103760005B5A5958585756555453525150504F4E12
:103770004D4C4B4A4A4948474646454443424241DC
:10378000403F3E3E3D3C3B3B3A3938383736353595
:10379000343332323130302F2E2E2D2C2B2B2A2940
:1037A0002928272726252524232322212120201FDD
:1037B0001E1E1D1C1C1B1B1A19191818171616156E
:1037C0001514131312121111100F0F0E0E0D0D0CF4
:1037D0000C0B0A0A09090808070706060505040470
:1037E000030302020100003D3D6F6E5072696E746A
:1037F00054696D6572537461727465643D3D000077
:10380000809D4300009B430000C84300000000006F
:1038100000000000000000536176696E6720445785
:10382000494E204C43442073657474696E6720666A
:10383000726F6D20454550524F4D0A003D3D6F6EF1
:1038400053657474696E677353746F7265643D3D3C
:103850000053657474696E67732053746F72656486
:1038600000290A002062797465733B20637263202B
:103870000053657474696E67732053746F72656466
:1038800020280070012C0190012701B0012201C005
:10389000011D01F00118011002130130020E016038
:1038A00002090190020401C002FF000003FA004077
:1038B00003F5008003F000D003EB002004E6007065
:1038C00004E100E004DC004005D700C005D2004060
:1038D00006CD00D006C8008007C3003008BE00F047
:1038E00008B900C009B400B00AAF00B00BAA00D0FC
:1038F0000CA500000EA000500F9B00C010960050B9
:1039000012910000148C00C0158700B0178200B01F
:10391000197D00D01B7800001E730040206E0090BF
:10392000226900F024640040275F0090295A00E0DB
:103930002B5500102E500020304B0010324600E076
:1039400033410090353C001037370070383200A00A
:10395000392D00B03A2800A03B2300603C1E001027
:103960003D1900903D1400103E0F00703E0A00C04B
:103970003E0500003F0000403FFBFF803FF6FFC0D8
:103980003FF1FF220A00556E6B6E6F776E20636FFA
:103990006D6D616E643A2022002042002050006F5D
:1039A0006B00204500205A0020590020204D39325C
:1039B00020580053746570732070657220756E69AD
:1039C000740020746F6F206C6F6E6720657874725E
:1039D0007573696F6E2070726576656E7465640AC2
:1039E0000020636F6C6420657874727573696F6E04
:1039F0002070726576656E7465640A004D323520FC
:103A0000500A4D323400526573756D65005549207A
:103A100050617573650043616E6E6F7420656E74DE
:103A20006572207375626469723A20004E6F204D92
:103A300061746368203A00436F6E73747261696EDB
:103A4000206D65736856616C20006D657368566102
:103A50006C200079506E74200078506E7420006DD8
:103A6000657368506F696E742000446973706C618F
:103A7000794272696768746E657373205365743A2E
:103A80002000446973706C61794272696768746E72
:103A9000657373204C43443A20004D32320A4D3254
:103AA000310052656672657368005067557000504A
:103AB00067446F776E0049732046696C6520004942
:103AC00073204469722000476F5570446972004842
:103AD0006173204D656469610046696C656E616D56
:103AE000652053656C6563746564004D313030301A
:103AF00043004D31303030002046696C616D656E99
:103B00007420526573706F6E7365204E6F0052653E
:103B100073756D652059657320647572696E6720D1
:103B20007072696E74000A204E6F2046696C616D78
:103B3000656E7400496E76616C6964204F707469BB
:103B40006F6E004D3530300053746F7265205365D1
:103B50007474696E6773004D3939390A4D323830E3
:103B600050305331363000424C546F7563682052E8
:103B700065736574004D3530320A4D35303000497B
:103B80006E697420454550524F4D004D3530300020
:103B900053746F72652053657474696E677300495E
:103BA0006E4C616E6743686F696365000A202A2A5C
:103BB0002A7265636461742E646174615B305D2098
:103BC0003D004732380A4731204631303030205AE4
:103BD000313000556E737570706F72746564204F6C
:103BE0007074696F6E2053656C6563746564004D15
:103BF00032313153300A4739310A47315A302E3089
:103C000032350A4739300A4D3231315331004D32A5
:103C1000313153300A4739310A47315A2D302E306D
:103C200032350A4739300A4D32313153310047328B
:103C30003953320047323953310047323652323528
:103C400035004D3139305335350A4732380A47325D
:103C5000390A4D3430300A4D313034533231350A5F
:103C60004732380A4D313039533231350A4D34320A
:103C70003053310A473158313030593130304635C0
:103C80003030300A47315A300A4D3530300A4D371E
:103C9000370A4D31313720536574205A204F6666FC
:103CA000736574004731204631303030205A302E51
:103CB00030004732380A4731204631303030205A00
:103CC000302E30005A204F6666736574203A2025E6
:103CD00073005A204F6666736574203A202573007E
:103CE0004732385A0A473146313530305A302E3053
:103CF000004732380A473146313530305A302E309D
:103D000000426564204C6576656C204F7074696F65
:103D10006E200052657475726E203A20004D383462
:103D200000473146313030305A302E30004732387B
:103D30000A473146313030305A302E30004D616EF6
:103D400075616C53657454656D70005A204F6666DA
:103D5000736574203A20257300526F756E64696E26
:103D60006720746F20737465700052657175657398
:103D7000746564204F6666736574200053746F70B9
:103D8000205472696767657265640053746F7020B0
:103D90004E6F0053746F705072696E740048616E9C
:103DA000646C6520446174612041646A7573742099
:103DB000322053657474696E672053637265656E53
:103DC000200048616E646C6520446174612050720B
:103DD000696E7446696C6520332053657474696E2E
:103DE000672053637265656E200048616E646C6580
:103DF0002044617461205072696E7446696C65205C
:103E0000322053657474696E672053637265656E02
:103E100020004D38340048616E646C652044617444
:103E200061205072696E7446696C6520506F7374BE
:103E30000048616E646C6520446174612050726951
:103E40006E7446696C652050726500426567696EE4
:103E5000537769746368003D3D20436865636B6B0D
:103E600065793D3D007265636461742E61646472BE
:103E7000203D3D007265636461742E646174615B12
:103E8000305D203D3D0020453A00205A3A0020593F
:103E90003A00583A006F6B0A00526573656E643AD7
:103EA00020006E6F74696669636174696F6E2000CB
:103EB000544D3344203130532050726F205265618D
:103EC00064792E005072696E74696E672E2E2E0012
:103ED0005072696E74205061757365640052455369
:103EE000554D45204F5054494F4E533A0048656157
:103EF00074696E672E2E2E000000436C69636B2080
:103F0000746F2068656174000000526573756D6997
:103F10006E672E2E2E00000050757267696E672E38
:103F20002E2E0000004C6F6164696E672E2E2E00ED
:103F30000000496E7365727420616E6420436C6981
:103F4000636B000000436C69636B20746F20636FC8
:103F50006E74696E7565000000456A656374696E0C
:103F6000672E2E2E000000506C656173652077610E
:103F700069742E2E2E0000005061726B696E672EE0
:103F80002E2E00000050617573654D73673D000073
:103F9000CC01BC0011241FBECFEFD1E2DEBFCDBFEC
:103FA00000E00CBF84B78093C11914BE0FB6F8941B
:103FB000A8958091600088618093600010926000F5
:103FC0000FBE16E0A0E0B2E0E8E4F2E802E00BBFCA
:103FD00002C007900D92A638B107D9F729E1A6E8EB
:103FE000B6E001C01D92A13CB207E1F71FE1C9ECA8
:103FF000DFE100E006C021970109802FFE010F9448
:10400000513DC83CD10780E00807A9F70F94072964
:104010000D9412410C94000020918F07833021F4FD
:1040200025FD0CC024FD0CC030E0A90102C055954F
:1040300047958A95E2F7CA018170089581E0089555
:1040400080E008958091450A84FD0BC08091470A65
:1040500087FD07C09091480A937081E019F480E0D1
:10406000089581E00895082E000C990BFC01E0579B
:10407000F44DE491EE2391F0F0E0EE0FFF1FEA58CB
:10408000F44DA591B4912C918A52944DFC018491E8
:10409000282381E090E021F480E0089580E090E022
:1040A0000895082E000C990BFC01E057F44DE491A3
:1040B000F0E0EE0FFF1FEE5BF44DA591B4912C9153
:1040C0008A52944DFC018491822391E009F490E09E
:1040D000892F0895EDE9F7E09491981739F031961A
:1040E00097E0E33BF907C1F780E0089581E0089588
:1040F000269A2E9A08950F931F93CF93DF9300D0A3
:104100001F92CDB7DEB79C0103E719E090E1E2EA28
:10411000FFE0D80101900D929A95E1F7F901208115
:10412000318142815381F801608571858285938553
:104130000F945A3DF801608771878287938780E0EA
:1041400090E0A0EAB0E489839A83AB83BC83CE017C
:1041500001960E9480BD0F900F900F900F90DF91FD
:10416000CF911F910F910895CF93DF9300D01F92AD
:10417000CDB7DEB780E090E0A0EAB0E489839A830F
:10418000AB83BC8361E0CE0101960E94EBBE0F9031
:104190000F900F900F90DF91CF910895BC01990F70
:1041A000880B990B0C9498F2CF92DF92EF92FF92CA
:1041B0000F931F93CF93DF936B017A01EC01C25EE3
:1041C000D84F28813CE0389F8001399F100D112481
:1041D00027FF24C0FB011182108288818F5F8883B2
:1041E00088819801280F311D87FD3A95C9012091DA
:1041F000CE15F6012817190629F024F088818C3095
:104200000CF43CC080819181049680349C4908F470
:1042100075C0F60180819181049672C088819801F1
:10422000280F311D87FD3A95C9012091CE15281719
:10423000190699F294F28881A801480F511D87FD53
:104240005A95FA01EE0FFF1FE40FF51FEA57FA4ED9
:10425000808187FFC2CF8881F801E80FF11D87FDBB
:10426000FA95CF01EE0FFF1FE80FF91FEA57FA4E3C
:10427000808160E08F770E947477AFCF80819181D9
:104280002881A801420F511D27FD5A959A01FA0174
:10429000EE0FFF1FE20FF31FEA57FA4E2181328122
:1042A000820F931FF7019183808388819801280FE3
:1042B000311D87FD3A95F901EE0FFF1FE20FF31F45
:1042C000EA57FA4E808187FF20C08881080F111DB0
:1042D00087FD1A95F801EE0FFF1FE00FF11FEA5757
:1042E000FA4E808161E08F77DF91CF911F910F911E
:1042F000FF90EF90DF90CF900C94747780E49CE96E
:10430000F701918380838FEF8883DF91CF911F9195
:104310000F91FF90EF90DF90CF90089580917F07ED
:1043200090918007009731F04AE050E070E060E043
:104330000D94AD3460E070E0CB01089580917F076B
:1043400090918007009731F04AE050E070E060E023
:104350000D947F3360E070E0CB0108950E949E21B0
:1043600097FD0CC00E949E216F3F7105810591054C
:1043700009F034F40E949E21862F089580E008956C
:104380008FEF089580917F0790918007892B41F0EE
:104390000E94AE2191E0811101C090E0892F089523
:1043A00091E0FCCFFC016591759185919491089500
:1043B0008091C008882319F080E00E9420C280E02C
:1043C00008958F929F92AF92BF92CF92DF92EF9219
:1043D000FF92CF93DF93EC018090FE0A9090FF0A4A
:1043E000A090000BB090010B20E030E0A901C501C6
:1043F000B4010F949236882309F454C0C880D98040
:10440000EA80FB80A7019601C501B4010F949236A2
:1044100018160CF04CC02091F60A3091F70A409122
:10442000F80A5091F90AC701B6010F949236882311
:1044300031F1C092F60AD092F70AE092F80AF092AF
:10444000F90A2091FA0A3091FB0A4091FC0A509136
:10445000FD0A688179818A819B810F94F8369B01DE
:10446000AC0160E070E080E89FE30F94593D6093F9
:1044700002027093030280930402909305026091FC
:104480000202709103028091040290910502DF9173
:10449000CF91FF90EF90DF90CF90BF90AF909F9023
:1044A0008F90089560E070E080E89FE3F0CF60E0D7
:1044B00070E0CB01ECCF682F70E090E080E00C94CE
:1044C00098F20E949E21CB0108950F931F93CF93E2
:1044D00080917F07909180070097E9F0FC018F01A0
:1044E000C1912C2F2F7D81F0C53411F0C536B9F75D
:1044F000F801108270E060E00F942132F801C0836F
:10450000CF911F910F91089570E060E0CF911F91BE
:104510000F910D94213260E070E0CB01F1CF2FEBD1
:10452000280F2A3108F047C0E22FF0E08091450AB9
:104530009091460AA091470AB091480A04C0B695E6
:10454000A795979587952A95D2F780FD02C081702F
:104550000895E95DF54FE081EE2341F18091ED0A88
:104560009091EE0AE80FF92FF11D808190ED980FE0
:104570009A3030F08E3251F4818180538A3098F431
:10458000F0938007E0937F0781E008958D3211F06A
:104590008B3249F4818190ED980F9A3088F38E32F6
:1045A00011F48281EACFF0E0E0E0EACF10928007D8
:1045B00010927F07E9CF80E008950E948F22882320
:1045C00041F081E020917F0730918007232B09F48F
:1045D00080E00895CF92DF92EF92FF926A017B0113
:1045E0000E94DD22882331F0FF90EF90DF90CF9082
:1045F0000C946522C701B601FF90EF90DF90CF9039
:104600000895CF93DF93EB010E94DD22882321F0F0
:10461000DF91CF910C946122CE01DF91CF9108956B
:10462000CF93DF93EB010E94DD22882319F00E94D3
:104630009E21EB01CE01DF91CF910895CF93C62F3C
:104640000E94DD22882319F0CF910C94AE218C2F8B
:10465000CF910895CF93DF93C82FD62F0E94DD22EC
:10466000882321F0DF91CF910C94C2218C2F0E94DE
:104670008F22811101C08D2FDF91CF910895CF92AC
:10468000DF92EF92FF92CF936B017C01C42F809158
:10469000C2088F5F09F4B5C08093C2088091C20838
:1046A0008093710920E030E040E752E460912F02EE
:1046B0007091300280913102909132020F94F8365D
:1046C0000F94CD3E7093D4086093D308C092D50860
:1046D000D092D608E092D708F092D808809170095D
:1046E000C0FB80F9809370098CE0E2E7F8E0A9ED67
:1046F000B8E001900D928A95E1F78CE0E3E9FAE0E9
:10470000A5EEB8E001900D928A95E1F780919E07A1
:104710009091700980FB94F990937009882381F03F
:1047200080919A0790919B07A0919C07B0919D075B
:104730008093F1089093F208A093F308B093F408E3
:1047400080919F149091A0149093F6088093F5089F
:1047500080918814909189149093F8088093F708B9
:104760008091170B8093F908809170099091D10E78
:1047700090FB83F9809370098091FE0A9091FF0A63
:10478000A091000BB091010B8093FA089093FB0865
:10479000A093FC08B093FD080E945CC560936B0970
:1047A00070936C0980936D0990936E0980918F07C7
:1047B00080936F099091720E8091700993FB81F93B
:1047C0009091A00A90FB82F98093700980E00E948A
:1047D0002FAE40E050E0BA0188EC97E10E94518092
:1047E00040EB50E062EC78E088EC97E10E94E580D5
:1047F00088EC97E1CF91FF90EF90DF90CF900C94F1
:10480000128481E049CF4F925F926F927F928F9294
:104810009F92AF92BF92CF92DF92EF92FF921F933F
:10482000CF93DF9300D01F92CDB7DEB719821A82E3
:104830001B821C82CE0101964C0183E7C82E89E0C1
:10484000D82E92EAE92E9FE0F92E22EBA22E2FE03D
:10485000B22E10E088E5810F0E94DD22F4018193E1
:104860004F01882309F4E7C00E9465222B013C0117
:10487000812F0E940C20882309F4D3C0F7012081E6
:10488000318142815381C301B2010F945A3DF60137
:1048900060837183828393831F5FF4E0CF0ED11C0A
:1048A00084E0E80EF11C94E0A90EB11C133091F6DF
:1048B00085E40E94DD228C83882309F4C7C00E940E
:1048C00065226B017C0183E00E940C20882371F03B
:1048D0002091AE0F3091AF0F4091B00F5091B10FBA
:1048E000C701B6010F945A3D6B017C01C0927F094C
:1048F000D0928009E0928109F09282098091870E1E
:10490000882391F18091C31782FF2EC087FD2CC0B0
:104910008C81882349F18981811103C08A81882390
:1049200019F12DEC3CEC4CE45DE36091CB08709107
:10493000CC088091CD089091CE080F945A3D9B01F0
:10494000AC016091AA0F7091AB0F8091AC0F909168
:10495000AD0F0F94BA3F18163CF440E060E070E0F1
:1049600080E090E40E943F2340E050E0BA0186E4FA
:104970000E94EA2220E030E0A9010F94BA3F181605
:1049800084F40E94652220E030E040E752E40F9476
:10499000543E60932F0270933002809331029093C3
:1049A00032028091720E83FD28C080915D088823B9
:1049B00021F12091AE0F3091AF0F4091B00F509187
:1049C000B10F60917F097091800980918109909168
:1049D00082090F94593D20916A0830916B084091EB
:1049E0006C0850916D080F945A3D60936A0870935B
:1049F0006B0880936C0890936D080F900F900F9048
:104A00000F90DF91CF911F91FF90EF90DF90CF90AB
:104A1000BF90AF909F908F907F906F905F904F90DE
:104A20000895F5012081318142815381C301B20192
:104A30000F94593D2CCFF70180819181A281B381E0
:104A4000F60180839183A283B38326CF8091AE0F3A
:104A50009091AF0FA091B00FB091B10F80937F09EB
:104A600090938009A0938109B093820947CFE2EC2B
:104A7000F8E080EBDF011D928A95E9F708958091B7
:104A8000870E811104C00E9437250C94BBAE809123
:104A9000C31782FF09C087FD07C040E060E070E0F7
:104AA00080E090E40C943F2308958091C20888230D
:104AB00061F090917109891308C08091C31784FF38
:104AC00004C08EEF98E00C94C28780E00895FC014A
:104AD000238121110C9412840895CF93DF93C09108
:104AE0009F14D091A014209729F160919B1470918C
:104AF0009C1480919D1490919E140F94C63E6E5FFD
:104B00007F4F24976C177D07ACF47093E007609398
:104B1000DF070E947178605A75418F4F9F4F6093F5
:104B2000E1077093E2078093E3079093E407DF9136
:104B3000CF9108951092E1071092E2071092E307D7
:104B40001092E407F4CFCF92DF92EF92FF921F937F
:104B5000CF93DF93182F662351F010927D071092A8
:104B6000790710927A0710927B0710927C070E94B7
:104B700071786B017C018091790790917A07A091FF
:104B80007B07B0917C07A7019601281B390B4A0BC4
:104B90005B0BDA01C901B7FD3DC020917D0717FD10
:104BA00013C0412F012E000C550B4C5F5F4F822F1D
:104BB000022E000C990B4817590764F184EF91E01D
:104BC000A0E0B0E0211724F488EE93E0A0E0B0E08C
:104BD0008C0D9D1DAE1DBF1D8093790790937A07A4
:104BE000A0937B07B0937C072170C22F30E0D32FB6
:104BF00084E28C9FB0018D9F700D7C1B1124605945
:104C00007C4F82E390E00E9479C980917D078F5F9D
:104C100080937D07DF91CF911F91FF90EF90DF9000
:104C2000CF900895CF93DF93C0918814D0918914C9
:104C3000209729F1609184147091851480918614D5
:104C4000909187140F94C63E6E5F7F4F24976C1728
:104C50007D07ACF47093D8076093D7070E947178F2
:104C6000605E70448D4F9F4F6093D9077093DA0751
:104C70008093DB079093DC07DF91CF91089510922A
:104C8000D9071092DA071092DB071092DC07F4CFF5
:104C9000CF93C1E020E030E0A9016091B10A7091AA
:104CA000B20A8091B30A9091B40A0F94923681119E
:104CB00001C0C0E08C2FCF910895CF93C82F8823D7
:104CC00021F00E9448268823D9F08091D10E8C17BC
:104CD000B9F00E94C3B48091D10E882349F082EAD2
:104CE0009FE00E94E6B41092D10ECF910C94F7BFD2
:104CF00081E08093D10E82EA9FE00E94EFB3F5CF6E
:104D0000CF9108954F925F926F927F928F929F9270
:104D1000AF92BF92CF92DF92EF92FF920F931F93C9
:104D2000CF93DF93EC012091A90A3091AA0A409118
:104D3000AB0A5091AC0A688179818A819B810F947A
:104D4000593D6B017C012091AD0A3091AE0A409132
:104D5000AF0A5091B00A6C817D818E819F810F9442
:104D6000593D4B015C01A70196016091710770915B
:104D7000720780917307909174070F94923688237D
:104D800009F450C0C0927107D0927207E092730785
:104D9000F09274072091690730916A0740916B0780
:104DA00050916C07C701B6010F94F8362B013C01F6
:104DB0000F94FC3E6B017C0120E030E0A9010F94D0
:104DC000923687FD70C020E030E040E450E4C70137
:104DD000B6010F94BA3F18162CF4C12CD12CC0E4A4
:104DE000EC2EFE2CA7019601C301B2010F94593D90
:104DF00060936107709362078093630790936407E1
:104E0000C701B6010F94C63E60935F07062E000CE3
:104E1000770B6F5F7F4F6430710514F064E070E0D2
:104E200060935D07D0915B0710915F07A501940126
:104E30006091750770917607809177079091780758
:104E40000F949236811133C0D11381C02091430752
:104E500030914407409145075091460760916107A2
:104E60007091620780916307909164070F94F83600
:104E700020914707309148074091490750914A07D0
:104E80000F945A3DDF91CF911F910F91FF90EF90BA
:104E9000DF90CF90BF90AF909F908F907F906F905A
:104EA0005F904F900895C12CD12C76019BCF8092BA
:104EB000750790927607A0927707B09278072091B5
:104EC0006D0730916E0740916F0750917007C501D3
:104ED000B4010F94F8364B015C010F94FC3E6B015A
:104EE0007C0120E030E0A9010F94923687FDF3C0E9
:104EF00020E030E040E450E4C701B6010F94BA3F2F
:104F000018162CF4C12CD12CB0E4EB2EFE2CA701EA
:104F10009601C501B4010F94593D609365077093E4
:104F200066078093670790936807C701B6010F94DF
:104F3000C63E60936007062E000C770B6F5F7F4FB5
:104F40006430710514F064E070E060935E07C09116
:104F50006007D11305C080915C078C1709F470C0FD
:104F600080915F079091600790935C0780935B0747
:104F70000C2E000CDD0B25E01203C0011124FC01F6
:104F8000EC0FFD1FEE0FFF1FEE0FFF1FE85EF04F4F
:104F900020813181428153812093570730935807F4
:104FA0004093590750935A0700915E07002E000C5A
:104FB000110BFC01E00FF11FEE0FFF1FEE0FFF1FA3
:104FC000E85EF04F60817181828193810F94593D39
:104FD0006093530770935407809355079093560737
:104FE00020915D0735E02303F0011124CE0FDF1F70
:104FF000CC0FDD1FCC0FDD1FC85ED04F288139815B
:105000004A815B8120934F073093500740935107AB
:1050100050935207E00FF11FEE0FFF1FEE0FFF1F1F
:10502000E85EF04F60817181828193810F94593DD8
:1050300060934B0770934C0780934D0790934E07F6
:105040008090650790906607A0906707B09068070A
:1050500020915307309154074091550750915607BE
:10506000C501B4010F94F8362091570730915807C5
:105070004091590750915A070F945A3D6B017C019A
:10508000C0924707D0924807E0924907F0924A073A
:1050900020914B0730914C0740914D0750914E079E
:1050A000C501B4010F94F83620914F073091500795
:1050B00040915107509152070F945A3DA701960114
:1050C0000F94593D609343077093440780934507BD
:1050D00090934607BBCEC12CD12C760118CFE1E7C7
:1050E000F7E080EF9FEFA9E7B4EC84839583A68374
:1050F000B78380839183A283B383EBE5F7E08DE9E7
:105100008183808308958F929F92AF92BF92CF92B6
:10511000DF92EF92FF92FC0198E0A1EBBAE00190E0
:105120000D929A95E1F788E0FB01A9EABAE00190B7
:105130000D928A95E1F7C090B10AD090B20AE09042
:10514000B30AF090B40A20E030E0A901C701B6012B
:105150000F9492368823E1F1A701960160E070E098
:1051600080E89FE30F94543E6B017C018090B50A68
:105170009090B60AA090B70AB090B80A20E030E04C
:10518000A901C501B4010F949236882329F1A50124
:10519000940160E070E080E89FE30F94543EC09279
:1051A0006907D0926A07E0926B07F0926C076093F0
:1051B0006D0770936E0780936F0790937007FF9051
:1051C000EF90DF90CF90BF90AF909F908F90089519
:1051D000C12CD12C7601CACF60E070E0CB01DFCFCB
:1051E0008F929F92AF92BF92EF92FF920F931F9375
:1051F000CF93DF931092AD0A1092AE0A1092AF0ACD
:105200001092B00A1092A90A1092AA0A1092AB0A40
:105210001092AC0A1092B50A1092B60A1092B70A10
:105220001092B80A1092B10A1092B20A1092B30A00
:105230001092B40A08E11FE0C0E0812C912C80ECB0
:10524000A82E8FE7B82E7801D0E0F70181929192D5
:10525000A192B1927F016D2F8C2F0F94190BDF5FFC
:10526000D53099F7CF5F0C5E1F4FC53061F7DF91E6
:10527000CF911F910F91FF90EF90BF90AF909F90B3
:105280008F900895EFE6F0E080818260808308953A
:105290008091C2149091C314892B79F48091C21427
:1052A0009091C314892B49F42091C2143091C314F6
:1052B00081E0232B19F480E0089581E00895CF92D6
:1052C000DF92EF92FF926B017C0183E3C816D10459
:1052D000E104F10470F082E3C81AD108E108F10892
:1052E00062E370E080E090E00E943E780E94298FA7
:1052F000ECCFC701B6010E943E78FF90EF90DF909F
:10530000CF900C94298F1092D20E8091AF0790917C
:10531000B007A091B107B091B2078093AB0790930B
:10532000AC07A093AD07B093AE0708959091C51454
:105330001092C5149230B9F09430C1F09130E1F47C
:10534000882319F0813021F008959093D40E0895A8
:1053500082E08093D40E8091D20E882369F010925F
:10536000D30E0C9483291092D50E089584EF93E305
:105370009093170F8093160F08956C98749A0C945D
:1053800083299091C31794FB882780F994FF06C066
:1053900081E090912A19911101C080E008950E9446
:1053A000C129882339F08091C31782FB882780F9AF
:1053B00091E08927089580917209811106C080913A
:1053C000C414823011F00C94CF2981E008950C941C
:1053D00050C881E00C9402D081E00895DC01EC918A
:1053E0008E2F90E0FC01EE0FFF1FE80FF91FEA5728
:1053F000FA4E80818F7780830895CF93DF93EC01FD
:10540000E62F660FFF0BE45EF34DE491E250E131CD
:1054100008F0B0C0F0E08827EF5EF54D8F4F0D9497
:10542000513D222ABA2ABA2ABA2ABA2A4C2A2E2A44
:10543000702A6E2A4E2A942A922A722ABA2AB82AE6
:10544000B62A962A82E1E1E6F2E0DE0101900D92B1
:105450008A95E1F7CE01DF91CF91089581E020EBAD
:1054600030E03983288321EB30E03B832A831D829F
:105470001C8223EB30E03F832E8324EB30E039871E
:1054800028871B861A861D861C8692E09E878F873A
:1054900081E0888B198ADECF80E0E1CF81E08F5FE9
:1054A00020E930E03983288321E930E03B832A83F7
:1054B00022E930E03D832C8328E930E03F832E83CE
:1054C0002AE930E0398728872CE930E03B872A87B2
:1054D00026E930E03D872C8793E0D8CF80E0DFCF0E
:1054E00080E0DECF81E08F5F20EA30E039832883DF
:1054F00021EA30E03B832A8322EA30E03D832C839B
:1055000028EA30E03F832E832AEA30E03987288773
:105510002CEA30E03B872A8726EA30E03D872C875B
:1055200094E0B4CF80E0DFCF80E0DECF81E08F5F1A
:1055300020E231E03983288321E231E03B832A8372
:1055400022E231E03D832C8328E231E03F832E8349
:105550002AE231E0398728872CE231E03B872A872D
:1055600026E231E03D872C8795E090CF80E0DFCFC9
:1055700080E0DECF82E1FE0111928A95E9F76ACFE1
:105580008F929F92AF92BF92CF92DF92EF92FF9253
:105590000F93CF93DF931F92CDB7DEB75C017B01F2
:1055A00049016B01C40ED51EF501808191810F94D4
:1055B000B03C8983002311F0F7018083BE016F5F47
:1055C0007F4FC4010E94BAF1F5018081918101965B
:1055D00091838083FFEFEF1AFF0AEC14FD0421F79B
:1055E00080E00F90DF91CF910F91FF90EF90DF90CF
:1055F000CF90BF90AF909F908F900895009781F4C7
:105600001092900082E08093910010929500109289
:105610009400C19A80917100826080937100089516
:10562000019761F41092A00082E08093A100109293
:10563000A5001092A40089BB8093720008957F9208
:105640008F929F92AF92BF92CF92DF92EF92FF9292
:105650000F931F93CF93DF93EC017B0188818831F7
:1056600008F0C4C090E0FC01EE0FFF1FE80FF91F27
:10567000EA57FA4E808161E08F770E94E5771982C0
:105680001A8288812CE0622F0F94313D829FB001F5
:10569000112430E020E0AB01420F531FFA01EE0F5E
:1056A000FF1FE40FF51FEA57FA4E908197FD08C0DF
:1056B0002F5F3F4F2C30310571F790E00E94FE2A9A
:1056C0007880072D10E06801CC0CDD1CF601E00F9E
:1056D000F11FEA57FA4E80818068808377FC86C08C
:1056E00080E2E81682E0F8060CF03FC08A8128E5E7
:1056F00032E0281B310987FD3395220F331F220F1B
:10570000331F032E000C440B550B898178E8872E3C
:10571000912C881A910887FD9394880C991C880C09
:10572000991C092C000CAA08BB0860E070E0CB01B2
:10573000F7FC0AC0B701653B710514F064EB70E03B
:10574000072E000C880B990B281939094A095B09A7
:105750000F94C63C24EB30E040E050E00F94F83C5E
:10576000820E931EA41EB51E740187E18715D8F022
:10577000298188E890E0821B910927FD9395880F85
:10578000991F880F991FE816F90604F502972FB79D
:10579000F894E601C00FD11FCA57DA4E880F991F3F
:1057A0009A8389832FBF62E370E080E090E0DF910D
:1057B000CF911F910F91FF90EF90DF90CF90BF900E
:1057C000AF909F908F907F900C945F292A8188E5FD
:1057D00092E0821B910927FD9395880F991F880FEE
:1057E000991FE816F90694F6C701D0CFDF91CF9143
:1057F0001F910F91FF90EF90DF90CF90BF90AF90EF
:105800009F908F907F900895CF93DF93EB01682F47
:1058100070E08FEC95E10E941F2B688179818A816D
:105820009B81643F21E072078105910520F464EFBC
:1058300071E080E090E00E945F2989B183FB8827B6
:1058400080F9DF91CF910895CF93DF9300D01F921D
:10585000CDB7DEB78EEE92E0A0E0B0E089839A8308
:10586000AB83BC83BE016F5F7F4F8AE50E94042C2F
:105870000F900F900F900F90DF91CF910895CF93DD
:10588000DF9300D01F92CDB7DEB78EEE92E0A0E09E
:10589000B0E089839A83AB83BC83BE016F5F7F4F87
:1058A0008AE00E94042C0F900F900F900F90DF91D0
:1058B000CF910895CF93DF9300D01F92CDB7DEB77D
:1058C00084EF91E0A0E0B0E089839A83AB83BC834E
:1058D000BE016F5F7F4F80EA0E94042C0F900F90F3
:1058E0000F900F90DF91CF9108951F920F920FB6F6
:1058F0000F9211240BB60F922F933F934F935F9308
:105900006F937F938F939F93AF93BF93EF93FF9387
:1059100048EA50E064EA70E081E090E00E94D42020
:10592000FF91EF91BF91AF919F918F917F916F9177
:105930005F914F913F912F910F900BBE0F900FBE33
:105940000F901F9018951F920F920FB60F9211246F
:105950000BB60F922F933F934F935F936F937F9369
:105960008F939F93AF93BF93EF93FF9348E950E0DA
:1059700064E970E090E080E00E94D420FF91EF9114
:10598000BF91AF919F918F917F916F915F914F9157
:105990003F912F910F900BBE0F900FBE0F901F9055
:1059A00018959091D10095FD0CC09091D00095FF75
:1059B00008C08093D6008091D00080648093D0008E
:1059C000089520919C062F5F2F770FB607FC27C004
:1059D00090919D06921328C09091D00095FF1EC013
:1059E00090919D0640919C06941306C09091D10021
:1059F0009F7D9093D10012C0E92FF0E0E456F94F5B
:105A000032819F5F9F773093D60090939D063091AF
:105A1000D00030643093D000491741F3D9CF909132
:105A20009D06921301C0FBCFE0919C06F0E0E45686
:105A3000F94F828320939C068091D10080628093ED
:105A4000D100089580914C0A90914D0A2FEF3FEFBD
:105A5000981751F0E92FF0E0E45BF54F228130E038
:105A60009F5F9F7390934D0AC90108951F920F92F3
:105A70000FB60F9211240BB60F922F938F939F9313
:105A8000EF93FF9380919D0620919C06821306C0A0
:105A90008091D1008F7D8093D10012C0E82FF0E07B
:105AA000E456F94F92818F5F8F779093D600809361
:105AB0009D069091D00090649093D000281741F3F8
:105AC000FF91EF919F918F912F910F900BBE0F90AF
:105AD0000FBE0F901F9018951F920F920FB60F9246
