:100000000C946B1D0C94AB1D0C94AB1D0C94AB1D90
:100010000C94AB1D0C94AB1D0C94AB1D0C94AB1D40
:100020000C94AB1D0C94AB1D0C94AB1D0C94AB1D30
:100030000C94AB1D0C94AB1D0C94AB1D0C94AB1D20
:100040000C94AB1D0C9419AE0C94AB1D0C94AB1D11
:100050000C94AB1D0C94ACA30C94AB1D0C946D9044
:100060000C94AB1D0C9438670C9402670C94AB1D78
:100070000C94AB1D0C94AB1D0C94AB1D0C94AB1DE0
:100080000C94E7320C94AB1D0C94AB1D0C94AB1D7F
:100090000C94AB1D0C94AB1D0C94AB1D0C94AB1DC0
:1000A0000C94AB1D0C94AB1D0C94B9320C94AB1D8D
:1000B0000C94AB1D0C94AB1D0C94AB1D0C94AB1DA0
:1000C0000C94AB1D0C94AB1D0C94AB1D0C94B03375
:1000D0000C947A330C94AB1D0C94AB1D0C94AB1D9B
:1000E0000C94AB1D084AD73B3BCE016E84BCBFFDD0
:1000F000C12F3D6C74319ABD56833DDA3D00C77FF8
:1001000011BED9E4BB4C3E916BAAAABE0000008090
:100110003F05A84CCDB2D44EB93836A9020C50B91F
:10012000918688083CA6AAAA2ABE000000803F004B
:100130000C94CB8D0D9470160C94C3670D947A209B
:100140000C94AFBB0D9465160D94C3010C94DA6743
:100150000D9437480C945A340D9453480D94730BF6
:100160000D946D0B0C9432300D9425480D946A4B10
:100170000D9481010C949DBC0D946B200D94742002
:100180000D9477200C94A2BC0D949B160D947A16B6
:100190000D94EB110D946F480C94E9670D94572062
:1001A0000C942C340D9492160D947B480D941148A8
:1001B0000C943B340C947EBC0D9472480C94CA672A
:1001C0000D94EA0B0D944D4B0D941D4B0C94563031
:1001D0000C94BABC0C94B4670C944A340D94334715
:1001E0000D948E160D9427450D94854B0D946D1628
:1001F0000D94280B0D94A0160C94D6670C948ABC11
:100200000C9436300C941D340D946A0B0D9411032C
:100210000C947C300C94A88E0C945A300C9452346C
:100220000C9410300D945B0B0D9466450D947D027B
:100230000D9440480D9488160D9457480D947548B8
:100240000D94764B0D945E4B0C9474340C94CE67E5
:100250000C94AE8D0D947D590C94EE330C94DE67A6
:100260000D94790B0C9412300D94E60B0C946C34B5
:100270000C947E300D94610B0D945F200D948016CC
:100280000D94BD470C94808F0D9459480D942E48C1
:100290000D9471200D9478480D945E0B0C94FC67BE
:1002A0000C9456340C944E340C9458300C94538F58
:1002B0000D94760B0D9462200C9446340D9400122C
:1002C0000D94A2020D940D020C94418F0D945F5970
:1002D0000C94BFBB0C94E62F0D9464480D94640BF2
:1002E0000C9476670D945B160C9461340D9456470C
:1002F0000D94E8010D9469160D94EC020D94700BA9
:100300000D9496160D949C160C94648E0C94BA89D8
:100310000D947F470D94294B0C94F22F0D94CF47E9
:100320000C94F4670C9438890D9465200D94580250
:100330000D94C2110D9461160C94A5670C94343081
:100340000D94670B0D94C7020C9442340D948416DF
:100350000C94D2670D945C200C947A300C94C38E6C
:100360000D94C5460D9449480D946E200D94B90B1B
:100370000C94B5BC0C944A900D9476160D941746C7
:100380000C94438E0D9468200D941C480D949B464C
:100390000D949E470D9432120C94BB890C94E26725
:1003A0004E414E494E495459494E46CDCCCC3D0A5A
:1003B000D7233C17B7D13877CC2B329595E6241F3D
:1003C000B14F0A000020410000C84200401C4620F6
:1003D000BCBE4CCA1B0E5AAEC59D7400407A10F3C9
:1003E0005A00A0724E18090010A5D4E80000E87663
:1003F00048170000E40B54020000CA9A3B000000BA
:10040000E1F505000080969800000040420F0000D2
:1004100000A08601000000102700000000E8030093
:100420000000006400000000000A0000000000015D
:1004300000000000002C76D888DC674F0823DFC15D
:10044000DFAE59E1B1B796E5E3E453C63AE6519918
:100450007696E8E6C28426EB898C9B62ED407C6F41
:10046000FCEFBC9C9F40F2BAA56FA5F490055A2AF8
:10047000F75C936B6CF9676DC11BFCE0E40D47FE04
:10048000F520E6B500D0ED902E03009435770500F9
:1004900080841E080000204E0A000000C80C333380
:1004A00033330F986E12831141EF8D2114893BE68F
:1004B0005516CFFEE6DB18D1844B381BF77C1D9018
:1004C0001DA4BBE424203284725E228100C9F12481
:1004D000ECA1E53D27434F4D4D554E49434154490D
:1004E0004F4E0044525952554E004552524F5253AE
:1004F00000494E464F004543484F004572726F72A7
:100500002077726974696E6720746F204545505278
:100510004F4D210A0053544F505045442E20005057
:1005200072696E7465722073746F70706564206494
:10053000756520746F206572726F72732E20466924
:100540007820746865206572726F7220616E642015
:10055000757365204D39393920746F207265737455
:100560006172742E202854656D70657261747572A5
:10057000652069732072657365742E20536574203D
:100580006974206166746572207265737461727437
:10059000696E67290A004E6F20436865636B737547
:1005A0006D2077697468206C696E65206E756D6268
:1005B00065722C204C617374204C696E653A200082
:1005C0004E6F20436865636B73756D20776974683F
:1005D000206C696E65206E756D6265722C204C61B1
:1005E0007374204C696E653A2000636865636B73B1
:1005F000756D206D69736D617463682C204C617337
:1006000074204C696E653A20004C696E65204E7509
:100610006D626572206973206E6F74204C61737413
:10062000204C696E65204E756D6265722B312C20F1
:100630004C617374204C696E653A20004D31313045
:100640000053657269616C20737461747573206DF9
:1006500069736D617463680A005344207265616454
:10066000206572726F720A00746F6F206D75636817
:1006700020696E6163746976652074696D65202DEB
:100680002063757272656E7420636F6D6D616E6448
:100690003A20002121204B494C4C20636175736541
:1006A000642062792000486F74656E642049646C30
:1006B000652054696D656F757400486F74656E646C
:1006C0002049646C652054696D656F75740A00700B
:1006D00061757365003D3D6F6E46696C616D656E59
:1006E0007452756E6F75743D3D004D36303000208C
:1006F00066696C616D656E745F72756E6F7574207E
:100700000066696C616D656E745F72756E6F75748D
:1007100020540046696C616D656E7452756E6F751C
:1007200074205400506F776572204F75746167654F
:10073000004D313030305300627573793A2070616A
:100740007573656420666F7220696E7075740A0037
:10075000627573793A2070617573656420666F7293
:1007600020757365720A00627573793A2070726F32
:1007700063657373696E670A0025533A2025530039
:100780002A2A2A6B696C6C2A2A2A00706F77657294
:100790006F6666004B494C4C45442E2000507269F0
:1007A0006E7465722068616C7465642E206B696C70
:1007B0006C28292063616C6C6564210A006563689C
:1007C0006F3A004572726F723A0042696C696E65E9
:1007D0006172204C6576656C696E6720477269644A
:1007E0003A0A002F2F616374696F6E3A006E6F745E
:1007F000696669636174696F6E200070726F6D70F5
:10080000745F00656E6400486F74656E6420746F79
:100810006F20636F6C640A0053656E64204D313045
:100820003820746F20726573756D650A00496E73A8
:100830006572742066696C616D656E7420616E64AA
:100840002073656E64204D3130380A007061757315
:10085000656400506175736500506F7765724F660F
:10086000660A0057616974696E6720666F72206856
:1008700065617475702E0A004C656176696E67203B
:10088000473236003F537065636966696564205876
:100890002C5920636F6F7264696E617465206F7587
:1008A00074206F6620626F756E64732E0A003F2895
:1008B000522965706561742076616C7565206E6F74
:1008C0007420706C61757369626C653B206D757323
:1008D00074206265206174206C6561737420312E10
:1008E0000A003F2852296570656174206D75737424
:1008F0002062652073706563696669656420776846
:10090000656E206E6F74207573696E6720616E204E
:100910004C43442E0A003F53706563696669656401
:10092000206E6F7A7A6C652074656D706572617483
:10093000757265206E6F7420706C61757369626C7E
:10094000652E0A003F5370656369666965642066B9
:10095000696C616D656E742073697A65206E6F7461
:1009600020706C61757369626C652E0A003F53706C
:1009700065636966696564207072696D65206C6580
:100980006E677468206E6F7420706C617573696235
:100990006C652E0A003F5072696D65206C656E674C
:1009A0007468206D75737420626520737065636967
:1009B00066696564207768656E206E6F7420757354
:1009C000696E6720616E204C43442E0A003F5370CD
:1009D00065636966696564206E6F7A7A6C652073F9
:1009E000697A65206E6F7420706C61757369626CD2
:1009F000652E0A003F52657472616374696F6E20E0
:100A00004D756C7469706C696572206D75737420B6
:100A10006265207370656369666965642E0A003FCC
:100A200053706563696669656420526574726163B9
:100A300074696F6E204D756C7469706C6965722095
:100A40006E6F7420706C61757369626C652E0A003C
:100A50003F537065636966696564206C617965728E
:100A600020686569676874206E6F7420706C6175AA
:100A70007369626C652E0A0043292E0A003F537089
:100A800065636966696564206265642074656D707C
:100A900065726174757265206E6F7420706C61751B
:100AA0007369626C65202834302D0047323620731C
:100AB00074617274696E672E2E2E0A004F46460AC4
:100AC0000046616465204865696768742000426576
:100AD00064204C6576656C696E6720004661696CC0
:100AE000656420746F20656E61626C652042656488
:100AF000204C6576656C696E670A00496E76616C9C
:100B00006964206D6573682E0A0050726F62696EA9
:100B10006720506F696E740025532025692F256961
:100B2000002E0A002F0050726F62696E67206D659B
:100B3000736820706F696E742000202844525952E7
:100B4000554E2900473239204175746F2042656443
:100B5000204C6576656C696E67003F20284C2C52EE
:100B60002C462C4229206F7574206F6620626F75A9
:100B70006E64732E0A003F2856296572626F736592
:100B8000206C6576656C20696D706C617573696247
:100B90006C652028302D34292E0A00426164205AC9
:100BA0002076616C75650A004E6F2062696C696E13
:100BB00065617220677269640A005A2050726F6220
:100BC000652050617374204265640A005A20507297
:100BD0006F626520506173742042656400416363F5
:100BE00075726163792044656372656173696E67CC
:100BF000210044656372656173696E6720416363B8
:100C000075726163792044657465637465642E0A46
:100C1000004732385A0041636375726163793A2044
:100C200000206F662000446964200047333420614F
:100C3000626F727465642E0A00416363757261634A
:100C400079204163686965766564005461726765FF
:100C5000742061636375726163792061636869659B
:100C60007665642E0A00313A323D2573000A5A3205
:100C70002D5A313D0050726F62696E67204661697E
:100C80006C65640050726F62696E67206661696CA2
:100C900065640A0047333420497465726174696F72
:100CA0006E3A202569000A47333420497465726121
:100CB00074696F6E3A20003F2841296D706C696637
:100CC00069636174696F6E206F7574206F6620624E
:100CD0006F756E64732028302E352D322E30292EFC
:100CE0000A003F2854296172676574206163637547
:100CF00072616379206F7574206F6620626F756E04
:100D000064732028302E30312D312E30292E0A00E8
:100D10003F2849297465726174696F6E206F75741C
:100D2000206F6620626F756E64732028312D33301A
:100D3000292E0A0020204D3432322053005A2041FF
:100D400075746F2D416C69676E00331A301A6C1A16
:100D5000B60F20204261636B6C6173682044697335
:100D600074616E636520286D6D293A202020202053
:100D700020202000202846312E30203D2066756C32
:100D80006C2C2046302E30203D206E6F6E65290A77
:100D9000002020436F7272656374696F6E20416D2D
:100DA0006F756E742F466164652D6F75743A2020DF
:100DB00020202046006163746976653A0A00696EF6
:100DC000004261636B6C61736820436F727265638C
:100DD00074696F6E200020440020204D3230302096
:100DE000540020204D3230302053002028446973B5
:100DF00061626C6564293A0046696C616D656E7468
:100E00002073657474696E67730020204D32303131
:100E100020540020204D3230312058004D61782080
:100E2000416363656C65726174696F6E2028756ECD
:100E30006974732F7332290020204D3230332054CF
:100E40000020204D3230332058004D6178206665F7
:100E5000656472617465732028756E6974732F738D
:100E6000290020520020204D3230342050004163B0
:100E700063656C65726174696F6E2028756E697444
:100E8000732F7332292028503C7072696E742D6163
:100E90006363656C3E20523C726574726163742DAD
:100EA000616363656C3E20543C74726176656C2DA1
:100EB000616363656C3E29002054002053002020AC
:100EC0004D323035204200416476616E63656420A6
:100ED00028423C6D696E5F7365676D656E745F7403
:100EE000696D655F75733E20533C6D696E5F666525
:100EF0006564726174653E20543C6D696E5F747206
:100F00006176656C5F66656564726174653E2058E4
:100F10003C6D61785F6A65726B3E20593C6D61780B
:100F20005F6A65726B3E205A3C6D61785F6A6572DC
:100F30006B3E20453C6D61785F6A65726B3E2900AF
:100F4000204C002041002044002046002055002075
:100F5000520020470020530020204D3231370054EA
:100F60006F6F6C2D6368616E67696E670020204D3E
:100F7000323138205400486F74656E64206F6666A5
:100F8000736574730020440020490020204D3330E5
:100F900031204500486F74656E642050494400203C
:100FA000440020490020204D333034205000426559
:100FB00064205049440020450020204D39322054FF
:100FC0000020204D39322058005374657073207012
:100FD000657220756E6974004E6F204D6F76652EB8
:100FE000003A200020536572766F2000206F7574E0
:100FF000206F662072616E67650A00536572766FB6
:10100000200073706563696679696E672044584390
:101010005F4D4952524F5245445F4D4F44452E0A51
:10102000005072696E746572206D7573742062650C
:1010300020696E204458435F4455504C4943415405
:10104000494F4E5F4D4F4445207072696F72207456
:101050006F200A002E0A002028302D313029002070
:1010600076616C7565206F7574206F662072616E95
:10107000676500416476616E6365204B00473238D6
:1010800000203B00205500204C0020204D363033FE
:1010900020540046696C616D656E74206C6F6164EC
:1010A0002F756E6C6F6164004D323453256C64543F
:1010B000256C64004739322E394525730047314687
:1010C00025640047315A2573463630300047315881
:1010D0002573592573463330303000473132004D87
:1010E0003130365025695325690054256920530055
:1010F0004D3130395325690054256953004D323044
:10110000305425694430004D32303054256944252F
:1011100073004739322E395A2573004D343230531B
:1011200025635A25730047323852305859004731E9
:101130005A257346363030004739322E395A2573D6
:10114000004739322E394530004D31303953256949
:101150000054256953004D313930532569004D3411
:101160003230205330205A30003D3D4F6E506F7763
:1011700065724C6F7373526573756D653D3D0020EC
:101180003B200020204D343133205300506F7765D1
:10119000722D6C6F7373207265636F766572790060
:1011A0004F4646004F4E00203B20486F7374206826
:1011B000616E646C696E672000203B204D6F646532
:1011C00020006D6D00203B2044697374616E63657F
:1011D000200046696C616D656E742072756E6F7566
:1011E0007420003B200020496E76616C69642065A4
:1011F00078747275646572200047322F473320621D
:10120000616420706172616D65746572730A005368
:101210006C6565702E2E2E004732384C3000205AF7
:101220003A200020593A200042656420583A2000B4
:101230004D65736820706F696E74206F7574206FD0
:10124000662072616E67650A004D302053746F70BE
:10125000004D312053746F7000436C69636B2074D0
:101260006F20526573756D652E2E2E00456E6420BD
:1012700066696C65206C6973740A00426567696E03
:101280002066696C65206C6973740A004E6F206D6E
:10129000656469610A00286E6F2066696C652900C3
:1012A00043757272656E742066696C653A200043FE
:1012B000616E6E6F74206F70656E20737562646905
:1012C0007220005072696E742074696D653A200056
:1012D0006F6B006F666600F604F104EA04E304D560
:1012E0000444454255473A004D31313320530050B4
:1012F000533A300A0050533A310A0044656C617920
:10130000656420706F7765726F66660A0054656E5B
:101310006C6F67204433204F46462E00434F4E46A5
:1013200049475F4558504F5254004D454154504134
:10133000434B00434F4F4C45525F54454D5045522F
:101340004154555245004348414D4245525F544532
:101350004D50455241545552450042414259535413
:10136000455050494E470041524353004D4F544958
:101370004F4E5F4D4F44455300544845524D414CEC
:101380005F50524F54454354494F4E0045585445C1
:101390004E4445445F4D323000435553544F4D5FEA
:1013A0004649524D574152455F55504C4F414400BC
:1013B0004C464E5F5752495445004C4F4E475F468E
:1013C000494C454E414D45004155544F5245504FB3
:1013D00052545F53445F5354415455530053445F38
:1013E000575249544500524550454154004D554CC3
:1013F00054495F564F4C554D450053444341524468
:101400000050524F4D50545F535550504F5254005E
:10141000484F53545F414354494F4E5F434F4D4DE6
:10142000414E445300454D455247454E43595F5048
:10143000415253455200434153455F4C494748543C
:101440005F4252494748544E45535300544F474713
:101450004C455F4C494748545300534F46545741FD
:1014600052455F504F574552004255494C445F50DA
:10147000455243454E54004C4556454C494E475FF6
:1014800044415441005A5F50524F42450052554E1C
:101490004F5554004155544F4C4556454C00505201
:1014A000494E545F4A4F420050524F4752455353A2
:1014B000004155544F5245504F52545F54454D5082
:1014C000004155544F5245504F52545F504F5300B6
:1014D000564F4C554D455452494300454550524F87
:1014E0004D0042494E4152595F46494C455F545266
:1014F000414E534645520053455249414C5F584F67
:101500004E5F584F4646004649524D574152455F3F
:101510004E414D453A4D61726C696E206275676649
:1015200069782D322E312E7820285365702031377E
:1015300020323032322031333A31363A32342920B7
:10154000534F555243455F434F44455F55524C3AC4
:101550006769746875622E636F6D2F4D61726C6977
:101560006E4669726D776172652F4D61726C696E3E
:101570002050524F544F434F4C5F56455253494FA2
:101580004E3A312E30204D414348494E455F545923
:1015900050453A54656E6C6F67204433204558546B
:1015A00052554445525F434F554E543A322055559B
:1015B00049443A63656465326132662D3431613283
:1015C0002D343734382D396231322D633535633659
:1015D000326633363766660A002F2F005741524E67
:1015E000494E4721204C6F77205A204A65726B2064
:1015F0006D6179206C65616420746F20756E776110
:101600006E746564207061757365732E0A00202006
:101610004D61783A2000200020204D696E3A20006C
:10162000203B200020204D323131205300536F6683
:101630007420656E6473746F70730046523A0020B4
:10164000466C6F773A20004F6666736574205A00C7
:10165000486F74656E64200050726F6265204F663B
:1016600066736574205A0050726F6265204F66661B
:101670007365745A3A200050726F6265204F666637
:10168000736574205A00496E76616C6964206578D0
:101690007472756465720A0064697300656E004354
:1016A000290A0061626C656420286D696E2074658A
:1016B0006D702000436F6C6420657874727564658A
:1016C00073206172652000424C546F756368204836
:1016D00053206D6F646520004D34323120696E6394
:1016E0006F727265637420706172616D657465728A
:1016F0002075736167650A004D65736820706F69B6
:101700006E74206F7574206F662072616E67650A53
:10171000004F666673657473204170706C69656410
:10172000004572723A20546F6F2066617221005436
:101730006F6F206661722066726F6D2072656665DC
:1017400072656E636520706F696E740A004545505E
:10175000524F4D204F4B0A00290A0020746F200081
:101760003F5A206F7574206F662072616E67652026
:101770002800290A0020746F20003F59206F7574DB
:10178000206F662072616E676520282D00290A008F
:1017900020746F20003F58206F7574206F66207290
:1017A000616E676520282D003F285929206F7574C8
:1017B000206F6620626F756E64732E0A003F285892
:1017C00029206F7574206F6620626F756E64732EAA
:1017D0000A0020696E64657820696E76616C6964C0
:1017E0002028312E2E32292E0A003F28532920503E
:1017F000726F62652D706F736974696F6E003F2838
:1018000053292069732072657175697265642E0AA7
:10181000004D383400446F6E65207072696E7469D3
:101820006E672066696C650A004D3737004D3331AD
:101830000020204D323036205800486F6D65206FF3
:101840006666736574004361703A00203B00202097
:101850004D3835312058005A2D50726F6265204F37
:10186000666673657400526573756D696E672053A3
:1018700044002569730025696D2025697300256979
:10188000682025696D202569730025696420256914
:10189000682025696D2025697300256979202569EF
:1018A00064202569682025696D20256973000A5325
:1018B000746174733A2046696C616D656E7420754D
:1018C0007365643A20002C204C6F6E67657374203A
:1018D0006A6F623A2000546F74616C2074696D65A0
:1018E0003A200053746174733A20002C20466169D9
:1018F0006C65643A20002C2046696E6973686564E3
:101900003A20005072696E74733A20005374617407
:10191000733A200042656420436F6F6C696E672ED6
:101920002E2E004265642048656174696E672E2E14
:101930002E00504944204175746F74756E65002007
:101940006661696C65642120426164206865617428
:1019500065722069640A00504944204175746F74AF
:10196000756E65003D3D4477696E20496E6974204F
:10197000436F6D706C6574653D3D000A20696E694A
:1019800074207A70726F62655F7A6F6666736574D1
:10199000203D20003D3D6F6E436F6E666967757236
:1019A0006174696F6E53746F7265526561643D3D19
:1019B00000454550524F4D20496E697469616C690C
:1019C0007A65640A0048617264636F6465642044E8
:1019D000656661756C742053657474696E677320F5
:1019E0004C6F616465640020286D6D2900203B20E8
:1019F0004C6576656C696E67200020204D3432306E
:101A00002053004175746F20426564204C657665F3
:101A10006C696E6700204B0020204D393030205417
:101A2000004C696E65617220416476616E63650089
:101A300020590020580020204D34323520460042E5
:101A400061636B6C61736820636F6D70656E736149
:101A500074696F6E0046696C616D656E7420727595
:101A60006E6F75742073656E736F7200205A00205C
:101A70004A002020473239205720490020204D318C
:101A800034392043203B20556E69747320696E20E1
:101A900043656C736975730A0054656D7065726196
:101AA0007475726520556E69747300202047323159
:101AB000203B004C696E65617220556E697473003D
:101AC000454550524F4D206461746173697A6520B9
:101AD0006572726F722E0A0053657474696E6720A6
:101AE000566F6C756D65204F6E203A2000536574FB
:101AF00074696E67205374616E646279204F6E2042
:101B00003A200053657474696E6720566F6C756D6A
:101B100065203A200053657474696E6720526F74B3
:101B20006174696F6E203A200053657474696E6742
:101B3000205374616E6462792054696D65203A2087
:101B40000053657474696E67205374616E646279C2
:101B5000203A200053657474696E67204272696789
:101B600068746E657373203A20004C6F6164696E0F
:101B700067204457494E204C434420736574746970
:101B80006E672066726F6D20454550524F4D0A00BA
:101B900044697363617264696E67204457494E20DB
:101BA0004C43442073657474696E672066726F6D70
:101BB00020454550524F4D202D2073657474696E39
:101BC00067732076657273696F6E20696E636F72DA
:101BD000726563740A0044697363617264696E6755
:101BE000204457494E204C43442073657474696EF9
:101BF000672066726F6D20454550524F4D202D2055
:101C000073697A6520696E636F72726563740A0026
:101C100053746F7265642073657474696E677320A2
:101C200072657472696576656400290A00206279BC
:101C30007465733B2063726320002073746F726558
:101C4000642073657474696E677320726574726959
:101C500065766564202800454550524F4D2043521B
:101C600043204572726F7200202863616C63756C4B
:101C70006174656429210A0020213D2000454550FA
:101C8000524F4D20435243206D69736D61746368F8
:101C9000202D202873746F726564292000205369F9
:101CA0007A653A2000496E6465783A200000004861
:101CB0004300004843000020410000484200004823
:101CC000420000A0420000A04200004844C315BFEB
:101CD00043C315BF4320030000200300006400003D
:101CE00000E8030000E8030000454550524F4D2036
:101CF00056657273696F6E204572726F7200204D67
:101D000061726C696E3D563837290A00454550525C
:101D10004F4D2076657273696F6E206D69736D61CA
:101D20007463682028454550524F4D3D0024F4040B
:101D3000D9201BC40C5C0E9804C4095F02650771AE
:101D400001F405F900FB04B30048048700C10369EE
:101D5000005803550003034500BE023A00840231D7
:101D60000053022A002902250004022000E4011C7D
:101D700000C8011900AF0117009801140084011375
:101D800000710110006101100051010E0043010DAE
:101D90000036010B002B010B0020010B001501097F
:101DA000000C01090003010800FB000800F3000813
:101DB00000EB000700E4000600DE000600D8000685
:101DC00000D2000600CC000500C7000500C20005D7
:101DD00000BD000400B9000400B5000400B1000417
:101DE00000AD000400A9000400A5000300A2000348
:101DF000009F0004009B0003009800030095000270
:101E00000093000300900003008D0002008B00038C
:101E100000880002008600020084000300810002A6
:101E2000007F0002007D0002007B000200790002BA
:101E300000770001007600020074000200720001C9
:101E400000710002006F0002006D0001006C0002D2
:101E5000006A0001006900020067000100660001DD
:101E600000650001006400020062000100610001E1
:101E700000600001005F0002005D0001005C0001E5
:101E8000005B0001005A00010059000100580001E8
:101E900000570001005600010055000100540001E8
:101EA00000530000005300010052000100510001E6
:101EB00000500001004F0001004E0000004E0001E4
:101EC000004D0001004C0001004B0000004B0001E0
:101ED000004A0001004900010048000000480001DC
:101EE00000470001004600000046000100450000D8
:101EF00000450001004400010043000000430001D0
:101F000000420000004200010041000000410001C9
:101F100000400001003F0000003F0001003E0000C3
:101F2000003E0001003D0000003D0001003C0000BB
:101F3000003C0000003C0001003B0000003B0001B1
:101F4000003A0000003A00010039000000390001A9
:101F500000380000003800000038000100370000A1
:101F60000037000100360000003600000036000196
:101F7000003500000035000000350001003400008D
:101F80000034000000340001003300000033000082
:101F90000033000100320000003200000032000176
:101FA000003100000031000000310001003000006D
:101FB0000030000000300001002F0000002F000062
:101FC000002F0000002F0001002E0000002E000056
:101FD000002E0001002D0000002D0000002D00004B
:101FE000002D0001002C0000002C0000002C00003F
:101FF000002C0001002B0000002B0000002B000033
:10200000002B0001002A0000002A0000002A000026
:10201000002A00010029000000290000002900001A
:10202000002900000029000100280000002800000D
:102030000028000000280000002800010027000000
:1020400000270000002700000027000000270001F3
:1020500000260000002600000026000000260000E8
:1020600000260001002500000025000000250000DA
:1020700000250000002500000025000100240000CC
:1020800000240000002400000024000000240001BF
:1020900000230000002300000023000000230000B4
:1020A00000230000002300000023000100220000A4
:1020B0000022000000220000002200000022000098
:1020C000002200010021000000210000002100008A
:1020D000002100000021000000210000002100017B
:1020E0000020000000200000002000000020000070
:1020F000002000000020000000200000002000015F
:10210000001F0000001F0000001F0000001F000053
:10211000001F0000001F0000001F0001001E000043
:10212000001E0000001E0000001E00000024F4D469
:102130003050C38E20C2A24017828B7011127A9148
:102140000D816CD90AA861E108C75866076151433F
:10215000061E4B5D05C145A7041A411104093D98AF
:1021600003713931034036DB0265339102D43054B8
:1021700002802E1D02632CEE01752AC501B028A035
:1021800001102781018F2564012B244B01E02234AB
:1021900001AC211F018D200D01801FFC00841EED6C
:1021A00000971DDF00B81CD200E61BC600201BBC38
:1021B00000641AB200B219A8000A19A0006A18999E
:1021C00000D117910040178B00B516840031167EA0
:1021D00000B31579003A157300C7146F0058146ADC
:1021E00000EE1366008813630025135E00C7125BC0
:1021F000006C12570015125400C111510070114F9C
:102200000021114B00D61049008D104700461044A4
:102210000002104200C00F4000800F3E00420F3C01
:1022200000060F3B00CB0E3800930E37005C0E35D6
:1022300000270E3400F30D3200C10D3100900D3037
:1022400000600D2E00320D2D00050D2C00D90C2B39
:1022500000AE0C2900850C29005C0C2700350C27EA
:10226000000E0C2600E80B2400C40B2400A00B2356
:10227000007D0B23005A0B2100390B2100180B2085
:1022800000F80A1F00D90A1E00BB0A1E009D0A1D85
:1022900000800A1D00630A1C00470A1B002C0A1B51
:1022A00000110A1A00F7091A00DD091900C40919FA
:1022B00000AB091900920917007B09180063091780
:1022C000004C09160036091600200916000A0915E7
:1022D00000F5081500E0081400CC081400B8081434
:1022E00000A4081400900813007D0812006B081366
:1022F0000058081200460812003408110023081183
:10230000001208110001081100F0071000E007108A
:1023100000D0071000C0071000B0070F00A1071081
:102320000091070E0083070F0074070F0065070E6A
:102330000057070E0049070E003B070D002E070E41
:102340000020070D0013070D0006070D00F9060C0D
:1023500000ED060D00E0060C00D4060C00C8060CCB
:1023600000BC060C00B0060C00A4060B0099060C7D
:10237000008D060B0082060B0077060B006C060B27
:102380000061060A0057060B004C060A0042060AC6
:102390000038060A002E060A0024060A001A060A59
:1023A000001006090007060A00FD050900F40509EA
:1023B00000EB050900E2050900D9050900D005096F
:1023C00000C7050900BE050900B5050800AD0508F0
:1023D00000A50509009C050800940508008C050867
:1023E00000840508007C050800740508006C0507DA
:1023F00000650508005D050700560508004E050745
:1024000000470507004005080038050700310507AB
:10241000002A050700230507001C0506001605070E
:10242000000F0507000805060002050700FB04066B
:1024300000F5040700EE040600E8040600E20407C5
:1024400000DB040600D5040600CF040600C904061C
:1024500000C3040600BD040600B7040600B104056D
:1024600000AC040600A6040600A00405009B0406B8
:102470000095040500900406008A04050085040503
:1024800000800406007A0405007504050070040548
:10249000006B04050066040500610405005C04058A
:1024A0000057040500520405004D040500480405CA
:1024B00000430405003E0404003A04050035040509
:1024C00000300404002C0405002704040023040544
:1024D000001E0404001A040400160405001104047C
:1024E000000D0404000904050004040400000404B1
:1024F00000FC030400F8030400F4030400F00304E8
:1025000000EC030400E8030400E4030400E0030417
:1025100000DC030400D8030400D4030400D0030447
:1025200000CC030400C8030300C503030020436F6D
:10253000756E7420583A0023646566696E652044A0
:10254000454641554C545F0000626564004B642071
:10255000004B6920004B7020005049442074756E78
:10256000696E6720646F6E65002066696E697368C6
:102570006564212050757420746865206C617374E3
:10258000204B702C204B6920616E64204B642063CB
:102590006F6E7374616E74732066726F6D20626506
:1025A0006C6F7720696E746F20436F6E6669677514
:1025B000726174696F6E2E680A005049442041753B
:1025C000746F74756E6500206661696C65642120A6
:1025D00074696D656F75740A0050494420417574C3
:1025E0006F74756E65004175746F74756E652066E5
:1025F00061696C6564212054696D656F75742E0086
:10260000206661696C6564212054656D7065726136
:102610007475726520746F6F20686967680A00506E
:102620004944204175746F74756E650050494420AB
:102630004379636C65730025532025692F25690054
:10264000204B643A2000204B693A2000204B703A1E
:10265000200020436C617373696320504944200A51
:1026600000204E6F206F76657273686F6F740A007A
:102670002054753A2000204B753A2000206D617877
:102680003A2000206D696E3A200020643A20002034
:10269000626961733A20002073746172740A005099
:1026A0004944204175746F74756E65004175746F8F
:1026B00074756E65206661696C6564212054656D72
:1026C000706572617475726520746F6F20686967D8
:1026D000682E00206661696C6564212054656D7008
:1026E0006572617475726520746F6F2068696768C0
:1026F0000A00504944204175746F74756E6500007E
:102700000045320042656400453100450062656461
:10271000002C2073797374656D2073746F7070650D
:102720006421204865617465725F49443A20004520
:1027300072723A204D415854454D50004D41585405
:10274000454D50207472696767657265640048651D
:102750006174696E67204661696C656400486561F3
:1027600074696E67206661696C6564004D31313251
:102770002053687574646F776E001000AA03F0012F
:102780003A019002220130031001D00302017004CB
:10279000F7001005ED00B005E5005006DD00F0067D
:1027A000D7009007D1003008CC00D008C7007009CE
:1027B000C300100ABE00B00ABB00500BB700F00BFC
:1027C000B300900CB000D00DAA00100FA50050105F
:1027D000A00090119B00D0129600B01490009016AB
:1027E0008B0070188500501A8000301C7B00B01ED2
:1027F000750030216F00B023690030266400102876
:102800005F00902A5A00702C5500F02E4F00703156
:102810004800B0324500F0334100703639001037BF
:1028200037005038330090392D00D03A2700B03CA3
:102830001C00503D1700F03D1100903E0900D03FB4
:10284000E5FF4572723A204D494E54454D50004DBA
:10285000494E54454D5020747269676765726564CE
:1028600000202F002040002042403A0020403A0043
:10287000436F6F6C696E672E2E2E00486561746918
:102880006E672E2E2E004525632025530020573AD3
:102890000020573A00496E76616C6964206578744F
:1028A00072756465720A00486F74656E6420746F97
:1028B0006F20636F6C640A0041637469766520451C
:1028C000787472756465723A200047313258007C22
:1028D0003C3E5E2B3D3F2F5B5D3B2C2A225C004340
:1028E000616E6E6F74206F70656E207375626469BF
:1028F0007220004D6564696120496E6974204661EB
:10290000696C0053442063617264206F6B0A006F2E
:1029100070656E526F6F74206661696C65640A0041
:10292000766F6C756D652E696E6974206661696C71
:1029300065640A004E6F20534420636172640A008C
:10294000534420636172642072656C6561736564D1
:102950000A000A4D3234004D3233202573002E0A0E
:10296000006F70656E206661696C65642C20466935
:102970006C653A200046696C652073656C6563740C
:1029800065640A002053697A653A200046696C65DF
:10299000206F70656E65643A2000454E44205355A3
:1029A00042524F5554494E450A002220706F730021
:1029B0002220706172656E743A2200535542524F64
:1029C0005554494E452043414C4C20746172676513
:1029D000743A220053756263616C6C204F766572A5
:1029E000666C6F77004578636565646564206D612A
:1029F0007820535542524F5554494E4520646570D6
:102A000074683A002E0A0044656C6574696F6E2024
:102A10006661696C65642C2046696C653A200046E5
:102A2000696C652064656C657465643A004E6F740A
:102A3000205344207072696E74696E670A005344B3
:102A4000207072696E74696E672062797465200007
:102A500057726974696E6720746F2066696C653A95
:102A60002000667265736800646F696E6700206697
:102A7000696C653A20004E6F7720002F6175746F86
:102A800025632E670070012C0190012701B00122FF
:102A900001C0011D01F00118011002130130020EE6
:102AA000016002090190020401C002FF000003FA64
:102AB000004003F5008003F000D003EB002004E6A3
:102AC000007004E100E004DC004005D700C005D23E
:102AD000004006CD00D006C8008007C3003008BE05
:102AE00000F008B900C009B400B00AAF00B00BAAEA
:102AF00000D00CA500000EA000500F9B00C0109647
:102B0000005012910000148C00C0158700B017828D
:102B100000B0197D00D01B7800001E730040206EAD
:102B20000090226900F024640040275F0090295A39
:102B300000E02B5500102E500020304B0010324684
:102B400000E033410090353C0010373700703832D8
:102B500000A0392D00B03A2800A03B2300603C1EA5
:102B600000103D1900903D1400103E0F00703E0A09
:102B700000C03E0500003F0000403FFBFF803FF6E5
:102B8000FFC03FF1FF2020506C616E6E6572427590
:102B90006666657242797465733A200020467265F4
:102BA00065204D656D6F72793A200020436F6D701E
:102BB000696C65643A2053657020313720323032B9
:102BC000320A00204C61737420557064617465642E
:102BD0003A20323032322D30392D3134207C2041B0
:102BE0007574686F723A20496E73616E69747941C9
:102BF00075746F6D6174696F6E0A004D61726C69F6
:102C00006E206275676669782D322E312E780A0043
:102C100020536F6674776172652052657365740A1C
:102C200000205761746368646F6720526573657430
:102C30000A002042726F776E206F757420526573A0
:102C400065740A002045787465726E616C20526567
:102C50007365740A00506F77657255700A0073745B
:102C60006172740A004739310A47315A350A4739C7
:102C7000300A4D38340A4D31303453300A4D313436
:102C8000305330004D31303031006572726F722038
:102C900077726974696E6720746F2066696C650A63
:102CA00000446F6E6520736176696E672066696C9B
:102CB000652E0A004D323900456E6473746F70736F
:102CC00000255320256320256320256320256300EC
:102CD000205A3A0020593A0020583A00656E647331
:102CE000746F7073206869743A2000202D2064345A
:102CF000200064333A2000202D206432200064310B
:102D00003A2000202D206C656E2000565020726500
:102D10006365697665643A20002A2A2A4E6F7A7ABA
:102D20006C6554656D705374617475735B325D20AE
:102D30003D003D3D48656174696E6720446F6E6576
:102D4000204368616E67652046696C616D656E74CD
:102D50003D3D002020737461727470726F677265FC
:102D6000737320004D32320A4D3231003D3D7761A0
:102D7000697477617920353D3D003D3D7761697427
:102D800077617920343D3D003D3D7761697477611D
:102D90007920333D3D003D3D77616974776179204D
:102DA000313D3D00436F6E6669726D20436F6E74F6
:102DB000696E7565005061757365537461747573E0
:102DC00000524553554D45204F5054494F4E533AAC
:102DD0000048656174696E672E2E2E000000436CFA
:102DE00069636B20746F2068656174000000526530
:102DF00073756D696E672E2E2E0000005075726718
:102E0000696E672E2E2E000000496E736572742065
:102E1000616E6420436C69636B000000436C6963FE
:102E20006B20746F20636F6E74696E7565000000AF
:102E3000456A656374696E672E2E2E000000506C23
:102E40006561736520776169742E2E2E0000005035
:102E500061726B696E672E2E2E0000002A2A2A49A5
:102E60006E6974696E672063617264206973204FB4
:102E70004B2A2A2A003D3D6F6E5072696E74546968
:102E80006D657253746F707065643D3D003D3D6FBC
:102E90006E55736572436F6E6669726D52657175BA
:102EA000697265643D3D005061757365204D6F64C6
:102EB0006520537461747573004C6F6164696E674B
:102EC0002E2E2E0000003D3D6F6E466163746F72C2
:102ED0007952657365743D3D00270A0A000027207A
:102EE00027002027002D0063616E63656C0050721F
:102EF000696E742041626F727465640055492041A7
:102F0000626F7274656400726573756D65004D3231
:102F100034005761726E696E673A20436C65616E6A
:102F200020436972636C652072657175697265739F
:102F30002058590A005761726E696E673A205261D3
:102F400064697573204F7574206F662052616E67D7
:102F5000650A004E6F7A7A6C6520746F6F20636F1C
:102F60006C64202D20536B697070696E67207769DF
:102F700070650A003D3D6F6E5072696E7454696DE4
:102F800065725061757365643D3D00486F6D696E93
:102F900067204661696C65640050524553454E5444
:102FA000004F5554006F70656E00545249474745B5
:102FB000524544003A20004D4F54494F4E203A208C
:102FC000004F46460A003A200066696C616D656EE6
:102FD00074007A5F6D696E00795F6D696E00785F6D
:102FE0006D617800785F6D696E005265706F727404
:102FF000696E6720656E6473746F7020737461749A
:1030000075730A0020746F6F206C6F6E672065788F
:1030100074727573696F6E2070726576656E746513
:10302000640A0020636F6C6420657874727573693C
:103030006F6E2070726576656E7465640A00486F05
:103040006D6520257325732573204669727374009E
:10305000000054C200000000000000005761726EC2
:10306000696E673A20486F6D696E672042756D70B2
:103070002044697669736F72203C20310A00020295
:10308000040080244400C01D44008018440000A0B7
:10309000400000A0400000004020746F6F206C6F63
:1030A0006E6720657874727573696F6E20707265D3
:1030B00076656E7465640A0020636F6C64206578C1
:1030C00074727573696F6E2070726576656E746563
:1030D000640A003D3D6F6E5072696E7454696D658F
:1030E00072537461727465643D3D0053544F505087
:1030F00045442E20005072696E7465722073746F9F
:10310000707065642064756520746F206572726FDD
:1031100072732E2046697820746865206572726F1C
:103120007220616E6420757365204D3939392074C1
:103130006F20726573746172742E202854656D70EF
:103140006572617475726520697320726573657448
:103150002E20536574206974206166746572207234
:10316000657374617274696E67290A0020657272F2
:103170006F72202D20726573746172742077697488
:1031800068204D3939390A00424C546F7563680024
:1031900021212053544F502063616C6C6564206280
:1031A000656361757365206F662000536176696E93
:1031B00067204457494E204C43442073657474691A
:1031C0006E672066726F6D20454550524F4D0A0064
:1031D0003D3D6F6E53657474696E677353746F729F
:1031E00065643D3D0053657474696E677320537464
:1031F0006F72656400290A002062797465733B2050
:10320000637263200053657474696E67732053742E
:103210006F726564202800C23100001C260000F493
:10322000190000D80F0000EB080000C00400007572
:103230000200004001000043616E6E6F7420656EF5
:10324000746572207375626469723A20004D32357C
:1032500020500A4D323400526573756D6500554932
:10326000205061757365004E6F204D617463682056
:103270003A00436F6E73747261696E206D65736896
:1032800056616C20006D65736856616C2000795042
:103290006E74200078506E7420006D657368506FF6
:1032A000696E742000446973706C61794272696759
:1032B00068746E657373205365743A2000446973B3
:1032C000706C61794272696768746E657373204CC3
:1032D00043443A20004D32320A4D32310052656685
:1032E000726573680050675570005067446F776E61
:1032F0000049732046696C65200049732044697257
:103300002000476F557044697200486173204D6515
:103310006469610046696C656E616D652053656C1A
:103320006563746564004D3130303043004D313099
:103330003030002046696C616D656E742052657393
:10334000706F6E7365204E6F00526573756D6520EA
:1033500059657320647572696E67207072696E7446
:10336000000A204E6F2046696C616D656E740049DD
:103370006E76616C6964204F7074696F6E004D35B4
:1033800030300053746F72652053657474696E67D2
:1033900073004D3939390A4D323830503053313697
:1033A0003000424C546F7563682052657365740039
:1033B0004D3530320A4D35303000496E6974204544
:1033C0004550524F4D004D3530300053746F72658B
:1033D0002053657474696E677300496E4C616E6743
:1033E00043686F696365000A202A2A2A726563644C
:1033F00061742E646174615B305D203D004732383A
:103400000A4731204631303030205A313000556E75
:10341000737570706F72746564204F7074696F6E2D
:103420002053656C6563746564004D3630355330E8
:103430000A47323858004D36303553310A54300A75
:103440004732380A4D36303553320A473238580A37
:10345000473158300A4D3630355333004D3630350C
:1034600053310A54300A4732380A4D363035533218
:103470000A473238580A47315830004D36303553F4
:10348000310A473238580A47315830004D3231310D
:1034900053300A4739310A47315A302E3032350A13
:1034A0004739300A4D3231315331004D32313153C9
:1034B000300A4739310A47315A2D302E3032350A19
:1034C0004739300A4D3231315331004732395332A6
:1034D0000047323953310047323652323535004DCC
:1034E0003139305335350A4732380A473334493891
:1034F0000A4732390A4D3430300A4D3130345332B4
:1035000031350A4732380A4D313039533231350AB4
:103510004D34323053310A4731583130305931301F
:103520003046353030300A47315A300A4D35303068
:103530000A4D31313720536574205A204F66667327
:103540006574004731204631303030205A302E30FB
:10355000004732380A4731204631303030205A3067
:103560002E30005A204F6666736574203A2025730A
:10357000005A204F6666736574203A202573004711
:1035800032385A0A473146313530305A302E300001
:103590004732380A473146313530305A302E300004
:1035A000426564204C6576656C204F7074696F6E5F
:1035B000200052657475726E203A20004D38340038
:1035C000473146313030305A302E30004732380AD9
:1035D000473146313030305A302E30004D616E75F3
:1035E000616C53657454656D70005A204F66667344
:1035F0006574203A20257300526F756E64696E679A
:1036000020746F20737465700052657175657374F2
:103610006564204F6666736574200053746F702074
:103620005472696767657265640053746F70204EE9
:103630006F0053746F705072696E740048616E64ED
:103640006C6520446174612041646A757374203232
:103650002053657474696E672053637265656E20CC
:103660000048616E646C6520446174612050726929
:103670006E7446696C6520332053657474696E6797
:103680002053637265656E200048616E646C65202E
:1036900044617461205072696E7446696C652032B1
:1036A0002053657474696E672053637265656E207C
:1036B000004D38340048616E646C6520446174616B
:1036C000205072696E7446696C6520506F73740087
:1036D00048616E646C652044617461205072696E4B
:1036E0007446696C652050726500426567696E5367
:1036F0007769746368003D3D20436865636B6B6563
:10370000793D3D007265636461742E61646472206A
:103710003D3D007265636461742E646174615B3069
:103720005D203D3D0077616974776179203D3D0002
:1037300020202A2A2A2A2A2A2A5254535F48616EB4
:10374000646C65446174612A2A2A2A2A2A2A2A205A
:103750000073686F7700627574746F6E00626567DE
:10376000696E0044697361626C6552756E6F757441
:103770000050757267654D6F7265005061757365B5
:1037800064004C6F61642046696C616D656E7420E5
:1037900054004C6F61642046696C616D656E740005
:1037A000496E736572742066696C616D656E742014
:1037B000616E642073656E64204D3130380A00728A
:1037C0006573756D6564004469736D697373005248
:1037D0006573756D696E6700526568656174204434
:1037E0006F6E6500526568656174696E672E2E2E76
:1037F00000526568656174004865617465722054A3
:10380000696D656F75740053656E64204D31303895
:1038100020746F2068656174206E6F7A7A6C650A17
:1038200000436F6E74696E7565004E6F7A7A6C65D1
:10383000205061726B65640050726F62696E672020
:103840004661696C65640A0050726F62696E672038
:103850004661696C656400205A3A200020593A207C
:103860000042656420583A2000FFFFFF544845524B
:103870004D414C2052554E41574159005468657294
:103880006D616C2052756E617761790000002000D7
:103890002300260029002C002F0032000001000028
:1038A00003010601090100000A0B02090C0D0E08B4
:1038B00007030401000000000000000000000000F9
:1038C00000000000000000000000000000000000F8
:1038D00000001211100000000000000000000000B5
:1038E00000000000000000000000000000002200B6
:1038F000250028002B002E003100340002010000BA
:10390000050108010B0100002100240027002A0006
:103910002D003000330001010000040107010A01FD
:1039200005050505070508080808020202020A0A3B
:103930000808040404040101010101010101030359
:10394000030303030303040707070C0C0C0C0C0C04
:103950000C0C0202020206060606060606060B0B01
:103960000B0B0B0B0B0B0102102020080810204042
:103970001020408002010201080402010102040833
:1039800010204080804020100804020180040201C1
:10399000804020100804020108040201010204080A
:1039A00010204080010204081020408020453A0089
:1039B000205A3A0020593A00583A0054656E6C6F0C
:1039C000672044332052656164792E005072696E1D
:1039D00074696E672E2E2E005072696E74205061CD
:1039E0007573656400524553554D45204F505449F9
:1039F0004F4E533A0048656174696E672E2E2E0053
:103A00000000436C69636B20746F2068656174000B
:103A10000000526573756D696E672E2E2E000000D2
:103A200050757267696E672E2E2E0000004C6F6114
:103A300064696E672E2E2E000000496E73657274E5
:103A400020616E6420436C69636B000000436C6905
:103A5000636B20746F20636F6E74696E7565000010
:103A600000456A656374696E672E2E2E0000005053
:103A70006C6561736520776169742E2E2E000000DD
:103A80005061726B696E672E2E2E000000506175BA
:103A900073654D73673D006F6B0A00526573656E09
:103AA000643A2000220A00556E6B6E6F776E2063B9
:103AB0006F6D6D616E643A2022002042002050003C
:103AC0006F6B006E6F74696669636174696F6E20F5
:103AD00000002A01660111241FBECFEFD1E2DEBF34
:103AE000CDBF00E00CBF84B78093961D14BE0FB607
:103AF000F894A8958091600088618093600010928E
:103B000060000FBE16E0A0E0B2E0EAE4F5ED02E0EE
:103B10000BBF02C007900D92AA36B107D9F72DE16D
:103B2000AAE6B6E001C01D92A639B207E1F71DE191
:103B3000CAE6DDE100E006C021970109802FFE0101
:103B40000F94D266C936D10780E00807A9F70F9411
:103B5000F74F0D94936A0C940000CF93DF93C091BC
:103B6000E818D091E91881E0CE31D105E4F020E0E9
:103B700030E040E05FE36091E4187091E5188091D7
:103B8000E6189091E7180F94DB660F9447686C1B5A
:103B90007D0B77FF03C071956195710981E06330FA
:103BA00071050CF080E0DF91CF910895CF93DF9302
:103BB000DB01F9019C919130C1F0943080F0945078
:103BC0009C938830D1F480819181009771F00197A6
:103BD00091838083480F591FEA01188206C08C35F3
:103BE00039F49C5F9C93943041F4DF91CF91089518
:103BF0008B3339F781E08C93F8CF20813181B90183
:103C00006F5F7F4F71836083420F531FEA01888388
:103C1000808191818F3591056CF7E7CF0F931F93CA
:103C200081E00091BF1B1091C01B2091C11B3091FE
:103C3000C21B4091BB1B5091BC1B6091BD1B70917E
:103C4000BE1B041715072607370708F480E01F91ED
:103C50000F91089590E080E008952091281483301A
:103C600021F425FD0CC024FD0CC030E0A90102C0E8
:103C7000559547958A95E2F7CA018170089581E0CC
:103C8000089580E0089580910E0884FD0BC0809116
:103C9000100887FD07C090911108937081E019F416
:103CA00080E0089581E00895682F70E090E080E062
:103CB0000F94FE5F2091D50A3091D60A4091D70A21
:103CC0005091D80A0F945D602091CD0A3091CE0AB0
:103CD0004091CF0A5091D00A0F94DB660895682F67
:103CE00070E090E080E00F94FE5F2091D10A309167
:103CF000D20A4091D30A5091D40A0F945D6020916A
:103D0000C90A3091CA0A4091CB0A5091CC0A0F944B
:103D1000DB6608952FEB280F2A3108F047C0E22F09
:103D2000F0E080910E0890910F08A0911008B091DA
:103D3000110804C0B695A795979587952A95D2F74F
:103D400080FD02C081700895EC50F84FE081EE23B1
:103D500041F18091141790911517E80FF92FF11D7B
:103D6000808190ED980F9A3030F08E3251F481813D
:103D700080538A3098F4F093E407E093E30781E0FE
:103D800008958D3211F08B3249F4818190ED980FB6
:103D90009A3088F38E3211F48281EACFF0E0E0E0CD
:103DA000EACF1092E4071092E307E9CF80E008958C
:103DB0000E948A1E882341F081E02091E307309120
:103DC000E407232B09F480E008952F923F924F924D
:103DD0005F926F927F928F929F92AF92BF92CF929B
:103DE000DF92EF92FF920F931F93CF93DF93D62F23
:103DF000C72FFC0180809180A280B380C501B401EF
:103E000020E831E541E050E00F943B66C9016DE6E2
:103E100071E00F94AA666B017C01C501B40120E139
:103E20003EE040E050E00F943B66CA01B90128E152
:103E300030E040E050E00F943B66362E272E062FF0
:103E4000172F8CE3482E512C612C712CC501B40125
:103E5000A30192010F943B66B62EA72ECA01B901A9
:103E6000A30192010F943B66CB01C114D10479F1F7
:103E7000AF92BF927F936F932F923F92FF92EF92F8
:103E8000DF92CF928AE998E19F938F93CF93DF934C
:103E90000F948E5F8DB79EB70E960FB6F8949EBFA7
:103EA0000FBE8DBF8D2F9C2FDF91CF911F910F9152
:103EB000FF90EF90DF90CF90BF90AF909F908F904A
:103EC0007F906F905F904F903F902F900895E114F6
:103ED000F104C9F0AF92BF927F936F932F923F92FC
:103EE000FF92EF928AE898E19F938F93CF93DF93AD
:103EF0000F948E5FEDB7FEB73C960FB6F894FEBFF9
:103F00000FBEEDBFCFCF012BB9F0AF92BF927F9321
:103F10006F932F923F928EE798E19F938F93CF9369
:103F2000DF930F948E5F8DB79EB70A960FB6F89405
:103F30009EBF0FBE8DBFB6CF892BA9F0AF92BF92A7
:103F40007F936F9386E798E19F938F93CF93DF934F
:103F50000F948E5FEDB7FEB738960FB6F894FEBF9C
:103F60000FBEEDBF9FCFAF92BF9282E798E19F93C4
:103F70008F93CF93DF930F948E5F0F900F900F90DE
:103F80000F900F900F908ECFAB01BC014093BF1BE1
:103F90005093C01B6093C11B7093C21B87E29DE1CD
:103FA0000C9454950F931F93CF93DF9300D01F92DF
:103FB000CDB7DEB79C0107E112E190E1EBE7F2E05B
:103FC000D80101900D929A95E1F7F9012081318194
:103FD00042815381F80160857185828593850F94B4
:103FE000DB66F801608771878287938780E090E0C5
:103FF000A0EAB0E489839A83AB83BC83CE010196A7
:104000000E946BED0F900F900F900F90DF91CF916A
:104010001F910F9108952F923F924F925F926F924E
:104020007F928F929F92AF92BF92CF92DF92EF9248
:10403000FF921F93CF93DF93CDB7DEB72C970FB6C8
:10404000F894DEBF0FBECDBF7A011901DC012D91BE
:104050003D914D915C912D833E834F835887FB01A9
:10406000408051806280738080907B0290907C02BF
:10407000A0907D02B0907E02A50194016D817E81A9
:104080008F8198850F94F75F81110EC011E0A30115
:10409000920160917F0270918002809181029091E3
:1040A00082020F94F75F811110E0D1012D913D91B3
:1040B0004D915C9129873A874B875C87F701C080D7
:1040C000D180E280F380209102023091030240917E
:1040D000040250910502C701B6010F94F75F8823CF
:1040E00009F44EC0C0920202D0920302E092040290
:1040F000F09205028091870290918802A091890236
:10410000B0918A0240917F025091800260918102B9
:10411000709182028092171290921812A092191236
:10412000B0921A1240931B1250931C1260931D12EE
:1041300070931E12C0921F12D0922012E092211290
:10414000F09222128093231290932412A0932512AE
:10415000B093261220E030E040E05FE360915B1214
:1041600070915C1280915D1290915E120F945D606F
:1041700069837A838B839C83CE0101960E946BEDC9
:104180002D813E814F81588520931712309318124C
:104190004093191250931A1240921B1250921C1203
:1041A00060921D1270921E12D1012D913D914D9180
:1041B0005C9160912312709124128091251290914C
:1041C00026120F94DB66609323127093241280935F
:1041D00025129093261211112FC020E030E0A90182
:1041E00069857A858B859C850F94F75F811133C033
:1041F00060E070E088EC92E469837A838B839C832F
:10420000CE0101960E946BED2C960FB6F894DEBF9E
:104210000FBECDBFDF91CF911F91FF90EF90DF9048
:10422000CF90BF90AF909F908F907F906F905F9056
:104230004F903F902F9008952AEF3EE74AE25FE3C8
:1042400060915F1270916012809161129091621280
:104250000F945D60D1CF60E070E080EA91E4CCCF54
:104260008091E3079091E407009731F04AE050E035
:1042700070E060E00D94125E60E070E0CB010895A4
:104280000F931F93CF93DF9300D000D01F921F9204
:10429000CDB7DEB78B01FC0123A5211102C00F941D
:1042A00026231D821E821F82188620E030E040E017
:1042B0005FE3609183027091840280918502909106
:1042C00086020F94DB6669837A838B839C839E01CD
:1042D0002B5F3F4FAE014F5F5F4F6FE772E08BE7A1
:1042E00092E00E940B201D821E821F82188620E011
:1042F00030E040E05FE3F801608571858285938559
:104300000F94DB6669837A838B839C83B8016C5F2F
:104310007F4F9E012B5F3F4FAE014F5F5F4FC80144
:104320000E940B2028960FB6F894DEBF0FBECDBFBB
:10433000DF91CF911F910F9108958091E3079091A4
:10434000E407009731F04AE050E070E060E00D943F
:10435000E45C60E070E0CB010895CF93DF93EB0164
:104360000E94D81E882319F00E949D21EB01CE01E6
:10437000DF91CF9108950E949D2197FD0CC00E946E
:104380009D216F3F71058105910509F034F40E946C
:104390009D21862F089580E008958FEF0895CF9393
:1043A000C62F0E94D81E882319F0CF910C94BB21F0
:1043B0008C2FCF9108958091E3079091E407892B8A
:1043C00041F00E94BB2191E0811101C090E0892F52
:1043D000089591E0FCCFCF93DF93C82FD62F0E9492
:1043E000D81E882321F0DF91CF910C94DB218C2FF4
:1043F0000E948A1E811101C08D2FDF91CF910895F7
:104400000E949D21CB010895CF93DF93EB010E9481
:10441000D81E882321F0DF91CF910C940022CE0189
:10442000DF91CF9108950F931F93CF938091E3076E
:104430009091E407009709F1FC018F01C1912C2FA5
:104440002F7DA1F0C53431F0C53621F0C83511F00B
:10445000C83799F7F801108270E060E00F94865B2E
:10446000F801C083CF911F910F91089570E060E033
:10447000CF911F910F910D94865B60E070E0CB01AE
:10448000F1CF0F931F93CF9383E50E94D81E88230B
:1044900001F10F94E82A6093950870939608809331
:1044A0009708909398080E94132220E030E04AE792
:1044B00054E40F945D600F944E686093060270930D
:1044C00007028093080290930902CF911F910F91E8
:1044D00008950E94431E882399F10E9431CE85E4FD
:1044E0000E948A1E882351F08091E3079091E4078F
:1044F000892B19F10E9400220E94C4BA05EC12E037
:10450000C0E0F80121918F01215480910E08909113
:104510000F08A0911008B091110804C0B695A79596
:10452000979587952A95D2F780FF03C08C2F0E941C
:10453000F3BACF5FC33029F7C8CF0E94DEBADECF0F
:10454000CF911F910F910C9442CECF92DF92EF92B8
:10455000FF926A017B010E94D81E882331F0FF90F0
:10456000EF90DF90CF900C941322C701B601FF901B
:10457000EF90DF90CF9008954F925F926F927F926D
:10458000AF92BF92CF92DF92EF92FF920F931F9361
:10459000CF9385ECA82E82E0B82E97E1E92E92E128
:1045A000F92E0BE712E02FE2C22E23E1D22EC0E05B
:1045B000F50181915F010E94D81E882309F4A9C0EA
:1045C0000E9413222B013C018C2F0E942D1E882358
:1045D00009F495C0F8012081318142815381C301E2
:1045E000B2010F94DB66F70160837183828393834A
:1045F000CF5FF4E0EF0EF11C0C5F1F4F84E0C80E9C
:10460000D11CC330A9F685E40E94D81E882309F482
:104610008BC00E9413226B017C0183E00E942D1E3F
:10462000882371F02091870230918802409189029D
:1046300050918A02C701B6010F94DB666B017C01C1
:10464000C0922312D0922412E0922512F0922612E8
:1046500040E050E0BA0186E40E94A52220E030E06C
:10466000A9010F943B69181684F40E94132220E0DC
:1046700030E040E752E40F94D5676093770270937F
:1046800078028093790290937A028091271483FDB7
:1046900028C080913409882321F12091870230912C
:1046A00088024091890250918A0260912312709190
:1046B000241280912512909126120F94DA6620918F
:1046C00041093091420940914309509144090F94A6
:1046D000DB6660934109709342098093430990938C
:1046E0004409CF911F910F91FF90EF90DF90CF90F1
:1046F000BF90AF907F906F905F904F900895F601BC
:104700002081318142815381C301B2010F94DA6665
:104710006ACFF80180819181A281B381F701808302
:104720009183A283B38364CF8091870290918802A2
:10473000A0918902B0918A0280932312909324124F
:10474000A0932512B093261283CFAF92BF92CF923F
:10475000DF92EF92FF920F931F93CF935C016B0157
:104760008A018958984F7C01DC01CC91C7FF3DC07C
:10477000FB0111821082CF5FD701CC93CC300CF0BB
:1047800053C08CE08A9DF0018B9DF00D1124CF0168
:104790008C0F911DC7FD9A952091CE1928171906E7
:1047A00009F00CF441C0F60120813181FC01EE0FCB
:1047B000FF1FE80FF91FEA57F64E81819281820FA1
:1047C000931FD80111969C938E93808187FF3DC0E3
:1047D00061E08F77CF911F910F91FF90EF90DF9065
:1047E000CF90BF90AF900D94872A8CE08A9DF00106
:1047F0008B9DF00D1124CF018C0F911DC7FD9A9553
:104800002091CE192817190609F00CF4B4CFFC0139
:10481000EE0FFF1FE80FF91FEA57F64E808160E0A8
:104820008F770F94872AA7CFF60180819181049614
:104830008034FCE99F0710F480E49CE9D8011196CC
:104840009C938E938FEFF7018083CF911F910F91EF
:10485000FF90EF90DF90CF90BF90AF900895809140
:104860004809811103C081E00E942BF080E0089587
:104870008F929F92AF92BF92CF92DF92EF92FF9270
:104880000F931F93CF93DF93109213081092120887
:104890002FE3209317081092160810921508109213
:1048A000140810920E0810920F081092100810921F
:1048B00011089C01F90190812F5F3F4F9032D1F395
:1048C0009E34C9F4818190ED980F9A3020F08D329A
:1048D00011F08B3281F432969F012F5F3F4F808120
:1048E00080538A3008F47BC09F012F5F3F4F808147
:1048F000803209F476C0F0931517E09314178F01F6
:104900000F5F1F4FC0816AE270E0C8010F94296AEF
:10491000009731F0FC01319780818032E1F3118200
:10492000CD3429F0C43519F0C73409F04BC0F80173
:1049300080810F5F1F4F8032D1F380538A3008F09F
:1049400041C0C093170830E020E04AE0DF01119633
:10495000429FC001439F900D11249C0120533109B7
:104960008081280F311D87FD3A95818190ED980F48
:104970009A30C8F130931608209315088E3261F4EE
:10498000329690E04AE0DF0131968C9150ED580F5D
:104990005A3058F190931408CD01DC0101964C91E6
:1049A0004032D9F3CD3489F52E31310539F018F57F
:1049B0002731310519F02C31310539F5B093130841
:1049C000A0931208DF91CF911F910F91FF90EF906C
:1049D000DF90CF90BF90AF909F908F900895F90196
:1049E0007BCFF90181CFFD01B1CF949F800D1124C0
:1049F00090ED980FC8CF2537310538F027373105AE
:104A0000E8F2203A83E03807C9F2D091141740E069
:104A100050E0BA0110E000E0C12CD12C7601C39423
:104A2000FD0131968C91882309F47FC08132E1F435
:104A3000CD34D1F420323105B9F440930E085093AF
:104A40000F086093100870931108F0931308E09317
:104A5000120863E270E0CF010F94296A009709F40D
:104A6000B1CFFC011082AECF81548A3108F058C01A
:104A7000DF019D91903291F0A0EDA90FAA30E8F0EE
:104A80009E3271F4918190539A30B8F0011511055E
:104A900019F48F010150110990E013C0FD01E8CF16
:104AA0009D3211F09B3291F79181A0EDA90FAA30B0
:104AB00020F09E3259F79281E6CF9E2F9D1B3097B2
:104AC00059F3A82FB0E04601570104C0880C991C87
:104AD000AA1CBB1C8A95D2F7482959296A297B2927
:104AE000AC50B84F9C9380818154DF018A3108F427
:104AF00097CFDF018191882309F492CF90ED980F31
:104B00009A30B8F393ED980F923098F38B3289F383
:104B1000CD010196EC91E03209F082CFDC01F8CFB3
:104B20000115110501F78D01DECF109313080093D5
:104B3000120840930E0850930F086093100870936A
:104B4000110840CF0F931F93CF93DF93C82FD0E06E
:104B5000FE01EE0FFF1FE45DFD4F71836083CC0FFC
:104B6000DD1FCC0FDD1F8E01095B1D4F072E000CD2
:104B7000880B990B0F94FE5F2AE037ED43E25CE36C
:104B80000F945D60C956D54F288139814A815B8178
:104B90000F945D60F8016083718382839383DF915A
:104BA000CF911F910F910895682F880F770B880B75
:104BB000990B0D94181880914809882319F080E00A
:104BC0000E942BF080E00895682F70E090E080E074
:104BD0000D9418189B01AC01485F5F4FBC016C5FDE
:104BE0007F4F0C940B202F923F924F925F926F92C7
:104BF0007F928F929F92AF92BF92CF92DF92EF926D
:104C0000FF920F931F93CF93DF93CDB7DEB7A69795
:104C10000FB6F894DEBF0FBECDBF8C011B015A87C3
:104C2000498740907B0250907C0260907D0270909A
:104C30007E0280907F0290908002A0908102B090CE
:104C40008202DB018D919D910D90BC91A02D8B8BEB
:104C50009C8BAD8BBE8B9C01AD01C301B2010F9447
:104C6000DA666B017C01D10114968D919D910D90B6
:104C7000BC91A02D8F8B988FA98FBA8F9C01AD010D
:104C8000C501B4010F94DA666B8F7C8F8D8F9E8F78
:104C9000A985BA858D919D910D90BC91A02D8B8792
:104CA0009C87AD87BE879C01AD01C301B2010F9403
:104CB000DA666F8F78A389A39AA3A985BA8514961B
:104CC0008D919D910D90BC91A02D8F87988BA98B74
:104CD000BA8B9C01AD01C501B4010F94DA666BA3D8
:104CE0007CA38DA39EA3A7019601C701B6010F94D3
:104CF0005D606B017C012B8D3C8D4D8D5E8DCA01FD
:104D0000B9010F945D609B01AC01C701B6010F941E
:104D1000DB664B015C012B893C894D895E896B8583
:104D20007C858D859E850F94DA662B013C012F8949
:104D3000388D498D5A8D6F85788989899A890F9424
:104D4000DA666B017C01A3019201C301B2010F94E9
:104D50005D602B013C01A7019601C701B6010F94CC
:104D60005D609B01AC01C301B2010F94DB660F943F
:104D700089696B017C012F8D38A149A15AA1CA0113
:104D8000B9010F945D602B013C012BA13CA14DA109
:104D90005EA1CA01B9010F945D609B01AC01C30122
:104DA000B2010F94DB669B01AC01C501B4010F9405
:104DB0003B691816B4F520E030E0A901C701B6013F
:104DC0000F943B6987FF2AC0C701B601905820E0C5
:104DD00030E040EA50E40F943B69181614F5A10145
:104DE00069857A85C8010E94F325A6960FB6F894C6
:104DF000DEBF0FBECDBFDF91CF911F910F91FF900E
:104E0000EF90DF90CF90BF90AF909F908F907F906A
:104E10006F905F904F903F902F900895C701B6011B
:104E2000D6CF20E030E040E050E4C501B4010F945B
:104E30003B69181624F4B101C8010E94402119826F
:104E40001A821B821C82BE016F5F7F4FC1010E94CC
:104E5000EA252DEC3CEC4CEC5CE3C701B6010F9469
:104E60005D609B01AC01F801608171818281938159
:104E70000F945D606D837E838F839887D8019B96A6
:104E80008C919B978823C9F02AE939E949E95FE3C6
:104E900014966D917D918D919C9117970F945D6003
:104EA00069837A838B839C83BE016F5F7F4F87E129
:104EB00092E10E94EA25F80113A6BE016B5F7F4FC5
:104EC00089859A850E94EA2590CF4F925F926F92D2
:104ED0007F928F929F92AF92BF92CF92DF92EF928A
:104EE000FF920F931F93CF93DF93CDB7DEB76897F1
:104EF0000FB6F894DEBF0FBECDBF7C01FB018081F1
:104F0000C42EC80EF4E0FC1508F4B6C0FB01D18035
:104F1000022F0D0D053008F0AFC0ED2DF0E0E65288
:104F2000F84FE081F0E0082E02C0F595E7950A946D
:104F3000E2F7E0FFA1C0E02FF0E0E652F84FE08199
:104F4000F0E00C2C02C0F595E7950A94E2F7E0FF3B
:104F500093C0122F742E0E946F1E4B015C01672DAF
:104F6000660F770B072E000C880B990B0F94FE5FD2
:104F70002B013C01AC019B01C501B4010F94DB6620
:104F80006D877E878F87988B8C2D0E946F1EA30163
:104F900092010F94DA6669837A838B839C838D2DCB
:104FA0000E94541E4B015C01612F660F770B072E88
:104FB000000C880B990B0F94FE5F2B013C01AC0198
:104FC0009B01C501B4010F94DB66698B7A8B8B8BD7
:104FD0009C8B802F0E94541EA30192010F94DA66CD
:104FE0006D837E838F839887F70180859185A28565
:104FF000B38589879A87AB87BC878D8B9E8BAF8B58
:10500000B88F46E752E061E070E0CE0141960E9421
:1050100098CD46E752E061E070E0CE0105960E942F
:1050200098CD4CE552E06CEC7FEFCE010D960E94DE
:1050300098CD4CE552E06CEC7FEFCE0101960E94DA
:1050400098CDBE016F5E7F4FCE010D960E94D6EDCA
:10505000882391F0BE016B5F7F4FCE0101960E94C5
:10506000D6ED882349F0AE014F5F5F4FBE01635F0D
:105070007F4FC7010E94F32568960FB6F894DEBFF4
:105080000FBECDBFDF91CF911F910F91FF90EF9099
:10509000DF90CF90BF90AF909F908F907F906F9058
:1050A0005F904F9008958F929F92AF92BF92CF9250
:1050B000DF92EF92FF92CF93DF93CDB7DEB7609789
:1050C0000FB6F894DEBF0FBECDBF80E090E0ABE935
:1050D000B3E48D839E83AF83B8878D879E87AF8728
:1050E000B88BE091DE19F091DF1980809180A28069
:1050F000B38020E030E044E552E4C501B4010F94F0
:10510000DA666B017C0120E030E040E751E40F9467
:10511000F75F87FF06C0C12CD12C90E7E92E91E400
:10512000F92EC982DA82EB82FC8220E030E447E18A
:1051300054E4C501B4010F94DB666B017C0120E0EF
:1051400030E843E154E40F943B6918163CF4C12C59
:1051500080E8D82E83E1E82E84E4F82EC986DA862A
:10516000EB86FC8680E1FE013196A8E3B8E0019071
:105170000D928A95E1F760960FB6F894DEBF0FBEE8
:10518000CDBFDF91CF91FF90EF90DF90CF90BF9098
:10519000AF909F908F900895E1E5F4E187EBDF01F8
:1051A0001D928A95E9F708958091F611811104C046
:1051B0000E94CC280C94BBC28091C31B82FF09C003
:1051C00087FD07C040E060E070E080E090E40D946F
:1051D000111E089580915114882361F09091071554
:1051E000891308C08091C31B84FF04C084E994E143
:1051F0000C94CA9C80E00895FC01238121110C9439
:1052000015990895AC018091261481110AC020914E
:105210000D0230910E022350310981E042175307ED
:105220000CF080E0089597E1899FF0011124E95086
:10523000F74E20E030E040E05FE3648175818681D5
:1052400097810F94DB660F944768CB010C94022979
:10525000CF93DF93C091E818D091E918209729F1F6
:105260006091E4187091E5188091E6189091E71824
:105270000F9447686E5F7F4F24976C177D07ACF4DF
:1052800070937D0860937C080F94E82A605A7541FA
:105290008F4F9F4F60937E0870937F0880938008A4
:1052A00090938108DF91CF91089510927E0810921B
:1052B0007F081092800810928108F4CF0F931F93FB
:1052C000CF93DF93082F10E097E1899FF00111241D
:1052D000E950F74EC085D185209729F16481758109
:1052E000868197810F9447686E5F7F4F26976C1772
:1052F0007D07CCF486E0809FE001819FD00D1124D2
:10530000CE57D74F798368830F94E82A605E714B3C
:105310008F4F9F4F6A837B838C839D83DF91CF91D7
:105320001F910F91089586E0809FF001819FF00DFD
:105330001124EE57F74F1282138214821582EECF9A
:1053400095E0899FF0011124E558FD4E10821182ED
:105350001282138214820C945E29CF93C1E020E064
:1053600030E0A9016091D10A7091D20A8091D30AEC
:105370009091D40A0F94F75F811101C0C0E08C2F87
:10538000CF910895CF93C82F882321F00E94AD2993
:105390008823C9F080912D148C17A9F00E9431CE7A
:1053A0008BE792E00E9454CE80912D1491E08927E2
:1053B00080932D14882321F08BE792E00E94FACC91
:1053C000CF910C9496E7CF9108958F929F92AF92D0
:1053D000BF92EF92FF920F931F93CF93DF9380E0E2
:1053E0000E94C2291092CD0A1092CE0A1092CF0AC2
:1053F0001092D00A1092C90A1092CA0A1092CB0ACF
:105400001092CC0A1092D50A1092D60A1092D70A9E
:105410001092D80A1092D10A1092D20A1092D30A8E
:105420001092D40A02EB12E1C0E0812C912C80ECA6
:10543000A82E8FE7B82E7801D0E0F70181929192E3
:10544000A192B1927F016D2F8C2F0F94AD21DF5F60
:10545000D53099F7CF5F0C5E1F4FC53061F7DF91F4
:10546000CF911F910F91FF90EF90BF90AF909F90C1
:105470008F9008954F925F926F927F928F929F923A
:10548000AF92BF92CF92DF92EF92FF920F931F9352
:10549000CF93DF93EC012091C90A3091CA0A409161
:1054A000CB0A5091CC0A688179818A819B810F94C3
:1054B000DA666B017C012091CD0A3091CE0A4091D1
:1054C000CF0A5091D00A6C817D818E819F810F948B
:1054D000DA664B015C01A70196016091CE077091DD
:1054E000CF078091D0079091D1070F94F75F882361
:1054F00009F450C0C092CE07D092CF07E092D007F7
:10550000F092D1072091C6073091C7074091C80794
:105510005091C907C701B6010F945D602B013C0192
:105520000F947D686B017C0120E030E0A9010F94AD
:10553000F75F87FD70C020E030E040E450E4C70131
:10554000B6010F943B6918162CF4C12CD12CC0E481
:10555000EC2EFE2CA7019601C301B2010F94DA666E
:105560006093BE077093BF078093C0079093C107F5
:10557000C701B6010F9447686093BC07062E000C64
:10558000770B6F5F7F4F6430710514F064E070E05B
:105590006093BA07D091B8071091BC07A501940198
:1055A0006091D2077091D3078091D4079091D5076D
:1055B0000F94F75F811133C0D11381C02091A007F0
:1055C0003091A1074091A2075091A3076091BE07B7
:1055D0007091BF078091C0079091C1070F945D60E3
:1055E0002091A4073091A5074091A6075091A707E5
:1055F0000F94DB66DF91CF911F910F91FF90EF9099
:10560000DF90CF90BF90AF909F908F907F906F90E2
:105610005F904F900895C12CD12C76019BCF809242
:10562000D2079092D307A092D407B092D5072091C9
:10563000CA073091CB074091CC075091CD07C501E7
:10564000B4010F945D604B015C010F947D686B01A8
:105650007C0120E030E0A9010F94F75F87FDF3C0E3
:1056600020E030E040E450E4C701B6010F943B690C
:1056700018162CF4C12CD12CB0E4EB2EFE2CA70173
:105680009601C501B4010F94DA666093C207709366
:10569000C3078093C4079093C507C701B6010F9451
:1056A00047686093BD07062E000C770B6F5F7F4F36
:1056B0006430710514F064E070E06093BB07C09142
:1056C000BD07D11305C08091B9078C1709F470C0CC
:1056D0008091BC079091BD079093B9078093B8075C
:1056E0000C2E000CDD0B25E01203C0011124FC017F
:1056F000EC0FFD1FEE0FFF1FEE0FFF1FEE54FD4ED0
:1057000020813181428153812093B4073093B507C2
:105710004093B6075093B7070091BB07002E000CCB
:10572000110BFC01E00FF11FEE0FFF1FEE0FFF1F2B
:10573000EE54FD4E60817181828193810F94DA660F
:105740006093B0077093B1078093B2079093B3074B
:105750002091BA0735E02303F0011124CE0FDF1F9B
:10576000CC0FDD1FCC0FDD1FCE54DD4E28813981DB
:105770004A815B812093AC073093AD074093AE071D
:105780005093AF07E00FF11FEE0FFF1FEE0FFF1F4B
:10579000EE54FD4E60817181828193810F94DA66AF
:1057A0006093A8077093A9078093AA079093AB070B
:1057B0008090C2079090C307A090C407B090C5071F
:1057C0002091B0073091B1074091B2075091B307D3
:1057D000C501B4010F945D602091B4073091B50705
:1057E0004091B6075091B7070F94DB666B017C01BF
:1057F000C092A407D092A507E092A607F092A7074F
:105800002091A8073091A9074091AA075091AB07B2
:10581000C501B4010F945D602091AC073091AD07D4
:105820004091AE075091AF070F94DB66A701960138
:105830000F94DA666093A0077093A1078093A20784
:105840009093A307BBCEC12CD12C760118CFEEECE0
:10585000F7E080EF9FEFA9E7B4EC84839583A683FC
:10586000B78380839183A283B383E8EBF7E08DE96C
:105870008183808308958F929F92AF92BF92CF923F
:10588000DF92EF92FF92FC0198E0A1EDBAE0019067
:105890000D929A95E1F788E0FB01A9ECBAE001903E
:1058A0000D928A95E1F7C090D10AD090D20AE0908B
:1058B000D30AF090D40A20E030E0A901C701B60174
:1058C0000F94F75F8823E1F1A701960160E070E093
:1058D00080E89FE30F94D5676B017C018090D50A27
:1058E0009090D60AA090D70AB090D80A20E030E075
:1058F000A901C501B4010F94F75F882329F1A5011F
:10590000940160E070E080E89FE30F94D567C09257
:10591000C607D092C707E092C807F092C907609304
:10592000CA077093CB078093CC079093CD07FF9065
:10593000EF90DF90CF90BF90AF909F908F900895A1
:10594000C12CD12C7601CACF60E070E0CB01DFCF53
:10595000CF92DF92EF92FF920F931F93CF93DF933B
:10596000833009F452C0C82FD0E08E01000F111F00
:10597000000F111FF801E156F54FC080D180E28081
:10598000F3802091AB0A30E002C0359527958A95C7
:10599000E2F720FD10C066277727CB016C197D093F
:1059A0008E099F09DF91CF911F910F91FF90EF908A
:1059B000DF90CF9008956091130270E090E080E056
:1059C0000F94FC5F20E030E04FE753E40F94D5677D
:1059D0009058F801E65EF74F208131814281538172
:1059E0000F945D60CC0FDD1FCC0FDD1FC15CDD4E61
:1059F000288139814A815B810F945D600F944768EB
:105A00006C197D098E099F09CDCF60E070E0CB0154
:105A1000C9CF4F925F926F927F928F929F92AF9277
:105A2000BF92FF920F931F93CF93DF938C01CFE927
:105A3000DAE0F12C8F2D0E94A82CF80141905190B2
:105A4000619071908F0189909990A990B990FE0111
:105A500034976419750986099709860E971EA81E42
:105A6000B91E80829182A282B382F394F3E0FF1286
:105A7000E1CFDF91CF911F910F91FF90BF90AF9039
:105A80009F908F907F906F905F904F9008958F922E
:105A90009F92AF92BF92CF92DF92EF92FF920F93BD
:105AA0001F93CF93DF93CDB7DEB72C970FB6F89443
:105AB000DEBF0FBECDBF182F4A015B01CE0101969C
:105AC0007C0100E06C01802F0E94A82CF7016193FB
:105AD0007193819391937F010F5F0330A1F784E06D
