:100000000C94EB200C942B210C942B210C942B2181
:100010000C942B210C942B210C942B210C942B2130
:100020000C942B210C942B210C942B210C942B2120
:100030000C942B210C942B210C942B210C942B2110
:100040000C942B210C94849F0C942B210C942B2129
:100050000C942B210C945B920C942B210C94948186
:100060000C942B210C94DF420C94D5420C942B2140
:100070000C942B210C942B210C942B210C942B21D0
:100080000C943B2E0C942B210C942B210C942B21A3
:100090000C942B210C942B210C942B210C942B21B0
:1000A0000C942B210C942B210C940D2E0C942B21B1
:1000B0000C942B210C942B210C942B210C942B2190
:1000C0000C942B210C942B210C942B210C94042F99
:1000D0000C94CE2E0C942B210C942B210C942B21C0
:1000E0000C942B21084AD73B3BCE016E84BCBFFD4C
:1000F000C12F3D6C74319ABD56833DDA3D00C77FF8
:1001000011BED9E4BB4C3E916BAAAABE0000008090
:100110003F05A84CCDB2D44EB93836A9020C50B91F
:10012000918688083CA6AAAA2ABE000000803F004B
:100130000C9411ED0C9400D70D94EE2D0D94F1302C
:100140000C94EF450C9486770C9445770C9480774B
:100150000C94B52F0C9490780C9429D80C942546C7
:100160000C9472770C940A2C0C94DFD70C94E27EDA
:100170000C9464770C94A5FD0C9462450C94802F2C
:100180000C9496FD0C942E2C0D94AA2B0C94BE4529
:100190000C946E770C9415ED0C9425D70D942E2CA1
:1001A0000C9481EC0C9483450C94A2FD0C9479433F
:1001B0000C946C450C94C57E0C94502C0C949A2F86
:1001C0000C9487EC0C9430450C9493FD0C94577769
:1001D0000C94C02F0D94E5300C94712F0C949E2F2D
:1001E0000C946CEC0C942C2C0C947C770C946A770B
:1001F0000D94262D0C9475EC0D94B82D0D94EF2CC8
:100200000C94062C0D94C62C0C9491460D94DD2D67
:100210000C9468450C9478EC0C94BAD70C94422F4B
:100220000C94AE2F0C944F770D943A2D0C94C980FA
:100230000C943F460C9496EE0C94C7EC0C947945C4
:100240000C9490430C948A450C946F450D944B315B
:100250000C948F2F0C94A8FD0C948A770C94522C3C
:100260000C945B450C9476450C94DBD60C940B46B1
:100270000D94C12D0C9472EC0C9467800C94804505
:100280000C949B430C94417F0C94ABFD0C9404D8CC
:100290000C9484460C94962F0C9481430C94AB469A
:1002A0000D9415310D94592D0C942A2C0C941D434A
:1002B0000D943C310D94CA2D0C94A3430C9460779B
:1002C0000C946CEE0C947BEC0C94E42B0C94874512
:1002D0000C946A430C9489430C9473450C9478777E
:1002E0000C9469EC0C9465450D94E32D0C948543B6
:1002F0000C94082C0D9424310C948F780C9490FD60
:100300000C94AA2F0D946D3D0C9469460C94537770
:100310000C947D450D94BA2A0C9495D70D94A62D76
:100320000D94032D0C9484EC0C948A7F0D94582C1E
:100330000C940D780C944B770C94C62B0C949CFD6C
:100340000C945E450C94DDEE0C9485770C947D4303
:100350000C9419460C949FFD0C9471430D94F92A4A
:100360000D9430310C947EEC0C94ABEE0C94AEFDFD
:100370000C9477460D94E12D0C94A6800D94D32D0A
:100380000C94E97F0C94E62B0C945B460C945B4335
:100390000C944D460C946FEC0C94E5450C948BFD3D
:1003A0000C944E2C0C945A770D94AF2D0C94FD4563
:1003B0000C9499FD0C94A62F0C9436EC0C94798037
:1003C0000C9470D70C94A22F0C949E460D948B3DE8
:1003D0000C94C82F0C9431460C94CE7F0C9475432A
:1003E0000C944C430C942B450C94BA2B0C9499D63A
:1003F0000D949B2D4E414E494E495459494E46CD80
:10040000CCCC3D0AD7233C17B7D13877CC2B3295CB
:1004100095E6241FB14F0A000020410000C84200A9
:10042000401C4620BCBE4CCA1B0E5AAEC59D740073
:10043000407A10F35A00A0724E18090010A5D4E8B3
:100440000000E87648170000E40B54020000CA9A46
:100450003B000000E1F50500008096980000004098
:10046000420F000000A086010000001027000000DD
:1004700000E803000000006400000000000A000023
:100480000000000100000000002C76D888DC674FD7
:100490000823DFC1DFAE59E1B1B796E5E3E453C607
:1004A0003AE651997696E8E6C28426EB898C9B62FF
:1004B000ED407C6FFCEFBC9C9F40F2BAA56FA5F4A9
:1004C00090055A2AF75C936B6CF9676DC11BFCE0D1
:1004D000E40D47FEF520E6B500D0ED902E03009424
:1004E0003577050080841E080000204E0A000000B9
:1004F000C80C333333330F986E12831141EF8D21C3
:1005000014893BE65516CFFEE6DB18D1844B381B29
:10051000F77C1D901DA4BBE424203284725E2281EE
:1005200000C9F124ECA1E53D275A325F53544550F0
:100530005F50494E005A325F454E41424C455F5034
:10054000494E005A325F4449525F50494E005A5F4B
:1005500053544F505F50494E005A5F535445505FBB
:1005600050494E005A5F4D494E5F50494E005A5F08
:10057000454E41424C455F50494E005A5F444952F6
:100580005F50494E00595F53544F505F50494E00E1
:10059000595F535445505F50494E00595F4D415883
:1005A0005F50494E00595F454E41424C455F5049AE
:1005B0004E00595F4449525F50494E00585F5354B2
:1005C0004F505F50494E00585F535445505F50495B
:1005D0004E00585F4D41585F50494E00585F454EA0
:1005E00041424C455F50494E00585F4449525F506C
:1005F000494E00535549434944455F50494E0053C5
:100600004552564F335F50494E00534552564F3274
:100610005F50494E00534552564F315F50494E008E
:10062000534552564F305F50494E00534453530088
:1006300053445F4445544543545F50494E004D4F29
:10064000534645545F435F50494E004D4F53464516
:10065000545F425F50494E004D4F534645545F41F1
:100660005F50494E0054454D505F305F43535F50DB
:10067000494E004C45445F50494E00484541544561
:10068000525F4245445F50494E00484541544552EF
:100690005F305F50494E0046494C5F52554E4F55B2
:1006A000545F50494E0046414E5F50494E0045311F
:1006B0005F535445505F50494E0045315F454E41B0
:1006C000424C455F50494E0045315F4449525F50AE
:1006D000494E0045315F43535F50494E0045305FFE
:1006E000535445505F50494E0045305F454E41429E
:1006F0004C455F50494E0045305F4449525F504978
:100700004E004245455045525F50494E00415652B9
:100710005F53535F50494E004156525F53434B5F06
:1007200050494E004156525F4D4F53495F50494E1C
:10073000004156525F4D49534F5F50494E0054455A
:100740004D505F4245445F50494E0054454D505F07
:10075000315F50494E0054454D505F305F50494E17
:100760000046494C57494454485F50494E0054583C
:1007700044320052584432005458443000525844D5
:100780003000434F4D4D554E49434154494F4E0063
:1007900044525952554E004552524F525300494E01
:1007A000464F004543484F004572726F7220777282
:1007B0006974696E6720746F20454550524F4D2112
:1007C0000A00363726033C3D380E2E303E122422D6
:1007D0001E1A1C180A43090844000153544F505074
:1007E00045442E20005072696E7465722073746FD8
:1007F000707065642064756520746F206572726F17
:1008000072732E2046697820746865206572726F55
:100810007220616E6420757365204D3939392074FA
:100820006F20726573746172742E202854656D7028
:100830006572617475726520697320726573657481
:100840002E2053657420697420616674657220726D
:10085000657374617274696E67290A004E6F204374
:100860006865636B73756D2077697468206C696E59
:1008700065206E756D6265722C204C617374204C1E
:10088000696E653A20004E6F20436865636B73752F
:100890006D2077697468206C696E65206E756D6275
:1008A00065722C204C617374204C696E653A20008F
:1008B000636865636B73756D206D69736D617463D7
:1008C000682C204C617374204C696E653A20004C92
:1008D000696E65204E756D626572206973206E6F5A
:1008E00074204C617374204C696E65204E756D6286
:1008F00065722B312C204C617374204C696E653A03
:1009000020004D3131300053657269616C20737481
:1009100061747573206D69736D617463680A007723
:100920006169740A005344207265616420657272C3
:100930006F720A002121204B494C4C206361757372
:10094000656420627920746F6F206D75636820691B
:100950006E6163746976652074696D65202D20630E
:10096000757272656E7420636F6D6D616E643A208E
:1009700000486F74656E642049646C652054696D2D
:10098000656F757400486F74656E642049646C65AA
:100990002054696D656F75740A003D3D6F6E466940
:1009A0006C616D656E7452756E6F75743D3D00704F
:1009B00061757365004D363030002066696C616D7D
:1009C000656E745F72756E6F7574200066696C6118
:1009D0006D656E745F72756E6F7574205400466934
:1009E0006C616D656E7452756E6F75742054004D38
:1009F000313030305300627573793A20706175730D
:100A0000656420666F7220696E7075740A00627585
:100A100073793A2070617573656420666F72207512
:100A20007365720A00627573793A2070726F63653C
:100A30007373696E670A0025533A202553002A2AEA
:100A40002A6B696C6C2A2A2A00706F7765726F6650
:100A500066004B494C4C45442E20005072696E7420
:100A600065722068616C7465642E206B696C6C28FB
:100A7000292063616C6C6564210A0053544F505007
:100A800045442E20005072696E7465722073746F35
:100A9000707065642064756520746F206572726F74
:100AA00072732E2046697820746865206572726FB3
:100AB0007220616E6420757365204D393939207458
:100AC0006F20726573746172742E202854656D7086
:100AD00065726174757265206973207265736574DF
:100AE0002E205365742069742061667465722072CB
:100AF000657374617274696E67290A006563686F53
:100B00003A004572726F723A0042696C696E6561B3
:100B100072204C6576656C696E6720477269643A2D
:100B20000A0021212053544F502063616C6C65648E
:100B30002062656361757365206F6620424C546F57
:100B4000756368206572726F72202D2072657374F0
:100B50006172742077697468204D3939390A00212F
:100B6000212053544F502063616C6C656420626592
:100B70006361757365206F6620424C546F756368BE
:100B8000206572726F72202D2072657374617274A9
:100B90002077697468204D3939390A002F2F616335
:100BA00074696F6E3A006E6F746966696361746927
:100BB0006F6E200070726F6D70745F00656E640000
:100BC000486F74656E6420746F6F20636F6C640A85
:100BD0000053656E64204D31303820746F2072658B
:100BE00073756D650A00496E736572742066696C71
:100BF000616D656E7420616E642073656E64204D56
:100C00003130380A0052656865617420446F6E6542
:100C100000526568656174696E672E2E2E005265FC
:100C200068656174004865617465722054696D651A
:100C30006F75740053656E64204D31303820746FC9
:100C40002068656174206E6F7A7A6C650A004E6F59
:100C50007A7A6C65205061726B656400706175739F
:100C60006564005061757365004F46460A00466131
:100C70006465204865696768742000426564204C9B
:100C80006576656C696E6720004661696C656420F5
:100C9000746F20656E61626C6520426564204C65EE
:100CA00076656C696E670A00496E76616C696420CE
:100CB0006D6573682E0A0050726F62696E6720500E
:100CC0006F696E740025532025692F2569002E0A4F
:100CD000002F0050726F62696E67206D6573682027
:100CE000706F696E742000202844525952554E2965
:100CF00000473239204175746F20426564204C658D
:100D000076656C696E67003F20284C2C522C462C6F
:100D10004229206F7574206F6620626F756E647350
:100D20002E0A003F2856296572626F7365206C6534
:100D300076656C20696D706C61757369626C652095
:100D400028302D34292E0A00426164205A20766111
:100D50006C75650A004E6F2062696C696E65617220
:100D600020677269640A0041636375726163792068
:100D700044656372656173696E67210044656372DF
:100D8000656173696E672041636375726163792081
:100D900044657465637465642E0A00473238004701
:100DA00032385A0041636375726163793A200020DA
:100DB0006F66200044696420004733342061626F0D
:100DC000727465642E0A00416363757261637920F1
:100DD0004163686965766564005461726765742073
:100DE00061636375726163792061636869657665C3
:100DF000642E0A00313A323D2573000A5A322D5AC8
:100E0000313D0050726F62696E67204661696C65A2
:100E1000640050726F62696E67206661696C656418
:100E20000A0047333420497465726174696F6E3A01
:100E3000202569000A47333420497465726174695A
:100E40006F6E3A20003F2841296D706C69666963B6
:100E50006174696F6E206F7574206F6620626F75A4
:100E60006E64732028302E352D322E30292E0A0044
:100E70003F285429617267657420616363757261EC
:100E80006379206F7574206F6620626F756E64736E
:100E90002028302E30312D312E30292E0A003F28C7
:100EA00049297465726174696F6E206F7574206F63
:100EB0006620626F756E64732028312D3330292EC1
:100EC0000A003F285929206F7574206F6620626FD1
:100ED000756E64732E0A003F285829206F757420A0
:100EE0006F6620626F756E64732E0A0020696E64EF
:100EF000657820696E76616C69642028312E2E3207
:100F0000292E0A003F2853292050726F62652D70E8
:100F10006F736974696F6E003F28532920697320CD
:100F200072657175697265642E0A0020204D343235
:100F3000322053005A204175746F2D416C69676EE1
:100F40000020440020204D3230302053002028441F
:100F5000697361626C6564293A0046696C616D650C
:100F60006E742073657474696E67730020204D324F
:100F700030312058004D617820416363656C6572A3
:100F80006174696F6E2028756E6974732F733229CE
:100F90000020204D3230332058004D6178206665A6
:100FA000656472617465732028756E6974732F733C
:100FB000290020520020204D32303420500041635F
:100FC00063656C65726174696F6E2028756E6974F3
:100FD000732F7332292028503C7072696E742D6112
:100FE0006363656C3E20523C726574726163742D5C
:100FF000616363656C3E20543C74726176656C2D50
:10100000616363656C3E29005741524E494E47214A
:10101000204C6F77205A204A65726B206D617920D1
:101020006C65616420746F20756E77616E746564A1
:10103000207061757365732E0A00205400205300E0
:1010400020204D323035204200416476616E636568
:10105000642028423C6D696E5F7365676D656E74D0
:101060005F74696D655F75733E20533C6D696E5F9B
:1010700066656564726174653E20543C6D696E5F9F
:1010800074726176656C5F66656564726174653EF5
:1010900020583C6D61785F6A65726B3E20593C6DEB
:1010A00061785F6A65726B3E205A3C6D61785F6A59
:1010B00065726B3E20453C6D61785F6A65726B3E80
:1010C000290020440020490020204D333031205099
:1010D00000486F74656E642050494400204400202D
:1010E000490020204D3330342050004265642050A8
:1010F00049440050574D3A20202534640050574D44
:101100003A20202534640050574D3A20202534647D
:101110000050574D3A20202534640050574D3A2056
:10112000202534640050574D3A2020253464005067
:10113000574D3A20202534640050574D3A20202541
:1011400034640050574D3A20202534640050574DE8
:101150003A20202534640050574D3A20202534642D
:101160000050574D3A20202534640050574D3A2006
:10117000202534640050574D3A2020253464005017
:10118000574D3A20202534640050574D3A202025F1
:101190003464003A200020202020434F4D002020BE
:1011A000206E6F6E2D7374616E646172642050578F
:1011B0004D206D6F646500202020636F6D7061723B
:1011C0006520696E7465727275707420656E6162F7
:1011D0006C6564002020206F766572666C6F7720E6
:1011E000696E7465727275707420656E61626C658B
:1011F00064003A20002020202054494D534B0042E7
:101200003A2000202020205443435200413A20003D
:101210002020202054434352002020202043533AD2
:1012200020002020202057474D3A200050574D3AAB
:1012300020202534640050574D3A20202534640086
:1012400047004800000088008A008C00B300B4000A
:10125000000098009A009C00A800AA00AC00280199
:101260002A012C012020202054494D4552004400E1
:1012700045006E00800081006F00B000B10070007A
:10128000900091007100A000A100720020012101D6
:10129000730020697320616C736F2074696564202A
:1012A000746F20746869732070696E0054494D45ED
:1012B000523143000A202E002020002020506F725F
:1012C000743A200020202000202020416E616C6FA5
:1012D0006720696E203D2025356C64003C756E7575
:1012E0007365642F756E6B6E6F776E3E00202841BC
:1012F00025326429202000253364200050494E3ACD
:1013000020004F7574707574203D2000496E707513
:101310007420203D2000416E616C6F6720696E2053
:101320003D2025356C640070726F7465637465646C
:101330002000202841253264292020002533642004
:101340000050494E3A20007D0700017807010173E3
:101350000711016E07100161073B00560743004B60
:101360000745003E074400310732012407330118C6
:101370000734010D07350102072501F7061C01E9B5
:10138000061801DD061A01D3062C01C8062201BA8F
:10139000061E01AE062401A6060901970602018A6F
:1013A000060A017B06080173060D01650642015815
:1013B000060A014B0607013E060801300631012BE3
:1013C00006350120060B01150606010A060501FF78
:1013D000050401F3050C01E9053701DC052601D2FE
:1013E000050301C7053601BC050301B2053D01A592
:1013F0000538019B050E0190053C0185050E017B1A
:101400000530016E053E016405120159052E014E9D
:101410000512014305220135051E01290524014459
:101420006F6E652E0A0050756C73696E6720202000
:1014300000556E746F7563686564200066616C7337
:1014400065004641494C3A204E6F207472696767C7
:1014500065722064657465637465640A0046414979
:101460004C3A204E6F6973652064657465637465DA
:1014700064202D20706C656173652072652D727516
:101480006E20746573740A00206465746563746506
:10149000642E0A003D20424C546F756368207072C0
:1014A000652056332E3120286F7220636F6D706176
:1014B0007469626C6529003D205A20536572766F0D
:1014C0002050726F6265003D20424C546F75636816
:1014D0002056332E310020282B2F2D20346D7329D8
:1014E0003A20003A2033306D73206F72206D6F7296
:1014F000650A002E2050756C7365207769647468E6
:10150000002A2A20506C65617365207472696767D0
:1015100065722070726F62652077697468696E20E9
:10152000333020736563202A2A0A004641494C3A29
:1015300020424C544F55434820656E61626C65648F
:10154000202D2053657420757020746869732064A1
:101550006576696365206173206120536572766FDB
:101560002050726F6265207769746820494E564535
:101570005254494E472073657420746F202774724B
:101580007565272E0A0020204445504C4F5945448C
:101590002073746174653A204C4F5720286C6F6734
:1015A00069632030290020204445504C4F59454460
:1015B0002073746174653A204849474820286C6F4D
:1015C000676963203129003D204D656368616E695C
:1015D00063616C2053776974636820646574656324
:1015E0007465640A005741524E494E473A20494EAD
:1015F00056455254494E472073657474696E67208E
:1016000070726F6261626C79206261636B77617284
:1016100064732E0A002E204465706C6F792026209A
:1016200073746F7720342074696D65730A003D20F0
:10163000424C546F75636820436C61737369632017
:10164000312E322C20312E332C20536D61727420B8
:10165000312E302C20322E302C20322E322C2033C2
:101660002E302C20332E31206465746563746564DC
:101670002E0A002E20436865636B20666F7220423D
:101680004C544F5543480A002E205A5F4D494E5F37
:10169000454E4453544F505F494E56455254494E5F
:1016A000473A20002E2050726F6265205A5F4D49E4
:1016B0004E5F50494E3A20002C2073746F772061A2
:1016C0006E676C653A202020002C206465706C6F7A
:1016D0007920616E676C653A2000536572766F20E1
:1016E00070726F626520746573740A2E2075736959
:1016F0006E6720696E6465783A2020004D3433208F
:10170000576169742043616C6C6564004D3433200B
:10171000576169742043616C6C6564005761746340
:1017200068696E672070696E730A0064697300658A
:101730006E0061626C65640A00656E6473746F703C
:10174000206D6F6E69746F72200020580020204D4C
:1017500061783A2000200020204D696E3A20002058
:101760003B200020204D323131205300536F6674EE
:1017700020656E6473746F7073003F43616E6E6FAB
:101780007420777269746520746F20494E505554E7
:101790000A00496E76616C69642050696E204D6F55
:1017A00064650A00203B0020550020204D36303370
:1017B000204C0046696C616D656E74206C6F6164CD
:1017C0002F756E6C6F6164004D323453256C645418
:1017D000256C64004739322E394525730047314660
:1017E00025640047315A257346363030004731585A
:1017F00025735925734633303030004D3130365023
:101800002569532569004D313039532569004D3222
:101810003030442573004739322E395A2573004D34
:101820003432305325635A257300473238523058CA
:10183000590047315A257346363030004739322E29
:10184000395A2573004739322E394530004D313031
:1018500039532569004D313930532569004D3432F3
:1018600030205330205A30003D3D4F6E506F776529
:10187000724C6F7373526573756D653D3D00203B0F
:10188000200020204D343133205300506F77657293
:101890002D6C6F7373207265636F76657279004F7C
:1018A0004646004F4E00203B20486F73742068610D
:1018B0006E646C696E672000203B204D6F6465206C
:1018C000006D6D00203B2044697374616E63652078
:1018D0000046696C616D656E742072756E6F75740B
:1018E00020003B200020496E76616C696420657899
:1018F000747275646572200047322F47332062612D
:101900006420706172616D65746572730A00536C56
:101910006565702E2E2E005A2050726F6265205021
:10192000617374204265640A005A2050726F6265C8
:10193000205061737420426564004732384C300097
:10194000205A3A200020593A200042656420583A33
:1019500020004D65736820706F696E74206F757418
:10196000206F662072616E67650A004D30205374E7
:101970006F70004D312053746F7000436C69636B5E
:1019800020746F20526573756D652E2E2E004E6F7C
:10199000204D6F76652E00456E642066696C65206B
:1019A0006C6973740A00426567696E2066696C65CC
:1019B000206C6973740A004E6F206D656469610A5A
:1019C00000526573756D696E6720534400286E6F11
:1019D0002066696C65290043757272656E742066B5
:1019E000696C653A20005072696E742074696D6587
:1019F0003A20006F6B006F666600A3079E0797078B
:101A00009007820744454255473A004D3131332013
:101A10005300544D334420453520506C7573204F8E
:101A200046462E002F2F0046523A0020466C6F7714
:101A30003A200050726F7465637465642050696E5B
:101A40000A003A200020536572766F2000206F75DF
:101A500074206F662072616E67650A005365727646
:101A60006F200064697300656E0043290A0061629B
:101A70006C656420286D696E2074656D702000436C
:101A80006F6C64206578747275646573206172652B
:101A90002000504944204175746F74756E65005084
:101AA0004944204175746F74756E65206661696C78
:101AB00065642120426164206865617465722069F3
:101AC000640A00424C546F756368204853206D6F60
:101AD000646520004D34323120696E636F72726527
:101AE000637420706172616D6574657220757361D5
:101AF00067650A004D65736820706F696E74206FAA
:101B00007574206F662072616E67650A00454550E6
:101B1000524F4D204F4B0A002E0A002028302D3105
:101B20003029002076616C7565206F7574206F66B2
:101B30002072616E676500416476616E6365204B5B
:101B40003D00496E76616C696420657874727564D5
:101B500065720A000A20696E6974207A70726F6279
:101B6000655F7A6F6666736574203D20003D3D6F4A
:101B70006E436F6E66696775726174696F6E5374D8
:101B80006F7265526561643D3D00454550524F4D51
:101B900020496E697469616C697A65640A004861FC
:101BA0007264636F6465642044656661756C74205B
:101BB00053657474696E6773204C6F61646564006B
:101BC00020286D6D2900203B204C6576656C696E80
:101BD00067200020204D3432302053004175746F4F
:101BE00020426564204C6576656C696E6700202034
:101BF0004D393030204B004C696E65617220416474
:101C000076616E63650046696C616D656E74207205
:101C1000756E6F75742073656E736F7200204A0065
:101C20002020473239205720490020204D313439B7
:101C30002043203B20556E69747320696E204365F4
:101C40006C736975730A0054656D706572617475A3
:101C5000726520556E697473002020473231203B35
:101C6000004C696E65617220556E6974730045455C
:101C700050524F4D206461746173697A65206572BA
:101C8000726F722E0A0053657474696E6720566F06
:101C90006C756D65204F6E203A2000536574746931
:101CA0006E67205374616E646279204F6E203A2013
:101CB0000053657474696E6720566F6C756D65208E
:101CC0003A200053657474696E6720526F746174B2
:101CD000696F6E203A200053657474696E672053F3
:101CE00074616E6462792054696D65203A200053F6
:101CF000657474696E67205374616E646279203A0A
:101D0000200053657474696E672042726967687455
:101D10006E657373203A20004C6F6164696E6720B2
:101D20004457494E204C43442073657474696E6770
:101D30002066726F6D20454550524F4D0A00446930
:101D40007363617264696E67204457494E204C4347
:101D5000442073657474696E672066726F6D2045E8
:101D60004550524F4D202D2073657474696E677312
:101D70002076657273696F6E20696E636F7272652B
:101D800063740A0044697363617264696E67204416
:101D900057494E204C43442073657474696E672024
:101DA00066726F6D20454550524F4D202D2073694E
:101DB0007A6520696E636F72726563740A0053748A
:101DC0006F7265642073657474696E6773207265E1
:101DD0007472696576656400290A00206279746509
:101DE000733B2063726320002073746F72656420FC
:101DF00073657474696E6773207265747269657651
:101E00006564202800454550524F4D2043524320E1
:101E10004572726F7200202863616C63756C617427
:101E2000656429210A0020213D2000454550524F7C
:101E30004D20435243206D69736D61746368202D9A
:101E4000202873746F7265642920002053697A65B5
:101E50003A2000496E6465783A200000803B4400D7
:101E6000803B4400002041000096420000A0420058
:101E700000A042000048440080CF43D0070000D0BB
:101E8000070000640000004B000000454550524F21
:101E90004D2056657273696F6E204572726F7200C5
:101EA000204D61726C696E3D563837290A004545F0
:101EB00050524F4D2076657273696F6E206D697355
:101EC0006D617463682028454550524F4D3D002494
:101ED000F4D43050C38E20C2A24017828B701112EE
:101EE0007A910D816CD90AA861E108C7586607612B
:101EF0005143061E4B5D05C145A7041A4111040953
:101F00003D9803713931034036DB0265339102D4C9
:101F1000305402802E1D02632CEE01752AC501B0DB
:101F200028A001102781018F2564012B244B01E09B
:101F3000223401AC211F018D200D01801FFC008483
:101F40001EED00971DDF00B81CD200E61BC6002066
:101F50001BBC00641AB200B219A8000A19A0006ADA
:101F6000189900D117910040178B00B516840031E5
:101F7000167E00B31579003A157300C7146F005828
:101F8000146A00EE1366008813630025135E00C711
:101F9000125B006C12570015125400C111510070F1
:101FA000114F0021114B00D61049008D10470046FB
:101FB00010440002104200C00F4000800F3E00425B
:101FC0000F3C00060F3B00CB0E3800930E37005C31
:101FD0000E3500270E3400F30D3200C10D31009094
:101FE0000D3000600D2E00320D2D00050D2C00D996
:101FF0000C2B00AE0C2900850C29005C0C27003549
:102000000C27000E0C2600E80B2400C40B2400A0B3
:102010000B23007D0B23005A0B2100390B210018E4
:102020000B2000F80A1F00D90A1E00BB0A1E009DE3
:102030000A1D00800A1D00630A1C00470A1B002CB1
:102040000A1B00110A1A00F7091A00DD091900C459
:10205000091900AB091900920917007B09180063E0
:102060000917004C09160036091600200916000A47
:10207000091500F5081500E0081400CC081400B894
:10208000081400A4081400900813007D0812006BC7
:1020900008130058081200460812003408110023E3
:1020A0000811001208110001081100F0071000E0EB
:1020B000071000D0071000C0071000B0070F00A1E4
:1020C00007100091070E0083070F0074070F0065CB
:1020D000070E0057070E0049070E003B070D002EA4
:1020E000070E0020070D0013070D0006070D00F96D
:1020F000060C00ED060D00E0060C00D4060C00C82E
:10210000060C00BC060C00B0060C00A4060B0099DF
:10211000060C008D060B0082060B0077060B006C88
:10212000060B0061060A0057060B004C060A004227
:10213000060A0038060A002E060A0024060A001ABB
:10214000060A001006090007060A00FD050900F44A
:10215000050900EB050900E2050900D9050900D0D1
:10216000050900C7050900BE050900B5050800AD51
:10217000050800A50509009C050800940508008CC9
:10218000050800840508007C050800740508006C3B
:10219000050700650508005D050700560508004EA7
:1021A000050700470507004005080038050700310E
:1021B0000507002A050700230507001C0506001671
:1021C0000507000F0507000805060002050700FBCC
:1021D000040600F5040700EE040600E8040600E229
:1021E000040700DB040600D5040600CF040600C97E
:1021F000040600C3040600BD040600B7040600B1CF
:10220000040500AC040600A6040600A00405009B1B
:1022100004060095040500900406008A0405008564
:10222000040500800406007A0405007504050070AA
:102230000405006B04050066040500610405005CEC
:1022400004050057040500520405004D040500482C
:10225000040500430405003E0404003A040500356B
:10226000040500300404002C0405002704040023A6
:102270000405001E0404001A0404001604050011DD
:102280000404000D04040009040500040404000013
:10229000040400FC030400F8030400F4030400F049
:1022A000030400EC030400E8030400E4030400E07A
:1022B000030400DC030400D8030400D4030400D0AA
:1022C000030400CC030400C8030300C50303002477
:1022D000F404D9201BC40C5C0E9804C4095F026589
:1022E000077101F405F900FB04B30048048700C13D
:1022F0000369005803550003034500BE023A0084F9
:1023000002310053022A002902250004022000E4C1
:10231000011C00C8011900AF0117009801140084C6
:10232000011300710110006101100051010E004302
:10233000010D0036010B002B010B0020010B0015D5
:102340000109000C01090003010800FB000800F36B
:10235000000800EB000700E4000600DE000600D8DD
:10236000000600D2000600CC000500C7000500C230
:10237000000500BD000400B9000400B5000400B170
:10238000000400AD000400A9000400A5000300A2A1
:102390000003009F0004009B0003009800030095C9
:1023A00000020093000300900003008D0002008BE8
:1023B0000003008800020086000200840003008100
:1023C0000002007F0002007D0002007B0002007915
:1023D0000002007700010076000200740002007223
:1023E000000100710002006F0002006D0001006C2E
:1023F0000002006A00010069000200670001006637
:10240000000100650001006400020062000100613B
:10241000000100600001005F0002005D0001005C3F
:102420000001005B0001005A000100590001005842
:102430000001005700010056000100550001005442
:102440000001005300000053000100520001005140
:10245000000100500001004F0001004E0000004E3E
:102460000001004D0001004C0001004B0000004B3A
:102470000001004A00010049000100480000004836
:102480000001004700010046000000460001004531
:10249000000000450001004400010043000000432B
:1024A0000001004200000042000100410000004124
:1024B000000100400001003F0000003F0001003E1D
:1024C0000000003E0001003D0000003D0001003C16
:1024D0000000003C0000003C0001003B0000003B0D
:1024E0000001003A0000003A000100390000003904
:1024F00000010038000000380000003800010037FB
:1025000000000037000100360000003600000036F1
:1025100000010035000000350000003500010034E6
:1025200000000034000000340001003300000033DC
:1025300000000033000100320000003200000032D1
:1025400000010031000000310000003100010030C6
:1025500000000030000000300001002F0000002FBC
:102560000000002F0000002F0001002E0000002EB0
:102570000000002E0001002D0000002D0000002DA5
:102580000000002D0001002C0000002C0000002C99
:102590000000002C0001002B0000002B0000002B8D
:1025A0000000002B0001002A0000002A0000002A81
:1025B0000000002A00010029000000290000002975
:1025C0000000002900000029000100280000002868
:1025D000000000280000002800000028000100275B
:1025E000000000270000002700000027000000274F
:1025F0000001002600000026000000260000002642
:102600000000002600010025000000250000002534
:102610000000002500000025000000250001002426
:10262000000000240000002400000024000000241A
:10263000000100230000002300000023000000230D
:1026400000000023000000230000002300010022FE
:1026500000000022000000220000002200000022F2
:1026600000000022000100210000002100000021E4
:1026700000000021000000210000002100000021D6
:1026800000010020000000200000002000000020C9
:1026900000000020000000200000002000000020BA
:1026A0000001001F0000001F0000001F0000001FAD
:1026B0000000001F0000001F0000001F0001001E9E
:1026C0000000001E0000001E0000001E000000238D
:1026D0002C0000B8220000561800003A0F0000B885
:1026E000080000B1040000710200003E010000205B
:1026F000436F756E7420583A0023646566696E6591
:102700002044454641554C545F0000626564004BCF
:102710006420004B6920004B702000504944207415
:10272000756E696E6720646F6E6500504944204184
:1027300075746F74756E652066696E69736865641B
:10274000212050757420746865206C617374204B6F
:10275000702C204B6920616E64204B6420636F6E87
:102760007374616E74732066726F6D2062656C6F36
:102770007720696E746F20436F6E6669677572614A
:1027800074696F6E2E680A00504944204175746F59
:1027900074756E65206661696C6564212074696D6D
:1027A000656F75740A004175746F74756E65206687
:1027B00061696C6564212054696D656F75742E00C4
:1027C000504944204175746F74756E652066616967
:1027D0006C6564212054656D7065726174757265F5
:1027E00020746F6F20686967680A0050494420436D
:1027F00079636C65730025532025692F25690020B6
:102800004B643A2000204B693A2000204B703A205C
:102810000020436C617373696320504944200A00AF
:10282000204E6F206F76657273686F6F740A002098
:1028300054753A2000204B753A2000206D61783A9B
:102840002000206D696E3A200020643A200020624A
:102850006961733A200048656174696E672E2E2E97
:1028600000504944204175746F74756E652073740F
:102870006172740A004175746F74756E65206661CB
:10288000696C65642E2054656D7065726174757233
:102890006520746F6F20686967682E005049442076
:1028A0004175746F74756E65206661696C6564212D
:1028B0002054656D706572617475726520746F6FF8
:1028C00020686967680A0042656400453100450078
:1028D000626564002C2073797374656D2073746F66
:1028E0007070656421204865617465725F49443A7F
:1028F000200048656174696E67204661696C656493
:102900000048656174696E67206661696C65640082
:102910004D3131322053687574646F776E0010004A
:10292000C90210012C014001220170011801B001FF
:102930000E01F00104015002FA00B002F000300371
:10294000E600D003DC009004D2007005C800A006A9
:10295000BE000008B400B009AA00D00BA000600EB1
:10296000960060118C000015820020197800C01DAF
:102970006E00A0226400B0275A00902C5000003155
:102980004600E0343C0010383200903A2800603CA9
:102990001E00A03D1400803E0A00203F000045724A
:1029A000723A204D415854454D50004D41585445C0
:1029B0004D50207472696767657265640045727274
:1029C0003A204D494E54454D50004D494E54454DC9
:1029D0005020747269676765726564005448455297
:1029E0004D414C2052554E41574159005468657233
:1029F0006D616C2052756E61776179000A0A002062
:102A0000205A5F4D494E3A002020595F4D41583AB7
:102A1000002020585F4D41583A00202F00204240AE
:102A20003A0020403A0020573A007C3C3E5E2B3D65
:102A30003F2F5B5D3B2C2A225C0043616E6E6F74FE
:102A4000206F70656E2073756264697220004D6539
:102A500064696120496E6974204661696C00534461
:102A60002063617264206F6B0A006F70656E526F35
:102A70006F74206661696C65640A00766F6C756DB1
:102A8000652E696E6974206661696C65640A004E22
:102A90006F20534420636172640A000A4D3234008F
:102AA0004D3233202573002E0A006F70656E20664C
:102AB00061696C65642C2046696C653A2000466942
:102AC0006C652073656C65637465640A00205369E6
:102AD0007A653A200046696C65206F70656E6564A2
:102AE0003A2000454E4420535542524F5554494ECA
:102AF000450A002220706F73002220706172656E9B
:102B0000743A2200535542524F5554494E45204382
:102B1000414C4C207461726765743A2200537562AF
:102B200063616C6C204F766572666C6F77004578D8
:102B3000636565646564206D617820535542524F2A
:102B40005554494E452064657074683A002E0A0059
:102B500044656C6574696F6E206661696C65642C90
:102B60002046696C653A200046696C652064656C96
:102B7000657465643A005344207072696E74696EBE
:102B800067206279746520004E6F74205344207072
:102B900072696E74696E670A002F6175746F2563C0
:102BA0002E670057726974696E6720746F206669BA
:102BB0006C653A2000667265736800646F696E67C1
:102BC000002066696C653A20004E6F772000202057
:102BD000506C616E6E65724275666665724279749C
:102BE00065733A20002046726565204D656D6F72F1
:102BF000793A200020436F6D70696C65643A204D0E
:102C0000617920203120323032320A00204C617349
:102C10007420557064617465643A20323032322D0C
:102C200030342D3033207C20417574686F723A2027
:102C3000426F6E6474656368202F20496E73616E05
:102C40006974794175746F6D6174696F6E0A004DB6
:102C500061726C696E204457372E342E360A00207C
:102C6000536F6674776172652052657365740A00EC
:102C7000205761746368646F672052657365740AD6
:102C8000002042726F776E206F75742052657365F5
:102C9000740A002045787465726E616C2052657309
:102CA00065740A00506F77657255700A007374611D
:102CB00072740A004739310A47315A350A473930A8
:102CC0000A4D38340A4D31303453300A4D313430E6
:102CD0005330004D31303031006572726F722077A1
:102CE000726974696E6720746F2066696C650A008A
:102CF000446F6E6520736176696E672066696C65E6
:102D00002E0A004D323900456E6473746F70730083
:102D1000255320256320256320256320256300207B
:102D20005A3A0020593A0020583A00656E6473748C
:102D30006F7073206869743A20000000210024003D
:102D400027002A002D00300033000101000004019B
:102D500007010A0100002200250028002B002E0098
:102D60003100340002010000050108010B010000E0
:102D700020002300260029002C002F003200000133
:102D800000000301060109010505050507050808FE
:102D90000808020202020A0A0808040404040101E5
:102DA00001010101010103030303030303030407FA
:102DB00007070C0C0C0C0C0C0C0C02020202060691
:102DC0000606060606060B0B0B0B0B0B0B0B010284
:102DD000102020080810204010204080020102012D
:102DE00008040201010204081020408080402010E5
:102DF000080402018004020180402010080402013E
:102E000008040201010204081020408001020408A5
:102E10001020408000000A0B02090C0D0E08070369
:102E2000040100000000000000000000000000009D
:102E30000000000000000000000000000000000092
:102E4000121110000000000000000000000000004F
:102E50000000000000000000000050726F62696E08
:102E600067204661696C65640A0050726F62696E22
:102E700067204661696C656400205A3A2000205939
:102E80003A200042656420583A2000726573756DDF
:102E90006564004469736D69737300526573756D81
:102EA000696E670073686F7700627574746F6E0087
:102EB000626567696E0044697361626C6552756E24
:102EC0006F75740050757267654D6F726500506163
:102ED0007573656400436F6E74696E7565004C6F41
:102EE00061642046696C616D656E742054004C6F9E
:102EF00061642046696C616D656E7400496E73652E
:102F000072742066696C616D656E7420616E6420F8
:102F100073656E64204D3130380A0020204D323008
:102F200036205800486F6D65206F666673657400C3
:102F30004F666673657473204170706C69656400D8
:102F40004572723A20546F6F206661722100546F8F
:102F50006F206661722066726F6D207265666572A1
:102F6000656E636520706F696E740A004361703A24
:102F700000434F4E4649475F4558504F5254004D0D
:102F80004541545041434B00434F4F4C45525F54D1
:102F9000454D5045524154555245004348414D42DC
:102FA00045525F54454D504552415455524500429B
:102FB0004142595354455050494E470041524353A2
:102FC000004D4F54494F4E5F4D4F444553005448B8
:102FD00045524D414C5F50524F54454354494F4E1A
:102FE00000455854454E4445445F4D3230004355EA
:102FF00053544F4D5F4649524D574152455F5550CE
:103000004C4F4144004C464E5F5752495445004C8A
:103010004F4E475F46494C454E414D450041555442
:103020004F5245504F52545F53445F53544154558F
:10303000530053445F57524954450052455045414F
:1030400054004D554C54495F564F4C554D45005317
:1030500044434152440050524F4D50545F535550D9
:10306000504F525400484F53545F414354494F4EC0
:103070005F434F4D4D414E445300454D45524745EA
:103080004E43595F50415253455200434153455FAF
:103090004C494748545F4252494748544E45535360
:1030A00000544F47474C455F4C49474854530053E1
:1030B0004F4654574152455F504F57455200425575
:1030C000494C445F50455243454E54004C4556458B
:1030D0004C494E475F44415441005A5F50524F4261
:1030E000450052554E4F5554004155544F4C45568E
:1030F000454C005052494E545F4A4F420050524F87
:103100004752455353004155544F5245504F525426
:103110005F54454D50004155544F5245504F525405
:103120005F504F5300564F4C554D45545249430044
:10313000454550524F4D0042494E4152595F464914
:103140004C455F5452414E534645520053455249F7
:10315000414C5F584F4E5F584F4646004649524DCE
:10316000574152455F4E414D453A4D61726C696E13
:10317000204457372E342E3620544D3344204535C5
:1031800050534D44424220284D6179202031203255
:103190003032322031353A35323A31322920534FEC
:1031A000555243455F434F44455F55524C3A68740E
:1031B0007470733A2F2F6769746875622E636F6D30
:1031C0002F496E73616E6974794175746F6D6174A6
:1031D000696F6E2F4D61726C696E2F747265652F09
:1031E000437265616C6974794477696E5F322E3021
:1031F0002050524F544F434F4C5F56455253494F06
:103200004E3A312E30204D414348494E455F545986
:1032100050453A544D334420453520506C75732049
:1032200045585452554445525F434F554E543A31D8
:1032300020555549443A63656465326132662D34E0
:103240003161322D343734382D396231322D6335C6
:10325000356336326633363766660A0050726F62FF
:1032600065204F6666736574205A0050726F626500
:10327000204F6666736574205A00290A0020746F17
:1032800020003F5A206F7574206F662072616E6750
:1032900065202800290A0020746F20003F59206F04
:1032A0007574206F662072616E676520282D002975
:1032B0000A0020746F20003F58206F7574206F66DD
:1032C0002072616E676520282D00203B0020204D74
:1032D0003835312058005A2D50726F6265204F6684
:1032E00066736574004D383400446F6E65207072EB
:1032F000696E74696E672066696C650A004D3737C0
:10330000004D33310043616E6E6F74206F70656ED7
:103310002073756264697220002569730025696DE8
:1033200020256973002569682025696D202569734A
:1033300000256964202569682025696D2025697349
:103340000025697920256964202569682025696D33
:1033500020256973000A53746174733A2046696CBE
:10336000616D656E7420757365643A20002C204C85
:103370006F6E67657374206A6F623A2000546F74D1
:10338000616C2074696D653A200053746174733AFE
:1033900020002C204661696C65643A20002C204690
:1033A000696E69736865643A20005072696E74735F
:1033B0003A200053746174733A2000436F6F6C6954
:1033C0006E672E2E2E0045312025530020573A00DF
:1033D00042656420436F6F6C696E672E2E2E00422B
:1033E00065642048656174696E672E2E2E003D3D30
:1033F0004477696E20496E697420436F6D706C6507
:1034000074653D3D00202D206434200064333A2053
:1034100000202D206432200064313A2000202D202D
:103420006C656E2000565020726563656976656430
:103430003A200077616974776179203D3D00202052
:103440002A2A2A2A2A2A2A5254535F48616E646C17
:1034500065446174612A2A2A2A2A2A2A2A20002AF3
:103460002A2A4E6F7A7A6C6554656D705374617454
:1034700075735B325D203D003D3D48656174696E4A
:103480006720446F6E65204368616E6765204669FA
:103490006C616D656E743D3D0020207374617274C3
:1034A00070726F677265737320004D32320A4D324D
:1034B00031003D3D7761697477617920353D3D008C
:1034C0003D3D7761697477617920343D3D003D3D34
:1034D0007761697477617920333D3D003D3D7761C7
:1034E000697477617920313D3D00436F6E66697282
:1034F0006D20436F6E74696E7565005061757365FC
:1035000053746174757300524553554D45204F50A7
:1035100054494F4E533A0048656174696E672E2EC8
:103520002E000000436C69636B20746F2068656136
:1035300074000000526573756D696E672E2E2E0043
:10354000000050757267696E672E2E2E00000049CC
:103550006E7365727420616E6420436C69636B00E6
:103560000000436C69636B20746F20636F6E746935
:103570006E7565000000456A656374696E672E2E7E
:103580002E000000506C6561736520776169742EB0
:103590002E2E0000005061726B696E672E2E2E0079
:1035A00000002A2A2A496E6974696E672063617275
:1035B00064206973204F4B2A2A2A003D3D6F6E50CC
:1035C00072696E7454696D657253746F707065645E
:1035D0003D3D003D3D6F6E55736572436F6E66698C
:1035E000726D52657175697265643D3D005061751B
:1035F0007365204D6F646520537461747573004C5E
:103600006F6164696E672E2E2E0000003D3D6F6E67
:10361000466163746F727952657365743D3D00272E
:103620000A0A0000272027002027002D0063616E72
:1036300063656C005072696E742041626F727465CC
:10364000640055492041626F72746564007265734D
:10365000756D65004D3234002A2A2A43506C617919
:1036600020546F6E652A2A2A003D3D6F6E507269A4
:103670006E7454696D65725061757365643D3D008B
:10368000486F6D696E67204661696C6564005052D1
:103690004553454E54004F5554006F70656E0054AD
:1036A0005249474745524544003A20004D4F54493E
:1036B0004F4E203A20004F46460A003A20006669E5
:1036C0006C616D656E74007A5F6D696E00795F6D17
:1036D000617800785F6D6178005265706F7274690F
:1036E0006E6720656E6473746F7020737461747597
:1036F000730A0020746F6F206C6F6E67206578749A
:10370000727573696F6E2070726576656E7465642C
:103710000A0020636F6C6420657874727573696F3A
:103720006E2070726576656E7465640A00486F6D10
:1037300065202573257325732046697273740057BD
:1037400061726E696E673A20486F6D696E672042DC
:10375000756D702044697669736F72203C20310A60
:10376000000202040000B4430000B4430000000063
:103770000000B4430000B4430000C843000000410F
:1037800000000041000000400101FF0000000100B6
:103790000000010000800055555500000040003336
:1037A000333300AAAA2A004992240000002000C74F
:1037B000711C0099991900D1451700555515003B0A
:1037C000B113002449120011111100000010000F64
:1037D0000F0F00E3380E0043790D00CCCC0C00C372
:1037E000300C00E8A20B0064210B00AAAA0A0070AA
:1037F0003D0A009DD80900427B090092240900DCA3
:10380000D30800888808001042080000000800F073
:10381000C107008787070075500700711C07003E2D
:10382000EB0600A1BC060069900600666606007003
:103830003E06006118060017F4050074D105005B10
:10384000B00500B29005006272050055550500787C
:10385000390500B81E0500050505004EEC0400877B
:10386000D40400A1BD040090A7040049920400C143
:103870007D0400EE690400C7560400444404005C63
:103880003204000821040041100400000004003F3D
:10389000F00300F8E0030026D20300C3C30300CC0A
:1038A000B503003AA803000A9B0300388E0300C04A
:1038B0008103009F750300D0690300505E03001D63
:1038C00053030034480300913D03003333030016D3
:1038D000290300381F030097150300300C03000371
:1038E0000303000BFA020049F10200BAE802005C8F
:1038F000E002002DD802002DD0020059C80200B00D
:10390000C0020031B90200DAB10200AAAA0200A086
:10391000A30200BC9C0200FA9502005C8F0200DF4B
:1039200088020082820200457C020027760200277E
:10393000700200436A02007C640200D05E02003F15
:10394000590200C8530200FFFDFCFAF8F6F4F2F049
:10395000EEECEAE9E7E5E3E1E0DEDCDAD9D7D5D45D
:10396000D2D0CFCDCBCAC8C7C5C3C2C0BFBDBCBAF9
:10397000B9B7B6B4B3B2B0AFADACAAA9A8A6A5A466
:10398000A2A1A09E9D9C9A99989795949392908FAE
:103990008E8D8B8A8988878684838281807F7E7DD5
:1039A0007B7A797877767574737271706F6E6D6CDF
:1039B0006B6A696867666564636261605F5E5D5CCF
:1039C0005B5A5958585756555453525150504F4EB0
:1039D0004D4C4B4A4A49484746464544434242417A
:1039E000403F3E3E3D3C3B3B3A3938383736353533
:1039F000343332323130302F2E2E2D2C2B2B2A29DE
:103A00002928272726252524232322212120201F7A
:103A10001E1E1D1C1C1B1B1A19191818171616150B
:103A20001514131312121111100F0F0E0E0D0D0C91
:103A30000C0B0A0A0909080807070606050504040D
:103A4000030302020100003D3D6F6E5072696E7407
:103A500054696D6572537461727465643D3D000014
:103A600000B4430000B4430000C84300000000005D
:103A700000000000000000536176696E6720445723
:103A8000494E204C43442073657474696E67206608
:103A9000726F6D20454550524F4D0A003D3D6F6E8F
:103AA00053657474696E677353746F7265643D3DDA
:103AB0000053657474696E67732053746F72656424
:103AC00000290A002062797465733B2063726320C9
:103AD0000053657474696E67732053746F72656404
:103AE0002028006001F4017001EA019001E001B0BA
:103AF00001D601D001CC010002C2013002B8016040
:103B000002AE019002A401D0029A0120039001703C
:103B1000038601C0037C0130047201A00468012007
:103B2000055E01B005540160064A0120074001F01E
:103B3000073601F0082C01100A2201500B1801C0B1
:103B40000C0E01500E04013010FA002012F000504B
:103B500014E600C016DC007019D200501CC80050DA
:103B60001FBE007022B400B025AA00F028A00020DB
:103B70002C9600302F8C0010328200A0347800F098
:103B8000366E00E0386400803A5A00403B5500E051
:103B90003B5000F03C4600C03D3C00603E3200E03F
:103BA0003E2800303F1E00503F1900703F1400A017
:103BB0003F0A00C03F0000D03FF6FFE03FECFF228D
:103BC0000A00556E6B6E6F776E20636F6D6D616E60
:103BD000643A2022002042002050006F6B002045F4
:103BE00000205A0020590020204D3932205800531F
:103BF000746570732070657220756E69740020742E
:103C00006F6F206C6F6E6720657874727573696F63
:103C10006E2070726576656E7465640A0020636F4D
:103C20006C6420657874727573696F6E207072654C
:103C300076656E7465640A004D323520500A4D3247
:103C40003400526573756D65005549205061757378
:103C5000650043616E6E6F7420656E7465722073CB
:103C600075626469723A20004E6F204D617463681A
:103C7000203A00436F6E73747261696E206D6573D4
:103C80006856616C20006D65736856616C20007920
:103C9000506E74200078506E7420006D657368500B
:103CA0006F696E742000446973706C617942726947
:103CB0006768746E657373205365743A20004469B5
:103CC00073706C61794272696768746E6573732092
:103CD0004C43443A20004D32320A4D323100526595
:103CE00066726573680050675570005067446F775F
:103CF0006E0049732046696C652000497320446951
:103D0000722000476F557044697200486173204DFE
:103D1000656469610046696C656E616D6520536517
:103D20006C6563746564004D3130303043004D3153
:103D3000303030002046696C616D656E74205265CC
:103D400073706F6E7365204E6F00526573756D658D
:103D50002059657320647572696E67207072696E90
:103D600074000A204E6F2046696C616D656E7400A8
:103D7000496E76616C6964204F7074696F6E004D96
:103D80003530300053746F72652053657474696EFA
:103D90006773004D3939390A4D323830503053315C
:103DA000363000424C546F756368205265736574F9
:103DB000004D3530320A4D35303000496E6974207F
:103DC000454550524F4D004D3530300053746F72A1
:103DD000652053657474696E677300496E4C616E3B
:103DE0006743686F696365000A202A2A2A7265633F
:103DF0006461742E646174615B305D203D00473204
:103E0000380A4731204631303030205A31300055A1
:103E10006E737570706F72746564204F7074696F23
:103E20006E2053656C6563746564004D32313153A7
:103E3000300A4739310A47315A302E3032350A4775
:103E400039300A4D3231315331004D323131533036
:103E50000A4739310A47315A2D302E3032350A4758
:103E600039300A4D32313153310047323953320043
:103E700047323953310047323652323535004D31F1
:103E800039305335350A4732380A47333449380A0E
:103E90004732390A4D3430300A4D313034533231E3
:103EA000350A4732380A4D313039533231350A4DEF
:103EB00034323053310A4731583130305931303093
:103EC00046353030300A47315A300A4D3530300AE5
:103ED0004D37370A4D31313720536574205A204F02
:103EE0006666736574004731204631303030205AA1
:103EF000302E30004732380A4731204631303030DA
:103F0000205A302E30005A204F6666736574203A6E
:103F1000202573005A204F6666736574203A202569
:103F200073004732385A0A473146313530305A30FB
:103F30002E30004732380A473146313530305A305A
:103F40002E3000426564204C6576656C204F70749D
:103F5000696F6E200052657475726E203A20004DB4
:103F6000383400473146313030305A302E30004737
:103F700032380A473146313030305A302E30004D19
:103F8000616E75616C53657454656D70005A204F95
:103F90006666736574203A20257300526F756E64EF
:103FA000696E6720746F2073746570005265717557
:103FB0006573746564204F6666736574200053747E
:103FC0006F70205472696767657265640053746F1F
:103FD00070204E6F0053746F705072696E74004899
:103FE000616E646C6520446174612041646A75731C
:103FF0007420322053657474696E67205363726550
:10400000656E200048616E646C65204461746120B7
:104010005072696E7446696C652033205365747400
:10402000696E672053637265656E200048616E6437
:104030006C652044617461205072696E7446696CCD
:104040006520322053657474696E6720536372650E
:10405000656E20004D38340048616E646C65204404
:10406000617461205072696E7446696C6520506F8E
:1040700073740048616E646C652044617461205003
:1040800072696E7446696C6520507265004265679E
:10409000696E537769746368003D3D2043686563CA
:1040A0006B6B65793D3D007265636461742E61647C
:1040B0006472203D3D007265636461742E646174B6
:1040C000615B305D203D3D0020453A00205A3A00BA
:1040D00020593A00583A006F6B0A00526573656EBA
:1040E000643A20006E6F74696669636174696F6E0B
:1040F0002000544D334420453520506C75732052B8
:10410000656164792E005072696E74696E672E2E37
:104110002E005072696E7420506175736564005290
:104120004553554D45204F5054494F4E533A004842
:10413000656174696E672E2E2E000000436C696302
:104140006B20746F206865617400000052657375A0
:104150006D696E672E2E2E00000050757267696EB5
:10416000672E2E2E0000004C6F6164696E672E2E44
:104170002E000000496E7365727420616E642043E6
:104180006C69636B000000436C69636B20746F2083
:10419000636F6E74696E7565000000456A656374CF
:1041A000696E672E2E2E000000506C6561736520CD
:1041B000776169742E2E2E0000005061726B696E5B
:1041C000672E2E2E00000050617573654D73673D9C
:1041D0000000E601820111241FBECFEFD1E2DEBF55
:1041E000CDBF00E00CBF84B780934B1A14BE0FB64E
:1041F000F894A89580916000886180936000109287
:1042000060000FBE16E0A0E0B2E0E4EEFBE902E0E1
:104210000BBF02C007900D92A63AB107D9F72AE169
:10422000A6EAB6E001C01D92AB34B207E1F710E296
:10423000CAEED0E200E006C021970109802FFE01FE
:104240000F941F4AC93ED10780E00807A9F70F94D1
:10425000D0350D94E04D0C9400002091AF078330D1
:1042600021F425FD0CC024FD0CC030E0A90102C0E2
:10427000559547958A95E2F7CA018170089581E0C6
:10428000089580E008958091800A84FD0BC080919C
:10429000820A87FD07C09091830A937081E019F428
:1042A00080E0089581E00895082E000C990BFC0130
:1042B000E857F24DE491EE2391F0F0E0EE0FFF1F8E
:1042C000E259F24DA591B4912C918253924DFC018B
:1042D0008491282381E090E021F480E0089580E03B
:1042E00090E00895082E000C990BFC01E857F24D60
:1042F000E491F0E0EE0FFF1FE65CF24DA591B49162
:104300002C918253924DFC018491822391E009F417
:1043100090E0892F0895E2ECF7E09491981739F036
:10432000319697E0EB3DF907C1F780E0089581E011
:104330000895269A2E9A08950F931F93CF93DF9393
:1043400000D01F92CDB7DEB79C0106EA19E090E1DC
:10435000E0E6F2E0D80101900D929A95E1F7F901BB
:104360002081318142815381F80160857185828588
:1043700093850F94284AF801608771878287938715
:1043800080E090E0A0EAB0E489839A83AB83BC83A9
:10439000CE0101960E940CC60F900F900F900F90C7
:1043A000DF91CF911F910F910895CF93DF9300D0AC
:1043B0001F92CDB7DEB780E090E0A0EAB0E4898339
:1043C0009A83AB83BC8361E0CE0101960E9477C7DC
:1043D0000F900F900F900F90DF91CF910895BC0137
:1043E000990F880B990B0C94DEFBCF92DF92EF9222
:1043F000FF920F931F93CF93DF936B017A01EC0130
:10440000C25CD84F28813CE0389F8001399F100D55
:10441000112427FF24C0FB011182108288818F5F45
:10442000888388819801280F311D87FD3A95C9013D
:1044300020915816F6012817190629F024F08881D2
:104440008C300CF43CC080819181049680349C496E
:1044500008F475C0F60180819181049672C088814C
:104460009801280F311D87FD3A95C90120915816F2
:104470002817190699F294F28881A801480F511D56
:1044800087FD5A95FA01EE0FFF1FE40FF51FE05F5D
:10449000F94E808187FFC2CF8881F801E80FF11DB6
:1044A00087FDFA95CF01EE0FFF1FE80FF91FE05FC0
:1044B000F94E808160E08F770E949A7DAFCF808136
:1044C00091812881A801420F511D27FD5A959A011B
:1044D000FA01EE0FFF1FE20FF31FE05FF94E21819B
:1044E0003281820F931FF701918380838881980125
:1044F000280F311D87FD3A95F901EE0FFF1FE20FDE
:10450000F31FE05FF94E808187FF20C08881080F8C
:10451000111D87FD1A95F801EE0FFF1FE00FF11F27
:10452000E05FF94E808161E08F77DF91CF911F913D
:104530000F91FF90EF90DF90CF900C949A7D80E4E4
:104540009CE9F701918380838FEF8883DF91CF917E
:104550001F910F91FF90EF90DF90CF900895809181
:104560009F079091A007009731F04AE050E070E07B
:1045700060E00D947B4160E070E0CB010895809194
:104580009F079091A007009731F04AE050E070E05B
:1045900060E00D944D4060E070E0CB0108950E9412
:1045A000BF2297FD0CC00E94BF226F3F710581059D
:1045B000910509F034F40E94BF22862F089580E00F
:1045C00008958FEF089580919F079091A007892B00
:1045D00041F00E94CF2291E0811101C090E0892F2B
:1045E000089591E0FCCFFC016591759185919491BE
:1045F00008958091F308882319F080E00E94C5CACD
:1046000080E008958F929F92AF92BF92CF92DF92F7
:10461000EF92FF92CF93DF93EC0180903C0B909050
:104620003D0BA0903E0BB0903F0B20E030E0A90185
:10463000C501B4010F946043882309F454C0C880B5
:10464000D980EA80FB80A7019601C501B4010F94CF
:10465000604318160CF04CC02091340B3091350B90
:104660004091360B5091370BC701B6010F94604350
:10467000882331F1C092340BD092350BE092360B87
:10468000F092370B2091380B3091390B40913A0B57
:1046900050913B0B688179818A819B810F94C6433D
:1046A0009B01AC0160E070E080E89FE30F94274A33
:1046B00060930202709303028093040290930502B8
:1046C00060910202709103028091040290910502B0
:1046D000DF91CF91FF90EF90DF90CF90BF90AF90A0
:1046E0009F908F90089560E070E080E89FE3F0CFA6
:1046F00060E070E0CB01ECCF682F70E090E080E0EC
:104700000C94DEFB0E94BF22CB0108950F931F93F0
:10471000CF9380919F079091A0070097E9F0FC014B
:104720008F01C1912C2F2F7D81F0C53411F0C5363A
:10473000B9F7F801108270E060E00F94EF3EF801E5
:10474000C083CF911F910F91089570E060E0CF91E9
:104750001F910F910D94EF3E60E070E0CB01F1CF1F
:104760002FEB280F2A3108F047C0E22FF0E08091AC
:10477000800A9091810AA091820AB091830A04C0B4
:10478000B695A795979587952A95D2F780FD02C093
:1047900081700895EE59F54FE081EE2341F180914B
:1047A0002B0B90912C0BE80FF92FF11D808190EDD0
:1047B000980F9A3030F08E3251F4818180538A30D4
:1047C00098F4F093A007E0939F0781E008958D325D
:1047D00011F08B3249F4818190ED980F9A3088F373
:1047E0008E3211F48281EACFF0E0E0E0EACF10925D
:1047F000A00710929F07E9CF80E008950E94B023A0
:10480000882341F081E020919F073091A007232B5E
:1048100009F480E00895CF93DF93EB010E94FE231B
:10482000882321F0DF91CF910C948223CE01DF9178
:10483000CF910895CF93DF93EB010E94FE2388234D
:1048400019F00E94BF22EB01CE01DF91CF910895B4
:10485000CF92DF92EF92FF926A017B010E94FE23CA
:10486000882331F0FF90EF90DF90CF900C94862357
:10487000C701B601FF90EF90DF90CF900895CF93DE
:10488000C62F0E94FE23882319F0CF910C94CF22CB
:104890008C2FCF910895CF93DF93C82FD62F0E94EE
:1048A000FE23882321F0DF91CF910C94E3228C2FFB
:1048B0000E94B023811101C08D2FDF91CF91089507
:1048C0008F929F92AF92BF92CF92DF92EF92FF9220
:1048D000CF93DF93CDB7DEB760970FB6F894DEBF06
:1048E0000FBECDBF80E090E0A4E3B3E48D839E8350
:1048F000AF83B8878D879E87AF87B88BE0916816A6
:10490000F091691680809180A280B38020E030E031
:10491000A901C501B4010F94284A6B017C0120E074
:1049200030E040E450E40F94604387FF05C0C12CA1
:10493000D12C90E4E92EFE2CC982DA82EB82FC8233
:1049400020E030E044EB53E4C501B4010F94284A61
:104950006B017C0120E030E842EB53E40F94884C7B
:1049600018163CF4C12C80E8D82E82EBE82E83E4A4
:10497000F82EC986DA86EB86FC8680E1FE01319648
:10498000AFEBB7E001900D928A95E1F760960FB614
:10499000F894DEBF0FBECDBFDF91CF91FF90EF90B7
:1049A000DF90CF90BF90AF909F908F900895CF925F
:1049B000DF92EF92FF92CF936B017C01C42F809125
:1049C000F5088F5F09F4B5C08093F5088091F5086C
:1049D0008093A40920E030E040E752E46091370280
:1049E000709138028091390290913A020F94C64337
:1049F0000F949B4B7093070960930609C0920809B6
:104A0000D0920909E0920A09F0920B098091A3095A
:104A1000C0FB80F98093A3098CE0E5EAF8E0ACE004
:104A2000B9E001900D928A95E1F78CE0EFECFAE0A5
:104A3000A8E1B9E001900D928A95E1F78091BE0757
:104A40009091A30980FB94F99093A309882381F0A6
:104A50008091BA079091BB07A091BC07B091BD07A8
:104A60008093240990932509A0932609B0932709E0
:104A70008091291590912A159093290980932809EE
:104A8000809112159091131590932B0980932A0908
:104A90008091590B80932C098091A30990916B0F01
:104AA00090FB83F98093A30980913C0B90913D0B7F
:104AB000A0913E0BB0913F0B80932D0990932E094E
:104AC000A0932F09B09330090E9401CE60939E09F4
:104AD00070939F098093A0099093A1098091AF07DB
:104AE0008093A20990910C0F8091A30993FB81F907
:104AF0009091DB0A90FB82F98093A30980E00E94E9
:104B0000BBB640E050E0BA0182E598E10E947786AA
:104B100040EB50E065EF78E082E598E10E940B877A
:104B200082E598E1CF91FF90EF90DF90CF900C94C9
:104B3000388A81E049CF4F925F926F927F928F9235
:104B40009F92AF92BF92CF92DF92EF92FF921F930C
:104B5000CF93DF9300D01F92CDB7DEB719821A82B0
:104B60001B821C82CE0101964C0186EAC82E89E088
:104B7000D82E90E6E92E92E0F92E2CE3A22E20E129
:104B8000B22E10E088E5810F0E94FE23F40181938C
:104B90004F01882309F4E7C00E9486232B013C01C2
:104BA000812F0E942D21882309F4D3C0F701208191
:104BB000318142815381C301B2010F94284AF60129
:104BC00060837183828393831F5FF4E0CF0ED11CD7
:104BD00084E0E80EF11C94E0A90EB11C133091F6AC
:104BE00085E40E94FE238C83882309F4C7C00E94B9
:104BF00086236B017C0183E00E942D21882371F0C4
:104C000020916C0230916D0240916E0250916F02C2
:104C1000C701B6010F94284A6B017C01C092B2090A
:104C2000D092B309E092B409F092B5098091210FB6
:104C3000882391F180914D1882FF2EC087FD2CC0F2
:104C40008C81882349F18981811103C08A8188235D
:104C500019F12DEC3CEC4CE45DE36091FE087091A1
:104C6000FF0880910009909101090F94284A9B0147
:104C7000AC01609168027091690280916A02909122
:104C80006B020F94884C18163CF440E060E070E032
:104C900080E090E40E94D72440E050E0BA0186E42E
:104CA0000E94282420E030E0A9010F94884C1816B7
:104CB00084F40E94862320E030E040E752E40F9421
:104CC000224B60933702709338028093390290939D
:104CD0003A0280910C0F83FD28C0809190088823B0
:104CE00021F120916C0230916D0240916E02509141
:104CF0006F026091B2097091B3098091B4099091EB
:104D0000B5090F94274A20919D0830919E08409143
:104D10009F085091A0080F94284A60939D087093B3
:104D20009E0880939F089093A0080F900F900F907B
:104D30000F90DF91CF911F91FF90EF90DF90CF9078
:104D4000BF90AF909F908F907F906F905F904F90AB
:104D50000895F5012081318142815381C301B2015F
:104D60000F94274A2CCFF70180819181A281B381D2
:104D7000F60180839183A283B38326CF80916C0256
:104D800090916D02A0916E02B0916F028093B20972
:104D90009093B309A093B409B093B50947CFE5EF59
:104DA000F8E080EBDF011D928A95E9F70895809184
:104DB000210F811104C00E94CF260C9447B7809127
:104DC0004D1882FF09C087FD07C040E060E070E039
:104DD00080E090E40C94D72408958091F50888230E
:104DE00061F09091A409891308C080914D1884FF47
:104DF00004C081E399E00C94E88D80E00895FC0103
:104E0000238121110C94388A0895CF93DF93C091A8
:104E10002915D0912A15209729F1609125157091B7
:104E2000261580912715909128150F94944B6E5F4D
:104E30007F4F24976C177D07ACF470931308609331
:104E400012080E94977E605A75418F4F9F4F609362
:104E50001408709315088093160890931708DF9133
:104E6000CF91089510921408109215081092160808
:104E700010921708F4CFCF92DF92EF92FF921F9318
:104E8000CF93DF93182F662351F010929D07109255
:104E9000990710929A0710929B0710929C070E9404
:104EA000977E6B017C018091990790919A07A09160
:104EB0009B07B0919C07A7019601281B390B4A0B51
:104EC0005B0BDA01C901B7FD3DC020919D0717FDBD
:104ED00013C0412F012E000C550B4C5F5F4F822FEA
:104EE000022E000C990B4817590764F184EF91E0EA
:104EF000A0E0B0E0211724F488EE93E0A0E0B0E059
:104F00008C0D9D1DAE1DBF1D8093990790939A0730
:104F1000A0939B07B0939C072170C22F30E0D32F42
:104F200084E28C9FB0018D9F700D7C1B1124605911
:104F30007C4F82E390E00E941FD280919D078F5F9B
:104F400080939D07DF91CF911F91FF90EF90DF90AD
:104F5000CF900895CF93DF93C0911215D091131580
:104F6000209729F160910E1570910F158091101501
:104F7000909111150F94944B6E5F7F4F24976C178F
:104F80007D07ACF470930B0860930A080E94977E2B
:104F9000605E70448D4F9F4F60930C0870930D08B6
:104FA00080930E0890930F08DF91CF91089510928F
:104FB0000C0810920D0810920E0810920F08F4CFF2
:104FC000CF93C1E020E030E0A9016091EC0A70913C
:104FD000ED0A8091EE0A9091EF0A0F9460438111DF
:104FE00001C0C0E08C2FCF910895CF93C82F8823A4
:104FF00021F00E94E0278823D9F080916B0F8C1755
:10500000B9F00E944FBD80916B0F882349F080E674
:1050100092E00E9472BD10926B0FCF910C9483C8E6
:1050200081E080936B0F80E692E00E947BBCF5CF1D
:10503000CF9108954F925F926F927F928F929F923D
:10504000AF92BF92CF92DF92EF92FF920F931F9396
:10505000CF93DF93EC012091E40A3091E50A40916F
:10506000E60A5091E70A688179818A819B810F94D1
:10507000274A6B017C012091E80A3091E90A4091AE
:10508000EA0A5091EB0A6C817D818E819F810F9499
:10509000274A4B015C01A70196016091910770912D
:1050A000920780919307909194070F94604388230F
:1050B00009F450C0C0929107D0929207E0929307F2
:1050C000F09294072091890730918A0740918B07CD
:1050D00050918C07C701B6010F94C6432B013C01C8
:1050E0000F94CA4B6B017C0120E030E0A9010F94C2
:1050F000604387FD70C020E030E040E450E4C70129
:10510000B6010F94884C18162CF4C12CD12CC0E495
:10511000EC2EFE2CA7019601C301B2010F94274A81
:10512000609381077093820780938307909384072D
:10513000C701B6010F94944B60937F07062E000CB5
:10514000770B6F5F7F4F6430710514F064E070E09F
:1051500060937D07D0917B0710917F07A501940193
:1051600060919507709196078091970790919807A5
:105170000F946043811133C0D11381C02091630724
:1051800030916407409165075091660760918107EF
:105190007091820780918307909184070F94C64392
:1051A00020916707309168074091690750916A071D
:1051B0000F94284ADF91CF911F910F91FF90EF90AC
:1051C000DF90CF90BF90AF909F908F907F906F9027
:1051D0005F904F900895C12CD12C76019BCF809287
:1051E000950790929607A0929707B0929807209102
:1051F0008D0730918E0740918F0750919007C50120
:10520000B4010F94C6434B015C010F94CA4B6B0170
:105210007C0120E030E0A9010F94604387FDF3C0DA
:1052200020E030E040E450E4C701B6010F94884C20
:1052300018162CF4C12CD12CB0E4EB2EFE2CA701B7
:105240009601C501B4010F94274A609385077093B6
:1052500086078093870790938807C701B6010F944C
:10526000944B60938007062E000C770B6F5F7F4F87
:105270006430710514F064E070E060937E07C091C3
:105280008007D11305C080917C078C1709F470C08A
:1052900080917F079091800790937C0780937B0794
:1052A0000C2E000CDD0B25E01203C0011124FC01C3
:1052B000EC0FFD1FEE0FFF1FEE0FFF1FEE54F04F20
:1052C0002081318142815381209377073093780781
:1052D0004093790750937A0700917E07002E000CC7
:1052E000110BFC01E00FF11FEE0FFF1FEE0FFF1F70
:1052F000EE54F04F60817181828193810F94274A2F
:105300006093730770937407809375079093760783
:1053100020917D0735E02303F0011124CE0FDF1F1C
:10532000CC0FDD1FCC0FDD1FCE54D04F288139812B
:105330004A815B8120936F07309370074093710718
:1053400050937207E00FF11FEE0FFF1FEE0FFF1FCC
:10535000EE54F04F60817181828193810F94274ACE
:1053600060936B0770936C0780936D0790936E0743
:105370008090850790908607A0908707B090880757
:10538000209173073091740740917507509176070B
:10539000C501B4010F94C643209177073091780777
:1053A0004091790750917A070F94284A6B017C014C
:1053B000C0926707D0926807E0926907F0926A0787
:1053C00020916B0730916C0740916D0750916E07EB
:1053D000C501B4010F94C64320916F073091700747
:1053E00040917107509172070F94284AA7019601C6
:1053F0000F94274A6093630770936407809365074F
:1054000090936607BBCEC12CD12C760118CFE1E971
:10541000F7E080EF9FEFA9E7B4EC84839583A68340
:10542000B78380839183A283B383EBE7F7E08DE9B1
:105430008183808308958F929F92AF92BF92CF9283
:10544000DF92EF92FF92FC0198E0ACEEBAE001909F
:105450000D929A95E1F788E0FB01A4EEBAE0019085
:105460000D928A95E1F7C090EC0AD090ED0AE09099
:10547000EE0AF090EF0A20E030E0A901C701B60182
:105480000F9460438823E1F1A701960160E070E08A
:1054900080E89FE30F94224B6B017C018090F00A1F
:1054A0009090F10AA090F20AB090F30A20E030E068
:1054B000A901C501B4010F946043882329F1A50116
:1054C000940160E070E080E89FE30F94224BC0926B
:1054D0008907D0928A07E0928B07F0928C0760933D
:1054E0008D0770938E0780938F0790939007FF909E
:1054F000EF90DF90CF90BF90AF909F908F900895E6
:10550000C12CD12C7601CACF60E070E0CB01DFCF97
:105510008F929F92AF92BF92EF92FF920F931F9341
:10552000CF93DF931092E80A1092E90A1092EA0AE8
:105530001092EB0A1092E40A1092E50A1092E60A21
:105540001092E70A1092F00A1092F10A1092F20AF1
:105550001092F30A1092EC0A1092ED0A1092EE0AE1
:105560001092EF0A02EB1FE0C0E0812C912C80EC3E
:10557000A82E8FE7B82E7801D0E0F70181929192A2
:10558000A192B1927F016D2F8C2F0F94B416DF5F23
:10559000D53099F7CF5F0C5E1F4FC53061F7DF91B3
:1055A000CF911F910F91FF90EF90BF90AF909F9080
:1055B0008F900895EFE6F0E0808182608083089507
:1055C00080914C1590914D15892B79F480914C1553
:1055D00090914D15892B49F420914C1530914D1522
:1055E00081E0232B19F480E0089581E00895CF92A3
:1055F000DF92EF92FF926B017C0183E3C816D10426
:10560000E104F10470F082E3C81AD108E108F1085E
:1056100062E370E080E090E00E94647E0E944F951B
:10562000ECCFC701B6010E94647EFF90EF90DF903F
:10563000CF900C944F9510926C0F8091E20790914F
:10564000E307A091E407B091E5078093DE0790930C
:10565000DF07A093E007B093E107089590914F15FD
:1056600010924F159230B9F09430C1F09130E1F4BE
:10567000882319F0813021F0089590936E0F0895DA
:1056800082E080936E0F80916C0F882369F01092F6
:105690006D0F0C941B2B10926F0F089584E596E309
:1056A0009093B10F8093B00F08956C98749A0C94F6
:1056B0001B2B90914D1894FB882780F994FF06C00E
:1056C00081E09091B419911101C080E008950E9489
:1056D000592B882339F080914D1882FB882780F957
:1056E00091E0892708958091A509811106C08091D4
:1056F0004E15823011F00C94672B81E008950C94C4
:10570000F6D081E00C94A9D881E00895DC01EC91F9
:105710008E2F90E0FC01EE0FFF1FE80FF91FE05FF6
:10572000F94E80818F7780830895CF93DF93EC01CA
:10573000E62F660FFF0BEC5EF14DE491E250E13194
:1057400008F0B0C0F0E08827E755F44D8F4F0D9476
:105750001F4ABA2B522C522C522C522CE42BC62B03
:10576000082C062CE62B2C2C2A2C0A2C522C502CE4
:105770004E2C2E2C82E1E9E7F2E0DE0101900D9241
:105780008A95E1F7CE01DF91CF91089581E020EB7A
:1057900030E03983288321EB30E03B832A831D826C
:1057A0001C8223EB30E03F832E8324EB30E03987EB
:1057B00028871B861A861D861C8692E09E878F8707
:1057C00081E0888B198ADECF80E0E1CF81E08F5FB6
:1057D00020E930E03983288321E930E03B832A83C4
:1057E00022E930E03D832C8328E930E03F832E839B
:1057F0002AE930E0398728872CE930E03B872A877F
:1058000026E930E03D872C8793E0D8CF80E0DFCFDA
:1058100080E0DECF81E08F5F20EA30E039832883AB
:1058200021EA30E03B832A8322EA30E03D832C8367
:1058300028EA30E03F832E832AEA30E03987288740
:105840002CEA30E03B872A8726EA30E03D872C8728
:1058500094E0B4CF80E0DFCF80E0DECF81E08F5FE7
:1058600020E231E03983288321E231E03B832A833F
:1058700022E231E03D832C8328E231E03F832E8316
:105880002AE231E0398728872CE231E03B872A87FA
:1058900026E231E03D872C8795E090CF80E0DFCF96
:1058A00080E0DECF82E1FE0111928A95E9F76ACFAE
:1058B0008F929F92AF92BF92CF92DF92EF92FF9220
:1058C0000F93CF93DF931F92CDB7DEB75C017B01BF
:1058D00049016B01C40ED51EF501808191810F94A1
:1058E0007E498983002311F0F7018083BE016F5F39
:1058F0007F4FC4010E9400FBF501808191810196D8
:1059000091838083FFEFEF1AFF0AEC14FD0421F767
:1059100080E00F90DF91CF910F91FF90EF90DF909B
:10592000CF90BF90AF909F908F900895009781F493
:105930001092900082E08093910010929500109256
:105940009400C19A809171008260809371000895E3
:10595000019761F41092A00082E08093A100109260
:10596000A5001092A40089BB8093720008957F92D5
:105970008F929F92AF92BF92CF92DF92EF92FF925F
:105980000F931F93CF93DF93EC017B0188818831C4
:1059900008F0C4C090E0FC01EE0FFF1FE80FF91FF4
:1059A000E05FF94E808161E08F770E940B7E198263
:1059B0001A8288812CE0622F0F94FF49829FB001E8
:1059C000112430E020E0AB01420F531FFA01EE0F2B
:1059D000FF1FE40FF51FE05FF94E908197FD08C0AF
:1059E0002F5F3F4F2C30310571F790E00E94962CCD
:1059F0007880072D10E06801CC0CDD1CF601E00F6B
:105A0000F11FE05FF94E80818068808377FC86C05B
:105A100080E2E81682E0F8060CF03FC08A8128E5B3
:105A200032E0281B310987FD3395220F331F220FE7
:105A3000331F032E000C440B550B898178E8872E09
:105A4000912C881A910887FD9394880C991C880CD6
:105A5000991C092C000CAA08BB0860E070E0CB017F
:105A6000F7FC0AC0B701653B710514F064EB70E008
:105A7000072E000C880B990B281939094A095B0974
:105A80000F94944924EB30E040E050E00F94C64975
:105A9000820E931EA41EB51E740187E18715D8F0EF
:105AA000298188E890E0821B910927FD9395880F52
:105AB000991F880F991FE816F90604F502972FB76A
:105AC000F894E601C00FD11FC05FD94E880F991F0F
:105AD0009A8389832FBF62E370E080E090E0DF91DA
