:100000000C94FE1E0C943E1F0C943E1F0C943E1F3D
:100010000C943E1F0C943E1F0C943E1F0C943E1FEC
:100020000C943E1F0C943E1F0C943E1F0C943E1FDC
:100030000C943E1F0C943E1F0C943E1F0C943E1FCC
:100040000C943E1F0C94A1990C943E1F0C943E1FDF
:100050000C943E1F0C94778C0C943E1F0C94B07B38
:100060000C943E1F0C94873D0C947D3D0C943E1FD8
:100070000C943E1F0C943E1F0C943E1F0C943E1F8C
:100080000C943E1F0C943E1F0C943E1F0C943E1F7C
:100090000C943E1F0C943E1F0C943E1F0C943E1F6C
:1000A0000C943E1F0C943E1F0C943E1F0C943E1F5C
:1000B0000C943E1F0C943E1F0C943E1F0C943E1F4C
:1000C0000C943E1F0C943E1F0C943E1F0C94782AF7
:1000D0000C94422A0C943E1F0C943E1F0C943E1F1D
:1000E0000C943E1F084AD73B3BCE016E84BCBFFD3B
:1000F000C12F3D6C74319ABD56833DDA3D00C77FF8
:1001000011BED9E4BB4C3E916BAAAABE0000008090
:100110003F05A84CCDB2D44EB93836A9020C50B91F
:10012000918688083CA6AAAA2ABE000000803F004B
:100130000C941E2B0C94A0530C94B4530C94D854D0
:100140000C9499E60C9401710C9406710C949953DB
:100150000D94F4230D9480220D94D2340C940E2B24
:100160000C9472F50C94383E0C94C1CF0C942D3E37
:100170000C9458530C94E57A0D94A3250C944F29B4
:100180000C94C53D0C9497290D941E240C94117267
:100190000C94F9700D9499250C940B710C943854AF
:1001A0000C9410720C9484F50C94B7530D94EC24B9
:1001B0000C947BF50C948F530C94A6790C94E170FD
:1001C0000C94122B0C9435CF0C94B4E80C94BE54C0
:1001D0000C94A3530C94AA530C9401290D94112947
:1001E0000C9412540C94D0700C94E1780C949CCF25
:1001F0000C94342B0C94B1540C9495290C94CB543E
:100200000C94193E0D9470230D94DB280C948DE60C
:100210000C944B3E0C94E5700C94FE780C941D3EAF
:100220000C94313E0C9452540C9454E60C94A45407
:100230000D9475250C941C540C942D290C94FD7070
:100240000C9499290C9495530C94A0D00C940A2BDF
:100250000C948B530D94B5240C94123E0C9478F5A9
:100260000C9477CF0C940D290C94EB700C949C5348
:100270000C94213E0C942B290C942A540C94162B8C
:100280000C9464F50C94957A0C94B0530C941A2B3E
:100290000C94B62A0C949CE60C949FE60C946FF593
:1002A0000C94EB530D94F6280C94C9E80C948AE650
:1002B0000C944D290C9475F50C9431D00C94D87095
:1002C0000C946CF50C948E710C9496E60D94EA28BF
:1002D0000D94A7250C9471290C947A540C94AD5369
:1002E0000C94F3700C94F43D0C947BD00C94A2E627
:1002F0000C943C2B0C94222B0C94C5D00D94B4344C
:100300000C94D4700D9400250C9407710C94CC704F
:100310000C9493E60C945D530C9446540C945D79C4
:100320000C9475290C9481F50D94AB280D94B4258B
:100330000D94B7280C94433E0C94032B0D949025F8
:100340000C9456D00D9461250D947E250D94C924EE
:100350000D948C240C94837A0C9487F50D94872546
:100360000C9469F50C9451290C94A5E60C94EF704B
:100370000C9487E60D94BF220C94253E0C947329AF
:100380000C94C27A0C94A6530C94033E0C948AE805
:100390000C9496540C9490E60D941F250C9488545C
:1003A0000C945E540C94292B0C94EA790C946C54A4
:1003B0000D946C250C94FBE80C94057A0C948853EE
:1003C0000C94293E0C947EF50D94A9250C94F42AE6
:1003D0000C940CD00D9402290C942FE70C94DB7034
:1003E0000C94E52A0C9433E70C94C6700C94925349
:1003F0000C94E5E64E414E494E495459494E46CD7E
:10040000CCCC3D0AD7233C17B7D13877CC2B3295CB
:1004100095E6241FB14F0A000020410000C84200A9
:10042000401C4620BCBE4CCA1B0E5AAEC59D740073
:10043000407A10F35A00A0724E18090010A5D4E8B3
:100440000000E87648170000E40B54020000CA9A46
:100450003B000000E1F50500008096980000004098
:10046000420F000000A086010000001027000000DD
:1004700000E803000000006400000000000A000023
:100480000000000100000000002C76D888DC674FD7
:100490000823DFC1DFAE59E1B1B796E5E3E453C607
:1004A0003AE651997696E8E6C28426EB898C9B62FF
:1004B000ED407C6FFCEFBC9C9F40F2BAA56FA5F4A9
:1004C00090055A2AF75C936B6CF9676DC11BFCE0D1
:1004D000E40D47FEF520E6B500D0ED902E03009424
:1004E0003577050080841E080000204E0A000000B9
:1004F000C80C333333330F986E12831141EF8D21C3
:1005000014893BE65516CFFEE6DB18D1844B381B29
:10051000F77C1D901DA4BBE424203284725E2281EE
:1005200000C9F124ECA1E53D275A325F53544550F0
:100530005F50494E005A325F454E41424C455F5034
:10054000494E005A325F4449525F50494E005A5F4B
:1005500053544F505F50494E005A5F535445505FBB
:1005600050494E005A5F4D494E5F50494E005A5F08
:10057000454E41424C455F50494E005A5F444952F6
:100580005F50494E00595F53544F505F50494E00E1
:10059000595F535445505F50494E00595F4D415883
:1005A0005F50494E00595F454E41424C455F5049AE
:1005B0004E00595F4449525F50494E00585F5354B2
:1005C0004F505F50494E00585F535445505F50495B
:1005D0004E00585F4D41585F50494E00585F454EA0
:1005E00041424C455F50494E00585F4449525F506C
:1005F000494E00535549434944455F50494E0053C5
:100600004552564F335F50494E00534552564F3274
:100610005F50494E00534552564F315F50494E008E
:10062000534552564F305F50494E00534453530088
:1006300053445F4445544543545F50494E004D4F29
:10064000534645545F435F50494E004D4F53464516
:10065000545F425F50494E004D4F534645545F41F1
:100660005F50494E0054454D505F305F43535F50DB
:10067000494E004C45445F50494E00484541544561
:10068000525F4245445F50494E00484541544552EF
:100690005F305F50494E0046494C5F52554E4F55B2
:1006A000545F50494E0046414E5F50494E0045311F
:1006B0005F535445505F50494E0045315F454E41B0
:1006C000424C455F50494E0045315F4449525F50AE
:1006D000494E0045315F43535F50494E0045305FFE
:1006E000535445505F50494E0045305F454E41429E
:1006F0004C455F50494E0045305F4449525F504978
:100700004E004245455045525F50494E00415652B9
:100710005F53535F50494E004156525F53434B5F06
:1007200050494E004156525F4D4F53495F50494E1C
:10073000004156525F4D49534F5F50494E0054455A
:100740004D505F4245445F50494E0054454D505F07
:10075000315F50494E0054454D505F305F50494E17
:100760000046494C57494454485F50494E0054583C
:1007700044320052584432005458443000525844D5
:100780003000434F4D4D554E49434154494F4E0063
:1007900044525952554E004552524F525300494E01
:1007A000464F004543484F004572726F7220777282
:1007B0006974696E6720746F20454550524F4D2112
:1007C0000A00363726033C3D380E2E303E122422D6
:1007D0001E1A1C180A43090844000153544F505074
:1007E00045442E20005072696E7465722073746FD8
:1007F000707065642064756520746F206572726F17
:1008000072732E2046697820746865206572726F55
:100810007220616E6420757365204D3939392074FA
:100820006F20726573746172742E202854656D7028
:100830006572617475726520697320726573657481
:100840002E2053657420697420616674657220726D
:10085000657374617274696E67290A004E6F204374
:100860006865636B73756D2077697468206C696E59
:1008700065206E756D6265722C204C617374204C1E
:10088000696E653A20004E6F20436865636B73752F
:100890006D2077697468206C696E65206E756D6275
:1008A00065722C204C617374204C696E653A20008F
:1008B000636865636B73756D206D69736D617463D7
:1008C000682C204C617374204C696E653A20004C92
:1008D000696E65204E756D626572206973206E6F5A
:1008E00074204C617374204C696E65204E756D6286
:1008F00065722B312C204C617374204C696E653A03
:1009000020004D3131300053657269616C20737481
:1009100061747573206D69736D617463680A007723
:100920006169740A005344207265616420657272C3
:100930006F720A002121204B494C4C206361757372
:10094000656420627920746F6F206D75636820691B
:100950006E6163746976652074696D65202D20630E
:10096000757272656E7420636F6D6D616E643A208E
:1009700000486F74656E642049646C652054696D2D
:10098000656F757400486F74656E642049646C65AA
:100990002054696D656F75740A003D3D6F6E466940
:1009A0006C616D656E7452756E6F75743D3D00704F
:1009B00061757365004D363030002066696C616D7D
:1009C000656E745F72756E6F7574200066696C6118
:1009D0006D656E745F72756E6F7574205400466934
:1009E0006C616D656E7452756E6F75742054004D38
:1009F000313030305300627573793A20706175730D
:100A0000656420666F7220696E7075740A00627585
:100A100073793A2070617573656420666F72207512
:100A20007365720A00627573793A2070726F63653C
:100A30007373696E670A0025533A202553002A2AEA
:100A40002A6B696C6C2A2A2A00706F7765726F6650
:100A500066004B494C4C45442E20005072696E7420
:100A600065722068616C7465642E206B696C6C28FB
:100A7000292063616C6C6564210A006563686F3AC4
:100A8000004572726F723A0042696C696E656172FC
:100A9000204C6576656C696E6720477269643A0A16
:100AA000002F2F616374696F6E3A006E6F74696610
:100AB00069636174696F6E200070726F6D70745F2E
:100AC00000656E6400486F74656E6420746F6F20FB
:100AD000636F6C640A0053656E64204D31303820BA
:100AE000746F20726573756D650A00496E73657267
:100AF000742066696C616D656E7420616E6420732C
:100B0000656E64204D3130380A0052656865617445
:100B100020446F6E6500526568656174696E672E6A
:100B20002E2E0052656865617400486561746572B7
:100B30002054696D656F75740053656E64204D3186
:100B4000303820746F2068656174206E6F7A7A6C1B
:100B5000650A004E6F7A7A6C65205061726B65642D
:100B600000706175736564005061757365004F4670
:100B7000460A00466164652048656967687420001C
:100B8000426564204C6576656C696E67200046613D
:100B9000696C656420746F20656E61626C652042CB
:100BA0006564204C6576656C696E670A00496E76EF
:100BB000616C6964206D6573682E0A0050726F6203
:100BC000696E6720506F696E740025532025692F68
:100BD0002569002E0A002F0050726F62696E67202F
:100BE0006D65736820706F696E7420002028445210
:100BF0005952554E2900473239204175746F2042B1
:100C00006564204C6576656C696E67003F20284CF2
:100C10002C522C462C4229206F7574206F6620625E
:100C20006F756E64732E0A003F2856296572626FD5
:100C30007365206C6576656C20696D706C61757389
:100C400069626C652028302D34292E0A00426164C7
:100C5000205A2076616C75650A004E6F2062696CBF
:100C6000696E65617220677269640A004163637529
:100C7000726163792044656372656173696E67218F
:100C80000044656372656173696E672041636375D3
:100C9000726163792044657465637465642E0A002B
:100CA000473238004732385A0041636375726163D6
:100CB000793A2000206F66200044696420004733A1
:100CC000342061626F727465642E0A00416363753B
:100CD0007261637920416368696576656400546177
:100CE0007267657420616363757261637920616303
:100CF0006869657665642E0A00313A323D257300D5
:100D00000A5A322D5A313D0050726F62696E672067
:100D10004661696C65640050726F62696E67206637
:100D200061696C65640A00473334204974657261F7
:100D300074696F6E3A202569000A4733342049747C
:100D400065726174696F6E3A20003F2841296D70A9
:100D50006C696669636174696F6E206F7574206F6A
:100D60006620626F756E64732028302E352D322E0A
:100D700030292E0A003F285429617267657420616A
:100D800063637572616379206F7574206F6620628A
:100D90006F756E64732028302E30312D312E30293E
:100DA0002E0A003F2849297465726174696F6E20AC
:100DB0006F7574206F6620626F756E6473202831C2
:100DC0002D3330292E0A003F285929206F757420B1
:100DD0006F6620626F756E64732E0A003F28582973
:100DE000206F7574206F6620626F756E64732E0AB3
:100DF0000020696E64657820696E76616C69642094
:100E000028312E2E32292E0A003F285329205072D5
:100E10006F62652D706F736974696F6E003F285340
:100E2000292069732072657175697265642E0A00E4
:100E300020204D3432322053005A204175746F2DDA
:100E4000416C69676E0020440020204D3230302014
:100E50005300202844697361626C6564293A004636
:100E6000696C616D656E742073657474696E677307
:100E70000020204D3230312058004D6178204163F0
:100E800063656C65726174696F6E2028756E697434
:100E9000732F7332290020204D3230332058004DFB
:100EA0006178206665656472617465732028756E6B
:100EB0006974732F73290020520020204D32303482
:100EC000205000416363656C65726174696F6E20C8
:100ED00028756E6974732F7332292028503C707204
:100EE000696E742D616363656C3E20523C7265745B
:100EF000726163742D616363656C3E20543C74724F
:100F00006176656C2D616363656C3E2900574152C3
:100F10004E494E4721204C6F77205A204A65726B0C
:100F2000206D6179206C65616420746F20756E7727
:100F3000616E746564207061757365732E0A00209C
:100F4000540020530020204D3230352042004164AF
:100F500076616E6365642028423C6D696E5F7365DF
:100F6000676D656E745F74696D655F75733E205360
:100F70003C6D696E5F66656564726174653E2054A0
:100F80003C6D696E5F74726176656C5F6665656401
:100F9000726174653E20583C6D61785F6A65726B62
:100FA0003E20593C6D61785F6A65726B3E205A3C09
:100FB0006D61785F6A65726B3E20453C6D61785F5C
:100FC0006A65726B3E290020440020490020204DB4
:100FD000333031205000486F74656E6420504944AE
:100FE0000020440020490020204D333034205000A0
:100FF000426564205049440050574D3A2020253422
:10100000640050574D3A20202534640050574D3A23
:1010100020202534640050574D3A202025346400A8
:1010200050574D3A20202534640050574D3A202027
:101030002534640050574D3A202025346400505721
:101040004D3A20202534640050574D3A2020253455
:10105000640050574D3A20202534640050574D3AD3
:1010600020202534640050574D3A20202534640058
:1010700050574D3A20202534640050574D3A2020D7
:101080002534640050574D3A2020253464005057D1
:101090004D3A2020253464003A20002020202043AF
:1010A0004F4D002020206E6F6E2D7374616E646151
:1010B00072642050574D206D6F64650020202063BE
:1010C0006F6D7061726520696E746572727570748F
:1010D00020656E61626C6564002020206F76657209
:1010E000666C6F7720696E746572727570742065B6
:1010F0006E61626C6564003A200020202020544913
:101100004D534B00423A20002020202054434352AC
:1011100000413A2000202020205443435200202048
:10112000202043533A20002020202057474D3A20CA
:101130000050574D3A20202534640050574D3A2036
:10114000202534640047004800000088008A008C95
:1011500000B300B400000098009A009C00A800AA08
:1011600000AC0028012A012C012020202054494DE8
:10117000455200440045006E00800081006F00B0C1
:1011800000B1007000900091007100A000A10072F9
:101190000020012101730020697320616C736F20AE
:1011A0007469656420746F20746869732070696E57
:1011B0000054494D45523143000A202E00202000A2
:1011C0002020506F72743A20002020200020202020
:1011D000416E616C6F6720696E203D2025356C641F
:1011E000003C756E757365642F756E6B6E6F776EF0
:1011F0003E00202841253264292020002533642028
:101200000050494E3A20004F7574707574203D208F
:1012100000496E70757420203D2000416E616C6F36
:101220006720696E203D2025356C640070726F74F4
:1012300065637465642000202841253264292020DC
:1012400000253364200050494E3A20007D070001FC
:1012500078070101730711016E07100161073B0058
:10126000560743004B0745003E0744003107320153
:1012700024073301180734010D0735010207250142
:10128000F7061C01E9061801DD061A01D3062C0138
:10129000C8062201BA061E01AE062401A6060901EF
:1012A000970602018A060A017B06080173060D01F2
:1012B0006506420158060A014B0607013E06080171
:1012C000300631012B06350120060B0115060601FB
:1012D0000A060501FF050401F3050C01E9053701C4
:1012E000DC052601D2050301C7053601BC05030153
:1012F000B2053D01A50538019B050E0190053C0195
:1013000085050E017B0530016E053E016405120165
:1013100059052E014E0512014305220135051E0116
:1013200029052401446F6E652E0A0050756C73699F
:101330006E6720202000556E746F756368656420A9
:1013400000534552564F206E6F742073657420759C
:10135000702E0A004D343320576169742043616C4C
:101360006C6564004D343320576169742043616CAF
:101370006C6564005761746368696E672070696E9C
:10138000730A0064697300656E0061626C65640ACB
:1013900000656E6473746F70206D6F6E69746F7228
:1013A000200020580020204D61783A2000200020A5
:1013B000204D696E3A2000203B200020204D323124
:1013C00031205300536F667420656E6473746F70C0
:1013D00073003F43616E6E6F74207772697465208D
:1013E000746F20494E5055540A00496E76616C69FD
:1013F000642050696E204D6F64650A00203B002018
:10140000550020204D363033204C0046696C616D0C
:10141000656E74206C6F61642F756E6C6F61640013
:101420004D323453256C6454256C64004739322E98
:10143000394525730047314625640047315A2573E5
:1014400046363030004731582573592573463330BE
:101450003030004D313036502569532569004D310B
:101460003039532569004D323030442573004739F7
:10147000322E395A2573004D3432305325635A25A4
:101480007300473238523058590047315A25734655
:10149000363030004739322E395A257300473932F9
:1014A0002E394530004D313039532569004D3139E1
:1014B00030532569004D343230205330205A3000EB
:1014C0003D3D4F6E506F7765724C6F73735265730D
:1014D000756D653D3D00203B200020204D343133AB
:1014E000205300506F7765722D6C6F737320726597
:1014F000636F76657279004F4646004F4E00203B81
:1015000020486F73742068616E646C696E67200098
:10151000203B204D6F646520006D6D00203B204412
:10152000697374616E6365200046696C616D656EF8
:10153000742072756E6F757420003B200020496E18
:1015400076616C69642065787472756465722000D8
:1015500047322F47332062616420706172616D658C
:10156000746572730A00536C6565702E2E2E005AD6
:101570002050726F62652050617374204265640A66
:10158000005A2050726F626520506173742042656A
:1015900064004732384C3000205A3A200020593A33
:1015A000200042656420583A20004D657368207021
:1015B0006F696E74206F7574206F662072616E673C
:1015C000650A004D302053746F70004D3120537404
:1015D0006F7000436C69636B20746F205265737584
:1015E0006D652E2E2E004E6F204D6F76652E0045B8
:1015F0006E642066696C65206C6973740A004265CC
:1016000067696E2066696C65206C6973740A004EA8
:101610006F206D656469610A00526573756D696E4E
:101620006720534400286E6F2066696C652900436B
:10163000757272656E742066696C653A200050722E
:10164000696E742074696D653A20000A5374617480
:10165000733A2046696C616D656E742075736564BC
:101660003A20002C204C6F6E67657374206A6F629D
:101670003A2000546F74616C2074696D653A2000E3
:1016800053746174733A20002C204661696C656460
:101690003A20002C2046696E69736865643A200020
:1016A0005072696E74733A200053746174733A20F7
:1016B000006F6B006F666600A3079E079707900791
:1016C000820744454255473A004D3131332053009B
:1016D000544D334420453520506C7573204F464699
:1016E0002E002F2F0046523A0020466C6F773A208A
:1016F0000050726F7465637465642050696E0A00EF
:1017000064697300656E0043290A0061626C656458
:1017100020286D696E2074656D702000436F6C64C5
:10172000206578747275646573206172652000505D
:101730004944204175746F74756E650050494420AA
:101740004175746F74756E65206661696C6564219E
:1017500020426164206865617465722069640A00D2
:101760004D34323120696E636F727265637420701C
:101770006172616D657465722075736167650A00D9
:101780004D65736820706F696E74206F7574206F7B
:10179000662072616E67650A00454550524F4D20C4
:1017A0004F4B0A002E0A002028302D31302900200E
:1017B00076616C7565206F7574206F662072616E3E
:1017C000676500416476616E6365204B3D004D386E
:1017D0003400446F6E65207072696E74696E6720A4
:1017E00066696C650A004D3737004D333100496E2C
:1017F00076616C69642065787472756465720A003C
:101800000A20696E6974207A70726F62655F7A6F00
:101810006666736574203D20003D3D6F6E436F6EBC
:1018200066696775726174696F6E53746F72655221
:101830006561643D3D00454550524F4D20496E69FC
:101840007469616C697A65640A0048617264636FE7
:101850006465642044656661756C742053657474B6
:10186000696E6773204C6F616465640020286D6D3C
:101870002900203B204C6576656C696E672000204E
:10188000204D3432302053004175746F204265641E
:10189000204C6576656C696E670020204D393030CC
:1018A000204B004C696E65617220416476616E6305
:1018B000650046696C616D656E742072756E6F753A
:1018C000742073656E736F7200204A0020204732C7
:1018D00039205720490020204D3134392043203B06
:1018E00020556E69747320696E2043656C73697549
:1018F000730A0054656D7065726174757265205568
:101900006E697473002020473231203B004C696EB1
:1019100065617220556E69747300454550524F4D94
:10192000206461746173697A65206572726F722ECA
:101930000A0053657474696E6720566F6C756D6527
:10194000204F6E203A200053657474696E672053EF
:1019500074616E646279204F6E203A200053657482
:1019600074696E6720566F6C756D65203A20005360
:10197000657474696E6720526F746174696F6E204C
:101980003A200053657474696E67205374616E6405
:1019900062792054696D65203A200053657474693A
:1019A0006E67205374616E646279203A200053653B
:1019B0007474696E67204272696768746E657373C8
:1019C000203A20004C6F6164696E67204457494E8D
:1019D000204C43442073657474696E672066726F8F
:1019E0006D20454550524F4D0A0044697363617242
:1019F00064696E67204457494E204C434420736508
:101A00007474696E672066726F6D20454550524F41
:101A10004D202D2073657474696E6773207665722E
:101A200073696F6E20696E636F72726563740A000A
:101A300044697363617264696E67204457494E203C
:101A40004C43442073657474696E672066726F6DD1
:101A500020454550524F4D202D2073697A652069ED
:101A60006E636F72726563740A0053746F7265649B
:101A70002073657474696E6773207265747269652A
:101A800076656400290A002062797465733B2063DF
:101A9000726320002073746F7265642073657474C0
:101AA000696E677320726574726965766564202853
:101AB00000454550524F4D20435243204572726FAE
:101AC0007200202863616C63756C61746564292100
:101AD0000A0020213D2000454550524F4D204352E1
:101AE00043206D69736D61746368202D20287374C1
:101AF0006F7265642920002053697A653A20004995
:101B00006E6465783A200000803B4400803B4400CE
:101B1000002041000096420000A0420000A04200C8
:101B20000048440080CF43D0070000D00700006485
:101B30000000004B000000454550524F4D205665B7
:101B40007273696F6E204572726F7200204D617200
:101B50006C696E3D563837290A00454550524F4D45
:101B60002076657273696F6E206D69736D61746341
:101B7000682028454550524F4D3D0024F4D4305044
:101B8000C38E20C2A24017828B7011127A910D81F0
:101B90006CD90AA861E108C7586607615143061E5F
:101BA0004B5D05C145A7041A411104093D98037115
:101BB0003931034036DB0265339102D43054028060
:101BC0002E1D02632CEE01752AC501B028A001105C
:101BD0002781018F2564012B244B01E0223401ACC5
:101BE000211F018D200D01801FFC00841EED009738
:101BF0001DDF00B81CD200E61BC600201BBC006421
:101C00001AB200B219A8000A19A0006A189900D1E6
:101C100017910040178B00B516840031167E00B373
:101C20001579003A157300C7146F0058146A00EE56
:101C30001366008813630025135E00C7125B006CF7
:101C400012570015125400C111510070114F00219C
:101C5000114B00D61049008D104700461044000279
:101C6000104200C00F4000800F3E00420F3C0006B3
:101C70000F3B00CB0E3800930E37005C0E3500276B
:101C80000E3400F30D3200C10D3100900D300060B4
:101C90000D2E00320D2D00050D2C00D90C2B00AEA1
:101CA0000C2900850C29005C0C2700350C27000E40
:101CB0000C2600E80B2400C40B2400A00B23007D9D
:101CC0000B23005A0B2100390B2100180B2000F8C0
:101CD0000A1F00D90A1E00BB0A1E009D0A1D0080B3
:101CE0000A1D00630A1C00470A1B002C0A1B001176
:101CF0000A1A00F7091A00DD091900C4091900AB16
:101D0000091900920917007B091800630917004C94
:101D100009160036091600200916000A091500F5F3
:101D2000081500E0081400CC081400B8081400A43A
:101D3000081400900813007D0812006B0813005867
:101D4000081200460812003408110023081100127E
:101D500008110001081100F0071000E0071000D082
:101D6000071000C0071000B0070F00A10710009176
:101D7000070E0083070F0074070F0065070E00575A
:101D8000070E0049070E003B070D002E070E00202E
:101D9000070D0013070D0006070D00F9060C00EDF6
:101DA000060D00E0060C00D4060C00C8060C00BCB2
:101DB000060C00B0060C00A4060B0099060C008D62
:101DC000060B0082060B0077060B006C060B006109
:101DD000060A0057060B004C060A0042060A0038A5
:101DE000060A002E060A0024060A001A060A001037
:101DF00006090007060A00FD050900F4050900EBC5
:101E0000050900E2050900D9050900D0050900C748
:101E1000050900BE050900B5050800AD050800A5C7
:101E20000509009C050800940508008C050800843D
:101E30000508007C050800740508006C05070065AE
:101E40000508005D050700560508004E0507004718
:101E50000507004005080038050700310507002A7E
:101E6000050700230507001C050600160507000FDF
:101E70000507000805060002050700FB040600F53B
:101E8000040700EE040600E8040600E2040700DB95
:101E9000040600D5040600CF040600C9040600C3EA
:101EA000040600BD040600B7040600B1040500AC3A
:101EB000040600A6040600A00405009B0406009585
:101EC000040500900406008A0405008504050080CE
:101ED0000406007A04050075040500700405006B13
:101EE00004050066040500610405005C0405005754
:101EF000040500520405004D040500480405004394
:101F00000405003E0404003A0405003504050030D1
:101F10000404002C04050027040400230405001E0B
:101F20000404001A04040016040500110404000D42
:101F3000040400090405000404040000040400FC77
:101F4000030400F8030400F4030400F0030400ECAD
:101F5000030400E8030400E4030400E0030400DCDD
:101F6000030400D8030400D4030400D0030400CC0D
:101F7000030400C8030300C503030024F404D920AC
:101F80001BC40C5C0E9804C4095F0265077101F460
:101F900005F900FB04B30048048700C10369005839
:101FA00003550003034500BE023A0084023100538A
:101FB000022A002902250004022000E4011C00C8B6
:101FC000011900AF0117009801140084011300717A
:101FD0000110006101100051010E0043010D003697
:101FE000010B002B010B0020010B00150109000C57
:101FF00001090003010800FB000800F3000800EBE2
:10200000000700E4000600DE000600D8000600D24B
:10201000000600CC000500C7000500C2000500BD99
:10202000000400B9000400B5000400B1000400ADD4
:10203000000400A9000400A5000300A20003009F03
:102040000004009B00030098000300950002009329
:10205000000300900003008D0002008B0003008845
:102060000002008600020084000300810002007F5D
:102070000002007D0002007B000200790002007770
:10208000000100760002007400020072000100717D
:102090000002006F0002006D0001006C0002006A87
:1020A0000001006900020067000100660001006590
:1020B0000001006400020062000100610001006094
:1020C0000001005F0002005D0001005C0001005B98
:1020D0000001005A0001005900010058000100579A
:1020E000000100560001005500010054000100539A
:1020F0000000005300010052000100510001005097
:102100000001004F0001004E0000004E0001004D94
:102110000001004C0001004B0000004B0001004A90
:10212000000100490001004800000048000100478C
:102130000001004600000046000100450000004587
:102140000001004400010043000000430001004280
:102150000000004200010041000000410001004079
:102160000001003F0000003F0001003E0000003E73
:102170000001003D0000003D0001003C0000003C6B
:102180000000003C0001003B0000003B0001003A61
:102190000000003A00010039000000390001003859
:1021A0000000003800000038000100370000003750
:1021B0000001003600000036000000360001003546
:1021C000000000350000003500010034000000343C
:1021D0000000003400010033000000330000003331
:1021E0000001003200000032000000320001003126
:1021F000000000310000003100010030000000301C
:10220000000000300001002F0000002F0000002F10
:102210000000002F0001002E0000002E0000002E04
:102220000001002D0000002D0000002D0000002DF9
:102230000001002C0000002C0000002C0000002CED
:102240000001002B0000002B0000002B0000002BE1
:102250000001002A0000002A0000002A0000002AD5
:1022600000010029000000290000002900000029C9
:1022700000000029000100280000002800000028BC
:1022800000000028000000280001002700000027AF
:1022900000000027000000270000002700010026A2
:1022A0000000002600000026000000260000002696
:1022B0000001002500000025000000250000002589
:1022C000000000250000002500010024000000247B
:1022D000000000240000002400000024000100236E
:1022E0000000002300000023000000230000002362
:1022F0000000002300000023000100220000002253
:102300000000002200000022000000220000002245
:102310000001002100000021000000210000002138
:102320000000002100000021000000210001002029
:10233000000000200000002000000020000000201D
:102340000000002000000020000000200001001F0D
:102350000000001F0000001F0000001F0000001F01
:102360000000001F0000001F0001001E0000001EF2
:102370000000001E0000001E000000232C0000B81A
:10238000220000561800003A0F0000B8080000B103
:10239000040000710200003E01000020436F756ED2
:1023A0007420583A0023646566696E65204445468A
:1023B00041554C545F0000626564004B6420004B43
:1023C0006920004B7020005049442074756E696E7E
:1023D0006720646F6E6500504944204175746F74C6
:1023E000756E652066696E69736865642120507535
:1023F0007420746865206C617374204B702C204BC2
:102400006920616E64204B6420636F6E7374616E2B
:1024100074732066726F6D2062656C6F7720696ED1
:10242000746F20436F6E66696775726174696F6E51
:102430002E680A00504944204175746F74756E65AA
:10244000206661696C6564212074696D656F7574BF
:102450000A004175746F74756E65206661696C65FC
:1024600064212054696D656F75742E0050494420B5
:102470004175746F74756E65206661696C65642161
:102480002054656D706572617475726520746F6F2C
:1024900020686967680A00504944204379636C6585
:1024A000730025532025692F256900204B643A20AD
:1024B00000204B693A2000204B703A200020436CEA
:1024C000617373696320504944200A00204E6F20D5
:1024D0006F76657273686F6F740A002054753A20C6
:1024E00000204B753A2000206D61783A2000206D65
:1024F000696E3A200020643A200020626961733AD4
:10250000200048656174696E672E2E2E0050494484
:10251000204175746F74756E652073746172740AEE
:10252000004175746F74756E65206661696C6564D1
:102530002E2054656D706572617475726520746FBC
:102540006F20686967682E00504944204175746F98
:1025500074756E65206661696C6564212054656DD3
:10256000706572617475726520746F6F2068696739
:10257000680A0042656400453100450062656400F8
:102580002C2073797374656D2073746F707065643B
:1025900021204865617465725F49443A20004865AE
:1025A0006174696E67204661696C656400486561A5
:1025B00074696E67206661696C6564004D31313203
:1025C0002053687574646F776E001000C9021001A3
:1025D0002C014001220170011801B0010E01F0012F
:1025E00004015002FA00B002F0003003E600D0030C
:1025F000DC009004D2007005C800A006BE000008F0
:10260000B400B009AA00D00BA000600E96006011C3
:102610008C000015820020197800C01D6E00A022D9
:102620006400B0275A00902C500000314600E0347E
:102630003C0010383200903A2800603C1E00A03D5B
:102640001400803E0A00203F00004572723A204D7F
:10265000415854454D50004D415854454D502074FB
:102660007269676765726564004572723A204D4908
:102670004E54454D50004D494E54454D50207472B6
:102680006967676572656400544845524D414C2046
:1026900052554E4157415900546865726D616C2026
:1026A00052756E61776179000A0A0020205A5F4DE9
:1026B000494E3A002020595F4D41583A0020205899
:1026C0005F4D41583A00202F002042403A00204000
:1026D0003A0020573A007C3C3E5E2B3D3F2F5B5D2D
:1026E0003B2C2A225C0043616E6E6F74206F706514
:1026F0006E2073756264697220004D6564696120A3
:10270000496E6974204661696C00534420636172AC
:1027100064206F6B0A006F70656E526F6F74206675
:1027200061696C65640A00766F6C756D652E696E03
:102730006974206661696C65640A004E6F205344B9
:1027400020636172640A000A4D3234004D32332036
:102750002573002E0A006F70656E206661696C65D6
:10276000642C2046696C653A200046696C652073CC
:10277000656C65637465640A002053697A653A2064
:102780000046696C65206F70656E65643A2000458F
:102790004E4420535542524F5554494E450A00224B
:1027A00020706F73002220706172656E743A22008F
:1027B000535542524F5554494E452043414C4C20AD
:1027C0007461726765743A220053756263616C6C60
:1027D000204F766572666C6F770045786365656437
:1027E0006564206D617820535542524F5554494ECF
:1027F000452064657074683A002E0A0044656C6573
:1028000074696F6E206661696C65642C2046696C22
:10281000653A200046696C652064656C6574656482
:102820003A005344207072696E74696E6720627951
:10283000746520004E6F74205344207072696E746A
:10284000696E670A002F6175746F25632E670057E4
:10285000726974696E6720746F2066696C653A20CE
:1028600000667265736800646F696E670020666950
:102870006C653A20004E6F7720002020506C616E0E
:102880006E657242756666657242797465733A2048
:10289000002046726565204D656D6F72793A2000A3
:1028A00020436F6D70696C65643A204D617920201A
:1028B0003120323032320A00204C6173742055705E
:1028C00064617465643A20323032322D30342D30F8
:1028D00033207C20417574686F723A20426F6E64B9
:1028E00074656368202F20496E73616E6974794145
:1028F00075746F6D6174696F6E0A004D61726C69F9
:102900006E204457372E342E360A0020536F6674DB
:10291000776172652052657365740A00205761748F
:102920006368646F672052657365740A00204272A1
:102930006F776E206F75742052657365740A00207E
:1029400045787465726E616C2052657365740A0017
:10295000506F77657255700A0073746172740A0063
:102960004739310A47315A350A4739300A4D383428
:102970000A4D31303453300A4D3134305330004D2C
:1029800031303031006572726F722077726974690C
:102990006E6720746F2066696C650A00446F6E650F
:1029A00020736176696E672066696C652E0A004D3A
:1029B000323900456E6473746F707300255320259F
:1029C0006320256320256320256300205A3A0020D8
:1029D000593A0020583A00656E6473746F70732022
:1029E0006869743A200000002100240027002A00B2
:1029F0002D003000330001010000040107010A012D
:102A000000002200250028002B002E003100340099
:102A100002010000050108010B0100002000230055
:102A2000260029002C002F003200000100000301C5
:102A30000601090105050505070508080808020241
:102A400002020A0A08080404040401010101010148
:102A500001010303030303030303040707070C0C2B
:102A60000C0C0C0C0C0C02020202060606060606F2
:102A700006060B0B0B0B0B0B0B0B01021020200897
:102A800008102040102040800201020108040201C9
:102A90000102040810204080804020100804020138
:102AA0008004020180402010080402010804020191
:102AB0000102040810204080010204081020408018
:102AC00000000A0B02090C0D0E08070304010000A8
:102AD00000000000000000000000000000000000F6
:102AE00000000000000000000000000012111000B3
:102AF00000000000000000000000000000000000D6
:102B00000000000000000101FF50726F62696E67F3
:102B1000204661696C65640A0050726F62696E6775
:102B2000204661696C656400205A3A200020593AB9
:102B3000200042656420583A2000726573756D6507
:102B400064004469736D69737300526573756D69D0
:102B50006E670073686F7700627574746F6E0062E1
:102B60006567696E0044697361626C6552756E6F6A
:102B700075740050757267654D6F726500506175B0
:102B800073656400436F6E74696E7565004C6F61A8
:102B9000642046696C616D656E742054004C6F61F1
:102BA000642046696C616D656E7400496E73657270
:102BB000742066696C616D656E7420616E6420734B
:102BC000656E64204D3130380A0020204D32303699
:102BD000205800486F6D65206F6666736574004FFE
:102BE000666673657473204170706C696564004536
:102BF00072723A20546F6F206661722100546F6FB9
:102C0000206661722066726F6D20726566657265FE
:102C10006E636520706F696E740A004361703A00DC
:102C2000434F4E4649475F4558504F5254004D451B
:102C300041545041434B00434F4F4C45525F544524
:102C40004D5045524154555245004348414D42452F
:102C5000525F54454D5045524154555245004241F2
:102C600042595354455050494E4700415243530036
:102C70004D4F54494F4E5F4D4F44455300544845C6
:102C8000524D414C5F50524F54454354494F4E00B2
:102C9000455854454E4445445F4D323000435553EA
:102CA000544F4D5F4649524D574152455F55504C28
:102CB0004F4144004C464E5F5752495445004C4FDB
:102CC0004E475F46494C454E414D45004155544F96
:102CD0005245504F52545F53445F535441545553DF
:102CE0000053445F575249544500524550454154A2
:102CF000004D554C54495F564F4C554D450053447B
:102D0000434152440050524F4D50545F5355505020
:102D10004F525400484F53545F414354494F4E5F04
:102D2000434F4D4D414E445300454D455247454E4E
:102D300043595F50415253455200434153455F4C04
:102D4000494748545F4252494748544E45535300FF
:102D5000544F47474C455F4C494748545300534FE5
:102D60004654574152455F504F57455200425549CE
:102D70004C445F50455243454E54004C4556454CDB
:102D8000494E475F44415441005A5F50524F4245BB
:102D90000052554E4F5554004155544F4C455645E1
:102DA0004C005052494E545F4A4F420050524F47D8
:102DB00052455353004155544F5245504F52545F62
:102DC00054454D50004155544F5245504F52545F59
:102DD000504F5300564F4C554D45545249430045B2
:102DE0004550524F4D0042494E4152595F46494C61
:102DF000455F5452414E5346455200534552494156
:102E00004C5F584F4E5F584F4646004649524D570B
:102E10004152455F4E414D453A4D61726C696E209D
:102E20004457372E342E3620544D334420453550E8
:102E3000534D44414220284D6179202031203230C9
:102E400032322031353A35363A32302920534F5517
:102E50005243455F434F44455F55524C3A68747442
:102E600070733A2F2F6769746875622E636F6D2FC8
:102E7000496E73616E6974794175746F6D617469BF
:102E80006F6E2F4D61726C696E2F747265652F4382
:102E90007265616C6974794477696E5F322E302097
:102EA00050524F544F434F4C5F56455253494F4E2B
:102EB0003A312E30204D414348494E455F545950D8
:102EC000453A544D334420453520506C75732045A8
:102ED000585452554445525F434F554E543A312051
:102EE000555549443A63656465326132662D343123
:102EF00061322D343734382D396231322D63353516
:102F00006336326633363766660A0050726F626522
:102F1000204F6666736574205A0050726F62652098
:102F20004F6666736574205A00290A0020746F206A
:102F3000003F5A206F7574206F662072616E67655E
:102F4000202800290A0020746F20003F59206F7547
:102F500074206F662072616E676520282D00290A33
:102F60000020746F20003F58206F7574206F66201A
:102F700072616E676520282D00203B0020204D38AF
:102F800035312058005A2D50726F6265204F6666A9
:102F90007365740043616E6E6F74206F70656E2090
:102FA00073756264697220002569730025696D205C
:102FB000256973002569682025696D2025697300DE
:102FC000256964202569682025696D2025697300BD
:102FD00025697920256964202569682025696D2087
:102FE00025697300436F6F6C696E672E2E2E004546
:102FF000312025530020573A0042656420436F6F0B
:103000006C696E672E2E2E004265642048656174DF
:10301000696E672E2E2E003D3D4477696E20496E05
:10302000697420436F6D706C6574653D3D00202DA3
:10303000206434200064333A2000202D20643220A4
:103040000064313A2000202D206C656E200056501F
:103050002072656365697665643A200077616974FA
:10306000776179203D3D0020202A2A2A2A2A2A2A0F
:103070005254535F48616E646C65446174612A2ADE
:103080002A2A2A2A2A2A20002A2A2A4E6F7A7A6C89
:103090006554656D705374617475735B325D203D6A
:1030A000003D3D48656174696E6720446F6E652020
:1030B0004368616E67652046696C616D656E743D3D
:1030C0003D002020737461727470726F6772657353
:1030D0007320004D32320A4D3231003D3D77616937
:1030E0007477617920353D3D003D3D7761697477A6
:1030F000617920343D3D003D3D77616974776179A8
:1031000020333D3D003D3D77616974776179203121
:103110003D3D00436F6E6669726D20436F6E74694A
:103120006E756500506175736553746174757300D5
:10313000524553554D45204F5054494F4E533A0038
:1031400048656174696E672E2E2E000000436C691D
:10315000636B20746F2068656174000000526573B2
:10316000756D696E672E2E2E0000005075726769AE
:103170006E672E2E2E000000496E736572742061FA
:103180006E6420436C69636B000000436C69636B81
:1031900020746F20636F6E74696E75650000004562
:1031A0006A656374696E672E2E2E000000506C6590
:1031B00061736520776169742E2E2E0000005061C6
:1031C000726B696E672E2E2E0000002A2A2A496E25
:1031D0006974696E672063617264206973204F4B64
:1031E0002A2A2A003D3D6F6E5072696E7454696DD3
:1031F000657253746F707065643D3D003D3D6F6E48
:1032000055736572436F6E6669726D52657175694B
:103210007265643D3D005061757365204D6F646556
:1032200020537461747573004C6F6164696E672E0E
:103230002E2E0000003D3D6F6E466163746F727903
:1032400052657365743D3D00270A0A000027202758
:10325000002027002D0063616E63656C0050726969
:103260006E742041626F727465640055492041623A
:103270006F7274656400726573756D65004D3234EC
:10328000002A2A2A43506C617920546F6E652A2ADD
:103290002A003D3D6F6E5072696E7454696D65729F
:1032A0005061757365643D3D00486F6D696E6720C0
:1032B0004661696C65640050524553454E54004F59
:1032C0005554006F70656E0054524947474552454A
:1032D00044003A20004D4F54494F4E203A20004FB1
:1032E00046460A003A200066696C616D656E74009E
:1032F0007A5F6D696E00795F6D617800785F6D61EE
:1033000078005265706F7274696E6720656E6473C1
:10331000746F70207374617475730A0020746F6F1A
:10332000206C6F6E6720657874727573696F6E209C
:1033300070726576656E7465640A0020636F6C64F4
:1033400020657874727573696F6E2070726576652A
:103350006E7465640A00486F6D65202573257325BA
:1033600073204669727374005761726E696E673AB2
:1033700020486F6D696E672042756D7020446976D4
:1033800069736F72203C20310A000202040000B40D
:10339000430000B443000000000000B4430000B448
:1033A000430000C84300000041000000410000004D
:1033B000400000000100000001000080005555554C
:1033C000000000400033333300AAAA2A00499224A7
:1033D0000000002000C7711C0099991900D1451701
:1033E00000555515003BB11300244912001111116D
:1033F00000000010000F0F0F00E3380E0043790D9E
:1034000000CCCC0C00C3300C00E8A20B0064210BF4
:1034100000AAAA0A00703D0A009DD80900427B0953
:103420000092240900DCD3080088880800104208B4
:103430000000000800F0C1070087870700755007EB
:1034400000711C07003EEB0600A1BC060069900657
:103450000066660600703E06006118060017F40557
:103460000074D105005BB00500B2900500627205E2
:10347000005555050078390500B81E0500050505FD
:10348000004EEC040087D40400A1BD040090A70402
:103490000049920400C17D0400EE690400C756048F
:1034A00000444404005C320400082104004110047C
:1034B00000000004003FF00300F8E0030026D20300
:1034C00000C3C30300CCB503003AA803000A9B0362
:1034D00000388E0300C08103009F750300D069038C
:1034E00000505E03001D53030034480300913D0368
:1034F000003333030016290300381F030097150318
:1035000000300C0300030303000BFA020049F10230
:1035100000BAE802005CE002002DD802002DD002C3
:103520000059C80200B0C0020031B90200DAB1028D
:1035300000AAAA0200A0A30200BC9C0200FA950205
:10354000005C8F0200DF88020082820200457C025C
:10355000002776020027700200436A02007C6402A2
:1035600000D05E02003F590200C8530200FFFDFC7C
:10357000FAF8F6F4F2F0EEECEAE9E7E5E3E1E0DE92
:10358000DCDAD9D7D5D4D2D0CFCDCBCAC8C7C5C342
:10359000C2C0BFBDBCBAB9B7B6B4B3B2B0AFADACC0
:1035A000AAA9A8A6A5A4A2A1A09E9D9C9A99989715
:1035B00095949392908F8E8D8B8A89888786848349
:1035C0008281807F7E7D7B7A79787776757473725D
:1035D00071706F6E6D6C6B6A696867666564636253
:1035E00061605F5E5D5C5B5A59585857565554533D
:1035F000525150504F4E4D4C4B4A4A49484746460F
:10360000454443424241403F3E3E3D3C3B3B3A39CC
:10361000383837363535343332323130302F2E2E7C
:103620002D2C2B2B2A29292827272625252423231F
:1036300022212120201F1E1E1D1C1C1B1B1A1919B4
:103640001818171616151514131312121111100F3E
:103650000F0E0E0D0D0C0C0B0A0A090908080707BE
:10366000060605050404030302020100003D3D6F48
:103670006E5072696E7454696D65725374617274C0
:1036800065643D3D000000B4430000B4430000C841
:1036900043000000000000000000000000536176BD
:1036A000696E67204457494E204C4344207365742B
:1036B00074696E672066726F6D20454550524F4D9C
:1036C0000A003D3D6F6E53657474696E6773537481
:1036D0006F7265643D3D0053657474696E67732055
:1036E00053746F72656400290A00206279746573EF
:1036F0003B20637263200053657474696E677320A6
:1037000053746F7265642028006001F4017001EA4F
:10371000019001E001B001D601D001CC010002C24C
:10372000013002B8016002AE019002A401D0029AF9
:10373000012003900170038601C0037C01300472F4
:1037400001A004680120055E01B005540160064A2D
:103750000120074001F0073601F0082C01100A2271
:1037600001500B1801C00C0E01500E04013010FA6C
:10377000002012F0005014E600C016DC007019D2D0
:1037800000501CC800501FBE007022B400B025AA13
:1037900000F028A000202C9600302F8C00103282E0
:1037A00000A0347800F0366E00E0386400803A5AA9
:1037B00000403B5500E03B5000F03C4600C03D3C23
:1037C00000603E3200E03E2800303F1E00503F19AE
:1037D00000703F1400A03F0A00C03F0000D03FF639
:1037E000FFE03FECFF220A00556E6B6E6F776E2094
:1037F000636F6D6D616E643A20220020420020509C
:10380000006F6B00204500205A0020590020204DF9
:1038100039322058005374657073207065722075BA
:103820006E69740020746F6F206C6F6E672065780E
:1038300074727573696F6E2070726576656E7465EB
:10384000640A0020636F6C64206578747275736914
:103850006F6E2070726576656E7465640A004D3215
:103860003520500A4D323400526573756D65005530
:10387000492050617573650043616E6E6F742065F9
:103880006E746572207375626469723A20004E6FBF
:10389000204D61746368203A00436F6E73747261E7
:1038A000696E206D65736856616C20006D65736884
:1038B00056616C200079506E74200078506E742030
:1038C000006D657368506F696E7420004469737091
:1038D0006C61794272696768746E657373205365B1
:1038E000743A2000446973706C6179427269676848
:1038F000746E657373204C43443A20004D32320A93
:103900004D323100526566726573680050675570BC
:10391000005067446F776E0049732046696C6520DC
:10392000004973204469722000476F5570446972E2
:1039300000486173204D656469610046696C656E7D
:10394000616D652053656C6563746564004D31304D
:10395000303043004D31303030002046696C616DAD
:10396000656E7420526573706F6E7365204E6F00C4
:10397000526573756D652059657320647572696E43
:1039800067207072696E74000A204E6F2046696C61
:10399000616D656E7400496E76616C6964204F706C
:1039A00074696F6E004D3530300053746F7265204E
:1039B00053657474696E6773004D3939390A4D3235
:1039C000383050305331363000424C546F75636894
:1039D000205265736574004D3530320A4D353030F4
:1039E00000496E697420454550524F4D004D3530A9
:1039F000300053746F72652053657474696E677319
:103A000000496E4C616E6743686F696365000A2008
:103A10002A2A2A7265636461742E646174615B3062
:103A20005D203D004732380A473120463130303082
:103A3000205A313000556E737570706F7274656402
:103A4000204F7074696F6E2053656C656374656494
:103A5000004D32313153300A4739310A47315A303B
:103A60002E3032350A4739300A4D32313153310068
:103A70004D32313153300A4739310A47315A2D30EE
:103A80002E3032350A4739300A4D32313153310048
:103A900047323953320047323953310047323652B8
:103AA000323535004D3139305335350A4732380A11
:103AB00047333449380A4732390A4D3430300A4DD9
:103AC000313034533231350A4732380A4D313039CA
:103AD000533231350A4D34323053310A473158317F
:103AE00030305931303046353030300A47315A3075
:103AF0000A4D3530300A4D37370A4D3131372053B2
:103B00006574205A204F66667365740047312046FD
:103B100031303030205A302E30004732380A4731A9
:103B2000204631303030205A302E30005A204F6637
:103B300066736574203A202573005A204F666673B9
:103B40006574203A202573004732385A0A473146B7
:103B5000313530305A302E30004732380A4731463E
:103B6000313530305A302E3000426564204C657655
:103B7000656C204F7074696F6E20005265747572A9
:103B80006E203A20004D3834004731463130303015
:103B90005A302E30004732380A4731463130303003
:103BA0005A302E30004D616E75616C5365745465EA
:103BB0006D70005A204F6666736574203A20257335
:103BC00000526F756E64696E6720746F2073746540
:103BD0007000526571756573746564204F66667315
:103BE0006574200053746F70205472696767657242
:103BF00065640053746F70204E6F0053746F705083
:103C000072696E740048616E646C65204461746111
:103C10002041646A75737420322053657474696E30
:103C2000672053637265656E200048616E646C6541
:103C30002044617461205072696E7446696C65201D
:103C4000332053657474696E672053637265656EC3
:103C5000200048616E646C6520446174612050727C
:103C6000696E7446696C6520322053657474696EA0
:103C7000672053637265656E20004D3834004861DB
:103C80006E646C652044617461205072696E744684
:103C9000696C6520506F73740048616E646C6520B8
:103CA00044617461205072696E7446696C6520507D
:103CB000726500426567696E537769746368003D99
:103CC0003D20436865636B6B65793D3D00726563BC
:103CD0006461742E61646472203D3D0072656364AA
:103CE00061742E646174615B305D203D3D00204550
:103CF0003A00205A3A0020593A00583A006F6B0AAD
:103D000000526573656E643A20006E6F746966696F
:103D1000636174696F6E2000544D33442045352033
:103D2000506C75732052656164792E005072696E13
:103D300074696E672E2E2E005072696E7420506169
:103D40007573656400524553554D45204F50544995
:103D50004F4E533A0048656174696E672E2E2E00EF
:103D60000000436C69636B20746F206865617400A8
:103D70000000526573756D696E672E2E2E0000006F
:103D800050757267696E672E2E2E0000004C6F61B1
:103D900064696E672E2E2E000000496E7365727482
:103DA00020616E6420436C69636B000000436C69A2
:103DB000636B20746F20636F6E74696E75650000AD
:103DC00000456A656374696E672E2E2E00000050F0
:103DD0006C6561736520776169742E2E2E0000007A
:103DE0005061726B696E672E2E2E00000050617557
:103DF00073654D73673D0000AC007E0111241FBE4A
:103E0000CFEFD1E2DEBFCDBF00E00CBF84B780931F
:103E10009D1914BE0FB6F894A89580916000886132
:103E200080936000109260000FBE16E0A0E0B2E048
:103E3000EAE3FAE802E00BBF02C007900D92A83453
:103E4000B107D9F729E1A8E4B6E001C01D92AD3968
:103E5000B207E1F71EE1CDEFDEE100E006C02197F9
:103E60000109802FFE010F944A41CC3FD10780E029
:103E70000807A9F70F94962D0D940B450C9400009C
:103E800020914F07833021F425FD0CC024FD0CC088
:103E900030E0A90102C0559547958A95E2F7CA011D
:103EA0008170089581E0089580E008958091210A4D
:103EB00084FD0BC08091230A87FD07C09091240ADE
:103EC000937081E019F480E0089581E00895082E50
:103ED000000C990BFC01EC5CF54DE491EE2391F0A4
:103EE000F0E0EE0FFF1FE65EF54DA591B4912C9129
:103EF0008658954DFC018491282381E090E021F4BF
:103F000080E0089580E090E00895082E000C990B61
:103F1000FC01EC5CF54DE491F0E0EE0FFF1FEA517F
:103F2000F64DA591B4912C918658954DFC01849144
:103F3000822391E009F490E0892F0895E2ECF7E004
:103F40009491981739F0319697E0EB3DF907C1F756
:103F500080E0089581E00895269A2E9A08950F939F
:103F60001F93CF93DF9300D01F92CDB7DEB79C0194
:103F700007E419E090E1E0E6F2E0D80101900D924B
:103F80009A95E1F7F9012081318142815381F8014D
:103F900060857185828593850F945341F801608710
:103FA00071878287938780E090E0A0EAB0E48983FC
:103FB0009A83AB83BC83CE0101960E942CC00F90E4
:103FC0000F900F900F90DF91CF911F910F91089557
:103FD000CF93DF9300D01F92CDB7DEB780E090E0A3
:103FE000A0EAB0E489839A83AB83BC8361E0CE010D
:103FF00001960E9497C10F900F900F900F90DF9144
:10400000CF910895BC01990F880B990B0C94B7F3CD
:1040100080913F0790914007009731F04AE050E0CF
:1040200070E060E00D94A63860E070E0CB01089588
:1040300080913F0790914007009731F04AE050E0AF
:1040400070E060E00D94783760E070E0CB01089597
:104050000E94182097FD0CC00E9418206F3F710528
:104060008105910509F034F40E941820862F0895E7
:1040700080E008958FEF089580913F079091400769
:10408000892B41F00E94282091E0811101C090E02D
:10409000892F089591E0FCCFFC0165917591859180
:1040A0009491089580919208882319F080E00E94ED
:1040B0008AC480E008958F929F92AF92BF92CF9270
:1040C000DF92EF92FF92CF93DF93EC018090DA0AB8
:1040D0009090DB0AA090DC0AB090DD0A20E030E08E
:1040E000A901C501B4010F948B3A882309F454C087
:1040F000C880D980EA80FB80A7019601C501B40180
:104100000F948B3A18160CF04CC02091D20A3091C3
:10411000D30A4091D40A5091D50AC701B6010F9431
:104120008B3A882331F1C092D20AD092D30AE0921E
:10413000D40AF092D50A2091D60A3091D70A40913C
:10414000D80A5091D90A688179818A819B810F941C
:10415000F13A9B01AC0160E070E080E89FE30F94CE
:104160005241609302027093030280930402909381
:104170000502609102027091030280910402909105
:104180000502DF91CF91FF90EF90DF90CF90BF902D
:10419000AF909F908F90089560E070E080E89FE37B
:1041A000F0CF60E070E0CB01ECCF682F70E090E0E2
:1041B00080E00C94B7F30E941820CB0108950F9370
:1041C0001F93CF9380913F07909140070097E9F0AC
:1041D000FC018F01C1912C2F2F7D81F0C53411F08E
:1041E000C536B9F7F801108270E060E00F941A3616
:1041F000F801C083CF911F910F91089570E060E0A6
:10420000CF911F910F910D941A3660E070E0CB01B1
:10421000F1CF2FEB280F2A3108F047C0E22FF0E052
:104220008091210A9091220AA091230AB091240A38
:1042300004C0B695A795979587952A95D2F780FDE6
:1042400002C081700895ED5FF54FE081EE2341F1EA
:104250008091CC0A9091CD0AE80FF92FF11D808151
:1042600090ED980F9A3030F08E3251F48181805366
:104270008A3098F4F0934007E0933F0781E0089577
:104280008D3211F08B3249F4818190ED980F9A3084
:1042900088F38E3211F48281EACFF0E0E0E0EACFD9
:1042A0001092400710923F07E9CF80E008950E94E6
:1042B0000921882341F081E020913F073091400798
:1042C000232B09F480E00895CF93DF93EB010E9444
:1042D0005721882321F0DF91CF910C94DB20CE0170
:1042E000DF91CF910895CF93DF93EB010E94572187
:1042F000882319F00E941820EB01CE01DF91CF91A5
:104300000895CF92DF92EF92FF926A017B010E94A3
:104310005721882331F0FF90EF90DF90CF900C94DD
:10432000DF20C701B601FF90EF90DF90CF90089596
:10433000CF93C62F0E945721882319F0CF910C9458
:1043400028208C2FCF910895CF93DF93C82FD62F9D
:104350000E945721882321F0DF91CF910C943C20BB
:104360008C2F0E940921811101C08D2FDF91CF91E7
:1043700008958F929F92AF92BF92CF92DF92EF9269
:10438000FF92CF93DF93CDB7DEB760970FB6F89467
:10439000DEBF0FBECDBF80E090E0A4E3B3E48D8329
:1043A0009E83AF83B8878D879E87AF87B88BE09158
:1043B000BA15F091BB1580809180A280B38020E077
:1043C00030E0A901C501B4010F9453416B017C0198
:1043D00020E030E040E251E40F948B3A87FF06C0C2
:1043E000C12CD12C90E2E92E91E4F92EC982DA8217
:1043F000EB82FC8220E030E044EB53E4C501B401E1
:104400000F9453416B017C0120E030E04FEA53E40C
:104410000F94B343181634F4C12CD12C8FEAE82E34
:1044200083E4F82EC986DA86EB86FC8680E1FE01FD
:104430003196AFE5B7E001900D928A95E1F760966D
:104440000FB6F894DEBF0FBECDBFDF91CF91FF90C6
:10445000EF90DF90CF90BF90AF909F908F90089596
:10446000CF92DF92EF92FF92CF936B017C01C42F2A
:10447000809193088F5F09F4B5C080939308809171
:1044800093088093420920E030E040E752E46091D5
:104490003702709138028091390290913A020F945C
:1044A000F13A0F94C6427093A5086093A408C09295
:1044B000A608D092A708E092A808F092A9088091D7
:1044C0004109C0FB80F9809341098CE0E4E4F8E005
:1044D000AAEAB8E001900D928A95E1F78CE0E0E756
:1044E000FAE0A6EBB8E001900D928A95E1F7809191
:1044F0005E079091410980FB94F9909341098823CC
:1045000081F080915A0790915B07A0915C07B09170
:104510005D078093C2089093C308A093C408B0932A
:10452000C5088091C7149091C8149093C7088093D0
:10453000C6088091B0149091B1149093C9088093EB
:10454000C8088091F70A8093CA0880914109909128
:10455000090F90FB83F9809341098091DA0A9091C9
:10456000DB0AA091DC0AB091DD0A8093CB0890931E
:10457000CC08A093CD08B093CE080E94A1C660934A
:104580003C0970933D0980933E0990933F098091C7
:104590004F07809340099091AA0E8091410993FBA7
:1045A00081F990917C0A90FB82F98093410980E027
:1045B0000E9416AB40E050E0BA0184EA97E10E9405
:1045C000938040EB50E063E978E084EA97E10E9451
:1045D000278184EA97E1CF91FF90EF90DF90CF9011
:1045E0000C94548481E049CF4F925F926F927F92F6
:1045F0008F929F92AF92BF92CF92DF92EF92FF92F3
:104600001F93CF93DF9300D01F92CDB7DEB71982EF
:104610001A821B821C82CE0101964C0187E4C82EAF
:1046200089E0D82E90E6E92E92E0F92E2AEDA22E0E
:104630002FE0B22E10E088E5810F0E945721F4018F
:1046400081934F01882309F4E7C00E94DF202B01EA
:104650003C01812F0E94401F882309F4D3C0F70139
:104660002081318142815381C301B2010F945341B2
:10467000F60160837183828393831F5FF4E0CF0E22
:10468000D11C84E0E80EF11C94E0A90EB11C13309B
:1046900091F685E40E9457218C83882309F4C7C0D2
:1046A0000E94DF206B017C0183E00E94401F882371
:1046B00071F020916C0230916D0240916E02509128
:1046C0006F02C701B6010F9453416B017C01C09288
:1046D0005309D0925409E0925509F09256098091FD
:1046E000BF0E882391F180919F1782FF2EC087FD16
:1046F0002CC08C81882349F18981811103C08A8172
:10470000882319F12DEC3CEC4CE45DE360919C08AE
:1047100070919D0880919E0890919F080F9453413D
:104720009B01AC01609168027091690280916A02FC
:1047300090916B020F94B34318163CF440E060E094
:1047400070E080E090E40E94302240E050E0BA0146
:1047500086E40E94812120E030E0A9010F94B34358
:10476000181684F40E94DF2020E030E040E752E495
:104770000F944D4260933702709338028093390250
:1047800090933A028091AA0E83FD28C08091300850
:10479000882321F120916C0230916D0240916E02CC
:1047A00050916F026091530970915409809155099D
:1047B000909156090F94524120913D0830913E0846
:1047C00040913F08509140080F94534160933D0839
:1047D00070933E0880933F08909340080F900F908D
:1047E0000F900F90DF91CF911F91FF90EF90DF908E
:1047F000CF90BF90AF909F908F907F906F905F9081
:104800004F900895F5012081318142815381C30188
:10481000B2010F9452412CCFF70180819181A28186
:10482000B381F60180839183A283B38326CF8091E5
:104830006C0290916D02A0916E02B0916F02809314
:10484000530990935409A0935509B093560947CF43
:10485000E3E9F8E080EBDF011D928A95E9F708951E
:104860008091BF0E811104C00E9428240C94A2AB39
:1048700080919F1782FF09C087FD07C040E060E07C
:1048800070E080E090E40C943022089580919308C9
:10489000882361F090914209891308C080919F1785
:1048A00084FF04C08FEC98E00C94048880E00895A5
:1048B000FC01238121110C9454840895CF93DF933C
:1048C000C091C714D091C814209729F16091C314E6
:1048D0007091C4148091C5149091C6140F94BF4276
:1048E0006E5F7F4F24976C177D07ACF47093B3070E
:1048F0006093B2070E94B378605A75418F4F9F4F03
:104900006093B4077093B5078093B6079093B70789
:10491000DF91CF9108951092B4071092B5071092CD
:10492000B6071092B707F4CFCF92DF92EF92FF92C3
:104930001F93CF93DF93182F662351F010923D07FA
:104940001092390710923A0710923B0710923C07D9
:104950000E94B3786B017C018091390790913A07EE
:10496000A0913B07B0913C07A7019601281B390B8A
:104970004A0B5B0BDA01C901B7FD3DC020913D0731
:1049800017FD13C0412F012E000C550B4C5F5F4FDC
:10499000822F022E000C990B4817590764F184EFFF
:1049A00091E0A0E0B0E0211724F488EE93E0A0E0CD
:1049B000B0E08C0D9D1DAE1DBF1D809339079093F7
:1049C0003A07A0933B07B0933C072170C22F30E019
:1049D000D32F84E28C9FB0018D9F700D7C1B11241E
:1049E00060597C4F82E390E00E94BFCA80913D07EE
:1049F0008F5F80933D07DF91CF911F91FF90EF90E4
:104A0000DF90CF900895CF93DF93C091B014D091F1
:104A1000B114209729F16091AC147091AD1480917C
:104A2000AE149091AF140F94BF426E5F7F4F2497E6
:104A30006C177D07ACF47093AB076093AA070E94D4
:104A4000B378605E70448D4F9F4F6093AC07709356
:104A5000AD078093AE079093AF07DF91CF91089594
:104A60001092AC071092AD071092AE071092AF07EC
:104A7000F4CFCF93C1E020E030E0A90160918D0A2E
:104A800070918E0A80918F0A9091900A0F948B3AC0
:104A9000811101C0C0E08C2FCF910895CF93C82F12
:104AA000882321F00E9439258823D9F08091090FAD
:104AB0008C17B9F00E946FB78091090F882349F0D5
:104AC00080E692E00E9492B71092090FCF910C9469
:104AD000A3C281E08093090F80E692E00E949BB61A
:104AE000F5CFCF9108954F925F926F927F928F9200
:104AF0009F92AF92BF92CF92DF92EF92FF920F936D
:104B00001F93CF93DF93EC012091850A3091860AA1
:104B10004091870A5091880A688179818A819B81B6
:104B20000F9452416B017C012091890A30918A0ACD
:104B300040918B0A50918C0A6C817D818E819F817E
:104B40000F9452414B015C01A7019601609131071E
:104B50007091320780913307909134070F948B3A0C
:104B6000882309F450C0C0923107D0923207E092F6
:104B70003307F09234072091290730912A0740919A
:104B80002B0750912C07C701B6010F94F13A2B0166
:104B90003C010F94F5426B017C0120E030E0A9015B
:104BA0000F948B3A87FD70C020E030E040E450E481
:104BB000C701B6010F94B34318162CF4C12CD12CA5
:104BC000C0E4EC2EFE2CA7019601C301B2010F94A4
:104BD000524160932107709322078093230790939B
:104BE0002407C701B6010F94BF4260931F07062E2A
:104BF000000C770B6F5F7F4F6430710514F064E039
:104C000070E060931D07D0911B0710911F07A5014D
:104C10009401609135077091360780913707909124
:104C200038070F948B3A811133C0D11381C0209182
:104C300003073091040740910507509106076091E2
:104C400021077091220780912307909124070F94E8
:104C5000F13A2091070730910807409109075091D8
:104C60000A070F945341DF91CF911F910F91FF904D
:104C7000EF90DF90CF90BF90AF909F908F907F90FC
:104C80006F905F904F900895C12CD12C76019BCFEF
:104C90008092350790923607A0923707B092380776
:104CA00020912D0730912E0740912F07509130070A
:104CB000C501B4010F94F13A4B015C010F94F54228
:104CC0006B017C0120E030E0A9010F948B3A87FD55
:104CD000F3C020E030E040E450E4C701B6010F9497
:104CE000B34318162CF4C12CD12CB0E4EB2EFE2CBF
:104CF000A7019601C501B4010F94524160932507A5
:104D0000709326078093270790932807C701B60161
:104D10000F94BF4260932007062E000C770B6F5F45
:104D20007F4F6430710514F064E070E060931E07FB
:104D3000C0912007D11305C080911C078C1709F47E
:104D400070C080911F079091200790931C0780935B
:104D50001B070C2E000CDD0B25E01203C0011124F3
:104D6000FC01EC0FFD1FEE0FFF1FEE0FFF1FE05BBE
:104D7000F04F208131814281538120931707309376
:104D800018074093190750931A0700911E07002E29
:104D9000000C110BFC01E00FF11FEE0FFF1FEE0FD7
:104DA000FF1FE05BF04F60817181828193810F94DE
:104DB00052416093130770931407809315079093E3
:104DC000160720911D0735E02303F0011124CE0FB3
:104DD000DF1FCC0FDD1FCC0FDD1FC05BD04F288144
:104DE00039814A815B8120930F07309310074093EC
:104DF000110750931207E00FF11FEE0FFF1FEE0F88
:104E0000FF1FE05BF04F60817181828193810F947D
:104E1000524160930B0770930C0780930D0790939A
:104E20000E078090250790902607A0902707B09046
:104E300028072091130730911407409115075091CE
:104E40001607C501B4010F94F13A2091170730916C
:104E500018074091190750911A070F9453416B019D
:104E60007C01C0920707D0920807E0920907F092F0
:104E70000A0720910B0730910C0740910D075091C4
:104E80000E07C501B4010F94F13A20910F0730913C
:104E9000100740911107509112070F945341A70139
:104EA00096010F9452416093030770930407809317
:104EB000050790930607BBCEC12CD12C760118CFE5
:104EC000E1E3F7E080EF9FEFA9E7B4EC84839583FB
:104ED000A683B78380839183A283B383EBE1F7E05A
:104EE0008DE98183808308958F929F92AF92BF92C4
:104EF000CF92DF92EF92FF92FC0198E0ADE8BAE02A
:104F000001900D929A95E1F788E0FB01A5E8BAE0DF
:104F100001900D928A95E1F7C0908D0AD0908E0A8B
:104F2000E0908F0AF090900A20E030E0A901C701DC
:104F3000B6010F948B3A8823E1F1A701960160E056
:104F400070E080E89FE30F944D426B017C018090FC
:104F5000910A9090920AA090930AB090940A20E04F
:104F600030E0A901C501B4010F948B3A882329F1DF
:104F7000A501940160E070E080E89FE30F944D424A
:104F8000C0922907D0922A07E0922B07F0922C07B3
:104F900060932D0770932E0780932F07909330070F
:104FA000FF90EF90DF90CF90BF90AF909F908F9049
:104FB0000895C12CD12C7601CACF60E070E0CB01FE
:104FC000DFCF8F929F92AF92BF92EF92FF920F939B
:104FD0001F93CF93DF931092890A10928A0A10923E
:104FE0008B0A10928C0A1092850A1092860A1092EF
:104FF000870A1092880A1092910A1092920A1092CF
:10500000930A1092940A10928D0A10928E0A1092AE
:105010008F0A1092900A00E51FE0C0E0812C912CCD
:1050200080ECA82E8FE7B82E7801D0E0F7018192AE
:105030009192A192B1927F016D2F8C2F0F948D0EC2
:10504000DF5FD53099F7CF5F0C5E1F4FC53061F73A
:10505000DF91CF911F910F91FF90EF90BF90AF9094
:105060009F908F900895EFE6F0E0808182608083CA
:1050700008958091EA149091EB14892B79F4809132
:10508000EA149091EB14892B49F42091EA143091A1
:10509000EB1481E0232B19F480E0089581E008955A
:1050A000CF92DF92EF92FF926B017C0183E3C816EF
:1050B000D104E104F10470F082E3C81AD108E108D8
:1050C000F10862E370E080E090E00E9480780E9446
:1050D0006C8FECCFC701B6010E948078FF90EF90F3
:1050E000DF90CF900C946C8F10920A0F8091820702
:1050F00090918307A0918407B091850780937E07E4
:1051000090937F07A0938007B093810708959091B3
:10511000ED141092ED149230B9F09430C1F091304A
:10512000E1F4882319F0813021F0089590930C0F59
:10513000089582E080930C0F80910A0F882369F014
:1051400010920B0F0C94742810920D0F08958DE798
:1051500092E390934F0F80934E0F08956C98749A3A
:105160000C94742890919F1794FB882780F994FFE2
:1051700006C081E090910619911101C080E0089568
:105180000E94B228882339F080919F1782FB8827DC
:1051900080F991E08927089580914609811106C020
:1051A0008091EC14823011F00C94C02881E00895B5
:1051B0000C9496C981E00895CF93DF93EC01E62F1C
:1051C000660FFF0BE054F54DE491E250E13108F039
:1051D000B0C0F0E08827E051F74D8F4F0D944A4161
:1051E000012999299929992999292B290D294F298B
:1051F0004D292D29732971295129992997299529F3
:10520000752982E1E9E7F2E0DE0101900D928A95CD
:10521000E1F7CE01DF91CF91089581E020EB30E0FE
:105220003983288321EB30E03B832A831D821C8253
:1052300023EB30E03F832E8324EB30E0398728874F
:105240001B861A861D861C8692E09E878F8781E0CA
:10525000888B198ADECF80E0E1CF81E08F5F20E983
:1052600030E03983288321E930E03B832A8322E937
:1052700030E03D832C8328E930E03F832E832AE908
:1052800030E0398728872CE930E03B872A8726E9F8
:1052900030E03D872C8793E0D8CF80E0DFCF80E0FF
:1052A000DECF81E08F5F20EA30E03983288321EA76
:1052B00030E03B832A8322EA30E03D832C8328EAD6
:1052C00030E03F832E832AEA30E0398728872CEAB2
:1052D00030E03B872A8726EA30E03D872C8794E040
:1052E000B4CF80E0DFCF80E0DECF81E08F5F20E2CF
:1052F00031E03983288321E231E03B832A8322E2B3
:1053000031E03D832C8328E231E03F832E832AE283
:1053100031E0398728872CE231E03B872A8726E273
:1053200031E03D872C8795E090CF80E0DFCF80E0B3
:10533000DECF82E1FE0111928A95E9F76ACF8F9262
:105340009F92AF92BF92CF92DF92EF92FF920F9314
:10535000CF93DF931F92CDB7DEB75C017B0149018C
:105360006B01C40ED51EF501808191810F94A94077
:105370008983002311F0F7018083BE016F5F7F4FA7
:10538000C4010E94D9F2F501808191810196918337
:105390008083FFEFEF1AFF0AEC14FD0421F780E091
:1053A0000F90DF91CF910F91FF90EF90DF90CF9012
:1053B000BF90AF909F908F9008959091D10095FDF0
:1053C0000CC09091D00095FF08C08093D6008091CA
:1053D000D00080648093D000089520915E062F5FF6
:1053E0002F770FB607FC27C090915F06921328C055
:1053F0009091D00095FF1EC090915F0640915E068F
:10540000941306C09091D1009F7D9093D10012C05B
:10541000E92FF0E0E25AF94F32819F5F9F77309396
:10542000D60090935F063091D00030643093D00066
:10543000491741F3D9CF90915F06921301C0FBCF7A
:10544000E0915E06F0E0E25AF94F828320935E0617
:105450008091D10080628093D10008958091280AC4
:105460009091290A2FEF3FEF981751F0E92FF0E0C4
:10547000E85DF54F228130E09F5F9F739093290A8A
:10548000C90108951F920F920FB60F9211240BB607
:105490000F922F938F939F93EF93FF9380915F06CB
:1054A00020915E06821306C08091D1008F7D80938B
:1054B000D10012C0E82FF0E0E25AF94F92818F5FDD
:1054C0008F779093D60080935F069091D000906480
:1054D0009093D000281741F3FF91EF919F918F9106
:1054E0002F910F900BBE0F900FBE0F901F9018952D
:1054F0001F920F920FB60F9211240BB60F920F93BB
:105500001F932F933F934F935F936F937F938F934B
:105510009F93AF93BF93CF93DF93EF93FF93C0918C
:10552000D6000091290AD091280A11E01D0F1F739F
:1055300090915D06913108F09FC0E92FF0E0882737
:10554000EB55F54D8F4F0D944A41B62AE52AF42AC2
:10555000032B0A2B3C2B0E2B3C2B122B162B3C2BFC
:105560001A2B1E2B222B292B3C2B342BC03229F03B
:1055700028F5CA3011F0CD3031F5011731F0ED2F9B
:10558000F0E0E85DF54FC283D12FD093280AFF9158
:10559000EF91DF91CF91BF91AF919F918F917F91CB
:1055A0006F915F914F913F912F911F910F910F90AC
:1055B0000BBE0F900FBE0F901F901895CD3481F049
:1055C00081E0CE3471F080E10CC0CA3338F4C033CE
:1055D000A0F6C03291F2CD32B1F7CFCFCD3499F7EA
:1055E00082E080935D06C9CFC13359F018F4C03210
:1055F00021F2E9CF88E0C433A1F38BE0C83389F30B
:10560000E2CF83E0EECF84E0C03359F386E0C133CC
:1056100041F3D9CF85E0C833B1F6E3CF87E0C23399
:1056200091F6DFCF89E0C13371F6DBCF8AE0C0337A
:1056300051F6D7CF8CE0C73331F6D3CF8DE0C633E8
:1056400011F6CFCFC03209F498CF8EE0C33549F2BE
:10565000BACF80ED8C0F8A3008F08FCF9FE0909307
:105660005D0680935C0689CFCA3019F0CD3009F011
:1056700084CF10925D0681CFCA3019F0CD3009F089
:105680007CCF809193178823A1F3973089F038F469
:10569000953079F710922A0210920D0FEACF9A30C6
:1056A00059F09F3031F780915C060E948728E1CF46
:1056B00081E08093B107DDCF81E08093B007D9CF3F
:1056C0009091C00095FFFCCF8093C6000895CF93C2
:1056D000C82FC15020F080E20E94602BFACFCF91FA
:1056E0000895CF93DF93EC01FE01849121968823E6
:1056F00019F00E94602BF8CFDF91CF910895CF93DE
:10570000DF93C82F80EC91E10E94712B0C2E000CCE
:10571000DD0BFE01EC5CF54D8491805C0E94602BFA
:10572000FE01E658F54DE49180E3E13021F0E69585
:105730008F5F8933D1F7DF91CF910C94602BCF929B
:10574000DF92EF92FF926A017B010E94712B42E08F
:10575000C701B601FF90EF90DF90CF900C94AE8818
:105760000E949F2B8AE00C94602BCF93DF9360EF15
:105770007FE00F94570FC8EAD4E14B855C856D85B7
:105780007E8587EE9FE00E949F2B2CEA35EC47E256
:105790005EE36F85788989899A890F944D42AB01C0
:1057A000BC0184EE9FE00E949F2B2CEA35EC47E27F
:1057B0005EE36B897C898D899E890F94F13AAB01F8
:1057C000BC0181EE9FE0DF91CF910C94B02BCF9381
:1057D000DF936EE47FE00F94570F6091D10E7091CC
:1057E000D20E8091D30E9091D40E0F94903AAB01CB
:1057F000BC0185E49FE00E949F2B4091010F5091D6
:10580000020F6091030F7091040F82E49FE00E94E9
:105810009F2B4091050F5091060F6091070F7091DB
:10582000080F8FE39FE00E949F2BCFEADEE04881C4
:1058300059816A817B8182EA93E10E949F2B4C818E
:105840005D816E817F818AE098E30E949F2B48856D
:1058500059856A857B8587E098E30E949F2B4C855C
:105860005D856E857F8584E098E3DF91CF910C9410
:10587000B02BCF93DF9363EC7EE00F94570FC1EC16
:10588000DEE04CA95DA96EA97FA98AEB9EE00E948B
:105890009F2B48AD59AD6AAD7BAD87EB9EE00E9472
:1058A0009F2B4CAD5DAD6EAD7FAD8FE39FE0DF9183
:1058B000CF910C94B02BCF93DF936FE97EE00F94E0
:1058C000570FC1ECDEE04CA15DA16EA17FA186E97E
:1058D0009EE00E949F2B48A559A56AA57BA58AE05A
:1058E00098E30E949F2B4CA55DA56EA57FA587E040
:1058F00098E30E949F2B48A959A96AA97BA984E033
:1059000098E3DF91CF910C94B02BCF93DF936AE7AC
:105910007EE00F94570FC1ECDEE0688179818A81C7
:105920009B810F94903AAB01BC0181E79EE00E94FD
:105930009F2B6C817D818E819F810F94903AAB016A
:10594000BC018AE098E30E949F2B688579858A854F
:105950009B850F94903AAB01BC0187E098E30E94CD
:105960009F2B6C857D858E859F850F94903AAB012A
:10597000BC0184E098E3DF91CF910C94B02BCF93DE
:105980008091210A827161F48091230A8C7841F41C
:105990008091240A837021F481E0CF910C94E72B4D
:1059A00082E40E945721882351F00E9408206093CE
:1059B000D10E7093D20E8093D30E9093D40E83E5C4
:1059C0000E945721882351F00E94DF206093010F2D
:1059D0007093020F8093030F9093040F84E50E944D
:1059E0005721882351F00E94DF206093050F7093A8
:1059F000060F8093070F9093080F88E50E945721A8
:105A0000882351F00E94DF206093AF0E7093B00E98
:105A10008093B10E9093B20E89E50E94572188239E
:105A200051F00E94DF206093B30E7093B40E809308
:105A3000B50E9093B60E8AE50E945721C82F882391
:105A400051F00E94DF206093B70E7093B80E8093E0
:105A5000B90E9093BA0E85E40E945721882351F025
:105A60000E94DF206093BB0E7093BC0E8093BD0E2E
:105A70009093BE0ECC23A9F02DEC3CEC4CEC5DE3F6
:105A80006091B70E7091B80E8091B90E9091BA0ED8
:105A90000F948B3A18162CF08DE09FE0CF910C9468
:105AA000712BCF910895CF93C62F0E94712B6C2F2D
:105AB000CC0F770B880B990B0E94B7F38AE0CF913C
:105AC0000C94602BCF93C62F0E94712B8C2FCF91FB
:105AD0000C94A8880F931F93CF938C01C62F81EA53
