:100000000C94A81B0C94E81B0C94E81B0C94E81BA4
:100010000C94E81B0C94E81B0C94E81B0C94E81B54
:100020000C94E81B0C94E81B0C94E81B0C94E81B44
:100030000C94E81B0C94E81B0C94E81B0C94E81B34
:100040000C94E81B0C947F9E0C94E81B0C94E81B0A
:100050000C94E81B0C94888C0C94E81B0C94867A06
:100060000C94E81B0C94403B0C94363B0C94E81B1E
:100070000C94E81B0C94E81B0C94E81B0C94E81BF4
:100080000C94E81B0C94E81B0C94E81B0C94E81BE4
:100090000C94E81B0C94E81B0C94E81B0C94E81BD4
:1000A0000C94E81B0C94E81B0C94E81B0C94E81BC4
:1000B0000C94E81B0C94E81B0C94E81B0C94E81BB4
:1000C0000C94E81B0C94E81B0C94E81B0C94D82CA3
:1000D0000C94A22C0C94E81B0C94E81B0C94E81BC9
:1000E0000C94E81B084AD73B3BCE016E84BCBFFD95
:1000F000C12F3D6C74319ABD56833DDA3D00C77FF8
:1001000011BED9E4BB4C3E916BAAAABE0000008090
:100110003F05A84CCDB2D44EB93836A9020C50B91F
:10012000918688083CA6AAAA2ABE000000803F004B
:100130000C94F7CE0C946E2D0C943FF20C94EA3B89
:100140000C94D32B0D94E81C0C944EF20C94E23BCF
:100150000C94892D0C947A2D0C9451E40D94F11C7F
:100160000C9445E40C94C2760C94F92B0C9457F241
:100170000C94A5780C94D26F0C943FE40C943E79C7
:100180000D9404200C944EE40C94EE760C94FECD69
:100190000C94C8760C948D2B0C943AF20C94C07885
:1001A0000D94FB1C0C94DA760D940C1D0C943AE61D
:1001B0000C9442F20C9450790C945DF20C94D2762B
:1001C0000C94F2760D9443200C9418780C9448E427
:1001D0000C949C2D0C94FC3B0C94E63B0D94FF1C62
:1001E0000D94441C0C94AF2B0D94CD1C0C94B12B8E
:1001F0000C94A1760C945AF20C94D6760C9439E4B3
:100200000C94D16F0D94E41B0D94942C0C9457E432
:100210000D94771C0C9451F20C94B9770D940D1C2D
:100220000C94632D0D94011D0D94C41C0D9410208D
:100230000C9481E60C94942D0C9445F20C947E3B26
:100240000C944BF20C9454E40C94B9E40C94CC76DA
:100250000C947E2D0C94D2CE0C94F72B0C948B2BFB
:100260000C94D12B0D94761B0D944F200D94171ADE
:100270000C94BB760C946BE40D94B91C0C94F13B7C
:100280000D94DF1C0C94542D0C94043C0C94BC3B3A
:100290000C94AD3B0C94E8760C9454F20C94DE3B39
:1002A0000C94A0790C940AE40C94B4CD0C943CE426
:1002B0000C94722D0C94162D0C94B7760C9488CE59
:1002C0000C94D9CD0C94E0760C94B3760C944FE654
:1002D0000C947D790C94D52B0C9472CD0C9410E673
:1002E0000C949C760C94CB3B0D9434200C94E476C7
:1002F0000D946A200D94581C0C94F52B0D94C81A7B
:100300000C94B5E40C94822D0D94B22C0C94762DA3
:100310000C94ADCE0D94D61C0C9463CE0C946A2D27
:100320000C944BE40C9448F20C9442E40C94612B32
:100330000D944C1B0C94AD2B0C944F6F0C94BF760A
:100340000D94211C0C94DA3B0D94D8190C943ECEDC
:100350000C94D63B0D945B200C949C770C94D23B70
:100360000C94452D0C946D2B0C9461784E414E49A4
:100370004E495459494E46CDCCCC3D0AD7233C1763
:10038000B7D13877CC2B329595E6241FB14F0A00B0
:100390000020410000C84200401C4620BCBE4CCAA0
:1003A0001B0E5AAEC59D7400407A10F35A00A0721D
:1003B0004E18090010A5D4E80000E87648170000A0
:1003C000E40B54020000CA9A3B000000E1F505006E
:1003D0000080969800000040420F000000A08601B7
:1003E000000000102700000000E803000000006487
:1003F00000000000000A00000000000100000000F2
:10040000002C76D888DC674F0823DFC1DFAE59E1C6
:10041000B1B796E5E3E453C63AE651997696E8E635
:10042000C28426EB898C9B62ED407C6FFCEFBC9C08
:100430009F40F2BAA56FA5F490055A2AF75C936B1A
:100440006CF9676DC11BFCE0E40D47FEF520E6B5D5
:1004500000D0ED902E0300943577050080841E08AF
:100460000000204E0A000000C80C333333330F98CD
:100470006E12831141EF8D2114893BE65516CFFE94
:10048000E6DB18D1844B381BF77C1D901DA4BBE420
:1004900024203284725E228100C9F124ECA1E53D62
:1004A00027434F4D4D554E49434154494F4E00440B
:1004B000525952554E004552524F525300494E46E2
:1004C0004F004543484F004572726F722077726942
:1004D00074696E6720746F20454550524F4D210A54
:1004E0000053544F505045442E20005072696E7492
:1004F00065722073746F7070656420647565207414
:100500006F206572726F72732E204669782074684E
:1005100065206572726F7220616E6420757365204C
:100520004D39393920746F20726573746172742E7D
:10053000202854656D7065726174757265206973E9
:100540002072657365742E20536574206974206170
:10055000667465722072657374617274696E67295E
:100560000A004E6F20436865636B73756D20776971
:100570007468206C696E65206E756D6265722C20E2
:100580004C617374204C696E653A20004E6F2043B5
:100590006865636B73756D2077697468206C696E2C
:1005A00065206E756D6265722C204C617374204CF1
:1005B000696E653A2000636865636B73756D206DC5
:1005C00069736D617463682C204C617374204C698D
:1005D0006E653A20004C696E65204E756D626572DD
:1005E000206973206E6F74204C617374204C696EA7
:1005F00065204E756D6265722B312C204C617374D1
:10060000204C696E653A20004D31313000536572DF
:1006100069616C20737461747573206D69736D61A9
:100620007463680A00776169740A00534420726534
:100630006164206572726F720A002121204B494C5F
:100640004C2063617573656420627920746F6F203C
:100650006D75636820696E6163746976652074697D
:100660006D65202D2063757272656E7420636F6DE9
:100670006D616E643A2000486F74656E6420496451
:100680006C652054696D656F757400486F74656E94
:10069000642049646C652054696D656F75740A0047
:1006A0003D3D6F6E46696C616D656E7452756E6F1F
:1006B00075743D3D007061757365004D36303000D6
:1006C0002066696C616D656E745F72756E6F7574AE
:1006D000200066696C616D656E745F72756E6F7512
:1006E0007420540046696C616D656E7452756E6F4E
:1006F00075742054004D3130303053006275737979
:100700003A2070617573656420666F7220696E703F
:1007100075740A00627573793A2070617573656447
:1007200020666F7220757365720A00627573793A7C
:100730002070726F63657373696E670A0025533AA0
:10074000202553002A2A2A6B696C6C2A2A2A0070F9
:100750006F7765726F6666004B494C4C45442E209E
:10076000005072696E7465722068616C7465642EE5
:10077000206B696C6C28292063616C6C6564210AAC
:10078000006563686F3A004572726F723A004269A1
:100790006C696E656172204C6576656C696E672068
:1007A000477269643A0A002F2F616374696F6E3A69
:1007B0000070726F6D70745F00627574746F6E009C
:1007C000626567696E00486F74656E6420746F6F50
:1007D00020636F6C640A0053656E64204D313038BD
:1007E00020746F20726573756D650A00496E7365BC
:1007F00072742066696C616D656E7420616E642030
:1008000073656E64204D3130380A00526568656149
:100810007420446F6E6500526568656174696E6727
:100820002E2E2E00526568656174004865617465FE
:10083000722054696D656F75740053656E64204D48
:1008400031303820746F2068656174206E6F7A7A59
:100850006C650A004E6F7A7A6C65205061726B6528
:10086000640070617573656400506175736500574D
:10087000616974696E6720666F722068656174755E
:10088000702E0A004C656176696E6720473236002B
:100890003F53706563696669656420582C5920630D
:1008A0006F6F7264696E617465206F7574206F6616
:1008B00020626F756E64732E0A003F28522965709E
:1008C0006561742076616C7565206E6F7420706C44
:1008D00061757369626C653B206D75737420626528
:1008E000206174206C6561737420312E0A003F28EA
:1008F00052296570656174206D757374206265207E
:10090000737065636966696564207768656E206EDB
:100910006F74207573696E6720616E204C43442E9E
:100920000A003F537065636966696564206E6F7A7B
:100930007A6C652074656D7065726174757265207E
:100940006E6F7420706C61757369626C652E0A003D
:100950003F5370656369666965642066696C616DA3
:10096000656E742073697A65206E6F7420706C6197
:10097000757369626C652E0A003F53706563696622
:10098000696564207072696D65206C656E67746856
:10099000206E6F7420706C61757369626C652E0ACD
:1009A000003F5072696D65206C656E677468206DDC
:1009B0007573742062652073706563696669656428
:1009C000207768656E206E6F74207573696E67207E
:1009D000616E204C43442E0A003F53706563696684
:1009E000696564206E6F7A7A6C652073697A652018
:1009F0006E6F7420706C61757369626C652E0A008D
:100A00003F52657472616374696F6E204D756C74CA
:100A100069706C696572206D7573742062652073EE
:100A200070656369666965642E0A003F537065638B
:100A300069666965642052657472616374696F6E7A
:100A4000204D756C7469706C696572206E6F7420CE
:100A5000706C61757369626C652E0A003F53706536
:100A6000636966696564206C61796572206865698F
:100A7000676874206E6F7420706C61757369626C46
:100A8000652E0A0043292E0A003F5370656369668C
:100A9000696564206265642074656D706572617457
:100AA000757265206E6F7420706C61757369626C0D
:100AB00065202834302D00473236207374617274FB
:100AC000696E672E2E2E0A004F46460A0046616464
:100AD00065204865696768742000426564204C653C
:100AE00076656C696E6720004661696C6564207488
:100AF0006F20656E61626C6520426564204C65768E
:100B0000656C696E670A00496E76616C6964206D78
:100B10006573682E0A0050726F62696E6720506FAD
:100B2000696E740025532025692F2569002E0A005F
:100B30002F0050726F62696E67206D657368207058
:100B40006F696E742000202844525952554E290076
:100B5000473239204175746F20426564204C6576B8
:100B6000656C696E67003F20284C2C522C462C4245
:100B700029206F7574206F6620626F756E64732E06
:100B80000A003F2856296572626F7365206C65768E
:100B9000656C20696D706C61757369626C65202885
:100BA000302D34292E0A00426164205A2076616C6F
:100BB00075650A004E6F2062696C696E656172200E
:100BC000677269640A00446576696174696F6E00D2
:100BD00025533A2025730046696E69736865642160
:100BE0000A003A207A3A2000206F662000476F6999
:100BF0006E6720746F3A20580043570A00206469DA
:100C0000723A0020616E676C653A005374617274C9
:100C1000207261646975733A004D343820506F69F1
:100C20006E740025533A2025642F256400506F739D
:100C30006974696F6E696E67207468652070726F81
:100C400062652E2E2E0A003F4C656773206F66206A
:100C50006D6F76656D656E7420696D706C6175730E
:100C600069626C652028302D3135292E0A003F201D
:100C700028582C5929206F7574206F6620626F7573
:100C80006E64732E0A0050726F6265206F75742057
:100C90006F6620626F756E6473003F53616D706C98
:100CA000652073697A65206E6F7420706C6175734E
:100CB00069626C652028342D3530292E0A004D34A8
:100CC00038205A2D50726F626520526570656174CC
:100CD0006162696C69747920546573740A003F28F5
:100CE00056296572626F7365206C6576656C206944
:100CF0006D706C61757369626C652028302D3429C4
:100D00002E0A005374616E646172642044657669D2
:100D10006174696F6E3A20002052616E67653A20F7
:100D200000204D61783A2000204D696E3A20002065
:100D30005369676D613A20004D65616E3A2000206D
:100D4000440020204D323030205300202844697365
:100D500061626C6564293A0046696C616D656E7408
:100D60002073657474696E67730020204D323031D2
:100D70002058004D617820416363656C6572617431
:100D8000696F6E2028756E6974732F733229002085
:100D9000204D3230332058004D61782066656564FF
:100DA00072617465732028756E6974732F732900DE
:100DB00020520020204D32303420500041636365C2
:100DC0006C65726174696F6E2028756E6974732F1B
:100DD0007332292028503C7072696E742D616363F0
:100DE000656C3E20523C726574726163742D616360
:100DF00063656C3E20543C74726176656C2D616352
:100E000063656C3E29005741524E494E4721204CA4
:100E10006F77205A204A65726B206D6179206C656E
:100E2000616420746F20756E77616E7465642070E4
:100E300061757365732E0A00205400205300202032
:100E40004D323035204200416476616E6365642026
:100E500028423C6D696E5F7365676D656E745F7483
:100E6000696D655F75733E20533C6D696E5F6665A5
:100E70006564726174653E20543C6D696E5F747286
:100E80006176656C5F66656564726174653E205865
:100E90003C6D61785F6A65726B3E20593C6D61788C
:100EA0005F6A65726B3E205A3C6D61785F6A65725D
:100EB0006B3E20453C6D61785F6A65726B3E290030
:100EC00020440020490020204D333031205000487C
:100ED0006F74656E6420504944002044002049002E
:100EE00020204D3330342050004265642050494466
:100EF0000020580020204D61783A2000200020205A
:100F00004D696E3A2000203B200020204D323131C7
:100F1000205300203B0020550020204D3630332048
:100F20004C0046696C616D656E74206C6F61642F56
:100F3000756E6C6F6164004D323453256C645425BA
:100F40006C64004739322E394525730047314625F8
:100F5000640047315A2573463630300047315825F2
:100F6000735925734633303030004D3130365025BB
:100F700069532569004D313039532569004D3230B0
:100F800030442573004739322E395A2573004D34C9
:100F900032305325635A257300473238523058593E
:100FA0000047315A257346363030004739322E39E2
:100FB0005A2573004739322E394530004D313039CA
:100FC000532569004D313930532569004D34323095
:100FD000205330205A30003D3D4F6E506F77657280
:100FE0004C6F7373526573756D653D3D00203B20FA
:100FF0000020204D343133205300506F7765722D1F
:101000006C6F7373207265636F76657279003B2035
:101010000020496E76616C6964206578747275642D
:101020006572200047322F4733206261642070616F
:1010300072616D65746572730A00536C6565702E1C
:101040002E2E005A2050726F6265205061737420FA
:101050004265640A005A2050726F626520506173C5
:101060007420426564004732384C3000205A3A20E0
:101070000020593A200042656420583A20004D650E
:10108000736820706F696E74206F7574206F6620AE
:1010900072616E67650A004D302053746F70004DA9
:1010A000312053746F7000436C69636B20746F2040
:1010B000526573756D652E2E2E004E6F204D6F7626
:1010C000652E00456E642066696C65206C697374DA
:1010D0000A00426567696E2066696C65206C6973F9
:1010E000740A004E6F206D656469610A0052657371
:1010F000756D696E6720534400286E6F2066696CB9
:1011000065290043757272656E742066696C653A74
:1011100020005072696E742074696D653A20000A6F
:1011200053746174733A2046696C616D656E742006
:10113000757365643A20002C204C6F6E676573747C
:10114000206A6F623A2000546F74616C2074696D7C
:10115000653A200053746174733A20002C20466174
:10116000696C65643A20002C2046696E6973686575
:10117000643A20005072696E74733A2000537461AF
:1011800074733A20006F6B006F666600C204BD0482
:10119000B604AF04A10444454255473A004D3131ED
:1011A00033205300544D3344203130532050726F5C
:1011B000204F46462E002F2F0046523A0020466C04
:1011C0006F773A200050726F6265204F66667365D4
:1011D00074205A0050726F6265204F6666736574A2
:1011E000205A0064697300656E0043290A00616239
:1011F0006C656420286D696E2074656D70200043F5
:101200006F6C6420657874727564657320617265B3
:101210002000504944204175746F74756E6500500C
:101220004944204175746F74756E65206661696C00
:10123000656421204261642068656174657220697B
:10124000640A004F4646004F4E00203B20486F7313
:10125000742068616E646C696E6720006D6D00209B
:101260003B2044697374616E6365200046696C615C
:101270006D656E742072756E6F757420004D34321A
:101280003120696E636F7272656374207061726180
:101290006D657465722075736167650A004D6573CD
:1012A0006820706F696E74206F7574206F6620728D
:1012B000616E67650A004F666673657473204170DE
:1012C000706C696564004572723A20546F6F2066D5
:1012D00061722100546F6F206661722066726F6DBB
:1012E000207265666572656E636520706F696E74E5
:1012F0000A00454550524F4D204F4B0A00290A0025
:1013000020746F20003F5A206F7574206F66207222
:10131000616E6765202800290A0020746F20003F55
:1013200059206F7574206F662072616E6765202882
:101330002D00290A0020746F20003F58206F75741B
:10134000206F662072616E676520282D004D38344D
:1013500000446F6E65207072696E74696E672066F6
:10136000696C650A004D3737004D333100454550F3
:10137000524F4D206461746173697A6520657272A1
:101380006F722E0A0053657474696E6720566F6C15
:10139000756D65204F6E203A200053657474696E38
:1013A00067205374616E646279204F6E203A20008A
:1013B00053657474696E6720566F6C756D65203A5D
:1013C000200053657474696E6720526F746174698C
:1013D0006F6E203A200053657474696E67205374F1
:1013E000616E6462792054696D65203A200053650E
:1013F0007474696E67205374616E646279203A2058
:101400000053657474696E67204272696768746E10
:10141000657373203A20004C6F6164696E672044E5
:1014200057494E204C43442073657474696E67209D
:1014300066726F6D20454550524F4D0A00446973E6
:1014400063617264696E67204457494E204C43447F
:101450002073657474696E672066726F6D204545F0
:1014600050524F4D202D2073657474696E67732040
:1014700076657273696F6E20696E636F72726563F1
:10148000740A0044697363617264696E672044572B
:10149000494E204C43442073657474696E6720661E
:1014A000726F6D20454550524F4D202D2073697A43
:1014B0006520696E636F72726563740A00290A00A1
:1014C0002062797465733B2063726320002073741B
:1014D0006F7265642073657474696E6773207265DA
:1014E00074726965766564202800202863616C63E6
:1014F000756C6174656429210A0020213D20004536
:101500004550524F4D20435243206D69736D6174B5
:101510006368202D202873746F7265642920002071
:1015200053697A653A2000496E6465783A20000074
:1015300000FA430000FA430000204100008C420002
:1015400000A0420000A0420000C8430080CF43EE4C
:10155000020000EE020000640000003C00000020D9
:101560004D61726C696E3D563836290A004545500A
:10157000524F4D2076657273696F6E206D69736D81
:10158000617463682028454550524F4D3D0024F456
:10159000D43050C38E20C2A24017828B7011127AB1
:1015A000910D816CD90AA861E108C758660761519D
:1015B00043061E4B5D05C145A7041A411104093DB0
:1015C0009803713931034036DB0265339102D43020
:1015D0005402802E1D02632CEE01752AC501B0282D
:1015E000A001102781018F2564012B244B01E022EB
:1015F0003401AC211F018D200D01801FFC00841ED1
:10160000ED00971DDF00B81CD200E61BC600201BB2
:10161000BC00641AB200B219A8000A19A0006A1826
:101620009900D117910040178B00B5168400311630
:101630007E00B31579003A157300C7146F00581473
:101640006A00EE1366008813630025135E00C7125C
:101650005B006C12570015125400C111510070113B
:101660004F0021114B00D61049008D104700461045
:10167000440002104200C00F4000800F3E00420FA5
:101680003C00060F3B00CB0E3800930E37005C0E7B
:101690003500270E3400F30D3200C10D3100900DDE
:1016A0003000600D2E00320D2D00050D2C00D90CE0
:1016B0002B00AE0C2900850C29005C0C2700350C92
:1016C00027000E0C2600E80B2400C40B2400A00BFE
:1016D00023007D0B23005A0B2100390B2100180B2E
:1016E0002000F80A1F00D90A1E00BB0A1E009D0A2E
:1016F0001D00800A1D00630A1C00470A1B002C0AFB
:101700001B00110A1A00F7091A00DD091900C409A3
:101710001900AB091900920917007B091800630929
:1017200017004C09160036091600200916000A0990
:101730001500F5081500E0081400CC081400B808DE
:101740001400A4081400900813007D0812006B0810
:10175000130058081200460812003408110023082C
:1017600011001208110001081100F0071000E00735
:101770001000D0071000C0071000B0070F00A1072D
:10178000100091070E0083070F0074070F00650714
:101790000E0057070E0049070E003B070D002E07ED
:1017A0000E0020070D0013070D0006070D00F906B7
:1017B0000C00ED060D00E0060C00D4060C00C80677
:1017C0000C00BC060C00B0060C00A4060B00990629
:1017D0000C008D060B0082060B0077060B006C06D2
:1017E0000B0061060A0057060B004C060A00420671
:1017F0000A0038060A002E060A0024060A001A0605
:101800000A001006090007060A00FD050900F40594
:101810000900EB050900E2050900D9050900D0051A
:101820000900C7050900BE050900B5050800AD059A
:101830000800A50509009C050800940508008C0512
:101840000800840508007C050800740508006C0584
:101850000700650508005D050700560508004E05F0
:101860000700470507004005080038050700310557
:1018700007002A050700230507001C0506001605BA
:1018800007000F0507000805060002050700FB0416
:101890000600F5040700EE040600E8040600E20472
:1018A0000700DB040600D5040600CF040600C904C7
:1018B0000600C3040600BD040600B7040600B10418
:1018C0000500AC040600A6040600A00405009B0465
:1018D000060095040500900406008A0405008504AE
:1018E0000500800406007A040500750405007004F4
:1018F00005006B04050066040500610405005C0436
:10190000050057040500520405004D040500480475
:101910000500430405003E0404003A0405003504B4
:101920000500300404002C040500270404002304EF
:1019300005001E0404001A04040016040500110426
:1019400004000D040400090405000404040000045C
:101950000400FC030400F8030400F4030400F00393
:101960000400EC030400E8030400E4030400E003C3
:101970000400DC030400D8030400D4030400D003F3
:101980000400CC030400C8030300C503030024F4CF
:1019900004D9201BC40C5C0E9804C4095F026507BF
:1019A0007101F405F900FB04B30048048700C1038A
:1019B00069005803550003034500BE023A00840243
:1019C000310053022A002902250004022000E4010C
:1019D0001C00C8011900AF01170098011400840110
:1019E0001300710110006101100051010E0043014C
:1019F0000D0036010B002B010B0020010B0015011F
:101A000009000C01090003010800FB000800F300B5
:101A10000800EB000700E4000600DE000600D80026
:101A20000600D2000600CC000500C7000500C20079
:101A30000500BD000400B9000400B5000400B100B9
:101A40000400AD000400A9000400A5000300A200EA
:101A500003009F0004009B00030098000300950012
:101A6000020093000300900003008D0002008B0031
:101A70000300880002008600020084000300810049
:101A800002007F0002007D0002007B00020079005E
:101A9000020077000100760002007400020072006C
:101AA0000100710002006F0002006D0001006C0077
:101AB00002006A0001006900020067000100660080
:101AC0000100650001006400020062000100610085
:101AD0000100600001005F0002005D0001005C0089
:101AE00001005B0001005A0001005900010058008C
:101AF000010057000100560001005500010054008C
:101B00000100530000005300010052000100510089
:101B10000100500001004F0001004E0000004E0087
:101B200001004D0001004C0001004B0000004B0083
:101B300001004A000100490001004800000048007F
:101B4000010047000100460000004600010045007A
:101B50000000450001004400010043000000430074
:101B6000010042000000420001004100000041006D
:101B70000100400001003F0000003F0001003E0066
:101B800000003E0001003D0000003D0001003C005F
:101B900000003C0000003C0001003B0000003B0056
:101BA00001003A0000003A0001003900000039004D
:101BB0000100380000003800000038000100370044
:101BC000000037000100360000003600000036003B
:101BD0000100350000003500000035000100340030
:101BE0000000340000003400010033000000330026
:101BF000000033000100320000003200000032001B
:101C0000010031000000310000003100010030000F
:101C1000000030000000300001002F0000002F0005
:101C200000002F0000002F0001002E0000002E00F9
:101C300000002E0001002D0000002D0000002D00EE
:101C400000002D0001002C0000002C0000002C00E2
:101C500000002C0001002B0000002B0000002B00D6
:101C600000002B0001002A0000002A0000002A00CA
:101C700000002A00010029000000290000002900BE
:101C800000002900000029000100280000002800B1
:101C900000002800000028000000280001002700A4
:101CA0000000270000002700000027000000270098
:101CB000010026000000260000002600000026008B
:101CC000000026000100250000002500000025007E
:101CD0000000250000002500000025000100240070
:101CE0000000240000002400000024000000240064
:101CF0000100230000002300000023000000230057
:101D00000000230000002300000023000100220047
:101D1000000022000000220000002200000022003B
:101D2000000022000100210000002100000021002D
:101D3000000021000000210000002100000021001F
:101D40000100200000002000000020000000200012
:101D50000000200000002000000020000000200003
:101D600001001F0000001F0000001F0000001F00F6
:101D700000001F0000001F0000001F0001001E00E7
:101D800000001E0000001E0000001E000000393090
:101D900000003325000087190000B00F0000DB08A9
:101DA0000000BD040000740200003F010000204359
:101DB0006F756E7420583A0023646566696E6520FD
:101DC00044454641554C545F0000626564004B64D5
:101DD00020004B6920004B70200050494420417581
:101DE000746F74756E652066696E697368656421C9
:101DF0002050757420746865206C617374204B707A
:101E00002C204B6920616E64204B6420636F6E73DD
:101E100074616E74732066726F6D2062656C6F778B
:101E200020696E746F20436F6E66696775726174A6
:101E3000696F6E2E680A00504944204175746F74B2
:101E4000756E65206661696C6564212074696D65D5
:101E50006F75740A00504944204175746F74756E33
:101E600065206661696C6564212054656D706572DA
:101E7000617475726520746F6F20686967680A0005
:101E8000504944204379636C6573002553202569CC
:101E90002F256900204B643A2000204B693A20002E
:101EA000204B703A200020436C61737369632050AB
:101EB0004944200A00204E6F206F76657273686F68
:101EC0006F740A002054753A2000204B753A2000A8
:101ED000206D61783A2000206D696E3A2000206400
:101EE0003A200020626961733A20005761697420CA
:101EF000666F7220686561742075702E2E2E0050FA
:101F00004944204175746F74756E652073746172F5
:101F1000740A00504944204175746F74756E6520D1
:101F20006661696C6564212054656D7065726174C9
:101F300075726520746F6F20686967680A00426572
:101F400064004531004500626564002C207379739C
:101F500074656D2073746F707065642120486561CD
:101F60007465725F49443A200048656174696E6720
:101F7000204661696C65640048656174696E67201C
:101F80006661696C6564004D313132205368757447
:101F9000646F776E001000C90210012C014001220D
:101FA0000170011801B0010E01F00104015002FAA4
:101FB00000B002F0003003E600D003DC009004D251
:101FC000007005C800A006BE000008B400B009AA51
:101FD00000D00BA000600E960060118C00001582EE
:101FE0000020197800C01D6E00A0226400B0275A9E
:101FF00000902C500000314600E0343C0010383294
:1020000000903A2800603C1E00A03D1400803E0A6B
:1020100000203F00004572723A204D415854454D12
:1020200050004D415854454D5020747269676765A2
:10203000726564004572723A204D494E54454D50C8
:10204000004D494E54454D50207472696767657262
:10205000656400544845524D414C2052554E4157FD
:10206000415900546865726D616C2052756E6177DC
:10207000617900202F002042403A0020403A0020A1
:10208000573A0020573A00496E76616C69642065C2
:10209000787472756465720A0000002100240027BC
:1020A000002A002D00300033000101000004010768
:1020B000010A017C3C3E5E2B3D3F2F5B5D3B2C2AA1
:1020C000225C0043616E6E6F74206F70656E2073CA
:1020D000756264697220004D6564696120496E69AA
:1020E00074204661696C0053442063617264206F00
:1020F0006B0A006F70656E526F6F74206661696C59
:1021000065640A00766F6C756D652E696E69742062
:102110006661696C65640A004E6F205344206361F8
:1021200072640A000A4D3234004D323320257300A8
:102130002E0A006F70656E206661696C65642C20E4
:1021400046696C653A200046696C652073656C656C
:10215000637465640A002053697A653A2000466911
:102160006C65206F70656E65643A2000454E4420B2
:10217000535542524F5554494E450A002220706F24
:1021800073002220706172656E743A2200535542CA
:10219000524F5554494E452043414C4C2074617276
:1021A0006765743A220053756263616C6C204F76E8
:1021B0006572666C6F770045786365656465642059
:1021C0006D617820535542524F5554494E45206415
:1021D000657074683A002E0A0044656C6574696F16
:1021E0006E206661696C65642C2046696C653A20D6
:1021F0000046696C652064656C657465643A0053DB
:1022000044207072696E74696E672062797465200B
:10221000004E6F74205344207072696E74696E674B
:102220000A002F6175746F25632E670057726974F9
:10223000696E6720746F2066696C653A200066726B
:1022400065736800646F696E67002066696C653A43
:1022500020004E6F7720002020506C616E6E6572FA
:1022600042756666657242797465733A200020464D
:10227000726565204D656D6F72793A200020436F5D
:102280006D70696C65643A20466562203230203298
:102290003032320A00204C617374205570646174CE
:1022A00065643A20323032322D30322D3035207C88
:1022B00020417574686F723A20426F6E6474656372
:1022C00068202F20496E73616E6974794175746F4F
:1022D0006D6174696F6E0A004D61726C696E2032B7
:1022E0002E302E395F4457372E342E350A002053B6
:1022F0006F6674776172652052657365740A002099
:102300005761746368646F672052657365740A006F
:102310002042726F776E206F7574205265736574FA
:102320000A002045787465726E616C205265736591
:10233000740A00506F77657255700A007374617289
:10234000740A004739310A47315A350A4739300A89
:102350004D38340A4D31303453300A4D3134305316
:1023600030004D31303031006572726F72207772FB
:102370006974696E6720746F2066696C650A004431
:102380006F6E6520736176696E672066696C652E75
:102390000A004D323900456E6473746F7073002506
:1023A0005320256320256320256320256300205AC0
:1023B0003A0020593A0020583A00656E6473746FF1
:1023C0007073206869743A200000002200250028FC
:1023D000002B002E0031003400020100000501082E
:1023E000010B01050505050705080808080202029A
:1023F000020A0A08080404040401010101010101A0
:10240000010303030303030303040707070C0C0C76
:102410000C0C0C0C0C02020202060606060606064E
:10242000060B0B0B0B0B0B0B0B01021020200808EB
:102430001020401020408002010201080402010126
:10244000020408102040808040201008040201800F
:102450000402018040201008040201080402010166
:10246000020408102040800102040810204080006F
:10247000000A0B02090C0D0E0807030401000000FE
:10248000000000000000000000000000000000004C
:102490000000000000000000000000121110000009
:1024A000000000000000000000000000000000002C
:1024B0000000000000FFFFFF50726F62696E67202E
:1024C0004661696C65640A0050726F62696E6720CC
:1024D0004661696C656400205A3A200020593A2010
:1024E0000042656420583A2000726573756D65641A
:1024F000004469736D69737300526573756D696E1D
:10250000670073686F770044697361626C65527528
:102510006E6F75740050757267654D6F726500500F
:10252000617573656400656E6400436F6E74696EF7
:102530007565004C6F61642046696C616D656E74F1
:102540002054004C6F61642046696C616D656E7447
:1025500000496E736572742066696C616D656E7496
:1025600020616E642073656E64204D3130380A003E
:1025700020204D323036205800486F6D65206F6640
:1025800066736574004361703A00434F4E46494795
:102590005F4558504F5254004D4541545041434BB4
:1025A00000434F4F4C45525F54454D5045524154A6
:1025B000555245004348414D4245525F54454D50A8
:1025C0004552415455524500424142595354455099
:1025D00050494E470041524353004D4F54494F4ECE
:1025E0005F4D4F44455300544845524D414C5F5058
:1025F000524F54454354494F4E00455854454E445C
:1026000045445F4D323000435553544F4D5F46496A
:10261000524D574152455F55504C4F4144004C4636
:102620004E5F5752495445004C4F4E475F46494C08
:10263000454E414D45004155544F5245504F52541F
:102640005F53445F5354415455530053445F5752B2
:10265000495445005245504541540053444341526A
:10266000440050524F4D50545F535550504F5254A8
:1026700000484F53545F414354494F4E5F434F4DC1
:102680004D414E445300454D455247454E43595FD9
:1026900050415253455200434153455F4C494748CE
:1026A000545F4252494748544E45535300544F4794
:1026B000474C455F4C494748545300534F46545785
:1026C0004152455F504F574552004255494C445F77
:1026D00050455243454E54004C4556454C494E4793
:1026E0005F44415441005A5F50524F424500525599
:1026F0004E4F5554004155544F4C4556454C005093
:1027000052494E545F4A4F420050524F4752455330
:1027100053004155544F5245504F52545F54454D0C
:1027200050004155544F5245504F52545F504F53F3
:1027300000564F4C554D4554524943004545505263
:102740004F4D0042494E4152595F46494C455F54F6
:1027500052414E534645520053455249414C5F58F1
:102760004F4E5F584F4646004649524D57415245DD
:102770005F4E414D453A4D61726C696E20322E308C
:102780002E395F4457372E342E3520544D33442094
:1027900053534D444E422028466562203230203249
:1027A0003032322031333A34313A34322920534FE7
:1027B000555243455F434F44455F55524C3A687408
:1027C0007470733A2F2F6769746875622E636F6D2A
:1027D0002F496E73616E6974794175746F6D6174A0
:1027E000696F6E2F4D61726C696E2F747265652F03
:1027F000437265616C6974794477696E5F322E301B
:102800002050524F544F434F4C5F56455253494FFF
:102810004E3A312E30204D414348494E455F545980
:1028200050453A544D3344203130532050726F207C
:1028300045585452554445525F434F554E543A31D2
:1028400020555549443A63656465326132662D34DA
:102850003161322D343734382D396231322D6335C0
:10286000356336326633363766660A00203B002011
:10287000204D3835312058005A2D50726F62652036
:102880004F66667365740043616E6E6F74206F707F
:10289000656E207375626469722000256973002576
:1028A000696D20256973002569682025696D2025DB
:1028B000697300256964202569682025696D2025D4
:1028C00069730025697920256964202569682025B8
:1028D000696D2025697300436F6F6C696E672E2EDA
:1028E0002E0048656174696E672E2E2E00453120DA
:1028F00025530042656420436F6F6C696E672E2E0E
:102900002E004265642048656174696E672E2E2E24
:10291000003D3D4477696E20496E697420436F6DB8
:10292000706C6574653D3D00202D2064342000648A
:10293000333A2000202D206432200064313A2000F8
:10294000202D206C656E20005650207265636569ED
:102950007665643A200077616974776179203D3D3E
:102960000020202A2A2A2A2A2A2A5254535F486100
:102970006E646C65446174612A2A2A2A2A2A2A2AEA
:1029800020002A2A2A4E6F7A7A6C6554656D70533E
:1029900074617475735B325D203D003D3D48656137
:1029A00074696E6720446F6E65204368616E676569
:1029B0002046696C616D656E743D3D002020737426
:1029C00061727470726F677265737320004D32327A
:1029D0000A4D3231003D3D77616974776179203568
:1029E0003D3D003D3D7761697477617920343D3D1F
:1029F000003D3D7761697477617920333D3D003D4D
:102A00003D7761697477617920313D3D00436F6E98
:102A10006669726D20436F6E74696E7565005061F2
:102A200075736553746174757300524553554D4504
:102A3000204F5054494F4E533A0048656174696EB7
:102A4000672E2E2E000000436C69636B20746F208C
:102A500068656174000000526573756D696E672E5C
:102A60002E2E00000050757267696E672E2E2E00A4
:102A70000000496E7365727420616E6420436C6956
:102A8000636B000000436C69636B20746F20636F9D
:102A90006E74696E7565000000456A656374696EE1
:102AA000672E2E2E000000506C65617365207761E3
:102AB00069742E2E2E0000005061726B696E672EB5
:102AC0002E2E0000002A2A2A496E6974696E67203A
:102AD00063617264206973204F4B2A2A2A003D3DAE
:102AE0006F6E5072696E7454696D657253746F7055
:102AF0007065643D3D003D3D6F6E55736572436F7B
:102B00006E6669726D52657175697265643D3D00EE
:102B10005061757365204D6F6465205374617475E1
:102B200073004C6F6164696E672E2E2E0000003DAD
:102B30003D6F6E466163746F727952657365743D63
:102B40003D00270A0A0000272027002027002D002B
:102B50006E6F74696669636174696F6E200063618A
:102B60006E63656C005072696E742041626F72749E
:102B700065640055492041626F7274656400726536
:102B800073756D65004D3234002A2A2A43506C61FA
:102B90007920546F6E652A2A2A003D3D6F6E50726F
:102BA000696E7454696D65725061757365643D3DFD
:102BB00000486F6D696E67204661696C6564006FDF
:102BC00070656E00545249474745524544003A20CB
:102BD0000066696C616D656E74007A5F6D696E0088
:102BE000795F6D696E00785F6D696E005265706F18
:102BF0007274696E6720656E6473746F702073748D
:102C0000617475730A0020746F6F206C6F6E67209B
:102C1000657874727573696F6E2070726576656E13
:102C20007465640A0020636F6C6420657874727543
:102C300073696F6E2070726576656E7465640A00E4
:102C4000486F6D652025732573257320466972735F
:102C500074005761726E696E673A20486F6D696ED5
:102C6000672042756D702044697669736F72203CED
:102C700020310A00020204000000000000000000F1
:102C800000000000809D4300009B430000C84300FB
:102C90000000410000004100000040000000010071
:102CA0000000010000800055555500000040003331
:102CB000333300AAAA2A004992240000002000C74A
:102CC000711C0099991900D1451700555515003B05
:102CD000B113002449120011111100000010000F5F
:102CE0000F0F00E3380E0043790D00CCCC0C00C36D
:102CF000300C00E8A20B0064210B00AAAA0A0070A5
:102D00003D0A009DD80900427B090092240900DC9D
:102D1000D30800888808001042080000000800F06E
:102D2000C107008787070075500700711C07003E28
:102D3000EB0600A1BC0600699006006666060070FE
:102D40003E06006118060017F4050074D105005B0B
:102D5000B00500B290050062720500555505007877
:102D6000390500B81E0500050505004EEC04008776
:102D7000D40400A1BD040090A7040049920400C13E
:102D80007D0400EE690400C7560400444404005C5E
:102D90003204000821040041100400000004003F38
:102DA000F00300F8E0030026D20300C3C30300CC05
:102DB000B503003AA803000A9B0300388E0300C045
:102DC0008103009F750300D0690300505E03001D5E
:102DD00053030034480300913D03003333030016CE
:102DE000290300381F030097150300300C0300036C
:102DF0000303000BFA020049F10200BAE802005C8A
:102E0000E002002DD802002DD0020059C80200B007
:102E1000C0020031B90200DAB10200AAAA0200A081
:102E2000A30200BC9C0200FA9502005C8F0200DF46
:102E300088020082820200457C0200277602002779
:102E4000700200436A02007C640200D05E02003F10
:102E5000590200C8530200FFFDFCFAF8F6F4F2F044
:102E6000EEECEAE9E7E5E3E1E0DEDCDAD9D7D5D458
:102E7000D2D0CFCDCBCAC8C7C5C3C2C0BFBDBCBAF4
:102E8000B9B7B6B4B3B2B0AFADACAAA9A8A6A5A461
:102E9000A2A1A09E9D9C9A99989795949392908FA9
:102EA0008E8D8B8A8988878684838281807F7E7DD0
:102EB0007B7A797877767574737271706F6E6D6CDA
:102EC0006B6A696867666564636261605F5E5D5CCA
:102ED0005B5A5958585756555453525150504F4EAB
:102EE0004D4C4B4A4A494847464645444342424175
:102EF000403F3E3E3D3C3B3B3A393838373635352E
:102F0000343332323130302F2E2E2D2C2B2B2A29D8
:102F10002928272726252524232322212120201F75
:102F20001E1E1D1C1C1B1B1A191918181716161506
:102F30001514131312121111100F0F0E0E0D0D0C8C
:102F40000C0B0A0A09090808070706060505040408
:102F5000030302020100003D3D6F6E5072696E7402
:102F600054696D6572537461727465643D3D00000F
:102F7000809D4300009B430000C843000000000008
:102F800000000000000000536176696E672044571E
:102F9000494E204C43442073657474696E67206603
:102FA000726F6D20454550524F4D0A003D3D6F6E8A
:102FB000436F6E66696775726174696F6E53746F83
:102FC00072655772697474656E3D3D005365747423
:102FD000696E67732053746F72656400290A00205C
:102FE00062797465733B2063726320005365747467
:102FF000696E67732053746F7265642028000A201D
:10300000696E6974207A70726F62655F7A6F666646
:10301000736574203D20003D3D6F6E436F6E6669A1
:103020006775726174696F6E53746F726552656112
:10303000643D3D00454550524F4D20496E697469CD
:10304000616C697A65640A0048617264636F6465E3
:10305000642044656661756C742053657474696E90
:103060006773204C6F616465640A0020286D6D29C8
:1030700000203B204C6576656C696E67200020203F
:103080004D3432302053004175746F204265642006
:103090004C6576656C696E6700203B2053656E73E6
:1030A0006F72200020440020204D34313220530024
:1030B00046696C616D656E742072756E6F757420F3
:1030C00073656E736F7200204A00202047323920EA
:1030D0005720490020204D3134392043203B2055D2
:1030E0006E69747320696E2043656C736975730A29
:1030F0000054656D706572617475726520556E69F6
:103100007473002020473231203B004C696E6561AA
:103110007220556E69747300300B0000F00C3200A1
:10312000900E6400001096006011C800B012FA0002
:10313000E0132C0100155E01001690010017C2017A
:10314000F017F401220A00556E6B6E6F776E2063E4
:103150006F6D6D616E643A202200204200205000A5
:103160006F6B00204500205A0020590020204D3967
:103170003220580053746570732070657220756E2C
:1031800069740020746F6F206C6F6E6720657874AF
:10319000727573696F6E2070726576656E746564A2
:1031A0000A0020636F6C6420657874727573696FB0
:1031B0006E2070726576656E7465640A004D3235F6
:1031C00020500A4D323400526573756D65005549C3
:1031D0002050617573650043616E6E6F7420656E7B
:1031E000746572207375626469723A20004E6F20B4
:1031F0004D61746368203A00436F6E737472616945
:103200006E206D65736856616C20006D657368563D
:10321000616C200079506E74200078506E7420002C
:103220006D657368506F696E742000446973706CCB
:1032300061794272696768746E657373205365744F
:103240003A2000446973706C6179427269676874EE
:103250006E657373204C43443A20004D32320A4D60
:1032600032310052656672657368005067557000B0
:103270005067446F776E0049732046696C65200083
:103280004973204469722000476F55704469720089
:10329000486173204D656469610046696C656E61C3
:1032A0006D652053656C6563746564004D31303025
:1032B0003043004D31303030002046696C616D651F
:1032C0006E7420526573706F6E7365204E6F00527E
:1032D0006573756D652059657320647572696E67D5
:1032E000207072696E74000A204E6F2046696C610E
:1032F0006D656E7400496E76616C6964204F707400
:10330000696F6E004D3530300053746F7265205315
:10331000657474696E6773004D3939390A4D3238F6
:103320003050305331363000424C546F7563682052
:103330005265736574004D3530320A4D35303000BA
:10334000496E697420454550524F4D004D3530301F
:103350000053746F72652053657474696E677300EF
:10336000496E4C616E6743686F696365000A202A85
:103370002A2A7265636461742E646174615B305DD6
:10338000203D004732380A47312046313030302066
:103390005A313000556E737570706F7274656420A9
:1033A0004F7074696F6E2053656C6563746564005B
:1033B0004D32313153300A4739310A47315A302EB4
:1033C0003032350A4739300A4D3231315331004DF0
:1033D00032313153300A4739310A47315A2D302EB4
:1033E0003032350A4739300A4D32313153310047D6
:1033F0003239533200473239533100473236523274
:103400003535004D3139305335350A4732380A47A2
:1034100032390A4D3430300A4D313034533231357F
:103420000A4732380A4D313039533231350A4D347A
:10343000323053310A47315831303059313030460B
:10344000353030300A47315A300A4D3530300A4D68
:1034500031313720536574205A204F666673657486
:10346000004731204631303030205A302E3000476E
:1034700032380A4731204631303030205A302E3031
:10348000005A204F6666736574203A202573005AEF
:10349000204F6666736574203A20257300473238E2
:1034A0005A0A473146313530305A302E30004732D3
:1034B000380A473146313530305A302E30004265B7
:1034C00064204C6576656C204F7074696F6E2000C7
:1034D00052657475726E203A20004D3834004731C1
:1034E00046313030305A302E30004732380A4731BA
:1034F00046313030305A302E30004D616E75616C7F
:1035000053657454656D70005A204F666673657418
:10351000203A20257300526F756E64696E672074BF
:103520006F2073746570005265717565737465649E
:10353000204F6666736574200053746F7020547258
:10354000696767657265640053746F70204E6F0021
:1035500053746F705072696E740048616E646C656C
:1035600020446174612041646A7573742032205371
:10357000657474696E672053637265656E200048D8
:10358000616E646C652044617461205072696E7470
:1035900046696C6520332053657474696E672053E7
:1035A000637265656E200048616E646C65204461DD
:1035B0007461205072696E7446696C6520322053C4
:1035C000657474696E672053637265656E20004D83
:1035D00038340048616E646C652044617461205029
:1035E00072696E7446696C6520506F73740048612F
:1035F0006E646C652044617461205072696E74461B
:10360000696C652050726500426567696E53776921
:10361000746368003D3D20436865636B6B65793D6D
:103620003D007265636461742E61646472203D3D87
:10363000007265636461742E646174615B305D2047
:103640003D3D0020453A00205A3A0020593A0058A2
:103650003A006F6B0A00526573656E643A2000543D
:103660004D3344203130532050726F2052656164D5
:10367000792E005072696E74696E672E2E2E00507E
:1036800072696E7420506175736564006E6F746941
:103690006669636174696F6E2000524553554D45EC
:1036A000204F5054494F4E533A0048656174696E3B
:1036B000672E2E2E000000436C69636B20746F2010
:1036C00068656174000000526573756D696E672EE0
:1036D0002E2E00000050757267696E672E2E2E0028
:1036E00000004C6F6164696E672E2E2E0000004949
:1036F0006E7365727420616E6420436C69636B0045
:103700000000436C69636B20746F20636F6E746993
:103710006E7565000000456A656374696E672E2EDC
:103720002E000000506C6561736520776169742E0E
:103730002E2E0000005061726B696E672E2E2E00D7
:10374000000050617573654D73673D00840104018D
:1037500011241FBECFEFD1E2DEBFCDBF00E00CBF12
:1037600084B780936A1814BE0FB6F894A895809118
:103770006000886180936000109260000FBE16E0C8
:10378000A0E0B2E0E8E1FBE702E00BBF02C0079077
:103790000D92A032B107D9F728E1A0E2B6E001C04E
:1037A0001D92AA36B207E1F71BE1C7EADBE100E0B0
:1037B00006C021970109802FFE010F94B939C63A3E
:1037C000D10780E00807A9F70F9477250D947A3D7B
:1037D0000C94000020912507833021F425FD0CC0B6
:1037E00024FD0CC030E0A90102C0559547958A958B
:1037F000E2F7CA018170089581E0089580E008959C
:103800008091E00984FD0BC08091E20987FD07C02B
:103810009091E309937081E019F480E0089581E0CC
:103820000895CF92DF92EF92FF92CF93DF93EC0156
:10383000CC80DD80EE80FF8027E137EB41ED58EB57
:10384000C701B6010F94223C87FD23C023E030E07E
:103850004BE953E4C701B6010F94F2321816CCF0CD
:10386000C880D980EA80FB8027E137EB41ED58EB37
:10387000C701B6010F94223C87FD0BC0C1E023E0D5
:1038800030E84DE953E4C701B6010F94F23218163F
:103890000CF4C0E08C2FDF91CF91FF90EF90DF9080
:1038A000CF900895269A2E9A08952F923F924F9284
:1038B0005F926F927F928F929F92AF92BF92CF92C0
:1038C000DF92EF92FF920F931F93CF93DF93CDB7C9
:1038D000DEB760970FB6F894DEBF0FBECDBF8B8703
:1038E0006C87042F122F282F30E03E872D87462F1C
:1038F00050E05A87498785E0982E929EC001939E9A
:10390000900D1124988B8F87FA01E80FF91FEE0FA5
:10391000FF1FEE0FFF1FE15EF14F60817181828119
:1039200093819B01AC010F94B43C882309F445C1F9
:103930004B85400F6C85610F949EC0011124E98571
:10394000FA85E80FF91FEE0FFF1FEE0FFF1FE15E74
:10395000F14FC080D180E280F380040F909EA001DF
:103960001124E985FA85E40FF51FEE0FFF1FEE0F16
:10397000FF1FE15EF14F0081918082807380262FCE
:1039800030E0EF85F889E20FF31FEE0FFF1FEE0F17
:10399000FF1FE15EF14F20807181798372817A830C
:1039A00073817B83610F70E0EF85F889E60FF71F65
:1039B000EE0FFF1FEE0FFF1FE15EF14FF88BEF8759
:1039C000F081FC83EF85F889F181FD83EF85F8892B
:1039D000F281FE83EF85F889F381FF83FC01E20F1A
:1039E000F31FEE0FFF1FEE0FFF1FE15EF14F20816F
:1039F0002887A180B2806380FA01E60FF71FEE0FDF
:103A0000FF1FEE0FFF1FE15EF14F408051803280BB
:103A10001381202F392D482D572D602F792D882D7A
:103A2000972D0F94B43C882321F000E0912C812C39
:103A3000712C9601A701B601C7010F94B43C8823ED
:103A400021F0C02ED92CE82CF72C2C813D814E8101
:103A50005F816C817D818E819F810F94B43C88232E
:103A600021F01C821D821E821F82222D39814A81F3
:103A70005B81622D79818A819B810F94B43C88237C
:103A800039F02C803D8139834E814A835F815B838D
:103A90009201432D512FB201832D912F0F94B43CED
:103AA000882321F0412C512C312C10E028853A2D0F
:103AB0004B2D562D68857A2D8B2D962D0F94B43C69
:103AC000882321F04886A52CB32C612E85E02D8516
:103AD0003E85829FF001839FF00D112449855A8510
:103AE000E40FF51FEE0FFF1FEE0FFF1FE15EF14F1A
:103AF000FA87E9879601A701B601C7010F94C23979
:103B0000202F392D482D572D0F94C1396B017C0181
:103B1000222D39814A815B81622D79818A819B8145
:103B20000F94C2392C813D814E815F810F94C13940
:103B30009B01AC01C701B6010F94C2396B017C0136
:103B400028853A2D4B2D562D68857A2D8B2D962D57
:103B50000F94C2399201432D512F0F94C1399B010B
:103B6000AC01C701B6010F94C23920E030E040E457
:103B700050E40F94BC3AE985FA85608371838283AF
:103B800093836C858B8560960FB6F894DEBF0FBE6D
:103B9000CDBFDF91CF911F910F91FF90EF90DF90FC
:103BA000CF90BF90AF909F908F907F906F905F90DD
:103BB0004F903F902F900D94680760960FB6F89441
:103BC000DEBF0FBECDBFDF91CF911F910F91FF9050
:103BD000EF90DF90CF90BF90AF909F908F907F90AD
:103BE0006F905F904F903F902F9008950F931F9389
:103BF000CF93DF9300D01F92CDB7DEB79C0103E1D6
:103C000019E090E1E8EAFEE0D80101900D929A9562
:103C1000E1F7F9012081318142815381F80160850A
:103C20007185828593850F94C239F8016087718709
:103C30008287938780E090E0A0EAB0E489839A834A
:103C4000AB83BC83CE0101960E94D7BE0F900F902C
:103C50000F900F90DF91CF911F910F9108952F92A8
:103C60003F924F925F926F927F928F929F92AF920C
:103C7000BF92CF92DF92EF92FF921F93CF93DF9389
:103C8000CDB7DEB72C970FB6F894DEBF0FBECDBF11
:103C90007A011901DC012D913D914D915C912D83AB
:103CA0003E834F835887FB01408051806280738040
:103CB0008090A80E9090A90EA090AA0EB090AB0E86
:103CC000A50194016D817E818F8198850F94F232D8
:103CD00081110EC011E0A30192016091AC0E7091B0
:103CE000AD0E8091AE0E9091AF0E0F94F232811115
:103CF00010E0D1012D913D914D915C9129873A873A
:103D00004B875C87F701C080D180E280F3802091EF
:103D10000C0230910D0240910E0250910F02C7012A
:103D2000B6010F94F232882309F44EC0C0920C02FF
:103D3000D0920D02E0920E02F0920F028091B40E2A
:103D40009091B50EA091B60EB091B70E4091AC0E09
:103D50005091AD0E6091AE0E7091AF0E809213092E
:103D600090921409A0921509B09216094093170970
:103D7000509318096093190970931A09C0921B098E
:103D8000D0921C09E0921D09F0921E0980931F0930
:103D900090932009A0932109B093220920E030E0FC
:103DA00040E05FE36091BE0D7091BF0D8091C00D4A
:103DB0009091C10D0F94583369837A838B839C83D0
:103DC000CE0101960E94D7BE2D813E814F8158853C
:103DD0002093130930931409409315095093160941
:103DE00040921709509218096092190970921A09A5
:103DF000D1012D913D914D915C9160911F09709180
:103E0000200980912109909122090F94C239609371
:103E10001F097093200980932109909322091111A1
:103E20002FC020E030E0A90169857A858B859C85CB
:103E30000F94F232811133C060E070E088EC92E4BC
:103E400069837A838B839C83CE0101960E94D7BEBF
:103E50002C960FB6F894DEBF0FBECDBFDF91CF9189
:103E60001F91FF90EF90DF90CF90BF90AF909F9009
:103E70008F907F906F905F904F903F902F9008951C
:103E80002AEF3EE74AE25FE36091C20D7091C30DF5
:103E90008091C40D9091C50D0F945833D1CF60E03F
:103EA00070E080EA91E4CCCFCF93DF9300D01F92F3
:103EB000CDB7DEB780E090E0A0EAB0E489839A83D2
:103EC000AB83BC8361E0CE0101960E9442C00F909B
:103ED0000F900F900F90DF91CF910895809114076C
:103EE00090911507009731F04AE050E070E060E0F3
:103EF0000D940D3160E070E0CB0108950F931F9396
:103F0000CF93DF9300D000D01F921F92CDB7DEB7C2
:103F10008B01FC0123A5211102C00E944C761D8259
:103F20001E821F82188620E030E040E05FE360914F
:103F3000B00E7091B10E8091B20E9091B30E0F94AD
:103F4000C23969837A838B839C839E012B5F3F4FA9
:103F5000AE014F5F5F4F6CEA7EE088EA9EE00E9410
:103F60002F1E1D821E821F82188620E030E040E056
:103F70005FE3F80160857185828593850F94C2396E
:103F800069837A838B839C83B8016C5F7F4F9E012A
:103F90002B5F3F4FAE014F5F5F4FC8010E942F1E46
:103FA00028960FB6F894DEBF0FBECDBFDF91CF913C
:103FB0001F910F9108958091140790911507009714
:103FC00031F04AE050E070E060E00D94DF2F60E0F7
:103FD00070E0CB0108950E94DB1F97FD0CC00E948A
:103FE000DB1F6F3F71058105910509F034F40E94D4
:103FF000DB1F862F089580E008958FEF089580914C
:10400000140790911507892B41F00E94EB1F91E056
:10401000811101C090E0892F089591E0FCCFFC014F
:104020006591759185919491089580915E0888239A
:1040300019F080E00E94CCC280E008958F929F9298
:10404000AF92BF92CF92DF92EF92FF92CF93DF9326
:10405000EC018090870A9090880AA090890AB0901D
:104060008A0A20E030E0A901C501B4010F94F232C0
:10407000882309F454C0C880D980EA80FB80A70156
:104080009601C501B4010F94F23218160CF04CC021
:1040900020917F0A3091800A4091810A5091820AD2
:1040A000C701B6010F94F232882331F1C0927F0A22
:1040B000D092800AE092810AF092820A2091830ACB
:1040C0003091840A4091850A5091860A68817981ED
:1040D0008A819B810F9458339B01AC0160E070E0B2
:1040E00080E89FE30F94C13960931002709311022E
:1040F000809312029093130260911002709111024A
:104100008091120290911302DF91CF91FF90EF9076
:10411000DF90CF90BF90AF909F908F90089560E018
:1041200070E080E89FE3F0CF60E070E0CB01ECCF7F
:10413000682F70E090E080E00C948DF09B01AC0162
:10414000485F5F4FBC016C5F7F4F0C942F1E2F9216
:104150003F924F925F926F927F928F929F92AF9217
:10416000BF92CF92DF92EF92FF920F931F93CF9364
:10417000DF93CDB7DEB7A6970FB6F894DEBF0FBEBC
:10418000CDBF8C011B015A8749874090A80E5090E3
:10419000A90E6090AA0E7090AB0E8090AC0E90901D
:1041A000AD0EA090AE0EB090AF0EDB018D919D9143
:1041B0000D90BC91A02D8B8B9C8BAD8BBE8B9C01ED
:1041C000AD01C301B2010F94C1396B017C01D10172
:1041D00014968D919D910D90BC91A02D8F8B988FF1
:1041E000A98FBA8F9C01AD01C501B4010F94C139EB
:1041F0006B8F7C8F8D8F9E8FA985BA858D919D91B8
:104200000D90BC91A02D8B879C87AD87BE879C01AC
:10421000AD01C301B2010F94C1396F8F78A389A397
:104220009AA3A985BA8514968D919D910D90BC9104
:10423000A02D8F87988BA98BBA8B9C01AD01C501EE
:10424000B4010F94C1396BA37CA38DA39EA3A701D6
:104250009601C701B6010F9458336B017C012B8D79
:104260003C8D4D8D5E8DCA01B9010F9458339B0171
:10427000AC01C701B6010F94C2394B015C012B8917
:104280003C894D895E896B857C858D859E850F94E3
:10429000C1392B013C012F89388D498D5A8D6F858D
:1042A000788989899A890F94C1396B017C01A301AE
:1042B0009201C301B2010F9458332B013C01A701B5
:1042C0009601C701B6010F9458339B01AC01C3019D
:1042D000B2010F94C2390F94703C6B017C012F8D99
:1042E00038A149A15AA1CA01B9010F9458332B0131
:1042F0003C012BA13CA14DA15EA1CA01B9010F94C3
:1043000058339B01AC01C301B2010F94C2399B0128
:10431000AC01C501B4010F94223C1816B4F520E09D
:1043200030E0A901C701B6010F94223C87FF2AC0E3
:10433000C701B601905820E030E040EA50E40F9405
:10434000223C181614F5A10169857A85C8010E94DE
:10435000A720A6960FB6F894DEBF0FBECDBFDF91A3
:10436000CF911F910F91FF90EF90DF90CF90BF9072
:10437000AF909F908F907F906F905F904F903F9005
:104380002F900895C701B601D6CF20E030E040E07D
:1043900050E4C501B4010F94223C181624F4B10175
:1043A000C8010E947E1F19821A821B821C82BE01D4
:1043B0006F5F7F4FC1010E949E202DEC3CEC4CECC6
:1043C0005CE3C701B6010F9458339B01AC01F801BF
:1043D00060817181828193810F9458336D837E83D4
:1043E0008F839887D8019B968C919B978823C9F0DF
:1043F0002AE939E949E95FE314966D917D918D9140
:104400009C9117970F94583369837A838B839C838D
:10441000BE016F5F7F4F83E199E00E949E20F8010B
:1044200013A6BE016B5F7F4F89859A850E949E20EF
:1044300090CF3F924F925F926F927F928F929F9216
:10444000AF92BF92CF92DF92EF92FF920F931F93A2
:10445000CF93DF93CDB7DEB76C970FB6F894DEBF7E
:104460000FBECDBFDB010C91142F100F153008F0DB
:104470005FC11196DC90C22ECD0CB4E0BC1508F4DF
:1044800057C1ED2DF0E0E55FF84FE081F0E0002E40
:1044900002C0F595E7950A94E2F7E0FF49C1EC2DDB
:1044A000F0E0E55FF84FE081F0E0012E02C0F59505
:1044B000E7950A94E2F7E0FF3BC1322E642F7C01BE
:1044C0004090350750903607609037077090380756
:1044D00080913D0790913E07A0913F07B091400722
:1044E000898F9A8FAB8FBC8F660F770B072E000CCE
:1044F000880B990B0F94F9324B015C01602F000F70
:10450000770B880B990B0F94F932298D3A8D4B8DCF
:104510005C8D0F945833A30192010F94C239A50109
:1045200094010F94C2396D877E878F87988B612F96
:10453000110F770B880B990B0F94F932298D3A8D57
:104540004B8D5C8D0F945833A30192010F94C239A7
:10455000A50194010F94C13969837A838B839C836D
:104560004090390750903A0760903B0770903C07A5
:104570008091410790914207A0914307B091440771
:10458000898F9A8FAB8FBC8F632D660F770B072EA9
:10459000000C880B990B0F94F9324B015C016D2DC7
:1045A000DD0C770B880B990B0F94F932298D3A8D1E
:1045B0004B8D5C8D0F945833A30192010F94C23937
:1045C000A50194010F94C239698B7A8B8B8B9C8BDC
:1045D0006C2DCC0C770B880B990B0F94F932298D2D
:1045E0003A8D4B8D5C8D0F945833A30192010F943B
:1045F000C239A50194010F94C1396D837E838F83E5
:104600009887F70180859185A285B38589879A87E8
:10461000AB87BC878D8B9E8BAF8BB88F45E351E00A
:1046200061E070E0CE0141960E947D8F45E351E04C
:1046300061E070E0CE0105960E947D8F4AE351E073
:1046400061E070E0CE010D960E947D8F4AE351E05B
:1046500061E070E0CE0101960E947D8F89889A8882
:10466000AB88BC8827E137EB41ED58EBC501B401BD
:104670000F94223C87FD5CC023E030E04BE953E41B
:10468000C501B4010F94F23218160CF451C08D8498
:104690009E84AF84B88827E137EB41ED58EBC50124
:1046A000B4010F94223C87FD43C023E030E84DE97C
:1046B00053E4C501B4010F94F2321816CCF18D8089
:1046C0009E80AF80B88427E137EB41ED58EBC50100
:1046D000B4010F94223C87FD2BC023E030E04BE96E
:1046E00053E4C501B4010F94F23218160CF189801D
:1046F0009A80AB80BC8027E137EB41ED58EBC501D8
:10470000B4010F94223C87FD13C023E030E84DE94B
:1047100053E4C501B4010F94F23218164CF0AE0107
:104720004F5F5F4FBE01635F7F4FC7010E94A720AD
:104730006C960FB6F894DEBF0FBECDBFDF91CF9160
:104740001F910F91FF90EF90DF90CF90BF90AF90AF
:104750009F908F907F906F905F904F903F900895C3
:104760000E94DB1FCB0108950F931F93CF9380917D
:104770001407909115070097E9F0FC018F01C19192
:104780002C2F2F7D81F0C53411F0C536B9F7F80113
:10479000108270E060E00F94812EF801C083CF9109
:1047A0001F910F91089570E060E0CF911F910F91DC
:1047B0000D94812E60E070E0CB01F1CF2FEB280F3C
:1047C0002A3108F047C0E22FF0E08091E009909193
:1047D000E109A091E209B091E30904C0B695A7955B
:1047E000979587952A95D2F780FD02C0817008952C
:1047F000EA53F64FE081EE2341F18091790A9091DE
:104800007A0AE80FF92FF11D808190ED980F9A3008
:1048100030F08E3251F4818180538A3098F4F093D5
:104820001507E093140781E008958D3211F08B3263
:1048300049F4818190ED980F9A3088F38E3211F40B
:104840008281EACFF0E0E0E0EACF10921507109203
:104850001407E9CF80E008950E94DE23882341F009
:1048600081E02091140730911507232B09F480E093
:104870000895CF92DF92EF92FF926A017B010E942E
:104880002C24882331F0FF90EF90DF90CF900C9490
:10489000B423C701B601FF90EF90DF90CF90089549
:1048A000CF93DF93EB010E942C24882321F0DF912A
:1048B000CF910C94B023CE01DF91CF910895CF9387
:1048C000DF93EB010E942C24882319F00E94DB1F48
:1048D000EB01CE01DF91CF910895CF93C62F0E94B7
:1048E0002C24882319F0CF910C94EB1F8C2FCF919F
:1048F0000895CF93DF93C82FD62F0E942C248823AE
:1049000021F0DF91CF910C94FF1F8C2F0E94DE23AA
:10491000811101C08D2FDF91CF910895CF92DF9249
:10492000EF92FF92CF936B017C01C42F80915F08BF
:104930008F5F09F4BEC080935F0880915F08809309
:104940000E0980E1E8EAFEE0A0E6B8E001900D92F1
:104950008A95E1F720E030E040E752E460913402CC
:104960007091350280913602909137020F9458333E
:104970000F94353B7093710860937008C092720871
:10498000D0927308E0927408F092750880910D0936
:10499000C0FB80F980930D098CE0E0E1F8E0A6E728
:1049A000B8E001900D928A95E1F78CE0E2E3FAE03D
:1049B000A2E8B8E001900D928A95E1F78091340762
:1049C00090910D0980FB94F990930D09882381F053
:1049D0008091300790913107A0913207B091330751
:1049E00080938E0890938F08A0939008B0939108BD
:1049F000809162139091631390939308809392082F
:104A000080914B1390914C13909395088093940848
:104A10008091A00A8093960880910D099091DA0DFB
:104A200090FB83F980930D098091870A9091880A01
:104A3000A091890AB0918A0A809397089093980868
:104A4000A0939908B0939A080E94E3C46093080960
:104A50007093090980930A0990930B0980912507A7
:104A600080930C0990917B0D80910D0993FB81F946
:104A700090913F0A90FB82F980930D0980E00E949B
:104A800038AA40E050E0BA0181E796E10E94677FD2
:104A900040EB50E06FE578E081E796E10E94FB7F14
:104AA00081E796E1CF91FF90EF90DF90CF900C944B
:104AB000288381E040CF4F925F926F927F928F92D6
:104AC0009F92AF92BF92CF92DF92EF92FF921F938D
:104AD000CF93DF9300D01F92CDB7DEB719821A8231
:104AE0001B821C82CE0101964C0183E1C82E89E015
:104AF000D82E98EAE92E9EE0F92E28EBA22E2EE081
:104B0000B22E10E088E5810F0E942C24F4018193DD
:104B10004F01882309F4E7C00E94B4232B013C0114
:104B2000812F0E94EA1B882309F4D3C0F70120815A
:104B3000318142815381C301B2010F94C239F60120
:104B400060837183828393831F5FF4E0CF0ED11C57
:104B500084E0E80EF11C94E0A90EB11C133091F62C
:104B600085E40E942C248C83882309F4C7C00E940A
:104B7000B4236B017C0183E00E94EA1B882371F05F
:104B80002091B40E3091B50E4091B60E5091B70EF3
:104B9000C701B6010F94C2396B017C01C0921F0995
:104BA000D0922009E0922109F09222098091900D83
:104BB000882391F180916C1682FF2EC087FD2CC056
:104BC0008C81882349F18981811103C08A818823DE
:104BD00019F12DEC3CEC4CE45DE3609168087091B8
:104BE000690880916A0890916B080F94C2399B0103
:104BF000AC016091B00E7091B10E8091B20E9091A7
:104C0000B30E0F94223C18163CF440E060E070E0D4
:104C100080E090E40E948E2440E050E0BA0186E4F7
:104C20000E94392420E030E0A9010F94223C18169C
:104C300084F40E94B42320E030E040E752E40F9473
:104C4000BC3A60933402709335028093360290939D
:104C5000370280917B0D83FD28C08091FC0788235B
:104C600021F12091B40E3091B50E4091B60E5091C5
:104C7000B70E60911F0970912009809121099091D0
:104C800022090F94C1392091090830910A084091F6
:104C90000B0850910C080F94C23960930908709367
:104CA0000A0880930B0890930C080F900F900F90B8
:104CB0000F90DF91CF911F91FF90EF90DF90CF90F9
:104CC000BF90AF909F908F907F906F905F904F902C
:104CD0000895F5012081318142815381C301B201E0
:104CE0000F94C1392CCFF70180819181A281B381CA
:104CF000F60180839183A283B38326CF8091B40E83
:104D00009091B50EA091B60EB091B70E80931F0989
:104D100090932009A0932109B093220947CFEFE592
:104D2000F8E080EBDF011D928A95E9F70895809104
:104D3000900D811104C00E948F260C94C4AA80910A
:104D40006C1682FF09C087FD07C040E060E070E09C
:104D500080E090E40C948E24089580915F0888236D
:104D600061F090910E09891308C080916C1684FF40
:104D700004C08BE998E00C94D88680E00895FC018B
:104D8000238121110C9428830895CF93DF93C09140
:104D90006213D0916313209729F160915E13709193
:104DA0005F1380916013909161130F942E3B6E5F9F
:104DB0007F4F24976C177D07ACF470938007609346
:104DC0007F070E946E77605A75418F4F9F4F6093A7
:104DD0008107709382078093830790938407DF9104
:104DE000CF91089510928107109282071092830745
:104DF00010928407F4CFCF92DF92EF92FF921F932D
:104E0000CF93DF93182F662351F010920A07109268
:104E100006071092070710920807109209070E94D0
:104E20006E776B017C018091060790910707A09136
:104E30000807B0910907A7019601281B390B4A0BF7
:104E40005B0BDA01C901B7FD3DC020910A0717FDD0
:104E500013C0412F012E000C550B4C5F5F4F822F6A
:104E6000022E000C990B4817590764F184EF91E06A
:104E7000A0E0B0E0211724F488EE93E0A0E0B0E0D9
:104E80008C0D9D1DAE1DBF1D8093060790930707D7
:104E9000A0930807B09309072170C22F30E0D32FE9
:104EA00084E28C9FB0018D9F700D7C1B1124605992
:104EB0007C4F82E390E00E94FCC880910A078F5FDC
:104EC00080930A07DF91CF911F91FF90EF90DF90C1
:104ED000CF900895CF93DF93C0914B13D0914C1393
:104EE000209729F1609147137091481380914913DD
:104EF00090914A130F942E3B6E5F7F4F24976C174F
:104F00007D07ACF470937807609377070E946E7703
:104F1000605E70448D4F9F4F6093790770937A075E
:104F200080937B0790937C07DF91CF910895109237
:104F3000790710927A0710927B0710927C07F4CFC2
:104F4000CF93C1E020E030E0A90160913D0770916E
:104F50003E0780913F07909140070F94F2328111F4
:104F600001C0C0E08C2FCF9108954F925F926F9255
:104F70007F928F929F92AF92BF92CF92DF92EF92E9
:104F8000FF920F931F93CF93DF93EC01209135078E
:104F90003091360740913707509138076881798101
:104FA0008A819B810F94C1396B017C012091390763
:104FB00030913A0740913B0750913C076C817D81CD
:104FC0008E819F810F94C1394B015C01A70196012D
:104FD000609104027091050280910602909107028F
:104FE0000F94F232882309F450C0C0920402D09288
:104FF0000502E0920602F09207022091FE0630912F
:10500000FF064091000750910107C701B6010F94B8
:1050100058332B013C010F94643B6B017C0120E071
:1050200030E0A9010F94F23287FD70C020E030E03B
:1050300040E450E4C701B6010F94223C18162CF44A
:10504000C12CD12CC0E4EC2EFE2CA7019601C3018B
:10505000B2010F94C1396093F6067093F7068093FE
:10506000F8069093F906C701B6010F942E3B6093A2
:10507000F406062E000C770B6F5F7F4F64307105CE
:1050800014F064E070E06093F206D0910202109197
:10509000F406A501940160910802709109028091C3
:1050A0000A0290910B020F94F232811133C0D11396
:1050B00081C02091DA063091DB064091DC065091E8
:1050C000DD066091F6067091F7068091F8069091E2
:1050D000F9060F9458332091DE063091DF06409197
:1050E000E0065091E1060F94C239DF91CF911F91F4
:1050F0000F91FF90EF90DF90CF90BF90AF909F9077
:105100008F907F906F905F904F900895C12CD12C1D
:1051100076019BCF8092080290920902A0920A0227
:10512000B0920B02209102073091030740910407CF
:1051300050910507C501B4010F9458334B015C0130
:105140000F94643B6B017C0120E030E0A9010F94D7
:10515000F23287FDF3C020E030E040E450E4C701C4
:10516000B6010F94223C18162CF4C12CD12CB0E4BB
:10517000EB2EFE2CA7019601C501B4010F94C13995
:105180006093FA067093FB068093FC069093FD06ED
:10519000C701B6010F942E3B6093F506062E000C56
:1051A000770B6F5F7F4F6430710514F064E070E03F
:1051B0006093F306C091F506D11305C080910302F8
:1051C0008C1709F470C08091F4069091F5069093C5
:1051D0000302809302020C2E000CDD0B25E012036B
:1051E000C0011124FC01EC0FFD1FEE0FFF1FEE0F9D
:1051F000FF1FE15EF14F2081318142815381209375
:10520000EE063093EF064093F0065093F1060091BE
:10521000F306002E000C110BFC01E00FF11FEE0F46
:10522000FF1FEE0FFF1FE15EF14F608171818281F0
:1052300093810F94C1396093EA067093EB068093D3
:10524000EC069093ED062091F20635E02303F00181
:105250001124CE0FDF1FCC0FDD1FCC0FDD1FC15E71
:10526000D14F288139814A815B812093E6063093B2
:10527000E7064093E8065093E906E00FF11FEE0FB2
:10528000FF1FEE0FFF1FE15EF14F60817181828190
:1052900093810F94C1396093E2067093E306809383
:1052A000E4069093E5068090FA069090FB06A090A5
:1052B000FC06B090FD062091EA063091EB06409185
:1052C000EC065091ED06C501B4010F9458332091BE
:1052D000EE063091EF064091F0065091F1060F94E2
:1052E000C2396B017C01C092DE06D092DF06E092EB
:1052F000E006F092E1062091E2063091E30640914B
:10530000E4065091E506C501B4010F94583320918D
:10531000E6063091E7064091E8065091E9060F94C1
:10532000C239A70196010F94C1396093DA067093D0
:10533000DB068093DC069093DD06BBCEC12CD12C1E
:10534000760118CF1F93CF93DF93CDB7DEB72C979D
:105350000FB6F894DEBF0FBECDBF182F882321F003
:105360000E94A0278823F9F08091DA0D8117D9F0E7
:105370000E943EB68CE0E7E7F2E0DE011196019074
:105380000D928A95E1F7CE0101960E94B527809192
:10539000DA0D882391F088EA9EE00E9461B61092AF
:1053A000DA0D0E944EC12C960FB6F894DEBF0FBEE8
:1053B000CDBFDF91CF911F91089581E08093DA0DE9
:1053C00088EA9EE00E946AB5ECCF8F929F92AF92DE
:1053D000BF92EF92FF920F931F93CF93DF9380E0E2
:1053E0000E94A2291092390710923A0710923B07A7
:1053F00010923C071092350710923607109237072B
:1054000010923807109241071092420710924307FA
:105410001092440710923D0710923E0710923F07EA
:10542000109240070FE11EE0C0E0812C912C80EC2F
:10543000A82E8FE7B82E7801D0E0F70181929192E3
:10544000A192B1927F016D2F8C2F0F946807DF5FBF
:10545000D53099F7CF5F0C5E1F4FC53061F7DF91F4
:10546000CF911F910F91FF90EF90BF90AF909F90C1
:105470008F9008958F929F92AF92BF92CF92DF92BA
:10548000EF92FF92C0903D07D0903E07E0903F071B
:10549000F090400720E030E0A901C701B6010F9469
:1054A000F2328823E1F1A701960160E070E080E824
:1054B0009FE30F94BC3A6B017C0180904107909070
:1054C0004207A0904307B090440720E030E0A901D4
:1054D000C501B4010F94F232882329F1A50194018A
:1054E00060E070E080E89FE30F94BC3AC092FE0653
:1054F000D092FF06E0920007F09201076093020746
:10550000709303078093040790930507FF90EF9033
:10551000DF90CF90BF90AF909F908F900895C12C57
:10552000D12C7601CACF60E070E0CB01DFCFEFE68F
:10553000F0E080818260808308958091851390914E
:105540008613892B79F48091851390918613892B8A
:1055500049F4209185133091861381E0232B19F4AF
:1055600080E0089581E00895CF92DF92EF92FF925C
:105570006B017C0183E3C816D104E104F10470F0EF
:1055800082E3C81AD108E108F10862E370E080E024
:1055900090E00E943B770E94BF8FECCFC701B6011D
:1055A0000E943B77FF90EF90DF90CF900C94BF8FDD
:1055B00010923D0980911B0290911C02A0911D0246
:1055C000B0911E028093510790935207A093530706
:1055D000B093540708959091C9131092C913923053
:1055E000B9F09430C1F09130E1F4882319F08130A2
:1055F00021F008959093DB0D089582E08093DB0DF8
:1056000080913D09882369F0109268020C94D82A91
:105610001092DC0D089585E89BE290931E0E809316
:105620001D0E089590916C1694FB882780F994FFC5
:1056300006C081E09091D317911101C080E00895D8
:105640000E94122B882339F080916C1682FB8827E8
:1056500080F991E08927089580911209811106C08F
:1056600080918713823011F00C94202B81E00895F3
:105670000C94D3C781E00895CF93DF93EC01E62F1C
:10568000660FFF0BE159FB4DE491E250E13108F068
:10569000B0C0F0E08827E05BF44D8F4F0D94B9392E
:1056A000612BF92BF92BF92BF92B8B2B6D2BAF2BB6
:1056B000AD2B8D2BD32BD12BB12BF92BF72BF52B1E
:1056C000D52B82E1E3E8F2E0DE0101900D928A95AC
:1056D000E1F7CE01DF91CF91089581E020EB30E03A
:1056E0003983288321EB30E03B832A831D821C828F
:1056F00023EB30E03F832E8324EB30E0398728878B
:105700001B861A861D861C8692E09E878F8781E005
:10571000888B198ADECF80E0E1CF81E08F5F20E9BE
:1057200030E03983288321E930E03B832A8322E972
:1057300030E03D832C8328E930E03F832E832AE943
:1057400030E0398728872CE930E03B872A8726E933
:1057500030E03D872C8793E0D8CF80E0DFCF80E03A
:10576000DECF81E08F5F20EA30E03983288321EAB1
:1057700030E03B832A8322EA30E03D832C8328EA11
:1057800030E03F832E832AEA30E0398728872CEAED
:1057900030E03B872A8726EA30E03D872C8794E07B
:1057A000B4CF80E0DFCF80E0DECF81E08F5F20E20A
:1057B00031E03983288321E231E03B832A8322E2EE
:1057C00031E03D832C8328E231E03F832E832AE2BF
:1057D00031E0398728872CE231E03B872A8726E2AF
:1057E00031E03D872C8795E090CF80E0DFCF80E0EF
:1057F000DECF82E1FE0111928A95E9F76ACF8F929E
:105800009F92AF92BF92CF92DF92EF92FF920F934F
:10581000CF93DF931F92CDB7DEB75C017B014901C7
:105820006B01C40ED51EF501808191810F94103952
:105830008983002311F0F7018083BE016F5F7F4FE2
:10584000C4010E94AFEFF50180819181019691839F
:105850008083FFEFEF1AFF0AEC14FD0421F780E0CC
:105860000F90DF91CF910F91FF90EF90DF90CF904D
:10587000BF90AF909F908F9008959091D10095FD2B
:105880000CC09091D00095FF08C08093D600809105
:10589000D00080648093D0000895209136062F5F59
:1058A0002F770FB607FC27C090913706921328C0B8
:1058B0009091D00095FF1EC090913706409136061A
:1058C000941306C09091D1009F7D9093D10012C097
:1058D000E92FF0E0EA5CF94F32819F5F9F773093C8
:1058E000D600909337063091D00030643093D000CA
:1058F000491741F3D9CF90913706921301C0FBCFDE
:10590000E0913606F0E0EA5CF94F82832093360698
:105910008091D10080628093D10008958091EB093D
:105920009091EC092FEF3FEF981751F0E92FF0E03D
:10593000E551F64F228130E09F5F9F739093EC0911
:10594000C90108951F920F920FB60F9211240BB642
:105950000F922F938F939F93EF93FF93809137062E
:1059600020913606821306C08091D1008F7D8093EE
:10597000D10012C0E82FF0E0EA5CF94F92818F5F0E
:105980008F779093D600809337069091D0009064E3
:105990009093D000281741F3FF91EF919F918F9141
:1059A0002F910F900BBE0F900FBE0F901F90189568
:1059B0001F920F920FB60F9211240BB60F920F93F6
:1059C0001F932F933F934F935F936F937F938F9387
:1059D0009F93AF93BF93CF93DF93EF93FF93C091C8
:1059E000D6000091EC09D091EB0911E01D0F1F7357
:1059F00090913506913108F09FC0E92FF0E088279B
:105A0000EB5FF24D8F4F0D94B939162D452D542D66
:105A1000632D6A2D9C2D6E2D9C2D722D762D9C2D27
:105A20007A2D7E2D822D892D9C2D942DC03229F02A
:105A300028F5CA3011F0CD3031F5011731F0ED2FD6
:105A4000F0E0E551F64FC283D12FD093EB09FF91DF
:105A5000EF91DF91CF91BF91AF919F918F917F9106
:105A60006F915F914F913F912F911F910F910F90E7
:105A70000BBE0F900FBE0F901F901895CD3481F084
:105A800081E0CE3471F080E10CC0CA3338F4C03309
:105A9000A0F6C03291F2CD32B1F7CFCFCD3499F725
:105AA00082E080933506C9CFC13359F018F4C03273
:105AB00021F2E9CF88E0C433A1F38BE0C83389F346
:105AC000E2CF83E0EECF84E0C03359F386E0C13308
:105AD00041F3D9CF85E0C833B1F6E3CF87E0C233D5
