:100000000C941D220C945D220C945D220C945D22B4
:100010000C945D220C945D220C945D220C945D2264
:100020000C945D220C945D220C945D220C945D2254
:100030000C945D220C945D220C945D220C945D2244
:100040000C945D220C94E9DE0C945D220C945D22EC
:100050000C945D220C9480DD0C945D220D94883EFE
:100060000C945D220C94F2410C94E8410C945D22B6
:100070000C945D220C945D220C945D220C945D2204
:100080000C945D220C945D220C945D220C945D22F4
:100090000C945D220C945D220C945D220C945D22E4
:1000A0000C945D220C945D220C945D220C945D22D4
:1000B0000C945D220C945D220C945D220C945D22C4
:1000C0000C945D220C945D220C945D220C945D22B4
:1000D0000C945D220C945D220C945D220C945D22A4
:1000E0000C945D22084AD73B3BCE016E84BCBFFD19
:1000F000C12F3D6C74319ABD56833DDA3D00C77FF8
:1001000011BED9E4BB4C3E916BAAAABE0000008090
:100110003F05A84CCDB2D44EB93836A9020C50B91F
:10012000918688083CA6AAAA2ABE000000803F004B
:100130000C94DB900C948AA40C94137B0C943236B0
:100140000C94B5890D94F1380C940FAF0D94CE3802
:100150000D94081C0D945E1B0C94F7AE0C94AF89A3
:100160000C9481CF0C9431D00C9486A40D940E1075
:100170000C949B820D94FF380C9489CF0C94C998F1
:100180000C94AC7D0C94B2A20C94047F0D94A00C42
:100190000C949BC80C94CF810C9409AF0C9410362E
:1001A0000C94FDAE0C94CE890C94B2890C94C48747
:1001B0000C94E5B20C9472800D94610E0D94D238BB
:1001C0000C94EC350C9446D10C94537E0C9441D194
:1001D0000C9453820C94E67D0C947AA40C94C47D08
:1001E0000C949DCC0C94CF870C948C800C948EA492
:1001F0000C94A1890C941BAF0C94FD7D0C94D981B7
:100200000C94BB890C9415820C94E2B10C94AE4210
:100210000C9448990D94BC380C946EA40C946FD136
:100220000C9438CC0C94C6890C949CC80C9497BE42
:100230000C94817B0C94DF800C9425CB0C949080E3
:100240000C9430420C94BAD10D94584B0C9481E428
:100250000C9421900C9441A10C9438A30C94E58744
:100260000C94B67D0C94C8800C9494420C949C35EC
:100270000C942BAD0C9426AD0C9450D10D94764B70
:100280000C94E4800C94B8CC0C9413900C9404A3BC
:100290000C9466A40C945D820C9458FE0C94303639
:1002A0000C946D9E0C94D2800C9470890C946AA46A
:1002B0000C9459CC0D940D390C94E5AE0D94F53891
:1002C0000C945F820C947EA40C9490420C940C3697
:1002D0000C94703E0C94687D0C9492850C94427E34
:1002E0000C9475800C94B6420C9419C80C947BAD98
:1002F0000D945F1B0D94DD380C94767D0C94548A1C
:100300000C945F420C9415AF0C9486B40C940F942B
:100310000C942CD00C94207D0C9450890C943CD1DE
:100320000D94D6380C9468C60C9461820C943DC42C
:100330000C9498420C94C0CB0C94A1D10C9488429C
:100340000C9492810C946C800C945B8B0C94618067
:100350000D9409390C94987D0C941D860D94C20C53
:100360000C945A7B0C94EA350C94E0AF0C94D3AE09
:100370000C942F8A0D94AE0C0C949C420C947D42EC
:100380000C94C8890C94B6820C94C6350C9471CF29
:100390000C94978D0C94EBAE0C94F3BC0C9448CB5E
:1003A0000C945B820C94CE7E0C9492860D949011EA
:1003B0000C9448CD0D94FB380C9473250C94BC9090
:1003C0000C9488800C94567E0C942C9F0C94C189BC
:1003D0000C94847D0C9464A00C9430AD0C945782E2
:1003E0000C94B78C0C94A8350C9476A40C94769845
:1003F0000C94C9A20C946E420C942B7E0C9434364F
:100400000D94B7380C94147E0C94DFAE0C9436CD5A
:100410000D9403390C94CB890C94A3420C94E835C9
:100420000C943E7D0C94737B0C94C8350C94D9AE1F
:100430000C940E360C946F800D94E3380C9429992B
:100440000C94B8890C94D27D0C9479890C948C42CC
:100450000C9484420C9472A40C94C8B60D94DA38AF
:100460000C94547D0C9403AF0C94F9800C9488D1B7
:100470000C9409250C9408BA0C94D9DD0C945130D5
:100480000C9498860C94BB850C944BD10C94598297
:100490000C94C8BF0C94F1AE0C9455820D94E738BF
:1004A0000C94CB9F0C94E8980C94F8C90C943D8E56
:1004B0000C942C8A0C9465800C94347D0C9435AD8E
:1004C0000C940C7D0C94A3CB0C9419820C94AC89E5
:1004D0000C94EAA20C9475CD0C945BCE0D94311B58
:1004E0000C9482A40C9436B80D94ED380C94BE890B
:1004F0004E414E494E495459494E46CDCCCC3D0A09
:10050000D7233C17B7D13877CC2B329595E6241FEB
:10051000B14F0A000020410000C84200401C4620A4
:10052000BCBE4CCA1B0E5AAEC59D7400407A10F377
:100530005A00A0724E18090010A5D4E80000E87611
:1005400048170000E40B54020000CA9A3B00000068
:10055000E1F505000080969800000040420F000081
:1005600000A08601000000102700000000E8030042
:100570000000006400000000000A0000000000010C
:1005800000000000002C76D888DC674F0823DFC10C
:10059000DFAE59E1B1B796E5E3E453C63AE65199C7
:1005A0007696E8E6C28426EB898C9B62ED407C6FF0
:1005B000FCEFBC9C9F40F2BAA56FA5F490055A2AA7
:1005C000F75C936B6CF9676DC11BFCE0E40D47FEB3
:1005D000F520E6B500D0ED902E03009435770500A8
:1005E00080841E080000204E0A000000C80C33332F
:1005F00033330F986E12831141EF8D2114893BE63E
:100600005516CFFEE6DB18D1844B381BF77C1D90C6
:100610001DA4BBE424203284725E228100C9F1242F
:10062000ECA1E53D27434F4D4D554E4943415449BB
:100630004F4E0044525952554E004552524F52535C
:1006400000494E464F004543484F004572726F7255
:100650002077726974696E6720746F204545505227
:100660004F4D210A0053544F505045442E20005006
:1006700072696E7465722073746F70706564206443
:10068000756520746F206572726F72732E204669D3
:100690007820746865206572726F7220616E6420C4
:1006A000757365204D39393920746F207265737404
:1006B0006172742E202854656D7065726174757254
:1006C000652069732072657365742E2053657420EC
:1006D00069742061667465722072657374617274E6
:1006E000696E67290A004E6F20436865636B7375F6
:1006F0006D2077697468206C696E65206E756D6217
:1007000065722C204C617374204C696E653A200030
:100710004E6F20436865636B73756D2077697468ED
:10072000206C696E65206E756D6265722C204C615F
:100730007374204C696E653A2000636865636B735F
:10074000756D206D69736D617463682C204C6173E5
:1007500074204C696E653A20004C696E65204E75B8
:100760006D626572206973206E6F74204C617374C2
:10077000204C696E65204E756D6265722B312C20A0
:100780004C617374204C696E653A20004D313130F4
:100790000053657269616C20737461747573206DA8
:1007A00069736D617463680A00776169740A005344
:1007B000442072656164206572726F720A00486F2E
:1007C00074656E642049646C652054696D656F754D
:1007D0007400486F74656E642049646C65205469C8
:1007E0006D656F75740A002121204B494C4C2063C4
:1007F0006175736564206279204B494C4C206275A9
:1008000074746F6E2F70696E0A002121204B494C61
:100810004C2063617573656420627920746F6F206A
:100820006D75636820696E616374697665207469AB
:100830006D65202D2063757272656E7420636F6D17
:100840006D616E643A20007061757365004D3630DD
:1008500030002066696C616D656E745F72756E6FD5
:100860007574200066696C616D656E745F72756E7B
:100870006F757420540046696C616D656E745275B5
:100880006E6F75742054004D656469612052656D0A
:100890006F766564004D6564696120496E736572A9
:1008A000746564004D313030305300627573793AAD
:1008B0002070617573656420666F7220696E707553
:1008C000740A00627573793A2070617573656420EB
:1008D000666F7220757365720A00627573793A20CB
:1008E00070726F63657373696E670A00506C65613F
:1008F0007365205265736574005052494E544552D9
:100900002048414C5445440025533A20255300705B
:100910006F7765726F6666004B494C4C45442E20DC
:10092000005072696E7465722068616C7465642E23
:10093000206B696C6C28292063616C6C6564210AEA
:10094000006563686F3A004572726F723A004269DF
:100950006C696E656172204C6576656C696E6720A6
:10096000477269643A0A005072696E74696E672052
:100970004F626A656374002553202569002F2F613B
:100980006374696F6E3A0073746172740070726F91
:100990006D70745F00627574746F6E006265676974
:1009A0006E00486F74656E6420746F6F20636F6CA7
:1009B000640A0053656E64204D31303820746F2016
:1009C000726573756D650A00496E73657274206691
:1009D000696C616D656E7420616E642073656E6410
:1009E000204D3130380A0052656865617420446FCB
:1009F0006E6500526568656174696E672E2E2E0003
:100A00005265686561740048656174657220546957
:100A10006D656F75740053656E64204D31303820FC
:100A2000746F2068656174206E6F7A7A6C650A0055
:100A30004E6F7A7A6C65205061726B6564007061EC
:100A400075736564005061757365004732362043E5
:100A5000616E63656C656400473236204865617479
:100A6000696E67204E6F7A7A6C650047323620488F
:100A7000656174696E6720426564005761697469D5
:100A80006E6720666F72206865617475702E0A004B
:100A90004669786564204C656E6774682050726999
:100AA0006D6500446F6E65205072696D696E6700F8
:100AB0004D616E75616C207072696D696E672E2E66
:100AC0002E004C656176696E6720473236003F53D1
:100AD000706563696669656420582C5920636F6F7F
:100AE0007264696E617465206F7574206F66206230
:100AF0006F756E64732E0A003F2852296570656118
:100B0000742076616C7565206E6F7420706C6175F1
:100B10007369626C653B206D75737420626520613A
:100B200074206C6561737420312E0A003F53706528
:100B3000636966696564206E6F7A7A6C6520746596
:100B40006D7065726174757265206E6F7420706C63
:100B500061757369626C652E0A003F537065636945
:100B6000666965642066696C616D656E7420736981
:100B70007A65206E6F7420706C61757369626C6544
:100B80002E0A003F53706563696669656420707260
:100B9000696D65206C656E677468206E6F74207077
:100BA0006C61757369626C652E0A003F53706563F2
:100BB0006966696564206E6F7A7A6C652073697AFC
:100BC00065206E6F7420706C61757369626C652E40
:100BD0000A003F52657472616374696F6E204D75CF
:100BE0006C7469706C696572206D757374206265D0
:100BF000207370656369666965642E0A003F5370EF
:100C000065636966696564205265747261637469BD
:100C10006F6E204D756C7469706C696572206E6FB3
:100C20007420706C61757369626C652E0A003F53A5
:100C30007065636966696564206C617965722068B6
:100C40006569676874206E6F7420706C6175736974
:100C5000626C652E0A0043292E0A003F53706563BB
:100C60006966696564206265642074656D7065728B
:100C70006174757265206E6F7420706C6175736934
:100C8000626C65202834302D004732362073746141
:100C90007274696E672E2E2E0A004F46460A004671
:100CA0006164652048656967687420004265642056
:100CB0004C6576656C696E6720004661696C656499
:100CC00020746F20656E61626C6520426564204C03
:100CD0006576656C696E670A00496E76616C696459
:100CE000206D6573682E0A00477269642070726F08
:100CF00062696E6720646F6E652E0A0069646C65B8
:100D00000A00206F662000706F696E7420004D61CC
:100D10006E75616C2047323920004D616E75616CD3
:100D2000204732392061626F727465640A0020289E
:100D300044525952554E2900473239204175746F3B
:100D400020426564204C6576656C696E67003F20C3
:100D5000284C2C522C462C4229206F7574206F662B
:100D600020626F756E64732E0A003F2856296572E3
:100D7000626F7365206C6576656C20696D706C615F
:100D8000757369626C652028302D34292E0A004263
:100D90006164205A2076616C75650A004E6F20628E
:100DA000696C696E65617220677269640A00473216
:100DB000384C300020440020204D32303020530089
:100DC000202844697361626C6564293A0046696C45
:100DD000616D656E742073657474696E677300204D
:100DE000204D3230312058004D61782041636365D9
:100DF0006C65726174696F6E2028756E6974732FEB
:100E00007332290020204D3230332058004D617854
:100E1000206665656472617465732028756E6974F7
:100E2000732F73290020520020204D32303420507F
:100E300000416363656C65726174696F6E2028752B
:100E40006E6974732F7332292028503C7072696E5A
:100E5000742D616363656C3E20523C7265747261EF
:100E600063742D616363656C3E20543C74726176DB
:100E7000656C2D616363656C3E290020540020532E
:100E80000020204D323035204200416476616E638F
:100E900065642028423C6D696E5F7365676D656EA1
:100EA000745F74696D655F75733E20533C6D696E48
:100EB0005F66656564726174653E20543C6D696E61
:100EC0005F74726176656C5F666565647261746596
:100ED0003E20583C6D61785F6A65726B3E20593CDC
:100EE0006D61785F6A65726B3E205A3C6D61785F18
:100EF0006A65726B3E20453C6D61785F6A65726B16
:100F00003E290020440020490020204D333031206C
:100F10005000486F74656E642050494400204400BE
:100F200020490020204D3330342050004265642099
:100F30005049440020580020204D61783A2000207C
:100F40000020204D696E3A2000203B200020204DDB
:100F5000323131205300536F667420656E647374B0
:100F60006F707300203B0020550020204D36303339
:100F7000204C0046696C616D656E74206C6F616415
:100F80002F756E6C6F6164004D323453256C645460
:100F9000256C64004739322E3945257300473146A8
:100FA00025640047315A25734636303000473158A2
:100FB00025735925734633303030004D313036506B
:100FC0002569532569004D313039532569004D326B
:100FD0003030442573004739322E395A2573004D7D
:100FE0003432305325635A25730047323852305813
:100FF000590047315A257346363030004739322E72
:10100000395A2573004739322E394530004D313079
:1010100039532569004D313930532569004D34323B
:1010200030205330205A3000203B200020204D3407
:101030003133205300506F7765722D6C6F737320BE
:101040007265636F76657279003B200020496E7689
:10105000616C6964206578747275646572200047FC
:10106000322F47332062616420706172616D657454
:101070006572730A00536C6565702E2E2E004D65E7
:10108000736820706F696E74206F7574206F6620AE
:1010900072616E67650A004D302053746F70004DA9
:1010A000312053746F7000436C69636B20746F2040
:1010B000526573756D652E2E2E004E6F204D6F7626
:1010C000652E00456E642066696C65206C697374DA
:1010D0000A00426567696E2066696C65206C6973F9
:1010E000740A004E6F206D656469610A0052657371
:1010F000756D696E6720534400286E6F2066696CB9
:1011000065290043757272656E742066696C653A74
:1011100020005072696E742074696D653A20000A6F
:1011200053746174733A2046696C616D656E742006
:10113000757365643A20002C204C6F6E676573747C
:10114000206A6F623A2000546F74616C2074696D7C
:10115000653A200053746174733A20002C20466174
:10116000696C65643A20002C2046696E6973686575
:10117000643A20005072696E74733A2000537461AF
:1011800074733A20006F6B006F6666004606410676
:101190003A063306250644454255473A004D31315B
:1011A00033205300544D33442043523130563220C3
:1011B0004F46462E002F2F004D31343520533C69C9
:1011C0006E6465783E206F7574206F662072616E64
:1011D00067652028302D31290A005741524E494E6B
:1011E0004721204C6F77205A204A65726B206D6131
:1011F00079206C65616420746F20756E77616E7400
:101200006564207061757365732E0A0046523A005A
:1012100020466C6F773A2000426162797374657082
:10122000205A0064697300656E0043290A006162F8
:101230006C656420286D696E2074656D70200043B4
:101240006F6C642065787472756465732061726573
:1012500020004F4646004F4E00203B20486F7374DD
:101260002068616E646C696E6720006D6D00203BC4
:101270002044697374616E6365200046696C616D1A
:10128000656E742072756E6F757420004D34323146
:1012900020696E636F727265637420706172616D34
:1012A000657465722075736167650A004D657368C2
:1012B00020706F696E74206F7574206F6620726184
:1012C0006E67650A004F66667365747320417070BF
:1012D0006C696564004572723A20546F6F206661D4
:1012E000722100546F6F206661722066726F6D20EC
:1012F0007265666572656E636520706F696E740AEB
:1013000000454550524F4D204F4B0A004D38340098
:10131000446F6E65207072696E74696E67206669CD
:101320006C650A004D3737004D33310020204D32B7
:101330003036205800486F6D65206F66667365749F
:10134000004361703A00434F4E4649475F4558504D
:101350004F5254004D4541545041434B00434F4F71
:101360004C45525F54454D504552415455524500ED
:101370004348414D4245525F54454D5045524154BA
:1013800055524500424142595354455050494E47E9
:101390000041524353004D4F54494F4E5F4D4F440F
:1013A000455300544845524D414C5F50524F5445AF
:1013B0004354494F4E00455854454E4445445F4DB3
:1013C000323000435553544F4D5F4649524D5741BB
:1013D00052455F55504C4F4144004C464E5F57526A
:1013E000495445004C4F4E475F46494C454E414D90
:1013F00045004155544F5245504F52545F53445F3E
:101400005354415455530053445F57524954450077
:1014100052455045415400534443415244005052B8
:101420004F4D50545F535550504F525400484F53F6
:10143000545F414354494F4E5F434F4D4D414E44DD
:101440005300454D455247454E43595F5041525315
:10145000455200434153455F4C494748545F42520F
:10146000494748544E45535300544F47474C455FF6
:101470004C494748545300534F4654574152455FD7
:10148000504F574552004255494C445F50455243D6
:10149000454E54004C4556454C494E475F444154D7
:1014A00041005A5F50524F42450052554E4F5554DD
:1014B000004155544F4C4556454C005052494E54EE
:1014C0005F4A4F420050524F4752455353004155D7
:1014D000544F5245504F52545F54454D5000415562
:1014E000544F5245504F52545F504F5300564F4C3B
:1014F000554D455452494300454550524F4D0042C9
:10150000494E4152595F46494C455F5452414E53F2
:101510004645520053455249414C5F584F4E5F5823
:101520004F4646004649524D574152455F4E414D48
:10153000453A4D61726C696E20322E302E395F440F
:1015400057372E342E3520544D33442053454D44C7
:101550004E4220284665622032302032303232201E
:1015600031373A32393A34322920534F55524345B4
:101570005F434F44455F55524C3A68747470733AF8
:101580002F2F6769746875622E636F6D2F496E73B4
:10159000616E6974794175746F6D6174696F6E2FD6
:1015A0004D61726C696E2F747265652F437265614F
:1015B0006C6974794477696E5F322E302050524FD7
:1015C000544F434F4C5F56455253494F4E3A312E7C
:1015D00030204D414348494E455F545950453A5497
:1015E0004D334420435231305632204558545255E1
:1015F0004445525F434F554E543A31205555494466
:101600003A63656465326132662D343161322D345E
:101610003734382D396231322D63353563363266D1
:1016200033363766660A0043616E6E6F74206F70E2
:10163000656E2073756264697220002569730025E8
:10164000696D20256973002569682025696D20254D
:10165000697300256964202569682025696D202546
:10166000697300256979202569642025696820252A
:10167000696D2025697300436F6F6C696E672E2E4C
:101680002E0048656174696E672E2E2E004531204C
:1016900025530042656420436F6F6C696E672E2E80
:1016A0002E004265642048656174696E672E2E2E97
:1016B0000023646566696E652044454641554C5477
:1016C0005F00626564004B6420004B6920004B7032
:1016D0002000504944204175746F74756E65206612
:1016E000696E69736865642120507574207468653B
:1016F000206C617374204B702C204B6920616E64E8
:10170000204B6420636F6E7374616E747320667215
:101710006F6D2062656C6F7720696E746F20436F08
:101720006E66696775726174696F6E2E680A005023
:101730004944204175746F74756E65206661696CEB
:101740006564212074696D656F75740A00504944A1
:10175000204175746F74756E65206661696C65648F
:10176000212054656D706572617475726520746FA7
:101770006F20686967680A00504944204379636CA8
:1017800065730025532025692F256900204B643A95
:101790002000204B693A2000204B703A2000204363
:1017A0006C617373696320504944200A00204E6FB6
:1017B000206F76657273686F6F740A002054753AF3
:1017C0002000204B753A2000206D61783A200020DF
:1017D0006D696E3A200020643A20002062696173CE
:1017E0003A20005761697420666F722068656174E1
:1017F0002075702E2E2E00504944204175746F7450
:10180000756E652073746172740A005049442041FA
:1018100075746F74756E65206661696C65642120EE
:1018200054656D706572617475726520746F6F2098
:10183000686967680A00504944204175746F74757F
:101840006E6500504944204175746F74756E652053
:101850006661696C65642120426164206865617419
:1018600065722069640A00554E4C4F414420464938
:101870004C414D454E54004C4F41442046494C414B
:101880004D454E540046494C414D454E5420434829
:10189000414E4745004572723A207574663820669D
:1018A0006F6E74206E6F7420696E697469616C6903
:1018B0007A65642E004572723A2075746638206627
:1018C0006F6E74206E6F7420696E697469616C69E3
:1018D0007A65642E004572723A2075746638206607
:1018E0006F6E74206E6F7420696E697469616C69C3
:1018F0007A65642E002568753A25303268750025B2
:10190000303268753A253032687500253032687596
:1019100027253032687500256875642025303268C7
:10192000753A25303268750042656400456E636C17
:101930006F73757265002020202020202000202059
:10194000202000657272001FE0201020102010106F
:101950002010202010201030300840048003001F89
:10196000E03FF03FF03FF01FE01FE03FF03FF03F6F
:10197000F00FC0078003003FFFF038007030FC30EC
:1019800020FC102078102030102C00D02E31D02FC9
:101990007BD02F7BD02E31D02C00D020301020785F
:1019A0001020FC1030FC303800703FFFF03FFFF09B
:1019B0003800703186302387102787902F87D02FEB
:1019C00003D02030102078102078102030102F0302
:1019D000D02F87D02787902387103186303800702A
:1019E0003FFFF01FFFF81FFFF8041040020820021D
:1019F00008200410400820801041001041000820F9
:101A0000800410400000001FFFF81FFFF8FFFFFFD9
:101A10008000018E00E19F01F19381399F81F99F40
:101A200081F99FB9F98F28F18038018000019FFF6B
:101A3000F99174999B06A99B54A99B56A99B54990B
:101A40009FFFF9FFFFFF6E6F7469666963617469D8
:101A50006F6E200063616E63656C005072696E7416
:101A60002041626F727465640055492041626F7253
:101A7000746564004D323520500A4D323400526591
:101A800073756D650055492050617573650050612F
:101A90007573696E672E2E2E00726573756D650005
:101AA0004D32340052756E6F757420446973742022
:101AB0006D6D004C6F6164206D6D00556E6C6F61D3
:101AC00064206D6D0046696C2E204469612E0045CE
:101AD00020696E206D6D5E33004D333033205531FB
:101AE00020452569205325690050494420417574DB
:101AF0006F74756E65202A005049442D44202A00D9
:101B00005049442D49202A005049442D50202A0094
:101B100020082046616374002008204D6178002071
:101B200008204D696E004F6666004F6E0041757467
:101B30006F74656D70004D696E2054726176656CCE
:101B40002056656C004D696E2056656C6F63697434
:101B500079004D617820452056656C004D617820F4
:101B60005A2056656C004D617820592056656C00EE
:101B70004D617820582056656C004D6178204520D5
:101B8000416363656C004D6178205A204163636551
:101B90006C004D6178205920416363656C004D6194
:101BA00078205820416363656C0054726176656CDF
:101BB00020416363656C00526574726163742041F7
:101BC0006363656C00416363656C004D617820451B
:101BD000204A65726B004D6178205A204A65726B0D
:101BE000004D61782059204A65726B004D61782064
:101BF00058204A65726B00452073746570732F6DB1
:101C00006D005A2053746570732F6D6D0059205309
:101C1000746570732F6D6D00582053746570732F49
:101C20006D6D00416476616E636564205365747404
:101C3000696E6773003F0043616E63656C00496EB7
:101C40006974004D34323800496E697469616C6999
:101C50007A6520454550524F4D0046696C616D656F
:101C60006E740054656D70657261747572650053B1
:101C7000746570732F6D6D004A65726B004163630C
:101C8000656C65726174696F6E0056656C6F63692F
:101C900074790053657420486F6D65204F666673D4
:101CA00065747300436F6E66696775726174696FFE
:101CB0006E003F004E65787420506F696E7400446A
:101CC0006F6E65004E657874004C6576656C696E64
:101CD0006720446F6E6521004D6F7665205A00477E
:101CE00032395631004E65787420506F696E740039
:101CF0002569202F20257500473239563100436C65
:101D000069636B20746F20426567696E00486F6D70
:101D1000696E672058595A005A2056616C756500E3
:101D2000496E646578205900496E646578205800D2
:101D300053746F72652053657474696E6773004CD9
:101D40006F61642053657474696E677300426564E3
:101D5000205472616D6D696E67004661646520484C
:101D60006569676874004F6666004F6E004265647F
:101D7000204C6576656C696E670045646974204D1A
:101D8000657368004C6576656C20426564004D6F34
:101D900074696F6E003F0043616E63656C204F6233
:101DA0006A656374004E4F005945530043616E638A
:101DB000656C204F626A656374203D004D61696EF9
:101DC00000426564004E6F7A7A6C650046616E2051
:101DD000537065656400436F6E6669677572617400
:101DE000696F6E00526573746F7265204465666139
:101DF000756C7473004C6F61642053657474696E04
:101E000067730053746F72652053657474696E67ED
:101E1000730050726568656174202420436F6E669C
:101E200000506F776572204F7574616765004F666B
:101E300066004F6E0052756E6F75742053656E7339
:101E40006F7200416476616E6365642053657474DB
:101E5000696E6773004D61696E004D3730322054F2
:101E60002564004D36303020423020542564004D2A
:101E7000373032203B2564004D3730312054256403
:101E8000004D373032004D373031004D3630302084
:101E90004230004D61696E00436F6E74696E756506
:101EA000004F6666004F6E0052756E6F757420535A
:101EB000656E736F72005075726765206D6F726525
:101EC00000524553554D45204F5054494F4E533ABB
:101ED000005052494E542050415553454400202053
:101EE0004E6F7A7A6C653A20005061726B696E674A
:101EF0002E2E2E0000005761697420666F720066F6
:101F0000696C616D656E74206368616E67650074ED
:101F10006F207374617274005761697420666F7208
:101F20000066696C616D656E7420756E6C6F6164BE
:101F300000004E6F7A7A6C652068656174696E671F
:101F400000506C6561736520776169742E2E2E00D8
:101F500000507265737320627574746F6E00746FD5
:101F60002068656174206E6F7A7A6C650000496E36
:101F7000736572742066696C616D656E7400616E64
:101F80006420707265737320627574746F6E007470
:101F90006F20636F6E74696E756500576169742098
:101FA000666F720066696C616D656E74206C6F613E
:101FB000640000507265737320427574746F6E0014
:101FC000746F20726573756D65207072696E740030
:101FD000005761697420666F72207072696E7400B8
:101FE000746F20726573756D652E2E2E000057611B
:101FF000697420666F720066696C616D656E74202D
:10200000707572676500003E2000256C642E25699E
:102010006D00457874727564656420546F74616CEA
:10202000003E20004C6F6E67657374204A6F62201B
:1020300054696D65003E20005072696E74205469C9
:102040006D6500436F6D706C65746564003A2000C7
:102050005072696E7420436F756E74003A200031BF
:1020600035300035004245443A2041544320313058
:102070003447542D320052756E6177617920576173
:102080007463683A204F4E004D61782054656D703E
:1020900000333135004D696E2054656D7000350098
:1020A00045313A204154432031303447542D3200D9
:1020B0005053550047656E657269630050726F74C6
:1020C0006F636F6C00312E300042617564003235F1
:1020D0003030303000437265616C6974793344206C
:1020E00052414D50530042696C696E656172204CDB
:1020F0006576656C696E67004578747275646572A3
:102100007300310074696E796D616368696E65731F
:1021100033642E636F6D00544D334420435231308D
:10212000563200323032322D30322D303500322EE0
:10213000302E395F4457372E342E35004D61726C86
:10214000696E005072696E746572205374617473A5
:1021500000546865726D6973746F727300426F61C9
:10216000726420496E666F005072696E74657220E9
:10217000496E666F004D61696E004D313030300040
:1021800053746F70205072696E7400526573756D70
:1021900065205072696E7400506F776572204F75BC
:1021A00074616765004D3139305335350A4732382F
:1021B0000A4732390A4D3430300A4D313034533207
:1021C00031350A4732380A4D313039533231350A08
:1021D0004D34323053310A47315831303059313073
:1021E0003046353030300A47315A300A4D353030BC
:1021F0000A4D31313720536574205A204F6666737B
:102200006574004D313036533132380A4D33303336
:102210004338533231354530550A4D3530300A4D4B
:10222000313137205049442054756E6520446F6E1B
:1022300065004D3139305335350A4D313034533224
:1022400031350A4732380A4732394C310A47312092
:10225000583130305931303046353030300A47311E
:102260005A30004D3530300A4D31313720536574C6
:1022700074696E67732053746F7265640053746F72
:1022800072652053657474696E677300507265706F
:1022900020666F72205A2041646A75737400504939
:1022A000442054756E65005365747570004D616906
:1022B0006E003F004261636B0053746F70004E6F9D
:1022C000204D65646961005072696E742066726F9A
:1022D0006D204D65646961004368616E6765204DDE
:1022E00065646961004D32310041626F7574205040
:1022F00072696E746572004368616E676520466935
:102300006C616D656E74004C6576656C696E6720F6
:10231000546F6F6C7300436F6E666967757261749A
:10232000696F6E0054656D706572617475726500D9
:102330004D6F74696F6E00537461727420486F73CF
:1023400074205072696E7400526573756D6520500B
:1023500072696E740043616E63656C204F626A65DA
:1023600063740054756E650053746F702050726909
:102370006E74005061757365205072696E74004907
:102380006E666F2053637265656E003F0053746123
:102390007274205072696E740043616E63656C00E4
:1023A0005072696E740043616E6E6F7420656E7456
:1023B0006572207375626469723A200002202E2EC5
:1023C000004D61696E00000C0F00FE07022503BB83
:1023D000017FFE08FE08FE05080806000040F0C860
:1023E0008888987810050808060000C0F888888852
:1023F0008888F80505050600012030F8302005081A
:10240000080600002070F820202020E005090906B9
:1024100000FF2070A8A8B88888702007050507006D
:1024200001D86C366CD80509090600FFF8A8888821
:10243000888888A8F8050A0A0600FE2050505050E7
:1024400088A8A8887003030306000340A040FFFF8C
:10245000FFFFFFFFFFFFFFFFFFFFFFFFFFFFFFFF8C
:10246000FFFFFFFF0000000605FF0107070602004F
:1024700080808080800080030303060105A0A0A067
:1024800005060606000050F85050F85005090906E8
:1024900000FF2070A8A07028A8702005070706007C
:1024A00000C8C8102040989805070706000040A003
:1024B000A040A890680103030602058080800309FC
:1024C000090601FF20404080808040402003090928
:1024D0000601FF804040202020404080050707067D
:1024E000000020A8702070A8200505050600012026
:1024F00020F820200203030601FFC04080050101EF
:10250000060003F8020202060100C0C00507070624
:1025100000000810102040408005070706000070EA
:102520008898A8C8887003070706010040C040408B
:102530004040E0050707060000708808102040F8BA
:10254000050707060000F80810300888700507071F
:1025500006000010305090F8101005070706000024
:10256000F880F008088870050707060000304080F2
:10257000F0888870050707060000F8081010202072
:102580002005070706000070888870888870050796
:1025900007060000708888780810600205050601AB
:1025A00000C0C000C0C00206060601FFC0C000C0D7
:1025B00040800305050601012040804020050303FB
:1025C000060002F800F803050506010180402040DE
:1025D00080050707060000708810202000200507EE
:1025E000070600007088B8A8B880700507070600C5
:1025F00000708888F8888888050707060000F0487A
:1026000048704848F0050707060000708880808001
:102610008870050707060000F04848484848F0055C
:102620000707060000F88080F08080F8050707069D
:102630000000F88080F080808005070706000070A9
:10264000888080988870050707060000888888F8C9
:10265000888888030707060100E04040404040E0CA
:1026600005070706000038101010109060050707D6
:102670000600008890A0C0A090880507070600000B
:10268000808080808080F805070706000088D8A831
:10269000888888880507070600008888C8A8988861
:1026A00088050707060000708888888888700507F5
:1026B00007060000F08888F0808080050707060084
:1026C0000070888888A89068050707060000F088D1
:1026D00088F0A090880507070600007088807008C1
:1026E0008870050707060000F8202020202020051C
:1026F000070706000088888888888870050707060D
:102700000000888888885050200507070600008848
:10271000888888A8A85005070706000088885020E8
:102720005088880507070600008888502020202050
:10273000050707060000F80810204080F803090983
:102740000601FFE080808080808080E0050707062A
:102750000000804040201010080309090601FFE036
:1027600020202020202020E0050303060005205023
:10277000880501010600FEF80303030601058040F9
:10278000200505050600007008788878050707060B
:1027900000008080F0888888F0050505060000703C
:1027A00080808870050707060000080878888888F8
:1027B000780505050600007088F08070050707069B
:1027C0000000304840E04040400507070600FE702A
:1027D0008888887808700507070600008080F088E0
:1027E0008888880307070601004000C0404040E099
:1027F0000409090601FE1000301010101090600549
:10280000070706000080808890E09088030707068D
:102810000100C04040404040E0050505060000D0F2
:10282000A8A8A8A8050505060000B0C888888805DE
:10283000050506000070888888700507070600FEF9
:10284000F0888888F080800507070600FE78888871
:1028500088780808050505060000B0C88080800556
:10286000050506000078807008F0050707060000DF
:102870002020F820202018050505060000888888FB
:10288000986805050506000088888850200505051C
:102890000600008888A8A850050505060000885095
:1028A0002050880507070600FE8888885020408051
:1028B000050505060000F8102040F8030909060187
:1028C000FF2040404080404040200109090602FFAF
:1028D0008080808080808080800309090601FF80DD
:1028E000404040204040408005030306000248A8C5
:1028F00090FF2100486F74656E6420746F6F2063D1
:102900006F6C64004261636B0050726F6365656455
:10291000004F6666004F6E00536F667420456E640C
:1029200073746F7073004D6F74696F6E00446973D8
:1029300061626C65205374657070657273004D3808
:102940003400426564204C6576656C696E670047AB
:1029500032385A004732385900486F6D65204000C0
:1029600047323858004175746F20486F6D650047D5
:102970003238004D61696E0050726568656174207F
:1029800024204265640050726568656174202420CB
:10299000456E640054656D70657261747572650092
:1029A000436F6F6C646F776E005072656865617419
:1029B00020240046616E20537065656400426564A2
:1029C000004E6F7A7A6C65004D61696E00546F74C9
:1029D000616C004261627973746570205A00466CC4
:1029E0006F770046616E20537065656400426564D0
:1029F000004E6F7A7A6C65005370656564004D61B6
:102A0000696E00486F6D696E67204661696C656428
:102A1000006F70656E005452494747455245440067
:102A20003A200066696C616D656E74007A5F6D694D
:102A30006E00795F6D696E00785F6D696E0052653A
:102A4000706F7274696E6720656E6473746F702046
:102A50007374617475730A0020746F6F206C6F6EED
:102A60006720657874727573696F6E207072657611
:102A7000656E7465640A0020636F6C642065787409
:102A8000727573696F6E2070726576656E746564B9
:102A90000A00000000000000000000000000576174
:102AA000726E696E673A20486F6D696E6720427575
:102AB0006D702044697669736F72203C20310A0082
:102AC00002020400809D4300009B430000C84300B5
:102AD0000000410000004100000040000000010033
:102AE00000000100008000555555000000400033F3
:102AF000333300AAAA2A004992240000002000C70C
:102B0000711C0099991900D1451700555515003BC6
:102B1000B113002449120011111100000010000F20
:102B20000F0F00E3380E0043790D00CCCC0C00C32E
:102B3000300C00E8A20B0064210B00AAAA0A007066
:102B40003D0A009DD80900427B090092240900DC5F
:102B5000D30800888808001042080000000800F030
:102B6000C107008787070075500700711C07003EEA
:102B7000EB0600A1BC0600699006006666060070C0
:102B80003E06006118060017F4050074D105005BCD
:102B9000B00500B290050062720500555505007839
:102BA000390500B81E0500050505004EEC04008738
:102BB000D40400A1BD040090A7040049920400C100
:102BC0007D0400EE690400C7560400444404005C20
:102BD0003204000821040041100400000004003FFA
:102BE000F00300F8E0030026D20300C3C30300CCC7
:102BF000B503003AA803000A9B0300388E0300C007
:102C00008103009F750300D0690300505E03001D1F
:102C100053030034480300913D030033330300168F
:102C2000290300381F030097150300300C0300032D
:102C30000303000BFA020049F10200BAE802005C4B
:102C4000E002002DD802002DD0020059C80200B0C9
:102C5000C0020031B90200DAB10200AAAA0200A043
:102C6000A30200BC9C0200FA9502005C8F0200DF08
:102C700088020082820200457C020027760200273B
:102C8000700200436A02007C640200D05E02003FD2
:102C9000590200C8530200FFFDFCFAF8F6F4F2F006
:102CA000EEECEAE9E7E5E3E1E0DEDCDAD9D7D5D41A
:102CB000D2D0CFCDCBCAC8C7C5C3C2C0BFBDBCBAB6
:102CC000B9B7B6B4B3B2B0AFADACAAA9A8A6A5A423
:102CD000A2A1A09E9D9C9A99989795949392908F6B
:102CE0008E8D8B8A8988878684838281807F7E7D92
:102CF0007B7A797877767574737271706F6E6D6C9C
:102D00006B6A696867666564636261605F5E5D5C8B
:102D10005B5A5958585756555453525150504F4E6C
:102D20004D4C4B4A4A494847464645444342424136
:102D3000403F3E3E3D3C3B3B3A39383837363535EF
:102D4000343332323130302F2E2E2D2C2B2B2A299A
:102D50002928272726252524232322212120201F37
:102D60001E1E1D1C1C1B1B1A1919181817161615C8
:102D70001514131312121111100F0F0E0E0D0D0C4E
:102D80000C0B0A0A090908080707060605050404CA
:102D90000303020201000000809D4300009B4300EA
:102DA00000C84300000000000000000000000053C5
:102DB000657474696E67732053746F72656400295B
:102DC0000A002062797465733B20637263200053AC
:102DD000657474696E67732053746F72656420281C
:102DE00000454550524F4D20496E697469616C69C8
:102DF0007A65640A0048617264636F6465642044A4
:102E0000656661756C742053657474696E677320B0
:102E10004C6F616465640A0020286D6D2900203BB9
:102E2000204C6576656C696E67200020204D343239
:102E3000302053004175746F20426564204C6576E4
:102E4000656C696E670020460020480020204D31E7
:102E500034352053004D6174657269616C2068657A
:102E60006174757020706172616D65746572730054
:102E7000203B2053656E736F722000204400202099
:102E80004D34313220530046696C616D656E74209B
:102E900072756E6F75742073656E736F7200204A61
:102EA000002020473239205720490020204D31345E
:102EB000392043203B20556E69747320696E20438E
:102EC000656C736975730A0054656D706572617421
:102ED00075726520556E6974730020204732312069
:102EE0003B004C696E65617220556E6974730045D4
:102EF0004550524F4D206461746173697A65206555
:102F000072726F722E0A00290A002062797465734A
:102F10003B2063726320002073746F7265642073BA
:102F2000657474696E67732072657472696576651D
:102F300064202800202863616C63756C617465648B
:102F400029210A0020213D2000454550524F4D20A7
:102F5000435243206D69736D61746368202D20288E
:102F600073746F7265642920002053697A653A2072
:102F700000496E6465783A20000000FA430000FAC8
:102F80004300002041000096420000A0420000A043
:102F9000420000C8430080CF43DC050000DC050090
:102FA00000640000004B000000204D61726C696EEF
:102FB0003D563836290A00454550524F4D2076651A
:102FC0007273696F6E206D69736D61746368202818
:102FD000454550524F4D3D0024F4D43050C38E200F
:102FE000C2A24017828B7011127A910D816CD90A9E
:102FF000A861E108C7586607615143061E4B5D058D
:10300000C145A7041A411104093D980371393103E0
:103010004036DB0265339102D4305402802E1D020B
:10302000632CEE01752AC501B028A001102781018B
:103030008F2564012B244B01E0223401AC211F01B8
:103040008D200D01801FFC00841EED00971DDF0008
:10305000B81CD200E61BC600201BBC00641AB200DC
:10306000B219A8000A19A0006A189900D117910096
:1030700040178B00B516840031167E00B315790019
:103080003A157300C7146F0058146A00EE136600F7
:103090008813630025135E00C7125B006C12570093
:1030A00015125400C111510070114F0021114B0035
:1030B000D61049008D10470046104400021042000F
:1030C000C00F4000800F3E00420F3C00060F3B0047
:1030D000CB0E3800930E37005C0E3500270E3400FF
:1030E000F30D3200C10D3100900D3000600D2E0047
:1030F000320D2D00050D2C00D90C2B00AE0C290033
:10310000850C29005C0C2700350C27000E0C2600CE
:10311000E80B2400C40B2400A00B23007D0B23002C
:103120005A0B2100390B2100180B2000F80A1F0050
:10313000D90A1E00BB0A1E009D0A1D00800A1D0040
:10314000630A1C00470A1B002C0A1B00110A1A0004
:10315000F7091A00DD091900C4091900AB091900A3
:10316000920917007B091800630917004C09160023
:1031700036091600200916000A091500F508150081
:10318000E0081400CC081400B8081400A4081400C7
:10319000900813007D0812006B08130058081200F5
:1031A000460812003408110023081100120811000B
:1031B00001081100F0071000E0071000D007100010
:1031C000C0071000B0070F00A107100091070E0004
:1031D00083070F0074070F0065070E0057070E00E6
:1031E00049070E003B070D002E070E0020070D00BB
:1031F00013070D0006070D00F9060C00ED060D0083
:10320000E0060C00D4060C00C8060C00BC060C003E
:10321000B0060C00A4060B0099060C008D060B00EE
:1032200082060B0077060B006C060B0061060A0095
:1032300057060B004C060A0042060A0038060A0030
:103240002E060A0024060A001A060A0010060900C3
:1032500007060A00FD050900F4050900EB05090051
:10326000E2050900D9050900D0050900C7050900D4
:10327000BE050900B5050800AD050800A505090053
:103280009C050800940508008C05080084050800CA
:103290007C050800740508006C050700650508003A
:1032A0005D050700560508004E05070047050700A5
:1032B0004005080038050700310507002A0507000A
:1032C000230507001C050600160507000F0507006B
:1032D0000805060002050700FB040600F5040700C8
:1032E000EE040600E8040600E2040700DB04060022
:1032F000D5040600CF040600C9040600C304060076
:10330000BD040600B7040600B1040500AC040600C5
:10331000A6040600A00405009B0406009504050011
:10332000900406008A040500850405008004060058
:103330007A04050075040500700405006B0405009F
:1033400066040500610405005C04050057040500DF
:10335000520405004D04050048040500430405001F
:103360003E0404003A04050035040500300404005E
:103370002C04050027040400230405001E04040097
:103380001A04040016040500110404000D040400CE
:10339000090405000404040000040400FC03040004
:1033A000F8030400F4030400F0030400EC03040039
:1033B000E8030400E4030400E0030400DC03040069
:1033C000D8030400D4030400D0030400CC03040099
:1033D000C8030300C503030024F404D9201BC40C54
:1033E0005C0E9804C4095F0265077101F405F900D9
:1033F000FB04B30048048700C1036900580355006B
:1034000003034500BE023A008402310053022A0041
:103410002902250004022000E4011C00C801190053
:10342000AF0117009801140084011300710110000E
:103430006101100051010E0043010D0036010B0027
:103440002B010B0020010B00150109000C010900E4
:1034500003010800FB000800F3000800EB00070070
:10346000E4000600DE000600D8000600D2000600D8
:10347000CC000500C7000500C2000500BD00040027
:10348000B9000400B5000400B1000400AD00040060
:10349000A9000400A5000300A20003009F0004008F
:1034A0009B000300980003009500020093000300B6
:1034B000900003008D0002008B00030088000200D2
:1034C0008600020084000300810002007F000200E9
:1034D0007D0002007B0002007900020077000100FD
:1034E0007600020074000200720001007100020008
:1034F0006F0002006D0001006C0002006A00010014
:10350000690002006700010066000100650001001B
:10351000640002006200010061000100600001001F
:103520005F0002005D0001005C0001005B00010023
:103530005A00010059000100580001005700010025
:103540005600010055000100540001005300000026
:103550005300010052000100510001005000010021
:103560004F0001004E0000004E0001004D00010020
:103570004C0001004B0000004B0001004A0001001C
:103580004900010048000000480001004700010018
:103590004600000046000100450000004500010013
:1035A000440001004300000043000100420000000D
:1035B0004200010041000000410001004000010004
:1035C0003F0000003F0001003E0000003E000100FF
:1035D0003D0000003D0001003C0000003C000000F8
:1035E0003C0001003B0000003B0001003A000000ED
:1035F0003A000100390000003900010038000000E5
:1036000038000000380001003700000037000100DA
:1036100036000000360000003600010035000000D2
:1036200035000000350001003400000034000000C7
:1036300034000100330000003300000033000100BB
:1036400032000000320000003200010031000000B2
:1036500031000000310001003000000030000000A7
:10366000300001002F0000002F0000002F0000009C
:103670002F0001002E0000002E0000002E0001008F
:103680002D0000002D0000002D0000002D00010085
:103690002C0000002C0000002C0000002C00010079
:1036A0002B0000002B0000002B0000002B0001006D
:1036B0002A0000002A0000002A0000002A00010061
:1036C0002900000029000000290000002900000056
:1036D0002900010028000000280000002800000048
:1036E000280000002800010027000000270000003B
:1036F000270000002700000027000100260000002E
:103700002600000026000000260000002600010020
:103710002500000025000000250000002500000015
:103720002500000025000100240000002400000006
:1037300024000000240000002400010023000000F9
:1037400023000000230000002300000023000000ED
:1037500023000000230001002200000022000000DE
:1037600022000000220000002200000022000100D0
:1037700021000000210000002100000021000000C5
:1037800021000000210000002100010020000000B5
:1037900020000000200000002000000020000000A9
:1037A0002000000020000000200001001F00000099
:1037B0001F0000001F0000001F0000001F0000008D
:1037C0001F0000001F0001001E0000001E0000007E
:1037D0001E0000001E0000003930000033250000EC
:1037E00087190000B00F0000DB080000BD040000D6
:1037F000740200003F01000020436F756E74205872
:103800003A00426564004531004500626564002C61
:103810002073797374656D2073746F7070656421A3
:10382000204865617465725F49443A2000486561CB
:1038300074696E67204661696C65640048656174EF
:10384000696E67206661696C6564004D31313220B4
:1038500053687574646F776E004572723A204D41FB
:103860005854454D50004D415854454D50207472A8
:1038700069676765726564004572723A204D494E0A
:1038800054454D50004D494E54454D502074726979
:1038900067676572656400544845524D414C20523B
:1038A000554E4157415900546865726D616C205204
:1038B000756E6177617900202F002042403A002028
:1038C000403A0020573A0020573A00496E76616C22
:1038D00069642065787472756465720A000000215D
:1038E00000240027002A002D0030003300010100D1
:1038F00000040107010A017C3C3E5E2B3D3F2F5B2B
:103900005D3B2C2A225C0043616E6E6F74206F70E9
:10391000656E2073756264697220004142530050E5
:103920004C41004D6564696120496E6974204661AF
:10393000696C0053442063617264206F6B0A006FEE
:1039400070656E526F6F74206661696C65640A0001
:10395000766F6C756D652E696E6974206661696C31
:1039600065640A004E6F20534420636172640A004C
:103970000A4D3234004D3233202573002E0A006F79
:1039800070656E206661696C65642C2046696C65A3
:103990003A200046696C652073656C6563746564E4
:1039A0000A002053697A653A200046696C65206FE9
:1039B00070656E65643A2000454E4420535542526E
:1039C0004F5554494E450A002220706F7300222043
:1039D000706172656E743A2200535542524F5554CD
:1039E000494E452043414C4C207461726765743ADE
:1039F000220053756263616C6C204F766572666C51
:103A00006F77004578636565646564206D61782033
:103A1000535542524F5554494E4520646570746861
:103A20003A002E0A0044656C6574696F6E20666109
:103A3000696C65642C2046696C653A200046696CA7
:103A4000652064656C657465643A00534420707247
:103A5000696E74696E67206279746520004E6F74B8
:103A6000205344207072696E74696E670A002F617A
:103A700075746F25632E670057726974696E6720CD
:103A8000746F2066696C653A200066726573680021
:103A9000646F696E67002066696C653A20004E6F3E
:103AA000772000000000000000000000000000007F
:103AB0000000000000000000000000000000000006
:103AC00000000000000000000000000000000000F6
:103AD00000000000000000000000000000000000E6
:103AE00000000000000000000000000000000000D6
:103AF00000000000000000000000000000000000C6
:103B000000000000000000000000000000000000B5
:103B100000000000000000000000000000000000A5
:103B20000000000000000000000000000000000095
:103B30000000000000000000000000000000000085
:103B40000000000000000000000000000000000075
:103B50000000000000000000000000000000000065
:103B60000000000003FFF000000000000000000063
:103B7000000000001FFFE000000000000000000047
:103B8000000000003FC07C000000000000000000BA
:103B9000000000007C0FFF8000000000000000001B
:103BA00000000000F87FFFE00000000000000000BF
:103BB00000000001F0FFFF7800000000000000009E
:103BC00000000001E1FFFFBC001FFF83FFE1F00EDA
:103BD0003FFF0001E3FFFFEE001FFFC7FFF1F80EFC
:103BE0003FFFC001C3FF8FF7001E03CF0071FC0E23
:103BF0003C03E001C3FE01FB801E03CE0079DE0E14
:103C00003C01E001C7FC007DC01FFF8E0079CF0E94
:103C10003C01E001C7FC003EE01FFFCE0079C7CEAB
:103C20003C01E001E7FC001F701E01CE0079C1EEEF
:103C30003C01E001E7FC000FB81E01CF0079C0FE97
:103C40003C01E000E3FC0007F81FFFC7FFF1C07E66
:103C50003FFFC000F3FC0007DC1FFF87FFE1C03E11
:103C60003FFF800073FE0003EC0FF800FF00000C24
:103C70001FF0000071FE0003EE00000000000000D5
:103C80000000000039FF0003F60000000000000003
:103C90000000000618FF8003F7000000000000008D
:103CA000000000071CFFC003F71FFFDFFF1FFE1C03
:103CB00001C000030E7FE007F31FFFDFFF3FFF1C83
:103CC00001C00001863FF807FB00701C0038079C0C
:103CD00001C00001C33FFFFFFB00701C0038039CC4
:103CE00001C00000F39FFFFFFB00701FFF38001FA3
:103CF000FFC00000798FFFFFF780701FFF38001FA3
:103D0000FFC000007CC7FFFFF780701C0038079CD5
:103D100001C000003F01FFFFED80701C0038079CD0
:103D200001C000001FE0FFFFED80701FFF3FFF1C80
:103D300001C000001FF03FFFCD00701FFF1FFE1CE1
:103D400001C000000FFC0FFF1D000000000000007C
:103D50000000000007FE01FC1B0000000000000046
:103D60000000000003FF80003B0000000000000096
:103D70000000000001FFF000FB0000000000000058
:103D80000000000000FFFFFFF00000000000000046
:103D900000000000003FFFFFE00000000000000006
:103DA00000000000001FFFFFC00000000000000036
:103DB000000000000007FFFF80000000000000007E
:103DC000000000000001FFFF0000000000000000F4
:103DD0000000000000003FF80000000000000000AC
:103DE00000000000000000000000000000000000D3
:103DF00000000000000000000000000000000000C3
:103E000000000000000000000000000000000000B2
:103E100000000000000000000000000000000000A2
:103E20000000000000000000000000000000000092
:103E30000000000000000000000000000000000082
:103E40000000000000000000000000000000000072
:103E50000000000000000000000000000000000062
:103E60000000000000000000000000000000000052
:103E70000000000000000000000000000000000042
:103E80000000000000000000000000000000000032
:103E90000000000000000000000000000000000022
:103EA0000000006D61726C696E66772E6F7267003C
:103EB000322E302E395F4457372E342E35001FFFF7
:103EC000FFFFFFFFFF600000000001FF4000000057
:103ED0000000FF8000000000007F83CF00000C3056
:103EE0003F87FF80000C301F867980000C000F8C0C
:103EF00030C7838C30E78C30CFC7CC31F38C30DCCB
:103F0000ECEC33B98C30D86C6C33198C30D06C0C31
:103F100033198C30D86C0C33198C30DC6C0E3B1997
:103F20008C30CF7C079F198C30C77C038F194000E1
:103F30000000000002600000000000061FFFFFFFFD
:103F4000FFFFF81000C90210012C0140012201708E
:103F5000011801B0010E01F00104015002FA00B095
:103F600002F0003003E600D003DC009004D20070C1
:103F700005C800A006BE000008B400B009AA00D021
:103F80000BA000600E960060118C000015820020CE
:103F9000197800C01D6E00A0226400B0275A00905E
:103FA0002C500000314600E0343C001038320090C4
:103FB0003A2800603C1E00A03D1400803E0A00200C
:103FC0003F00002020506C616E6E6572427566661F
:103FD000657242797465733A2000204672656520E7
:103FE0004D656D6F72793A200020436F6D70696C7A
:103FF00065643A2046656220323020323032320A1F
:1040000000204C61737420557064617465643A20BB
:10401000323032322D30322D3035207C20417574D3
:10402000686F723A20426F6E6474656368202F2057
:10403000496E73616E6974794175746F6D617469ED
:104040006F6E0A004D61726C696E20322E302E390F
:104050005F4457372E342E350A0020536F6674772D
:104060006172652052657365740A0020576174633C
:1040700068646F672052657365740A002042726F2E
:10408000776E206F75742052657365740A00204541
:10409000787465726E616C2052657365740A0050A5
:1040A0006F77657255700A0073746172740A004705
:1040B00039310A47315A350A4739300A4D38340AFE
:1040C0004D31303453300A4D3134305330004D319E
:1040D000303031006572726F722077726974696E68
:1040E0006720746F2066696C650A00446F6E6520F6
:1040F000736176696E672066696C652E0A004D32C1
:104100003900456E6473746F707300255320256306
:1041100020256320256320256300205A3A0020597A
:104120003A0020583A00656E6473746F70732068AB
:1041300069743A200000002200250028002B002E80
:10414000003100340002010000050108010B0105E7
:10415000050505070508080808020202020A0A0800
:104160000804040404010101010101010103030326
:104170000303030303040707070C0C0C0C0C0C0CC3
:104180000C0202020206060606060606060B0B0BCA
:104190000B0B0B0B0B010210202008081020401005
:1041A00020408002010201080402010102040810FB
:1041B0002040808040201008040201800402018019
:1041C0004020100804020108040201010204081042
:1041D000204080010204081020408000000A0B02E9
:1041E000090C0D0E08070304010000000000000088
:1041F00000000000000000000000000000000000BF
:10420000000000000000001211100000000000007B
:10421000000000000000000000000000000000009E
:1042200000004D6F76652025736D6D004D6F7665CE
:1042300020302E316D6D004D6F766520316D6D0033
:104240004D6F76652031306D6D004D6F7665204184
:10425000786973004D6F7665204578747275646572
:1042600072004D6F7665205A004D6F7665205900BB
:104270004D6F76652058001F391B394368616E67A2
:10428000652046696C616D656E7400556E6C6F617A
:10429000642046696C616D656E74004C6F616420CA
:1042A00046696C616D656E74005072656865617415
:1042B00020437573746F6D0050726568656174207A
:1042C00024004261636B005072696E742066726FE5
:1042D0006D204D6564696100FFFFFF726573756D48
:1042E0006564004469736D69737300526573756D1D
:1042F000696E670073686F770044697361626C650B
:1043000052756E6F75740050757267654D6F72658A
:104310000050617573656400656E6400436F6E7470
:10432000696E7565004C6F61642046696C616D65EE
:104330006E74205400496E736572742066696C61F6
:104340006D656E7420616E642073656E64204D31FE
:1043500030380A00220A00556E6B6E6F776E20634C
:104360006F6D6D616E643A20220020420020500083
:104370006F6B00204500205A0020590020204D3945
:104380003220580053746570732070657220756E0A
:1043900069740020746F6F206C6F6E67206578748D
:1043A000727573696F6E2070726576656E74656480
:1043B0000A0020636F6C6420657874727573696F8E
:1043C0006E2070726576656E7465640A00486F6D64
:1043D0006520257325732573204669727374002048
:1043E000453A00205A3A0020593A00583A006F6B7B
:1043F0000A00526573656E643A2000544D334420C0
:104400004352313056322052656164792E00507229
:10441000696E74696E672E2E2E005072696E74205C
:10442000506175736564006E6F7469666963617469
:10443000696F6E2000003E01240111241FBECFEFE2
:10444000D1E2DEBFCDBF00E00CBF84B7809303197B
:1044500014BE0FB6F894A89580916000886180938F
:104460006000109260000FBE13E0A0E0B2E0EEE545
:10447000F6EC02E00BBF02C007900D92AC3CB10716
:10448000D9F729E1ACECB3E001C01D92A330B2072B
:10449000E1F712E2CCE1D2E200E006C02197010987
:1044A000802FFE010F94905FCB31D10780E0080789
:1044B000A9F70F945F4C0D941D630C940000CF93EB
:1044C000DF93DB01F9019C919130C1F0943080F0D1
:1044D00094509C938830D1F480819181009771F041
:1044E000019791838083480F591FEA01188206C003
:1044F0008C3539F49C5F9C93943041F4DF91CF91DB
:1045000008958B3339F781E08C93F8CF2081318186
:10451000B9016F5F7F4F71836083420F531FEA01C0
:104520008883808191818F3591056CF7E7CF0F9358
:104530001F9381E00091CC161091CD162091CE16DC
:104540003091CF164091C8165091C9166091CA1685
:104550007091CB16041715072607370708F480E07B
:104560001F910F91089590E080E0089520918504B7
:10457000833021F425FD0CC024FD0CC030E0A901DE
:1045800002C0559547958A95E2F7CA018170089552
:1045900081E0089580E008958091A00484FD0BC01F
:1045A0008091A20487FD07C09091A304937081E0DD
:1045B00019F480E0089581E00895CF92DF92EF92A0
:1045C000FF92CF93DF93EC01CC80DD80EE80FF8003
:1045D00027E137EB41ED58EBC701B6010F94F961C4
:1045E00087FD23C023E030E04BE953E4C701B60167
:1045F0000F94A7581816CCF0C880D980EA80FB80A9
:1046000027E137EB41ED58EBC701B6010F94F96193
:1046100087FD0BC0C1E023E030E84DE953E4C7015A
:10462000B6010F94A75818160CF4C0E08C2FDF9138
:10463000CF91FF90EF90DF90CF9008952FEB280F50
:104640002A3108F047C0E22FF0E08091A004909159
:10465000A104A091A204B091A30404C0B695A795AB
:10466000979587952A95D2F780FD02C081700895AD
:10467000EA57FB4FE081EE2341F18091100A9091BF
:10468000110AE80FF92FF11D808190ED980F9A30F3
:1046900030F08E3251F4818180538A3098F4F09357
:1046A0007504E093740481E008958D3211F08B322B
:1046B00049F4818190ED980F9A3088F38E3211F48D
:1046C0008281EACFF0E0E0E0EACF10927504109228
:1046D0007404E9CF80E008950E941E23882341F0EE
:1046E00081E02091740430917504232B09F480E05B
:1046F00008952F923F924F925F926F927F928F9286
:104700009F92AF92BF92CF92DF92EF92FF920F9360
:104710001F93CF93DF93CDB7DEB72E970FB6F894E4
:10472000DEBF0FBECDBFE82ED62E042F122F282FAE
:1047300030E03C872B87462F50E05A87498765E059
:10474000F62EF29EC001F39E900D11249E878D8758
:10475000FA01E80FF91FEE0FFF1FEE0FFF1FE356E0
:10476000F94F60817181828193819B01AC010F942B
:104770008B62882309F434C1E00E612F6D0DFE9C1D
:10478000F0011124A985BA85AE0FBF1FAA0FBB1F68
:10479000AA0FBB1FA356B94FAC901196BC901197AE
:1047A0001296CC9012971396DC90E00EFE9CA0011E
:1047B0001124A985BA85A40FB51FAA0FBB1FAA0F84
:1047C000BB1FA356B94FEC901196FC90119712960F
:1047D0000C91129713969C90862F90E0AD85BE8524
:1047E000A80FB91FAA0FBB1FAA0FBB1FA356B94F13
:1047F0008C9011967C90119712966C90129713964C
:104800005C90610F70E0AD85BE85A60FB71FAA0F43
:10481000BB1FAA0FBB1FA356B94F4C9011963C90DB
:10482000119712961C91129713962C90E80FF91F6E
:10483000EE0FFF1FEE0FFF1FE356F94FB081B98354
:1048400021812A8332813B8383818C83FA01E60FA5
:10485000F71FEE0FFF1FEE0FFF1FE356F94F90817A
:104860009D83A181AE83B281BF8323812887970175
:10487000402F592DB701802F992D0F948B628823DB
:1048800021F0E12CF12C00E0912C9501A601B5015D
:10489000C6010F948B62882319F05701C02ED92CC2
:1048A000242D332D412F522D642D732D812F922DC8
:1048B0000F948B62882321F0412C312C10E0212CA5
:1048C000282D372D462D552D682D772D862D952D8C
:1048D0000F948B62882321F0842C732C612E522C30
:1048E0002D813E814F8158856D817E818F81988594
:1048F0000F948B62882321F01D821E821F821886EE
:1049000029813A814B815C8169817A818B819C818B
:104910000F948B62882341F03D8139834E814A8315
:104920005F815B8388858C8385E0EB85FC858E9F2A
:10493000D0018F9FB00D112429853A85A20FB31F96
:10494000AA0FBB1FAA0FBB1FA356B94FBA87A987CF
:104950009501A601B501C6010F94995F9701402FFB
:10496000592D0F94985F6B017C01282D372D462D12
:10497000552D682D772D862D952D0F94995F242D1B
:10498000332D412F522D0F94985F9B01AC01C7012D
:10499000B6010F94995F6B017C0129813A814B81AB
:1049A0005C8169817A818B819C810F94995F2D81D3
:1049B0003E814F8158850F94985F9B01AC01C701E0
:1049C000B6010F94995F20E030E040E450E40F948A
:1049D0009360A985BA856D937D938D939C9313976E
:1049E0002E960FB6F894DEBF0FBECDBFDF91CF91EC
:1049F0001F910F91FF90EF90DF90CF90BF90AF90FD
:104A00009F908F907F906F905F904F903F902F90EE
:104A1000089510920B0A80915F0290916002A0911C
:104A20006102B09162028093160790931707A093DA
:104A30001807B09319070895269A2E9A08950F9390
:104A40001F9380933802803208F046C09091BA04D8
:104A5000891724F091E0980F9093BA0441E050E058
:104A6000082E02C0440F551F0A94E2F7052E000CD1
:104A7000660B770B0091B6041091B7042091B8042F
:104A80003091B904402351236223732391E0452BD5
:104A9000462B472B09F490E09093471087FD1FC0E9
:104AA000282F082E000C330B3F938F9387E699E055
:104AB0009F938F9387E799E09F938F931F920E9414
:104AC0005C908DB79EB707960FB6F8949EBF0FBE49
:104AD0008DBF1F910F91089510924710DFCF1F9146
:104AE0000F910D944042CF93DF93C091CD08D091A8
:104AF000CE08209729F16091C9087091CA08809169
:104B0000CB089091CC080F9405616E5F7F4F24977E
:104B10006C177D07ACF470931F0760931E070F940A
:104B20004639605E70448D4F9F4F609320077093AD
:104B300021078093220790932307DF91CF91089557
:104B4000109220071092210710922207109223073B
:104B5000F4CFAB01BC014093CC165093CD166093BB
:104B6000CE167093CF1683E398E10C9442D52F9222
:104B70003F924F925F926F927F928F929F92AF92ED
:104B8000BF92CF92DF92EF92FF921F93CF93DF936A
:104B9000CDB7DEB72C970FB6F894DEBF0FBECDBFF2
:104BA0007A011901DC012D913D914D915C912D838C
:104BB0003E834F835887FB01408051806280738021
:104BC0008090921090909310A0909410B0909510B7
:104BD000A50194016D817E818F8198850F94A758DE
:104BE00081110EC011E0A3019201609196107091A5
:104BF000971080919810909199100F94A758811157
:104C000010E0D1012D913D914D915C9129873A871A
:104C10004B875C87F701C080D180E280F3802091D0
:104C20000C0230910D0240910E0250910F02C7010B
:104C3000B6010F94A758882309F44EC0C0920C0205
:104C4000D0920D02E0920E02F0920F0280919E101F
:104C500090919F10A091A010B091A110409196103A
:104C60005091971060919810709199108092C90995
:104C70009092CA09A092CB09B092CC094093CD0979
:104C80005093CE096093CF097093D009C092D10997
:104C9000D092D209E092D309F092D4098093D50939
:104CA0009093D609A093D709B093D80920E030E0BB
:104CB00040E05FE3609175107091761080917710FD
:104CC000909178100F940D5969837A838B839C831C
:104CD000CE0101960F947A0B2D813E814F8158852C
:104CE0002093C9093093CA094093CB095093CC094A
:104CF0004092CD095092CE096092CF097092D009AE
:104D0000D1012D913D914D915C916091D5097091AA
:104D1000D6098091D7099091D8090F94995F609333
:104D2000D5097093D6098093D7099093D8091111AA
:104D30002FC020E030E0A90169857A858B859C85AC
:104D40000F94A758811133C060E070E088EC92E4C2
:104D500069837A838B839C83CE0101960F947A0BAF
:104D60002C960FB6F894DEBF0FBECDBFDF91CF916A
:104D70001F91FF90EF90DF90CF90BF90AF909F90EA
:104D80008F907F906F905F904F903F902F900895FD
:104D90002AEF3EE74AE25FE36091791070917A1062
:104DA00080917B1090917C100F940D59D1CF60E0D1
:104DB00070E080EA91E4CCCF809174049091750406
:104DC000009731F04AE050E070E060E00D94C25688
:104DD00060E070E0CB01089580911A0A82FF0BC059
:104DE00063E68BE49AE00E9477900F9452390E9418
:104DF000B79481E0089580E00895809174049091C3
:104E00007504009731F04AE050E070E060E00D94E6
:104E1000945560E070E0CB010895CF93DF93EB01F0
:104E20000E946C23882319F00E94FD26EB01CE011D
:104E3000DF91CF9108950E94FD2697FD0CC00E943E
:104E4000FD266F3F71058105910509F034F40E943C
:104E5000FD26862F089580E008958FEF0895CF9363
:104E6000C62F0E946C23882319F0CF910C941B2726
:104E70008C2FCF9108958091740490917504892BA3
:104E800041F00E941B2791E0811101C090E0892F21
:104E9000089591E0FCCFCF93DF93C82FD62F0E94C7
:104EA0006C23882321F0DF91CF910C943B278C2F2A
:104EB0000E941E23811101C08D2FDF91CF91089593
:104EC0000E94FD26CB010895CF93DF939091481067
:104ED00093FD60C0C82F89E40E946C23882309F4E5
:104EE00049C00E941B2790E01816190614F481E0AF
:104EF00090E026E0289FF001299FF00D1124E45254
:104F0000F74F82819381D0E08C38910514F08CE8C2
:104F100090E09093CE088093CD080E947325609115
:104F2000CD087091CE08072E000C880B990B0F94BA
:104F3000AE582091C9083091CA084091CB085091D1
:104F4000CC080F94F961181694F083E996E160E0BB
:104F50000E94779061E06C278C2F0E943BFCCC2351
:104F6000C9F060E08D2FDF91CF910C9461DA82EA75
:104F700096E1EDCF83E50E946C23D82F811107C005
:104F8000CC2341F082E50E946C23882319F00E9413
:104F90006027BACFDF91CF910895CF93DF93EB01D4
:104FA0000E946C23882321F0DF91CF910C9460271D
:104FB000CE01DF91CF9108950F931F93CF938091EE
:104FC0007404909175040097E9F0FC018F01C19180
:104FD0002C2F2F7D81F0C53411F0C536B9F7F801BB
:104FE000108270E060E00F943654F801C083CF91D6
:104FF0001F910F91089570E060E0CF911F910F9184
:105000000D94365460E070E0CB01F1CFCF92DF9287
:10501000EF92FF926A017B010E946C23882331F09A
:10502000FF90EF90DF90CF900C94DC27C701B60182
:10503000FF90EF90DF90CF9008952F923F924F9284
:105040005F926F927F928F929F92AF92BF92CF9218
:10505000DF92EF92FF920F931F93CF93DF93D62FA0
:10506000C72FFC0180809180A280B380C501B4016C
:1050700020E831E541E050E00F94EB5EC9016DE6B8
:1050800071E00F94685F6B017C01C501B40120E100
:105090003EE040E050E00F94EB5ECA01B90128E128
:1050A00030E040E050E00F94EB5E362E272E062FC6
:1050B000172F8CE3482E512C612C712CC501B401A3
:1050C000A30192010F94EB5EB62EA72ECA01B9017F
:1050D000A30192010F94EB5ECB01C114D10479F1CD
:1050E000AF92BF927F936F932F923F92FF92EF9276
:1050F000DF92CF9283E696E19F938F93CF93DF93D6
:105100000F943E588DB79EB70E960FB6F8949EBF7B
:105110000FBE8DBF8D2F9C2FDF91CF911F910F91CF
:10512000FF90EF90DF90CF90BF90AF909F908F90C7
:105130007F906F905F904F903F902F900895E11473
:10514000F104C9F0AF92BF927F936F932F923F9279
:10515000FF92EF9283E596E19F938F93CF93DF9336
:105160000F943E58EDB7FEB73C960FB6F894FEBFCD
:105170000FBEEDBFCFCF012BB9F0AF92BF927F939F
:105180006F932F923F9287E496E19F938F93CF93F3
:10519000DF930F943E588DB79EB70A960FB6F894DA
:1051A0009EBF0FBE8DBFB6CF892BA9F0AF92BF9225
:1051B0007F936F938FE396E19F938F93CF93DF93CA
:1051C0000F943E58EDB7FEB738960FB6F894FEBF71
:1051D0000FBEEDBF9FCFAF92BF928BE396E19F933F
:1051E0008F93CF93DF930F943E580F900F900F90B3
:1051F0000F900F900F908ECF8F929F92AF92BF9291
:10520000CF92DF92EF92FF920F931F93CF93DF9392
:105210001092A9041092A8042FE32093A7041092DF
:10522000A6041092A5041092A4041092A004109257
:10523000A1041092A2041092A3049C01F901908190
:105240002F5F3F4F9032D1F39E34C9F4818190EDAE
:10525000980F9A3020F08D3211F08B3281F4329613
:105260009F012F5F3F4F808180538A3008F47BC0BD
:105270009F012F5F3F4F8081803209F476C0F09309
:10528000110AE093100A8F010F5F1F4FC0816AE27D
:1052900070E0C8010F94E362009731F0FC01319790
:1052A00080818032E1F31182CD3429F0C43519F0C8
:1052B000C73409F04BC0F80180810F5F1F4F803267
:1052C000D1F380538A3008F041C0C093A70430E086
:1052D00020E04AE0DF011196429FC001439F900DFC
:1052E00011249C01205331098081280F311D87FD35
:1052F0003A95818190ED980F9A30C8F13093A604C9
:105300002093A5048E3261F4329690E04AE0DF01EA
:1053100031968C9150ED580F5A3058F19093A40467
:10532000CD01DC0101964C914032D9F3CD3489F5A1
:105330002E31310539F018F52731310519F02C31AE
:10534000310539F5B093A904A093A804DF91CF915A
:105350001F910F91FF90EF90DF90CF90BF90AF9093
:105360009F908F900895F9017BCFF90181CFFD01C6
:10537000B1CF949F800D112490ED980FC8CF2537A1
:10538000310538F027373105E8F2203A83E0380755
:10539000C9F2D091100A40E050E0BA0110E000E0FC
:1053A000C12CD12C7601C394FD0131968C918823B8
:1053B00009F47FC08132E1F4CD34D1F420323105DB
:1053C000B9F44093A0045093A1046093A204709395
:1053D000A304F093A904E093A80463E270E0CF0172
:1053E0000F94E362009709F4B1CFFC011082AECFB5
:1053F00081548A3108F058C0DF019D91903291F0BC
:10540000A0EDA90FAA30E8F09E3271F4918190537B
:105410009A30B8F00115110519F48F0101501109E6
:1054200090E013C0FD01E8CF9D3211F09B3291F75F
:105430009181A0EDA90FAA3020F09E3259F79281F8
:10544000E6CF9E2F9D1B309759F3A82FB0E0460161
:10545000570104C0880C991CAA1CBB1C8A95D2F762
:10546000482959296A297B29AA57BB4F9C938081D7
:105470008154DF018A3108F497CFDF0181918823BD
:1054800009F492CF90ED980F9A30B8F393ED980FFE
:10549000923098F38B3289F3CD010196EC91E03292
:1054A00009F082CFDC01F8CF0115110501F78D015C
:1054B000DECF1093A9040093A8044093A004509356
:1054C000A1046093A2047093A30440CF8F929F9293
:1054D000AF92BF92CF92DF92EF92FF92CF93DF9382
:1054E000EC0180908C0690908D06A0908E06B09076
:1054F0008F0620E030E0A901C501B4010F94A75840
:10550000882309F452C0C880D980EA80FB80A701B3
:105510009601C501B4010F94A75818160CF04AC0A3
:105520002091400430914104409142045091430441
:10553000C701B6010F94A758882321F1C0924004F7
:10554000D0924104E0924204F092430420913C0442
:1055500030913D0440913E0450913F04C701B60193
:105560000F940D599B01AC0160E070E080E89FE36F
:105570000F94985F6093100270931102809312024F
:1055800090931302609110027091110280911202A7
:1055900090911302DF91CF91FF90EF90DF90CF9029
:1055A000BF90AF909F908F90089560E070E080E88A
:1055B0009FE3F0CF60E070E0CB01ECCF9B01AC014A
:1055C000485F5F4FBC016C5F7F4F0C94B7250F9312
:1055D0001F93CF93DF9300D000D01F921F92CDB7BF
:1055E000DEB7FC018B0183A5811112C081E083A786
:1055F00084819581A681B781B05889839A83AB83D2
:10560000BC83BE016F5F7F4F89EC99E00E94DE2A68
:105610001D821E821F82188620E030E040E05FE39A
:1056200060919A1070919B1080919C1090919D10A8
:105630000F94995F69837A838B839C839E012B5F90
:105640003F4FAE014F5F5F4F66E970E182E990E145
:105650000E94B7251D821E821F82188620E030E03E
:1056600040E05FE3F80160857185828593850F9442
:10567000995F69837A838B839C83B8016C5F7F4FCA
:105680009E012B5F3F4FAE014F5F5F4FC8010E94ED
:10569000B72528960FB6F894DEBF0FBECDBFDF91B9
:1056A000CF911F910F9108952F923F924F925F9249
:1056B0006F927F928F929F92AF92BF92CF92DF9222
:1056C000EF92FF920F931F93CF93DF93CDB7DEB787
:1056D000A2970FB6F894DEBF0FBECDBF8C011B01A1
:1056E0005E834D8340909210509093106090941080
:1056F000709095108090961090909710A0909810B0
:10570000B0909910DB018D919D910D90BC91A02DD1
:105710008F87988BA98BBA8B9C01AD01C301B20115
:105720000F94985F6B017C01D10114968D919D912E
:105730000D90BC91A02D8B8B9C8BAD8BBE8B9C0157
:10574000AD01C501B4010F94985F6F8B788F898F7D
:105750009A8FAD81BE818D919D910D90BC91A02DB0
:105760008F839887A987BA879C01AD01C301B201D5
:105770000F94985F6B8F7C8F8D8F9E8FAD81BE81D4
:1057800014968D919D910D90BC91A02D8B879C8737
:10579000AD87BE879C01AD01C501B4010F94985F30
:1057A0006F8F78A389A39AA3A7019601C701B601B9
:1057B0000F940D596B017C012F89388D498D5A8DBD
:1057C000CA01B9010F940D599B01AC01C701B60183
:1057D0000F94995F4B015C012F85388949895A895B
:1057E0006F81788589859A850F94985F2B013C019C
:1057F0002B893C894D895E896B857C858D859E854D
:105800000F94985F6B017C01A3019201C301B20167
:105810000F940D592B013C01A7019601C701B60158
:105820000F940D599B01AC01C301B2010F94995F14
:105830000F9447626B017C012B8D3C8D4D8D5E8DED
:10584000CA01B9010F940D592B013C012F8D38A1CC
:1058500049A15AA1CA01B9010F940D599B01AC018C
:10586000C301B2010F94995F9B01AC01C501B40162
:105870000F94F9611816B4F520E030E0A901C701D2
:10588000B6010F94F96187FF2AC0C701B60190588D
:1058900020E030E040EA50E40F94F961181614F566
:1058A000A1016D817E81C8010E94542BA2960FB682
:1058B000F894DEBF0FBECDBFDF91CF911F910F9146
:1058C000FF90EF90DF90CF90BF90AF909F908F9020
:1058D0007F906F905F904F903F902F900895C701F9
:1058E000B601D6CF20E030E040E050E4C501B4017D
:1058F0000F94F961181624F4B101C8010E94E72A37
:1059000019821A821B821C82BE016F5F7F4FC10108
:105910000E94DE2A2DEC3CEC4CEC5CE3C701B601A6
:105920000F940D599B01AC01F80160817181828156
:1059300093810F940D5969837A838B839C83C8016B
:105940000F94BC33BE016F5F7F4F8D819E810E949B
:10595000DE2AACCF3F924F925F926F927F928F92EE
:105960009F92AF92BF92CF92DF92EF92FF920F93EE
:105970001F93CF93DF93CDB7DEB76C970FB6F89434
:10598000DEBF0FBECDBFDB010C91142F100F153001
:1059900008F05FC11196DC90C22ECD0CB4E0BC15AE
:1059A00008F457C1ED2DF0E0ED5CFB4FE081F0E035
:1059B000002E02C0F595E7950A94E2F7E0FF49C191
:1059C000EC2DF0E0ED5CFB4FE081F0E0012E02C039
:1059D000F595E7950A94E2F7E0FF3BC1322E642F7C
:1059E0007C0140900107509002076090030770907F
:1059F00004078091090790910A07A0910B07B091C5
:105A00000C07898F9A8FAB8FBC8F660F770B072E91
:105A1000000C880B990B0F94AE584B015C01602F62
:105A2000000F770B880B990B0F94AE58298D3A8D88
:105A30004B8D5C8D0F940D59A30192010F94995FCA
:105A4000A50194010F94995F6D877E878F87988B4E
:105A5000612F110F770B880B990B0F94AE58298D7E
:105A60003A8D4B8D5C8D0F940D59A30192010F94CB
:105A7000995FA50194010F94985F69837A838B8362
:105A80009C83409005075090060760900707709030
:105A9000080780910D0790910E07A0910F07B09114
:105AA0001007898F9A8FAB8FBC8F632D660F770B92
:105AB000072E000C880B990B0F94AE584B015C011C
:105AC0006D2DDD0C770B880B990B0F94AE58298D3B
:105AD0003A8D4B8D5C8D0F940D59A30192010F945B
