:100000000C94BF240C94FF240C94FF240C94FF2424
:100010000C94FF240C94FF240C94FF240C94FF24D4
:100020000C94FF240C94FF240C94FF240C94FF24C4
:100030000C94FF240C94FF240C94FF240C94FF24B4
:100040000C94FF240C9483FB0C94FF240C94FF2449
:100050000C94FF240C9407FA0C94FF240D94475B36
:100060000C94FF240C94CD580C94C3580C94FF248A
:100070000C94FF240C94FF240C94FF240C94FF2474
:100080000C9462450C94FF240C94FF240C94FF24E0
:100090000C94FF240C94FF240C94FF240C94FF2454
:1000A0000C94FF240C94FF240C9434450C94FF24EE
:1000B0000C94FF240C94FF240C94FF240C94FF2434
:1000C0000C94FF240C94FF240C94FF240C94FF2424
:1000D0000C94FF240C94FF240C94FF240C94FF2414
:1000E0000C94FF24084AD73B3BCE016E84BCBFFD75
:1000F000C12F3D6C74319ABD56833DDA3D00C77FF8
:1001000011BED9E4BB4C3E916BAAAABE0000008090
:100110003F05A84CCDB2D44EB93836A9020C50B91F
:10012000918688083CA6AAAA2ABE000000803F004B
:100130000C94DEAE0C9426BB0D94BE550C945CD092
:100140000C946B590C9408980D949B550D948555FF
:100150000C948E990C94CED00C9453AF0C94E34431
:100160000C9450DA0C9489590D9497640C946C9704
:100170000C94A7E60C94B3A30C942DC00C947E5958
:100180000C9498BC0C94F19F0C9468D00C94ACB572
:100190000C94D99F0C945D9A0D94BA550C94CE97FB
:1001A0000C94BE9B0D94CC550C94E4B60D949755CD
:1001B0000C9494E00C9449590C9499940D9479649E
:1001C0000C940B2C0C9442E60D94F9320C9449E8F3
:1001D0000C94FBA00C9432D90C94F1420C9462C79D
:1001E0000C94B89B0C943F9A0C94F39C0C94D3E41D
:1001F0000C94F3420C94EA970C94759B0C94DA9946
:100200000C944D980C94F4E20C9483990C942F9BCD
:100210000C94E0940D949F550C94F79C0D94A65566
:100220000C94B69B0C9413430C940AD10D94D255A4
:100230000C9473590C94A6A20C9462D00C945F4356
:100240000C94EEE00C9480970C94429A0C945B9979
:100250000C9413280C9418C30D94A2330C944BB631
:100260000C9420D00C946F590C94E59F0C94C69B71
:100270000C94A4A30C94AC9B0C944AD00C9404252D
:100280000C9406B50C94C29B0C94399B0C94902B47
:100290000C94C49B0C9431C60C94D4AE0C941543AE
:1002A0000C942CD00C941F980C9456970C94AAA3E1
:1002B0000C94E19F0C94D3420C9449A40C9477596C
:1002C0000C943A590D94A3550C943ED40C94BCC490
:1002D0000C94F29A0C9439430C94ADE50C946A3D5D
:1002E0000D94C4550C9423DA0C94CAE50C9406972B
:1002F0000C94C3D90C94C8440C9401250C94F99F18
:100300000C94F59F0C9459CE0C9414A10C9419459F
:100310000C94B2A00C94A2990C9436980C9404DA24
:100320000C94ED9F0C9451D90C942A9A0C949094AF
:100330000C942E2B0C942E970C94FE970C94BC527C
:100340000C9421A40D94AC550C94C3A30C94BDA3A0
:100350000C94FE440C9437430C9451A10C946759AF
:100360000C9446A10C9480A20C94B79D0C9432B9C5
:100370000C9458590C9496A30C9426B40C94BAA0DF
:100380000C94C7420C9498990D94B6550C940B5943
:100390000C94BA9B0C94B6A30C94CBCB0C9444D085
:1003A0000C943B430C946AA60D94B0550C9463597D
:1003B0000C9438970C945F590C942DA10C94669969
:1003C0000C9477E30C946D940C94C0A30C94B0A39C
:1003D0000C94C4970C94FB9C0C9493990C9440E758
:1003E0000C9422A90C9486A20C945D430C94C1B782
:1003F0000C94B0970C9439BE0C94CFAE0C945BBEA9
:100400000D9480550C94052B0C94BC9B0C94D9AE88
:100410000C943ED00C949C970C94C2E60C94BBA315
:100420000C945F990C947FE70C9432D00C94E8E024
:100430000C9450D00C9443BE0C949D990C9452E7AC
:100440000C9426D00D94F8320C9491A00C94C09B7F
:100450000C94E99F0C94399A0D94D6550C9456D06F
:100460000C94ADA30C9438D00C94C3B10C9417A881
:100470000C9491590C945B430C94CAB20C94A4D97B
:100480000C941A970C9466250C943C9A0D94C855BC
:100490000C94D6AB0C94DC970C94E2A00C94F994D9
:1004A0000C94D59F0C94AFA20C94DD9F0C9429283A
:1004B0000C94A7A30D94CB320C948E970C94A1A30B
:1004C0000C9464980C94FAE00C9476E30C94BAA221
:1004D0000C9424A40C94359D0C944C970C941743C5
:1004E0000C9463E64E414E494E495459494E46CD0F
:1004F000CCCC3D0AD7233C17B7D13877CC2B3295DB
:1005000095E6241FB14F0A000020410000C84200B8
:10051000401C4620BCBE4CCA1B0E5AAEC59D740082
:10052000407A10F35A00A0724E18090010A5D4E8C2
:100530000000E87648170000E40B54020000CA9A55
:100540003B000000E1F505000080969800000040A7
:10055000420F000000A086010000001027000000EC
:1005600000E803000000006400000000000A000032
:100570000000000100000000002C76D888DC674FE6
:100580000823DFC1DFAE59E1B1B796E5E3E453C616
:100590003AE651997696E8E6C28426EB898C9B620E
:1005A000ED407C6FFCEFBC9C9F40F2BAA56FA5F4B8
:1005B00090055A2AF75C936B6CF9676DC11BFCE0E0
:1005C000E40D47FEF520E6B500D0ED902E03009433
:1005D0003577050080841E080000204E0A000000C8
:1005E000C80C333333330F986E12831141EF8D21D2
:1005F00014893BE65516CFFEE6DB18D1844B381B39
:10060000F77C1D901DA4BBE424203284725E2281FD
:1006100000C9F124ECA1E53D27434F4D4D554E490E
:10062000434154494F4E0044525952554E00455291
:10063000524F525300494E464F004543484F0045E4
:1006400072726F722077726974696E6720746F209E
:10065000454550524F4D210A0053544F5050454488
:100660002E20005072696E7465722073746F707002
:1006700065642064756520746F206572726F727393
:100680002E2046697820746865206572726F72202A
:10069000616E6420757365204D39393920746F207F
:1006A000726573746172742E202854656D70657262
:1006B00061747572652069732072657365742E208C
:1006C0005365742069742061667465722072657365
:1006D00074617274696E67290A004E6F2043686501
:1006E000636B73756D2077697468206C696E652023
:1006F0006E756D6265722C204C617374204C696E4E
:10070000653A20004E6F20436865636B73756D20FA
:1007100077697468206C696E65206E756D626572AC
:100720002C204C617374204C696E653A200063681C
:1007300065636B73756D206D69736D617463682C8F
:10074000204C617374204C696E653A20004C696ED0
:1007500065204E756D626572206973206E6F74201E
:100760004C617374204C696E65204E756D626572C4
:100770002B312C204C617374204C696E653A20003B
:100780004D3131300053657269616C20737461744E
:100790007573206D69736D617463680A00776169B0
:1007A000740A0053442072656164206572726F722E
:1007B0000A00486F74656E642049646C6520546952
:1007C0006D656F757400486F74656E642049646C64
:1007D000652054696D656F75740A002121204B49AD
:1007E0004C4C20636175736564206279204B494CE1
:1007F0004C20627574746F6E2F70696E0A0021212F
:10080000204B494C4C2063617573656420627920EC
:10081000746F6F206D75636820696E6163746976AB
:10082000652074696D65202D2063757272656E7424
:1008300020636F6D6D616E643A2000706175736541
:10084000004D363030002066696C616D656E745FF6
:1008500072756E6F7574200066696C616D656E747B
:100860005F72756E6F757420540046696C616D65BA
:100870006E7452756E6F75742054004D65646961B5
:100880002052656D6F766564004D6564696120492D
:100890006E736572746564004D31303030530062A0
:1008A0007573793A2070617573656420666F722084
:1008B000696E7075740A00627573793A207061759B
:1008C00073656420666F7220757365720A006275C5
:1008D00073793A2070726F63657373696E670A008B
:1008E000506C6561736520526573657400505249A0
:1008F0004E5445522048414C5445440025533A201B
:10090000255300706F7765726F6666004B494C4CDB
:1009100045442E20005072696E7465722068616CC7
:100920007465642E206B696C6C28292063616C6C83
:100930006564210A0053544F505045442E20005006
:1009400072696E7465722073746F70706564206470
:10095000756520746F206572726F72732E20466900
:100960007820746865206572726F7220616E6420F1
:10097000757365204D39393920746F207265737431
:100980006172742E202854656D7065726174757281
:10099000652069732072657365742E205365742019
:1009A0006974206166746572207265737461727413
:1009B000696E67290A006563686F3A004572726F55
:1009C000723A0042696C696E656172204C657665A9
:1009D0006C696E6720477269643A0A0021212053CE
:1009E000544F502063616C6C65642062656361756F
:1009F0007365206F6620424C546F75636820657282
:100A0000726F72202D207265737461727420776921
:100A10007468204D3939390A0021212053544F5030
:100A20002063616C6C656420626563617573652029
:100A30006F6620424C546F756368206572726F72E6
:100A4000202D207265737461727420776974682038
:100A50004D3939390A005072696E74696E67204FDA
:100A6000626A656374002553202569002F2F616336
:100A700074696F6E3A0073746172740070726F6D96
:100A800070745F00627574746F6E00626567696E82
:100A900000486F74656E6420746F6F20636F6C64C0
:100AA0000A0053656E64204D31303820746F207217
:100AB0006573756D650A00496E73657274206669A9
:100AC0006C616D656E7420616E642073656E642068
:100AD0004D3130380A0052656865617420446F6E8C
:100AE0006500526568656174696E672E2E2E00522E
:100AF0006568656174004865617465722054696D4C
:100B0000656F75740053656E64204D313038207404
:100B10006F2068656174206E6F7A7A6C650A004E8A
:100B20006F7A7A6C65205061726B656400706175D4
:100B30007365640050617573650047323620436108
:100B40006E63656C65640047323620486561746980
:100B50006E67204E6F7A7A6C6500473236204865A2
:100B60006174696E67204265640057616974696EDB
:100B70006720666F72206865617475702E0A004682
:100B800069786564204C656E677468205072696D81
:100B90006500446F6E65205072696D696E67004D27
:100BA000616E75616C207072696D696E672E2E2E94
:100BB000004C656176696E6720473236003F53709E
:100BC0006563696669656420582C5920636F6F728C
:100BD00064696E617465206F7574206F6620626F42
:100BE000756E64732E0A003F285229657065617422
:100BF0002076616C7565206E6F7420706C61757302
:100C000069626C653B206D75737420626520617448
:100C1000206C6561737420312E0A003F5370656348
:100C20006966696564206E6F7A7A6C652074656D9B
:100C30007065726174757265206E6F7420706C617E
:100C4000757369626C652E0A003F5370656369664F
:100C50006965642066696C616D656E742073697A7C
:100C600065206E6F7420706C61757369626C652E9F
:100C70000A003F5370656369666965642070726934
:100C80006D65206C656E677468206E6F7420706C83
:100C900061757369626C652E0A003F537065636904
:100CA00066696564206E6F7A7A6C652073697A650F
:100CB000206E6F7420706C61757369626C652E0AAA
:100CC000003F52657472616374696F6E204D756C7C
:100CD0007469706C696572206D757374206265202B
:100CE0007370656369666965642E0A003F537065B9
:100CF0006369666965642052657472616374696FC3
:100D00006E204D756C7469706C696572206E6F74BD
:100D100020706C61757369626C652E0A003F5370B8
:100D200065636966696564206C61796572206865D0
:100D300069676874206E6F7420706C617573696286
:100D40006C652E0A0043292E0A003F5370656369C3
:100D500066696564206265642074656D70657261A2
:100D600074757265206E6F7420706C617573696242
:100D70006C65202834302D00473236207374617240
:100D800074696E672E2E2E0A004F46460A00466191
:100D90006465204865696768742000426564204C7A
:100DA0006576656C696E6720004661696C656420D4
:100DB000746F20656E61626C6520426564204C65CD
:100DC00076656C696E670A00496E76616C696420AD
:100DD0006D6573682E0A0050726F62696E672050ED
:100DE0006F696E740025532025692F2569002E0A2E
:100DF000002F0050726F62696E67206D6573682006
:100E0000706F696E742000202844525952554E2943
:100E100000473239204175746F20426564204C656B
:100E200076656C696E67003F20284C2C522C462C4E
:100E30004229206F7574206F6620626F756E64732F
:100E40002E0A003F2856296572626F7365206C6513
:100E500076656C20696D706C61757369626C652074
:100E600028302D34292E0A00426164205A207661F0
:100E70006C75650A004E6F2062696C696E656172FF
:100E800020677269640A00446576696174696F6EEF
:100E90000025533A2025730046696E6973686564BE
:100EA000210A003A207A3A2000206F662000476F1E
:100EB000696E6720746F3A20580043570A00206417
:100EC00069723A0020616E676C653A005374617212
:100ED00074207261646975733A004D343820506F24
:100EE000696E740025533A2025642F256400506FE5
:100EF000736974696F6E696E6720746865207072BB
:100F00006F62652E2E2E0A003F4C656773206F6658
:100F1000206D6F76656D656E7420696D706C61759E
:100F20007369626C652028302D3135292E0A003F07
:100F30002028582C5929206F7574206F6620626F05
:100F4000756E64732E0A0050726F6265206F75743F
:100F5000206F6620626F756E6473003F53616D7021
:100F60006C652073697A65206E6F7420706C617592
:100F70007369626C652028342D3530292E0A004DA6
:100F80003438205A2D50726F626520526570656149
:100F9000746162696C69747920546573740A003FE6
:100FA0002856296572626F7365206C6576656C20C2
:100FB000696D706C61757369626C652028302D34C1
:100FC000292E0A005374616E646172642044657650
:100FD000696174696F6E3A20002052616E67653AEC
:100FE0002000204D61783A2000204D696E3A2000A3
:100FF000205369676D613A20004D65616E3A2000AB
:1010000020440020204D32303020530020284469F5
:101010007361626C6564293A0046696C616D656E46
:10102000742073657474696E67730020204D3230CC
:10103000312058004D617820416363656C657261B1
:1010400074696F6E2028756E6974732F733229006E
:1010500020204D3230332058004D61782066656580
:101060006472617465732028756E6974732F7329B7
:101070000020520020204D32303420500041636364
:10108000656C65726174696F6E2028756E69747322
:101090002F7332292028503C7072696E742D616361
:1010A00063656C3E20523C726574726163742D619D
:1010B0006363656C3E20543C74726176656C2D618F
:1010C0006363656C3E29005741524E494E472120CB
:1010D0004C6F77205A204A65726B206D6179206CC5
:1010E00065616420746F20756E77616E746564202D
:1010F0007061757365732E0A002054002053002020
:10110000204D323035204200416476616E63656463
:101110002028423C6D696E5F7365676D656E745F14
:1011200074696D655F75733E20533C6D696E5F66D3
:10113000656564726174653E20543C6D696E5F74D0
:10114000726176656C5F66656564726174653E2088
:10115000583C6D61785F6A65726B3E20593C6D61E9
:10116000785F6A65726B3E205A3C6D61785F6A6594
:10117000726B3E20453C6D61785F6A65726B3E29FB
:101180000020440020490020204D33303120500001
:10119000486F74656E642050494400204400204923
:1011A0000020204D333034205000426564205049E7
:1011B000440020580020204D61783A200020002073
:1011C000204D696E3A2000203B200020204D323116
:1011D00031205300536F667420656E6473746F70B2
:1011E0007300203B0020550020204D363033204C2A
:1011F0000046696C616D656E74206C6F61642F755B
:101200006E6C6F6164004D323453256C6454256CF0
:1012100064004739322E394525730047314625642D
:101220000047315A25734636303000473158257310
:101230005925734633303030004D313036502569F2
:10124000532569004D313039532569004D32303016
:10125000442573004739322E395A2573004D3432F4
:10126000305325635A25730047323852305859009D
:1012700047315A257346363030004739322E395AB5
:101280002573004739322E394530004D31303953FE
:101290002569004D313930532569004D34323020F5
:1012A0005330205A3000203B200020204D34313371
:1012B000205300506F7765722D6C6F7373207265C9
:1012C000636F76657279003B200020496E76616C11
:1012D0006964206578747275646572200047322FE6
:1012E00047332062616420706172616D657465725C
:1012F000730A00536C6565702E2E2E005A205072B2
:101300006F62652050617374204265640A005A2040
:1013100050726F62652050617374204265640047AB
:1013200032384C3000205A3A200020593A200042EE
:10133000656420583A20004D65736820706F696EAF
:1013400074206F7574206F662072616E67650A0085
:101350004D302053746F70004D312053746F700006
:10136000436C69636B20746F20526573756D652ED5
:101370002E2E004E6F204D6F76652E00456E642038
:1013800066696C65206C6973740A00426567696EF2
:101390002066696C65206C6973740A004E6F206D5D
:1013A000656469610A00526573756D696E672053E3
:1013B0004400286E6F2066696C652900437572725F
:1013C000656E742066696C653A20005072696E74AF
:1013D0002074696D653A20000A53746174733A2071
:1013E00046696C616D656E7420757365643A2000A2
:1013F0002C204C6F6E67657374206A6F623A200010
:10140000546F74616C2074696D653A200053746187
:1014100074733A20002C204661696C65643A2000A0
:101420002C2046696E69736865643A2000507269C1
:101430006E74733A200053746174733A20006F6BBA
:10144000006F6666003A0635062E06270619064422
:10145000454255473A004D31313320530035303045
:10146000205375506552204F46462E002F2F004DB9
:1014700031343520533C696E6465783E206F757455
:10148000206F662072616E67652028302D31290A31
:101490000046523A0020466C6F773A20003A20000E
:1014A00020536572766F2000206F7574206F662060
:1014B00072616E67650A00536572766F2000646919
:1014C0007300656E0043290A0061626C6564202820
:1014D0006D696E2074656D702000436F6C642065CB
:1014E000787472756465732061726520004F46469A
:1014F000004F4E00203B20486F73742068616E647B
:101500006C696E6720006D6D00203B204469737428
:10151000616E6365200046696C616D656E74207252
:10152000756E6F757420004D34323120696E636FB3
:10153000727265637420706172616D65746572208A
:1015400075736167650A004D65736820706F696E19
:1015500074206F7574206F662072616E67650A0073
:101560004F666673657473204170706C69656400C2
:101570004572723A20546F6F206661722100546F79
:101580006F206661722066726F6D2072656665728B
:10159000656E636520706F696E740A004545505230
:1015A0004F4D204F4B0A002E0A002028302D31309D
:1015B00029002076616C7565206F7574206F662038
:1015C00072616E676500416476616E6365204B3DB4
:1015D000004D383400446F6E65207072696E746916
:1015E0006E672066696C650A004D3737004D3331F0
:1015F0000020204D323036205800486F6D65206F36
:101600006666736574004361703A00434F4E464905
:10161000475F4558504F5254004D45415450414347
:101620004B00434F4F4C45525F54454D504552413E
:1016300054555245004348414D4245525F54454D33
:101640005045524154555245004241425953544528
:101650005050494E470041524353004D4F54494F5B
:101660004E5F4D4F44455300544845524D414C5FE9
:1016700050524F54454354494F4E00455854454EDF
:101680004445445F4D323000435553544F4D5F46FF
:1016900049524D574152455F55504C4F4144004CC3
:1016A000464E5F5752495445004C4F4E475F46499E
:1016B0004C454E414D45004155544F5245504F52B7
:1016C000545F53445F5354415455530053445F5740
:1016D00052495445005245504541540053444341FA
:1016E00052440050524F4D50545F535550504F523A
:1016F0005400484F53545F414354494F4E5F434F4A
:101700004D4D414E445300454D455247454E43597A
:101710005F50415253455200434153455F4C494746
:1017200048545F4252494748544E45535300544F22
:1017300047474C455F4C494748545300534F465424
:10174000574152455F504F574552004255494C440E
:101750005F50455243454E54004C4556454C494E0A
:10176000475F44415441005A5F50524F4245005236
:10177000554E4F5554004155544F4C4556454C001D
:101780005052494E545F4A4F420050524F475245C3
:101790005353004155544F5245504F52545F544596
:1017A0004D50004155544F5245504F52545F504F89
:1017B0005300564F4C554D455452494300454550F2
:1017C000524F4D0042494E4152595F46494C455F88
:1017D0005452414E534645520053455249414C5F85
:1017E000584F4E5F584F4646004649524D5741525A
:1017F000455F4E414D453A4D61726C696E20322E07
:10180000302E395F4457372E342E3520544D334413
:101810002035534D44424220284665622032302014
:10182000323032322032303A31373A35362920538D
:101830004F555243455F434F44455F55524C3A68BC
:10184000747470733A2F2F6769746875622E636FB2
:101850006D2F496E73616E6974794175746F6D6136
:1018600074696F6E2F4D61726C696E2F747265654D
:101870002F437265616C6974794477696E5F322EAB
:10188000302050524F544F434F4C5F5645525349AE
:101890004F4E3A312E30204D414348494E455F541A
:1018A0005950453A353030205375506552204558CF
:1018B0005452554445525F434F554E543A3120558A
:1018C0005549443A63656465326132662D3431614D
:1018D000322D343734382D396231322D633535634A
:1018E00036326633363766660A0050726F6265209C
:1018F0004F6666736574205A0050726F6265204FA0
:101900006666736574205A00290A0020746F2000EF
:101910003F5A206F7574206F662072616E67652074
:101920002800290A0020746F20003F59206F757429
:10193000206F662072616E676520282D00290A00DD
:1019400020746F20003F58206F7574206F662072DE
:10195000616E676520282D00203B0020204D383522
:10196000312058005A2D50726F6265204F666673A1
:1019700065740043616E6E6F74206F70656E2073C6
:10198000756264697220002569730025696D2025E0
:101990006973002569682025696D20256973002514
:1019A0006964202569682025696D202569730025F3
:1019B000697920256964202569682025696D2025BD
:1019C000697300436F6F6C696E672E2E2E00486539
:1019D0006174696E672E2E2E00453120255300421A
:1019E000656420436F6F6C696E672E2E2E00426512
:1019F000642048656174696E672E2E2E002364652D
:101A000066696E652044454641554C545F006265E9
:101A100064004B6420004B6920004B70200050494B
:101A200044204175746F74756E652066696E6973C4
:101A3000686564212050757420746865206C61733A
:101A400074204B702C204B6920616E64204B642005
:101A5000636F6E7374616E74732066726F6D206253
:101A6000656C6F7720696E746F20436F6E6669676F
:101A700075726174696F6E2E680A00504944204186
:101A800075746F74756E65206661696C656421207C
:101A900074696D656F75740A00504944204175740E
:101AA0006F74756E65206661696C6564212054658C
:101AB0006D706572617475726520746F6F206869EE
:101AC00067680A00504944204379636C65730025B8
:101AD000532025692F256900204B643A2000204BB4
:101AE000693A2000204B703A200020436C617373E8
:101AF000696320504944200A00204E6F206F7665AC
:101B00007273686F6F740A002054753A2000204B7E
:101B1000753A2000206D61783A2000206D696E3A98
:101B2000200020643A200020626961733A20005747
:101B300061697420666F7220686561742075702E0B
:101B40002E2E00504944204175746F74756E6520C7
:101B500073746172740A00504944204175746F7443
:101B6000756E65206661696C6564212054656D70D1
:101B70006572617475726520746F6F20686967683B
:101B80000A00504944204175746F74756E650050A9
:101B90004944204175746F74756E65206661696C87
:101BA0006564212042616420686561746572206902
:101BB000640A004572723A207574663820666F6E4A
:101BC00074206E6F7420696E697469616C697A65DE
:101BD000642E004572723A207574663820666F6E06
:101BE00074206E6F7420696E697469616C697A65BE
:101BF000642E004572723A207574663820666F6EE6
:101C000074206E6F7420696E697469616C697A659D
:101C1000642E002568753A2530326875002530320B
:101C200068753A2530326875002530326875272589
:101C30003032687500256875642025303268753A41
:101C4000253032687500000C0F00FE07022503BB2B
:101C5000017FFE08FE08FE05080806000040F0C8E7
:101C60008888987810050808060000C0F8888888D9
:101C70008888F80505050600012030F830200508A1
:101C8000080600002070F820202020E00509090641
:101C900000FF2070A8A8B8888870200705050700F5
:101CA00001D86C366CD80509090600FFF8A88888A9
:101CB000888888A8F8050A0A0600FE20505050506F
:101CC00088A8A8887003030306000340A040FFFF14
:101CD000FFFFFFFFFFFFFFFFFFFFFFFFFFFFFFFF14
:101CE000FFFFFFFF0000000605FF010707060200D7
:101CF00080808080800080030303060105A0A0A0EF
:101D000005060606000050F85050F850050909066F
:101D100000FF2070A8A07028A87020050707060003
:101D200000C8C8102040989805070706000040A08A
:101D3000A040A89068010303060205808080030983
:101D4000090601FF204040808080404020030909AF
:101D50000601FF8040402020204040800507070604
:101D6000000020A8702070A82005050506000120AD
:101D700020F820200203030601FFC0408005010176
:101D8000060003F8020202060100C0C005070706AC
:101D90000000081010204040800507070600007072
:101DA0008898A8C8887003070706010040C0404013
:101DB0004040E0050707060000708808102040F842
:101DC000050707060000F8081030088870050707A7
:101DD00006000010305090F81010050707060000AC
:101DE000F880F0080888700507070600003040807A
:101DF000F0888870050707060000F80810102020FA
:101E0000200507070600007088887088887005071D
:101E10000706000070888878081060020505060132
:101E200000C0C000C0C00206060601FFC0C000C05E
:101E30004080030505060101204080402005030382
:101E4000060002F800F80305050601018040204065
:101E50008005070706000070881020200020050775
:101E6000070600007088B8A8B8807005070706004C
:101E700000708888F8888888050707060000F04801
:101E800048704848F0050707060000708880808089
:101E90008870050707060000F04848484848F005E4
:101EA0000707060000F88080F08080F80507070625
:101EB0000000F88080F08080800507070600007031
:101EC000888080988870050707060000888888F851
:101ED000888888030707060100E04040404040E052
:101EE000050707060000381010101090600507075E
:101EF0000600008890A0C0A0908805070706000093
:101F0000808080808080F805070706000088D8A8B8
:101F1000888888880507070600008888C8A89888E8
:101F2000880507070600007088888888887005077C
:101F300007060000F08888F080808005070706000B
:101F40000070888888A89068050707060000F08858
:101F500088F0A09088050707060000708880700848
:101F60008870050707060000F820202020202005A3
:101F70000707060000888888888888700507070694
:101F800000008888888850502005070706000088D0
:101F9000888888A8A8500507070600008888502070
:101FA00050888805070706000088885020202020D8
:101FB000050707060000F80810204080F80309090B
:101FC0000601FFE080808080808080E005070706B2
:101FD0000000804040201010080309090601FFE0BE
:101FE00020202020202020E00503030600052050AB
:101FF000880501010600FEF8030303060105804081
:102000002005050506000070087888780507070692
:1020100000008080F0888888F005050506000070C3
:10202000808088700507070600000808788888887F
:10203000780505050600007088F080700507070622
:102040000000304840E04040400507070600FE70B1
:102050008888887808700507070600008080F08867
:102060008888880307070601004000C0404040E020
:102070000409090601FE10003010101010906005D0
:10208000070706000080808890E090880307070615
:102090000100C04040404040E0050505060000D07A
:1020A000A8A8A8A8050505060000B0C88888880566
:1020B000050506000070888888700507070600FE81
:1020C000F0888888F080800507070600FE788888F9
:1020D00088780808050505060000B0C880808005DE
:1020E000050506000078807008F005070706000067
:1020F0002020F82020201805050506000088888883
:1021000098680505050600008888885020050505A3
:102110000600008888A8A85005050506000088501C
:102120002050880507070600FE88888850204080D8
:10213000050505060000F8102040F803090906010E
:10214000FF2040404080404040200109090602FF36
:102150008080808080808080800309090601FF8064
:10216000404040204040408005030306000248A84C
:1021700090FF554E4C4F41442046494C414D454EF1
:1021800054004C4F41442046494C414D454E54006B
:1021900046494C414D454E54204348414E47450029
:1021A00042656400456E636C6F7375726500202034
:1021B0002020202020002020202000657272001F97
:1021C000E0201020102010102010202010201030AF
:1021D000300840048003001FE03FF03FF03FF01F55
:1021E000E01FE03FF03FF03FF00FC0078003003FEB
:1021F000FFF038007030FC3020FC102078102030C8
:10220000102C00D02E31D02F7BD02F7BD02E31D070
:102210002C00D020301020781020FC1030FC3038FA
:1022200000703FFFF03FFFF03800703186302387A9
:10223000102787902F87D02F03D0203010207810C0
:102240002078102030102F03D02F87D0278790239D
:1022500087103186303800703FFFF01FFFF81FFFF6
:10226000F8041040020820020820041040082080D2
:102270001041001041000820800410400000001FA1
:10228000FFF81FFFF8FFFFFF8000018E00E19F01B4
:10229000F19381399F81F99F81F99FB9F98F28F1D5
:1022A0008038018000019FFFF99174999B06A99BDA
:1022B00054A99B56A99B54999FFFF9FFFFFF6E6F8E
:1022C00074696669636174696F6E200063616E632F
:1022D000656C005072696E742041626F727465643F
:1022E0000055492041626F72746564004D3235209B
:1022F000500A4D323400526573756D6500554920A2
:1023000050617573650050617573696E672E2E2E6E
:1023100000726573756D65004D32340000FE000378
:10232000FF8007C7C00701E00000E00000F00000E8
:10233000700400700E00701F00703F80F00E00E00F
:102340000F01E007C7C003FF8000FE0000FE00038E
:10235000FF8007C7C00F01E00E00E03F80F01F00C4
:10236000700E00700400700000700000F00000E0CB
:102370000701E007C7C003FF8000FE000E000E004B
:102380000E000E000E000E000E000E007FC03F80FB
:102390001F000E00040004000E001F003F807FC0DD
:1023A0000E000E000E000E000E000E000E000E00BD
:1023B000FFFFFF7F80FFC0FFC0FFC07F807F80FFE7
:1023C000C0FFC0FFC03F001E000C0050726F62656E
:1023D000205A204F66667365740052756E6F75746F
:1023E0002044697374206D6D004C6F6164206D6DC5
:1023F00000556E6C6F6164206D6D0046696C2E2017
:102400004469612E004520696E206D6D5E33004188
:102410006476616E6365204B004D33303320553157
:102420002045256920532569005049442041757491
:102430006F74756E65202A005049442D44202A008F
:102440005049442D49202A005049442D50202A004B
:1024500020082046616374002008204D6178002028
:1024600008204D696E004F6666004F6E004175741E
:102470006F74656D70004D696E2054726176656C85
:102480002056656C004D696E2056656C6F636974EB
:1024900079004D617820452056656C004D617820AB
:1024A0005A2056656C004D617820592056656C00A5
:1024B0004D617820582056656C004D61782045208C
:1024C000416363656C004D6178205A204163636508
:1024D0006C004D6178205920416363656C004D614B
:1024E00078205820416363656C0054726176656C96
:1024F00020416363656C00526574726163742041AE
:102500006363656C00416363656C004D61782045D1
:10251000204A65726B004D6178205A204A65726BC3
:10252000004D61782059204A65726B004D6178201A
:1025300058204A65726B0050726F6265205A204FB6
:1025400066667365740050726F62652059204F662D
:10255000667365740050726F62652058204F66661E
:1025600073657400452073746570732F6D6D005A28
:102570002053746570732F6D6D005920537465700E
:10258000732F6D6D00582053746570732F6D6D003F
:10259000416476616E6365642053657474696E6727
:1025A00073003F0043616E63656C00496E6974009F
:1025B0004D34323800496E697469616C697A6520FE
:1025C000454550524F4D0046696C616D656E740013
:1025D00054656D70657261747572650053746570D1
:1025E000732F6D6D0050726F6265204F6666736564
:1025F0007473004A65726B00416363656C65726158
:1026000074696F6E0056656C6F6369747900536509
:102610007420486F6D65204F666673657473004360
:102620006F6E66696775726174696F6E003F004E08
:1026300065787420506F696E7400446F6E65004E4B
:1026400065787400486F6D696E672058595A003F6D
:102650000043616E63656C204F626A656374004E6F
:102660004F005945530043616E63656C204F626AA9
:10267000656374203D004D61696E0048696768209C
:1026800053706565640053572D4D6F646500537436
:102690006F77004465706C6F790053656C662D54DC
:1026A00065737400526573657400426564004E6F13
:1026B0007A7A6C650046616E2053706565640043EC
:1026C0006F6E66696775726174696F6E00526573CB
:1026D000746F72652044656661756C7473004C6F2D
:1026E00061642053657474696E67730053746F720C
:1026F000652053657474696E677300507265686510
:102700006174202420436F6E6600506F77657220DD
:102710004F7574616765004F6666004F6E005275B5
:102720006E6F75742053656E736F7200424C546FF8
:102730007563680050726F6265205A204F66667339
:10274000657400416476616E6365642053657474DA
:10275000696E6773004D61696E004D3730322054E9
:102760002564004D36303020423020542564004D21
:10277000373032203B2564004D37303120542564FA
:10278000004D373032004D373031004D363030207B
:102790004230004D61696E00436F6E74696E7565FD
:1027A000004F6666004F6E0052756E6F7574205351
:1027B000656E736F72005075726765206D6F72651C
:1027C00000524553554D45204F5054494F4E533AB2
:1027D000005052494E54205041555345440020204A
:1027E0004E6F7A7A6C653A20005061726B696E6741
:1027F0002E2E2E0000005761697420666F720066ED
:10280000696C616D656E74206368616E67650074E4
:102810006F207374617274005761697420666F72FF
:102820000066696C616D656E7420756E6C6F6164B5
:1028300000004E6F7A7A6C652068656174696E6716
:1028400000506C6561736520776169742E2E2E00CF
:1028500000507265737320627574746F6E00746FCC
:102860002068656174206E6F7A7A6C650000496E2D
:10287000736572742066696C616D656E7400616E5B
:102880006420707265737320627574746F6E007467
:102890006F20636F6E74696E75650057616974208F
:1028A000666F720066696C616D656E74206C6F6135
:1028B000640000507265737320427574746F6E000B
:1028C000746F20726573756D65207072696E740027
:1028D000005761697420666F72207072696E7400AF
:1028E000746F20726573756D652E2E2E0000576112
:1028F000697420666F720066696C616D656E742024
:10290000707572676500003E2000256C642E256995
:102910006D00457874727564656420546F74616CE1
:10292000003E20004C6F6E67657374204A6F622012
:1029300054696D65003E20005072696E74205469C0
:102940006D6500436F6D706C65746564003A2000BE
:102950005072696E7420436F756E74003A200031B6
:1029600035300035004245443A204154432031304F
:102970003447542D320052756E617761792057616A
:102980007463683A204F4E004D61782054656D7035
:1029900000343530004D696E2054656D700035008F
:1029A00045313A20536C696365456E672034353094
:1029B000C2B043005053550047656E6572696300AD
:1029C00050726F746F636F6C00312E30004261750E
:1029D000640032353030303000437265616C6974A8
:1029E0007933442052414D50530042696C696E6501
:1029F0006172204C6576656C696E6700457874720B
:102A0000756465727300310074696E796D61636815
:102A1000696E657333642E636F6D003530302053FB
:102A20007550655200323032322D30322D30350043
:102A3000322E302E395F4457372E342E35004D61FB
:102A4000726C696E005072696E74657220537461A5
:102A5000747300546865726D6973746F72730042A9
:102A60006F61726420496E666F005072696E7465A2
:102A70007220496E666F004D61696E004D313030D5
:102A8000300053746F70205072696E740052657319
:102A9000756D65205072696E7400506F7765722095
:102AA0004F7574616765004D3139305335350A47CC
:102AB00032380A4732390A4D3430300A4D31303419
:102AC000533231350A4732380A4D313039533231B9
:102AD000350A4D34323053310A473158313030598C
:102AE00031303046353030300A47315A300A4D35B2
:102AF00030300A4D31313720536574205A204F66EB
:102B000066736574004D313036533132380A4D33B7
:102B100030334338533231354530550A4D35303036
:102B20000A4D313137205049442054756E65204498
:102B30006F6E65004D3139305335350A4D313034C3
:102B4000533231350A4732380A4732394C310A4755
:102B50003120583130305931303046353030300A3C
:102B600047315A30004D3530300A4D31313720531E
:102B7000657474696E67732053746F726564005373
:102B8000746F72652053657474696E677300507258
:102B9000657020666F72205A2041646A75737400F4
:102BA0005049442054756E65005365747570004D2E
:102BB00061696E003F004261636B0053746F700087
:102BC0004E6F204D65646961005072696E742066B5
:102BD000726F6D204D65646961004368616E676561
:102BE000204D65646961004D32310041626F75743A
:102BF000205072696E746572004368616E6765206B
:102C000046696C616D656E74004C6576656C696EC5
:102C10006720546F6F6C7300436F6E6669677572DF
:102C20006174696F6E0054656D7065726174757260
:102C300065004D6F74696F6E005374617274204843
:102C40006F7374205072696E7400526573756D6590
:102C5000205072696E740043616E63656C204F6230
:102C60006A6563740054756E650053746F7020500C
:102C700072696E74005061757365205072696E746C
:102C800000496E666F2053637265656E003F0053A6
:102C900074617274205072696E740043616E636572
:102CA0006C005072696E740043616E6E6F742065C3
:102CB0006E746572207375626469723A2000022036
:102CC0002E2E004D61696E002100486F74656E64A0
:102CD00020746F6F20636F6C64004261636B0050FF
:102CE000726F6365656400536F667420456E64732C
:102CF000746F7073004D6F74696F6E004469736117
:102D0000626C65205374657070657273004D383461
:102D1000004D34382050726F626520546573740022
:102D20004732384F0A4D3438205031300042656404
:102D3000205472616D6D696E67004661646520485C
:102D40006569676874004F6666004F6E004265648F
:102D5000204C6576656C696E67004C6576656C2005
:102D6000426564004732394E004732385A004732D4
:102D7000385900486F6D652040004732385800418F
:102D800075746F20486F6D6500473238004D61697A
:102D90006E0050726568656174202420426564008D
:102DA00050726568656174202420456E6400546526
:102DB0006D706572617475726500436F6F6C646FDE
:102DC000776E005072656865617420240046616EFC
:102DD00020537065656400426564004E6F7A7A6CBA
:102DE00065004D61696E0050726F6265205A204F18
:102DF000666673657400416476616E6365204B009E
:102E0000466C6F770046616E2053706565640042C2
:102E10006564004E6F7A7A6C650053706565640076
:102E20004D61696E00486F6D696E67204661696C1F
:102E30006564006F70656E005452494747455245BE
:102E400044003A200066696C616D656E74007A5FBB
:102E50006D696E00795F6D696E00785F6D696E00F7
:102E60005265706F7274696E6720656E6473746FFB
:102E700070207374617475730A0020746F6F206C16
:102E80006F6E6720657874727573696F6E207072EB
:102E90006576656E7465640A0020636F6C642065F6
:102EA0007874727573696F6E2070726576656E7472
:102EB00065640A00486F6D652025732573257320AE
:102EC0004669727374005761726E696E673A204882
:102ED0006F6D696E672042756D7020446976697305
:102EE0006F72203C20310A00020204000000000042
:102EF000000000000000000000FF430000FA430053
:102F000000FA43000000410000004100000040FFC3
:102F1000FFFF000000010000000100008000555587
:102F200055000000400033333300AAAA2A0049921A
:102F3000240000002000C7711C0099991900D14598
:102F40001700555515003BB113002449120011110B
:102F50001100000010000F0F0F00E3380E0043793E
:102F60000D00CCCC0C00C3300C00E8A20B00642197
:102F70000B00AAAA0A00703D0A009DD80900427BF6
:102F8000090092240900DCD3080088880800104258
:102F9000080000000800F0C107008787070075508F
:102FA0000700711C07003EEB0600A1BC06006990FB
:102FB000060066660600703E06006118060017F4FB
:102FC000050074D105005BB00500B2900500627287
:102FD00005005555050078390500B81E05000505A2
:102FE00005004EEC040087D40400A1BD040090A7A6
:102FF000040049920400C17D0400EE690400C75634
:103000000400444404005C32040008210400411020
:103010000400000004003FF00300F8E0030026D2A3
:103020000300C3C30300CCB503003AA803000A9B06
:103030000300388E0300C08103009F750300D06930
:103040000300505E03001D53030034480300913D0C
:1030500003003333030016290300381F03009715BC
:103060000300300C0300030303000BFA020049F1D4
:103070000200BAE802005CE002002DD802002DD068
:10308000020059C80200B0C0020031B90200DAB132
:103090000200AAAA0200A0A30200BC9C0200FA95AA
:1030A00002005C8F0200DF88020082820200457C01
:1030B00002002776020027700200436A02007C6447
:1030C0000200D05E02003F590200C8530200FFFD1B
:1030D000FCFAF8F6F4F2F0EEECEAE9E7E5E3E1E019
:1030E000DEDCDAD9D7D5D4D2D0CFCDCBCAC8C7C5CC
:1030F000C3C2C0BFBDBCBAB9B7B6B4B3B2B0AFAD4E
:10310000ACAAA9A8A6A5A4A2A1A09E9D9C9A9998A4
:103110009795949392908F8E8D8B8A8988878684D9
:10312000838281807F7E7D7B7A79787776757473F0
:103130007271706F6E6D6C6B6A69686766656463E7
:103140006261605F5E5D5C5B5A59585857565554D2
:1031500053525150504F4E4D4C4B4A4A49484746A6
:1031600046454443424241403F3E3E3D3C3B3B3A64
:1031700039383837363535343332323130302F2E16
:103180002E2D2C2B2B2A29292827272625252423B9
:103190002322212120201F1E1E1D1C1C1B1B1A194F
:1031A00019181817161615151413131212111110D9
:1031B0000F0F0E0E0D0D0C0C0B0A0A09090808075B
:1031C00007060605050404030302020100000000CF
:1031D000FF430000FA430000FA4300000000000033
:1031E00000000000000053657474696E677320531B
:1031F000746F72656400290A002062797465733BFC
:1032000020637263200053657474696E6773205382
:10321000746F726564202800454550524F4D204917
:103220006E697469616C697A65640A0048617264E8
:10323000636F6465642044656661756C74205365D2
:103240007474696E6773204C6F616465640A002052
:10325000286D6D2900203B204C6576656C696E6792
:10326000200020204D3432302053004175746F20EF
:10327000426564204C6576656C696E670020460087
:1032800020480020204D3134352053004D617465B5
:103290007269616C2068656174757020706172611B
:1032A0006D65746572730020204D393030204B00FD
:1032B0004C696E65617220416476616E63650020C1
:1032C0003B2053656E736F72200020440020204D18
:1032D00034313220530046696C616D656E74207222
:1032E000756E6F75742073656E736F7200204A007F
:1032F0002020473239205720490020204D313439D1
:103300002043203B20556E69747320696E2043650D
:103310006C736975730A0054656D706572617475BC
:10332000726520556E697473002020473231203B4E
:10333000004C696E65617220556E69747300454575
:1033400050524F4D206461746173697A65206572D3
:10335000726F722E0A00290A002062797465733B2D
:103360002063726320002073746F7265642073653C
:103370007474696E677320726574726965766564CA
:10338000202800202863616C63756C617465642972
:10339000210A0020213D2000454550524F4D204339
:1033A0005243206D69736D61746368202D2028730A
:1033B000746F7265642920002053697A653A200091
:1033C000496E6465783A20000000FA430000C84363
:1033D00000007041000096420000A0420000A042A0
:1033E0000000C8430080CF43E8030000BC02000097
:1033F000640000004B000000204D61726C696E3D5E
:10340000563836290A00454550524F4D2076657290
:1034100073696F6E206D69736D61746368202845F0
:103420004550524F4D3D0024F4D43050C38E20C23D
:10343000A24017828B7011127A910D816CD90AA863
:1034400061E108C7586607615143061E4B5D05C11F
:1034500045A7041A411104093D980371393103400D
:1034600036DB0265339102D4305402802E1D026394
:103470002CEE01752AC501B028A001102781018F0B
:103480002564012B244B01E0223401AC211F018D66
:10349000200D01801FFC00841EED00971DDF00B889
:1034A0001CD200E61BC600201BBC00641AB200B28E
:1034B00019A8000A19A0006A189900D117910040B4
:1034C000178B00B516840031167E00B31579003ACB
:1034D000157300C7146F0058146A00EE1366008855
:1034E00013630025135E00C7125B006C12570015B2
:1034F000125400C111510070114F0021114B00D620
:103500001049008D1047004610440002104200C0D0
:103510000F4000800F3E00420F3C00060F3B00CBE7
:103520000E3800930E37005C0E3500270E3400F382
:103530000D3200C10D3100900D3000600D2E0032B3
:103540000D2D00050D2C00D90C2B00AE0C2900858B
:103550000C29005C0C2700350C27000E0C2600E817
:103560000B2400C40B2400A00B23007D0B23005A66
:103570000B2100390B2100180B2000F80A1F00D97D
:103580000A1E00BB0A1E009D0A1D00800A1D006362
:103590000A1C00470A1B002C0A1B00110A1A00F71C
:1035A000091A00DD091900C4091900AB09190092B4
:1035B0000917007B091800630917004C091600362B
:1035C000091600200916000A091500F5081500E083
:1035D000081400CC081400B8081400A408140090C3
:1035E0000813007D0812006B0813005808120046EB
:1035F00008120034081100230811001208110001FC
:10360000081100F0071000E0071000D0071000C0FC
:10361000071000B0070F00A107100091070E0083EC
:10362000070F0074070F0065070E0057070E0049CB
:10363000070E003B070D002E070E0020070D00139C
:10364000070D0006070D00F9060C00ED060D00E061
:10365000060C00D4060C00C8060C00BC060C00B01A
:10366000060C00A4060B0099060C008D060B0082C8
:10367000060B0077060B006C060B0061060A00576C
:10368000060B004C060A0042060A0038060A002E05
:10369000060A0024060A001A060A00100609000796
:1036A000060A00FD050900F4050900EB050900E222
:1036B000050900D9050900D0050900C7050900BEA4
:1036C000050900B5050800AD050800A50509009C21
:1036D000050800940508008C050800840508007C96
:1036E000050800740508006C050700650508005D05
:1036F000050700560508004E05070047050700406E
:1037000005080038050700310507002A05070023D2
:103710000507001C050600160507000F0507000831
:1037200005060002050700FB040600F5040700EE8D
:10373000040600E8040600E2040700DB040600D5E6
:10374000040600CF040600C9040600C3040600BD39
:10375000040600B7040600B1040500AC040600A688
:10376000040600A00405009B0406009504050090D3
:103770000406008A04050085040500800406007A1A
:1037800004050075040500700405006B040500665F
:10379000040500610405005C04050057040500529F
:1037A0000405004D04050048040500430405003EDF
:1037B0000404003A04050035040500300404002C1C
:1037C00004050027040400230405001E0404001A55
:1037D00004040016040500110404000D040400098B
:1037E0000405000404040000040400FC030400F8C1
:1037F000030400F4030400F0030400EC030400E8F5
:10380000030400E4030400E0030400DC030400D824
:10381000030400D4030400D0030400CC030400C854
:10382000030300C503030024F404D9201BC40C5C6B
:103830000E9804C4095F0265077101F405F900FBE5
:1038400004B30048048700C103690058035500030E
:10385000034500BE023A008402310053022A0029C7
:1038600002250004022000E4011C00C8011900AF79
:103870000117009801140084011300710110006108
:1038800001100051010E0043010D0036010B002B09
:10389000010B0020010B00150109000C01090003B8
:1038A000010800FB000800F3000800EB000700E43B
:1038B000000600DE000600D8000600D2000600CC9C
:1038C000000500C7000500C2000500BD000400B9E6
:1038D000000400B5000400B1000400AD000400A91C
:1038E000000400A5000300A20003009F0004009B49
:1038F000000300980003009500020093000300906D
:103900000003008D0002008B000300880002008687
:1039100000020084000300810002007F0002007D9D
:103920000002007B000200790002007700010076AF
:103930000002007400020072000100710002006FBA
:103940000002006D0001006C0002006A00010069C5
:1039500000020067000100660001006500010064CC
:103960000002006200010061000100600001005FD0
:103970000002005D0001005C0001005B0001005AD4
:1039800000010059000100580001005700010056D5
:1039900000010055000100540001005300000053D5
:1039A0000001005200010051000100500001004FD1
:1039B0000001004E0000004E0001004D0001004CCF
:1039C0000001004B0000004B0001004A00010049CB
:1039D00000010048000000480001004700010046C7
:1039E00000000046000100450000004500010044C1
:1039F00000010043000000430001004200000042BB
:103A00000001004100000041000100400001003FB2
:103A10000000003F0001003E0000003E0001003DAC
:103A20000000003D0001003C0000003C0000003CA4
:103A30000001003B0000003B0001003A0000003A9A
:103A40000001003900000039000100380000003892
:103A50000000003800010037000000370001003688
:103A6000000000360000003600010035000000357F
:103A70000000003500010034000000340000003474
:103A80000001003300000033000000330001003269
:103A9000000000320000003200010031000000315F
:103AA0000000003100010030000000300000003054
:103AB0000001002F0000002F0000002F0000002F49
:103AC0000001002E0000002E0000002E0001002D3D
:103AD0000000002D0000002D0000002D0001002C32
:103AE0000000002C0000002C0000002C0001002B26
:103AF0000000002B0000002B0000002B0001002A1A
:103B00000000002A0000002A0000002A000100290D
:103B10000000002900000029000000290000002901
:103B200000010028000000280000002800000028F4
:103B300000000028000100270000002700000027E7
:103B400000000027000000270001002600000026DA
:103B500000000026000000260000002600010025CD
:103B600000000025000000250000002500000025C1
:103B700000000025000100240000002400000024B3
:103B800000000024000000240001002300000023A6
:103B90000000002300000023000000230000002399
:103BA000000000230001002200000022000000228B
:103BB000000000220000002200000022000100217D
:103BC0000000002100000021000000210000002171
:103BD0000000002100000021000100200000002062
:103BE0000000002000000020000000200000002055
:103BF00000000020000000200001001F0000001F46
:103C00000000001F0000001F0000001F0000001F38
:103C10000000001F0001001E0000001E0000001E2A
:103C20000000001E000000232C0000B822000056F7
:103C30001800003A0F0000B8080000B1040000713D
:103C40000200003E01000020436F756E7420583A58
:103C500000426564004531004500626564002C2027
:103C600073797374656D2073746F7070656421204F
:103C70004865617465725F49443A20004865617423
:103C8000696E67204661696C6564004865617469A6
:103C90006E67206661696C6564004D313132205376
:103CA000687574646F776E001000C90210012C01F2
:103CB0004001220170011801B0010E01F001040160
:103CC0005002FA00B002F0003003E600D003DC003E
:103CD0009004D2007005C800A006BE000008B40021
:103CE000B009AA00D00BA000600E960060118C00F5
:103CF0000015820020197800C01D6E00A02264000B
:103D0000B0275A00902C500000314600E0343C00AF
:103D100010383200903A2800603C1E00A03D14008C
:103D2000803E0A00203F00004572723A204D415803
:103D300054454D50004D415854454D5020747269C2
:103D4000676765726564004572723A204D494E544A
:103D5000454D50004D494E54454D50207472696791
:103D6000676572656400544845524D414C20525578
:103D70004E4157415900546865726D616C2052750F
:103D80006E6177617900202F002042403A00204088
:103D90003A0020573A0020573A00496E76616C6924
:103DA000642065787472756465720A007C3C3E5EBE
:103DB0002B3D3F2F5B5D3B2C2A225C0043616E6EE6
:103DC0006F74206F70656E20737562646972200075
:103DD0004D6564696120496E6974204661696C00B3
:103DE00053442063617264206F6B0A006F70656ECC
:103DF000526F6F74206661696C65640A00766F6C3F
:103E0000756D652E696E6974206661696C65640AFA
:103E1000004E6F20534420636172640A000A4D32E1
:103E200034004D3233202573002E0A006F70656E0A
:103E3000206661696C65642C2046696C653A2000D7
:103E400046696C652073656C65637465640A00205F
:103E500053697A653A200046696C65206F70656E1B
:103E600065643A2000454E4420535542524F555404
:103E7000494E450A002220706F7300222070617243
:103E8000656E743A2200535542524F5554494E457F
:103E90002043414C4C207461726765743A22005390
:103EA000756263616C6C204F766572666C6F77002B
:103EB0004578636565646564206D6178205355427B
:103EC000524F5554494E452064657074683A002E2F
:103ED0000A0044656C6574696F6E206661696C6583
:103EE000642C2046696C653A200046696C65206444
:103EF000656C657465643A005344207072696E7431
:103F0000696E67206279746520004E6F7420534497
:103F1000207072696E74696E670A004142530050E6
:103F20004C41002F6175746F25632E6700577269CD
:103F300074696E6720746F2066696C653A2000664C
:103F40007265736800646F696E67002066696C65EE
:103F50003A20004E6F7720000000000000000000B3
:103F60000000000000000000000000000000000051
:103F70000000000000000000000000000000000041
:103F80000000000000000000000000000000000031
:103F90000000000000000000000000000000000021
:103FA0000000000000000000000000000000000011
:103FB0000000000000000000000000000000000001
:103FC00000000000000000000000000000000000F1
:103FD00000000000000000000000000000000000E1
:103FE00000000000000000000000000000000000D1
:103FF00000000000000000000000000000000000C1
:1040000000000000000000000000000000000000B0
:1040100000000000000000000003FFF000000000AE
:104020000000000000000000001FFFE00000000092
:104030000000000000000000003FC07C0000000005
:104040000000000000000000007C0FFF8000000066
:10405000000000000000000000F87FFFE00000000A
:10406000000000000000000001F0FFFF78000000E9
:10407000000000000000000001E1FFFFBC001FFF86
:1040800083FFE1F00E3FFF0001E3FFFFEE001FFFA3
:10409000C7FFF1F80E3FFFC001C3FF8FF7001E03FB
:1040A000CF0071FC0E3C03E001C3FE01FB801E0348
:1040B000CE0079DE0E3C01E001C7FC007DC01FFF91
:1040C0008E0079CF0E3C01E001C7FC003EE01FFFEF
:1040D000CE0079C7CE3C01E001E7FC001F701E0155
:1040E000CE0079C1EE3C01E001E7FC000FB81E01F3
:1040F000CF0079C0FE3C01E000E3FC0007F81FFFA1
:10410000C7FFF1C07E3FFFC000F3FC0007DC1FFFCC
:1041100087FFE1C03E3FFF800073FE0003EC0FF815
:1041200000FF00000C1FF0000071FE0003EE000015
:1041300000000000000000000039FF0003F600004E
:1041400000000000000000000618FF8003F70000D8
:104150000000000000000000071CFFC003F71FFF65
:10416000DFFF1FFE1C01C000030E7FE007F31FFFEF
:10417000DFFF3FFF1C01C00001863FF807FB007016
:104180001C0038079C01C00001C33FFFFFFB00700B
:104190001C0038039C01C00000F39FFFFFFB007070
:1041A0001FFF38001FFFC00000798FFFFFF78070EE
:1041B0001FFF38001FFFC000007CC7FFFFF78070A3
:1041C0001C0038079C01C000003F01FFFFED80701C
:1041D0001C0038079C01C000001FE0FFFFED80704D
:1041E0001FFF3FFF1C01C000001FF03FFFCD00700C
:1041F0001FFF1FFE1C01C000000FFC0FFF1D000071
:1042000000000000000000000007FE01FC1B000091
:1042100000000000000000000003FF80003B0000E1
:1042200000000000000000000001FFF000FB0000A3
:1042300000000000000000000000FFFFFFF0000091
:10424000000000000000000000003FFFFFE0000051
:10425000000000000000000000001FFFFFC0000081
:104260000000000000000000000007FFFF800000C9
:104270000000000000000000000001FFFF0000003F
:1042800000000000000000000000003FF8000000F7
:10429000000000000000000000000000000000001E
:1042A000000000000000000000000000000000000E
:1042B00000000000000000000000000000000000FE
:1042C00000000000000000000000000000000000EE
:1042D00000000000000000000000000000000000DE
:1042E00000000000000000000000000000000000CE
:1042F00000000000000000000000000000000000BE
:1043000000000000000000000000000000000000AD
:10431000000000000000000000000000000000009D
:10432000000000000000000000000000000000008D
:10433000000000000000000000000000000000007D
:10434000000000000000000000000000000000006D
:1043500000000000000000006D61726C696E6677FD
:104360002E6F726700322E302E395F4457372E344D
:104370002E35001FFFFFFFFFFFFF60000000000160
:10438000FF400000000000FF8000000000007F836D
:10439000CF00000C303F87FF80000C301F867980F3
:1043A000000C000F8C30C7838C30E78C30CFC7CC2B
:1043B00031F38C30DCECEC33B98C30D86C6C3319C5
:1043C0008C30D06C0C33198C30D86C0C33198C3089
:1043D000DC6C0E3B198C30CF7C079F198C30C77C6E
:1043E000038F194000000000000260000000000080
:1043F000061FFFFFFFFFFFF86001F4017001EA01F3
:104400009001E001B001D601D001CC010002C2014F
:104410003002B8016002AE019002A401D0029A01FC
:104420002003900170038601C0037C0130047201F7
:10443000A004680120055E01B005540160064A0130
:1044400020074001F0073601F0082C01100A220174
:10445000500B1801C00C0E01500E04013010FA0070
:104460002012F0005014E600C016DC007019D200D3
:10447000501CC800501FBE007022B400B025AA0016
:10448000F028A000202C9600302F8C0010328200E3
:10449000A0347800F0366E00E0386400803A5A00AC
:1044A000403B5500E03B5000F03C4600C03D3C0026
:1044B000603E3200E03E2800303F1E00503F1900B1
:1044C000703F1400A03F0A00C03F0000D03FF6FF3D
:1044D000E03FECFF2020506C616E6E6572427566A5
:1044E00066657242797465733A200020467265658C
:1044F000204D656D6F72793A200020436F6D7069B1
:104500006C65643A204665622032302032303232A7
:104510000A00204C61737420557064617465643ABC
:1045200020323032322D30322D3035207C20417512
:1045300074686F723A20426F6E6474656368202FEE
:1045400020496E73616E6974794175746F6D617421
:10455000696F6E0A004D61726C696E20322E302ECA
:10456000395F4457372E342E350A0020536F667456
:10457000776172652052657365740A002057617413
:104580006368646F672052657365740A0020427225
:104590006F776E206F75742052657365740A002002
:1045A00045787465726E616C2052657365740A009B
:1045B000506F77657255700A0073746172740A00E7
:1045C0004739310A47315A350A4739300A4D3834AC
:1045D0000A4D31303453300A4D3134305330004DB0
:1045E00031303031006572726F7220777269746990
:1045F0006E6720746F2066696C650A00446F6E6593
:1046000020736176696E672066696C652E0A004DBD
:10461000323900456E6473746F7073002553202522
:104620006320256320256320256300205A3A00205B
:10463000593A0020583A00656E6473746F707320A5
:104640006869743A200000000A0B02090C0D0E087C
:10465000070304010000000000000000000000004B
:10466000000000000000000000000000000000004A
:104670000000121110000000000000000000000007
:10468000000000000000000000000000004D6F76F8
:10469000652025736D6D004D6F766520302E316D70
:1046A0006D004D6F766520316D6D004D6F76652024
:1046B00031306D6D004D6F76652041786973004D26
:1046C0006F7665204578747275646572004D6F76FB
:1046D00065205A004D6F76652059004D6F76652034
:1046E00058001F3F1B3F4368616E67652046696C39
:1046F000616D656E7400556E6C6F61642046696C07
:10470000616D656E74004C6F61642046696C616D0B
:10471000656E7400507265686561742043757374CA
:104720006F6D00507265686561742024004261639A
:104730006B005072696E742066726F6D204D6564F7
:1047400069610050726F62696E67204661696C65CD
:10475000640A0050726F62696E67204661696C6519
:104760006400205A3A200020593A20004265642013
:10477000583A2000726573756D6564004469736D05
:1047800069737300526573756D696E670073686F46
:10479000770044697361626C6552756E6F75740061
:1047A00050757267654D6F72650050617573656411
:1047B00000656E6400436F6E74696E7565004C6FC2
:1047C00061642046696C616D656E74205400496EA9
:1047D000736572742066696C616D656E7420616EBC
:1047E000642073656E64204D3130380A00220A005F
:1047F000556E6B6E6F776E20636F6D6D616E643A90
:104800002022002042002050006F6B002045002035
:104810005A0020590020204D393220580053746529
:1048200070732070657220756E697400000022003C
:10483000250028002B002E0031003400020100006A
:10484000050108010B0100002100240027002A00B7
:104850002D003000330001010000040107010A01AE
:1048600005050505070508080808020202020A0AEC
:10487000080804040404010101010101010103030A
:10488000030303030303040707070C0C0C0C0C0CB5
:104890000C0C0202020206060606060606060B0BB2
:1048A0000B0B0B0B0B0B01021020200808102040F3
:1048B00010204080020102010804020101020408E4
:1048C0001020408080402010080402018004020172
:1048D00080402010080402010804020101020408BB
:1048E00010204080010204081020408020746F6F67
:1048F000206C6F6E6720657874727573696F6E20B7
:1049000070726576656E7465640A0020636F6C640E
:1049100020657874727573696F6E20707265766544
:104920006E7465640A0020453A00205A3A00205906
:104930003A00583A006F6B0A00526573656E643A2C
:104940002000353030205375506552205265616427
:10495000792E005072696E74696E672E2E2E00508B
:1049600072696E7420506175736564006E6F74694E
:104970006669636174696F6E2000B400DE00112403
:104980001FBECFEFD1E2DEBFCDBF00E00CBF84B7CA
:1049900080931C1A14BE0FB6F894A89580916000FD
:1049A000886180936000109260000FBE13E0A0E069
:1049B000B2E0ECE2FAEF02E00BBF02C007900D920A
:1049C000AC3EB107D9F72AE1ACEEB3E001C01D92CD
:1049D000AC31B207E1F714E2CEEBD4E200E006C05E
:1049E00021970109802FFE010F947779CD3BD107E4
:1049F00080E00807A9F70F94C1650D94047D0C941D
:104A00000000FC0184910895FC01808108951198B3
:104A100000C09091020187FD9095917090930001E4
:104A2000119A00C000C0119800C09091020186FD4B
:104A30009095917090930001119A00C000C0119858
:104A400000C09091020185FD9095917090930001B6
:104A5000119A00C000C0119800C09091020184FD1D
:104A60009095917090930001119A00C000C0119828
:104A700000C09091020183FD909591709093000188
:104A8000119A00C000C0119800C09091020182FDEF
:104A90009095917090930001119A00C000C01198F8
:104AA00000C09091020181FD90959170909300015A
:104AB000119A00C000C0119800C08091020181705D
:104AC00080930001119A00C000C0089590E080E03A
:104AD0000895CF93DF93DB01F9019C919130C1F0F0
:104AE000943080F094509C938830D1F480819181EF
:104AF000009771F0019791838083480F591FEA0155
:104B0000188206C08C3539F49C5F9C93943041F434
:104B1000DF91CF9108958B3339F781E08C93F8CFF3
:104B200020813181B9016F5F7F4F71836083420FB4
:104B3000531FEA018883808191818F3591056CF73D
:104B4000E7CF0F931F9381E000910D1810910E187D
:104B500020910F18309110184091091850910A189F
:104B600060910B1870910C1804171507260737076A
:104B700008F480E01F910F91089590E080E008957F
:104B800020917705833021F425FD0CC024FD0CC055
:104B900030E0A90102C0559547958A95E2F7CA0110
:104BA0008170089581E0089580E0089580919605D0
:104BB00084FD0BC08091980587FD07C090919905F1
:104BC000937081E019F480E0089581E00895CF9218
:104BD000DF92EF92FF92CF93DF93EC01CC80DD80E8
:104BE000EE80FF8027E137EB41ED58EBC701B601BE
:104BF0000F94E07B87FD23C023E030E04AEF53E4CD
:104C0000C701B6010F948E721816CCF0C880D980F7
:104C1000EA80FB8027E137EB41ED58EBC701B60195
:104C20000F94E07B87FD0BC0C1E023E030E04FEF45
:104C300053E4C701B6010F948E7218160CF4C0E04D
:104C40008C2FDF91CF91FF90EF90DF90CF90089560
:104C50002FEB280F2A3108F047C0E22FF0E08091B7
:104C6000960590919705A0919805B091990504C07B
:104C7000B695A795979587952A95D2F780FD02C09E
:104C800081700895E858FA4FE081EE2341F1809158
:104C9000130A9091140AE80FF92FF11D808190ED0D
:104CA000980F9A3030F08E3251F4818180538A30DF
:104CB00098F4F0936705E093660581E008958D32DE
:104CC00011F08B3249F4818190ED980F9A3088F37E
:104CD0008E3211F48281EACFF0E0E0E0EACF109268
:104CE000670510926605E9CF80E008950E942826A6
:104CF000882341F081E02091660530916705232BE0
:104D000009F480E008952F923F924F925F926F9244
:104D10007F928F929F92AF92BF92CF92DF92EF924B
:104D2000FF920F931F93CF93DF93CDB7DEB72E97EC
:104D30000FB6F894DEBF0FBECDBFE82ED62E042FDF
:104D4000122F282F30E03C872B87462F50E05A87C0
:104D5000498765E0F62EF29EC001F39E900D112466
:104D60009E878D87FA01E80FF91FEE0FFF1FEE0FE8
:104D7000FF1FE857F94F60817181828193819B0108
:104D8000AC010F94727C882309F434C1E00E612FCA
:104D90006D0DFE9CF0011124A985BA85AE0FBF1FD1
:104DA000AA0FBB1FAA0FBB1FA857B94FAC901196F3
:104DB000BC9011971296CC9012971396DC90E00E4F
:104DC000FE9CA0011124A985BA85A40FB51FAA0FC6
:104DD000BB1FAA0FBB1FA857B94FEC901196FC90B0
:104DE000119712960C91129713969C90862F90E033
:104DF000AD85BE85A80FB91FAA0FBB1FAA0FBB1F89
:104E0000A857B94F8C9011967C90119712966C9080
:104E1000129713965C90610F70E0AD85BE85A60F6A
:104E2000B71FAA0FBB1FAA0FBB1FA857B94F4C90A3
:104E300011963C90119712961C91129713962C90F4
:104E4000E80FF91FEE0FFF1FEE0FFF1FE857F94F96
:104E5000B081B98321812A8332813B8383818C8312
:104E6000FA01E60FF71FEE0FFF1FEE0FFF1FE857C7
:104E7000F94F90819D83A181AE83B281BF8323814D
:104E800028879701402F592DB701802F992D0F9416
:104E9000727C882321F0E12CF12C00E0912C95010B
:104EA000A601B501C6010F94727C882319F0570141
:104EB000C02ED92C242D332D412F522D642D732D2E
:104EC000812F922D0F94727C882321F0412C312C5C
:104ED00010E0212C282D372D462D552D682D772DAE
:104EE000862D952D0F94727C882321F0842C732CB1
:104EF000612E522C2D813E814F8158856D817E819E
:104F00008F8198850F94727C882321F01D821E82E8
:104F10001F82188629813A814B815C8169817A815F
:104F20008B819C810F94727C882341F03D81398371
:104F30004E814A835F815B8388858C8385E0EB8526
:104F4000FC858E9FD0018F9FB00D112429853A8555
:104F5000A20FB31FAA0FBB1FAA0FBB1FA857B94FA1
:104F6000BA87A9879501A601B501C6010F9480797A
:104F70009701402F592D0F947F796B017C01282DCB
:104F8000372D462D552D682D772D862D952D0F9477
:104F90008079242D332D412F522D0F947F799B0141
:104FA000AC01C701B6010F9480796B017C012981A6
:104FB0003A814B815C8169817A818B819C810F94DC
:104FC00080792D813E814F8158850F947F799B0197
:104FD000AC01C701B6010F94807920E030E040E4D5
:104FE00050E40F947A7AA985BA856D937D938D9359
:104FF0009C9313972E960FB6F894DEBF0FBECDBFCD
:10500000DF91CF911F910F91FF90EF90DF90CF90A4
:10501000BF90AF909F908F907F906F905F904F90D8
:105020003F902F90089510920E0A80915B0290910C
:105030005C02A0915D02B0915E02809301079093A3
:105040000207A0930307B09304070895269A2E9AA7
:105050000895BF92CF92DF92EF92FF920F931F932A
:10506000CF93DF936B01E9014A3009F4EAC045317F
:1050700009F092C0DB011296ED91FC911281C6817C
:10508000D78180910201809582708093000100C0D9
:10509000000086E290E00197F0F7012F0295007F73
:1050A00020E1B22EB10E88EF0E94072500C000005B
:1050B00086E290E00197F0F7103208F0ACC0812F43
:1050C000807780680E940725802F0E94072500C0F6
:1050D000000086E290E00197F0F780E80E94072543
:1050E00080E00E94072500C0000086E290E0019762
:1050F000F0F78AEF0E94072500C0000086E290E0EA
:105100000197F0F77E01B0E1EB0EF11C8881807F02
:105110000E94072589918295807F0E940725CE15E0
:10512000DF05A1F700C0000086E290E00197F0F7EC
:105130001F5F005F1B11B7CF8091020182708093C7
:105140000001D6011296ED91FC9180819281980F19
:1051500092832181921708F003C294819F5F948308
:105160009381890F821710F08FEF820F838345811F
:1051700050E0440F551F70E060E0868197810F94E6
:10518000B07C81E0DF91CF911F910F91FF90EF9064
:10519000DF90CF90BF900895FB01028113814233CD
:1051A00009F4E0C108F4E8C1463409F4D5C1473434
:1051B00009F4DDC14B3329F789812B81D80112967F
:1051C0006C91129713964C91213009F41AC2233036
:1051D00009F0FBC138EF380F582F91E0431708F45E
:1051E00090E041E0531708F040E031E0561708F432
:1051F00030E0592F542B352319F4942309F4C1CFEF
:10520000FA8030E0F901E053FD4FD08024533D4F48
:10521000F901E080F3C180EE810F8068807F0E94F9
:105220000725812F8295807F0E94072500C00000FE
:1052300086E290E00197F0F780E80E94072580E879
:1052400050CF809101018260809301018091020121
:10525000827080930001809101018160809301013F
:1052600080910201817080930001099A119A8091C6
:105270000201809582708093000100C0000086E2E8
:1052800090E00197F0F788E790E0CEE9DFE0FE01DB
:105290003197F1F70197D9F788EF0E94072500C0F1
:1052A000000086E290E00197F0F780E20E94072577
:1052B00080E00E94072500C0000086E290E0019790
:1052C000F0F780E00E94072580E80E94072500C0D3
:1052D000000086E290E00197F0F780E00E94072549
:1052E00080E10E94072500C0000086E290E001975F
:1052F000F0F7CE010197F1F7CE010197F1F7CE015A
:105300000197F1F7CE010197F1F7CE010197F1F77F
:10531000CE010197F1F7CE010197F1F7CE01019788
:10532000F1F7CE010197F1F7CE010197F1F7CE0128
:105330000197F1F7CE010197F1F7CE010197F1F74F
:10534000CE010197F1F72197F1F780E20E9407253E
:1053500080E40E94072500C0000086E290E00197EB
:10536000F0F780E20E94072580E60E94072500C032
:10537000000086E290E00197F0F7D0E0C0E08C2FCB
:10538000807780680E9407258D2F0E94072500C026
:10539000000086E290E00197F0F780E80E94072580
:1053A00080E00E94072500C0000086E290E001979F
:1053B000F0F78AEF0E94072500C0000086E290E027
:1053C0000197F0F790E2119800C08091020181707E
:1053D00080930001119A00C000C0119800C0809114
:1053E0000201817080930001119A00C000C01198E1
:1053F00000C080910201817080930001119A00C069
:1054000000C0119800C0809102018170809300015A
:10541000119A00C000C0119800C0809102018170F3
:1054200080930001119A00C000C0119800C08091C3
:105430000201817080930001119A00C000C0119890
:1054400000C080910201817080930001119A00C018
:1054500000C0119800C0809102018170809300010A
:10546000119A00C000C0119800C0809102018170A3
:1054700080930001119A00C000C0119800C0809173
:105480000201817080930001119A00C000C0119840
:1054900000C080910201817080930001119A00C0C8
:1054A00000C0119800C080910201817080930001BA
:1054B000119A00C000C0119800C080910201817053
:1054C00080930001119A00C000C0119800C0809123
:1054D0000201817080930001119A00C000C01198F0
:1054E00000C080910201817080930001119A00C078
:1054F00000C0119800C0809102018170809300016A
:10550000119A00C000C000C00000E6E2F0E0319750
:10551000F0F7915009F057CF88EF0E94072500C09F
:10552000000086E290E00197F0F7CF5FD05FC032D5
:1055300009F025CF80E00E94072580EC0E94072516
:1055400000C0000086E290E00197F0F78091020130
:1055500082708093000115CEF8018581888311CE79
:1055600080E010CEB901C8010F94915B0ACED8013A
:1055700011968C91888305CE443191F0473109F022
:1055800000CE1882D80112968C91129789831596B5
:105590008C91159781508A8313968C918B83F1CDD2
:1055A000D80115964C91159750E0440F551F70E0A7
:1055B00060E016968D919C910F94B07CF801128258
:1055C0008081815083831482DCCD481708F4D9CDC3
:1055D000861708F4D6CDFA80E12CD12C243070F453
:1055E00010CEBE01C8010F94915B898198819D0DF9
:1055F00098838E0D8983FF0C09F4C3CDF7FEF6CF97
:10560000F0CF58E0580F382FE8CDEF92FF920F936C
:105610001F93CF93DF93EC018B017A018A859B85E1
:105620008617970731F0888199810F947A5D1B87DF
:105630000A87B701888199810F94D4502E813F81C8
:10564000820F932F911D9F838E8390E080E0DF91E6
:10565000CF911F910F91FF90EF9008959F92AF927D
:10566000BF92CF92DF92EF92FF920F931F93CF934F
:10567000DF93EC018B01942EA52E8A859B858617DE
:10568000970731F0888199810F947A5D1B870A878B
:1056900088859985019649F5BC800A818E81080F1D
:1056A000C880D980D6015596ED91FC91C601199517
:1056B000B80EE92CFA2C10E0F70121917F0121119D
:1056C00027C08E819F81810F911D9F838E8390E0E3
:1056D00080E0DF91CF911F910F91FF90EF90DF90CD
:1056E000CF90BF90AF909F9008950E811F81692D3C
:1056F0007A2D888199810F94D450800F912F911D1C
:10570000288539852817390738F681E090E0E1CF00
:105710004B2D602FC6010F94D25D080F180FCCCF10
:10572000DF92EF92FF920F931F93CF93DF93EC01E1
:10573000D62E1CAD0BAD7C0184E0E80EF11CE98D8A
:10574000FA8DC7011995412F480F2D2D602FC701E4
:105750000F94D25D9BAD890F8BAF81E090E0DF911C
:10576000CF911F910F91FF90EF90DF9008950F93CD
:105770001F9380933802803208F046C09091AF05A5
:10578000891724F091E0980F9093AF0541E050E025
:10579000082E02C0440F551F0A94E2F7052E000C94
:1057A000660B770B0091AB051091AC052091AD0510
:1057B0003091AE05402351236223732391E0452BA2
:1057C000462B472B09F490E09093011187FD1FC0F1
:1057D000282F082E000C330B3F938F9386E59AE019
:1057E0009F938F9386E69AE09F938F931F920E94D8
:1057F0006ED08DB79EB707960FB6F8949EBF0FBEBA
:105800008DBF1F910F91089510920111DFCF1F914D
:105810000F910D94365FCF93DF93C091CC08D09158
:10582000CD08209729F16091C8087091C90880912E
:10583000CA089091CB080F94EC7A6C5F7F4F249745
:105840006C177D07ACF470930A07609309070F94F7
:105850000F56605876458C4F9F4F60930B0770939F
:105860000C0780930D0790930E07DF91CF91089559
:1058700010920B0710920C0710920D0710920E0752
:10588000F4CFAB01BC0140930D1850930E186093F8
:105890000F187093101886E799E10C94C7ED0F93D9
:1058A0001F93CF93DF9300D01F92CDB7DEB79C013B
:1058B0000CEC19E090E1EBE4F1E1D80101900D92DC
:1058C0009A95E1F7F9012081318142815381F801F4
:1058D00060857185828593850F948079F801608752
:1058E00071878287938780E090E0A0EAB0E48983A3
:1058F0009A83AB83BC83CE0101960F943C320F9008
:105900000F900F900F90DF91CF911F910F910895FD
:105910002F923F924F925F926F927F928F929F92BF
:10592000AF92BF92CF92DF92EF92FF921F93CF93ED
:10593000DF93CDB7DEB72C970FB6F894DEBF0FBE5E
:10594000CDBF7A011901DC012D913D914D915C9102
:105950002D833E834F835887FB01408051806280B6
:10596000738080904B1190904C11A0904D11B0908D
:105970004E11A50194016D817E818F8198850F94D0
:105980008E7281110EC011E0A301920160914F113E
:105990007091501180915111909152110F948E720B
:1059A000811110E0D1012D913D914D915C9129879C
:1059B0003A874B875C87F701C080D180E280F38013
:1059C0002091140230911502409116025091170255
:1059D000C701B6010F948E72882309F44EC0C0929D
:1059E0001402D0921502E0921602F09217028091F2
:1059F000571190915811A0915911B0915A1140919D
:105A00004F1150915011609151117091521180922B
:105A1000CC099092CD09A092CE09B092CF094093C3
:105A2000D0095093D1096093D2097093D309C092E1
:105A3000D409D092D509E092D609F092D709809383
:105A4000D8099093D909A093DA09B093DB0920E033
:105A500030E040E05FE360912F1170913011809150
:105A60003111909132110F94F47269837A838B8390
:105A70009C83CE0101960F943C322D813E814F8153
:105A800058852093CC093093CD094093CE0950938B
:105A9000CF094092D0095092D1096092D2097092F8
:105AA000D309D1012D913D914D915C916091D8091F
:105AB0007091D9098091DA099091DB090F9480796E
:105AC0006093D8097093D9098093DA099093DB0920
:105AD00011112FC020E030E0A90169857A858B85FE
