:100000000C949A230C94DA230C94DA230C94DA23BC
:100010000C94DA230C94DA230C94DA230C94DA236C
:100020000C94DA230C94DA230C94DA230C94DA235C
:100030000C94DA230C94DA230C94DA230C94DA234C
:100040000C94DA230C94CCF30C94DA230C94DA237A
:100050000C94DA230C9469F20C94DA230D949F52D9
:100060000C94DA230C940C540C9402540C94DA2360
:100070000C94DA230C94DA230C94DA230C94DA230C
:100080000C94DA230C94DA230C94DA230C94DA23FC
:100090000C94DA230C94DA230C94DA230C94DA23EC
:1000A0000C94DA230C94DA230C94DA230C94DA23DC
:1000B0000C94DA230C94DA230C94DA230C94DA23CC
:1000C0000C94DA230C94DA230C94DA230C94DA23BC
:1000D0000C94DA230C94DA230C94DA230C94DA23AC
:1000E0000C94DA23084AD73B3BCE016E84BCBFFD9B
:1000F000C12F3D6C74319ABD56833DDA3D00C77FF8
:1001000011BED9E4BB4C3E916BAAAABE0000008090
:100110003F05A84CCDB2D44EB93836A9020C50B91F
:10012000918688083CA6AAAA2ABE000000803F004B
:100130000C9489950C946B2A0C94FB8E0C94DC2304
:100140000C94139E0C941B920C94DEE00C94419A38
:100150000C944CDD0D942A4D0C94499A0C94ACB13E
:100160000C94EB910C9407920C942F920D94F74CF5
:100170000C94FF9C0C948A920C94CFC80C947DD262
:100180000C94C1910C942EA90C9497AF0C94D79118
:100190000C9461D90C94BDC80C94E69D0C94649B9E
:1001A0000C9414960C94B2540C94299A0C94D4B6D2
:1001B0000C94D69C0C94F9910D94295C0C94F8DF66
:1001C0000C94A74E0C94CAD10C9416960C94969B42
:1001D0000C94E19A0C948B3B0C94B7910C9436B030
:1001E0000C9499C80C9447920C94CF920C94FC9563
:1001F0000C94CFB00C94F69C0C9426410C94999ED0
:100200000C94D1930C940B9E0C94D0540C9491BBF1
:100210000C9448410C94C8540C9435BD0D94084D71
:100220000C94AEAB0C943CD20C940E960C94EE262F
:100230000C940DD90C94EFDB0C94B1C80C9446418E
:100240000C949E540C9471910C94329B0D94F34C2D
:100250000C94AD940C94A1920C942D9A0C9412963B
:100260000C94A7940C9406960C943D9A0C94BBDEC7
:100270000C94092A0C9408940C94029B0D94D84C6D
:100280000D94164D0C9403940C94749E0C94795414
:100290000C941DD20C9467D90C94A3A90C94719E54
:1002A0000D942E4D0C94AA940C94B2B60C94FA9D15
:1002B0000C940D9E0C94359A0D9499290C94F49DF0
:1002C0000C94259A0C944B9B0D940E4D0C946E41FE
:1002D0000C9404270C947D9B0C94BD540C94859134
:1002E0000C9469920C944B8F0C946C410C94F19D7E
:1002F0000C9444C40C94BCB60C94D6400C94E62ADE
:100300000C943BDF0C94B7C80C94A4940C94DBC8F9
:100310000C94F9930C94AA540D941C4D0C94412404
:100320000C94DCDE0C94ABD10C941DB30C9488546B
:100330000C940A9B0C94399A0C94B5AC0C94E1C8BB
:100340000C9439920D94C7290C9429A90D94EF4C63
:100350000C94459A0C9411AE0C94CA930C944B9740
:100360000C9483C90C94039E0D94DD4C0C9443DED5
:100370000C94C5950C94F0DB0C940A960D94FB4CF0
:100380000C94EE930D94044D0C9442950D94124DE3
:100390000C9455920C94FD9D0C94AE540C94319A8F
:1003A0000C94C9D20C94AABE0C9443970C9426DEEC
:1003B0000C94009E0C94B8920C94A6B80C94D5C8DA
:1003C0000C9485970C9410960C9447C90C949754F0
:1003D0000C94DF230C94DBBF0C94E0290C9447971A
:1003E0000C9407980C94048F0C9420DF0C944A41D1
:1003F0000C94A19B0C9499910D940B5C0D94244D3D
:100400000C9424410C94F1AE0D94204D0C94A25404
:100410000C9495940C946A410D94702A0C944A544F
:100420000C94C9C80C94B6540C9473D90C94B7CCE2
:100430000C9400410C94648F0C94C6930C949CD241
:100440000C9411B50C94C3C80C94109E0C94459454
:100450000C94069E0C9473920C9408960C94024192
:100460000C94D2C60C940A9D0C949FC80C94A5C8F9
:100470000C940C960C947F950C941FA90C9467A275
:100480000D94C6290C9424A90D94FE4C0C94FE9353
:100490000C94A3910C9426A60C94B9DF0C94D09CD8
:1004A0000C94D88E0C940D940C94F79D0C942241CE
:1004B0000C94ABC80C94CBDF0C946DDB0C9472A342
:1004C0000C94BAA00C94A6540C94E2404E414E49B0
:1004D0004E495459494E46CDCCCC3D0AD7233C1702
:1004E000B7D13877CC2B329595E6241FB14F0A004F
:1004F0000020410000C84200401C4620BCBE4CCA3F
:100500001B0E5AAEC59D7400407A10F35A00A072BB
:100510004E18090010A5D4E80000E876481700003E
:10052000E40B54020000CA9A3B000000E1F505000C
:100530000080969800000040420F000000A0860155
:10054000000000102700000000E803000000006425
:1005500000000000000A0000000000010000000090
:10056000002C76D888DC674F0823DFC1DFAE59E165
:10057000B1B796E5E3E453C63AE651997696E8E6D4
:10058000C28426EB898C9B62ED407C6FFCEFBC9CA7
:100590009F40F2BAA56FA5F490055A2AF75C936BB9
:1005A0006CF9676DC11BFCE0E40D47FEF520E6B574
:1005B00000D0ED902E0300943577050080841E084E
:1005C0000000204E0A000000C80C333333330F986C
:1005D0006E12831141EF8D2114893BE65516CFFE33
:1005E000E6DB18D1844B381BF77C1D901DA4BBE4BF
:1005F00024203284725E228100C9F124ECA1E53D01
:1006000027434F4D4D554E49434154494F4E0044A9
:10061000525952554E004552524F525300494E4680
:100620004F004543484F004572726F7220777269E0
:1006300074696E6720746F20454550524F4D210AF2
:100640000053544F505045442E20005072696E7430
:1006500065722073746F70706564206475652074B2
:100660006F206572726F72732E20466978207468ED
:1006700065206572726F7220616E642075736520EB
:100680004D39393920746F20726573746172742E1C
:10069000202854656D706572617475726520697388
:1006A0002072657365742E2053657420697420610F
:1006B000667465722072657374617274696E6729FD
:1006C0000A004E6F20436865636B73756D20776910
:1006D0007468206C696E65206E756D6265722C2081
:1006E0004C617374204C696E653A20004E6F204354
:1006F0006865636B73756D2077697468206C696ECB
:1007000065206E756D6265722C204C617374204C8F
:10071000696E653A2000636865636B73756D206D63
:1007200069736D617463682C204C617374204C692B
:100730006E653A20004C696E65204E756D6265727B
:10074000206973206E6F74204C617374204C696E45
:1007500065204E756D6265722B312C204C6173746F
:10076000204C696E653A20004D313130005365727E
:1007700069616C20737461747573206D69736D6148
:100780007463680A00776169740A005344207265D3
:100790006164206572726F720A00486F74656E64DE
:1007A0002049646C652054696D656F757400486FED
:1007B00074656E642049646C652054696D656F755D
:1007C000740A002121204B494C4C206361757365EC
:1007D00064206279204B494C4C20627574746F6EB2
:1007E0002F70696E0A002121204B494C4C20636117
:1007F0007573656420627920746F6F206D7563680E
:1008000020696E6163746976652074696D65202D59
:100810002063757272656E7420636F6D6D616E64B6
:100820003A20007061757365004D363030002066E7
:10083000696C616D656E745F72756E6F75742000A2
:1008400066696C616D656E745F72756E6F7574202C
:10085000540046696C616D656E7452756E6F757487
:100860002054004D656469612052656D6F76656442
:10087000004D6564696120496E736572746564003A
:100880004D313030305300627573793A20706175A4
:1008900073656420666F7220696E7075740A0062F9
:1008A0007573793A2070617573656420666F722084
:1008B000757365720A00627573793A2070726F639E
:1008C000657373696E670A00506C656173652052C9
:1008D00065736574005052494E5445522048414C4E
:1008E0005445440025533A20255300706F776572B4
:1008F0006F6666004B494C4C45442E20005072698F
:100900006E7465722068616C7465642E206B696C0E
:100910006C28292063616C6C6564210A006563683A
:100920006F3A004572726F723A0042696C696E6587
:100930006172204C6576656C696E672047726964E8
:100940003A0A005072696E74696E67204F626A6578
:100950006374002553202569002F2F616374696F2C
:100960006E3A0073746172740070726F6D70745FB0
:1009700000627574746F6E00626567696E00486F1F
:1009800074656E6420746F6F20636F6C640A00532B
:10099000656E64204D31303820746F207265737538
:1009A0006D650A00496E736572742066696C616DCD
:1009B000656E7420616E642073656E64204D313005
:1009C000380A0052656865617420446F6E65005294
:1009D0006568656174696E672E2E2E0052656865C4
:1009E0006174004865617465722054696D656F7546
:1009F000740053656E64204D31303820746F206868
:100A0000656174206E6F7A7A6C650A004E6F7A7A2F
:100A10006C65205061726B6564007061757365640C
:100A2000005061757365004732362043616E63651F
:100A30006C6564004732362048656174696E6720D2
:100A40004E6F7A7A6C65004732362048656174696A
:100A50006E67204265640057616974696E6720663D
:100A60006F72206865617475702E0A00466978653A
:100A700064204C656E677468205072696D6500442F
:100A80006F6E65205072696D696E67004D616E759D
:100A9000616C207072696D696E672E2E2E004C6538
:100AA0006176696E6720473236003F53706563692F
:100AB0006669656420582C5920636F6F7264696E93
:100AC000617465206F7574206F6620626F756E6447
:100AD000732E0A003F285229657065617420766183
:100AE0006C7565206E6F7420706C61757369626CD3
:100AF000653B206D757374206265206174206C65A0
:100B000061737420312E0A003F5370656369666912
:100B10006564206E6F7A7A6C652074656D7065729D
:100B20006174757265206E6F7420706C6175736985
:100B3000626C652E0A003F5370656369666965647F
:100B40002066696C616D656E742073697A65206ECC
:100B50006F7420706C61757369626C652E0A003F5A
:100B6000537065636966696564207072696D65209C
:100B70006C656E677468206E6F7420706C6175733D
:100B800069626C652E0A003F53706563696669652A
:100B900064206E6F7A7A6C652073697A65206E6F57
:100BA0007420706C61757369626C652E0A003F5227
:100BB000657472616374696F6E204D756C746970D1
:100BC0006C696572206D7573742062652073706541
:100BD0006369666965642E0A003F537065636966E0
:100BE0006965642052657472616374696F6E204D2B
:100BF000756C7469706C696572206E6F7420706CAE
:100C000061757369626C652E0A003F537065636994
:100C100066696564206C61796572206865696768DA
:100C200074206E6F7420706C61757369626C652ED0
:100C30000A0043292E0A003F53706563696669659F
:100C400064206265642074656D706572617475728C
:100C500065206E6F7420706C61757369626C6520BD
:100C60002834302D00473236207374617274696EF7
:100C7000672E2E2E0A004F46460A00466164652004
:100C80004865696768742000426564204C65766534
:100C90006C696E6720004661696C656420746F2022
:100CA000656E61626C6520426564204C6576656C9A
:100CB000696E670A00496E76616C6964206D6573C0
:100CC000682E0A0050726F62696E6720506F696EFD
:100CD000740025532025692F2569002E0A002F0056
:100CE00050726F62696E67206D65736820706F69FE
:100CF0006E742000202844525952554E2900473224
:100D000039204175746F20426564204C6576656CAE
:100D1000696E67003F20284C2C522C462C4229201B
:100D20006F7574206F6620626F756E64732E0A0093
:100D30003F2856296572626F7365206C6576656C15
:100D400020696D706C61757369626C652028302D47
:100D500034292E0A00426164205A2076616C756540
:100D60000A004E6F2062696C696E6561722067725D
:100D700069640A00446576696174696F6E00255381
:100D80003A2025730046696E6973686564210A001C
:100D90003A207A3A2000206F662000476F696E671C
:100DA00020746F3A20580043570A00206469723A51
:100DB0000020616E676C653A005374617274207232
:100DC00061646975733A004D343820506F696E74F0
:100DD0000025533A2025642F256400506F736974F1
:100DE000696F6E696E67207468652070726F6265E6
:100DF0002E2E2E0A003F4C656773206F66206D6FA4
:100E000076656D656E7420696D706C61757369626D
:100E10006C652028302D3135292E0A003F202858B6
:100E20002C5929206F7574206F6620626F756E646F
:100E3000732E0A0050726F6265206F7574206F66A2
:100E400020626F756E6473003F53616D706C652036
:100E500073697A65206E6F7420706C617573696256
:100E60006C652028342D3530292E0A004D34382069
:100E70005A2D50726F6265205265706561746162AF
:100E8000696C69747920546573740A003F28562987
:100E90006572626F7365206C6576656C20696D7034
:100EA0006C61757369626C652028302D34292E0AB7
:100EB000005374616E646172642044657669617484
:100EC000696F6E3A20002052616E67653A200020FB
:100ED0004D61783A2000204D696E3A200020536918
:100EE000676D613A20004D65616E3A200020440034
:100EF00020204D3230302053002028446973616235
:100F00006C6564293A0046696C616D656E74207386
:100F1000657474696E67730020204D32303120583B
:100F2000004D617820416363656C65726174696F1F
:100F30006E2028756E6974732F7332290020204D3E
:100F40003230332058004D617820666565647261E7
:100F50007465732028756E6974732F73290020528D
:100F60000020204D323034205000416363656C65B1
:100F7000726174696F6E2028756E6974732F733295
:100F8000292028503C7072696E742D616363656C12
:100F90003E20523C726574726163742D61636365B7
:100FA0006C3E20543C74726176656C2D61636365A0
:100FB0006C3E29005741524E494E4721204C6F77D5
:100FC000205A204A65726B206D6179206C656164DE
:100FD00020746F20756E77616E7465642070617522
:100FE0007365732E0A0020540020530020204D32D8
:100FF0003035204200416476616E6365642028428A
:101000003C6D696E5F7365676D656E745F74696D65
:10101000655F75733E20533C6D696E5F6665656400
:10102000726174653E20543C6D696E5F74726176C6
:10103000656C5F66656564726174653E20583C6DE1
:1010400061785F6A65726B3E20593C6D61785F6ABA
:1010500065726B3E205A3C6D61785F6A65726B3ECB
:1010600020453C6D61785F6A65726B3E29002044C3
:101070000020490020204D333031205000486F744B
:10108000656E64205049440020440020490020201F
:101090004D333034205000426564205049440020D4
:1010A000580020204D61783A2000200020204D6912
:1010B0006E3A2000203B200020204D323131205359
:1010C00000536F667420656E6473746F70730020D4
:1010D0003B0020550020204D363033204C0046691F
:1010E0006C616D656E74206C6F61642F756E6C6FD2
:1010F0006164004D323453256C6454256C640047A0
:1011000039322E3945257300473146256400473171
:101110005A257346363030004731582573592573A8
:101120004633303030004D31303650256953256913
:10113000004D313039532569004D3230304425732C
:10114000004739322E395A2573004D343230532539
:10115000635A257300473238523058590047315A84
:10116000257346363030004739322E395A25730000
:101170004739322E394530004D3130395325690019
:101180004D313930532569004D34323020533020F1
:101190005A3000203B200020204D343133205300B2
:1011A000506F7765722D6C6F7373207265636F7605
:1011B000657279003B200020496E76616C6964207D
:1011C0006578747275646572200047322F4733204A
:1011D00062616420706172616D65746572730A008A
:1011E000536C6565702E2E2E005A2050726F62650A
:1011F0002050617374204265640A005A2050726F57
:101200006265205061737420426564004732384C37
:101210003000205A3A200020593A200042656420CC
:10122000583A20004D65736820706F696E74206FA6
:101230007574206F662072616E67650A004D3020FC
:1012400053746F70004D312053746F7000436C699C
:10125000636B20746F20526573756D652E2E2E00A2
:101260004E6F204D6F76652E00456E642066696C6A
:1012700065206C6973740A00426567696E2066694F
:101280006C65206C6973740A004E6F206D6564692B
:10129000610A00526573756D696E672053440028BA
:1012A0006E6F2066696C65290043757272656E7495
:1012B0002066696C653A20005072696E742074690A
:1012C0006D653A20000A53746174733A2046696C64
:1012D000616D656E7420757365643A20002C204C36
:1012E0006F6E67657374206A6F623A2000546F7482
:1012F000616C2074696D653A200053746174733AAF
:1013000020002C204661696C65643A20002C204640
:10131000696E69736865643A20005072696E74730F
:101320003A200053746174733A20006F6B006F664B
:10133000660022061D0616060F06010644454255A4
:10134000473A004D3131332053003330302053754C
:10135000506552204F46462E002F2F004D31343518
:1013600020533C696E6465783E206F7574206F660B
:101370002072616E67652028302D31290A0046529F
:101380003A0020466C6F773A200064697300656EFE
:101390000043290A0061626C656420286D696E2033
:1013A00074656D702000436F6C642065787472758D
:1013B0006465732061726520004F4646004F4E0001
:1013C000203B20486F73742068616E646C696E679F
:1013D00020006D6D00203B2044697374616E63656D
:1013E000200046696C616D656E742072756E6F7554
:1013F0007420004D34323120696E636F7272656300
:101400007420706172616D657465722075736167B7
:10141000650A004D65736820706F696E74206F7582
:1014200074206F662072616E67650A004F6666738E
:10143000657473204170706C696564004572723A1E
:1014400020546F6F206661722100546F6F206661B7
:10145000722066726F6D207265666572656E636577
:1014600020706F696E740A00454550524F4D204FF1
:101470004B0A002E0A002028302D3130290020761A
:10148000616C7565206F7574206F662072616E6780
:101490006500416476616E6365204B3D004D3834D4
:1014A00000446F6E65207072696E74696E672066A5
:1014B000696C650A004D3737004D33310020204DEF
:1014C000323036205800486F6D65206F6666736550
:1014D00074004361703A00434F4E4649475F455898
:1014E000504F5254004D4541545041434B00434FDF
:1014F0004F4C45525F54454D50455241545552450D
:10150000004348414D4245525F54454D504552417C
:101510005455524500424142595354455050494E4A
:10152000470041524353004D4F54494F4E5F4D4F7A
:1015300044455300544845524D414C5F50524F541E
:10154000454354494F4E00455854454E4445445F29
:101550004D323000435553544F4D5F4649524D571D
:101560004152455F55504C4F4144004C464E5F57E9
:1015700052495445004C4F4E475F46494C454E41F9
:101580004D45004155544F5245504F52545F5344BE
:101590005F5354415455530053445F575249544587
:1015A0000052455045415400534443415244005079
:1015B000524F4D50545F535550504F525400484F66
:1015C00053545F414354494F4E5F434F4D4D414E3D
:1015D000445300454D455247454E43595F50415293
:1015E00053455200434153455F4C494748545F427D
:1015F00052494748544E45535300544F47474C4572
:101600005F4C494748545300534F46545741524545
:101610005F504F574552004255494C445F50455228
:1016200043454E54004C4556454C494E475F444156
:101630005441005A5F50524F42450052554E4F554B
:1016400054004155544F4C4556454C005052494E5C
:10165000545F4A4F420050524F4752455353004146
:1016600055544F5245504F52545F54454D500041D0
:1016700055544F5245504F52545F504F5300564FA0
:101680004C554D455452494300454550524F4D002D
:1016900042494E4152595F46494C455F5452414E72
:1016A000534645520053455249414C5F584F4E5F97
:1016B000584F4646004649524D574152455F4E41AC
:1016C0004D453A4D61726C696E20322E302E395F75
:1016D0004457372E342E3520544D33442053454D36
:1016E0004441422028466562203230203230323276
:1016F0002031383A33383A34382920534F55524341
:10170000455F434F44455F55524C3A68747470735B
:101710003A2F2F6769746875622E636F6D2F496E5B
:1017200073616E6974794175746F6D6174696F6E00
:101730002F4D61726C696E2F747265652F437265EF
:10174000616C6974794477696E5F322E3020505233
:101750004F544F434F4C5F56455253494F4E3A31C9
:101760002E30204D414348494E455F545950453A2B
:1017700033303020537550655220455854525544EB
:1017800045525F434F554E543A3120555549443ADE
:1017900063656465326132662D343161322D3437D0
:1017A00034382D396231322D633535633632663344
:1017B000363766660A0050726F6265204F66667340
:1017C0006574205A0050726F6265204F66667365BB
:1017D00074205A00290A0020746F20003F5A206F9D
:1017E0007574206F662072616E6765202800290A73
:1017F0000020746F20003F59206F7574206F6620A1
:1018000072616E676520282D00290A0020746F2000
:10181000003F58206F7574206F662072616E676597
:1018200020282D00203B0020204D38353120580045
:101830005A2D50726F6265204F666673657400435F
:10184000616E6E6F74206F70656E2073756264696F
:101850007220002569730025696D202569730025B4
:1018600069682025696D2025697300256964202534
:1018700069682025696D202569730025697920250F
:101880006964202569682025696D202569730043F6
:101890006F6F6C696E672E2E2E0048656174696EDD
:1018A000672E2E2E004531202553004265642043CB
:1018B0006F6F6C696E672E2E2E004265642048653E
:1018C0006174696E672E2E2E0023646566696E65ED
:1018D0002044454641554C545F00626564004B64AA
:1018E00020004B6920004B70200050494420417576
:1018F000746F74756E652066696E697368656421BE
:101900002050757420746865206C617374204B706E
:101910002C204B6920616E64204B6420636F6E73D2
:1019200074616E74732066726F6D2062656C6F7780
:1019300020696E746F20436F6E666967757261749B
:10194000696F6E2E680A00504944204175746F74A7
:10195000756E65206661696C6564212074696D65CA
:101960006F75740A00504944204175746F74756E28
:1019700065206661696C6564212054656D706572CF
:10198000617475726520746F6F20686967680A00FA
:10199000504944204379636C6573002553202569C1
:1019A0002F256900204B643A2000204B693A200023
:1019B000204B703A200020436C61737369632050A0
:1019C0004944200A00204E6F206F76657273686F5D
:1019D0006F740A002054753A2000204B753A20009D
:1019E000206D61783A2000206D696E3A20002064F5
:1019F0003A200020626961733A20005761697420BF
:101A0000666F7220686561742075702E2E2E0050EE
:101A10004944204175746F74756E652073746172EA
:101A2000740A00504944204175746F74756E6520C6
:101A30006661696C6564212054656D7065726174BE
:101A400075726520746F6F20686967680A00504975
:101A500044204175746F74756E650050494420418F
:101A600075746F74756E65206661696C656421209C
:101A7000426164206865617465722069640A00458A
:101A800072723A207574663820666F6E74206E6FBD
:101A90007420696E697469616C697A65642E0045A9
:101AA00072723A207574663820666F6E74206E6F9D
:101AB0007420696E697469616C697A65642E004589
:101AC00072723A207574663820666F6E74206E6F7D
:101AD0007420696E697469616C697A65642E002589
:101AE00068753A25303268750025303268753A25B8
:101AF00030326875002530326875272530326875B8
:101B000000256875642025303268753A25303268C2
:101B10007500000C0F00FE07022503BB017FFE08C5
:101B2000FE08FE05080806000040F0C8888898787E
:101B300010050808060000C0F88888888888F8051D
:101B400005050600012030F83020050808060000D1
:101B50002070F820202020E00509090600FF2070F1
:101B6000A8A8B888887020070505070001D86C363A
:101B70006CD80509090600FFF8A88888888888A815
:101B8000F8050A0A0600FE205050505088A8A88880
:101B90007003030306000340A040FFFFFFFFFFFFA9
:101BA000FFFFFFFFFFFFFFFFFFFFFFFFFFFFFFFF45
:101BB0000000000605FF0107070602008080808004
:101BC000800080030303060105A0A0A00506060609
:101BD000000050F85050F8500509090600FF207029
:101BE000A8A07028A87020050707060000C8C81024
:101BF0002040989805070706000040A0A040A89044
:101C0000680103030602058080800309090601FFBD
:101C10002040408080804040200309090601FF8069
:101C2000404020202040408005070706000020A8F3
:101C3000702070A8200505050600012020F820204E
:101C40000203030601FFC04080050101060003F8FE
:101C5000020202060100C0C00507070600000810C6
:101C60001020404080050707060000708898A8C82B
:101C7000887003070706010040C040404040E0056F
:101C80000707060000708808102040F805070706BF
:101C90000000F808103008887005070706000010DB
:101CA000305090F81010050707060000F880F00883
:101CB000088870050707060000304080F0888870AB
:101CC000050707060000F808101020202005070768
:101CD0000600007088887088887005070706000075
:101CE00070888878081060020505060100C0C000F1
:101CF000C0C00206060601FFC0C000C04080030548
:101D0000050601012040804020050303060002F87B
:101D100000F8030505060101804020408005070703
:101D2000060000708810202000200507070600002C
:101D30007088B8A8B880700507070600007088880A
:101D4000F8888888050707060000F048487048486A
:101D5000F0050707060000708880808088700507FE
:101D600007060000F04848484848F0050707060005
:101D700000F88080F08080F8050707060000F880F2
:101D800080F08080800507070600007088808098BA
:101D90008870050707060000888888F88888880307
:101DA0000707060100E04040404040E00507070605
:101DB000000038101010109060050707060000881A
:101DC00090A0C0A090880507070600008080808052
:101DD0008080F805070706000088D8A888888888CA
:101DE0000507070600008888C8A89888880507079F
:101DF000060000708888888888700507070600003C
:101E0000F08888F0808080050707060000708888C9
:101E100088A89068050707060000F08888F0A09061
:101E2000880507070600007088807008887005071D
:101E300007060000F82020202020200507070600C4
:101E400000888888888888700507070600008888C9
:101E5000888850502005070706000088888888A8D1
:101E6000A85005070706000088885020508888057C
:101E70000707060000888850202020200507070655
:101E80000000F80810204080F80309090601FFE06F
:101E900080808080808080E0050707060000804009
:101EA00040201010080309090601FFE0202020202F
:101EB000202020E0050303060005205088050101CD
:101EC0000600FEF803030306010580402005050512
:101ED00006000070087888780507070600008080F3
:101EE000F0888888F00505050600007080808870FD
:101EF0000507070600000808788888887805050522
:101F00000600007088F08070050707060000304862
:101F100040E04040400507070600FE70888888784A
:101F200008700507070600008080F088888888030D
:101F300007070601004000C0404040E004090906D0
:101F400001FE100030101010109060050707060009
:101F50000080808890E09088030707060100C04059
:101F600040404040E0050505060000D0A8A8A8A80C
:101F7000050505060000B0C8888888050505060027
:101F80000070888888700507070600FEF08888883A
:101F9000F080800507070600FE78888888780808A2
:101FA000050505060000B0C880808005050506000F
:101FB0000078807008F00507070600002020F82050
:101FC0002020180505050600008888889868050502
:101FD0000506000088888850200505050600008851
:101FE00088A8A850050505060000885020508805DF
:101FF00007070600FE8888885020408005050506F2
:102000000000F8102040F80309090601FF204040B5
:102010004080404040200109090602FF8080808006
:1020200080808080800309090601FF8040404020B5
:102030004040408005030306000248A890FF554E2B
:102040004C4F41442046494C414D454E54004C4F65
:1020500041442046494C414D454E540046494C416F
:102060004D454E54204348414E474500426564006B
:10207000456E636C6F7375726500202020202020F0
:1020800020002020202000657272001FE020102018
:102090001020101020102020102010303008400494
:1020A0008003001FE03FF03FF03FF01FE01FE03FE4
:1020B000F03FF03FF00FC0078003003FFFF0380013
:1020C0007030FC3020FC102078102030102C00D014
:1020D0002E31D02F7BD02F7BD02E31D02C00D02092
:1020E000301020781020FC1030FC303800703FFF9A
:1020F000F03FFFF03800703186302387102787903B
:102100002F87D02F03D02030102078102078102077
:1021100030102F03D02F87D0278790238710318648
:10212000303800703FFFF01FFFF81FFFF804104029
:1021300002082002082004104008208010410010EE
:1021400041000820800410400000001FFFF81FFF1E
:10215000F8FFFFFF8000018E00E19F01F1938139BC
:102160009F81F99F81F99FB9F98F28F1803801800B
:1021700000019FFFF99174999B06A99B54A99B5656
:10218000A99B54999FFFF9FFFFFF6E6F7469666901
:10219000636174696F6E200063616E63656C0050EB
:1021A00072696E742041626F7274656400554920D3
:1021B00041626F72746564004D323520500A4D32B1
:1021C0003400526573756D65005549205061757313
:1021D000650050617573696E672E2E2E00726573EF
:1021E000756D65004D32340000FE0003FF8007C7A7
:1021F000C00701E00000E00000F000007004007083
:102200000E00701F00703F80F00E00E00F01E0072D
:10221000C7C003FF8000FE0000FE0003FF8007C769
:10222000C00F01E00E00E03F80F01F00700E007054
:102230000400700000700000F00000E00701E007FB
:10224000C7C003FF8000FE000E000E000E000E004F
:102250000E000E000E000E007FC03F801F000E001B
:10226000040004000E001F003F807FC00E000E001F
:102270000E000E000E000E000E000E00FFFFFF7F8E
:1022800080FFC0FFC0FFC07F807F80FFC0FFC0FF16
:10229000C03F001E000C0050726F6265205A204F34
:1022A00066667365740052756E6F75742044697349
:1022B00074206D6D004C6F6164206D6D00556E6C07
:1022C0006F6164206D6D0046696C2E204469612E3B
:1022D000004520696E206D6D5E3300416476616E4D
:1022E0006365204B004D333033205531204525693F
:1022F0002053256900504944204175746F74756EF0
:1023000065202A005049442D44202A005049442D7C
:1023100049202A005049442D50202A0020082046F8
:10232000616374002008204D6178002008204D6909
:102330006E004F6666004F6E004175746F74656D78
:1023400070004D696E2054726176656C2056656C24
:10235000004D696E2056656C6F63697479004D613C
:102360007820452056656C004D6178205A205665CE
:102370006C004D617820592056656C004D617820C5
:10238000582056656C004D61782045204163636597
:102390006C004D6178205A20416363656C004D618B
:1023A00078205920416363656C004D617820582086
:1023B000416363656C0054726176656C20416363B0
:1023C000656C005265747261637420416363656C6F
:1023D00000416363656C004D61782045204A657259
:1023E0006B004D6178205A204A65726B004D617810
:1023F0002059204A65726B004D61782058204A654B
:10240000726B0050726F6265205A204F666673656A
:10241000740050726F62652059204F666673657450
:102420000050726F62652058204F666673657400B5
:10243000452073746570732F6D6D005A2053746559
:1024400070732F6D6D00592053746570732F6D6D0F
:1024500000582053746570732F6D6D004164766170
:102460006E6365642053657474696E6773003F0022
:1024700043616E63656C00496E6974004D34323897
:1024800000496E697469616C697A652045455052EE
:102490004F4D0046696C616D656E740054656D70DA
:1024A000657261747572650053746570732F6D6D1C
:1024B0000050726F6265204F666673657473004AE0
:1024C00065726B00416363656C65726174696F6E00
:1024D0000056656C6F636974790053657420486FAA
:1024E0006D65204F66667365747300436F6E666931
:1024F0006775726174696F6E003F004E6578742075
:10250000506F696E7400446F6E65004E657874009C
:10251000486F6D696E672058595A003F0043616EDD
:1025200063656C204F626A656374004E4F005945C5
:10253000530043616E63656C204F626A656374206B
:102540003D004D61696E00426564004E6F7A7A6CA1
:10255000650046616E20537065656400436F6E666A
:10256000696775726174696F6E00526573746F721A
:10257000652044656661756C7473004C6F616420FE
:1025800053657474696E67730053746F726520537A
:10259000657474696E677300507265686561742054
:1025A0002420436F6E6600506F776572204F7574FC
:1025B000616765004F6666004F6E0052756E6F75FD
:1025C000742053656E736F720050726F6265205A8B
:1025D000204F666673657400416476616E6365645E
:1025E0002053657474696E6773004D61696E004DA8
:1025F00037303220542564004D36303020423020B0
:10260000542564004D373032203B2564004D37306F
:102610003120542564004D373032004D37303100C1
:102620004D363030204230004D61696E00436F6E90
:1026300074696E7565004F6666004F6E0052756E68
:102640006F75742053656E736F7200507572676595
:10265000206D6F726500524553554D45204F5054C3
:10266000494F4E533A005052494E54205041555311
:1026700045440020204E6F7A7A6C653A2000506104
:10268000726B696E672E2E2E0000005761697420F0
:10269000666F720066696C616D656E742063686157
:1026A0006E676500746F207374617274005761699E
:1026B0007420666F720066696C616D656E7420755A
:1026C0006E6C6F616400004E6F7A7A6C652068658D
:1026D0006174696E6700506C65617365207761692C
:1026E000742E2E2E00005072657373206275747400
:1026F0006F6E00746F2068656174206E6F7A7A6CFB
:10270000650000496E736572742066696C616D6561
:102710006E7400616E6420707265737320627574EC
:10272000746F6E00746F20636F6E74696E756500F0
:102730005761697420666F720066696C616D656EC1
:1027400074206C6F61640000507265737320427571
:1027500074746F6E00746F20726573756D65207090
:1027600072696E7400005761697420666F72207020
:1027700072696E7400746F20726573756D652E2EAC
:102780002E00005761697420666F720066696C6183
:102790006D656E7420707572676500003E200025BF
:1027A0006C642E25696D00457874727564656420CB
:1027B000546F74616C003E20004C6F6E67657374DB
:1027C000204A6F622054696D65003E200050726996
:1027D0006E742054696D6500436F6D706C6574652F
:1027E00064003A20005072696E7420436F756E74F5
:1027F000003A20003135300035004245443A20414E
:1028000054432031303447542D320052756E617775
:1028100061792057617463683A204F4E004D6178AA
:102820002054656D7000333135004D696E2054655C
:102830006D7000350045313A204154432031303429
:1028400047542D32005053550047656E65726963D9
:102850000050726F746F636F6C00312E30004261F4
:1028600075640032353030303000437265616C6918
:10287000747933442052414D50530042696C696E63
:10288000656172204C6576656C696E670045787489
:1028900072756465727300310074696E796D61637D
:1028A00068696E657333642E636F6D00333030205A
:1028B000537550655200323032322D30322D303562
:1028C00000322E302E395F4457372E342E35004DCE
:1028D00061726C696E005072696E74657220537417
:1028E00061747300546865726D6973746F727300FC
:1028F000426F61726420496E666F005072696E7437
:10290000657220496E666F004D61696E004D313011
:1029100030300053746F70205072696E74005265CD
:1029200073756D65205072696E7400506F776572B3
:10293000204F7574616765004D3139305335350A64
:102940004732380A4732390A4D3430300A4D313077
:1029500034533231350A4732380A4D313039533227
:1029600031350A4D34323053310A47315831303025
:102970005931303046353030300A47315A300A4DFF
:102980003530300A4D31313720536574205A204F8D
:102990006666736574004D313036533132380A4DF6
:1029A0003330334338533231354530550A4D3530A5
:1029B000300A4D313137205049442054756E65201E
:1029C000446F6E65004D3139305335350A4D313025
:1029D00034533231350A4732380A4732394C310ADA
:1029E0004731205831303059313030463530303071
:1029F0000A47315A30004D3530300A4D31313720D9
:102A000053657474696E67732053746F72656400E4
:102A100053746F72652053657474696E67730050E8
:102A200072657020666F72205A2041646A757374F3
:102A3000005049442054756E6500536574757000EC
:102A40004D61696E003F004261636B0053746F70AB
:102A5000004E6F204D65646961005072696E74208C
:102A600066726F6D204D65646961004368616E67D1
:102A700065204D65646961004D32310041626F75BA
:102A800074205072696E746572004368616E676588
:102A90002046696C616D656E74004C6576656C6985
:102AA0006E6720546F6F6C7300436F6E6669677555
:102AB000726174696F6E0054656D706572617475D2
:102AC0007265004D6F74696F6E005374617274208B
:102AD000486F7374205072696E7400526573756D1F
:102AE00065205072696E740043616E63656C204F9F
:102AF000626A6563740054756E650053746F70206C
:102B00005072696E74005061757365205072696E01
:102B10007400496E666F2053637265656E003F00F6
:102B20005374617274205072696E740043616E63F5
:102B3000656C005072696E740043616E6E6F742034
:102B4000656E746572207375626469723A20000262
:102B5000202E2E004D61696E002100486F74656E55
:102B60006420746F6F20636F6C64004261636B005C
:102B700050726F6365656400536F667420456E64C0
:102B800073746F7073004D6F74696F6E0044697376
:102B900061626C65205374657070657273004D38A6
:102BA00034004D34382050726F6265205465737460
:102BB000004732384F0A4D343820503130004265DA
:102BC00064205472616D6D696E67004661646520B2
:102BD000486569676874004F6666004F6E0042651D
:102BE00064204C6576656C696E67004C6576656C33
:102BF00020426564004732394E004732385A004758
:102C000032385900486F6D6520400047323858000F
:102C10004175746F20486F6D6500473238004D6113
:102C2000696E005072656865617420242042656495
:102C30000050726568656174202420456E640054FC
:102C4000656D706572617475726500436F6F6C6459
:102C50006F776E005072656865617420240046616C
:102C60006E20537065656400426564004E6F7A7A29
:102C70006C65004D61696E0050726F6265205A206C
:102C80004F666673657400416476616E6365204BC0
:102C900000466C6F770046616E2053706565640076
:102CA000426564004E6F7A7A6C65005370656564A6
:102CB000004D61696E00486F6D696E6720466169FD
:102CC0006C6564006F70656E005452494747455209
:102CD0004544003A200066696C616D656E74007A47
:102CE0005F6D696E00795F6D696E00785F6D696E0A
:102CF000005265706F7274696E6720656E647374DC
:102D00006F70207374617475730A0020746F6F2084
:102D10006C6F6E6720657874727573696F6E207062
:102D2000726576656E7465640A0020636F6C64205A
:102D3000657874727573696F6E2070726576656EF2
:102D40007465640A00486F6D6520257325732573CB
:102D5000204669727374005761726E696E673A201B
:102D6000486F6D696E672042756D702044697669A1
:102D7000736F72203C20310A000202040000000040
:102D8000000000000000000000809D4300009B4305
:102D90000000C84300000041000000410000004066
:102DA00000000001000000010000800055555500A2
:102DB0000000400033333300AAAA2A0049922400BD
:102DC00000002000C7711C0099991900D145170017
:102DD000555515003BB11300244912001111110083
:102DE000000010000F0F0F00E3380E0043790D00B4
:102DF000CCCC0C00C3300C00E8A20B0064210B000B
:102E0000AAAA0A00703D0A009DD80900427B090069
:102E100092240900DCD308008888080010420800CA
:102E200000000800F0C10700878707007550070001
:102E3000711C07003EEB0600A1BC0600699006006D
:102E400066660600703E06006118060017F405006D
:102E500074D105005BB00500B290050062720500F8
:102E60005555050078390500B81E05000505050013
:102E70004EEC040087D40400A1BD040090A7040018
:102E800049920400C17D0400EE690400C7560400A5
:102E9000444404005C320400082104004110040092
:102EA000000004003FF00300F8E0030026D2030016
:102EB000C3C30300CCB503003AA803000A9B030078
:102EC000388E0300C08103009F750300D0690300A2
:102ED000505E03001D53030034480300913D03007E
:102EE0003333030016290300381F0300971503002E
:102EF000300C0300030303000BFA020049F1020047
:102F0000BAE802005CE002002DD802002DD00200D9
:102F100059C80200B0C0020031B90200DAB10200A3
:102F2000AAAA0200A0A30200BC9C0200FA9502001B
:102F30005C8F0200DF88020082820200457C020072
:102F40002776020027700200436A02007C640200B8
:102F5000D05E02003F590200C8530200FFFDFCFA98
:102F6000F8F6F4F2F0EEECEAE9E7E5E3E1E0DEDCC6
:102F7000DAD9D7D5D4D2D0CFCDCBCAC8C7C5C3C272
:102F8000C0BFBDBCBAB9B7B6B4B3B2B0AFADACAAEE
:102F9000A9A8A6A5A4A2A1A09E9D9C9A9998979540
:102FA000949392908F8E8D8B8A8988878684838272
:102FB00081807F7E7D7B7A79787776757473727184
:102FC000706F6E6D6C6B6A69686766656463626179
:102FD000605F5E5D5C5B5A59585857565554535262
:102FE0005150504F4E4D4C4B4A4A49484746464532
:102FF0004443424241403F3E3E3D3C3B3B3A3938F0
:103000003837363535343332323130302F2E2E2D9D
:103010002C2B2B2A29292827272625252423232240
:10302000212120201F1E1E1D1C1C1B1B1A191918D4
:1030300018171616151514131312121111100F0F5D
:103040000E0E0D0D0C0C0B0A0A09090808070706DD
:1030500006050504040303020201000000809D43ED
:1030600000009B430000C843000000000000000077
:103070000000000053657474696E67732053746FA9
:1030800072656400290A002062797465733B2063CD
:103090007263200053657474696E67732053746F94
:1030A000726564202800454550524F4D20496E6995
:1030B0007469616C697A65640A0048617264636F5F
:1030C0006465642044656661756C7420536574742E
:1030D000696E6773204C6F616465640A0020286D17
:1030E0006D2900203B204C6576656C696E67200079
:1030F00020204D3432302053004175746F204265DA
:1031000064204C6576656C696E6700204600204837
:103110000020204D3134352053004D6174657269B3
:10312000616C2068656174757020706172616D6595
:10313000746572730020204D393030204B004C698B
:103140006E65617220416476616E636500203B208C
:1031500053656E736F72200020440020204D34317F
:103160003220530046696C616D656E742072756E15
:103170006F75742073656E736F7200204A00202093
:10318000473239205720490020204D31343920431F
:10319000203B20556E69747320696E2043656C7303
:1031A0006975730A0054656D706572617475726536
:1031B00020556E697473002020473231203B004C4B
:1031C000696E65617220556E697473004545505291
:1031D0004F4D206461746173697A65206572726F06
:1031E000722E0A00290A002062797465733B2063FD
:1031F000726320002073746F726564207365747449
:10320000696E6773207265747269657665642028DB
:1032100000202863616C63756C6174656429210A00
:103220000020213D2000454550524F4D2043524340
:10323000206D69736D61746368202D202873746F2D
:103240007265642920002053697A653A2000496E2E
:103250006465783A20000000FA430000FA43000059
:103260002041000096420000A0420000A042000061
:10327000C8430080CF43DC050000DC05000064008B
:1032800000004B000000204D61726C696E3D5638A5
:1032900036290A00454550524F4D207665727369B4
:1032A0006F6E206D69736D617463682028454550A9
:1032B000524F4D3D0024F4D43050C38E20C2A24062
:1032C00017828B7011127A910D816CD90AA861E175
:1032D00008C7586607615143061E4B5D05C145A7E7
:1032E000041A411104093D9803713931034036DB5A
:1032F0000265339102D4305402802E1D02632CEEFD
:1033000001752AC501B028A001102781018F25640D
:10331000012B244B01E0223401AC211F018D200D33
:1033200001801FFC00841EED00971DDF00B81CD239
:1033300000E61BC600201BBC00641AB200B219A82C
:10334000000A19A0006A189900D117910040178B44
:1033500000B516840031167E00B31579003A157356
:1033600000C7146F0058146A00EE136600881363D8
:103370000025135E00C7125B006C12570015125433
:1033800000C111510070114F0021114B00D610499E
:10339000008D1047004610440002104200C00F404C
:1033A00000800F3E00420F3C00060F3B00CB0E3862
:1033B00000930E37005C0E3500270E3400F30D32FB
:1033C00000C10D3100900D3000600D2E00320D2D2A
:1033D00000050D2C00D90C2B00AE0C2900850C2902
:1033E000005C0C2700350C27000E0C2600E80B248F
:1033F00000C40B2400A00B23007D0B23005A0B21DB
:1034000000390B2100180B2000F80A1F00D90A1EF2
:1034100000BB0A1E009D0A1D00800A1D00630A1CD5
:1034200000470A1B002C0A1B00110A1A00F7091A90
:1034300000DD091900C4091900AB09190092091728
:10344000007B091800630917004C0916003609169D
:1034500000200916000A091500F5081500E00814F7
:1034600000CC081400B8081400A408140090081335
:10347000007D0812006B081300580812004608125D
:10348000003408110023081100120811000108116E
:1034900000F0071000E0071000D0071000C0071070
:1034A00000B0070F00A107100091070E0083070F5F
:1034B0000074070F0065070E0057070E0049070E3E
:1034C000003B070D002E070E0020070D0013070D0F
:1034D0000006070D00F9060C00ED060D00E0060CD5
:1034E00000D4060C00C8060C00BC060C00B0060C8C
:1034F00000A4060B0099060C008D060B0082060B3B
:103500000077060B006C060B0061060A0057060BDD
:10351000004C060A0042060A0038060A002E060A77
:103520000024060A001A060A001006090007060A07
:1035300000FD050900F4050900EB050900E2050995
:1035400000D9050900D0050900C7050900BE050915
:1035500000B5050800AD050800A50509009C050893
:1035600000940508008C050800840508007C050807
:1035700000740508006C050700650508005D050777
:1035800000560508004E05070047050700400508DE
:103590000038050700310507002A05070023050745
:1035A000001C050600160507000F050700080506A4
:1035B0000002050700FB040600F5040700EE040600
:1035C00000E8040600E2040700DB040600D5040658
:1035D00000CF040600C9040600C3040600BD0406AB
:1035E00000B7040600B1040500AC040600A60406FA
:1035F00000A00405009B0406009504050090040645
:10360000008A04050085040500800406007A04058C
:103610000075040500700405006B040500660405D0
:1036200000610405005C0405005704050052040510
:10363000004D04050048040500430405003E040451
:10364000003A04050035040500300404002C04058C
:103650000027040400230405001E0404001A0404C7
:103660000016040500110404000D040400090405FB
:10367000000404040000040400FC030400F8030434
:1036800000F4030400F0030400EC030400E8030466
:1036900000E4030400E0030400DC030400D8030496
:1036A00000D4030400D0030400CC030400C80303C7
:1036B00000C503030024F404D9201BC40C5C0E983D
:1036C00004C4095F0265077101F405F900FB04B346
:1036D0000048048700C103690058035500030345EF
:1036E00000BE023A008402310053022A002902255A
:1036F0000004022000E4011C00C8011900AF0117FA
:103700000098011400840113007101100061011080
:103710000051010E0043010D0036010B002B010B7F
:103720000020010B00150109000C0109000301082C
:1037300000FB000800F3000800EB000700E40006AF
:1037400000DE000600D8000600D2000600CC00050E
:1037500000C7000500C2000500BD000400B9000458
:1037600000B5000400B1000400AD000400A900048D
:1037700000A5000300A20003009F0004009B0003BB
:1037800000980003009500020093000300900003DE
:10379000008D0002008B00030088000200860002FA
:1037A0000084000300810002007F0002007D00020F
:1037B000007B000200790002007700010076000221
:1037C000007400020072000100710002006F00022C
:1037D000006D0001006C0002006A00010069000237
:1037E000006700010066000100650001006400023E
:1037F000006200010061000100600001005F000242
:10380000005D0001005C0001005B0001005A000146
:103810000059000100580001005700010056000146
:103820000055000100540001005300000053000146
:10383000005200010051000100500001004F000142
:10384000004E0000004E0001004D0001004C000140
:10385000004B0000004B0001004A0001004900013C
:103860000048000000480001004700010046000039
:103870000046000100450000004500010044000131
:10388000004300000043000100420000004200012C
:10389000004100000041000100400001003F000025
:1038A000003F0001003E0000003E0001003D00001E
:1038B000003D0001003C0000003C0000003C000115
:1038C000003B0000003B0001003A0000003A00010C
:1038D0000039000000390001003800000038000005
:1038E00000380001003700000037000100360000FA
:1038F00000360000003600010035000000350000F1
:1039000000350001003400000034000000340001E4
:1039100000330000003300000033000100320000DB
:1039200000320000003200010031000000310000D0
:1039300000310001003000000030000000300001C4
:10394000002F0000002F0000002F0000002F0001BA
:10395000002E0000002E0000002E0001002D0000AF
:10396000002D0000002D0000002D0001002C0000A3
:10397000002C0000002C0000002C0001002B000097
:10398000002B0000002B0000002B0001002A00008B
:10399000002A0000002A0000002A0001002900007F
:1039A0000029000000290000002900000029000172
:1039B0000028000000280000002800000028000067
:1039C0000028000100270000002700000027000059
:1039D000002700000027000100260000002600004C
:1039E000002600000026000000260001002500003F
:1039F0000025000000250000002500000025000033
:103A00000025000100240000002400000024000024
:103A10000024000000240001002300000023000017
:103A2000002300000023000000230000002300000A
:103A300000230001002200000022000000220000FC
:103A400000220000002200000022000100210000EE
:103A500000210000002100000021000000210000E2
:103A600000210000002100010020000000200000D3
:103A700000200000002000000020000000200000C6
:103A80000020000000200001001F0000001F0000B7
:103A9000001F0000001F0000001F0000001F0000AA
:103AA000001F0001001E0000001E0000001E00009C
:103AB000001E000000232C0000B822000056180051
:103AC000003A0F0000B8080000B1040000710200C5
:103AD000003E01000020436F756E7420583A00428A
:103AE0006564004531004500626564002C207379EF
:103AF0007374656D2073746F707065642120486500
:103B0000617465725F49443A200048656174696E6A
:103B100067204661696C65640048656174696E6719
:103B2000206661696C6564004D31313220536875DF
:103B300074646F776E004572723A204D4158544557
:103B40004D50004D415854454D502074726967677F
:103B500065726564004572723A204D494E54454D78
:103B600050004D494E54454D502074726967676549
:103B700072656400544845524D414C2052554E41A7
:103B800057415900546865726D616C2052756E61C1
:103B900077617900202F002042403A0020403A000F
:103BA00020573A0020573A00496E76616C696420CC
:103BB00065787472756465720A0000002100240043
:103BC00027002A002D00300033000101000004010D
:103BD00007010A017C3C3E5E2B3D3F2F5B5D3B2C89
:103BE0002A225C0043616E6E6F74206F70656E20D8
:103BF00073756264697220004D6564696120496E65
:103C00006974204661696C005344206361726420CA
:103C10006F6B0A006F70656E526F6F74206661691A
:103C20006C65640A00766F6C756D652E696E6974DB
:103C3000206661696C65640A004E6F2053442063FE
:103C40006172640A000A4D3234004D32332025730C
:103C5000002E0A006F70656E206661696C65642CC9
:103C60002046696C653A200046696C652073656C76
:103C700065637465640A002053697A653A200046DA
:103C8000696C65206F70656E65643A2000454E442E
:103C900020535542524F5554494E450A0022207038
:103CA0006F73002220706172656E743A2200535562
:103CB00042524F5554494E452043414C4C2074616B
:103CC000726765743A220053756263616C6C204FB1
:103CD000766572666C6F77004578636565646564C8
:103CE000206D617820535542524F5554494E45201E
:103CF00064657074683A002E0A0044656C657469E6
:103D00006F6E206661696C65642C2046696C653A4B
:103D1000200046696C652064656C657465643A00D2
:103D200041425300504C41005344207072696E74FC
:103D3000696E67206279746520004E6F7420534469
:103D4000207072696E74696E670A002F6175746FF6
:103D500025632E670057726974696E6720746F203F
:103D600066696C653A2000667265736800646F6905
:103D70006E67002066696C653A20004E6F77200000
:103D80000000000000000000000000000000000033
:103D90000000000000000000000000000000000023
:103DA0000000000000000000000000000000000013
:103DB0000000000000000000000000000000000003
:103DC00000000000000000000000000000000000F3
:103DD00000000000000000000000000000000000E3
:103DE00000000000000000000000000000000000D3
:103DF00000000000000000000000000000000000C3
:103E000000000000000000000000000000000000B2
:103E100000000000000000000000000000000000A2
:103E20000000000000000000000000000000000092
:103E30000000000000000000000000000000000082
:103E40000003FFF000000000000000000000000080
:103E5000001FFFE000000000000000000000000064
:103E6000003FC07C000000000000000000000000D7
:103E7000007C0FFF80000000000000000000000038
:103E800000F87FFFE00000000000000000000000DC
:103E900001F0FFFF780000000000000000000000BB
:103EA00001E1FFFFBC001FFF83FFE1F00E3FFF00B9
:103EB00001E3FFFFEE001FFFC7FFF1F80E3FFFC059
:103EC00001C3FF8FF7001E03CF0071FC0E3C03E01F
:103ED00001C3FE01FB801E03CE0079DE0E3C01E033
:103EE00001C7FC007DC01FFF8E0079CF0E3C01E0B2
:103EF00001C7FC003EE01FFFCE0079C7CE3C01E0C9
:103F000001E7FC001F701E01CE0079C1EE3C01E00C
:103F100001E7FC000FB81E01CF0079C0FE3C01E0B4
:103F200000E3FC0007F81FFFC7FFF1C07E3FFFC0A2
:103F300000F3FC0007DC1FFF87FFE1C03E3FFF806E
:103F40000073FE0003EC0FF800FF00000C1FF000F0
:103F50000071FE0003EE0000000000000000000001
:103F60000039FF0003F60000000000000000000020
:103F70000618FF8003F700000000000000000000AA
:103F8000071CFFC003F71FFFDFFF1FFE1C01C0005F
:103F9000030E7FE007F31FFFDFFF3FFF1C01C000A0
:103FA00001863FF807FB00701C0038079C01C00029
:103FB00001C33FFFFFFB00701C0038039C01C000E1
:103FC00000F39FFFFFFB00701FFF38001FFFC000C2
:103FD00000798FFFFFF780701FFF38001FFFC000C0
:103FE000007CC7FFFFF780701C0038079C01C000F1
:103FF000003F01FFFFED80701C0038079C01C000EE
:10400000001FE0FFFFED80701FFF3FFF1C01C0009D
:10401000001FF03FFFCD00701FFF1FFE1C01C000FE
:10402000000FFC0FFF1D000000000000000000005A
:104030000007FE01FC1B0000000000000000000063
:104040000003FF80003B00000000000000000000B3
:104050000001FFF000FB0000000000000000000075
:104060000000FFFFFFF00000000000000000000063
:1040700000003FFFFFE00000000000000000000023
:1040800000001FFFFFC00000000000000000000053
:10409000000007FFFF80000000000000000000009B
:1040A000000001FFFF000000000000000000000011
:1040B0000000003FF80000000000000000000000C9
:1040C00000000000000000000000000000000000F0
:1040D00000000000000000000000000000000000E0
:1040E00000000000000000000000000000000000D0
:1040F00000000000000000000000000000000000C0
:1041000000000000000000000000000000000000AF
:10411000000000000000000000000000000000009F
:10412000000000000000000000000000000000008F
:10413000000000000000000000000000000000007F
:10414000000000000000000000000000000000006F
:10415000000000000000000000000000000000005F
:10416000000000000000000000000000000000004F
:10417000000000000000000000000000000000003F
:104180006D61726C696E66772E6F726700322E30C9
:104190002E395F4457372E342E35001FFFFFFFFFA7
:1041A000FFFF600000000001FF400000000000FF72
:1041B0008000000000007F83CF00000C303F87FFAD
:1041C00080000C301F867980000C000F8C30C78374
:1041D0008C30E78C30CFC7CC31F38C30DCECEC3357
:1041E000B98C30D86C6C33198C30D06C0C33198C82
:1041F00030D86C0C33198C30DC6C0E3B198C30CF02
:104200007C079F198C30C77C038F19400000000089
:104210000002600000000000061FFFFFFFFFFFF824
:104220001000C90210012C01400122017001180187
:10423000B0010E01F00104015002FA00B002F000DA
:104240003003E600D003DC009004D2007005C80003
:10425000A006BE000008B400B009AA00D00BA00060
:10426000600E960060118C00001582002019780005
:10427000C01D6E00A0226400B0275A00902C500090
:1042800000314600E0343C0010383200903A2800FB
:10429000603C1E00A03D1400803E0A00203F00004C
:1042A0002020506C616E6E65724275666665724262
:1042B000797465733A20002046726565204D656DFE
:1042C0006F72793A200020436F6D70696C65643AB3
:1042D0002046656220323020323032320A00204CD3
:1042E00061737420557064617465643A20323032B1
:1042F000322D30322D3035207C20417574686F723C
:104300003A20426F6E6474656368202F20496E7393
:10431000616E6974794175746F6D6174696F6E0A4D
:10432000004D61726C696E20322E302E395F445719
:10433000372E342E350A0020536F6674776172650C
:104340002052657365740A00205761746368646F56
:10435000672052657365740A002042726F776E2081
:104360006F75742052657365740A00204578746512
:10437000726E616C2052657365740A00506F7765C8
:104380007255700A0073746172740A004739310AF9
:1043900047315A350A4739300A4D38340A4D3130E1
:1043A0003453300A4D3134305330004D31303031D8
:1043B000006572726F722077726974696E6720741B
:1043C0006F2066696C650A00446F6E6520736176C4
:1043D000696E672066696C652E0A004D32390045AA
:1043E0006E6473746F7073002553202563202563FA
:1043F00020256320256300205A3A0020593A0020E6
:10440000583A00656E6473746F7073206869743A0B
:10441000200000002200250028002B002E00310083
:10442000340002010000050108010B010505050526
:10443000070508080808020202020A0A080804041C
:10444000040401010101010101010303030303034A
:104450000303040707070C0C0C0C0C0C0C0C0202D9
:10446000020206060606060606060B0B0B0B0B0BD6
:104470000B0B010210202008081020401020408063
:104480000201020108040201010204081020408018
:1044900080402010080402018004020180402010A6
:1044A00008040201080402010102040810204080EF
:1044B000010204081020408000000A0B02090C0DC4
:1044C0000E080703040100000000000000000000C7
:1044D00000000000000000000000000000000000DC
:1044E0000000000012111000000000000000000099
:1044F0000000000000000000000000000000004D6F
:104500006F76652025736D6D004D6F766520302EBA
:10451000316D6D004D6F766520316D6D004D6F769C
:10452000652031306D6D004D6F766520417869737F
:10453000004D6F7665204578747275646572004D24
:104540006F7665205A004D6F76652059004D6F7665
:1045500065205800243D203D4368616E6765204614
:10456000696C616D656E7400556E6C6F6164204698
:10457000696C616D656E74004C6F61642046696C96
:10458000616D656E74005072656865617420437575
:1045900073746F6D00507265686561742024004209
:1045A00061636B005072696E742066726F6D204D8E
:1045B0006564696100FFFFFF50726F62696E67207A
:1045C0004661696C65640A0050726F62696E6720AB
:1045D0004661696C656400205A3A200020593A20EF
:1045E0000042656420583A2000726573756D6564F9
:1045F000004469736D69737300526573756D696EFC
:10460000670073686F770044697361626C65527507
:104610006E6F75740050757267654D6F72650050EE
:10462000617573656400656E6400436F6E74696ED6
:104630007565004C6F61642046696C616D656E74D0
:10464000205400496E736572742066696C616D65F3
:104650006E7420616E642073656E64204D31303855
:104660000A00220A00556E6B6E6F776E20636F6DC5
:104670006D616E643A2022002042002050006F6B72
:1046800000204500205A0020590020204D393220BA
:10469000580053746570732070657220756E69746C
:1046A0000020746F6F206C6F6E6720657874727570
:1046B00073696F6E2070726576656E7465640A004A
:1046C00020636F6C6420657874727573696F6E20F7
:1046D00070726576656E7465640A0020453A002044
:1046E0005A3A0020593A00583A006F6B0A00526556
:1046F00073656E643A200033303020537550655234
:104700002052656164792E005072696E74696E671B
:104710002E2E2E005072696E742050617573656480
:10472000006E6F74696669636174696F6E20000062
:10473000DC00FC0111241FBECFEFD1E2DEBFCDBFF4
:1047400000E00CBF84B78093C81914BE0FB6F8946C
:10475000A89580916000886180936000109260004D
:104760000FBE13E0A0E0B2E0EAE1F8EE02E00BBF1A
:1047700002C007900D92A83EB107D9F729E1A8EE33
:10478000B3E001C01D92A83CB207E1F713E2C9E90A
:10479000D3E200E006C021970109802FFE010F94AB
:1047A0006E70C839D10780E00807A9F70F94385D0B
:1047B0000D94FB730C940000FC0184910895FC019E
:1047C00080810895119800C09091020187FD909515
:1047D000917090930001119A00C000C0119800C020
:1047E0009091020186FD9095917090930001119A2D
:1047F00000C000C0119800C09091020185FD909505
:10480000917090930001119A00C000C0119800C0EF
:104810009091020184FD9095917090930001119AFE
:1048200000C000C0119800C09091020183FD9095D6
:10483000917090930001119A00C000C0119800C0BF
:104840009091020182FD9095917090930001119AD0
:1048500000C000C0119800C09091020181FD9095A8
:10486000917090930001119A00C000C0119800C08F
:1048700080910201817080930001119A00C000C0F4
:10488000089590E080E00895CF93DF93DB01F90174
:104890009C919130C1F0943080F094509C9388307A
:1048A000D1F480819181009771F001979183808389
:1048B000480F591FEA01188206C08C3539F49C5FF5
:1048C0009C93943041F4DF91CF9108958B3339F765
:1048D00081E08C93F8CF20813181B9016F5F7F4FE8
:1048E00071836083420F531FEA0188838081918125
:1048F0008F3591056CF7E7CF0F931F9381E00091FF
:10490000B9171091BA172091BB173091BC1740917D
:10491000B5175091B6176091B7177091B817041773
:1049200015072607370708F480E01F910F910895B7
:1049300090E080E0089520917105833021F425FDF9
:104940000CC024FD0CC030E0A90102C0559547956C
:104950008A95E2F7CA018170089581E0089580E0A8
:1049600008958091900584FD0BC08091920587FD8C
:1049700007C090919305937081E019F480E0089549
:1049800081E00895CF92DF92EF92FF92CF93DF9371
:10499000EC01CC80DD80EE80FF8027E137EB41ED3C
:1049A00058EBC701B6010F94D77287FD23C023E0EF
:1049B00030E04BE953E4C701B6010F94856918163E
:1049C000CCF0C880D980EA80FB8027E137EB41ED4D
:1049D00058EBC701B6010F94D77287FD0BC0C1E039
:1049E00023E030E84DE953E4C701B6010F9485692F
:1049F00018160CF4C0E08C2FDF91CF91FF90EF9050
:104A0000DF90CF9008952FEB280F2A3108F047C090
:104A1000E22FF0E08091900590919105A091920590
:104A2000B091930504C0B695A795979587952A955B
:104A3000D2F780FD02C081700895EE58FA4FE081F0
:104A4000EE2341F180910E0A90910F0AE80FF92FA1
:104A5000F11D808190ED980F9A3030F08E3251F434
:104A6000818180538A3098F4F0936105E09360056A
:104A700081E008958D3211F08B3249F4818190EDFF
:104A8000980F9A3088F38E3211F48281EACFF0E0E9
:104A9000E0E0EACF1092610510926005E9CF80E076
:104AA00008950E940325882341F081E0209160054C
:104AB00030916105232B09F480E008952F923F92F5
:104AC0004F925F926F927F928F929F92AF92BF921E
:104AD000CF92DF92EF92FF920F931F93CF93DF93CA
:104AE000CDB7DEB72E970FB6F894DEBF0FBECDBFA1
:104AF000E82ED62E042F122F282F30E03C872B874C
:104B0000462F50E05A87498765E0F62EF29EC00195
:104B1000F39E900D11249E878D87FA01E80FF91FEF
:104B2000EE0FFF1FEE0FFF1FEE57F94F60817181EF
:104B3000828193819B01AC010F946973882309F4EE
:104B400034C1E00E612F6D0DFE9CF0011124A9858A
:104B5000BA85AE0FBF1FAA0FBB1FAA0FBB1FAE5750
:104B6000B94FAC901196BC9011971296CC901297B9
:104B70001396DC90E00EFE9CA0011124A985BA8555
:104B8000A40FB51FAA0FBB1FAA0FBB1FAE57B94F6B
:104B9000EC901196FC90119712960C911297139627
:104BA0009C90862F90E0AD85BE85A80FB91FAA0FF7
:104BB000BB1FAA0FBB1FAE57B94F8C9011967C90AC
:104BC000119712966C90129713965C90610F70E09B
:104BD000AD85BE85A60FB71FAA0FBB1FAA0FBB1FAF
:104BE000AE57B94F4C9011963C90119712961C916C
:104BF000129713962C90E80FF91FEE0FFF1FEE0F80
:104C0000FF1FEE57F94FB081B98321812A8332818A
:104C10003B8383818C83FA01E60FF71FEE0FFF1FA2
:104C2000EE0FFF1FEE57F94F90819D83A181AE8358
:104C3000B281BF83238128879701402F592DB70167
:104C4000802F992D0F946973882321F0E12CF12C8A
:104C500000E0912C9501A601B501C6010F9469737E
:104C6000882319F05701C02ED92C242D332D412F24
:104C7000522D642D732D812F922D0F9469738823EB
:104C800021F0412C312C10E0212C282D372D462DE0
:104C9000552D682D772D862D952D0F9469738823BA
:104CA00021F0842C732C612E522C2D813E814F815A
:104CB00058856D817E818F8198850F9469738823D3
:104CC00021F01D821E821F82188629813A814B8124
:104CD0005C8169817A818B819C810F9469738823BF
:104CE00041F03D8139834E814A835F815B838885B2
:104CF0008C8385E0EB85FC858E9FD0018F9FB00D66
:104D0000112429853A85A20FB31FAA0FBB1FAA0F32
:104D1000BB1FAE57B94FBA87A9879501A601B50148
:104D2000C6010F9477709701402F592D0F9476701C
:104D30006B017C01282D372D462D552D682D772DA3
:104D4000862D952D0F947770242D332D412F522DC4
:104D50000F9476709B01AC01C701B6010F94777078
:104D60006B017C0129813A814B815C8169817A8167
:104D70008B819C810F9477702D813E814F81588566
:104D80000F9476709B01AC01C701B6010F94777048
:104D900020E030E040E450E40F947171A985BA85B9
:104DA0006D937D938D939C9313972E960FB6F894E5
:104DB000DEBF0FBECDBFDF91CF911F910F91FF904E
:104DC000EF90DF90CF90BF90AF909F908F907F90AB
:104DD0006F905F904F903F902F9008951092090A26
:104DE00080915B0290915C02A0915D02B0915E02A5
:104DF0008093FB069093FC06A093FD06B093FE06FD
:104E00000895269A2E9A0895BF92CF92DF92EF923C
:104E1000FF920F931F93CF93DF936B01E9014A3009
:104E200009F4EAC0453109F092C0DB011296ED9118
:104E3000FC911281C681D781809102018095827098
:104E40008093000100C0000086E290E00197F0F737
:104E5000012F0295007F20E1B22EB10E88EF0E9453
:104E6000E22300C0000086E290E00197F0F71032E4
:104E700008F0ACC0812F807780680E94E223802FE9
:104E80000E94E22300C0000086E290E00197F0F764
:104E900080E80E94E22380E00E94E22300C000003C
:104EA00086E290E00197F0F78AEF0E94E22300C0CB
:104EB000000086E290E00197F0F77E01B0E1EB0E92
:104EC000F11C8881807F0E94E22389918295807FF6
:104ED0000E94E223CE15DF05A1F700C0000086E2A4
:104EE00090E00197F0F71F5F005F1B11B7CF809133
:104EF0000201827080930001D6011296ED91FC911F
:104F000080819281980F92832181921708F003C2C9
:104F100094819F5F94839381890F821710F08FEFA4
:104F2000820F8383458150E0440F551F70E060E09D
:104F3000868197810F94A77381E0DF91CF911F91B4
:104F40000F91FF90EF90DF90CF90BF900895FB01FD
:104F500002811381423309F4E0C108F4E8C1463408
:104F600009F4D5C1473409F4DDC14B3329F78981F0
:104F70002B81D80112966C91129713964C91213087
:104F800009F41AC2233009F0FBC138EF380F582F4B
:104F900091E0431708F490E041E0531708F040E037
:104FA00031E0561708F430E0592F542B352319F40B
:104FB000942309F4C1CFFA8030E0F901E053FD4FAA
:104FC000D08024533D4FF901E080F3C180EE810F82
:104FD0008068807F0E94E223812F8295807F0E94DB
:104FE000E22300C0000086E290E00197F0F780E83D
:104FF0000E94E22380E850CF80910101826080937B
:105000000101809102018270809300018091010171
:105010008160809301018091020181708093000181
:10502000099A119A80910201809582708093000103
:1050300000C0000086E290E00197F0F788E790E07A
:10504000CEE9DFE0FE013197F1F70197D9F788EF5C
:105050000E94E22300C0000086E290E00197F0F792
:1050600080E20E94E22380E00E94E22300C0000070
:1050700086E290E00197F0F780E00E94E22380E86A
:105080000E94E22300C0000086E290E00197F0F762
:1050900080E00E94E22380E10E94E22300C0000041
:1050A00086E290E00197F0F7CE010197F1F7CE018B
:1050B0000197F1F7CE010197F1F7CE010197F1F7D2
:1050C000CE010197F1F7CE010197F1F7CE010197DB
:1050D000F1F7CE010197F1F7CE010197F1F7CE017B
:1050E0000197F1F7CE010197F1F7CE010197F1F7A2
:1050F000CE010197F1F7CE010197F1F72197F1F772
:1051000080E20E94E22380E40E94E22300C00000CB
:1051100086E290E00197F0F780E20E94E22380E6C9
:105120000E94E22300C0000086E290E00197F0F7C1
:10513000D0E0C0E08C2F807780680E94E2238D2F22
:105140000E94E22300C0000086E290E00197F0F7A1
:1051500080E80E94E22380E00E94E22300C0000079
:1051600086E290E00197F0F78AEF0E94E22300C008
:10517000000086E290E00197F0F790E2119800C0FD
:1051800080910201817080930001119A00C000C0DB
:10519000119800C080910201817080930001119AE2
:1051A00000C000C0119800C08091020181708093FE
:1051B0000001119A00C000C0119800C08091020146
:1051C000817080930001119A00C000C0119800C046
:1051D00080910201817080930001119A00C000C08B
:1051E000119800C080910201817080930001119A92
:1051F00000C000C0119800C08091020181708093AE
:105200000001119A00C000C0119800C080910201F5
:10521000817080930001119A00C000C0119800C0F5
:1052200080910201817080930001119A00C000C03A
:10523000119800C080910201817080930001119A41
:1052400000C000C0119800C080910201817080935D
:105250000001119A00C000C0119800C080910201A5
:10526000817080930001119A00C000C0119800C0A5
:1052700080910201817080930001119A00C000C0EA
:10528000119800C080910201817080930001119AF1
:1052900000C000C0119800C080910201817080930D
:1052A0000001119A00C000C0119800C08091020155
:1052B000817080930001119A00C000C000C00000FE
:1052C000E6E2F0E03197F0F7915009F057CF88EF20
:1052D0000E94E22300C0000086E290E00197F0F710
:1052E000CF5FD05FC03209F025CF80E00E94E2237B
:1052F00080EC0E94E22300C0000086E290E001976B
:10530000F0F78091020182708093000115CEF801C0
:105310008581888311CE80E010CEB901C8010F9439
:10532000E9520ACED80111968C91888305CE44317A
:1053300091F0473109F000CE1882D80112968C9175
:105340001297898315968C91159781508A831396AD
:105350008C918B83F1CDD80115964C91159750E027
:10536000440F551F70E060E016968D919C910F944C
:10537000A773F80112828081815083831482DCCD6F
:10538000481708F4D9CD861708F4D6CDFA80E12C59
:10539000D12C243070F410CEBE01C8010F94E95214
:1053A000898198819D0D98838E0D8983FF0C09F466
:1053B000C3CDF7FEF6CFF0CF58E0580F382FE8CD29
:1053C000EF92FF920F931F93CF93DF93EC018B012A
:1053D0007A018A859B858617970731F088819981A4
:1053E0000F94D2541B870A87B701888199810F9443
:1053F0002C482E813F81820F932F911D9F838E8396
:1054000090E080E0DF91CF911F910F91FF90EF909E
:1054100008959F92AF92BF92CF92DF92EF92FF9248
:105420000F931F93CF93DF93EC018B01942EA52E46
:105430008A859B858617970731F0888199810F941B
:10544000D2541B870A8788859985019649F5BC80C7
:105450000A818E81080FC880D980D6015596ED91BA
:10546000FC91C6011995B80EE92CFA2C10E0F70151
:1054700021917F01211127C08E819F81810F911D74
:105480009F838E8390E080E0DF91CF911F910F91F9
:10549000FF90EF90DF90CF90BF90AF909F900895D6
:1054A0000E811F81692D7A2D888199810F942C4856
:1054B000800F912F911D288539852817390738F6D7
:1054C00081E090E0E1CF4B2D602FC6010F942A556B
:1054D000080F180FCCCFDF92EF92FF920F931F931C
:1054E000CF93DF93EC01D62E1CAD0BAD7C0184E095
:1054F000E80EF11CE98DFA8DC7011995412F480F6F
:105500002D2D602FC7010F942A559BAD890F8BAFAE
:1055100081E090E0DF91CF911F910F91FF90EF908C
:10552000DF9008950F931F9380933802803208F024
:1055300046C09091A905891724F091E0980F9093A7
:10554000A90541E050E0082E02C0440F551F0A94FF
:10555000E2F7052E000C660B770B0091A505109164
:10556000A6052091A7053091A80540235123622369
:10557000732391E0452B462B472B09F490E0909341
:10558000F91087FD1FC0282F082E000C330B3F9306
:105590008F9383E499E09F938F9383E599E09F93A2
:1055A0008F931F920E94E7C88DB79EB707960FB6DC
:1055B000F8949EBF0FBE8DBF1F910F91089510925A
:1055C000F910DFCF1F910F910D948E56CF93DF937B
:1055D000C091C408D091C508209729F16091C008F6
:1055E0007091C1088091C2089091C3080F94E37133
:1055F0006E5F7F4F24976C177D07ACF470930407A0
:10560000609303070F94674D605E70448D4F9F4F0A
:105610006093050770930607809307079093080728
:10562000DF91CF910895109205071092060710920E
:10563000070710920807F4CFAB01BC014093B917DC
:105640005093BA176093BB177093BC1782E299E12D
:105650000C9429E60F931F93CF93DF9300D01F92F2
:10566000CDB7DEB79C0107EC19E090E1E3E4F1E18E
:10567000D80101900D929A95E1F7F90120813181CD
:1056800042815381F80160857185828593850F94ED
:105690007770F801608771878287938780E090E058
:1056A000A0EAB0E489839A83AB83BC83CE010196E0
:1056B0000F940A290F900F900F900F90DF91CF91C8
:1056C0001F910F9108952F923F924F925F926F9288
:1056D0007F928F929F92AF92BF92CF92DF92EF9282
:1056E000FF921F93CF93DF93CDB7DEB72C970FB602
:1056F000F894DEBF0FBECDBF7A011901DC012D91F8
:105700003D914D915C912D833E834F835887FB01E2
:10571000408051806280738080904311909044114A
:10572000A0904511B0904611A50194016D817E8134
:105730008F8198850F94856981110EC011E0A301B6
:105740009201609147117091481180914911909197
:105750004A110F948569811110E0D1012D913D917D
:105760004D915C9129873A874B875C87F701C08010
:10577000D180E280F3802091140230911502409193
:10578000160250911702C701B6010F94856988234C
:1057900009F44EC0C0921402D0921502E092160293
:1057A000F092170280914F1190915011A0915111D8
:1057B000B091521140914711509148116091491197
:1057C00070914A118092C7099092C809A092C909A4
:1057D000B092CA094093CB095093CC096093CD098C
:1057E0007093CE09C092CF09D092D009E092D1092E
:1057F000F092D2098093D3099093D409A093D5094C
:10580000B093D60920E030E040E05FE360912711DB
:10581000709128118091291190912A110F94EB69B0
:1058200069837A838B839C83CE0101960F940A2926
:105830002D813E814F8158852093C7093093C80937
:105840004093C9095093CA094092CB095092CC09A0
:105850006092CD097092CE09D1012D913D914D916B
:105860005C916091D3097091D4098091D509909190
:10587000D6090F9477706093D3097093D4098093FD
:10588000D5099093D60911112FC020E030E0A9016D
:1058900069857A858B859C850F948569811133C0D4
:1058A00060E070E088EC92E469837A838B839C8368
:1058B000CE0101960F940A292C960FB6F894DEBFFC
:1058C0000FBECDBFDF91CF911F91FF90EF90DF9082
:1058D000CF90BF90AF909F908F907F906F905F9090
:1058E0004F903F902F9008952AEF3EE74AE25FE302
:1058F00060912B1170912C1180912D1190912E118E
:105900000F94EB69D1CF60E070E080EA91E4CCCFF6
:10591000CF93DF9300D01F92CDB7DEB780E090E049
:10592000A0EAB0E489839A83AB83BC8361E0CE01B3
:1059300001960F94780E0F900F900F900F90DF91BB
:10594000CF9108958091600590916105009731F0A5
:105950004AE050E070E060E00D94A06760E070E025
:10596000CB0108958091180A82FF0BC063E687E29D
:105970009AE00E9402C90F94734D0E94D3CF81E038
:10598000089580E0089580916005909161050097E9
:1059900031F04AE050E070E060E00D94726660E043
:1059A00070E0CB010895CF93DF93EB010E94512566
:1059B000882319F00E94C32CEB01CE01DF91CF9117
:1059C00008950E94C32C97FD0CC00E94C32C6F3F0A
:1059D00071058105910509F034F40E94C32C862FCE
:1059E000089580E008958FEF0895CF93C62F0E9409
:1059F0005125882319F0CF910C94E12C8C2FCF9155
:105A000008958091600590916105892B41F00E9475
:105A1000E12C91E0811101C090E0892F089591E07F
:105A2000FCCFCF93DF93C82FD62F0E945125882318
:105A300021F0DF91CF910C94012D8C2F0E94032532
:105A4000811101C08D2FDF91CF9108950E94C32C49
:105A5000CB010895CF93DF939091FA1093FD60C02E
:105A6000C82F89E40E945125882309F449C00E9467
:105A7000E12C90E01816190614F481E090E026E07D
:105A8000289FF001299FF00D1124ED52F74F8281DC
:105A90009381D0E08C38910514F08CE890E09093DD
:105AA000C5088093C4080E94E62A6091C4087091DA
:105AB000C508072E000C880B990B0F948C69209158
:105AC000C0083091C1084091C2085091C3080F949A
:105AD000D772181694F08BEA98E160E00E9402C930
