:100000000C94A8240C94E8240C94E8240C94E82480
:100010000C94E8240C94E8240C94E8240C94E82430
:100020000C94E8240C94E8240C94E8240C94E82420
:100030000C94E8240C94E8240C94E8240C94E82410
:100040000C94E8240C94E2F40C94E8240C94E82436
:100050000C94E8240C9466F30C94E8240D94FC535F
:100060000C94E8240C947F580C9475580C94E82454
:100070000C94E8240C94E8240C94E8240C94E824D0
:100080000C944B450C94E8240C94E8240C94E8243C
:100090000C94E8240C94E8240C94E8240C94E824B0
:1000A0000C94E8240C94E8240C941D450C94E8244A
:1000B0000C94E8240C94E8240C94E8240C94E82490
:1000C0000C94E8240C94E8240C94E8240C94E82480
:1000D0000C94E8240C94E8240C94E8240C94E82470
:1000E0000C94E824084AD73B3BCE016E84BCBFFD8C
:1000F000C12F3D6C74319ABD56833DDA3D00C77FF8
:1001000011BED9E4BB4C3E916BAAAABE0000008090
:100110003F05A84CCDB2D44EB93836A9020C50B91F
:10012000918688083CA6AAAA2ABE000000803F004B
:100130000C94DB950C94CEBB0D94504E0C946197AF
:100140000C94C79E0C94D8D60C9448990C9475972F
:100150000C9415590C94FD970C9415980C94BDA112
:100160000C9438D70C94429B0C94089B0C944A92A4
:100170000C94C5990C94ED240C94F2950C94C8A1A0
:100180000C9446430C94069E0C94BCA00C9466CD33
:100190000C94AD970C9493A00C945E9F0C9460CD3E
:1001A0000C94FC420C94DC420C94B1B80C9437B320
:1001B0000D94962E0C9485D60C94EDC40C94F7D621
:1001C0000D947D4E0C9412280C94C0A10C9462E006
:1001D0000C94B9950C94E69D0C94B8BD0C942DE349
:1001E0000D94614E0C940C980C940F980C9423BAB7
:1001F0000C946CCD0C94E7440C94D1990C94C79555
:100200000C9447C20C940C990C946AE40D94C32E80
:100210000C94BD920C948ACD0C94FC270C942EA2C5
:100220000C94CB990C94CF990D94F25D0C9454CD11
:100230000C94B7A10D945B4E0C94C3990C94AB95A0
:100240000C94B0420C9469AC0C940B950C9484CD36
:100250000C9455B00C94C7990C94539F0C943395FF
:100260000C94F7940C9429950C946B950C94204362
:100270000C94C9990C9466D60C94172B0C9462C9F3
:100280000C9402CE0C9456A20C943DE40C948DCBAD
:100290000C94009B0C94EE2A0C948DA00C94B14409
:1002A0000C9498E20C94089F0C9472CD0C94B4A119
:1002B0000C94CDA10C9425590C94A3A10C942BE47F
:1002C0000D94584E0D946B4E0C946B970D946D2FAE
:1002D0000C9402990C946FB40C94C7A00C94E6BBD8
:1002E0000C94C8DD0C94C3A10C946E520C9411595B
:1002F0000C945D950C94F5A30C94C5980C94049BF8
:100300000D94654E0C9461E00C94EC580D94794E6C
:100310000C9484D70C9478CD0D944C4E0C944EE3F1
:100320000C948D950C941D590C9449950C9492E362
:100330000C94CC440C94D0A10C9424430C945AAC4F
:100340000D948B4E0C94B1B10C9456970C94B1A1B2
:100350000C94BF9E0C94FE420C947F990C9437969B
:100360000C94FA9D0C946D920C945FAC0C943A9F93
:100370000C944F250C94219F0C94D3990D94814E8D
:100380000C94BAA10D94874E0C9457D70C943997BE
:100390000C94BDB60C94EF9E0C9422DE0C94FE9D42
:1003A0000C9415950C9464AC0D94354E0C94F69DFC
:1003B0000D94C42E0D94544E0C94DFDF0C9461A95F
:1003C0000C94CAA10C9443590C94F29D0C942243B2
:1003D0000C9402450C94C49B0C94BCC30C943297AF
:1003E0000C9444430C94BD580C94AEA10C941298F8
:1003F0000C944EAF0C94FB580C94533D0C94EE9D12
:100400000C94D6B30C949CCD0C9490CD0C94029E7D
:100410000D946F4E0C9421590C94EA9D0C9400435A
:100420000C943B590D94734E0C94E3940C9434E566
:100430000C9430980C94ADA60C94A2A50C942E9715
:100440000C9470970C94F42B0C94792B0C942EDE56
:100450000C94C4BB0C9496CD0C94E29D0D94D45D89
:100460000C9491B20C940A590C94A1950C94669733
:100470000C943ECE0C9472D10C9431A20C941CDEE0
:100480000C9409960C94D6920C94A3C00C94ADE3F2
:100490000C94BC420C94CD990C9476920C941959FE
:1004A0000C94DA420D943A4E0C94DEAC0C9489997B
:1004B0000C94BEE10C9430590C94EA240C944843FB
:1004C0000C945ACD0C949E9E0C9479950C94209685
:1004D0000C94B3A00C947ECD0C94B5E20C944CB566
:1004E0000C9429594E414E494E495459494E46CDD6
:1004F000CCCC3D0AD7233C17B7D13877CC2B3295DB
:1005000095E6241FB14F0A000020410000C84200B8
:10051000401C4620BCBE4CCA1B0E5AAEC59D740082
:10052000407A10F35A00A0724E18090010A5D4E8C2
:100530000000E87648170000E40B54020000CA9A55
:100540003B000000E1F505000080969800000040A7
:10055000420F000000A086010000001027000000EC
:1005600000E803000000006400000000000A000032
:100570000000000100000000002C76D888DC674FE6
:100580000823DFC1DFAE59E1B1B796E5E3E453C616
:100590003AE651997696E8E6C28426EB898C9B620E
:1005A000ED407C6FFCEFBC9C9F40F2BAA56FA5F4B8
:1005B00090055A2AF75C936B6CF9676DC11BFCE0E0
:1005C000E40D47FEF520E6B500D0ED902E03009433
:1005D0003577050080841E080000204E0A000000C8
:1005E000C80C333333330F986E12831141EF8D21D2
:1005F00014893BE65516CFFEE6DB18D1844B381B39
:10060000F77C1D901DA4BBE424203284725E2281FD
:1006100000C9F124ECA1E53D27434F4D4D554E490E
:10062000434154494F4E0044525952554E00455291
:10063000524F525300494E464F004543484F0045E4
:1006400072726F722077726974696E6720746F209E
:10065000454550524F4D210A0053544F5050454488
:100660002E20005072696E7465722073746F707002
:1006700065642064756520746F206572726F727393
:100680002E2046697820746865206572726F72202A
:10069000616E6420757365204D39393920746F207F
:1006A000726573746172742E202854656D70657262
:1006B00061747572652069732072657365742E208C
:1006C0005365742069742061667465722072657365
:1006D00074617274696E67290A004E6F2043686501
:1006E000636B73756D2077697468206C696E652023
:1006F0006E756D6265722C204C617374204C696E4E
:10070000653A20004E6F20436865636B73756D20FA
:1007100077697468206C696E65206E756D626572AC
:100720002C204C617374204C696E653A200063681C
:1007300065636B73756D206D69736D617463682C8F
:10074000204C617374204C696E653A20004C696ED0
:1007500065204E756D626572206973206E6F74201E
:100760004C617374204C696E65204E756D626572C4
:100770002B312C204C617374204C696E653A20003B
:100780004D3131300053657269616C20737461744E
:100790007573206D69736D617463680A00776169B0
:1007A000740A0053442072656164206572726F722E
:1007B0000A00486F74656E642049646C6520546952
:1007C0006D656F757400486F74656E642049646C64
:1007D000652054696D656F75740A002121204B49AD
:1007E0004C4C20636175736564206279204B494CE1
:1007F0004C20627574746F6E2F70696E0A0021212F
:10080000204B494C4C2063617573656420627920EC
:10081000746F6F206D75636820696E6163746976AB
:10082000652074696D65202D2063757272656E7424
:1008300020636F6D6D616E643A2000706175736541
:10084000004D363030002066696C616D656E745FF6
:1008500072756E6F7574200066696C616D656E747B
:100860005F72756E6F757420540046696C616D65BA
:100870006E7452756E6F75742054004D65646961B5
:100880002052656D6F766564004D6564696120492D
:100890006E736572746564004D31303030530062A0
:1008A0007573793A2070617573656420666F722084
:1008B000696E7075740A00627573793A207061759B
:1008C00073656420666F7220757365720A006275C5
:1008D00073793A2070726F63657373696E670A008B
:1008E000506C6561736520526573657400505249A0
:1008F0004E5445522048414C5445440025533A201B
:10090000255300706F7765726F6666004B494C4CDB
:1009100045442E20005072696E7465722068616CC7
:100920007465642E206B696C6C28292063616C6C83
:100930006564210A0053544F505045442E20005006
:1009400072696E7465722073746F70706564206470
:10095000756520746F206572726F72732E20466900
:100960007820746865206572726F7220616E6420F1
:10097000757365204D39393920746F207265737431
:100980006172742E202854656D7065726174757281
:10099000652069732072657365742E205365742019
:1009A0006974206166746572207265737461727413
:1009B000696E67290A006563686F3A004572726F55
:1009C000723A0042696C696E656172204C657665A9
:1009D0006C696E6720477269643A0A0021212053CE
:1009E000544F502063616C6C65642062656361756F
:1009F0007365206F6620424C546F75636820657282
:100A0000726F72202D207265737461727420776921
:100A10007468204D3939390A0021212053544F5030
:100A20002063616C6C656420626563617573652029
:100A30006F6620424C546F756368206572726F72E6
:100A4000202D207265737461727420776974682038
:100A50004D3939390A005072696E74696E67204FDA
:100A6000626A656374002553202569002F2F616336
:100A700074696F6E3A0073746172740070726F6D96
:100A800070745F00627574746F6E00626567696E82
:100A900000486F74656E6420746F6F20636F6C64C0
:100AA0000A0053656E64204D31303820746F207217
:100AB0006573756D650A00496E73657274206669A9
:100AC0006C616D656E7420616E642073656E642068
:100AD0004D3130380A0052656865617420446F6E8C
:100AE0006500526568656174696E672E2E2E00522E
:100AF0006568656174004865617465722054696D4C
:100B0000656F75740053656E64204D313038207404
:100B10006F2068656174206E6F7A7A6C650A004E8A
:100B20006F7A7A6C65205061726B656400706175D4
:100B30007365640050617573650047323620436108
:100B40006E63656C65640047323620486561746980
:100B50006E67204E6F7A7A6C6500473236204865A2
:100B60006174696E67204265640057616974696EDB
:100B70006720666F72206865617475702E0A004682
:100B800069786564204C656E677468205072696D81
:100B90006500446F6E65205072696D696E67004D27
:100BA000616E75616C207072696D696E672E2E2E94
:100BB000004C656176696E6720473236003F53709E
:100BC0006563696669656420582C5920636F6F728C
:100BD00064696E617465206F7574206F6620626F42
:100BE000756E64732E0A003F285229657065617422
:100BF0002076616C7565206E6F7420706C61757302
:100C000069626C653B206D75737420626520617448
:100C1000206C6561737420312E0A003F5370656348
:100C20006966696564206E6F7A7A6C652074656D9B
:100C30007065726174757265206E6F7420706C617E
:100C4000757369626C652E0A003F5370656369664F
:100C50006965642066696C616D656E742073697A7C
:100C600065206E6F7420706C61757369626C652E9F
:100C70000A003F5370656369666965642070726934
:100C80006D65206C656E677468206E6F7420706C83
:100C900061757369626C652E0A003F537065636904
:100CA00066696564206E6F7A7A6C652073697A650F
:100CB000206E6F7420706C61757369626C652E0AAA
:100CC000003F52657472616374696F6E204D756C7C
:100CD0007469706C696572206D757374206265202B
:100CE0007370656369666965642E0A003F537065B9
:100CF0006369666965642052657472616374696FC3
:100D00006E204D756C7469706C696572206E6F74BD
:100D100020706C61757369626C652E0A003F5370B8
:100D200065636966696564206C61796572206865D0
:100D300069676874206E6F7420706C617573696286
:100D40006C652E0A0043292E0A003F5370656369C3
:100D500066696564206265642074656D70657261A2
:100D600074757265206E6F7420706C617573696242
:100D70006C65202834302D00473236207374617240
:100D800074696E672E2E2E0A004F46460A00466191
:100D90006465204865696768742000426564204C7A
:100DA0006576656C696E6720004661696C656420D4
:100DB000746F20656E61626C6520426564204C65CD
:100DC00076656C696E670A00496E76616C696420AD
:100DD0006D6573682E0A0050726F62696E672050ED
:100DE0006F696E740025532025692F2569002E0A2E
:100DF000002F0050726F62696E67206D6573682006
:100E0000706F696E742000202844525952554E2943
:100E100000473239204175746F20426564204C656B
:100E200076656C696E67003F20284C2C522C462C4E
:100E30004229206F7574206F6620626F756E64732F
:100E40002E0A003F2856296572626F7365206C6513
:100E500076656C20696D706C61757369626C652074
:100E600028302D34292E0A00426164205A207661F0
:100E70006C75650A004E6F2062696C696E656172FF
:100E800020677269640A00446576696174696F6EEF
:100E90000025533A2025730046696E6973686564BE
:100EA000210A003A207A3A2000206F662000476F1E
:100EB000696E6720746F3A20580043570A00206417
:100EC00069723A0020616E676C653A005374617212
:100ED00074207261646975733A004D343820506F24
:100EE000696E740025533A2025642F256400506FE5
:100EF000736974696F6E696E6720746865207072BB
:100F00006F62652E2E2E0A003F4C656773206F6658
:100F1000206D6F76656D656E7420696D706C61759E
:100F20007369626C652028302D3135292E0A003F07
:100F30002028582C5929206F7574206F6620626F05
:100F4000756E64732E0A0050726F6265206F75743F
:100F5000206F6620626F756E6473003F53616D7021
:100F60006C652073697A65206E6F7420706C617592
:100F70007369626C652028342D3530292E0A004DA6
:100F80003438205A2D50726F626520526570656149
:100F9000746162696C69747920546573740A003FE6
:100FA0002856296572626F7365206C6576656C20C2
:100FB000696D706C61757369626C652028302D34C1
:100FC000292E0A005374616E646172642044657650
:100FD000696174696F6E3A20002052616E67653AEC
:100FE0002000204D61783A2000204D696E3A2000A3
:100FF000205369676D613A20004D65616E3A2000AB
:1010000020440020204D32303020530020284469F5
:101010007361626C6564293A0046696C616D656E46
:10102000742073657474696E67730020204D3230CC
:10103000312058004D617820416363656C657261B1
:1010400074696F6E2028756E6974732F733229006E
:1010500020204D3230332058004D61782066656580
:101060006472617465732028756E6974732F7329B7
:101070000020520020204D32303420500041636364
:10108000656C65726174696F6E2028756E69747322
:101090002F7332292028503C7072696E742D616361
:1010A00063656C3E20523C726574726163742D619D
:1010B0006363656C3E20543C74726176656C2D618F
:1010C0006363656C3E29005741524E494E472120CB
:1010D0004C6F77205A204A65726B206D6179206CC5
:1010E00065616420746F20756E77616E746564202D
:1010F0007061757365732E0A002054002053002020
:10110000204D323035204200416476616E63656463
:101110002028423C6D696E5F7365676D656E745F14
:1011200074696D655F75733E20533C6D696E5F66D3
:10113000656564726174653E20543C6D696E5F74D0
:10114000726176656C5F66656564726174653E2088
:10115000583C6D61785F6A65726B3E20593C6D61E9
:10116000785F6A65726B3E205A3C6D61785F6A6594
:10117000726B3E20453C6D61785F6A65726B3E29FB
:101180000020440020490020204D33303120500001
:10119000486F74656E642050494400204400204923
:1011A0000020204D333034205000426564205049E7
:1011B000440020580020204D61783A200020002073
:1011C000204D696E3A2000203B200020204D323116
:1011D00031205300536F667420656E6473746F70B2
:1011E0007300203B0020550020204D363033204C2A
:1011F0000046696C616D656E74206C6F61642F755B
:101200006E6C6F6164004D323453256C6454256CF0
:1012100064004739322E394525730047314625642D
:101220000047315A25734636303000473158257310
:101230005925734633303030004D313036502569F2
:10124000532569004D313039532569004D32303016
:10125000442573004739322E395A2573004D3432F4
:10126000305325635A25730047323852305859009D
:1012700047315A257346363030004739322E395AB5
:101280002573004739322E394530004D31303953FE
:101290002569004D313930532569004D34323020F5
:1012A0005330205A3000203B200020204D34313371
:1012B000205300506F7765722D6C6F7373207265C9
:1012C000636F76657279003B200020496E76616C11
:1012D0006964206578747275646572200047322FE6
:1012E00047332062616420706172616D657465725C
:1012F000730A00536C6565702E2E2E005A205072B2
:101300006F62652050617374204265640A005A2040
:1013100050726F62652050617374204265640047AB
:1013200032384C3000205A3A200020593A200042EE
:10133000656420583A20004D65736820706F696EAF
:1013400074206F7574206F662072616E67650A0085
:101350004D302053746F70004D312053746F700006
:10136000436C69636B20746F20526573756D652ED5
:101370002E2E004E6F204D6F76652E00456E642038
:1013800066696C65206C6973740A00426567696EF2
:101390002066696C65206C6973740A004E6F206D5D
:1013A000656469610A00526573756D696E672053E3
:1013B0004400286E6F2066696C652900437572725F
:1013C000656E742066696C653A20005072696E74AF
:1013D0002074696D653A20000A53746174733A2071
:1013E00046696C616D656E7420757365643A2000A2
:1013F0002C204C6F6E67657374206A6F623A200010
:10140000546F74616C2074696D653A200053746187
:1014100074733A20002C204661696C65643A2000A0
:101420002C2046696E69736865643A2000507269C1
:101430006E74733A200053746174733A20006F6BBA
:10144000006F6666003A0635062E06270619064422
:10145000454255473A004D313133205300544D3306
:101460004420435231305632204F46462E002F2F13
:10147000004D31343520533C696E6465783E206FF1
:101480007574206F662072616E67652028302D317B
:10149000290A0046523A0020466C6F773A20003AFB
:1014A000200020536572766F2000206F7574206FC6
:1014B000662072616E67650A00536572766F200060
:1014C00064697300656E0043290A0061626C65649B
:1014D00020286D696E2074656D702000436F6C6408
:1014E0002065787472756465732061726520004FA1
:1014F0004646004F4E00203B20486F7374206861C1
:101500006E646C696E6720006D6D00203B2044693D
:101510007374616E6365200046696C616D656E74FD
:101520002072756E6F757420004D34323120696EF3
:10153000636F727265637420706172616D6574654A
:10154000722075736167650A004D65736820706F5E
:10155000696E74206F7574206F662072616E6765A6
:101560000A004F666673657473204170706C69651C
:1015700064004572723A20546F6F206661722100D8
:10158000546F6F206661722066726F6D207265669F
:101590006572656E636520706F696E740A004545FB
:1015A00050524F4D204F4B0A004D383400446F6E5F
:1015B00065207072696E74696E672066696C650A71
:1015C000004D3737004D33310020204D323036206A
:1015D0005800486F6D65206F6666736574004361DF
:1015E000703A00434F4E4649475F4558504F52545A
:1015F000004D4541545041434B00434F4F4C4552E1
:101600005F54454D50455241545552450043484161
:101610004D4245525F54454D5045524154555245F7
:1016200000424142595354455050494E470041529F
:101630004353004D4F54494F4E5F4D4F4445530067
:10164000544845524D414C5F50524F5445435449C4
:101650004F4E00455854454E4445445F4D3230008E
:10166000435553544F4D5F4649524D574152455F84
:1016700055504C4F4144004C464E5F5752495445DB
:10168000004C4F4E475F46494C454E414D45004149
:1016900055544F5245504F52545F53445F53544139
:1016A0005455530053445F575249544500524550D6
:1016B000454154005344434152440050524F4D5011
:1016C000545F535550504F525400484F53545F414C
:1016D0004354494F4E5F434F4D4D414E4453004597
:1016E0004D455247454E43595F5041525345520074
:1016F000434153455F4C494748545F42524947482C
:10170000544E45535300544F47474C455F4C49474F
:1017100048545300534F4654574152455F504F571A
:101720004552004255494C445F50455243454E5442
:10173000004C4556454C494E475F44415441005A80
:101740005F50524F42450052554E4F55540041553F
:10175000544F4C4556454C005052494E545F4A4FE9
:10176000420050524F4752455353004155544F5237
:1017700045504F52545F54454D50004155544F52BF
:1017800045504F52545F504F5300564F4C554D45A6
:101790005452494300454550524F4D0042494E4135
:1017A00052595F46494C455F5452414E534645524B
:1017B0000053455249414C5F584F4E5F584F464683
:1017C000004649524D574152455F4E414D453A4DB5
:1017D00061726C696E20322E302E395F4457372E7D
:1017E000342E3520544D33442053534D444242202F
:1017F0002846656220323020323032322031393A88
:1018000033393A32392920534F555243455F434FBC
:1018100044455F55524C3A68747470733A2F2F6781
:1018200069746875622E636F6D2F496E73616E699E
:1018300074794175746F6D6174696F6E2F4D61724B
:101840006C696E2F747265652F437265616C697483
:10185000794477696E5F322E302050524F544F4397
:101860004F4C5F56455253494F4E3A312E30204D22
:10187000414348494E455F545950453A544D3344CD
:101880002043523130563220455854525544455227
:101890005F434F554E543A3120555549443A63659C
:1018A0006465326132662D343161322D343734381B
:1018B0002D396231322D6335356336326633363732
:1018C00066660A0050726F6265204F6666736574C3
:1018D000205A0050726F6265204F666673657420EF
:1018E0005A00290A0020746F20003F5A206F757437
:1018F000206F662072616E6765202800290A00202B
:10190000746F20003F59206F7574206F66207261DC
:101910006E676520282D00290A0020746F20003F83
:1019200058206F7574206F662072616E676520287D
:101930002D00203B0020204D3835312058005A2DF5
:1019400050726F6265204F66667365740043616E06
:101950006E6F74206F70656E20737562646972209B
:10196000002569730025696D202569730025696864
:101970002025696D20256973002569642025696823
:101980002025696D20256973002569792025696402
:10199000202569682025696D2025697300436F6FD4
:1019A0006C696E672E2E2E0048656174696E672E15
:1019B0002E2E0045312025530042656420436F6F71
:1019C0006C696E672E2E2E00426564204865617436
:1019D000696E672E2E2E0023646566696E6520444D
:1019E000454641554C545F00626564004B642000DD
:1019F0004B6920004B702000504944204175746FA2
:101A000074756E652066696E69736865642120501F
:101A1000757420746865206C617374204B702C2081
:101A20004B6920616E64204B6420636F6E73746138
:101A30006E74732066726F6D2062656C6F772069BB
:101A40006E746F20436F6E66696775726174696F3B
:101A50006E2E680A00504944204175746F74756E8B
:101A600065206661696C6564212074696D656F75B8
:101A7000740A00504944204175746F74756E652076
:101A80006661696C6564212054656D70657261746E
:101A900075726520746F6F20686967680A00504925
:101AA00044204379636C65730025532025692F25F5
:101AB0006900204B643A2000204B693A2000204BFB
:101AC000703A200020436C6173736963205049446D
:101AD000200A00204E6F206F76657273686F6F74F6
:101AE0000A002054753A2000204B753A2000206DE2
:101AF00061783A2000206D696E3A200020643A2017
:101B00000020626961733A20005761697420666F32
:101B10007220686561742075702E2E2E0050494425
:101B2000204175746F74756E652073746172740AE8
:101B300000504944204175746F74756E652066616C
:101B4000696C6564212054656D706572617475728D
:101B50006520746F6F20686967680A0050494420E7
:101B60004175746F74756E650050494420417574F9
:101B70006F74756E65206661696C656421204261D1
:101B800064206865617465722069640A0045727238
:101B90003A207574663820666F6E74206E6F7420FC
:101BA000696E697469616C697A65642E0045727248
:101BB0003A207574663820666F6E74206E6F7420DC
:101BC000696E697469616C697A65642E0045727228
:101BD0003A207574663820666F6E74206E6F7420BC
:101BE000696E697469616C697A65642E002568752F
:101BF0003A25303268750025303268753A25303222
:101C000068750025303268752725303268750025E3
:101C10006875642025303268753A25303268750061
:101C2000000C0F00FE07022503BB017FFE08FE0823
:101C3000FE05080806000040F0C88888987810055E
:101C40000808060000C0F88888888888F805050517
:101C50000600012030F8302005080806000020703A
:101C6000F820202020E00509090600FF2070A8A820
:101C7000B888887020070505070001D86C366CD835
:101C80000509090600FFF8A88888888888A8F8054B
:101C90000A0A0600FE205050505088A8A8887003F9
:101CA000030306000340A040FFFFFFFFFFFFFFFF0D
:101CB000FFFFFFFFFFFFFFFFFFFFFFFFFFFF000032
:101CC000000605FF01070706020080808080800073
:101CD00080030303060105A0A0A005060606000078
:101CE00050F85050F8500509090600FF2070A8A0D0
:101CF0007028A87020050707060000C8C8102040FB
:101D0000989805070706000040A0A040A890680129
:101D100003030602058080800309090601FF2040B5
:101D2000408080804040200309090601FF80404038
:101D300020202040408005070706000020A87020D2
:101D400070A8200505050600012020F820200203C8
:101D5000030601FFC04080050101060003F80202EE
:101D600002060100C0C00507070600000810102089
:101D7000404080050707060000708898A8C8887052
:101D800003070706010040C040404040E005070748
:101D9000060000708808102040F8050707060000BC
:101DA000F80810300888700507070600001030504A
:101DB00090F81010050707060000F880F008088862
:101DC00070050707060000304080F088887005071E
:101DD00007060000F808101020202005070706005D
:101DE0000070888870888870050707060000708872
:101DF0008878081060020505060100C0C000C0C058
:101E00000206060601FFC0C000C0408003050506AB
:101E100001012040804020050303060002F800F87D
:101E200003050506010180402040800507070600E4
:101E30000070881020200020050707060000708829
:101E4000B8A8B88070050707060000708888F88871
:101E50008888050707060000F04848704848F005E4
:101E600007070600007088808080887005070706D5
:101E70000000F04848484848F0050707060000F809
:101E80008080F08080F8050707060000F88080F069
:101E90008080800507070600007088808098887021
:101EA000050707060000888888F8888888030707E0
:101EB000060100E04040404040E005070706000002
:101EC000381010101090600507070600008890A0D9
:101ED000C0A0908805070706000080808080808071
:101EE000F805070706000088D8A8888888880507AD
:101EF000070600008888C8A8988888050707060094
:101F00000070888888888870050707060000F088B8
:101F100088F080808005070706000070888888A800
:101F20009068050707060000F08888F0A0908805F3
:101F3000070706000070888070088870050707068C
:101F40000000F82020202020200507070600008838
:101F50008888888888700507070600008888888830
:101F600050502005070706000088888888A8A850D8
:101F70000507070600008888502050888805070755
:101F80000600008888502020202005070706000052
:101F9000F80810204080F80309090601FFE080805E
:101FA0008080808080E00507070600008040402098
:101FB0001010080309090601FFE02020202020203E
:101FC00020E00503030600052050880501010600F6
:101FD000FEF8030303060105804020050505060001
:101FE0000070087888780507070600008080F08870
:101FF0008888F00505050600007080808870050758
:102000000706000008087888888878050505060016
:10201000007088F08070050707060000304840E037
:102020004040400507070600FE70888888780870E1
:102030000507070600008080F08888888803070766
:102040000601004000C0404040E00409090601FECE
:102050001000301010101090600507070600008077
:10206000808890E09088030707060100C040404048
:102070004040E0050505060000D0A8A8A8A8050571
:1020800005060000B0C888888805050506000070B0
:10209000888888700507070600FEF0888888F08029
:1020A000800507070600FE788888887808080505F7
:1020B00005060000B0C88080800505050600007890
:1020C000807008F00507070600002020F820202077
:1020D0001805050506000088888898680505050626
:1020E000000088888850200505050600008888A81B
:1020F000A8500505050600008850205088050707F0
:102100000600FE88888850204080050505060000EE
:10211000F8102040F80309090601FF2040404080E4
:10212000404040200109090602FF808080808080B5
:102130008080800309090601FF8040404020404024
:10214000408005030306000248A890FF554E4C4FFF
:1021500041442046494C414D454E54004C4F41446A
:102160002046494C414D454E540046494C414D4551
:102170004E54204348414E47450042656400456E39
:10218000636C6F7375726500202020202020200072
:102190002020202000657272001FE02010201020F7
:1021A0001010201020201020103030084004800330
:1021B000001FE03FF03FF03FF01FE01FE03FF03F27
:1021C000F03FF00FC0078003003FFFF03800703091
:1021D000FC3020FC102078102030102C00D02E3144
:1021E000D02F7BD02F7BD02E31D02C00D0203010A0
:1021F00020781020FC1030FC303800703FFFF03F9A
:10220000FFF03800703186302387102787902F87A2
:10221000D02F03D0203010207810207810203010DC
:102220002F03D02F87D0278790238710318630380F
:1022300000703FFFF01FFFF81FFFF8041040020876
:1022400020020820041040082080104100104100A6
:102250000820800410400000001FFFF81FFFF8FF57
:10226000FFFF8000018E00E19F01F19381399F8182
:10227000F99F81F99FB9F98F28F180380180000119
:102280009FFFF99174999B06A99B54A99B56A99B02
:1022900054999FFFF9FFFFFF6E6F74696669636170
:1022A00074696F6E200063616E63656C00507269C3
:1022B0006E742041626F72746564005549204162FA
:1022C0006F72746564004D323520500A4D3234000F
:1022D000526573756D6500554920506175736500D1
:1022E00050617573696E672E2E2E00726573756D61
:1022F00065004D32340000FE0003FF8007C7C007B1
:1023000001E00000E00000F00000700400700E002A
:10231000701F00703F80F00E00E00F01E007C7C0A3
:1023200003FF8000FE0000FE0003FF8007C7C00F10
:1023300001E00E00E03F80F01F00700E007004000E
:10234000700000700000F00000E00701E007C7C067
:1023500003FF8000FE000E000E000E000E000E00B7
:102360000E000E000E007FC03F801F000E00040014
:1023700004000E001F003F807FC00E000E000E0004
:102380000E000E000E000E000E00FFFFFF7F80FF0C
:10239000C0FFC0FFC07F807F80FFC0FFC0FFC03F85
:1023A000001E000C0050726F6265205A204F666656
:1023B0007365740052756E6F757420446973742070
:1023C0006D6D004C6F6164206D6D00556E6C6F61BA
:1023D00064206D6D0046696C2E204469612E0045B5
:1023E00020696E206D6D5E33004D333033205531E2
:1023F00020452569205325690050494420417574C2
:102400006F74756E65202A005049442D44202A00BF
:102410005049442D49202A005049442D50202A007B
:1024200020082046616374002008204D6178002058
:1024300008204D696E004F6666004F6E004175744E
:102440006F74656D70004D696E2054726176656CB5
:102450002056656C004D696E2056656C6F6369741B
:1024600079004D617820452056656C004D617820DB
:102470005A2056656C004D617820592056656C00D5
:102480004D617820582056656C004D6178204520BC
:10249000416363656C004D6178205A204163636538
:1024A0006C004D6178205920416363656C004D617B
:1024B00078205820416363656C0054726176656CC6
:1024C00020416363656C00526574726163742041DE
:1024D0006363656C00416363656C004D6178204502
:1024E000204A65726B004D6178205A204A65726BF4
:1024F000004D61782059204A65726B004D6178204B
:1025000058204A65726B0050726F6265205A204FE6
:1025100066667365740050726F62652059204F665D
:10252000667365740050726F62652058204F66664E
:1025300073657400452073746570732F6D6D005A58
:102540002053746570732F6D6D005920537465703E
:10255000732F6D6D00582053746570732F6D6D006F
:10256000416476616E6365642053657474696E6757
:1025700073003F0043616E63656C00496E697400CF
:102580004D34323800496E697469616C697A65202E
:10259000454550524F4D0046696C616D656E740043
:1025A00054656D7065726174757265005374657001
:1025B000732F6D6D0050726F6265204F6666736594
:1025C0007473004A65726B00416363656C65726188
:1025D00074696F6E0056656C6F636974790053653A
:1025E0007420486F6D65204F666673657473004391
:1025F0006F6E66696775726174696F6E003F004E39
:1026000065787420506F696E7400446F6E65004E7B
:1026100065787400486F6D696E672058595A003F9D
:102620000043616E63656C204F626A656374004E9F
:102630004F005945530043616E63656C204F626AD9
:10264000656374203D004D61696E004869676820CC
:1026500053706565640053572D4D6F646500537466
:102660006F77004465706C6F790053656C662D540C
:1026700065737400526573657400426564004E6F43
:102680007A7A6C650046616E20537065656400431C
:102690006F6E66696775726174696F6E00526573FB
:1026A000746F72652044656661756C7473004C6F5D
:1026B00061642053657474696E67730053746F723C
:1026C000652053657474696E677300507265686540
:1026D0006174202420436F6E6600506F776572200E
:1026E0004F7574616765004F6666004F6E005275E6
:1026F0006E6F75742053656E736F7200424C546F29
:102700007563680050726F6265205A204F66667369
:10271000657400416476616E63656420536574740A
:10272000696E6773004D61696E004D373032205419
:102730002564004D36303020423020542564004D51
:10274000373032203B2564004D373031205425642A
:10275000004D373032004D373031004D36303020AB
:102760004230004D61696E00436F6E74696E75652D
:10277000004F6666004F6E0052756E6F7574205381
:10278000656E736F72005075726765206D6F72654C
:1027900000524553554D45204F5054494F4E533AE2
:1027A000005052494E54205041555345440020207A
:1027B0004E6F7A7A6C653A20005061726B696E6771
:1027C0002E2E2E0000005761697420666F7200661D
:1027D000696C616D656E74206368616E6765007415
:1027E0006F207374617274005761697420666F7230
:1027F0000066696C616D656E7420756E6C6F6164E6
:1028000000004E6F7A7A6C652068656174696E6746
:1028100000506C6561736520776169742E2E2E00FF
:1028200000507265737320627574746F6E00746FFC
:102830002068656174206E6F7A7A6C650000496E5D
:10284000736572742066696C616D656E7400616E8B
:102850006420707265737320627574746F6E007497
:102860006F20636F6E74696E7565005761697420BF
:10287000666F720066696C616D656E74206C6F6165
:10288000640000507265737320427574746F6E003B
:10289000746F20726573756D65207072696E740057
:1028A000005761697420666F72207072696E7400DF
:1028B000746F20726573756D652E2E2E0000576142
:1028C000697420666F720066696C616D656E742054
:1028D000707572676500003E2000256C642E2569C6
:1028E0006D00457874727564656420546F74616C12
:1028F000003E20004C6F6E67657374204A6F622043
:1029000054696D65003E20005072696E74205469F0
:102910006D6500436F6D706C65746564003A2000EE
:102920005072696E7420436F756E74003A200031E6
:1029300035300035004245443A204154432031307F
:102940003447542D320052756E617761792057619A
:102950007463683A204F4E004D61782054656D7065
:1029600000333135004D696E2054656D70003500BF
:1029700045313A204550434F53203130304B0050C1
:1029800053550047656E657269630050726F746FCE
:10299000636F6C00312E3000426175640032353057
:1029A00030303000437265616C6974793344205271
:1029B000414D50530042696C696E656172204C65EF
:1029C00076656C696E6700457874727564657273BC
:1029D00000310074696E796D616368696E65733387
:1029E000642E636F6D00544D334420435231305692
:1029F0003200323032322D30322D303500322E302E
:102A00002E395F4457372E342E35004D61726C6974
:102A10006E005072696E7465722053746174730035
:102A2000546865726D6973746F727300426F61727E
:102A30006420496E666F005072696E746572204939
:102A40006E666F004D61696E004D3130303000535D
:102A5000746F70205072696E7400526573756D6585
:102A6000205072696E7400506F776572204F7574D4
:102A7000616765004D3139305335350A4732380AC0
:102A80004732390A4D3430300A4D31303453323107
:102A9000350A4732380A4D313039533231350A4D13
:102AA00034323053310A47315831303059313030B7
:102AB00046353030300A47315A300A4D3530300A09
:102AC0004D31313720536574205A204F6666736547
:102AD00074004D313036533132380A4D3330334380
:102AE00038533231354530550A4D3530300A4D3185
:102AF0003137205049442054756E6520446F6E650F
:102B0000004D3139305335350A4D3130345332317F
:102B1000350A4732380A4732394C310A4731205892
:102B20003130305931303046353030300A47315A43
:102B300030004D3530300A4D3131372053657474D3
:102B4000696E67732053746F7265640053746F729B
:102B5000652053657474696E6773005072657020E8
:102B6000666F72205A2041646A757374005049443C
:102B70002054756E65005365747570004D61696E03
:102B8000003F004261636B0053746F70004E6F2012
:102B90004D65646961005072696E742066726F6D74
:102BA000204D65646961004368616E6765204D650D
:102BB000646961004D32310041626F75742050725A
:102BC000696E746572004368616E67652046696C62
:102BD000616D656E74004C6576656C696E67205436
:102BE0006F6F6C7300436F6E6669677572617469AD
:102BF0006F6E0054656D7065726174757265004D1D
:102C00006F74696F6E00537461727420486F7374CF
:102C1000205072696E7400526573756D6520507234
:102C2000696E740043616E63656C204F626A656310
:102C3000740054756E650053746F70205072696E25
:102C400074005061757365205072696E7400496E2E
:102C5000666F2053637265656E003F005374617246
:102C600074205072696E740043616E63656C00502D
:102C700072696E740043616E6E6F7420656E746568
:102C800072207375626469723A200002202E2E0051
:102C90004D61696E002100486F74656E6420746F29
:102CA0006F20636F6C64004261636B0050726F63EE
:102CB00065656400536F667420456E6473746F704D
:102CC00073004D6F74696F6E0044697361626C6567
:102CD000205374657070657273004D3834004D3444
:102CE000382050726F626520546573740047323823
:102CF0004F0A4D3438205031300042656420547200
:102D0000616D6D696E67004661646520486569673D
:102D10006874004F6666004F6E00426564204C6523
:102D200076656C696E67004C6576656C20426564FB
:102D3000004732394E004732385A0047323859007E
:102D4000486F6D6520400047323858004175746FF8
:102D500020486F6D6500473238004D61696E005044
:102D60007265686561742024204265640050726554
:102D700068656174202420456E640054656D70653B
:102D800072617475726500436F6F6C646F776E006B
:102D90005072656865617420240046616E2053702E
:102DA00065656400426564004E6F7A7A6C65004D1B
:102DB00061696E0050726F6265205A204F666673BB
:102DC000657400466C6F770046616E2053706565D0
:102DD0006400426564004E6F7A7A6C6500537065DA
:102DE0006564004D61696E00486F6D696E672046CD
:102DF00061696C6564006F70656E005452494747A5
:102E000045524544003A200066696C616D656E74F8
:102E1000007A5F6D696E00795F6D696E00785F6D35
:102E2000696E005265706F7274696E6720656E64BA
:102E300073746F70207374617475730A0020746FFB
:102E40006F206C6F6E6720657874727573696F6E32
:102E50002070726576656E7465640A0020636F6C1D
:102E60006420657874727573696F6E207072657610
:102E7000656E7465640A00486F6D6520257325735F
:102E80002573204669727374005761726E696E67AC
:102E90003A20486F6D696E672042756D70204469F5
:102EA0007669736F72203C20310A00020204000030
:102EB0000000000000000000000000809D430000B2
:102EC0009B430000C8430000004100000041000097
:102ED0000040FFFFFF000000010000000100008033
:102EE00000555555000000400033333300AAAA2A8C
:102EF000004992240000002000C7711C0099991914
:102F000000D1451700555515003BB1130024491257
:102F10000011111100000010000F0F0F00E3380E18
:102F20000043790D00CCCC0C00C3300C00E8A20BA0
:102F30000064210B00AAAA0A00703D0A009DD8096E
:102F400000427B090092240900DCD308008888082D
:102F5000001042080000000800F0C1070087870742
:102F60000075500700711C07003EEB0600A1BC066F
:102F7000006990060066660600703E06006118064D
:102F80000017F4050074D105005BB00500B2900590
:102F900000627205005555050078390500B81E0518
:102FA00000050505004EEC040087D40400A1BD0413
:102FB0000090A7040049920400C17D0400EE69045A
:102FC00000C7560400444404005C32040008210495
:102FD0000041100400000004003FF00300F8E0038B
:102FE0000026D20300C3C30300CCB503003AA803F4
:102FF000000A9B0300388E0300C08103009F750305
:1030000000D0690300505E03001D530300344803E1
:1030100000913D03003333030016290300381F03DA
:103020000097150300300C0300030303000BFA02A2
:103030000049F10200BAE802005CE002002DD8026B
:10304000002DD0020059C80200B0C0020031B90200
:1030500000DAB10200AAAA0200A0A30200BC9C02EE
:1030600000FA9502005C8F0200DF88020082820273
:1030700000457C02002776020027700200436A02A6
:10308000007C640200D05E02003F590200C8530277
:1030900000FFFDFCFAF8F6F4F2F0EEECEAE9E7E501
:1030A000E3E1E0DEDCDAD9D7D5D4D2D0CFCDCBCABC
:1030B000C8C7C5C3C2C0BFBDBCBAB9B7B6B4B3B246
:1030C000B0AFADACAAA9A8A6A5A4A2A1A09E9D9CA4
:1030D0009A99989795949392908F8E8D8B8A8988E0
:1030E000878684838281807F7E7D7B7A79787776FC
:1030F0007574737271706F6E6D6C6B6A69686766F8
:103100006564636261605F5E5D5C5B5A59585857E5
:1031100056555453525150504F4E4D4C4B4A4A49BC
:1031200048474646454443424241403F3E3E3D3C7F
:103130003B3B3A3938383736353534333232313033
:10314000302F2E2E2D2C2B2B2A29292827272625D8
:103150002524232322212120201F1E1E1D1C1C1B71
:103160001B1A1919181817161615151413131212FD
:103170001111100F0F0E0E0D0D0C0C0B0A0A090980
:1031800008080707060605050404030302020100F8
:103190000000809D4300009B430000C843000000E6
:1031A00000000000000000000053657474696E6741
:1031B000732053746F72656400290A002062797469
:1031C00065733B20637263200053657474696E6796
:1031D000732053746F726564202800454550524F28
:1031E0004D20496E697469616C697A65640A0048AA
:1031F000617264636F6465642044656661756C74B4
:103200002053657474696E6773204C6F61646564E4
:103210000A0020286D6D2900203B204C6576656CE6
:10322000696E67200020204D3432302053004175F4
:10323000746F20426564204C6576656C696E67002A
:1032400020460020480020204D3134352053004DC9
:103250006174657269616C20686561747570207055
:103260006172616D657465727300203B2053656EF9
:10327000736F72200020440020204D3431322053DF
:103280000046696C616D656E742072756E6F757441
:103290002073656E736F7200204A00202047323918
:1032A000205720490020204D3134392043203B2035
:1032B000556E69747320696E2043656C736975730C
:1032C0000A0054656D706572617475726520556E83
:1032D000697473002020473231203B004C696E65D1
:1032E000617220556E69747300454550524F4D20F0
:1032F0006461746173697A65206572726F722E0AF7
:1033000000290A002062797465733B206372632090
:10331000002073746F7265642073657474696E67DE
:1033200073207265747269657665642028002028B0
:1033300063616C63756C6174656429210A002021E6
:103340003D2000454550524F4D20435243206D696A
:10335000736D61746368202D202873746F726564C7
:103360002920002053697A653A2000496E64657807
:103370003A20000000FA430000FA43000020410018
:103380000096420000A0420000A0420000C8430096
:1033900080CF43DC050000DC050000640000004B2A
:1033A000000000204D61726C696E3D563836290A66
:1033B00000454550524F4D2076657273696F6E20FF
:1033C0006D69736D617463682028454550524F4D97
:1033D0003D0024F4D43050C38E20C2A24017828B0B
:1033E0007011127A910D816CD90AA861E108C75851
:1033F0006607615143061E4B5D05C145A7041A418E
:103400001104093D9803713931034036DB026533FD
:103410009102D4305402802E1D02632CEE01752AD5
:10342000C501B028A001102781018F2564012B243C
:103430004B01E0223401AC211F018D200D01801FC2
:10344000FC00841EED00971DDF00B81CD200E61BB7
:10345000C600201BBC00641AB200B219A8000A19E9
:10346000A0006A189900D117910040178B00B5167B
:10347000840031167E00B31579003A157300C71425
:103480006F0058146A00EE1366008813630025135A
:103490005E00C7125B006C12570015125400C11178
:1034A000510070114F0021114B00D61049008D10B2
:1034B00047004610440002104200C00F4000800F39
:1034C0003E00420F3C00060F3B00CB0E3800930E2F
:1034D00037005C0E3500270E3400F30D3200C10DAD
:1034E0003100900D3000600D2E00320D2D00050DC5
:1034F0002C00D90C2B00AE0C2900850C29005C0C8B
:103500002700350C27000E0C2600E80B2400C40B06
:103510002400A00B23007D0B23005A0B2100390B44
:103520002100180B2000F80A1F00D90A1E00BB0A50
:103530001E009D0A1D00800A1D00630A1C00470A28
:103540001B002C0A1B00110A1A00F7091A00DD09DA
:103550001900C4091900AB091900920917007B0969
:103560001800630917004C091600360916002009D7
:1035700016000A091500F5081500E0081400CC082B
:103580001400B8081400A4081400900813007D0863
:1035900012006B0813005808120046081200340885
:1035A0001100230811001208110001081100F00792
:1035B0001000E0071000D0071000C0071000B0078F
:1035C0000F00A107100091070E0083070F0074077A
:1035D0000F0065070E0057070E0049070E003B0756
:1035E0000D002E070E0020070D0013070D00060723
:1035F0000D00F9060C00ED060D00E0060C00D406E7
:103600000C00C8060C00BC060C00B0060C00A4069A
:103610000B0099060C008D060B0082060B00770646
:103620000B006C060B0061060A0057060B004C06E7
:103630000A0042060A0038060A002E060A0024067E
:103640000A001A060A001006090007060A00FD050E
:103650000900F4050900EB050900E2050900D90598
:103660000900D0050900C7050900BE050900B50518
:103670000800AD050800A50509009C050800940593
:1036800008008C050800840508007C050800740506
:1036900008006C050700650508005D050700560574
:1036A00008004E05070047050700400508003805DB
:1036B0000700310507002A050700230507001C0540
:1036C0000600160507000F0507000805060002059D
:1036D0000700FB040600F5040700EE040600E804FA
:1036E0000600E2040700DB040600D5040600CF0450
:1036F0000600C9040600C3040600BD040600B704A2
:103700000600B1040500AC040600A6040600A004EF
:1037100005009B04060095040500900406008A0439
:10372000050085040500800406007A040500750480
:103730000500700405006B040500660405006104C3
:1037400005005C04050057040500520405004D0403
:10375000050048040500430405003E0404003A0443
:10376000050035040500300404002C04050027047E
:103770000400230405001E0404001A0404001604B7
:103780000500110404000D040400090405000404EC
:10379000040000040400FC030400F8030400F40324
:1037A0000400F0030400EC030400E8030400E40355
:1037B0000400E0030400DC030400D8030400D40385
:1037C0000400D0030400CC030400C8030300C503B5
:1037D000030024F404D9201BC40C5C0E9804C40913
:1037E0005F0265077101F405F900FB04B3004804AA
:1037F0008700C10369005803550003034500BE025A
:103800003A008402310053022A00290225000402F2
:103810002000E4011C00C8011900AF011700980145
:1038200014008401130071011000610110005101A6
:103830000E0043010D0036010B002B010B0020018F
:103840000B00150109000C01090003010800FB0031
:103850000800F3000800EB000700E4000600DE00AB
:103860000600D8000600D2000600CC000500C70004
:103870000500C2000500BD000400B9000400B50049
:103880000400B1000400AD000400A9000400A5007C
:103890000300A20003009F0004009B0003009800A7
:1038A00003009500020093000300900003008D00C8
:1038B00002008B00030088000200860002008400E2
:1038C0000300810002007F0002007D0002007B00F7
:1038D0000200790002007700010076000200740007
:1038E000020072000100710002006F0002006D0012
:1038F00001006C0002006A0001006900020067001C
:103900000100660001006500010064000200620021
:10391000010061000100600001005F0002005D0025
:1039200001005C0001005B0001005A000100590029
:103930000100580001005700010056000100550029
:103940000100540001005300000053000100520028
:10395000010051000100500001004F0001004E0025
:1039600000004E0001004D0001004C0001004B0022
:1039700000004B0001004A0001004900010048001E
:10398000000048000100470001004600000046001A
:103990000100450000004500010044000100430013
:1039A000000043000100420000004200010041000D
:1039B000000041000100400001003F0000003F0006
:1039C00001003E0000003E0001003D0000003D00FF
:1039D00001003C0000003C0000003C0001003B00F6
:1039E00000003B0001003A0000003A0001003900ED
:1039F00000003900010038000000380000003800E5
:103A000001003700000037000100360000003600DA
:103A100000003600010035000000350000003500D0
:103A200001003400000034000000340001003300C5
:103A300000003300000033000100320000003200BB
:103A400000003200010031000000310000003100B0
:103A500001003000000030000000300001002F00A5
:103A600000002F0000002F0000002F0001002E009A
:103A700000002E0000002E0001002D0000002D008F
:103A800000002D0000002D0001002C0000002C0083
:103A900000002C0000002C0001002B0000002B0077
:103AA00000002B0000002B0001002A0000002A006B
:103AB00000002A0000002A0001002900000029005F
:103AC0000000290000002900000029000100280052
:103AD0000000280000002800000028000000280046
:103AE0000100270000002700000027000000270039
:103AF000000027000100260000002600000026002C
:103B0000000026000000260001002500000025001E
:103B10000000250000002500000025000000250011
:103B20000100240000002400000024000000240004
:103B300000002400010023000000230000002300F7
:103B400000002300000023000000230000002300E9
:103B500001002200000022000000220000002200DC
:103B600000002200000022000100210000002100CE
:103B700000002100000021000000210000002100C1
:103B800000002100010020000000200000002000B3
:103B900000002000000020000000200000002000A5
:103BA0000000200001001F0000001F0000001F0097
:103BB00000001F0000001F0000001F0000001F0089
:103BC00001001E0000001E0000001E0000001E007C
:103BD0000000393000003325000087190000B00FC5
:103BE0000000DB080000BD040000740200003F017B
:103BF000000020436F756E7420583A0042656400DF
:103C00004531004500626564002C2073797374654A
:103C10006D2073746F7070656421204865617465F0
:103C2000725F49443A200048656174696E672046B6
:103C300061696C65640048656174696E67206661DE
:103C4000696C6564004D3131322053687574646F5E
:103C5000776E001000C90210012C01400122017092
:103C6000011801B0010E01F00104015002FA00B088
:103C700002F0003003E600D003DC009004D20070B4
:103C800005C800A006BE000008B400B009AA00D014
:103C90000BA000600E960060118C000015820020C1
:103CA000197800C01D6E00A0226400B0275A009051
:103CB0002C500000314600E0343C001038320090B7
:103CC0003A2800603C1E00A03D1400803E0A0020FF
:103CD0003F00004572723A204D415854454D500006
:103CE0004D415854454D502074726967676572653F
:103CF00064004572723A204D494E54454D50004D76
:103D0000494E54454D502074726967676572656409
:103D100000544845524D414C2052554E415741594F
:103D200000546865726D616C2052756E61776179BF
:103D300000202F002042403A0020403A0020573A0D
:103D40000020573A00496E76616C6964206578748A
:103D500072756465720A007C3C3E5E2B3D3F2F5BB2
:103D60005D3B2C2A225C0043616E6E6F74206F7085
:103D7000656E2073756264697220004D65646961C7
:103D800020496E6974204661696C00534420636168
:103D90007264206F6B0A006F70656E526F6F7420D3
:103DA0006661696C65640A00766F6C756D652E6975
:103DB0006E6974206661696C65640A004E6F2053F9
:103DC0004420636172640A000A4D3234004D32337C
:103DD000202573002E0A006F70656E206661696C85
:103DE00065642C2046696C653A200046696C652044
:103DF00073656C65637465640A002053697A653A7B
:103E0000200046696C65206F70656E65643A20001D
:103E1000454E4420535542524F5554494E450A0091
:103E20002220706F73002220706172656E743A22D6
:103E300000535542524F5554494E452043414C4C36
:103E4000207461726765743A220053756263616C15
:103E50006C204F766572666C6F7700457863656598
:103E6000646564206D617820535542524F55544922
:103E70004E452064657074683A0041425300504CCE
:103E800041002E0A0044656C6574696F6E2066619E
:103E9000696C65642C2046696C653A200046696C43
:103EA000652064656C657465643A005344207072E3
:103EB000696E74696E67206279746520004E6F7454
:103EC000205344207072696E74696E670A002F6116
:103ED00075746F25632E670057726974696E672069
:103EE000746F2066696C653A2000667265736800BD
:103EF000646F696E67002066696C653A20004E6FDA
:103F0000772000000000000000000000000000001A
:103F100000000000000000000000000000000000A1
:103F20000000000000000000000000000000000091
:103F30000000000000000000000000000000000081
:103F40000000000000000000000000000000000071
:103F50000000000000000000000000000000000061
:103F60000000000000000000000000000000000051
:103F70000000000000000000000000000000000041
:103F80000000000000000000000000000000000031
:103F90000000000000000000000000000000000021
:103FA0000000000000000000000000000000000011
:103FB0000000000000000000000000000000000001
:103FC0000000000003FFF0000000000000000000FF
:103FD000000000001FFFE0000000000000000000E3
:103FE000000000003FC07C00000000000000000056
:103FF000000000007C0FFF800000000000000000B7
:1040000000000000F87FFFE000000000000000005A
:1040100000000001F0FFFF78000000000000000039
:1040200000000001E1FFFFBC001FFF83FFE1F00E75
:104030003FFF0001E3FFFFEE001FFFC7FFF1F80E97
:104040003FFFC001C3FF8FF7001E03CF0071FC0EBE
:104050003C03E001C3FE01FB801E03CE0079DE0EAF
:104060003C01E001C7FC007DC01FFF8E0079CF0E30
:104070003C01E001C7FC003EE01FFFCE0079C7CE47
:104080003C01E001E7FC001F701E01CE0079C1EE8B
:104090003C01E001E7FC000FB81E01CF0079C0FE33
:1040A0003C01E000E3FC0007F81FFFC7FFF1C07E02
:1040B0003FFFC000F3FC0007DC1FFF87FFE1C03EAD
:1040C0003FFF800073FE0003EC0FF800FF00000CC0
:1040D0001FF0000071FE0003EE0000000000000071
:1040E0000000000039FF0003F6000000000000009F
:1040F0000000000618FF8003F70000000000000029
:10410000000000071CFFC003F71FFFDFFF1FFE1C9E
:1041100001C000030E7FE007F31FFFDFFF3FFF1C1E
:1041200001C00001863FF807FB00701C0038079CA7
:1041300001C00001C33FFFFFFB00701C0038039C5F
:1041400001C00000F39FFFFFFB00701FFF38001F3E
:10415000FFC00000798FFFFFF780701FFF38001F3E
:10416000FFC000007CC7FFFFF780701C0038079C71
:1041700001C000003F01FFFFED80701C0038079C6C
:1041800001C000001FE0FFFFED80701FFF3FFF1C1C
:1041900001C000001FF03FFFCD00701FFF1FFE1C7D
:1041A00001C000000FFC0FFF1D0000000000000018
:1041B0000000000007FE01FC1B00000000000000E2
:1041C0000000000003FF80003B0000000000000032
:1041D0000000000001FFF000FB00000000000000F4
:1041E0000000000000FFFFFFF000000000000000E2
:1041F00000000000003FFFFFE000000000000000A2
:1042000000000000001FFFFFC000000000000000D1
:10421000000000000007FFFF800000000000000019
:10422000000000000001FFFF00000000000000008F
:104230000000000000003FF8000000000000000047
:10424000000000000000000000000000000000006E
:10425000000000000000000000000000000000005E
:10426000000000000000000000000000000000004E
:10427000000000000000000000000000000000003E
:10428000000000000000000000000000000000002E
:10429000000000000000000000000000000000001E
:1042A000000000000000000000000000000000000E
:1042B00000000000000000000000000000000000FE
:1042C00000000000000000000000000000000000EE
:1042D00000000000000000000000000000000000DE
:1042E00000000000000000000000000000000000CE
:1042F00000000000000000000000000000000000BE
:104300000000006D61726C696E66772E6F726700D7
:10431000322E302E395F4457372E342E35001FFF92
:10432000FFFFFFFFFF600000000001FF40000000F2
:104330000000FF8000000000007F83CF00000C30F1
:104340003F87FF80000C301F867980000C000F8CA7
:1043500030C7838C30E78C30CFC7CC31F38C30DC66
:10436000ECEC33B98C30D86C6C33198C30D06C0CCD
:1043700033198C30D86C0C33198C30DC6C0E3B1933
:104380008C30CF7C079F198C30C77C038F1940007D
:104390000000000002600000000000061FFFFFFF99
:1043A000FFFFF870012C0190012701B0012201C02C
:1043B000011D01F00118011002130130020E01600D
:1043C00002090190020401C002FF000003FA00404C
:1043D00003F5008003F000D003EB002004E600703A
:1043E00004E100E004DC004005D700C005D2004035
:1043F00006CD00D006C8008007C3003008BE00F01C
:1044000008B900C009B400B00AAF00B00BAA00D0D0
:104410000CA500000EA000500F9B00C0109600508D
:1044200012910000148C00C0158700B0178200B0F4
:10443000197D00D01B7800001E730040206E009094
:10444000226900F024640040275F0090295A00E0B0
:104450002B5500102E500020304B0010324600E04B
:1044600033410090353C001037370070383200A0DF
:10447000392D00B03A2800A03B2300603C1E0010FC
:104480003D1900903D1400103E0F00703E0A00C020
:104490003E0500003F0000403FFBFF803FF6FFC0AD
:1044A0003FF1FF2020506C616E6E6572427566664A
:1044B000657242797465733A200020467265652002
:1044C0004D656D6F72793A200020436F6D70696C95
:1044D00065643A2046656220323020323032320A3A
:1044E00000204C61737420557064617465643A20D7
:1044F000323032322D30322D3035207C20417574EF
:10450000686F723A20426F6E6474656368202F2072
:10451000496E73616E6974794175746F6D61746908
:104520006F6E0A004D61726C696E20322E302E392A
:104530005F4457372E342E350A0020536F66747748
:104540006172652052657365740A00205761746357
:1045500068646F672052657365740A002042726F49
:10456000776E206F75742052657365740A0020455C
:10457000787465726E616C2052657365740A0050C0
:104580006F77657255700A0073746172740A004720
:1045900039310A47315A350A4739300A4D38340A19
:1045A0004D31303453300A4D3134305330004D31B9
:1045B000303031006572726F722077726974696E83
:1045C0006720746F2066696C650A00446F6E652011
:1045D000736176696E672066696C652E0A004D32DC
:1045E0003900456E6473746F707300255320256322
:1045F00020256320256320256300205A3A00205996
:104600003A0020583A00656E6473746F70732068C6
:1046100069743A200000000A0B02090C0D0E08070D
:104620000304010000000000000000000000000082
:10463000000000000000000000000000000000007A
:104640000012111000000000000000000000000037
:104650000000000000000000000000004D6F7665C3
:104660002025736D6D004D6F766520302E316D6D98
:10467000004D6F766520316D6D004D6F7665203190
:10468000306D6D004D6F76652041786973004D6F18
:104690007665204578747275646572004D6F766535
:1046A000205A004D6F76652059004D6F7665205871
:1046B000007E3E7A3E4368616E67652046696C61A4
:1046C0006D656E7400556E6C6F61642046696C6137
:1046D0006D656E74004C6F61642046696C616D6538
:1046E0006E74005072656865617420437573746FF1
:1046F0006D00507265686561742024004261636BCF
:10470000005072696E742066726F6D204D65646929
:10471000610050726F62696E67204661696C656402
:104720000A0050726F62696E67204661696C656449
:1047300000205A3A200020593A200042656420584F
:104740003A2000726573756D6564004469736D6924
:10475000737300526573756D696E670073686F7768
:104760000044697361626C6552756E6F75740050B8
:10477000757267654D6F7265005061757365640091
:10478000656E6400436F6E74696E7565004C6F6191
:10479000642046696C616D656E74205400496E73C7
:1047A0006572742066696C616D656E7420616E64FB
:1047B0002073656E64204D3130380A00220A00559E
:1047C0006E6B6E6F776E20636F6D6D616E643A20F5
:1047D00022002042002050006F6B00204500205A2C
:1047E0000020590020204D39322058005374657044
:1047F000732070657220756E6974000000220025B8
:104800000028002B002E00310034000201000005BA
:104810000108010B0100002100240027002A002DBF
:10482000003000330001010000040107010A010506
:10483000050505070508080808020202020A0A0819
:10484000080404040401010101010101010303033F
:104850000303030303040707070C0C0C0C0C0C0CDC
:104860000C0202020206060606060606060B0B0BE3
:104870000B0B0B0B0B01021020200808102040101E
:104880002040800201020108040201010204081014
:104890002040808040201008040201800402018032
:1048A000402010080402010804020101020408105B
:1048B000204080010204081020408020746F6F2087
:1048C0006C6F6E6720657874727573696F6E207097
:1048D000726576656E7465640A0020636F6C64208F
:1048E000657874727573696F6E2070726576656E27
:1048F0007465640A0020453A00205A3A0020593A6B
:1049000000583A006F6B0A00526573656E643A2076
:1049100000544D33442043523130563220526561A9
:1049200064792E005072696E74696E672E2E2E00A7
:104930005072696E7420506175736564006E6F7497
:10494000696669636174696F6E20000014012E024C
:1049500011241FBECFEFD1E2DEBFCDBF00E00CBF00
:1049600084B78093481914BE0FB6F894A895809127
:104970006000886180936000109260000FBE13E0B9
:10498000A0E0B2E0E2EAFCEE02E00BBF02C007905A
:104990000D92A43EB107D9F729E1A4EEB3E001C01E
:1049A0001D92A834B207E1F714E2C7EAD4E200E0AE
:1049B00006C021970109802FFE010F94B272C63AFA
:1049C000D10780E00807A9F70F94FC5E0D943F76AD
:1049D0000C940000FC0184910895FC0180810895ED
:1049E000119800C09091020187FD9095917090936D
:1049F0000001119A00C000C0119800C090910201FE
:104A000086FD9095917090930001119A00C000C0AE
:104A1000119800C09091020185FD9095917090933E
:104A20000001119A00C000C0119800C090910201CD
:104A300084FD9095917090930001119A00C000C080
:104A4000119800C09091020183FD90959170909310
:104A50000001119A00C000C0119800C0909102019D
:104A600082FD9095917090930001119A00C000C052
:104A7000119800C09091020181FD909591709093E2
:104A80000001119A00C000C0119800C0809102017D
:104A9000817080930001119A00C000C0089590E0D9
:104AA00080E00895CF93DF93DB01F9019C91913071
:104AB000C1F0943080F094509C938830D1F4808180
:104AC0009181009771F0019791838083480F591F5E
:104AD000EA01188206C08C3539F49C5F9C939430AF
:104AE00041F4DF91CF9108958B3339F781E08C93B6
:104AF000F8CF20813181B9016F5F7F4F718360836F
:104B0000420F531FEA018883808191818F3591057F
:104B10006CF7E7CF0F931F9381E000913917109145
:104B20003A1720913B1730913C174091351750911F
:104B30003617609137177091381704171507260735
:104B4000370708F480E01F910F91089590E080E00E
:104B5000089520916F05833021F425FD0CC024FDBC
:104B60000CC030E0A90102C0559547958A95E2F73F
:104B7000CA018170089581E0089580E008958091D0
:104B80008E0584FD0BC08091900587FD07C0909134
:104B90009105937081E019F480E0089581E0089513
:104BA000CF92DF92EF92FF92CF93DF93EC01CC8014
:104BB000DD80EE80FF8027E137EB41ED58EBC70148
:104BC000B6010F941B7587FD23C023E030E04BE94D
:104BD00053E4C701B6010F94C96B1816CCF0C88016
:104BE000D980EA80FB8027E137EB41ED58EBC70124
:104BF000B6010F941B7587FD0BC0C1E023E030E8C0
:104C00004DE953E4C701B6010F94C96B18160CF4B3
:104C1000C0E08C2FDF91CF91FF90EF90DF90CF908D
:104C200008952FEB280F2A3108F047C0E22FF0E05B
:104C300080918E0590918F05A0919005B09191057E
:104C400004C0B695A795979587952A95D2F780FDCC
:104C500002C081700895E059FA4FE081EE2341F1DE
:104C60008091030A9091040AE80FF92FF11D8081C9
:104C700090ED980F9A3030F08E3251F4818180534C
:104C80008A3098F4F0935F05E0935E0581E0089523
:104C90008D3211F08B3249F4818190ED980F9A306A
:104CA00088F38E3211F48281EACFF0E0E0E0EACFBF
:104CB00010925F0510925E05E9CF80E008950E9492
:104CC0001126882341F081E020915E0530915F0537
:104CD000232B09F480E008952F923F924F925F9228
:104CE0006F927F928F929F92AF92BF92CF92DF92FC
:104CF000EF92FF920F931F93CF93DF93CDB7DEB761
:104D00002E970FB6F894DEBF0FBECDBFE82ED62E7D
:104D1000042F122F282F30E03C872B87462F50E09E
:104D20005A87498765E0F62EF29EC001F39E900DEA
:104D300011249E878D87FA01E80FF91FEE0FFF1FE0
:104D4000EE0FFF1FE058F94F6081718182819381DE
:104D50009B01AC010F94AD75882309F434C1E00EBA
:104D6000612F6D0DFE9CF0011124A985BA85AE0F4F
:104D7000BF1FAA0FBB1FAA0FBB1FA058B94FAC90F3
:104D80001196BC9011971296CC9012971396DC90C6
:104D9000E00EFE9CA0011124A985BA85A40FB51FC1
:104DA000AA0FBB1FAA0FBB1FA058B94FEC901196BA
:104DB000FC90119712960C91129713969C90862F47
:104DC00090E0AD85BE85A80FB91FAA0FBB1FAA0F23
:104DD000BB1FA058B94F8C9011967C9011971296DA
:104DE0006C90129713965C90610F70E0AD85BE8554
:104DF000A60FB71FAA0FBB1FAA0FBB1FA058B94F02
:104E00004C9011963C90119712961C911297139604
:104E10002C90E80FF91FEE0FFF1FEE0FFF1FE05859
:104E2000F94FB081B98321812A8332813B83838109
:104E30008C83FA01E60FF71FEE0FFF1FEE0FFF1F27
:104E4000E058F94F90819D83A181AE83B281BF83E9
:104E5000238128879701402F592DB701802F992D45
:104E60000F94AD75882321F0E12CF12C00E0912CFA
:104E70009501A601B501C6010F94AD75882319F0FF
:104E80005701C02ED92C242D332D412F522D642DA6
:104E9000732D812F922D0F94AD75882321F0412C15
:104EA000312C10E0212C282D372D462D552D682D25
:104EB000772D862D952D0F94AD75882321F0842CA8
:104EC000732C612E522C2D813E814F8158856D812E
:104ED0007E818F8198850F94AD75882321F01D8286
:104EE0001E821F82188629813A814B815C816981EB
:104EF0007A818B819C810F94AD75882341F03D812F
:104F000039834E814A835F815B8388858C8385E00A
:104F1000EB85FC858E9FD0018F9FB00D11242985D4
:104F20003A85A20FB31FAA0FBB1FAA0FBB1FA05821
:104F3000B94FBA87A9879501A601B501C6010F949B
:104F4000BB729701402F592D0F94BA726B017C01EF
:104F5000282D372D462D552D682D772D862D952DF5
:104F60000F94BB72242D332D412F522D0F94BA7202
:104F70009B01AC01C701B6010F94BB726B017C01B0
:104F800029813A814B815C8169817A818B819C8105
:104F90000F94BB722D813E814F8158850F94BA7258
:104FA0009B01AC01C701B6010F94BB7220E030E059
:104FB00040E450E40F94B573A985BA856D937D9351
:104FC0008D939C9313972E960FB6F894DEBF0FBE69
:104FD000CDBFDF91CF911F910F91FF90EF90DF90A8
:104FE000CF90BF90AF909F908F907F906F905F9089
:104FF0004F903F902F9008951092FE0980915B0290
:1050000090915C02A0915D02B0915E028093F906DE
:105010009093FA06A093FB06B093FC060895269A97
:105020002E9A0895BF92CF92DF92EF92FF920F9344
:105030001F93CF93DF936B01E9014A3009F4EAC073
:10504000453109F092C0DB011296ED91FC9112817D
:10505000C681D78180910201809582708093000182
:1050600000C0000086E290E00197F0F7012F029562
:10507000007F20E1B22EB10E88EF0E94F02400C024
:10508000000086E290E00197F0F7103208F0ACC023
:10509000812F807780680E94F024802F0E94F02466
:1050A00000C0000086E290E00197F0F780E80E94DF
:1050B000F02480E00E94F02400C0000086E290E02E
:1050C0000197F0F78AEF0E94F02400C0000086E20A
:1050D00090E00197F0F77E01B0E1EB0EF11C8881C2
:1050E000807F0E94F02489918295807F0E94F02425
:1050F000CE15DF05A1F700C0000086E290E0019721
:10510000F0F71F5F005F1B11B7CF80910201827023
:1051100080930001D6011296ED91FC9180819281DD
:10512000980F92832181921708F003C294819F5FA8
:1051300094839381890F821710F08FEF820F8383FE
:10514000458150E0440F551F70E060E086819781F3
:105150000F94EB7581E0DF91CF911F910F91FF903C
:10516000EF90DF90CF90BF900895FB0102811381F3
:10517000423309F4E0C108F4E8C1463409F4D5C16A
:10518000473409F4DDC14B3329F789812B81D801DC
:1051900012966C91129713964C91213009F41AC211
:1051A000233009F0FBC138EF380F582F91E0431737
:1051B00008F490E041E0531708F040E031E0561762
:1051C00008F430E0592F542B352319F4942309F4B3
:1051D000C1CFFA8030E0F901E853FD4FD0802C5365
:1051E0003D4FF901E080F3C180EE810F8068807F40
:1051F0000E94F024812F8295807F0E94F02400C0BD
:10520000000086E290E00197F0F780E80E94F02429
:1052100080E850CF809101018260809301018091EC
:10522000020182708093000180910101816080936E
:10523000010180910201817080930001099A119A05
:1052400080910201809582708093000100C000006F
:1052500086E290E00197F0F788E790E0CEE9DFE0A2
:10526000FE013197F1F70197D9F788EF0E94F024FA
:1052700000C0000086E290E00197F0F780E20E9413
:10528000F02480E00E94F02400C0000086E290E05C
:105290000197F0F780E00E94F02480E80E94F0245B
:1052A00000C0000086E290E00197F0F780E00E94E5
:1052B000F02480E10E94F02400C0000086E290E02B
:1052C0000197F0F7CE010197F1F7CE010197F1F7C1
:1052D000CE010197F1F7CE010197F1F7CE010197C9
:1052E000F1F7CE010197F1F7CE010197F1F7CE0169
:1052F0000197F1F7CE010197F1F7CE010197F1F790
:10530000CE010197F1F7CE010197F1F7CE01019798
:10531000F1F7CE010197F1F72197F1F780E20E94B2
:10532000F02480E40E94F02400C0000086E290E0B7
:105330000197F0F780E20E94F02480E60E94F024BA
:1053400000C0000086E290E00197F0F7D0E0C0E0F6
:105350008C2F807780680E94F0248D2F0E94F0248B
:1053600000C0000086E290E00197F0F780E80E941C
:10537000F02480E00E94F02400C0000086E290E06B
:105380000197F0F78AEF0E94F02400C0000086E247
:1053900090E00197F0F790E2119800C0809102012F
:1053A000817080930001119A00C000C0119800C064
:1053B00080910201817080930001119A00C000C0A9
:1053C000119800C080910201817080930001119AB0
:1053D00000C000C0119800C08091020181708093CC
:1053E0000001119A00C000C0119800C08091020114
:1053F000817080930001119A00C000C0119800C014
:1054000080910201817080930001119A00C000C058
:10541000119800C080910201817080930001119A5F
:1054200000C000C0119800C080910201817080937B
:105430000001119A00C000C0119800C080910201C3
:10544000817080930001119A00C000C0119800C0C3
:1054500080910201817080930001119A00C000C008
:10546000119800C080910201817080930001119A0F
:1054700000C000C0119800C080910201817080932B
:105480000001119A00C000C0119800C08091020173
:10549000817080930001119A00C000C0119800C073
:1054A00080910201817080930001119A00C000C0B8
:1054B000119800C080910201817080930001119ABF
:1054C00000C000C0119800C08091020181708093DB
:1054D0000001119A00C000C000C00000E6E2F0E048
:1054E0003197F0F7915009F057CF88EF0E94F024E0
:1054F00000C0000086E290E00197F0F7CF5FD05F38
:10550000C03209F025CF80E00E94F02480EC0E9498
:10551000F02400C0000086E290E00197F0F780914F
:10552000020182708093000115CEF8018581888385
:1055300011CE80E010CEB901C8010F9446540ACEB6
:10554000D80111968C91888305CE443191F0473172
:1055500009F000CE1882D80112968C911297898397
:1055600015968C91159781508A8313968C918B8315
:10557000F1CDD80115964C91159750E0440F551F69
:1055800070E060E016968D919C910F94EB75F80198
:1055900012828081815083831482DCCD481708F405
:1055A000D9CD861708F4D6CDFA80E12CD12C243041
:1055B00070F410CEBE01C8010F94465489819881C1
:1055C0009D0D98838E0D8983FF0C09F4C3CDF7FEE2
:1055D000F6CFF0CF58E0580F382FE8CDEF92FF927A
:1055E0000F931F93CF93DF93EC018B017A018A8590
:1055F0009B858617970731F0888199810F942F56E4
:105600001B870A87B701888199810F9489492E8168
:105610003F81820F932F911D9F838E8390E080E0C6
:10562000DF91CF911F910F91FF90EF9008959F927E
:10563000AF92BF92CF92DF92EF92FF920F931F93A0
:10564000CF93DF93EC018B01942EA52E8A859B8549
:105650008617970731F0888199810F942F561B8701
:105660000A8788859985019649F5BC800A818E81D3
:10567000080FC880D980D6015596ED91FC91C601DE
:105680001995B80EE92CFA2C10E0F70121917F0151
:10569000211127C08E819F81810F911D9F838E8351
:1056A00090E080E0DF91CF911F910F91FF90EF90FC
:1056B000DF90CF90BF90AF909F9008950E811F8193
:1056C000692D7A2D888199810F948949800F912FB6
:1056D000911D288539852817390738F681E090E033
:1056E000E1CF4B2D602FC6010F948756080F180F7E
:1056F000CCCFDF92EF92FF920F931F93CF93DF9364
:10570000EC01D62E1CAD0BAD7C0184E0E80EF11C43
:10571000E98DFA8DC7011995412F480F2D2D602F66
:10572000C7010F9487569BAD890F8BAF81E090E046
:10573000DF91CF911F910F91FF90EF90DF9008952F
:105740000F931F9380933802803208F046C09091E7
:10575000A705891724F091E0980F9093A70541E0E1
:1057600050E0082E02C0440F551F0A94E2F7052EA0
:10577000000C660B770B0091A3051091A4052091F6
:10578000A5053091A605402351236223732391E0A0
:10579000452B462B472B09F490E090933D1087FD55
:1057A0001FC0282F082E000C330B3F938F9386E5E4
:1057B0009AE09F938F9386E69AE09F938F931F9230
:1057C0000E94A2CD8DB79EB707960FB6F8949EBFE4
:1057D0000FBE8DBF1F910F91089510923D10DFCF26
:1057E0001F910F910D94B457CF93DF93C091BC08D4
:1057F000D091BD08209729F16091B8087091B9083F
:105800008091BA089091BB080F9427746E5F7F4F08
:1058100024976C177D07ACF470930207609301071F
:105820000F94C44E605E70448D4F9F4F609303078A
:10583000709304078093050790930607DF91CF913B
:105840000895109203071092040710920507109212
:105850000607F4CFAB01BC014093391750933A17B8
:1058600060933B1770933C1782EA98E10C9470EABE
:105870000F931F93CF93DF9300D01F92CDB7DEB766
:105880009C010CEB19E090E1E7E8F0E1D801019010
:105890000D929A95E1F7F90120813181428153817E
:1058A000F80160857185828593850F94BB72F8013C
:1058B000608771878287938780E090E0A0EAB0E4F8
:1058C00089839A83AB83BC83CE0101960F94072E04
:1058D0000F900F900F900F90DF91CF911F910F912C
:1058E00008952F923F924F925F926F927F928F9284
:1058F0009F92AF92BF92CF92DF92EF92FF921F934F
:10590000CF93DF93CDB7DEB72C970FB6F894DEBFF9
:105910000FBECDBF7A011901DC012D913D914D9152
:105920005C912D833E834F835887FB0140805180DB
:10593000628073808090871090908810A09089106A
:10594000B0908A10A50194016D817E818F81988528
:105950000F94C96B81110EC011E0A30192016091F7
:105960008B1070918C1080918D1090918E100F94EF
:10597000C96B811110E0D1012D913D914D915C9148
:1059800029873A874B875C87F701C080D180E28006
:10599000F38020911402309115024091160250912B
:1059A0001702C701B6010F94C96B882309F44EC0D2
:1059B000C0921402D0921502E0921602F0921702E1
:1059C0008091931090919410A0919510B0919610A1
:1059D00040918B1050918C1060918D1070918E10B1
:1059E0008092BC099092BD09A092BE09B092BF09F5
:1059F0004093C0095093C1096093C2097093C309D1
:105A0000C092C409D092C509E092C609F092C709B4
:105A10008093C8099093C909A093CA09B093CB0990
:105A200020E030E040E05FE360916B1070916C101B
:105A300080916D1090916E100F942F6C69837A8312
:105A40008B839C83CE0101960F94072E2D813E817E
:105A50004F8158852093BC093093BD094093BE09FE
:105A60005093BF094092C0095092C1096092C20987
:105A70007092C309D1012D913D914D915C9160913E
:105A8000C8097091C9098091CA099091CB090F94F6
:105A9000BB726093C8097093C9098093CA09909337
:105AA000CB0911112FC020E030E0A90169857A856A
:105AB0008B859C850F94C96B811133C060E070E0C9
:105AC00088EC92E469837A838B839C83CE01019670
:105AD0000F94072E2C960FB6F894DEBF0FBECDBFE5
