:100000000C94FE130C9437140C9437140C9437147E
:100010000C9437140C9437140C9437140C94371434
:100020000C9437140C9437140C9437140C94371424
:100030000C9437140C94D56C0C9437140C9437141E
:100040000C94A66B0C9437140C9428C60C9437149B
:100050000C948D390C9483390C9437140C94371408
:100060000C9437140C9437140C9437140C943714E4
:100070000C9437140C9437140C9437140C943714D4
:100080000C94882F0C9437140C9437144E414E491D
:100090004E495459494E46CDCCCC3D0AD7233C1746
:1000A000B7D13877CC2B329595E6241FB14F0A0093
:1000B0000020410000C84200401C4620BCBE4CCA83
:1000C0001B0E5AAEC59D7400407A10F35A00A07200
:1000D0004E18090010A5D4E80000E8764817000083
:1000E000E40B54020000CA9A3B000000E1F5050051
:1000F0000080969800000040420F000000A086019A
:10010000000000102700000000E803000000006469
:1001100000000000000A00000000000100000000D4
:10012000002C76D888DC674F0823DFC1DFAE59E1A9
:10013000B1B796E5E3E453C63AE651997696E8E618
:10014000C28426EB898C9B62ED407C6FFCEFBC9CEB
:100150009F40F2BAA56FA5F490055A2AF75C936BFD
:100160006CF9676DC11BFCE0E40D47FEF520E6B5B8
:1001700000D0ED902E0300943577050080841E0892
:100180000000204E0A000000C80C333333330F98B0
:100190006E12831141EF8D2114893BE65516CFFE77
:1001A000E6DB18D1844B381BF77C1D901DA4BBE403
:1001B00024203284725E228100C9F124ECA1E53D45
:1001C00027434F4D4D554E49434154494F4E0044EE
:1001D000525952554E004552524F525300494E46C5
:1001E0004F004543484F0053544F505045442E2034
:1001F000005072696E7465722073746F70706564FC
:100200002064756520746F206572726F72732E2082
:1002100046697820746865206572726F7220616E1D
:100220006420757365204D39393920746F207265EB
:1002300073746172742E202854656D7065726174D8
:100240007572652069732072657365742E2053651D
:1002500074206974206166746572207265737461BC
:100260007274696E67290A004E6F20436865636B7C
:1002700073756D2077697468206C696E65206E7582
:100280006D6265722C204C617374204C696E653A06
:1002900020004E6F20436865636B73756D2077692E
:1002A0007468206C696E65206E756D6265722C20B5
:1002B0004C617374204C696E653A20006368656315
:1002C0006B73756D206D69736D617463682C204C60
:1002D000617374204C696E653A20004C696E65202C
:1002E0004E756D626572206973206E6F74204C616B
:1002F0007374204C696E65204E756D6265722B318A
:100300002C204C617374204C696E653A20004D318D
:1003100031300053657269616C2073746174757358
:10032000206D69736D617463680A005344207265BF
:100330006164206572726F720A002121204B494C62
:100340004C2063617573656420627920746F6F203F
:100350006D75636820696E61637469766520746980
:100360006D65202D2063757272656E7420636F6DEC
:100370006D616E643A2000486F74656E6420496454
:100380006C652054696D656F757400486F74656E97
:10039000642049646C652054696D656F75740A004A
:1003A0004D6564696120496E7365727465640050BF
:1003B0006C65617365205265736574005052494ED7
:1003C0005445522048414C5445440025533A202579
:1003D0005300706F7765726F6666004B494C4C45F1
:1003E000442E20005072696E7465722068616C74CE
:1003F00065642E206B696C6C28292063616C6C65C8
:1004000064210A0053544F505045442E200050722E
:10041000696E7465722073746F70706564206475A2
:100420006520746F206572726F72732E2046697832
:1004300020746865206572726F7220616E64207529
:100440007365204D39393920746F2072657374617A
:1004500072742E202854656D7065726174757265B2
:100460002069732072657365742E2053657420694A
:100470007420616674657220726573746172746948
:100480006E67290A006563686F3A004572726F7281
:100490003A0042696C696E656172204C6576656CE4
:1004A000696E6720477269643A0A0021212053541B
:1004B0004F502063616C6C65642062656361757385
:1004C00065206F6620424C546F75636820657272B8
:1004D0006F72202D20726573746172742077697455
:1004E00068204D3939390A0021212053544F5020BA
:1004F00063616C6C65642062656361757365206F10
:100500006620424C546F756368206572726F72206A
:100510002D20726573746172742077697468204D40
:100520003939390A00737461727400426564204C71
:100530006576656C696E6720004661696C6564204C
:10054000746F20656E61626C6520426564204C6545
:1005500076656C696E670A00496E76616C69642025
:100560006D6573682E0A0050726F62696E67205065
:100570006F696E740025532025692F2569002E0AA6
:10058000002F0050726F62696E67206D657368207E
:10059000706F696E742000202844525952554E29BC
:1005A00000473239204175746F20426564204C65E4
:1005B00076656C696E67003F20284C2C522C462CC7
:1005C0004229206F7574206F6620626F756E6473A8
:1005D0002E0A003F2856296572626F7365206C658C
:1005E00076656C20696D706C61757369626C6520ED
:1005F00028302D34292E0A00426164205A20766169
:100600006C75650A004E6F2062696C696E65617277
:1006100020677269640A0020530020204D32303573
:100620002042005741524E494E4721204C6F7720BF
:100630005A204A65726B206D6179206C6561642077
:10064000746F20756E77616E746564207061757368
:1006500065732E0A002E0A00206E6F742064697381
:1006600061626C65642E20536861726564207769ED
:1006700074680020496E76616C69642065787472D4
:10068000756465722000536C6565702E2E2E005ABD
:100690002050726F62652050617374204265640A55
:1006A000005A2050726F6265205061737420426559
:1006B00064004732384C3000205A3A200020593A22
:1006C000200042656420583A20004D657368207010
:1006D0006F696E74206F7574206F662072616E672B
:1006E000650A00436C69636B20746F2052657375F3
:1006F0006D652E2E2E00616C736F20656E61626CCD
:100700006564290A004E6F204D6F76652E00456E98
:10071000642066696C65206C6973740A00426567C1
:10072000696E2066696C65206C6973740A004E6F8F
:10073000206D656469610A00706175736500286EDB
:100740006F2066696C65290043757272656E74204E
:1007500066696C653A20005344207072696E746952
:100760006E67206279746520004E6F7420534420B8
:100770007072696E74696E670A002E0A0044656CB7
:100780006574696F6E206661696C65642C204669CA
:100790006C653A200046696C652064656C6574651B
:1007A000643A002569730025696D20256973002569
:1007B00069682025696D20256973002569642025F5
:1007C00069682025696D20256973002569792025D0
:1007D0006964202569682025696D202569730050AA
:1007E00072696E742074696D653A20006F6B006FDA
:1007F000666600E201DD01D601CF01C10144454238
:1008000055473A00544D334420456E646572332099
:100810004F46462E0020204D39322058004649527E
:100820004D574152455F4E414D453A4D61726C699D
:100830006E20322E302E395F4457372E342E35201D
:10084000544D3344204533534D444242202846659D
:100850006220323020323032322032303A34313A73
:1008600033352920534F555243455F434F44455F2D
:1008700055524C3A68747470733A2F2F67697468D4
:1008800075622E636F6D2F496E73616E6974794165
:1008900075746F6D6174696F6E2F4D61726C696EE6
:1008A0002F747265652F437265616C697479447742
:1008B000696E5F322E302050524F544F434F4C5F81
:1008C00056455253494F4E3A312E30204D41434800
:1008D000494E455F545950453A544D334420456E76
:1008E000646572332045585452554445525F434F16
:1008F000554E543A3120555549443A636564653242
:100900006132662D343161322D343734382D3962FD
:1009100031322D6335356336326633363766660AD3
:10092000002F2F004D31343520533C696E646578BB
:100930003E206F7574206F662072616E6765202897
:10094000302D31290A0020440020204D3230302043
:10095000530020204D323031205800204500202007
:100960004D32303320580020540020520020204DBA
:1009700032303420500020204D32303620580020B4
:1009800058004F4646004F4E0020204D61783A20D7
:1009900000200020204D696E3A2000203B200020DE
:1009A000204D32313120530046523A0020466C6FC0
:1009B000773A20003A200020536572766F2000209D
:1009C0006F7574206F662072616E67650A005365EB
:1009D00072766F200050726F6265204F6666736595
:1009E00074205A0050726F6265204F66667365749A
:1009F000205A0020440020490020204D333031206F
:100A0000500064697300656E0043290A0061626CDE
:100A1000656420286D696E2074656D702000436FD9
:100A20006C642065787472756465732061726520EA
:100A3000004D34323120696E636F727265637420C9
:100A4000706172616D657465722075736167650AA6
:100A5000004D65736820706F696E74206F75742027
:100A60006F662072616E67650A004F666673657413
:100A700073204170706C696564004572723A20544D
:100A80006F6F206661722100546F6F206661722063
:100A900066726F6D207265666572656E6365207043
:100AA0006F696E740A00454550524F4D204F4B0AF6
:100AB0000020286D6D2900203B00205A002059009D
:100AC00020204D383531205800290A0020746F202D
:100AD000003F5A206F7574206F662072616E6765E3
:100AE000202800290A0020746F20003F59206F75CC
:100AF00074206F662072616E676520282D00290AB8
:100B00000020746F20003F58206F7574206F66209E
:100B100072616E676520282D004D383400446F6E79
:100B200065207072696E74696E672066696C650A0B
:100B3000004D3737004D333100496E76616C696482
:100B40002065787472756465720A0020573A004314
:100B50006F6F6C696E672E2E2E0048656174696E2A
:100B6000672E2E2E0045312025530020573A004293
:100B7000656420436F6F6C696E672E2E2E00426590
:100B8000642048656174696E672E2E2E00236465AB
:100B900066696E652044454641554C545F004B6480
:100BA00020004B6920004B702000504944204175C3
:100BB000746F74756E652066696E6973686564210B
:100BC0002050757420746865206C617374204B70BC
:100BD0002C204B6920616E64204B6420636F6E7320
:100BE00074616E74732066726F6D2062656C6F77CE
:100BF00020696E746F20436F6E66696775726174E9
:100C0000696F6E2E680A00504944204175746F74F4
:100C1000756E65206661696C6564212074696D6517
:100C20006F75740A00504944204175746F74756E75
:100C300065206661696C6564212054656D7065721C
:100C4000617475726520746F6F20686967680A0047
:100C5000504944204379636C65730025532025690E
:100C60002F256900204B643A2000204B693A200070
:100C7000204B703A200020436C61737369632050ED
:100C80004944200A002054753A2000204B753A2030
:100C900000206D61783A2000206D696E3A200020B6
:100CA000643A200020626961733A200057616974D8
:100CB00020666F7220686561742075702E2E2E007C
:100CC000504944204175746F74756E65207374616A
:100CD00072740A00504944204175746F74756E65D2
:100CE000206661696C6564212054656D7065726170
:100CF0007475726520746F6F20686967680A0050A8
:100D00004944204175746F74756E650050494420E4
:100D10004175746F74756E65206661696C656421D8
:100D200020426164206865617465722069640A000C
:100D30004572723A207574663820666F6E74206E44
:100D40006F7420696E697469616C697A65642E00DC
:100D50004572723A207574663820666F6E74206E24
:100D60006F7420696E697469616C697A65642E00BC
:100D70004572723A207574663820666F6E74206E04
:100D80006F7420696E697469616C697A65642E009C
:100D90002568753A25303268750025303268753A15
:100DA0002530326875002530326875272530326865
:100DB0007500256875642025303268753A25303213
:100DC00068750042656400456E636C6F737572658B
:100DD00000202020202020200020202020006572DC
:100DE00072001FE020102010201010201020201072
:100DF000201030300840048003003FFFF0380070BE
:100E000030FC3020FC102078102030102C00D02E28
:100E100031D02F7BD02F7BD02E31D02C00D0203062
:100E20001020781020FC1030FC303800703FFFF0AC
:100E30003FFFF03800703186302387102787902FCE
:100E400087D02F03D0203010207810207810203049
:100E5000102F03D02F87D02787902387103186301B
:100E60003800703FFFF00410400208200208200400
:100E7000104008208010410010410008208004101C
:100E8000400000001FFFF81FFFF8000C0F00FE07D6
:100E9000022503BB017FFE08FE08FE0508080600C8
:100EA0000040F0C88888987810050808060000C03F
:100EB000F88888888888F80505050600012030F83C
:100EC00030200508080600002070F820202020E0CF
:100ED0000509090600FF2070A8A8B88888702007B7
:100EE0000505070001D86C366CD80509090600FF16
:100EF000F8A88888888888A8F8050A0A0600FE20CD
:100F00005050505088A8A88870030303060003407F
:100F1000A040FFFFFFFFFFFFFFFFFFFFFFFFFFFFFF
:100F2000FFFFFFFFFFFFFFFF0000000605FF0107B7
:100F30000706020080808080800080030303060192
:100F400005A0A0A005060606000050F85050F85075
:100F50000509090600FF2070A8A07028A8702005C8
:100F60000707060000C8C810204098980507070624
:100F7000000040A0A040A89068010303060205807D
:100F800080800309090601FF2040408080804040A6
:100F9000200309090601FF804040202020404080B6
:100FA00005070706000020A8702070A82005050589
:100FB0000600012020F820200203030601FFC040A4
:100FC00080050101060003F8020202060100C0C00C
:100FD000050707060000081010204040800507079D
:100FE000060000708898A8C88870030707060100EB
:100FF00040C040404040E0050707060000708808F8
:10100000102040F8050707060000F808103008888F
:101010007005070706000010305090F81010050703
:1010200007060000F880F00808887005070706002A
:1010300000304080F0888870050707060000F80837
:10104000101020202005070706000070888870888F
:10105000887005070706000070888878081060020D
:101060000505060100C0C000C0C00206060601FF5B
:10107000C0C000C04080030505060101204080403B
:1010800020050303060002F800F803050506010128
:10109000804020408005070706000070881020204F
:1010A00000200507070600007088B8A8B880700502
:1010B0000707060000708888F888888805070706F3
:1010C0000000F04848704848F00507070600007027
:1010D000888080808870050707060000F04848482F
:1010E0004848F0050707060000F88080F08080F887
:1010F000050707060000F88080F08080800507075C
:101100000600007088808098887005070706000038
:10111000888888F8888888030707060100E040402F
:10112000404040E0050707060000381010101090FE
:10113000600507070600008890A0C0A090880507FA
:1011400007060000808080808080F8050707060081
:101150000088D8A88888888805070706000088883E
:10116000C8A89888880507070600007088888888BE
:101170008870050707060000F08888F080808005E9
:10118000070706000070888888A89068050707068A
:101190000000F08888F0A09088050707060000701E
:1011A000888070088870050707060000F820202056
:1011B0002020200507070600008888888888887016
:1011C0000507070600008888888850502005070713
:1011D00006000088888888A8A85005070706000030
:1011E00088885020508888050707060000888850A6
:1011F00020202020050707060000F8081020408066
:10120000F80309090601FFE080808080808080E08B
:101210000507070600008040402010100803090958
:101220000601FFE020202020202020E00503030607
:1012300000052050880501010600FEF8030303069F
:1012400001058040200505050600007008788878B3
:101250000507070600008080F0888888F0050505EE
:1012600006000070808088700507070600000808E7
:1012700078888888780505050600007088F08070F9
:10128000050707060000304840E0404040050707DA
:101290000600FE7088888878087005070706000039
:1012A0008080F0888888880307070601004000C016
:1012B000404040E00409090601FE10003010101003
:1012C00010906005070706000080808890E09088F5
:1012D000030707060100C04040404040E005050507
:1012E000060000D0A8A8A8A8050505060000B0C8FB
:1012F00088888805050506000070888888700507BD
:10130000070600FEF0888888F08080050707060041
:10131000FE78888888780808050505060000B0C8AA
:1013200080808005050506000078807008F00507BC
:10133000070600002020F8202020180505050600DB
:101340000088888898680505050600008888885008
:10135000200505050600008888A8A8500505050693
:10136000000088502050880507070600FE888888FE
:1013700050204080050505060000F8102040F803C5
:1013800009090601FF2040404080404040200109FB
:10139000090602FF808080808080808080030909A8
:1013A0000601FF8040404020404040800503030686
:1013B000000248A890FF41425300504C4100636135
:1013C0006E63656C005072696E742041626F727456
:1013D0006564004D32350050617573696E672E2E5D
:1013E0002E00726573756D65004D32340050726F5A
:1013F0006265205A204F66667365740046696C2EDC
:10140000204469612E004F6666004F6E00452069DA
:101410006E206D6D5E3300452073746570732F6DA3
:101420006D005A2053746570732F6D6D00592053F1
:10143000746570732F6D6D00582053746570732F31
:101440006D6D00416476616E6365642053657474EC
:10145000696E67730046696C616D656E74005374E4
:101460006570732F6D6D00436F6E6669677572618D
:1014700074696F6E004F6666004F6E00486967685A
:101480002053706565640053572D4D6F646500539C
:10149000746F77004465706C6F790053656C662DCE
:1014A0005465737400526573657400436F6E6669AA
:1014B0006775726174696F6E00526573746F7265DF
:1014C0002044656661756C7473004C6F61642053D1
:1014D000657474696E67730053746F726520536529
:1014E0007474696E677300424C546F756368005082
:1014F000726F6265205A204F66667365740041649E
:1015000076616E6365642053657474696E677300F9
:101510004D61696E004D3139305335350A473238E7
:101520000A4732390A4D3430300A4D3130345332A3
:1015300031350A4732380A4D313039533231350AA4
:101540004D34323053310A4731583130305931300F
:101550003046353030300A47315A300A4D35303058
:101560000A4D31313720536574205A204F66667317
:101570006574004D313036533132380A4D333033D3
:101580004338533231354530550A4D3530300A4DE8
:10159000313137205049442054756E6520446F6EB8
:1015A00065004D3139305335350A4D3130345332C1
:1015B00031350A4732380A4732394C310A4731202F
:1015C000583130305931303046353030300A4731BB
:1015D0005A30004D3530300A4D3131372053657463
:1015E00074696E67732053746F7265640053746F0F
:1015F00072652053657474696E677300507265700C
:1016000020666F72205A2041646A757374005049D5
:10161000442054756E65005365747570004D6169A2
:101620006E003F004261636B0053746F70004D3277
:101630003200417474616368204D65646961004DD6
:101640003231005072696E742066726F6D204D6584
:101650006469610052656C65617365204D656469FC
:1016600061004C6576656C696E6720546F6F6C73B2
:1016700000436F6E66696775726174696F6E0054BE
:10168000656D7065726174757265004D6F74696F18
:101690006E00537461727420486F737420507269C5
:1016A0006E7400526573756D65205072696E7400BA
:1016B00054756E650053746F70205072696E7400BB
:1016C0005061757365205072696E7400496E666F63
:1016D0002053637265656E0043616E6E6F742065A2
:1016E0006E746572207375626469723A200002201C
:1016F0002E2E000152656672657368004D61696E39
:10170000002100486F74656E6420746F6F20636FF2
:101710006C64004261636B0050726F6365656400C6
:101720004D6F74696F6E0044697361626C6520531C
:1017300074657070657273004D3834004175746F54
:1017400020486F6D6500473238004D61696E00506A
:10175000726568656174202420426564005072657A
:1017600068656174202420456E640054656D706561
:1017700072617475726500BA13B613436F6F6C644F
:101780006F776E0050726568656174202400466151
:101790006E20537065656400426564004E6F7A7A0E
:1017A0006C65004D61696E0050726F6265205A2051
:1017B0004F666673657400466C6F770046616E20F5
:1017C000537065656400426564004E6F7A7A6C659B
:1017D000005370656564004D61696E00486F6D6906
:1017E0006E67204661696C6564006F70656E0054B9
:1017F0005249474745524544003A20007A5F6D6997
:101800006E00795F6D696E00785F6D696E0052657C
:10181000706F7274696E6720656E6473746F702088
:101820007374617475730A0020746F6F206C6F6E2F
:101830006720657874727573696F6E207072657653
:10184000656E7465640A0020636F6C64206578744B
:10185000727573696F6E2070726576656E746564FB
:101860000A00486F6D65202573257325732046692E
:10187000727374005761726E696E673A20486F6DBB
:10188000696E672042756D702044697669736F7266
:10189000203C20310A000202040000000000000089
:1018A00000000000000000754300007A4300007A49
:1018B00043000000410000004100000040000075AE
:1018C0004300007A4300007A43000000000000005B
:1018D000000000000053657474696E6773205374D0
:1018E0006F72656400454550524F4D20496E6974D2
:1018F00069616C697A65640A0000803B4400803B42
:101900004400002041000096420000A0420000A0D8
:10191000420000C8430080CF43D0070000D007003A
:1019200000640000004B00000024F4D43050C38E4B
:1019300020C2A24017828B7011127A910D816CD94E
:101940000AA861E108C7586607615143061E4B5D4E
:1019500005C145A7041A411104093D9803713931A5
:10196000034036DB0265339102D4305402802E1DD1
:1019700002632CEE01752AC501B028A00110278151
:10198000018F2564012B244B01E0223401AC211F7F
:10199000018D200D01801FFC00841EED00971DDFCE
:1019A00000B81CD200E61BC600201BBC00641AB2A3
:1019B00000B219A8000A19A0006A189900D117915D
:1019C0000040178B00B516840031167E00B31579E0
:1019D000003A157300C7146F0058146A00EE1366BE
:1019E000008813630025135E00C7125B006C12575A
:1019F0000015125400C111510070114F0021114BFC
:101A000000D61049008D10470046104400021042D5
:101A100000C00F4000800F3E00420F3C00060F3B0D
:101A200000CB0E3800930E37005C0E3500270E34C5
:101A300000F30D3200C10D3100900D3000600D2E0D
:101A400000320D2D00050D2C00D90C2B00AE0C29F9
:101A500000850C29005C0C2700350C27000E0C2695
:101A600000E80B2400C40B2400A00B23007D0B23F3
:101A7000005A0B2100390B2100180B2000F80A1F17
:101A800000D90A1E00BB0A1E009D0A1D00800A1D07
:101A900000630A1C00470A1B002C0A1B00110A1ACB
:101AA00000F7091A00DD091900C4091900AB09196A
:101AB00000920917007B091800630917004C0916EA
:101AC0000036091600200916000A091500F5081548
:101AD00000E0081400CC081400B8081400A408148E
:101AE00000900813007D0812006B081300580812BC
:101AF00000460812003408110023081100120811D2
:101B00000001081100F0071000E0071000D00710D6
:101B100000C0071000B0070F00A107100091070ECA
:101B20000083070F0074070F0065070E0057070EAC
:101B30000049070E003B070D002E070E0020070D81
:101B40000013070D0006070D00F9060C00ED060D49
:101B500000E0060C00D4060C00C8060C00BC060C05
:101B600000B0060C00A4060B0099060C008D060BB5
:101B70000082060B0077060B006C060B0061060A5C
:101B80000057060B004C060A0042060A0038060AF7
:101B9000002E060A0024060A001A060A001006098A
:101BA0000007060A00FD050900F4050900EB050918
:101BB00000E2050900D9050900D0050900C705099B
:101BC00000BE050900B5050800AD050800A505091A
:101BD000009C050800940508008C05080084050891
:101BE000007C050800740508006C05070065050801
:101BF000005D050700560508004E0507004705076C
:101C0000004005080038050700310507002A0507D0
:101C100000230507001C050600160507000F050731
:101C2000000805060002050700FB040600F504078E
:101C300000EE040600E8040600E2040700DB0406E8
:101C400000D5040600CF040600C9040600C304063C
:101C500000BD040600B7040600B1040500AC04068C
:101C600000A6040600A00405009B040600950405D8
:101C700000900406008A040500850405008004061F
:101C8000007A04050075040500700405006B040566
:101C90000066040500610405005C040500570405A6
:101CA00000520405004D04050048040500430405E6
:101CB000003E0404003A0405003504050030040425
:101CC000002C04050027040400230405001E04045E
:101CD000001A04040016040500110404000D040495
:101CE00000090405000404040000040400FC0304CB
:101CF00000F8030400F4030400F0030400EC030400
:101D000000E8030400E4030400E0030400DC03042F
:101D100000D8030400D4030400D0030400CC03045F
:101D200000C8030300C503030024F404D9201BC426
:101D30000C5C0E9804C4095F0265077101F405F993
:101D400000FB04B30048048700C103690058035531
:101D50000003034500BE023A008402310053022A08
:101D6000002902250004022000E4011C00C801191A
:101D700000AF0117009801140084011300710110D5
:101D8000006101100051010E0043010D0036010BEE
:101D9000002B010B0020010B00150109000C0109AB
:101DA0000003010800FB000800F3000800EB000737
:101DB00000E4000600DE000600D8000600D200069F
:101DC00000CC000500C7000500C2000500BD0004EE
:101DD00000B9000400B5000400B1000400AD000427
:101DE00000A9000400A5000300A20003009F000456
:101DF000009B00030098000300950002009300037D
:101E000000900003008D0002008B00030088000298
:101E1000008600020084000300810002007F0002AF
:101E2000007D0002007B00020079000200770001C3
:101E300000760002007400020072000100710002CE
:101E4000006F0002006D0001006C0002006A0001DA
:101E500000690002006700010066000100650001E2
:101E600000640002006200010061000100600001E6
:101E7000005F0002005D0001005C0001005B0001EA
:101E8000005A0001005900010058000100570001EC
:101E900000560001005500010054000100530000ED
:101EA00000530001005200010051000100500001E8
:101EB000004F0001004E0000004E0001004D0001E7
:101EC000004C0001004B0000004B0001004A0001E3
:101ED00000490001004800000048000100470001DF
:101EE00000460000004600010045000000450001DA
:101EF00000440001004300000043000100420000D4
:101F000000420001004100000041000100400001CA
:101F1000003F0000003F0001003E0000003E0001C5
:101F2000003D0000003D0001003C0000003C0000BE
:101F3000003C0001003B0000003B0001003A0000B3
:101F4000003A0001003900000039000100380000AB
:101F500000380000003800010037000000370001A1
:101F60000036000000360000003600010035000099
:101F7000003500000035000100340000003400008E
:101F80000034000100330000003300000033000182
:101F90000032000000320000003200010031000079
:101FA000003100000031000100300000003000006E
:101FB00000300001002F0000002F0000002F000063
:101FC000002F0001002E0000002E0000002E000156
:101FD000002D0000002D0000002D0000002D00014C
:101FE000002C0000002C0000002C0000002C000140
:101FF000002B0000002B0000002B0000002B000134
:10200000002A0000002A0000002A0000002A000127
:10201000002900000029000000290000002900001C
:10202000002900010028000000280000002800000E
:102030000028000000280001002700000027000001
:1020400000270000002700000027000100260000F4
:1020500000260000002600000026000000260001E7
:1020600000250000002500000025000000250000DC
:1020700000250000002500010024000000240000CD
:1020800000240000002400000024000100230000C0
:1020900000230000002300000023000000230000B4
:1020A00000230000002300010022000000220000A5
:1020B0000022000000220000002200000022000197
:1020C000002100000021000000210000002100008C
:1020D000002100000021000000210001002000007C
:1020E0000020000000200000002000000020000070
:1020F000002000000020000000200001001F000060
:10210000001F0000001F0000001F0000001F000053
:10211000001F0000001F0001001E0000001E000044
:10212000001E0000001E000000043700001E2900F1
:1021300000511B00005810000010090000CC0400E2
:1021400000780200004101000020436F756E74208A
:10215000583A0042656400453100450062656400FC
:102160002C2073797374656D2073746F707065645F
:1021700021204865617465725F49443A20004865D2
:102180006174696E67204661696C656400486561C9
:1021900074696E67206661696C6564004D31313227
:1021A0002053687574646F776E001000C9021001C7
:1021B0002C014001220170011801B0010E01F00153
:1021C00004015002FA00B002F0003003E600D00330
:1021D000DC009004D2007005C800A006BE00000814
:1021E000B400B009AA00D00BA000600E96006011E8
:1021F0008C000015820020197800C01D6E00A022FE
:102200006400B0275A00902C500000314600E034A2
:102210003C0010383200903A2800603C1E00A03D7F
:102220001400803E0A00203F00004572723A204DA3
:10223000415854454D50004D415854454D5020741F
:102240007269676765726564004572723A204D492C
:102250004E54454D50004D494E54454D50207472DA
:102260006967676572656400544845524D414C206A
:1022700052554E4157415900546865726D616C204A
:1022800052756E6177617900202F002042403A003C
:1022900020403A007C3C3E5E2B3D3F2F5B5D3B2C5B
:1022A0002A225C0043616E6E6F74206F70656E2031
:1022B0007375626469722000534420636172642004
:1022C0006F6B0A006F70656E526F6F742066616984
:1022D0006C65640A00766F6C756D652E696E697445
:1022E000206661696C65640A004E6F205344206368
:1022F0006172640A000A4D3234004D323320257376
:10230000002E0A006F70656E206661696C65642C32
:102310002046696C653A200046696C652073656CDF
:1023200065637465640A002053697A653A20004643
:10233000696C65206F70656E65643A2000454E4497
:1023400020535542524F5554494E450A00222070A1
:102350006F73002220706172656E743A22005355CB
:1023600042524F5554494E452043414C4C207461D4
:10237000726765743A220053756263616C6C204F1A
:10238000766572666C6F7700457863656564656431
:10239000206D617820535542524F5554494E452087
:1023A00064657074683A0057726974696E67207466
:1023B0006F2066696C653A20006672657368006418
:1023C0006F696E67002066696C653A20004E6F7712
:1023D00020002F6175746F25632E67006001F40182
:1023E0007001EA019001E001B001D601D001CC01F9
:1023F0000002C2013002B8016002AE019002A401E5
:10240000D0029A012003900170038601C0037C0171
:1024100030047201A004680120055E01B00554017A
:1024200060064A0120074001F0073601F0082C0140
:10243000100A2201500B1801C00C0E01500E0401AD
:102440003010FA002012F0005014E600C016DC0034
:102450007019D200501CC800501FBE007022B4007A
:10246000B025AA00F028A000202C9600302F8C0068
:1024700010328200A0347800F0366E00E03864003C
:10248000803A5A00403B5500E03B5000F03C46008B
:10249000C03D3C00603E3200E03E2800303F1E0060
:1024A000503F1900703F1400A03F0A00C03F0000D9
:1024B000D03FF6FFE03FECFF2020506C616E6E6570
:1024C0007242756666657242797465733A200020BF
:1024D00046726565204D656D6F72793A2000204324
:1024E0006F6D70696C65643A2046656220323020F9
:1024F000323032320A00204C6173742055706461AE
:102500007465643A20323032322D30322D3035202D
:102510007C20417574686F723A20426F6E647465F6
:102520006368202F20496E73616E697479417574F8
:102530006F6D6174696F6E0A004D61726C696E2017
:10254000322E302E395F4457372E342E350A002074
:10255000536F6674776172652052657365740A0003
:10256000205761746368646F672052657365740AED
:10257000002042726F776E206F757420526573650C
:10258000740A002045787465726E616C2052657320
:1025900065740A00506F77657255700A0073746134
:1025A00072740A004739310A47315A350A473930BF
:1025B0000A4D38340A4D31303453300A4D313430FD
:1025C0005330004D31303031006F6B006572726FE7
:1025D000722077726974696E6720746F2066696C07
:1025E000650A00446F6E6520736176696E672066C8
:1025F000696C652E0A004D323900456E6473746F44
:102600007073002553202563202563202563202532
:102610006300205A3A0020593A0020583A00656E6B
:102620006473746F7073206869743A20000000004E
:10263000010200090A00000000040308070000006E
:1026400000000000000000000000000000004D6FCE
:1026500076652025736D6D004D6F766520302E31C7
:102660006D6D004D6F766520316D6D004D6F766537
:102670002031306D6D004D6F7665204178697300B3
:102680004D6F7665204578747275646572004D6F84
:102690007665205A004D6F76652059004D6F76653E
:1026A0002058005072696E742066726F6D204D65FF
:1026B00064696100FFFFFF50726F62696E672046B8
:1026C00061696C65640A0050726F62696E672046CA
:1026D00061696C656400205A3A200020593A200054
:1026E00042656420583A2000220A00556E6B6E6FD6
:1026F000776E20636F6D6D616E643A20220000007A
:102700002200250028002B000000210024002700C3
:102710002A00020202020202020204040404040467
:102720000404030303030303030301010101010183
:102730000101010204081020408001020408102059
:1027400040800102040810204080804020100804CE
:1027500002014572726F722077726974696E672028
:10276000746F20454550524F4D210A0020746F6F01
:10277000206C6F6E6720657874727573696F6E2058
:1027800070726576656E7465640A0020636F6C64B0
:1027900020657874727573696F6E207072657665E6
:1027A0006E7465640A0020453A00205A3A002059A8
:1027B0003A00583A006F6B0A00526573656E643ACE
:1027C0002000544D334420456E64657233205265B9
:1027D0006164792E005072696E74696E672E2E2EB8
:1027E000005072696E7420506175736564002F2FFC
:1027F000616374696F6E3A00ACD9E1E011241FBEC9
:10280000CFEFD0E4DEBFCDBF84B780936D1814BE88
:102810000FB6F894A895809160008861809360005D
:10282000109260000FBE12E0A0E0B1E0ECE0FEED1F
:1028300001E00BBF02C007900D92AE38B107D9F787
:1028400028E1AEE8B2E001C01D92AD36B207E1F773
:1028500013E1CDEFD3E104C02197FE010E9470EC9B
:10286000CC3FD107C9F70E949EDA0C94F9EE0C9484
:102870000000FC0184910895FC0180810895009777
:1028800051F0FC0180E09191992331F0907C9038D7
:10289000D1F38F5FF8CF80E00895119800C087FDD5
:1028A00043C0419800C0119A00C000C0119800C0F8
:1028B00086FD46C0419800C0119A00C000C0119822
:1028C00000C085FD3BC0419800C0119A00C000C007
:1028D000119800C084FD30C0419800C0119A00C01A
:1028E00000C0119800C083FD25C0419800C0119A16
:1028F00000C000C0119800C082FD1AC0419800C0FD
:10290000119A00C000C0119800C081FD0FC041980D
:1029100000C0119A00C000C0119800C0419800C0CA
:10292000119A00C000C00895419ABCCF419AF0CFDF
:10293000419AE5CF419ADACF419ACFCF419AC4CF9D
:10294000419AB9CF90E080E00895CF93DF93DB0107
:10295000F9019C919130C1F0943080F094509C9397
:102960008830D1F480819181009771F00197918333
:102970008083480F591FEA01188206C08C3539F44C
:102980009C5F9C93943041F4DF91CF9108958B33F9
:1029900039F781E08C93F8CF20813181B9016F5FE5
:1029A0007F4F71836083420F531FEA0188838081C8
:1029B00091818F3591056CF7E7CF0F931F9381E0DD
:1029C0000091C6171091C7172091C8173091C917E9
:1029D0004091C2175091C3176091C4177091C517E9
:1029E000041715072607370708F480E01F910F9199
:1029F00008952091D703833021F425FD0CC024FDD8
:102A00000CC030E0A90102C0559547958A95E2F7C0
:102A1000CA018170089581E0089580E008952F92A1
:102A20003F924F925F926F927F928F929F92AF925E
:102A3000BF92CF92DF92EF92FF920F931F93CF93AB
:102A4000DF93CDB7DEB72E970FB6F894DEBF0FBE7B
:102A5000CDBFE82ED62E042F122F282F30E03C8732
:102A60002B87462F50E05A87498765E0F62EF29E65
:102A7000C001F39E900D11249E878D87FA01E80F07
:102A8000F91FEE0FFF1FEE0FFF1FE05AFB4F608193
:102A90007181828193819B01AC010E947BEE88232E
:102AA00009F434C1E00E612F6D0DFE9CF00111247C
:102AB000A985BA85AE0FBF1FAA0FBB1FAA0FBB1FE8
:102AC000A05ABB4FAC901196BC9011971296CC9027
:102AD00012971396DC90E00EFE9CA0011124A985AC
:102AE000BA85A40FB51FAA0FBB1FAA0FBB1FA05A00
:102AF000BB4FEC901196FC90119712960C91129787
:102B000013969C90862F90E0AD85BE85A80FB91FC7
:102B1000AA0FBB1FAA0FBB1FA05ABB4F8C901196C8
:102B20007C90119712966C90129713965C90610F9F
:102B300070E0AD85BE85A60FB71FAA0FBB1FAA0FF9
:102B4000BB1FA05ABB4F4C9011963C901197129608
:102B50001C91129713962C90E80FF91FEE0FFF1F90
:102B6000EE0FFF1FE05AFB4FB081B98321812A830A
:102B700032813B8383818C83FA01E60FF71FEE0FCE
:102B8000FF1FEE0FFF1FE05AFB4F90819D83A18135
:102B9000AE83B281BF83238128879701402F592DAF
:102BA000B701802F992D0E947BEE882321F0E12C24
:102BB000F12C00E0912C9501A601B501C6010E94FF
:102BC0007BEE882319F05701C02ED92C242D332DEC
:102BD000412F522D642D732D812F922D0E947BEE5B
:102BE000882321F0412C312C10E0212C282D372D69
:102BF000462D552D682D772D862D952D0E947BEE27
:102C0000882321F0842C732C612E522C2D813E813F
:102C10004F8158856D817E818F8198850E947BEEE2
:102C2000882321F01D821E821F82188629813A8105
:102C30004B815C8169817A818B819C810E947BEED2
:102C4000882341F03D8139834E814A835F815B83D4
:102C500088858C8385E0EB85FC858E9FD0018F9FD6
:102C6000B00D112429853A85A20FB31FAA0FBB1FEF
:102C7000AA0FBB1FA05ABB4FBA87A9879501A6010F
:102C8000B501C6010E947AEC9701402F592D0E9490
:102C900079EC6B017C01282D372D462D552D682DA3
:102CA000772D862D952D0E947AEC242D332D412FE2
:102CB000522D0E9479EC9B01AC01C701B6010E9424
:102CC0007AEC6B017C0129813A814B815C816981BD
:102CD0007A818B819C810E947AEC2D813E814F818B
:102CE00058850E9479EC9B01AC01C701B6010E9496
:102CF0007AEC20E030E040E450E40E94FDECA9854D
:102D0000BA856D937D938D939C9313972E960FB6F2
:102D1000F894DEBF0FBECDBFDF91CF911F910F9111
:102D2000FF90EF90DF90CF90BF90AF909F908F90EB
:102D30007F906F905F904F903F902F900895CF932A
:102D4000DF93C091C506D091C606209729F1609106
:102D5000C1067091C2068091C3069091C4060E947C
:102D60006FED6E5F7F4F24976C177D07ACF4709307
:102D7000D7046093D6040E94B4C5605E70448D4F42
:102D80009F4F6093D8047093D9048093DA04909392
:102D9000DB04DF91CF9108951092D8041092D904EA
:102DA0001092DA041092DB04F4CFBF92CF92DF923C
:102DB000EF92FF920F931F93CF93DF936B01E90183
:102DC0004A3009F4E1C0453109F089C0DB011296AF
:102DD000ED91FC911281C681D781139A00C0000049
:102DE00086E290E00197F0F7012F0295007F20E145
:102DF000B22EB10E88EF0E944D1400C0000086E292
:102E000090E00197F0F7103208F0A8C0812F80778A
:102E100080680E944D14802F0E944D1400C0000055
:102E200086E290E00197F0F780E80E944D1480E080
:102E30000E944D1400C0000086E290E00197F0F778
:102E40008AEF0E944D1400C0000086E290E00197D6
:102E5000F0F77E01B0E1EB0EF11C8881807F0E94CB
:102E60004D1489918295807F0E944D14CE15DF0507
:102E7000A1F700C0000086E290E00197F0F71F5F25
:102E8000005F1B11B7CF1398D6011296ED91FC91FC
:102E900080819281980F92832181921708F0BAC1A4
:102EA00094819F5F94839381890F821710F08FEF35
:102EB000820F8383458150E0440F551F70E060E02E
:102EC000868197810E94A5EE81E0DF91CF911F91CD
:102ED0000F91FF90EF90DF90CF90BF900895FB018E
:102EE00002811381423309F497C108F49FC146342B
:102EF00009F48CC1473409F494C14B3329F7898113
:102F00002B81D80112967C91129713963C91213017
:102F100009F4D1C1233009F0B2C148EF480F582F4E
:102F200091E0341708F490E031E0541708F030E0F5
:102F3000492F432B61E0571708F460E0462319F44A
:102F4000932309F4C1CFFA8030E0F901E356FE4F34
:102F5000D08027563E4FF901E080AAC180EE810F54
:102F60008068807F0E944D14812F8295807F0E940F
:102F70004D1400C0000086E290E00197F0F780E871
:102F80000E944D1480E854CF0B9A1398399A4198B7
:102F9000099A119A139A00C0000086E290E0019706
:102FA000F0F788E790E0CEE9DFE0FE013197F1F736
:102FB0000197D9F788EF0E944D1400C0000086E207
:102FC00090E00197F0F780E20E944D1480E00E94AB
:102FD0004D1400C0000086E290E00197F0F780E019
:102FE0000E944D1480E80E944D1400C0000086E24B
:102FF00090E00197F0F780E00E944D1480E10E947C
:103000004D1400C0000086E290E00197F0F7CE0179
:103010000197F1F7CE010197F1F7CE010197F1F792
:10302000CE010197F1F7CE010197F1F7CE0101979B
:10303000F1F7CE010197F1F7CE010197F1F7CE013B
:103040000197F1F7CE010197F1F7CE010197F1F762
:10305000CE010197F1F7CE010197F1F7CE0101976B
:10306000F1F72197F1F780E20E944D1480E40E946D
:103070004D1400C0000086E290E00197F0F780E276
:103080000E944D1480E60E944D1400C0000086E2AC
:1030900090E00197F0F7D0E0C0E08C2F8077806857
:1030A0000E944D148D2F0E944D1400C0000086E236
:1030B00090E00197F0F780E80E944D1480E00E94B4
:1030C0004D1400C0000086E290E00197F0F78AEF0F
:1030D0000E944D1400C0000086E290E00197F0F7D6
:1030E00080E2119800C0419800C0119A00C000C051
:1030F000119800C0419800C0119A00C000C01198FA
:1031000000C0419800C0119A00C000C0119800C0D2
:10311000419800C0119A00C000C0119800C04198A9
:1031200000C0119A00C000C0119800C0419800C0B2
:10313000119A00C000C0119800C0419800C0119AB7
:1031400000C000C0119800C0419800C0119A00C092
:1031500000C0119800C0419800C0119A00C000C082
:10316000119800C0419800C0119A00C000C0119889
:1031700000C0419800C0119A00C000C0119800C062
:10318000419800C0119A00C000C0119800C0419839
:1031900000C0119A00C000C0119800C0419800C042
:1031A000119A00C000C0119800C0419800C0119A47
:1031B00000C000C0119800C0419800C0119A00C022
:1031C00000C000C00000E6E2F0E03197F0F7815067
:1031D00009F087CF88EF0E944D1400C0000086E2FE
:1031E00090E00197F0F7CF5FD05FC03209F055CF84
:1031F00080E00E944D1480EC0E944D1400C000003D
:1032000086E290E00197F0F713985ECEF801858191
:1032100088835ACE80E059CEB901C8010E9472C697
:1032200053CED80111968C9188834ECE443191F0C3
:10323000473109F049CE1882D80112968C91129725
:10324000898315968C91159781508A8313968C915A
:103250008B833ACED80115964C91159750E0440FC8
:10326000551F70E060E016968D919C910E94A5EE2E
:10327000F8011282808181508383148225CE381711
:1032800008F422CE871708F41FCEFA80E12CD12C47
:10329000243070F459CEBE01C8010E9472C68981E3
:1032A00098819D0D98838E0D8983FF0C09F40CCEB7
:1032B000F7FEF6CFF0CF58E0580F482F31CE2091CF
:1032C000DF03022E000C330B8217130641F08093AC
:1032D000DF036AE87EE086E796E10C9442CA08952F
:1032E000EF92FF920F931F93CF93DF93EC018B012B
:1032F0007A018A859B858617970731F088819981A5
:103300000E9442CA1B870A87B701888199810E945F
:103310000EC22E813F81820F932F911D9F838E833A
:1033200090E080E0DF91CF911F910F91FF90EF909F
:1033300008959F92AF92BF92CF92DF92EF92FF9249
:103340000F931F93CF93DF93EC018B01942EA52E47
:103350008A859B858617970731F0888199810E941D
:1033600042CA1B870A8788859985019649F5BC80E2
:103370000A818E81080FC880D980D6015596ED91BB
:10338000FC91C6010995B80EE92CFA2C10E0F70162
:1033900021917F01211127C08E819F81810F911D75
:1033A0009F838E8390E080E0DF91CF911F910F91FA
:1033B000FF90EF90DF90CF90BF90AF909F900895D7
:1033C0000E811F81692D7A2D888199810E940EC2FC
:1033D000800F912F911D288539852817390738F6D8
:1033E00081E090E0E1CF4B2D602FC6010E949ACA88
:1033F000080F180FCCCFDF92EF92FF920F931F931D
:10340000CF93DF93EC01D62E1CAD0BAD7C0184E095
:10341000E80EF11CE98DFA8DC7010995412F480F7F
:103420002D2D602FC7010E949ACA9BAD890F8BAFCB
:1034300081E090E0DF91CF911F910F91FF90EF908D
:10344000DF9008952F923F924F925F926F927F92FA
:103450008F929F92AF92BF92CF92DF92EF92FF92A4
:103460000F931F93CF93DF93162F072F242EFC016A
:1034700080809180A280B380C501B40120E13EE04C
:1034800040E050E00E94CBEBE22ED32EC22FD32F90
:103490008CE3482E512C612C712CC501B401A30181
:1034A00092010E94CBEBC62E372ECA01B901A301AF
:1034B00092010E94CBEBF62E772E222059F1C50106
:1034C000B40120E831E541E050E00E94CBEB690116
:1034D0007F92FF92CE0168E170E00E9448EC9F93DA
:1034E0008F933F932F9382EB9DE09F938F930F9346
:1034F0001F930E941AE5EDB7FEB73A960FB6F894FF
:10350000FEBF0FBEEDBF88E0FAE0CF16D104C8F0D1
:1035100089E017C0209741F53F92CF927F936F9338
:1035200086EA9DE09F938F930F931F930E941AE565
:103530008DB79EB708960FB6F8949EBF0FBE8DBF8D
:1035400085E0DF91CF911F910F91FF90EF90DF9079
:10355000CF90BF90AF909F908F907F906F905F9033
:103560004F903F902F900895C436D105A8F47F93D3
:103570006F93DF92EF928AE99DE09F938F930F9371
:103580001F930E941AE5EDB7FEB738960FB6F89470
:10359000FEBF0FBEEDBFD4CF7F936F93DF92EF924C
:1035A00080E99DE09F938F930F931F930E941AE5EC
:1035B0008DB79EB708960FB6F8949EBF0FBE8DBF0D
:1035C00086E0BFCFEF92FF920F931F93CF937C01C2
:1035D0000091DA031091DB03C0E0F701EC0FF11D5D
:1035E0006081662351F0062E000C770BC8010E9403
:1035F000BFEE892B49F4CF5FF0CF80E0CF911F91D0
:103600000F91FF90EF90089581E0F8CF682F880F19
:10361000770B8091DA039091DB030E94BFEEFC01EF
:1036200081E0309709F480E0309781F0918120EDBE
:10363000290F2A3030F09E3251F4928190539A3003
:1036400098F43196F093D203E093D10308959D321C
:1036500011F09B3249F4928120ED290F2A3088F332
:103660009E3211F49381EACFF0E0E0E0EBCFCF920D
:10367000DF92FF920F931F93CF93DF9385E40E9415
:10368000061B68E0F62E811101C0F12C0091DA03CF
:103690001091DB0368E570E0C8010E94BFEEEC0109
:1036A00069E570E0C8010E94BFEE6C016AE570E058
:1036B000C8010E94BFEE21E030E0CD2811F430E0D7
:1036C00020E0220F331F41E050E0892B11F450E03D
:1036D00040E0CA01880F991F880F991F822B21E0B3
:1036E00030E0CD2B09F420E0822B8F29DF91CF91A0
:1036F0001F910F91FF90DF90CF9008950E94061BBD
:10370000882341F081E02091D1033091D203232B13
:1037100009F480E0089585E295E00C9469B9CF93AF
:10372000DF9300D000D0CDB7DEB780E090E0A0EA14
:10373000B0E489839A83AB83BC8361E0CE010196B8
:103740000E94D37B0F900F900F900F90DF91CF913D
:1037500008958091D1039091D203009731F04AE00F
:1037600050E070E060E00C94A5E360E070E0CB0115
:1037700008958091D1039091D203009731F04AE0EF
:1037800050E070E060E00C9477E260E070E0CB0124
:1037900008950E94B91B97FD0CC00E94B91B6F3F92
:1037A00071058105910509F034F40E94B91B862F3B
:1037B000089580E008958FEF0895CF93C62F0E945B
:1037C0007E1B882319F0CF910C94C91B8C2FCF91AD
:1037D00008958091D1039091D203892B41F00E94EA
:1037E000C91B91E0811101C090E0892F089591E0FB
:1037F000FCCFCF93DF93C82FD62F0E947E1B882348
:1038000021F0DF91CF910C94E91B8C2F0E94061BB5
:10381000811101C08D2FDF91CF9108950E94B91BB6
:10382000CB010895CF93DF93EB010E947E1B882389
:1038300021F0DF91CF910C940E1CCE01DF91CF913E
:1038400008950F931F93CF938091D1039091D2034A
:103850000097E9F0FC018F01C1912C2F2F7D81F0A1
:10386000C53411F0C536B9F7F801108270E060E098
:103870000E9419E1F801C083CF911F910F91089523
:1038800070E060E0CF911F910F910C9419E160E01E
:1038900070E0CB01F1CFCF92DF92EF92FF926A01FD
:1038A0007B010E947E1B882331F0FF90EF90DF9018
:1038B000CF900C94211CC701B601FF90EF90DF90D0
:1038C000CF900895CF92DF92EF92FF92CF93C82FBF
:1038D0000E94B4C56B017C0124EA30E74DE75FE349
:1038E000609124017091250180912601909127011A
:1038F0000E9483E587FD18C08AEF90E0A0E0B0E069
:103900008C0D9D1DAE1DBF1D80931B0490931C0448
:10391000A0931D04B0931E04C0932201CF91FF9089
:10392000EF90DF90CF90089580E090E0DC01E8CF49
:10393000FC01A081B1811C92A281B3818C918F5F27
:103940008C930280F381E02D90818CE0989F800D14
:103950001124E2E7F6E113AE84AF0895CF9380918E
:10396000E203811154C01092AD161092AE1610925F
:10397000AF1610927B1610927A1610927D16109246
:103980007C1610927F1681E080937E1682E28093EF
:1039900080161092851610928416E9E9F6E127EA5E
:1039A00036E18FEF81932E173F07E1F7C1E0C09317
:1039B000961627E43BEA30938C1620938B16C0931F
:1039C0008D1610928E1610928F1690E4909390168A
:1039D0001092911626E43BEA3093A8162093A7167E
:1039E0002AE131E030937916209378169EE1909386
:1039F0009D1691E190939E169CE190939B16809367
:103A00009A16809399160E94D7C6C093E20381E06C
:103A10008093E10381ED9DE09093BD158093BC15EB
:103A20001092BF151092BE1553985B9A52985A9AED
:103A30003898409A0E94DAA710922B04CF910C94E8
:103A4000ABBAFC0180E0309749F09491992331F0B2
:103A5000907C903809F08F5F3196F7CF0895AF9240
:103A6000BF92CF92DF92EF92FF920F931F93CF936B
:103A7000DF93EC015B018A01FB01099587FD16C00C
:103A8000C82ED12CF12CE12C2196F801C082D182D4
:103A9000E282F382CE01DF91CF911F910F91FF90CF
:103AA000EF90DF90CF90BF90AF900895982F907EC9
:103AB000903CA9F48F7190E0B0E0A0E06C017D0132
:103AC00056E0CC0CDD1CEE1CFF1C5A95D1F7CE0144
:103AD0000196F50109958F73C82A2296D6CF982FA3
:103AE000907F903E11F58F7090E0B0E0A0E06C0107
:103AF0007D0136E0CC0CDD1CEE1CFF1C3A95D1F7A5
:103B0000CE010196F50109958F73C82A46E0CC0CC9
:103B1000DD1CEE1CFF1C4A95D1F7CE010296F50183
:103B200009958F73C82A2396B0CF982F987F903F1E
:103B300079F5877090E0B0E0A0E06C017D0186E04F
:103B4000CC0CDD1CEE1CFF1C8A95D1F7CE01019632
:103B5000F50109958F73C82A96E0CC0CDD1CEE1C8C
:103B6000FF1C9A95D1F7CE010296F50109958F7346
:103B7000C82A26E0CC0CDD1CEE1CFF1C2A95D1F7D0
:103B8000CE010396F50109958F73C82A24967DCF3F
:103B9000982F907C903841F4807C803869F421968D
:103BA000CE01F5010995F8CF8E7F8D3F28F0219643
:103BB000CE01F5010995F8CFC12CD12C760165CF46
:103BC0009CE0899F802D112491E0980F9093E00351
:103BD0002CE0280F2093020730E02E5F3F4F4091EA
:103BE000AA164217130619F014F080E008952091E8
:103BF000AC169217D0F7662341F08E5F0E9403C87F
:103C0000809102078E5F0E9403C880910207909105
:103C1000AA16891750F32091AC169091E00329174A
:103C200020F31092AD168093AE1681E00895CF92E6
:103C3000DF92EF92FF920F931F93CF93DF93CDB755
:103C4000DEB72C970FB6F894DEBF0FBECDBF6F3F27
:103C500071058105910509F0D0F482E796E10E9493
:103C6000FB19E0917A16F0917B163196849190E0E1
:103C70002C960FB6F894DEBF0FBECDBFDF91CF916B
:103C80001F910F91FF90EF90DF90CF900895F090EB
:103C9000AD16E090AE162091E10321110FC040E770
:103CA0005DE06E2D8F2D0E9406CB90E080E0F80E37
:103CB000F092AD16E092AE169927DACFC0907A1640
:103CC000D0907B1626E736E13A8329832F2D30E00A
:103CD0003C832B832E2D30E03E832D8318861F825C
:103CE0002FEF3FEF3A8729871C861B8609E919E1E8
:103CF0009E012F5F3F4FAB01BC01C6010E947FB9FF
:103D0000B60186E796E10E9442CA8F819885CFCF9F
:103D1000CF92DF92EF92FF920F931F93CF93DF9397
:103D2000CDB7DEB72C970FB6F894DEBF0FBECDBF70
:103D3000F090AD16E090AE162091E10321111DC068
:103D400040E55DE06E2D8F2D0E9406CB90E080E077
:103D5000F80EF092AD16E092AE1699272C960FB69B
:103D6000F894DEBF0FBECDBFDF91CF911F910F91B1
:103D7000FF90EF90DF90CF900895C0907A16D0908A
:103D80007B1626E736E13A8329832F2D30E03C83EA
:103D90002B832E2D30E03E832D8318861F827A8759
:103DA00069871C861B8609E919E19E012F5F3F4F39
:103DB00049E354E1BC01C6010E9443BAB60186E75B
:103DC00096E10E9442CA8F819885C2CF8F929F92BE
:103DD000AF92BF92CF92DF92EF92FF920F931F9319
:103DE000CF93DF9300D000D0CDB7DEB77C01062F94
:103DF0005A01122F862F660F990B9C012B563E4FAE
:103E0000690186E0882E912C11160CF040C0AE019D
:103E10004F5F5F4F69E374E1C7010E942F1D7C0172
:103E200069817A818B819C8161157105810591057C
:103E300071F16D3371058105910509F462C06E372A
:103E400071058105910509F45CC06A32710581052F
:103E5000910579F507FF12C087EC9DE00E3F11F048
:103E600083EC9DE036E01302B00111240E94881E0D
:103E700066E070E00E945CEC161B73C065E470E0C5
:103E800080E090E00E94171E1150E9F510E0812FAC
:103E90000F900F900F900F90DF91CF911F910F9186
:103EA000FF90EF90DF90CF90BF90AF909F908F905A
:103EB0000895643271058105910579F4A114B10466
:103EC000E1F0E6E01E02B0011124C5010E94881E47
:103ED000B4010E945CEC161B97CF6034710581051C
:103EE000910559F41150F6016081062E000C770BF4
:103EF000880B990B0E94171E87CF0E94171E115026
:103F000083CF07FDA9CF61E089819A81AB81BC8114
:103F1000CD97A105B10509F460E0600F6A30ACF0FF
:103F20001150862F6AE00E943AEC092F682F880F03
:103F3000770B605D7F4F072E000C880B990B0E945A
:103F4000171E112309F4A2CF602F062E000C770B49
:103F5000605D7F4F072E000C880B990B0E94171E87
:103F60001150112309F492CF86E01802B0011124F8
:103F7000C7010E94881E66E070E00E945CEC161B80
:103F800086CFCF92DF92EF92FF920F931F93CF9342
:103F9000DF93CDB7DEB72C970FB6F894DEBF0FBE18
:103FA000CDBFF090AD16E090AE162091E103211147
:103FB0001DC040E35DE06E2D8F2D0E9406CB90E08A
:103FC00080E0F80EF092AD16E092AE1699272C968E
:103FD0000FB6F894DEBF0FBECDBFDF91CF911F911A
:103FE0000F91FF90EF90DF90CF900895C0907A16D8
:103FF000D0907B1626E736E13A8329832F2D30E0D7
:104000003C832B832E2D30E03E832D8318861F8228
:104010007A8769871C861B8609E919E19E012F5F53
:104020003F4F4CE354E1BC01C6010E9443BAB601C4
:1040300086E796E10E9442CA8F819885C2CF6FEFD2
:104040007FEF0C94C11FAF92BF92CF92DF92EF929D
:10405000FF920F931F93CF93DF935C016B010E943C
:10406000211DE82EC6010E943F14F12C03E110E04F
:10407000081B1109C5E20E151F050CF4CFE18C2FAA
:1040800090E09C012E5F3F4F4091AA164217130605
:1040900009F0CCF509972091AC16281719069CF168
:1040A0004091040750910507609103071092AD16E7
:1040B000C093AE1625E1C5010E94E61ED1E0C114F1
:1040C000D104B1F06AE370E080E090E00E94171E36
:1040D0000E151F05D4F4C45F8091AA16C81740F0CE
:1040E0002091AC164C2F4950550B241715067CF423
:1040F000DF91CF911F910F91FF90EF90DF90CF90C4
:10410000BF90AF900895D0E0DACFDD2389F3802F00
:10411000880F080F000F0093AD16C093AE1660E233
:1041200070E080E090E00E94171EC601DF91CF9101
:104130001F910F91FF90EF90DF90CF90BF90AF90C5
:104140000C941F208F929F92AF92BF92CF92DF92DA
:10415000EF92FF920F931F93CF93DF93CDB7DEB70C
:104160002C970FB6F894DEBF0FBECDBF982F862FC9
:104170005A017901D02E692F0E94E01D882309F48D
:1041800089C01091E103C701002381F10E94211D24
:10419000C82E80907A1690907B16111143C01FEFA5
:1041A00023E12C1940910407509105076091030702
:1041B000C5010E94E61ECC2009F46CC0B6E08B9FBE
:1041C000500111246AE370E080E090E00E94171E25
:1041D00057E0A516B10408F442C060E270E080E048
:1041E00090E00E94171EA81AB90AF2CF0E943F144D
:1041F000C82E80907A1690907B16112381F2FE01D2
:1042000033968AE0DF011D928A95E9F786E796E109
:104210009A83898300E719E19E012F5F3F4F4CE3AA
:1042200054E112C0FE0133968AE0DF011D928A95A7
:10423000E9F786E796E19A83898300E719E19E0111
:104240002F5F3F4F49E354E1B701C4010E9443BAD5
:10425000B40186E796E10E9442CA1F81A1CF409136
:104260000207212F30E0A6E0CA9EC00111242E5F74
:104270003F4F281739070CF49C0180E8821B80937C
:10428000AD164093AE16DD20C1F06FEF7FEFC70192
:104290000E94881E2C960FB6F894DEBF0FBECDBFCD
:1042A000DF91CF911F910F91FF90EF90DF90CF9012
:1042B000BF90AF909F908F900895C7010E941F20DC
:1042C000E9CF0C9439BB0F931F93CF931092D9036E
:1042D0001092D8032FE32093DE031092DD03109297
:1042E000DC039C01F90190812F5F3F4F9032D1F3A5
:1042F0009E34C9F4818190ED980F9A3020F08D3270
:1043000011F08B3281F432969F012F5F3F4F8081F5
:1043100080538A3008F468C09F012F5F3F4F80812F
:10432000803209F463C0F0931107E09310078F0106
:104330000F5F1F4FC0816AE270E0C8010E94BFEEAC
:10434000009731F0FC01319780818032E1F31182D6
:10435000CD3429F0C43519F0C73409F041C0F80153
:1043600080810F5F1F4F8032D1F380538A30C0F5B8
:10437000C093DE0330E020E06AE0AF014F5F5F4FA3
:10438000629FC001639F900D11249C01205331094D
:104390008081280F311D87FD3A95FA018081805375
:1043A0008A3058F33093DD032093DC03CA01FC010B
:1043B000019640814032D9F3F093DB03E093DA03B6
:1043C000CD3401F52E31310539F090F42731310526
:1043D00019F02C313105B1F4F093D903E093D803EF
:1043E000CF911F910F910895F9018ECFF90194CFCC
:1043F0002537310538F02737310570F3203A83E04F
:10440000380751F350E040E0CF0101966081662308
:1044100009F45AC0613291F4CD3481F4203231056F
:1044200069F49093D9038093D80363E270E00E940B
:10443000BFEE0097A9F2FC011082D2CFFC01DF0190
:104440008D91803271F090ED980F9A3008F18E3294
:1044500051F4918190539A30D8F041155105E1F40F
:1044600014C0FD01ECCF8D3211F08B3259F49181E3
:1044700060ED690F6A3060F09E3221F492819053B2
:104480009A3030F04115510519F4AF0141505109EE
:1044900081548A3108F4B8CFDF01FD018D91882362
:1044A00009F4B2CF90ED980F9A30B8F393ED980FCE
:1044B000923098F38B3289F3CF010196608160329C
:1044C00009F0A2CFFC01F8CF5093D9034093D80351
:1044D00087CFFC01659175918591949108958091A4
:1044E0000707882319F080E00E94868280E0089503
:1044F0004F925F926F927F928F929F92AF92BF92F4
:10450000CF92DF92EF92FF920F931F93CF93DF939F
:10451000EC012091C4043091C5044091C60450912F
:10452000C704688179818A819B810E9479EC6B0143
:104530007C012091C8043091C9044091CA04509173
:10454000CB046C817D818E819F810E9479EC4B012F
:104550005C01A701960160910C0170910D018091A1
:104560000E0190910F010E9483E5882309F450C049
:10457000C0920C01D0920D01E0920E01F0920F0159
:104580002091C9033091CA034091CB035091CC03D1
:10459000C701B6010E94E9E52B013C010E94A5ED8F
:1045A0006B017C0120E030E0A9010E9483E587FDDA
:1045B00070C020E030E040E450E4C701B6010E9442
:1045C000FDED18162CF4C12CD12CC0E4EC2EFE2CE1
:1045D000A7019601C301B2010E9479EC6093C10367
:1045E0007093C2038093C3039093C403C701B601C1
:1045F0000E946FED6093BF03062E000C770B6F5F78
:104600007F4F6430710514F064E070E06093BD0387
:10461000D0910A011091BF03A5019401609110018E
:104620007091110180911201909113010E9483E514
:10463000811133C0D11381C02091A5033091A6030D
:104640004091A7035091A8036091C1037091C203E8
:104650008091C3039091C4030E94E9E52091A903CE
:104660003091AA034091AB035091AC030E947AECC5
:10467000DF91CF911F910F91FF90EF90DF90CF903E
:10468000BF90AF909F908F907F906F905F904F9072
:104690000895C12CD12C76019BCF8092100190926D
:1046A0001101A0921201B09213012091CD0330911B
:1046B000CE034091CF035091D003C501B4010E94B5
:1046C000E9E54B015C010E94A5ED6B017C0120E056
:1046D00030E0A9010E9483E587FDF3C020E030E0CF
:1046E00040E450E4C701B6010E94FDED18162CF419
:1046F000C12CD12CB0E4EB2EFE2CA7019601C501F4
:10470000B4010E9479EC6093C5037093C603809353
:10471000C7039093C803C701B6010E946FED609371
:10472000C003062E000C770B6F5F7F4F643071055E
:1047300014F064E070E06093BE03C091C003D11335
:1047400005C080910B018C1709F470C08091BF03E4
:104750009091C00390930B0180930A010C2E000CE2
:10476000DD0B25E01203C0011124FC01EC0FFD1F3D
:10477000EE0FFF1FEE0FFF1FE05AFB4F208131812C
:10478000428153812093B9033093BA034093BB0312
:104790005093BC030091BE03002E000C110BFC01D2
:1047A000E00FF11FEE0FFF1FEE0FFF1FE05AFB4F50
:1047B00060817181828193810E9479EC6093B5035D
:1047C0007093B6038093B7039093B8032091BD0311
:1047D00035E02303F0011124CE0FDF1FCC0FDD1FC6
:1047E000CC0FDD1FC05ADB4F288139814A815B81A4
:1047F0002093B1033093B2034093B3035093B403B7
:10480000E00FF11FEE0FFF1FEE0FFF1FE05AFB4FEF
:1048100060817181828193810E9479EC6093AD0304
:104820007093AE038093AF039093B0038090C50361
:104830009090C603A090C703B090C8032091B50321
:104840003091B6034091B7035091B803C501B4014C
:104850000E94E9E52091B9033091BA034091BB036E
:104860005091BC030E947AEC6B017C01C092A903B9
:10487000D092AA03E092AB03F092AC032091AD0377
:104880003091AE034091AF035091B003C501B40124
:104890000E94E9E52091B1033091B2034091B30346
:1048A0005091B4030E947AECA70196010E9479EC22
:1048B0006093A5037093A6038093A7039093A80326
:1048C000BBCEC12CD12C760118CF1F93CF93DF9391
:1048D000CDB7DEB72C970FB6F894DEBF0FBECDBFB5
:1048E000182F882379F020E030E0A9016091CC04F2
:1048F0007091CD048091CE049091CF040E9483E505
:104900008823F9F0809159048117D9F00E94496EEB
:104910008CE0EBE6F1E0DE01119601900D928A95B4
:10492000E1F7CE0101960E947822809159048823F4
:1049300091F088E49CE00E94846E109259040E94D9
:10494000AB7C2C960FB6F894DEBF0FBECDBFDF91C7
:10495000CF911F91089581E08093590488E49CE0F1
:104960000E946C6EECCF80E00E9465241092C80417
:104970001092C9041092CA041092CB041092C4047D
:104980001092C5041092C6041092C7041092D0046D
:104990001092D1041092D2041092D3041092CC043D
:1049A0001092CD041092CE041092CF04E0E6F4E011
:1049B00024EC34E080E090E0A0ECBFE780839183BA
:1049C000A283B38384839583A683B78380879187EB
:1049D000A287B38784879587A687B787808B918BBB
:1049E000A28BB38B74962E173F0741F708958F92D1
:1049F0009F92AF92BF92CF92DF92EF92FF92C090C0
:104A0000CC04D090CD04E090CE04F090CF0420E010
:104A100030E0A901C701B6010E9483E58823E1F1D6
:104A2000A701960160E070E080E89FE30E94FDEC42
:104A30006B017C018090D0049090D104A090D204AE
:104A4000B090D30420E030E0A901C501B4010E9478
:104A500083E5882329F1A501940160E070E080E8F6
:104A60009FE30E94FDECC092C903D092CA03E0927A
:104A7000CB03F092CC036093CD037093CE0380936D
:104A8000CF039093D003FF90EF90DF90CF90BF9033
:104A9000AF909F908F900895C12CD12C7601CACFF2
:104AA00060E070E0CB01DFCFEFE6F0E08081826074
:104AB000808308954F925F926F927F928F929F9220
:104AC000AF92BF92CF92DF92EF92FF92CF93DF939C
:104AD00000D000D0CDB7DEB70E94B4C56B017C0119
:104AE000809122018F3FC1F10E94B4C580901B04C8
:104AF00090901C04A0901D04B0901E0468197909C0
:104B00008A099B0997FD28C080915E1690915F16D7
:104B10008F5F8F70891701F1E0912201E43008F076
:104B2000DCC024E0E29FF0011124EF55FE4F8081AC
:104B30009181A281B38189839A83AB83BC8320E076
:104B400030E0A901BE016F5F7F4F88E49CE00E94C6
:104B5000E0BC8FEF809322010E94DAA780912C04A1
:104B600082FFC4C080912A0481111DC091E09093FE
:104B70002A048091310489278093EA061092310437
:104B800083E080935E0110922C040E94B4C56C50A7
:104B90007E4F8F4F9F4F60932D0470932E04809310
:104BA0002F04909330048091260490912704A091C3
:104BB0002804B0912904A7019601281B390B4A0B40
:104BC0005B0BDA01C901B7FF05C08091340488236B
:104BD00009F4D2C1D701C6018C599F4FAF4FBF4FC7
:104BE0008093260490932704A0932804B09329046B
:104BF00060912B04062E000C770B77FF03C0719594
:104C00006195710990912B0480912504981371C0CE
:104C1000633008F06EC010922B0480912B048093B7
:104C20002504643008F075C08091EA068111F3C054
:104C300080917016909171168553984241F480913D
:104C40002301882309F4F9C08150809323010E9435
:104C500072708090380790903907A0903A07B09012
:104C60003B0781110E945425D501C4013AE0B69555
:104C7000A795979587953A95D1F7009741E0A407B6
:104C8000B10520F08FEF9FEFA0E0B0E096958795FB
:104C900020915E012111E3C030913404311198C19B
:104CA00080917016909171168553984209F477C1DE
:104CB0008091EB06811173C18091210490912204AF
:104CC000A0912304B0912404C81AD90AEA0AFB0A65
:104CD000F7FC73C10E94589070C180915F01909160
:104CE0006001A0916101B091620125CF10922A0468
:104CF0005ACF633009F091CF80912B0487FD07C014
:104D000081E0880F880F80932B0464E086CF8FEFBB
:104D1000F8CF8091010721E030E040E050E08823A7
:104D200009F456C08090FD069090FE06A090FF0604
:104D3000B090000781149104A104B104E9F170E07E
:104D400090E080E00E9488E520E030E040E85EE30B
:104D50000E94E9E52B013C01C701B60168197909F8
:104D60008A099B090E9488E59B01AC01C301B2013D
:104D70000E94FDEC20E030E04AE754E40E94E9E5BF
:104D80004B015C0120E030E042E053E40E94FDED85
:104D900024E630E040E050E087FF12C020E030E041
:104DA00040EA52E4C501B4010E94FDED2AE030E082
:104DB00040E050E087FF04C021E030E040E050E0F8
:104DC000C092FD06D092FE06E092FF06F092000728
:104DD000A0912B040A2E000CBB0B0E9417EC24E0C0
:104DE00030E040E050E00E94EDEB8091F1069091C0
:104DF000F206A091F306B091F406820F931FA41F50
:104E0000B51F8093F1069093F206A093F306B0933A
:104E1000F40610922B04D701C6018856954CAF4F6B
:104E2000BF4F8093210490932204A0932304B09356
:104E3000240481E080935E01FBCE8CE0809323010B
:104E400080911F0490912004009729F0019790937E
:104E5000200480931F0481E080935E01F8CE0097C8
:104E600041F040911F04509120044817590708F061
:104E700017CF8091340481111DC0223038F02430C6
:104E800008F44CC0243011F410925E018091AF16EA
:104E9000811105C081E08093AF160E94D7C6809132
:104EA0007816909179160E94B0C681E08093F00642
:104EB0008093340483E00E945F1981E0809396160A
:104EC000E0917016F091711609951092F00680919C
:104ED0003404811127C01092EA06809170169091D7
:104EE00071168553984209F0E3CE0E94B4C5DC01E7
:104EF000CB018C199D09AE09BF0980901F049090C9
:104F00002004B12CA12C88169906AA06BB0608F02D
:104F1000C7CE9093200480931F04C2CE81E080937B
:104F20005E01B4CF86E796E10E9410CA91E081113C
:104F300001C090E090933404882369F28091701648
:104F40009091711685539842B9F40E94B4C5DC0162
:104F5000CB018C199D09AE09BF09C0901F04D090E8
:104F60002004F12CE12CC816D906EA06FB0620F431
:104F70009093200480931F040F900F900F900F9038
:104F8000DF91CF91FF90EF90DF90CF90BF90AF90E7
:104F90009F908F907F906F905F904F90089548E919
:104FA000C40E4AE3D41EE11CF11CC0922104D0922D
:104FB0002204E0922304F0922404809134048111AD
:104FC000DBCF80915E018130B9F610925E01D4CFC3
:104FD000009709F46FCF45CF80910D0790910E0790
:104FE000892B79F480910D0790910E07892B49F454
:104FF00020910D0730910E0781E0232B19F480E0FA
:10500000089581E00895CF92DF92EF92FF926B01B5
:105010007C0183E3C816D104E104F10470F082E35B
:10502000C81AD108E108F10862E370E080E090E07E
:105030000E9419C50E947D88ECCFC701B6010E946D
:1050400019C5FF90EF90DF90CF900C947D889091E0
:10505000CA1794FB882780F994FF06C081E09091DD
:10506000C515911101C080E008954F925F926F9233
:105070007F928F929F92AF92BF92CF92DF92EF92E8
:10508000FF920F931F93CF93DF93CDB7DEB72C978B
:105090000FB6F894DEBF0FBECDBF1092010780910E
:1050A000EA061092EA068823F9F020E040E070E07A
:1050B00060E085EF94EA0E94068F2C960FB6F89474
:1050C000DEBF0FBECDBFDF91CF911F910F91FF903B
:1050D000EF90DF90CF90BF90AF909F908F907F9098
:1050E0006F905F904F900895209128013091290191
:1050F0004091F1065091F206CA01820F931F2436A7
:10510000310509F0EAC34730510544F006978A306B
:1051100091050CF0F1C38AE090E0F8C306964A3F8F
:105120005F4FACF38091F006882309F4BBC1209156
:10513000580C3091590C40915A0C50915B0C609175
:10514000480C7091490C80914A0C90914B0C0E9434
:105150007AEC4B015C0120915C0C30915D0C40912C
:105160005E0C50915F0C60914C0C70914D0C8091D5
:105170004E0C90914F0C0E947AEC69877A878B874E
:105180009C872091600C3091610C4091620C509191
:10519000630C6091500C7091510C8091520C909165
:1051A000530C0E947AEC2B013C0120E030E040E2FD
:1051B00051E40E94E9E520E030E048EC52E40E942E
:1051C000E9E56B017C0120E030E0A901C301B201F7
:1051D0000E9483E520E030E040EA50EC87FD04C007
:1051E00020E030E040EA50E4C701B6010E947AECCA
:1051F00020E030E040E251E40E94FDEC0E946FEDBF
:105200002B013C0180E277FE09C0709460945094B9
:105210004094411C511C611C711C8DE28093F50669
:1052200060E2F0E14F16F7E25F06610471048CF072
:10523000C301B20120E137E240E050E00E94EDEB13
:10524000CA01B9012AE030E040E050E00E94EDEBF5
:10525000605D6093F60660E228EE421623E0520697
:10526000610471048CF0C301B20128EE33E040E028
:1052700050E00E94EDEBCA01B9012AE030E040E0C5
:1052800050E00E94EDEB605D6093F706C301B20150
:1052900024E630E040E050E00E94EDEB8AE0C82ECA
:1052A000D12CE12CF12CCA01B901A70196010E9471
:1052B000EDEB605D6093F806C301B201A7019601B2
:1052C0000E94EDEB162FCA01B901A70196010E94B9
:1052D000EDEB112309F42AC38EE28093F906605D99
:1052E0006093FA06105D1093FB0665EF76E083E1AC
:1052F00094E00E94CAEE20E030E0A901C501B401AB
:105300000E9483E520E030E040E05FEB87FD04C0D1
:1053100020E030E040E05FE3C501B4010E947AEC98
:105320000E946FEDCB010E948085BC018EE094E06D
:105330000E94CAEE20E030E0A90169857A858B855C
:105340009C850E9483E520E030E040E05FEB87FD34
:1053500004C020E030E040E05FE369857A858B851A
:105360009C850E947AEC0E946FEDCB010E948085A3
:10537000BC0189E094E00E94CAEE0E94FE9F7C017D
:105380000E94E4844B015C018D829E82AF82B886CC
:10539000162F809121018E15E1F0E0922101C701C5
:1053A00064E670E00E9448EC28E4269FC001279F35
:1053B000900D1124BC0190E080E00E9488E52AE075
:1053C00037ED43E25CE30E94E9E50E9476ED6093ED
:1053D000080480912001181709F464C0809220010C
:1053E00041E060E8861661E5960661E0A606B10434
:1053F00008F440E068EF73E0CE0105960E94221A9F
:10540000982F990F990F891B855A8093F703882D40
:10541000837009F047C02091F3033091F403409169
:10542000F5035091F603211531054105510509F0A9
:105430008FC20E94E4844B015C010E94FE9FFC012C
:10544000009799F0A0E1B7E2A81BB90BA501940160
:105450000E940CEC9F0150E040E00E94CBEB211534
:1054600031054105510509F073C2E114F104A9F0B9
:10547000A0E1B7E2AE19BF092D813E814F81588569
:105480000E940CEC970150E040E00E94CBEB21150C
:1054900031054105510509F05BC21092E9038BE526
:1054A0008093E8030E94B4C50091E4031091E503E2
:1054B0002091E6033091E7036B017C01C01AD10A09
:1054C000E20AF30A9701860137FD11C02091E30338
:1054D00020952093E3036A547C4F8F4F9F4F609336
:1054E000E4037093E5038093E6039093E703F09061
:1054F000E30381E00E945F198091AA16843160F471
:105500008091AC16883040F006E61EE02CE043E0C7
:1055100068E080E50E944FC78091AA168431A0F40C
:105520008091AC16823080F0FF2031F080913C07F2
:1055300000E31EE0811102C00AEF1DE022E143E01A
:1055400062E088E60E944FC78091AA168C3108F06D
:10555000B1C08090E3049090E404A090E504B09082
:10556000E604C090E704D090E804843160F48091B0
:10557000AC16883040F002EE1DE02CE042E068E01E
:1055800088E00E944FC78091AA16883070F4D7FE39
:10559000F8C186E08093AD1687E08093AE166FEF7A
:1055A0007FEF8EED9DE00E94881E8091AA168C31BF
:1055B000E0F48091AC168431C0F020E030E040E0AF
:1055C0005FE3C501B4010E947AEC0E946FED77FFA2
:1055D00001C286E08093AD168CE18093AE166FEF2A
:1055E0007FEF8EED9DE00E94881E8090C106909016
:1055F000C206A090C306B090C4068091AA16883057
:1056000090F48091C5069091C60697FF0CC281E583
:105610008093AD1687E08093AE166FEF7FEF8EED2F
:105620009DE00E94881E8091AA168C31E0F4809142
:10563000AC168431C0F020E030E040E05FE3C5010B
:10564000B4010E947AEC0E946FED77FF14C281E5ED
:105650008093AD168CE18093AE166FEF7FEF8EEDE9
:105660009DE00E94881E8091AA168C3118F58091C9
:10567000AC168431F8F080913C078823D9F064E6B9
:10568000869FC001112481589F4F6FEF70E00E94E8
:105690005CECCB010E94FF8527E62093AD162CE140
:1056A0002093AE160E941F2065E270E080E090E03B
:1056B0000E94171E0E942728882369F18091AA164C
:1056C000843348F58091AC168A3228F107E028E04F
:1056D0004AE26AE286E796E10E9448C805E022E0D5
:1056E0004CE262E386E796E10E9448C86AE08AE2FB
:1056F0000E941CC8609178167091791682E380939D
:1057000092168BE28093931622E936E142E386E714
:1057100096E10E94ACC68091AA16853340F4809130
:10572000AC16813320F06AE486E30E941CC88091A5
:10573000AA16843368F48091AC16823348F002E0F4
:105740002091080442E367E386E796E10E9448C897
:105750008091AA168033E8F48091AC168832C8F0A4
:10576000FF2009F4B1C18091E903882309F4ACC199
:105770008091E8038093AD1680E38093AE1662E5D6
:1057800070E080E090E00E94171E89EE93E00E9496
:105790001F208091AA16873208F04DC08091AC1668
:1057A0008F3108F448C083E08093AD1616E2109361
:1057B000AE1668E570E080E090E00E94171E8BE076
:1057C0008093AD161093AE16FF2009F487C18EE0CA
:1057D00094E00E941F2088E28093AD1616E2109399
:1057E000AE1669E570E080E090E00E94171E80E34D
:1057F0008093AD161093AE16FF2009F492C189E094
:1058000094E00E941F208DE48093AD1616E2109361
:10581000AE166AE570E080E090E00E94171E85E514
:105820008093AD161093AE16FF2009F49DC183E15D
:1058300094E00E941F208091AA16833348F580913E
:10584000AC168B3228F183E00E945F1983E08093CD
:10585000AD1613E31093AE1666E070E080E090E0C2
:105860000E94171E81E00E945F198091280190918B
:1058700029010E94FF852CE02093AD161093AE16EF
:105880000E941F2065E270E080E090E00E94171EF9
:105890008091AA16813408F010CC8091AC16863322
:1058A00008F40BCC1092AD168EE38093AE1680E90F
:1058B00095E10E943F14182F60E870E080E995E1BF
:1058C0000E94C11F153108F0F8CB60E270E080E063
:1058D00090E00E94171E1F5FF5CF243631054CF46F
:1058E0008536910504F58A30910534F48AE090E01C
:1058F00009C084369105BCF0883EE3E09E0714F0B1
:1059000087EE93E02817390709F40CCC909329010E
:10591000809328011092F1061092F2061092F3067D
:105920001092F406FFCB84E690E0F0CF662351F0AE
:105930008EE28093F906605D6093FA0680E28093C0
:10594000FB06D3CC80E28093FA068093F906F6CF6B
:1059500029833A834B835C8381E020383145414081
:10596000510508F480E0482F69EE73E0CE010196FE
:105970000E94221A8F5F982F990F990F891B855AC1
:105980008FCDC6010E94FF85FC01808193E08032AB
:1059900029F4818192E0803209F491E0892F880F07
:1059A000880FD92ED81A8D2D815F8093AD1687E090
:1059B0008093AE1623E030E0291B3109CF01820F1E
:1059C000931F0E941F2069E070E080E090E00E9439
:1059D000171EEBCDCB010E94FF85FC01808193E077
:1059E000803229F4818192E0803209F491E0892F9C
:1059F000880F880FE92EE81A8E2D815F8093AD16EF
:105A00008CE18093AE1623E030E0291B3109CF01F1
:105A1000820F931F0E941F2069E070E080E090E0F9
:105A20000E94171EE2CD0E94FF85FC01808193E059
:105A3000803229F4818192E0803209F491E0892F4B
:105A4000880F880F292F281B822F865A8093AD1626
:105A500087E08093AE1623E030E0291B3109CF01A7
:105A6000820F931F0E941F2069E070E080E090E0A9
:105A70000E94171ED8CDCB010E94FF85FC018081BA
:105A800093E0803229F4818192E0803209F491E040
:105A9000892F880F880F492F481B842F865A80939F
:105AA000AD168CE18093AE1623E030E0291B31095E
:105AB000CF01820F931F0E941F2069E070E080E0F9
:105AC00090E00E94171ECFCD8091F7038093AD1612
:105AD00080E38093AE1688EF93E059CE87E00E9472
